{
	"contracts/crowdfunding.sol": {
		"CrowdFunding": {
			"abi": [
				{
					"inputs": [
						{
							"internalType": "uint256",
							"name": "_goal",
							"type": "uint256"
						},
						{
							"internalType": "uint256",
							"name": "_deadline",
							"type": "uint256"
						}
					],
					"stateMutability": "nonpayable",
					"type": "constructor"
				},
				{
					"inputs": [],
					"name": "admin",
					"outputs": [
						{
							"internalType": "address",
							"name": "",
							"type": "address"
						}
					],
					"stateMutability": "view",
					"type": "function"
				},
				{
					"inputs": [],
					"name": "contribute",
					"outputs": [],
					"stateMutability": "payable",
					"type": "function"
				},
				{
					"inputs": [
						{
							"internalType": "address",
							"name": "",
							"type": "address"
						}
					],
					"name": "contributors",
					"outputs": [
						{
							"internalType": "uint256",
							"name": "",
							"type": "uint256"
						}
					],
					"stateMutability": "view",
					"type": "function"
				},
				{
					"inputs": [],
					"name": "deadline",
					"outputs": [
						{
							"internalType": "uint256",
							"name": "",
							"type": "uint256"
						}
					],
					"stateMutability": "view",
					"type": "function"
				},
				{
					"inputs": [],
					"name": "fundingState",
					"outputs": [
						{
							"internalType": "enum CrowdFunding.State",
							"name": "",
							"type": "uint8"
						}
					],
					"stateMutability": "view",
					"type": "function"
				},
				{
					"inputs": [],
					"name": "goal",
					"outputs": [
						{
							"internalType": "uint256",
							"name": "",
							"type": "uint256"
						}
					],
					"stateMutability": "view",
					"type": "function"
				},
				{
					"inputs": [],
					"name": "minContribution",
					"outputs": [
						{
							"internalType": "uint256",
							"name": "",
							"type": "uint256"
						}
					],
					"stateMutability": "view",
					"type": "function"
				},
				{
					"inputs": [],
					"name": "numOfContributors",
					"outputs": [
						{
							"internalType": "uint256",
							"name": "",
							"type": "uint256"
						}
					],
					"stateMutability": "view",
					"type": "function"
				},
				{
					"inputs": [],
					"name": "raisedAmount",
					"outputs": [
						{
							"internalType": "uint256",
							"name": "",
							"type": "uint256"
						}
					],
					"stateMutability": "view",
					"type": "function"
				},
				{
					"inputs": [],
					"name": "startCampaign",
					"outputs": [],
					"stateMutability": "nonpayable",
					"type": "function"
				}
			],
			"devdoc": {
				"kind": "dev",
				"methods": {},
				"version": 1
			},
			"evm": {
				"assembly": "    /* \"contracts/crowdfunding.sol\":73:1041  contract CrowdFunding{\r... */\n  mstore(0x40, 0x80)\n    /* \"contracts/crowdfunding.sol\":428:626  constructor(uint _goal, uint _deadline){\r... */\n  callvalue\n  dup1\n  iszero\n  tag_1\n  jumpi\n  0x00\n  dup1\n  revert\ntag_1:\n  pop\n  mload(0x40)\n  sub(codesize, bytecodeSize)\n  dup1\n  bytecodeSize\n  dup4\n  codecopy\n  dup2\n  dup2\n  add\n  0x40\n  mstore\n  dup2\n  add\n  swap1\n  tag_2\n  swap2\n  swap1\n  tag_3\n  jump\t// in\ntag_2:\n    /* \"contracts/crowdfunding.sol\":486:496  msg.sender */\n  caller\n    /* \"contracts/crowdfunding.sol\":478:483  admin */\n  0x01\n  0x00\n    /* \"contracts/crowdfunding.sol\":478:496  admin = msg.sender */\n  0x0100\n  exp\n  dup2\n  sload\n  dup2\n  0xffffffffffffffffffffffffffffffffffffffff\n  mul\n  not\n  and\n  swap1\n  dup4\n  0xffffffffffffffffffffffffffffffffffffffff\n  and\n  mul\n  or\n  swap1\n  sstore\n  pop\n    /* \"contracts/crowdfunding.sol\":522:532  State.INIT */\n  0x00\n    /* \"contracts/crowdfunding.sol\":507:519  fundingState */\n  0x07\n  0x00\n    /* \"contracts/crowdfunding.sol\":507:532  fundingState = State.INIT */\n  0x0100\n  exp\n  dup2\n  sload\n  dup2\n  0xff\n  mul\n  not\n  and\n  swap1\n  dup4\n  0x04\n  dup2\n  gt\n  iszero\n  tag_6\n  jumpi\n  tag_7\n  tag_8\n  jump\t// in\ntag_7:\ntag_6:\n  mul\n  or\n  swap1\n  sstore\n  pop\n    /* \"contracts/crowdfunding.sol\":550:555  _goal */\n  dup2\n    /* \"contracts/crowdfunding.sol\":543:547  goal */\n  0x05\n    /* \"contracts/crowdfunding.sol\":543:555  goal = _goal */\n  dup2\n  swap1\n  sstore\n  pop\n    /* \"contracts/crowdfunding.sol\":577:586  _deadline */\n  dup1\n    /* \"contracts/crowdfunding.sol\":566:574  deadline */\n  0x04\n    /* \"contracts/crowdfunding.sol\":566:586  deadline = _deadline */\n  dup2\n  swap1\n  sstore\n  pop\n    /* \"contracts/crowdfunding.sol\":615:618  100 */\n  0x64\n    /* \"contracts/crowdfunding.sol\":597:612  minContribution */\n  0x03\n    /* \"contracts/crowdfunding.sol\":597:618  minContribution = 100 */\n  dup2\n  swap1\n  sstore\n  pop\n    /* \"contracts/crowdfunding.sol\":428:626  constructor(uint _goal, uint _deadline){\r... */\n  pop\n  pop\n    /* \"contracts/crowdfunding.sol\":73:1041  contract CrowdFunding{\r... */\n  jump(tag_9)\n    /* \"#utility.yul\":7:150   */\ntag_11:\n    /* \"#utility.yul\":64:69   */\n  0x00\n    /* \"#utility.yul\":95:101   */\n  dup2\n    /* \"#utility.yul\":89:102   */\n  mload\n    /* \"#utility.yul\":80:102   */\n  swap1\n  pop\n    /* \"#utility.yul\":111:144   */\n  tag_13\n    /* \"#utility.yul\":138:143   */\n  dup2\n    /* \"#utility.yul\":111:144   */\n  tag_14\n  jump\t// in\ntag_13:\n    /* \"#utility.yul\":7:150   */\n  swap3\n  swap2\n  pop\n  pop\n  jump\t// out\n    /* \"#utility.yul\":156:663   */\ntag_3:\n    /* \"#utility.yul\":235:241   */\n  0x00\n    /* \"#utility.yul\":243:249   */\n  dup1\n    /* \"#utility.yul\":292:294   */\n  0x40\n    /* \"#utility.yul\":280:289   */\n  dup4\n    /* \"#utility.yul\":271:278   */\n  dup6\n    /* \"#utility.yul\":267:290   */\n  sub\n    /* \"#utility.yul\":263:295   */\n  slt\n    /* \"#utility.yul\":260:379   */\n  iszero\n  tag_16\n  jumpi\n    /* \"#utility.yul\":298:377   */\n  tag_17\n  tag_18\n  jump\t// in\ntag_17:\n    /* \"#utility.yul\":260:379   */\ntag_16:\n    /* \"#utility.yul\":418:419   */\n  0x00\n    /* \"#utility.yul\":443:507   */\n  tag_19\n    /* \"#utility.yul\":499:506   */\n  dup6\n    /* \"#utility.yul\":490:496   */\n  dup3\n    /* \"#utility.yul\":479:488   */\n  dup7\n    /* \"#utility.yul\":475:497   */\n  add\n    /* \"#utility.yul\":443:507   */\n  tag_11\n  jump\t// in\ntag_19:\n    /* \"#utility.yul\":433:507   */\n  swap3\n  pop\n    /* \"#utility.yul\":389:517   */\n  pop\n    /* \"#utility.yul\":556:558   */\n  0x20\n    /* \"#utility.yul\":582:646   */\n  tag_20\n    /* \"#utility.yul\":638:645   */\n  dup6\n    /* \"#utility.yul\":629:635   */\n  dup3\n    /* \"#utility.yul\":618:627   */\n  dup7\n    /* \"#utility.yul\":614:636   */\n  add\n    /* \"#utility.yul\":582:646   */\n  tag_11\n  jump\t// in\ntag_20:\n    /* \"#utility.yul\":572:646   */\n  swap2\n  pop\n    /* \"#utility.yul\":527:656   */\n  pop\n    /* \"#utility.yul\":156:663   */\n  swap3\n  pop\n  swap3\n  swap1\n  pop\n  jump\t// out\n    /* \"#utility.yul\":750:827   */\ntag_23:\n    /* \"#utility.yul\":787:794   */\n  0x00\n    /* \"#utility.yul\":816:821   */\n  dup2\n    /* \"#utility.yul\":805:821   */\n  swap1\n  pop\n    /* \"#utility.yul\":750:827   */\n  swap2\n  swap1\n  pop\n  jump\t// out\n    /* \"#utility.yul\":833:1013   */\ntag_8:\n    /* \"#utility.yul\":881:958   */\n  0x4e487b7100000000000000000000000000000000000000000000000000000000\n    /* \"#utility.yul\":878:879   */\n  0x00\n    /* \"#utility.yul\":871:959   */\n  mstore\n    /* \"#utility.yul\":978:982   */\n  0x21\n    /* \"#utility.yul\":975:976   */\n  0x04\n    /* \"#utility.yul\":968:983   */\n  mstore\n    /* \"#utility.yul\":1002:1006   */\n  0x24\n    /* \"#utility.yul\":999:1000   */\n  0x00\n    /* \"#utility.yul\":992:1007   */\n  revert\n    /* \"#utility.yul\":1142:1259   */\ntag_18:\n    /* \"#utility.yul\":1251:1252   */\n  0x00\n    /* \"#utility.yul\":1248:1249   */\n  dup1\n    /* \"#utility.yul\":1241:1253   */\n  revert\n    /* \"#utility.yul\":1265:1387   */\ntag_14:\n    /* \"#utility.yul\":1338:1362   */\n  tag_30\n    /* \"#utility.yul\":1356:1361   */\n  dup2\n    /* \"#utility.yul\":1338:1362   */\n  tag_23\n  jump\t// in\ntag_30:\n    /* \"#utility.yul\":1331:1336   */\n  dup2\n    /* \"#utility.yul\":1328:1363   */\n  eq\n    /* \"#utility.yul\":1318:1381   */\n  tag_31\n  jumpi\n    /* \"#utility.yul\":1377:1378   */\n  0x00\n    /* \"#utility.yul\":1374:1375   */\n  dup1\n    /* \"#utility.yul\":1367:1379   */\n  revert\n    /* \"#utility.yul\":1318:1381   */\ntag_31:\n    /* \"#utility.yul\":1265:1387   */\n  pop\n  jump\t// out\n    /* \"contracts/crowdfunding.sol\":73:1041  contract CrowdFunding{\r... */\ntag_9:\n  dataSize(sub_0)\n  dup1\n  dataOffset(sub_0)\n  0x00\n  codecopy\n  0x00\n  return\nstop\n\nsub_0: assembly {\n        /* \"contracts/crowdfunding.sol\":73:1041  contract CrowdFunding{\r... */\n      mstore(0x40, 0x80)\n      jumpi(tag_1, lt(calldatasize, 0x04))\n      shr(0xe0, calldataload(0x00))\n      dup1\n      0xaaffadf3\n      gt\n      tag_12\n      jumpi\n      dup1\n      0xaaffadf3\n      eq\n      tag_7\n      jumpi\n      dup1\n      0xb25cdccf\n      eq\n      tag_8\n      jumpi\n      dup1\n      0xc59ee1dc\n      eq\n      tag_9\n      jumpi\n      dup1\n      0xd7bb99ba\n      eq\n      tag_10\n      jumpi\n      dup1\n      0xf851a440\n      eq\n      tag_11\n      jumpi\n      jump(tag_1)\n    tag_12:\n      dup1\n      0x1e206f15\n      eq\n      tag_2\n      jumpi\n      dup1\n      0x1f6d4942\n      eq\n      tag_3\n      jumpi\n      dup1\n      0x29dcb0cf\n      eq\n      tag_4\n      jumpi\n      dup1\n      0x40193883\n      eq\n      tag_5\n      jumpi\n      dup1\n      0xa8b78ed0\n      eq\n      tag_6\n      jumpi\n    tag_1:\n      0x00\n      dup1\n      revert\n        /* \"contracts/crowdfunding.sol\":181:210  uint public numOfContributors */\n    tag_2:\n      callvalue\n      dup1\n      iszero\n      tag_13\n      jumpi\n      0x00\n      dup1\n      revert\n    tag_13:\n      pop\n      tag_14\n      tag_15\n      jump\t// in\n    tag_14:\n      mload(0x40)\n      tag_16\n      swap2\n      swap1\n      tag_17\n      jump\t// in\n    tag_16:\n      mload(0x40)\n      dup1\n      swap2\n      sub\n      swap1\n      return\n        /* \"contracts/crowdfunding.sol\":103:147  mapping(address => uint) public contributors */\n    tag_3:\n      callvalue\n      dup1\n      iszero\n      tag_18\n      jumpi\n      0x00\n      dup1\n      revert\n    tag_18:\n      pop\n      tag_19\n      0x04\n      dup1\n      calldatasize\n      sub\n      dup2\n      add\n      swap1\n      tag_20\n      swap2\n      swap1\n      tag_21\n      jump\t// in\n    tag_20:\n      tag_22\n      jump\t// in\n    tag_19:\n      mload(0x40)\n      tag_23\n      swap2\n      swap1\n      tag_17\n      jump\t// in\n    tag_23:\n      mload(0x40)\n      dup1\n      swap2\n      sub\n      swap1\n      return\n        /* \"contracts/crowdfunding.sol\":251:271  uint public deadline */\n    tag_4:\n      callvalue\n      dup1\n      iszero\n      tag_24\n      jumpi\n      0x00\n      dup1\n      revert\n    tag_24:\n      pop\n      tag_25\n      tag_26\n      jump\t// in\n    tag_25:\n      mload(0x40)\n      tag_27\n      swap2\n      swap1\n      tag_17\n      jump\t// in\n    tag_27:\n      mload(0x40)\n      dup1\n      swap2\n      sub\n      swap1\n      return\n        /* \"contracts/crowdfunding.sol\":278:294  uint public goal */\n    tag_5:\n      callvalue\n      dup1\n      iszero\n      tag_28\n      jumpi\n      0x00\n      dup1\n      revert\n    tag_28:\n      pop\n      tag_29\n      tag_30\n      jump\t// in\n    tag_29:\n      mload(0x40)\n      tag_31\n      swap2\n      swap1\n      tag_17\n      jump\t// in\n    tag_31:\n      mload(0x40)\n      dup1\n      swap2\n      sub\n      swap1\n      return\n        /* \"contracts/crowdfunding.sol\":824:912  function startCampaign() public adminOnly{\r... */\n    tag_6:\n      callvalue\n      dup1\n      iszero\n      tag_32\n      jumpi\n      0x00\n      dup1\n      revert\n    tag_32:\n      pop\n      tag_33\n      tag_34\n      jump\t// in\n    tag_33:\n      stop\n        /* \"contracts/crowdfunding.sol\":217:244  uint public minContribution */\n    tag_7:\n      callvalue\n      dup1\n      iszero\n      tag_35\n      jumpi\n      0x00\n      dup1\n      revert\n    tag_35:\n      pop\n      tag_36\n      tag_37\n      jump\t// in\n    tag_36:\n      mload(0x40)\n      tag_38\n      swap2\n      swap1\n      tag_17\n      jump\t// in\n    tag_38:\n      mload(0x40)\n      dup1\n      swap2\n      sub\n      swap1\n      return\n        /* \"contracts/crowdfunding.sol\":394:419  State public fundingState */\n    tag_8:\n      callvalue\n      dup1\n      iszero\n      tag_39\n      jumpi\n      0x00\n      dup1\n      revert\n    tag_39:\n      pop\n      tag_40\n      tag_41\n      jump\t// in\n    tag_40:\n      mload(0x40)\n      tag_42\n      swap2\n      swap1\n      tag_43\n      jump\t// in\n    tag_42:\n      mload(0x40)\n      dup1\n      swap2\n      sub\n      swap1\n      return\n        /* \"contracts/crowdfunding.sol\":301:325  uint public raisedAmount */\n    tag_9:\n      callvalue\n      dup1\n      iszero\n      tag_44\n      jumpi\n      0x00\n      dup1\n      revert\n    tag_44:\n      pop\n      tag_45\n      tag_46\n      jump\t// in\n    tag_45:\n      mload(0x40)\n      tag_47\n      swap2\n      swap1\n      tag_17\n      jump\t// in\n    tag_47:\n      mload(0x40)\n      dup1\n      swap2\n      sub\n      swap1\n      return\n        /* \"contracts/crowdfunding.sol\":920:1030  function contribute() public payable campaignRunning{\r... */\n    tag_10:\n      tag_48\n      tag_49\n      jump\t// in\n    tag_48:\n      stop\n        /* \"contracts/crowdfunding.sol\":154:174  address public admin */\n    tag_11:\n      callvalue\n      dup1\n      iszero\n      tag_50\n      jumpi\n      0x00\n      dup1\n      revert\n    tag_50:\n      pop\n      tag_51\n      tag_52\n      jump\t// in\n    tag_51:\n      mload(0x40)\n      tag_53\n      swap2\n      swap1\n      tag_54\n      jump\t// in\n    tag_53:\n      mload(0x40)\n      dup1\n      swap2\n      sub\n      swap1\n      return\n        /* \"contracts/crowdfunding.sol\":181:210  uint public numOfContributors */\n    tag_15:\n      sload(0x02)\n      dup2\n      jump\t// out\n        /* \"contracts/crowdfunding.sol\":103:147  mapping(address => uint) public contributors */\n    tag_22:\n      mstore(0x20, 0x00)\n      dup1\n      0x00\n      mstore\n      keccak256(0x00, 0x40)\n      0x00\n      swap2\n      pop\n      swap1\n      pop\n      sload\n      dup2\n      jump\t// out\n        /* \"contracts/crowdfunding.sol\":251:271  uint public deadline */\n    tag_26:\n      sload(0x04)\n      dup2\n      jump\t// out\n        /* \"contracts/crowdfunding.sol\":278:294  uint public goal */\n    tag_30:\n      sload(0x05)\n      dup2\n      jump\t// out\n        /* \"contracts/crowdfunding.sol\":824:912  function startCampaign() public adminOnly{\r... */\n    tag_34:\n        /* \"contracts/crowdfunding.sol\":687:692  admin */\n      0x01\n      0x00\n      swap1\n      sload\n      swap1\n      0x0100\n      exp\n      swap1\n      div\n      0xffffffffffffffffffffffffffffffffffffffff\n      and\n        /* \"contracts/crowdfunding.sol\":673:692  msg.sender == admin */\n      0xffffffffffffffffffffffffffffffffffffffff\n      and\n        /* \"contracts/crowdfunding.sol\":673:683  msg.sender */\n      caller\n        /* \"contracts/crowdfunding.sol\":673:692  msg.sender == admin */\n      0xffffffffffffffffffffffffffffffffffffffff\n      and\n      eq\n        /* \"contracts/crowdfunding.sol\":665:693  require(msg.sender == admin) */\n      tag_56\n      jumpi\n      0x00\n      dup1\n      revert\n    tag_56:\n        /* \"contracts/crowdfunding.sol\":891:904  State.RUNNING */\n      0x02\n        /* \"contracts/crowdfunding.sol\":876:888  fundingState */\n      0x07\n      0x00\n        /* \"contracts/crowdfunding.sol\":876:904  fundingState = State.RUNNING */\n      0x0100\n      exp\n      dup2\n      sload\n      dup2\n      0xff\n      mul\n      not\n      and\n      swap1\n      dup4\n      0x04\n      dup2\n      gt\n      iszero\n      tag_58\n      jumpi\n      tag_59\n      tag_60\n      jump\t// in\n    tag_59:\n    tag_58:\n      mul\n      or\n      swap1\n      sstore\n      pop\n        /* \"contracts/crowdfunding.sol\":824:912  function startCampaign() public adminOnly{\r... */\n      jump\t// out\n        /* \"contracts/crowdfunding.sol\":217:244  uint public minContribution */\n    tag_37:\n      sload(0x03)\n      dup2\n      jump\t// out\n        /* \"contracts/crowdfunding.sol\":394:419  State public fundingState */\n    tag_41:\n      0x07\n      0x00\n      swap1\n      sload\n      swap1\n      0x0100\n      exp\n      swap1\n      div\n      0xff\n      and\n      dup2\n      jump\t// out\n        /* \"contracts/crowdfunding.sol\":301:325  uint public raisedAmount */\n    tag_46:\n      sload(0x06)\n      dup2\n      jump\t// out\n        /* \"contracts/crowdfunding.sol\":920:1030  function contribute() public payable campaignRunning{\r... */\n    tag_49:\n        /* \"contracts/crowdfunding.sol\":782:795  State.RUNNING */\n      0x02\n        /* \"contracts/crowdfunding.sol\":766:795  fundingState == State.RUNNING */\n      0x04\n      dup2\n      gt\n      iszero\n      tag_62\n      jumpi\n      tag_63\n      tag_60\n      jump\t// in\n    tag_63:\n    tag_62:\n        /* \"contracts/crowdfunding.sol\":766:778  fundingState */\n      0x07\n      0x00\n      swap1\n      sload\n      swap1\n      0x0100\n      exp\n      swap1\n      div\n      0xff\n      and\n        /* \"contracts/crowdfunding.sol\":766:795  fundingState == State.RUNNING */\n      0x04\n      dup2\n      gt\n      iszero\n      tag_64\n      jumpi\n      tag_65\n      tag_60\n      jump\t// in\n    tag_65:\n    tag_64:\n      eq\n        /* \"contracts/crowdfunding.sol\":758:796  require(fundingState == State.RUNNING) */\n      tag_66\n      jumpi\n      0x00\n      dup1\n      revert\n    tag_66:\n        /* \"contracts/crowdfunding.sol\":1004:1019  minContribution */\n      sload(0x03)\n        /* \"contracts/crowdfunding.sol\":991:1000  msg.value */\n      callvalue\n        /* \"contracts/crowdfunding.sol\":991:1019  msg.value >= minContribution */\n      lt\n      iszero\n        /* \"contracts/crowdfunding.sol\":983:1020  require(msg.value >= minContribution) */\n      tag_68\n      jumpi\n      0x00\n      dup1\n      revert\n    tag_68:\n        /* \"contracts/crowdfunding.sol\":920:1030  function contribute() public payable campaignRunning{\r... */\n      jump\t// out\n        /* \"contracts/crowdfunding.sol\":154:174  address public admin */\n    tag_52:\n      0x01\n      0x00\n      swap1\n      sload\n      swap1\n      0x0100\n      exp\n      swap1\n      div\n      0xffffffffffffffffffffffffffffffffffffffff\n      and\n      dup2\n      jump\t// out\n        /* \"#utility.yul\":7:146   */\n    tag_70:\n        /* \"#utility.yul\":53:58   */\n      0x00\n        /* \"#utility.yul\":91:97   */\n      dup2\n        /* \"#utility.yul\":78:98   */\n      calldataload\n        /* \"#utility.yul\":69:98   */\n      swap1\n      pop\n        /* \"#utility.yul\":107:140   */\n      tag_72\n        /* \"#utility.yul\":134:139   */\n      dup2\n        /* \"#utility.yul\":107:140   */\n      tag_73\n      jump\t// in\n    tag_72:\n        /* \"#utility.yul\":7:146   */\n      swap3\n      swap2\n      pop\n      pop\n      jump\t// out\n        /* \"#utility.yul\":152:481   */\n    tag_21:\n        /* \"#utility.yul\":211:217   */\n      0x00\n        /* \"#utility.yul\":260:262   */\n      0x20\n        /* \"#utility.yul\":248:257   */\n      dup3\n        /* \"#utility.yul\":239:246   */\n      dup5\n        /* \"#utility.yul\":235:258   */\n      sub\n        /* \"#utility.yul\":231:263   */\n      slt\n        /* \"#utility.yul\":228:347   */\n      iszero\n      tag_75\n      jumpi\n        /* \"#utility.yul\":266:345   */\n      tag_76\n      tag_77\n      jump\t// in\n    tag_76:\n        /* \"#utility.yul\":228:347   */\n    tag_75:\n        /* \"#utility.yul\":386:387   */\n      0x00\n        /* \"#utility.yul\":411:464   */\n      tag_78\n        /* \"#utility.yul\":456:463   */\n      dup5\n        /* \"#utility.yul\":447:453   */\n      dup3\n        /* \"#utility.yul\":436:445   */\n      dup6\n        /* \"#utility.yul\":432:454   */\n      add\n        /* \"#utility.yul\":411:464   */\n      tag_70\n      jump\t// in\n    tag_78:\n        /* \"#utility.yul\":401:464   */\n      swap2\n      pop\n        /* \"#utility.yul\":357:474   */\n      pop\n        /* \"#utility.yul\":152:481   */\n      swap3\n      swap2\n      pop\n      pop\n      jump\t// out\n        /* \"#utility.yul\":487:605   */\n    tag_79:\n        /* \"#utility.yul\":574:598   */\n      tag_81\n        /* \"#utility.yul\":592:597   */\n      dup2\n        /* \"#utility.yul\":574:598   */\n      tag_82\n      jump\t// in\n    tag_81:\n        /* \"#utility.yul\":569:572   */\n      dup3\n        /* \"#utility.yul\":562:599   */\n      mstore\n        /* \"#utility.yul\":487:605   */\n      pop\n      pop\n      jump\t// out\n        /* \"#utility.yul\":611:754   */\n    tag_83:\n        /* \"#utility.yul\":704:747   */\n      tag_85\n        /* \"#utility.yul\":741:746   */\n      dup2\n        /* \"#utility.yul\":704:747   */\n      tag_86\n      jump\t// in\n    tag_85:\n        /* \"#utility.yul\":699:702   */\n      dup3\n        /* \"#utility.yul\":692:748   */\n      mstore\n        /* \"#utility.yul\":611:754   */\n      pop\n      pop\n      jump\t// out\n        /* \"#utility.yul\":760:878   */\n    tag_87:\n        /* \"#utility.yul\":847:871   */\n      tag_89\n        /* \"#utility.yul\":865:870   */\n      dup2\n        /* \"#utility.yul\":847:871   */\n      tag_90\n      jump\t// in\n    tag_89:\n        /* \"#utility.yul\":842:845   */\n      dup3\n        /* \"#utility.yul\":835:872   */\n      mstore\n        /* \"#utility.yul\":760:878   */\n      pop\n      pop\n      jump\t// out\n        /* \"#utility.yul\":884:1106   */\n    tag_54:\n        /* \"#utility.yul\":977:981   */\n      0x00\n        /* \"#utility.yul\":1015:1017   */\n      0x20\n        /* \"#utility.yul\":1004:1013   */\n      dup3\n        /* \"#utility.yul\":1000:1018   */\n      add\n        /* \"#utility.yul\":992:1018   */\n      swap1\n      pop\n        /* \"#utility.yul\":1028:1099   */\n      tag_92\n        /* \"#utility.yul\":1096:1097   */\n      0x00\n        /* \"#utility.yul\":1085:1094   */\n      dup4\n        /* \"#utility.yul\":1081:1098   */\n      add\n        /* \"#utility.yul\":1072:1078   */\n      dup5\n        /* \"#utility.yul\":1028:1099   */\n      tag_79\n      jump\t// in\n    tag_92:\n        /* \"#utility.yul\":884:1106   */\n      swap3\n      swap2\n      pop\n      pop\n      jump\t// out\n        /* \"#utility.yul\":1112:1346   */\n    tag_43:\n        /* \"#utility.yul\":1211:1215   */\n      0x00\n        /* \"#utility.yul\":1249:1251   */\n      0x20\n        /* \"#utility.yul\":1238:1247   */\n      dup3\n        /* \"#utility.yul\":1234:1252   */\n      add\n        /* \"#utility.yul\":1226:1252   */\n      swap1\n      pop\n        /* \"#utility.yul\":1262:1339   */\n      tag_94\n        /* \"#utility.yul\":1336:1337   */\n      0x00\n        /* \"#utility.yul\":1325:1334   */\n      dup4\n        /* \"#utility.yul\":1321:1338   */\n      add\n        /* \"#utility.yul\":1312:1318   */\n      dup5\n        /* \"#utility.yul\":1262:1339   */\n      tag_83\n      jump\t// in\n    tag_94:\n        /* \"#utility.yul\":1112:1346   */\n      swap3\n      swap2\n      pop\n      pop\n      jump\t// out\n        /* \"#utility.yul\":1352:1574   */\n    tag_17:\n        /* \"#utility.yul\":1445:1449   */\n      0x00\n        /* \"#utility.yul\":1483:1485   */\n      0x20\n        /* \"#utility.yul\":1472:1481   */\n      dup3\n        /* \"#utility.yul\":1468:1486   */\n      add\n        /* \"#utility.yul\":1460:1486   */\n      swap1\n      pop\n        /* \"#utility.yul\":1496:1567   */\n      tag_96\n        /* \"#utility.yul\":1564:1565   */\n      0x00\n        /* \"#utility.yul\":1553:1562   */\n      dup4\n        /* \"#utility.yul\":1549:1566   */\n      add\n        /* \"#utility.yul\":1540:1546   */\n      dup5\n        /* \"#utility.yul\":1496:1567   */\n      tag_87\n      jump\t// in\n    tag_96:\n        /* \"#utility.yul\":1352:1574   */\n      swap3\n      swap2\n      pop\n      pop\n      jump\t// out\n        /* \"#utility.yul\":1661:1757   */\n    tag_82:\n        /* \"#utility.yul\":1698:1705   */\n      0x00\n        /* \"#utility.yul\":1727:1751   */\n      tag_100\n        /* \"#utility.yul\":1745:1750   */\n      dup3\n        /* \"#utility.yul\":1727:1751   */\n      tag_101\n      jump\t// in\n    tag_100:\n        /* \"#utility.yul\":1716:1751   */\n      swap1\n      pop\n        /* \"#utility.yul\":1661:1757   */\n      swap2\n      swap1\n      pop\n      jump\t// out\n        /* \"#utility.yul\":1763:1890   */\n    tag_102:\n        /* \"#utility.yul\":1808:1815   */\n      0x00\n        /* \"#utility.yul\":1837:1842   */\n      dup2\n        /* \"#utility.yul\":1826:1842   */\n      swap1\n      pop\n        /* \"#utility.yul\":1843:1884   */\n      tag_104\n        /* \"#utility.yul\":1878:1883   */\n      dup3\n        /* \"#utility.yul\":1843:1884   */\n      tag_105\n      jump\t// in\n    tag_104:\n        /* \"#utility.yul\":1763:1890   */\n      swap2\n      swap1\n      pop\n      jump\t// out\n        /* \"#utility.yul\":1896:2022   */\n    tag_101:\n        /* \"#utility.yul\":1933:1940   */\n      0x00\n        /* \"#utility.yul\":1973:2015   */\n      0xffffffffffffffffffffffffffffffffffffffff\n        /* \"#utility.yul\":1966:1971   */\n      dup3\n        /* \"#utility.yul\":1962:2016   */\n      and\n        /* \"#utility.yul\":1951:2016   */\n      swap1\n      pop\n        /* \"#utility.yul\":1896:2022   */\n      swap2\n      swap1\n      pop\n      jump\t// out\n        /* \"#utility.yul\":2028:2105   */\n    tag_90:\n        /* \"#utility.yul\":2065:2072   */\n      0x00\n        /* \"#utility.yul\":2094:2099   */\n      dup2\n        /* \"#utility.yul\":2083:2099   */\n      swap1\n      pop\n        /* \"#utility.yul\":2028:2105   */\n      swap2\n      swap1\n      pop\n      jump\t// out\n        /* \"#utility.yul\":2111:2238   */\n    tag_86:\n        /* \"#utility.yul\":2167:2176   */\n      0x00\n        /* \"#utility.yul\":2200:2232   */\n      tag_109\n        /* \"#utility.yul\":2226:2231   */\n      dup3\n        /* \"#utility.yul\":2200:2232   */\n      tag_102\n      jump\t// in\n    tag_109:\n        /* \"#utility.yul\":2187:2232   */\n      swap1\n      pop\n        /* \"#utility.yul\":2111:2238   */\n      swap2\n      swap1\n      pop\n      jump\t// out\n        /* \"#utility.yul\":2244:2424   */\n    tag_60:\n        /* \"#utility.yul\":2292:2369   */\n      0x4e487b7100000000000000000000000000000000000000000000000000000000\n        /* \"#utility.yul\":2289:2290   */\n      0x00\n        /* \"#utility.yul\":2282:2370   */\n      mstore\n        /* \"#utility.yul\":2389:2393   */\n      0x21\n        /* \"#utility.yul\":2386:2387   */\n      0x04\n        /* \"#utility.yul\":2379:2394   */\n      mstore\n        /* \"#utility.yul\":2413:2417   */\n      0x24\n        /* \"#utility.yul\":2410:2411   */\n      0x00\n        /* \"#utility.yul\":2403:2418   */\n      revert\n        /* \"#utility.yul\":2553:2670   */\n    tag_77:\n        /* \"#utility.yul\":2662:2663   */\n      0x00\n        /* \"#utility.yul\":2659:2660   */\n      dup1\n        /* \"#utility.yul\":2652:2664   */\n      revert\n        /* \"#utility.yul\":2676:2789   */\n    tag_105:\n        /* \"#utility.yul\":2757:2758   */\n      0x05\n        /* \"#utility.yul\":2750:2755   */\n      dup2\n        /* \"#utility.yul\":2747:2759   */\n      lt\n        /* \"#utility.yul\":2737:2783   */\n      tag_115\n      jumpi\n        /* \"#utility.yul\":2763:2781   */\n      tag_116\n      tag_60\n      jump\t// in\n    tag_116:\n        /* \"#utility.yul\":2737:2783   */\n    tag_115:\n        /* \"#utility.yul\":2676:2789   */\n      pop\n      jump\t// out\n        /* \"#utility.yul\":2795:2917   */\n    tag_73:\n        /* \"#utility.yul\":2868:2892   */\n      tag_118\n        /* \"#utility.yul\":2886:2891   */\n      dup2\n        /* \"#utility.yul\":2868:2892   */\n      tag_82\n      jump\t// in\n    tag_118:\n        /* \"#utility.yul\":2861:2866   */\n      dup2\n        /* \"#utility.yul\":2858:2893   */\n      eq\n        /* \"#utility.yul\":2848:2911   */\n      tag_119\n      jumpi\n        /* \"#utility.yul\":2907:2908   */\n      0x00\n        /* \"#utility.yul\":2904:2905   */\n      dup1\n        /* \"#utility.yul\":2897:2909   */\n      revert\n        /* \"#utility.yul\":2848:2911   */\n    tag_119:\n        /* \"#utility.yul\":2795:2917   */\n      pop\n      jump\t// out\n\n    auxdata: 0xa264697066735822122051b7a0382c5db668d1e400a855c2c3d23fd88cd52208c040937d80ddd65b9a8f64736f6c63430008070033\n}\n",
				"bytecode": {
					"linkReferences": {},
					"object": "608060405234801561001057600080fd5b50604051610692380380610692833981810160405281019061003291906100d0565b33600160006101000a81548173ffffffffffffffffffffffffffffffffffffffff021916908373ffffffffffffffffffffffffffffffffffffffff1602179055506000600760006101000a81548160ff021916908360048111156100995761009861011a565b5b0217905550816005819055508060048190555060646003819055505050610165565b6000815190506100ca8161014e565b92915050565b600080604083850312156100e7576100e6610149565b5b60006100f5858286016100bb565b9250506020610106858286016100bb565b9150509250929050565b6000819050919050565b7f4e487b7100000000000000000000000000000000000000000000000000000000600052602160045260246000fd5b600080fd5b61015781610110565b811461016257600080fd5b50565b61051e806101746000396000f3fe6080604052600436106100915760003560e01c8063aaffadf311610059578063aaffadf31461016b578063b25cdccf14610196578063c59ee1dc146101c1578063d7bb99ba146101ec578063f851a440146101f657610091565b80631e206f15146100965780631f6d4942146100c157806329dcb0cf146100fe5780634019388314610129578063a8b78ed014610154575b600080fd5b3480156100a257600080fd5b506100ab610221565b6040516100b8919061040d565b60405180910390f35b3480156100cd57600080fd5b506100e860048036038101906100e3919061037d565b610227565b6040516100f5919061040d565b60405180910390f35b34801561010a57600080fd5b5061011361023f565b604051610120919061040d565b60405180910390f35b34801561013557600080fd5b5061013e610245565b60405161014b919061040d565b60405180910390f35b34801561016057600080fd5b5061016961024b565b005b34801561017757600080fd5b506101806102d2565b60405161018d919061040d565b60405180910390f35b3480156101a257600080fd5b506101ab6102d8565b6040516101b891906103f2565b60405180910390f35b3480156101cd57600080fd5b506101d66102eb565b6040516101e3919061040d565b60405180910390f35b6101f46102f1565b005b34801561020257600080fd5b5061020b610342565b60405161021891906103d7565b60405180910390f35b60025481565b60006020528060005260406000206000915090505481565b60045481565b60055481565b600160009054906101000a900473ffffffffffffffffffffffffffffffffffffffff1673ffffffffffffffffffffffffffffffffffffffff163373ffffffffffffffffffffffffffffffffffffffff16146102a557600080fd5b6002600760006101000a81548160ff021916908360048111156102cb576102ca610489565b5b0217905550565b60035481565b600760009054906101000a900460ff1681565b60065481565b6002600481111561030557610304610489565b5b600760009054906101000a900460ff16600481111561032757610326610489565b5b1461033157600080fd5b60035434101561034057600080fd5b565b600160009054906101000a900473ffffffffffffffffffffffffffffffffffffffff1681565b600081359050610377816104d1565b92915050565b600060208284031215610393576103926104b8565b5b60006103a184828501610368565b91505092915050565b6103b381610428565b82525050565b6103c281610477565b82525050565b6103d18161046d565b82525050565b60006020820190506103ec60008301846103aa565b92915050565b600060208201905061040760008301846103b9565b92915050565b600060208201905061042260008301846103c8565b92915050565b60006104338261044d565b9050919050565b6000819050610448826104bd565b919050565b600073ffffffffffffffffffffffffffffffffffffffff82169050919050565b6000819050919050565b60006104828261043a565b9050919050565b7f4e487b7100000000000000000000000000000000000000000000000000000000600052602160045260246000fd5b600080fd5b600581106104ce576104cd610489565b5b50565b6104da81610428565b81146104e557600080fd5b5056fea264697066735822122051b7a0382c5db668d1e400a855c2c3d23fd88cd52208c040937d80ddd65b9a8f64736f6c63430008070033",
					"opcodes": "PUSH1 0x80 PUSH1 0x40 MSTORE CALLVALUE DUP1 ISZERO PUSH2 0x10 JUMPI PUSH1 0x0 DUP1 REVERT JUMPDEST POP PUSH1 0x40 MLOAD PUSH2 0x692 CODESIZE SUB DUP1 PUSH2 0x692 DUP4 CODECOPY DUP2 DUP2 ADD PUSH1 0x40 MSTORE DUP2 ADD SWAP1 PUSH2 0x32 SWAP2 SWAP1 PUSH2 0xD0 JUMP JUMPDEST CALLER PUSH1 0x1 PUSH1 0x0 PUSH2 0x100 EXP DUP2 SLOAD DUP2 PUSH20 0xFFFFFFFFFFFFFFFFFFFFFFFFFFFFFFFFFFFFFFFF MUL NOT AND SWAP1 DUP4 PUSH20 0xFFFFFFFFFFFFFFFFFFFFFFFFFFFFFFFFFFFFFFFF AND MUL OR SWAP1 SSTORE POP PUSH1 0x0 PUSH1 0x7 PUSH1 0x0 PUSH2 0x100 EXP DUP2 SLOAD DUP2 PUSH1 0xFF MUL NOT AND SWAP1 DUP4 PUSH1 0x4 DUP2 GT ISZERO PUSH2 0x99 JUMPI PUSH2 0x98 PUSH2 0x11A JUMP JUMPDEST JUMPDEST MUL OR SWAP1 SSTORE POP DUP2 PUSH1 0x5 DUP2 SWAP1 SSTORE POP DUP1 PUSH1 0x4 DUP2 SWAP1 SSTORE POP PUSH1 0x64 PUSH1 0x3 DUP2 SWAP1 SSTORE POP POP POP PUSH2 0x165 JUMP JUMPDEST PUSH1 0x0 DUP2 MLOAD SWAP1 POP PUSH2 0xCA DUP2 PUSH2 0x14E JUMP JUMPDEST SWAP3 SWAP2 POP POP JUMP JUMPDEST PUSH1 0x0 DUP1 PUSH1 0x40 DUP4 DUP6 SUB SLT ISZERO PUSH2 0xE7 JUMPI PUSH2 0xE6 PUSH2 0x149 JUMP JUMPDEST JUMPDEST PUSH1 0x0 PUSH2 0xF5 DUP6 DUP3 DUP7 ADD PUSH2 0xBB JUMP JUMPDEST SWAP3 POP POP PUSH1 0x20 PUSH2 0x106 DUP6 DUP3 DUP7 ADD PUSH2 0xBB JUMP JUMPDEST SWAP2 POP POP SWAP3 POP SWAP3 SWAP1 POP JUMP JUMPDEST PUSH1 0x0 DUP2 SWAP1 POP SWAP2 SWAP1 POP JUMP JUMPDEST PUSH32 0x4E487B7100000000000000000000000000000000000000000000000000000000 PUSH1 0x0 MSTORE PUSH1 0x21 PUSH1 0x4 MSTORE PUSH1 0x24 PUSH1 0x0 REVERT JUMPDEST PUSH1 0x0 DUP1 REVERT JUMPDEST PUSH2 0x157 DUP2 PUSH2 0x110 JUMP JUMPDEST DUP2 EQ PUSH2 0x162 JUMPI PUSH1 0x0 DUP1 REVERT JUMPDEST POP JUMP JUMPDEST PUSH2 0x51E DUP1 PUSH2 0x174 PUSH1 0x0 CODECOPY PUSH1 0x0 RETURN INVALID PUSH1 0x80 PUSH1 0x40 MSTORE PUSH1 0x4 CALLDATASIZE LT PUSH2 0x91 JUMPI PUSH1 0x0 CALLDATALOAD PUSH1 0xE0 SHR DUP1 PUSH4 0xAAFFADF3 GT PUSH2 0x59 JUMPI DUP1 PUSH4 0xAAFFADF3 EQ PUSH2 0x16B JUMPI DUP1 PUSH4 0xB25CDCCF EQ PUSH2 0x196 JUMPI DUP1 PUSH4 0xC59EE1DC EQ PUSH2 0x1C1 JUMPI DUP1 PUSH4 0xD7BB99BA EQ PUSH2 0x1EC JUMPI DUP1 PUSH4 0xF851A440 EQ PUSH2 0x1F6 JUMPI PUSH2 0x91 JUMP JUMPDEST DUP1 PUSH4 0x1E206F15 EQ PUSH2 0x96 JUMPI DUP1 PUSH4 0x1F6D4942 EQ PUSH2 0xC1 JUMPI DUP1 PUSH4 0x29DCB0CF EQ PUSH2 0xFE JUMPI DUP1 PUSH4 0x40193883 EQ PUSH2 0x129 JUMPI DUP1 PUSH4 0xA8B78ED0 EQ PUSH2 0x154 JUMPI JUMPDEST PUSH1 0x0 DUP1 REVERT JUMPDEST CALLVALUE DUP1 ISZERO PUSH2 0xA2 JUMPI PUSH1 0x0 DUP1 REVERT JUMPDEST POP PUSH2 0xAB PUSH2 0x221 JUMP JUMPDEST PUSH1 0x40 MLOAD PUSH2 0xB8 SWAP2 SWAP1 PUSH2 0x40D JUMP JUMPDEST PUSH1 0x40 MLOAD DUP1 SWAP2 SUB SWAP1 RETURN JUMPDEST CALLVALUE DUP1 ISZERO PUSH2 0xCD JUMPI PUSH1 0x0 DUP1 REVERT JUMPDEST POP PUSH2 0xE8 PUSH1 0x4 DUP1 CALLDATASIZE SUB DUP2 ADD SWAP1 PUSH2 0xE3 SWAP2 SWAP1 PUSH2 0x37D JUMP JUMPDEST PUSH2 0x227 JUMP JUMPDEST PUSH1 0x40 MLOAD PUSH2 0xF5 SWAP2 SWAP1 PUSH2 0x40D JUMP JUMPDEST PUSH1 0x40 MLOAD DUP1 SWAP2 SUB SWAP1 RETURN JUMPDEST CALLVALUE DUP1 ISZERO PUSH2 0x10A JUMPI PUSH1 0x0 DUP1 REVERT JUMPDEST POP PUSH2 0x113 PUSH2 0x23F JUMP JUMPDEST PUSH1 0x40 MLOAD PUSH2 0x120 SWAP2 SWAP1 PUSH2 0x40D JUMP JUMPDEST PUSH1 0x40 MLOAD DUP1 SWAP2 SUB SWAP1 RETURN JUMPDEST CALLVALUE DUP1 ISZERO PUSH2 0x135 JUMPI PUSH1 0x0 DUP1 REVERT JUMPDEST POP PUSH2 0x13E PUSH2 0x245 JUMP JUMPDEST PUSH1 0x40 MLOAD PUSH2 0x14B SWAP2 SWAP1 PUSH2 0x40D JUMP JUMPDEST PUSH1 0x40 MLOAD DUP1 SWAP2 SUB SWAP1 RETURN JUMPDEST CALLVALUE DUP1 ISZERO PUSH2 0x160 JUMPI PUSH1 0x0 DUP1 REVERT JUMPDEST POP PUSH2 0x169 PUSH2 0x24B JUMP JUMPDEST STOP JUMPDEST CALLVALUE DUP1 ISZERO PUSH2 0x177 JUMPI PUSH1 0x0 DUP1 REVERT JUMPDEST POP PUSH2 0x180 PUSH2 0x2D2 JUMP JUMPDEST PUSH1 0x40 MLOAD PUSH2 0x18D SWAP2 SWAP1 PUSH2 0x40D JUMP JUMPDEST PUSH1 0x40 MLOAD DUP1 SWAP2 SUB SWAP1 RETURN JUMPDEST CALLVALUE DUP1 ISZERO PUSH2 0x1A2 JUMPI PUSH1 0x0 DUP1 REVERT JUMPDEST POP PUSH2 0x1AB PUSH2 0x2D8 JUMP JUMPDEST PUSH1 0x40 MLOAD PUSH2 0x1B8 SWAP2 SWAP1 PUSH2 0x3F2 JUMP JUMPDEST PUSH1 0x40 MLOAD DUP1 SWAP2 SUB SWAP1 RETURN JUMPDEST CALLVALUE DUP1 ISZERO PUSH2 0x1CD JUMPI PUSH1 0x0 DUP1 REVERT JUMPDEST POP PUSH2 0x1D6 PUSH2 0x2EB JUMP JUMPDEST PUSH1 0x40 MLOAD PUSH2 0x1E3 SWAP2 SWAP1 PUSH2 0x40D JUMP JUMPDEST PUSH1 0x40 MLOAD DUP1 SWAP2 SUB SWAP1 RETURN JUMPDEST PUSH2 0x1F4 PUSH2 0x2F1 JUMP JUMPDEST STOP JUMPDEST CALLVALUE DUP1 ISZERO PUSH2 0x202 JUMPI PUSH1 0x0 DUP1 REVERT JUMPDEST POP PUSH2 0x20B PUSH2 0x342 JUMP JUMPDEST PUSH1 0x40 MLOAD PUSH2 0x218 SWAP2 SWAP1 PUSH2 0x3D7 JUMP JUMPDEST PUSH1 0x40 MLOAD DUP1 SWAP2 SUB SWAP1 RETURN JUMPDEST PUSH1 0x2 SLOAD DUP2 JUMP JUMPDEST PUSH1 0x0 PUSH1 0x20 MSTORE DUP1 PUSH1 0x0 MSTORE PUSH1 0x40 PUSH1 0x0 KECCAK256 PUSH1 0x0 SWAP2 POP SWAP1 POP SLOAD DUP2 JUMP JUMPDEST PUSH1 0x4 SLOAD DUP2 JUMP JUMPDEST PUSH1 0x5 SLOAD DUP2 JUMP JUMPDEST PUSH1 0x1 PUSH1 0x0 SWAP1 SLOAD SWAP1 PUSH2 0x100 EXP SWAP1 DIV PUSH20 0xFFFFFFFFFFFFFFFFFFFFFFFFFFFFFFFFFFFFFFFF AND PUSH20 0xFFFFFFFFFFFFFFFFFFFFFFFFFFFFFFFFFFFFFFFF AND CALLER PUSH20 0xFFFFFFFFFFFFFFFFFFFFFFFFFFFFFFFFFFFFFFFF AND EQ PUSH2 0x2A5 JUMPI PUSH1 0x0 DUP1 REVERT JUMPDEST PUSH1 0x2 PUSH1 0x7 PUSH1 0x0 PUSH2 0x100 EXP DUP2 SLOAD DUP2 PUSH1 0xFF MUL NOT AND SWAP1 DUP4 PUSH1 0x4 DUP2 GT ISZERO PUSH2 0x2CB JUMPI PUSH2 0x2CA PUSH2 0x489 JUMP JUMPDEST JUMPDEST MUL OR SWAP1 SSTORE POP JUMP JUMPDEST PUSH1 0x3 SLOAD DUP2 JUMP JUMPDEST PUSH1 0x7 PUSH1 0x0 SWAP1 SLOAD SWAP1 PUSH2 0x100 EXP SWAP1 DIV PUSH1 0xFF AND DUP2 JUMP JUMPDEST PUSH1 0x6 SLOAD DUP2 JUMP JUMPDEST PUSH1 0x2 PUSH1 0x4 DUP2 GT ISZERO PUSH2 0x305 JUMPI PUSH2 0x304 PUSH2 0x489 JUMP JUMPDEST JUMPDEST PUSH1 0x7 PUSH1 0x0 SWAP1 SLOAD SWAP1 PUSH2 0x100 EXP SWAP1 DIV PUSH1 0xFF AND PUSH1 0x4 DUP2 GT ISZERO PUSH2 0x327 JUMPI PUSH2 0x326 PUSH2 0x489 JUMP JUMPDEST JUMPDEST EQ PUSH2 0x331 JUMPI PUSH1 0x0 DUP1 REVERT JUMPDEST PUSH1 0x3 SLOAD CALLVALUE LT ISZERO PUSH2 0x340 JUMPI PUSH1 0x0 DUP1 REVERT JUMPDEST JUMP JUMPDEST PUSH1 0x1 PUSH1 0x0 SWAP1 SLOAD SWAP1 PUSH2 0x100 EXP SWAP1 DIV PUSH20 0xFFFFFFFFFFFFFFFFFFFFFFFFFFFFFFFFFFFFFFFF AND DUP2 JUMP JUMPDEST PUSH1 0x0 DUP2 CALLDATALOAD SWAP1 POP PUSH2 0x377 DUP2 PUSH2 0x4D1 JUMP JUMPDEST SWAP3 SWAP2 POP POP JUMP JUMPDEST PUSH1 0x0 PUSH1 0x20 DUP3 DUP5 SUB SLT ISZERO PUSH2 0x393 JUMPI PUSH2 0x392 PUSH2 0x4B8 JUMP JUMPDEST JUMPDEST PUSH1 0x0 PUSH2 0x3A1 DUP5 DUP3 DUP6 ADD PUSH2 0x368 JUMP JUMPDEST SWAP2 POP POP SWAP3 SWAP2 POP POP JUMP JUMPDEST PUSH2 0x3B3 DUP2 PUSH2 0x428 JUMP JUMPDEST DUP3 MSTORE POP POP JUMP JUMPDEST PUSH2 0x3C2 DUP2 PUSH2 0x477 JUMP JUMPDEST DUP3 MSTORE POP POP JUMP JUMPDEST PUSH2 0x3D1 DUP2 PUSH2 0x46D JUMP JUMPDEST DUP3 MSTORE POP POP JUMP JUMPDEST PUSH1 0x0 PUSH1 0x20 DUP3 ADD SWAP1 POP PUSH2 0x3EC PUSH1 0x0 DUP4 ADD DUP5 PUSH2 0x3AA JUMP JUMPDEST SWAP3 SWAP2 POP POP JUMP JUMPDEST PUSH1 0x0 PUSH1 0x20 DUP3 ADD SWAP1 POP PUSH2 0x407 PUSH1 0x0 DUP4 ADD DUP5 PUSH2 0x3B9 JUMP JUMPDEST SWAP3 SWAP2 POP POP JUMP JUMPDEST PUSH1 0x0 PUSH1 0x20 DUP3 ADD SWAP1 POP PUSH2 0x422 PUSH1 0x0 DUP4 ADD DUP5 PUSH2 0x3C8 JUMP JUMPDEST SWAP3 SWAP2 POP POP JUMP JUMPDEST PUSH1 0x0 PUSH2 0x433 DUP3 PUSH2 0x44D JUMP JUMPDEST SWAP1 POP SWAP2 SWAP1 POP JUMP JUMPDEST PUSH1 0x0 DUP2 SWAP1 POP PUSH2 0x448 DUP3 PUSH2 0x4BD JUMP JUMPDEST SWAP2 SWAP1 POP JUMP JUMPDEST PUSH1 0x0 PUSH20 0xFFFFFFFFFFFFFFFFFFFFFFFFFFFFFFFFFFFFFFFF DUP3 AND SWAP1 POP SWAP2 SWAP1 POP JUMP JUMPDEST PUSH1 0x0 DUP2 SWAP1 POP SWAP2 SWAP1 POP JUMP JUMPDEST PUSH1 0x0 PUSH2 0x482 DUP3 PUSH2 0x43A JUMP JUMPDEST SWAP1 POP SWAP2 SWAP1 POP JUMP JUMPDEST PUSH32 0x4E487B7100000000000000000000000000000000000000000000000000000000 PUSH1 0x0 MSTORE PUSH1 0x21 PUSH1 0x4 MSTORE PUSH1 0x24 PUSH1 0x0 REVERT JUMPDEST PUSH1 0x0 DUP1 REVERT JUMPDEST PUSH1 0x5 DUP2 LT PUSH2 0x4CE JUMPI PUSH2 0x4CD PUSH2 0x489 JUMP JUMPDEST JUMPDEST POP JUMP JUMPDEST PUSH2 0x4DA DUP2 PUSH2 0x428 JUMP JUMPDEST DUP2 EQ PUSH2 0x4E5 JUMPI PUSH1 0x0 DUP1 REVERT JUMPDEST POP JUMP INVALID LOG2 PUSH5 0x6970667358 0x22 SLT KECCAK256 MLOAD 0xB7 LOG0 CODESIZE 0x2C 0x5D 0xB6 PUSH9 0xD1E400A855C2C3D23F 0xD8 DUP13 0xD5 0x22 ADDMOD 0xC0 BLOCKHASH SWAP4 PUSH30 0x80DDD65B9A8F64736F6C6343000807003300000000000000000000000000 "
				},
				"gasEstimates": {
					"creation": {
						"codeDepositCost": "262000",
						"executionCost": "infinite",
						"totalCost": "infinite"
					},
					"external": {
						"admin()": "2602",
						"contribute()": "4522",
						"contributors(address)": "2837",
						"deadline()": "2474",
						"fundingState()": "2582",
						"goal()": "2496",
						"minContribution()": "2429",
						"numOfContributors()": "2430",
						"raisedAmount()": "2473",
						"startCampaign()": "26690"
					}
				},
				"methodIdentifiers": {
					"admin()": "f851a440",
					"contribute()": "d7bb99ba",
					"contributors(address)": "1f6d4942",
					"deadline()": "29dcb0cf",
					"fundingState()": "b25cdccf",
					"goal()": "40193883",
					"minContribution()": "aaffadf3",
					"numOfContributors()": "1e206f15",
					"raisedAmount()": "c59ee1dc",
					"startCampaign()": "a8b78ed0"
				}
			},
			"storageLayout": {
				"storage": [
					{
						"astId": 5,
						"contract": "contracts/crowdfunding.sol:CrowdFunding",
						"label": "contributors",
						"offset": 0,
						"slot": "0",
						"type": "t_mapping(t_address,t_uint256)"
					},
					{
						"astId": 7,
						"contract": "contracts/crowdfunding.sol:CrowdFunding",
						"label": "admin",
						"offset": 0,
						"slot": "1",
						"type": "t_address"
					},
					{
						"astId": 9,
						"contract": "contracts/crowdfunding.sol:CrowdFunding",
						"label": "numOfContributors",
						"offset": 0,
						"slot": "2",
						"type": "t_uint256"
					},
					{
						"astId": 11,
						"contract": "contracts/crowdfunding.sol:CrowdFunding",
						"label": "minContribution",
						"offset": 0,
						"slot": "3",
						"type": "t_uint256"
					},
					{
						"astId": 13,
						"contract": "contracts/crowdfunding.sol:CrowdFunding",
						"label": "deadline",
						"offset": 0,
						"slot": "4",
						"type": "t_uint256"
					},
					{
						"astId": 15,
						"contract": "contracts/crowdfunding.sol:CrowdFunding",
						"label": "goal",
						"offset": 0,
						"slot": "5",
						"type": "t_uint256"
					},
					{
						"astId": 17,
						"contract": "contracts/crowdfunding.sol:CrowdFunding",
						"label": "raisedAmount",
						"offset": 0,
						"slot": "6",
						"type": "t_uint256"
					},
					{
						"astId": 26,
						"contract": "contracts/crowdfunding.sol:CrowdFunding",
						"label": "fundingState",
						"offset": 0,
						"slot": "7",
						"type": "t_enum(State)23"
					}
				],
				"types": {
					"t_address": {
						"encoding": "inplace",
						"label": "address",
						"numberOfBytes": "20"
					},
					"t_enum(State)23": {
						"encoding": "inplace",
						"label": "enum CrowdFunding.State",
						"numberOfBytes": "1"
					},
					"t_mapping(t_address,t_uint256)": {
						"encoding": "mapping",
						"key": "t_address",
						"label": "mapping(address => uint256)",
						"numberOfBytes": "32",
						"value": "t_uint256"
					},
					"t_uint256": {
						"encoding": "inplace",
						"label": "uint256",
						"numberOfBytes": "32"
					}
				}
			},
			"userdoc": {
				"kind": "user",
				"methods": {},
				"version": 1
			}
		}
	}
}