{
	"contracts/crowdfunding.sol": {
		"CrowdFunding": {
			"abi": [
				{
					"inputs": [
						{
							"internalType": "uint256",
							"name": "_goal",
							"type": "uint256"
						},
						{
							"internalType": "uint256",
							"name": "_deadline",
							"type": "uint256"
						}
					],
					"stateMutability": "nonpayable",
					"type": "constructor"
				},
				{
					"inputs": [
						{
							"internalType": "string",
							"name": "_description",
							"type": "string"
						},
						{
							"internalType": "address payable",
							"name": "_recipient",
							"type": "address"
						},
						{
							"internalType": "uint256",
							"name": "_value",
							"type": "uint256"
						}
					],
					"name": "addRequest",
					"outputs": [],
					"stateMutability": "nonpayable",
					"type": "function"
				},
				{
					"inputs": [],
					"name": "admin",
					"outputs": [
						{
							"internalType": "address",
							"name": "",
							"type": "address"
						}
					],
					"stateMutability": "view",
					"type": "function"
				},
				{
					"inputs": [],
					"name": "contribute",
					"outputs": [],
					"stateMutability": "payable",
					"type": "function"
				},
				{
					"inputs": [
						{
							"internalType": "address",
							"name": "",
							"type": "address"
						}
					],
					"name": "contributors",
					"outputs": [
						{
							"internalType": "uint256",
							"name": "",
							"type": "uint256"
						}
					],
					"stateMutability": "view",
					"type": "function"
				},
				{
					"inputs": [],
					"name": "deadline",
					"outputs": [
						{
							"internalType": "uint256",
							"name": "",
							"type": "uint256"
						}
					],
					"stateMutability": "view",
					"type": "function"
				},
				{
					"inputs": [],
					"name": "fundingState",
					"outputs": [
						{
							"internalType": "enum CrowdFunding.State",
							"name": "",
							"type": "uint8"
						}
					],
					"stateMutability": "view",
					"type": "function"
				},
				{
					"inputs": [],
					"name": "getBalance",
					"outputs": [
						{
							"internalType": "uint256",
							"name": "",
							"type": "uint256"
						}
					],
					"stateMutability": "view",
					"type": "function"
				},
				{
					"inputs": [],
					"name": "goal",
					"outputs": [
						{
							"internalType": "uint256",
							"name": "",
							"type": "uint256"
						}
					],
					"stateMutability": "view",
					"type": "function"
				},
				{
					"inputs": [],
					"name": "minContribution",
					"outputs": [
						{
							"internalType": "uint256",
							"name": "",
							"type": "uint256"
						}
					],
					"stateMutability": "view",
					"type": "function"
				},
				{
					"inputs": [],
					"name": "numOfContributors",
					"outputs": [
						{
							"internalType": "uint256",
							"name": "",
							"type": "uint256"
						}
					],
					"stateMutability": "view",
					"type": "function"
				},
				{
					"inputs": [],
					"name": "numRequests",
					"outputs": [
						{
							"internalType": "uint256",
							"name": "",
							"type": "uint256"
						}
					],
					"stateMutability": "view",
					"type": "function"
				},
				{
					"inputs": [],
					"name": "raisedAmount",
					"outputs": [
						{
							"internalType": "uint256",
							"name": "",
							"type": "uint256"
						}
					],
					"stateMutability": "view",
					"type": "function"
				},
				{
					"inputs": [],
					"name": "requestRefund",
					"outputs": [],
					"stateMutability": "payable",
					"type": "function"
				},
				{
					"inputs": [
						{
							"internalType": "uint256",
							"name": "",
							"type": "uint256"
						}
					],
					"name": "requests",
					"outputs": [
						{
							"internalType": "string",
							"name": "description",
							"type": "string"
						},
						{
							"internalType": "address payable",
							"name": "recipient",
							"type": "address"
						},
						{
							"internalType": "uint256",
							"name": "value",
							"type": "uint256"
						},
						{
							"internalType": "bool",
							"name": "completed",
							"type": "bool"
						},
						{
							"internalType": "uint256",
							"name": "numOfVoters",
							"type": "uint256"
						}
					],
					"stateMutability": "view",
					"type": "function"
				},
				{
					"inputs": [],
					"name": "startCampaign",
					"outputs": [],
					"stateMutability": "nonpayable",
					"type": "function"
				},
				{
					"inputs": [
						{
							"internalType": "uint256",
							"name": "_requestNumber",
							"type": "uint256"
						}
					],
					"name": "voteRequest",
					"outputs": [],
					"stateMutability": "nonpayable",
					"type": "function"
				},
				{
					"stateMutability": "payable",
					"type": "receive"
				}
			],
			"devdoc": {
				"kind": "dev",
				"methods": {},
				"version": 1
			},
			"evm": {
				"assembly": "    /* \"contracts/crowdfunding.sol\":73:2878  contract CrowdFunding{\r... */\n  mstore(0x40, 0x80)\n    /* \"contracts/crowdfunding.sol\":719:970  constructor(uint _goal, uint _deadline){\r... */\n  callvalue\n  dup1\n  iszero\n  tag_1\n  jumpi\n  0x00\n  dup1\n  revert\ntag_1:\n  pop\n  mload(0x40)\n  sub(codesize, bytecodeSize)\n  dup1\n  bytecodeSize\n  dup4\n  codecopy\n  dup2\n  dup2\n  add\n  0x40\n  mstore\n  dup2\n  add\n  swap1\n  tag_2\n  swap2\n  swap1\n  tag_3\n  jump\t// in\ntag_2:\n    /* \"contracts/crowdfunding.sol\":777:787  msg.sender */\n  caller\n    /* \"contracts/crowdfunding.sol\":769:774  admin */\n  0x01\n  0x00\n    /* \"contracts/crowdfunding.sol\":769:787  admin = msg.sender */\n  0x0100\n  exp\n  dup2\n  sload\n  dup2\n  0xffffffffffffffffffffffffffffffffffffffff\n  mul\n  not\n  and\n  swap1\n  dup4\n  0xffffffffffffffffffffffffffffffffffffffff\n  and\n  mul\n  or\n  swap1\n  sstore\n  pop\n    /* \"contracts/crowdfunding.sol\":813:823  State.INIT */\n  0x00\n    /* \"contracts/crowdfunding.sol\":798:810  fundingState */\n  0x09\n  0x00\n    /* \"contracts/crowdfunding.sol\":798:823  fundingState = State.INIT */\n  0x0100\n  exp\n  dup2\n  sload\n  dup2\n  0xff\n  mul\n  not\n  and\n  swap1\n  dup4\n  0x04\n  dup2\n  gt\n  iszero\n  tag_6\n  jumpi\n  tag_7\n  tag_8\n  jump\t// in\ntag_7:\ntag_6:\n  mul\n  or\n  swap1\n  sstore\n  pop\n    /* \"contracts/crowdfunding.sol\":841:846  _goal */\n  dup2\n    /* \"contracts/crowdfunding.sol\":834:838  goal */\n  0x05\n    /* \"contracts/crowdfunding.sol\":834:846  goal = _goal */\n  dup2\n  swap1\n  sstore\n  pop\n    /* \"contracts/crowdfunding.sol\":885:894  _deadline */\n  dup1\n    /* \"contracts/crowdfunding.sol\":868:883  block.timestamp */\n  timestamp\n    /* \"contracts/crowdfunding.sol\":868:894  block.timestamp+ _deadline */\n  tag_9\n  swap2\n  swap1\n  tag_10\n  jump\t// in\ntag_9:\n    /* \"contracts/crowdfunding.sol\":857:865  deadline */\n  0x04\n    /* \"contracts/crowdfunding.sol\":857:894  deadline = block.timestamp+ _deadline */\n  dup2\n  swap1\n  sstore\n  pop\n    /* \"contracts/crowdfunding.sol\":923:930  100 wei */\n  0x64\n    /* \"contracts/crowdfunding.sol\":905:920  minContribution */\n  0x03\n    /* \"contracts/crowdfunding.sol\":905:930  minContribution = 100 wei */\n  dup2\n  swap1\n  sstore\n  pop\n    /* \"contracts/crowdfunding.sol\":961:962  0 */\n  0x00\n    /* \"contracts/crowdfunding.sol\":941:958  numOfContributors */\n  0x02\n    /* \"contracts/crowdfunding.sol\":941:962  numOfContributors = 0 */\n  dup2\n  swap1\n  sstore\n  pop\n    /* \"contracts/crowdfunding.sol\":719:970  constructor(uint _goal, uint _deadline){\r... */\n  pop\n  pop\n    /* \"contracts/crowdfunding.sol\":73:2878  contract CrowdFunding{\r... */\n  jump(tag_11)\n    /* \"#utility.yul\":7:150   */\ntag_13:\n    /* \"#utility.yul\":64:69   */\n  0x00\n    /* \"#utility.yul\":95:101   */\n  dup2\n    /* \"#utility.yul\":89:102   */\n  mload\n    /* \"#utility.yul\":80:102   */\n  swap1\n  pop\n    /* \"#utility.yul\":111:144   */\n  tag_15\n    /* \"#utility.yul\":138:143   */\n  dup2\n    /* \"#utility.yul\":111:144   */\n  tag_16\n  jump\t// in\ntag_15:\n    /* \"#utility.yul\":7:150   */\n  swap3\n  swap2\n  pop\n  pop\n  jump\t// out\n    /* \"#utility.yul\":156:663   */\ntag_3:\n    /* \"#utility.yul\":235:241   */\n  0x00\n    /* \"#utility.yul\":243:249   */\n  dup1\n    /* \"#utility.yul\":292:294   */\n  0x40\n    /* \"#utility.yul\":280:289   */\n  dup4\n    /* \"#utility.yul\":271:278   */\n  dup6\n    /* \"#utility.yul\":267:290   */\n  sub\n    /* \"#utility.yul\":263:295   */\n  slt\n    /* \"#utility.yul\":260:379   */\n  iszero\n  tag_18\n  jumpi\n    /* \"#utility.yul\":298:377   */\n  tag_19\n  tag_20\n  jump\t// in\ntag_19:\n    /* \"#utility.yul\":260:379   */\ntag_18:\n    /* \"#utility.yul\":418:419   */\n  0x00\n    /* \"#utility.yul\":443:507   */\n  tag_21\n    /* \"#utility.yul\":499:506   */\n  dup6\n    /* \"#utility.yul\":490:496   */\n  dup3\n    /* \"#utility.yul\":479:488   */\n  dup7\n    /* \"#utility.yul\":475:497   */\n  add\n    /* \"#utility.yul\":443:507   */\n  tag_13\n  jump\t// in\ntag_21:\n    /* \"#utility.yul\":433:507   */\n  swap3\n  pop\n    /* \"#utility.yul\":389:517   */\n  pop\n    /* \"#utility.yul\":556:558   */\n  0x20\n    /* \"#utility.yul\":582:646   */\n  tag_22\n    /* \"#utility.yul\":638:645   */\n  dup6\n    /* \"#utility.yul\":629:635   */\n  dup3\n    /* \"#utility.yul\":618:627   */\n  dup7\n    /* \"#utility.yul\":614:636   */\n  add\n    /* \"#utility.yul\":582:646   */\n  tag_13\n  jump\t// in\ntag_22:\n    /* \"#utility.yul\":572:646   */\n  swap2\n  pop\n    /* \"#utility.yul\":527:656   */\n  pop\n    /* \"#utility.yul\":156:663   */\n  swap3\n  pop\n  swap3\n  swap1\n  pop\n  jump\t// out\n    /* \"#utility.yul\":750:1055   */\ntag_10:\n    /* \"#utility.yul\":790:793   */\n  0x00\n    /* \"#utility.yul\":809:829   */\n  tag_26\n    /* \"#utility.yul\":827:828   */\n  dup3\n    /* \"#utility.yul\":809:829   */\n  tag_27\n  jump\t// in\ntag_26:\n    /* \"#utility.yul\":804:829   */\n  swap2\n  pop\n    /* \"#utility.yul\":843:863   */\n  tag_28\n    /* \"#utility.yul\":861:862   */\n  dup4\n    /* \"#utility.yul\":843:863   */\n  tag_27\n  jump\t// in\ntag_28:\n    /* \"#utility.yul\":838:863   */\n  swap3\n  pop\n    /* \"#utility.yul\":997:998   */\n  dup3\n    /* \"#utility.yul\":929:995   */\n  0xffffffffffffffffffffffffffffffffffffffffffffffffffffffffffffffff\n    /* \"#utility.yul\":925:999   */\n  sub\n    /* \"#utility.yul\":922:923   */\n  dup3\n    /* \"#utility.yul\":919:1000   */\n  gt\n    /* \"#utility.yul\":916:1023   */\n  iszero\n  tag_29\n  jumpi\n    /* \"#utility.yul\":1003:1021   */\n  tag_30\n  tag_31\n  jump\t// in\ntag_30:\n    /* \"#utility.yul\":916:1023   */\ntag_29:\n    /* \"#utility.yul\":1047:1048   */\n  dup3\n    /* \"#utility.yul\":1044:1045   */\n  dup3\n    /* \"#utility.yul\":1040:1049   */\n  add\n    /* \"#utility.yul\":1033:1049   */\n  swap1\n  pop\n    /* \"#utility.yul\":750:1055   */\n  swap3\n  swap2\n  pop\n  pop\n  jump\t// out\n    /* \"#utility.yul\":1061:1138   */\ntag_27:\n    /* \"#utility.yul\":1098:1105   */\n  0x00\n    /* \"#utility.yul\":1127:1132   */\n  dup2\n    /* \"#utility.yul\":1116:1132   */\n  swap1\n  pop\n    /* \"#utility.yul\":1061:1138   */\n  swap2\n  swap1\n  pop\n  jump\t// out\n    /* \"#utility.yul\":1144:1324   */\ntag_31:\n    /* \"#utility.yul\":1192:1269   */\n  0x4e487b7100000000000000000000000000000000000000000000000000000000\n    /* \"#utility.yul\":1189:1190   */\n  0x00\n    /* \"#utility.yul\":1182:1270   */\n  mstore\n    /* \"#utility.yul\":1289:1293   */\n  0x11\n    /* \"#utility.yul\":1286:1287   */\n  0x04\n    /* \"#utility.yul\":1279:1294   */\n  mstore\n    /* \"#utility.yul\":1313:1317   */\n  0x24\n    /* \"#utility.yul\":1310:1311   */\n  0x00\n    /* \"#utility.yul\":1303:1318   */\n  revert\n    /* \"#utility.yul\":1330:1510   */\ntag_8:\n    /* \"#utility.yul\":1378:1455   */\n  0x4e487b7100000000000000000000000000000000000000000000000000000000\n    /* \"#utility.yul\":1375:1376   */\n  0x00\n    /* \"#utility.yul\":1368:1456   */\n  mstore\n    /* \"#utility.yul\":1475:1479   */\n  0x21\n    /* \"#utility.yul\":1472:1473   */\n  0x04\n    /* \"#utility.yul\":1465:1480   */\n  mstore\n    /* \"#utility.yul\":1499:1503   */\n  0x24\n    /* \"#utility.yul\":1496:1497   */\n  0x00\n    /* \"#utility.yul\":1489:1504   */\n  revert\n    /* \"#utility.yul\":1639:1756   */\ntag_20:\n    /* \"#utility.yul\":1748:1749   */\n  0x00\n    /* \"#utility.yul\":1745:1746   */\n  dup1\n    /* \"#utility.yul\":1738:1750   */\n  revert\n    /* \"#utility.yul\":1762:1884   */\ntag_16:\n    /* \"#utility.yul\":1835:1859   */\n  tag_39\n    /* \"#utility.yul\":1853:1858   */\n  dup2\n    /* \"#utility.yul\":1835:1859   */\n  tag_27\n  jump\t// in\ntag_39:\n    /* \"#utility.yul\":1828:1833   */\n  dup2\n    /* \"#utility.yul\":1825:1860   */\n  eq\n    /* \"#utility.yul\":1815:1878   */\n  tag_40\n  jumpi\n    /* \"#utility.yul\":1874:1875   */\n  0x00\n    /* \"#utility.yul\":1871:1872   */\n  dup1\n    /* \"#utility.yul\":1864:1876   */\n  revert\n    /* \"#utility.yul\":1815:1878   */\ntag_40:\n    /* \"#utility.yul\":1762:1884   */\n  pop\n  jump\t// out\n    /* \"contracts/crowdfunding.sol\":73:2878  contract CrowdFunding{\r... */\ntag_11:\n  dataSize(sub_0)\n  dup1\n  dataOffset(sub_0)\n  0x00\n  codecopy\n  0x00\n  return\nstop\n\nsub_0: assembly {\n        /* \"contracts/crowdfunding.sol\":73:2878  contract CrowdFunding{\r... */\n      mstore(0x40, 0x80)\n      jumpi(tag_1, lt(calldatasize, 0x04))\n      shr(0xe0, calldataload(0x00))\n      dup1\n      0x9fb42b1f\n      gt\n      tag_19\n      jumpi\n      dup1\n      0xc59ee1dc\n      gt\n      tag_20\n      jumpi\n      dup1\n      0xc59ee1dc\n      eq\n      tag_15\n      jumpi\n      dup1\n      0xd5cef133\n      eq\n      tag_16\n      jumpi\n      dup1\n      0xd7bb99ba\n      eq\n      tag_17\n      jumpi\n      dup1\n      0xf851a440\n      eq\n      tag_18\n      jumpi\n      jump(tag_2)\n    tag_20:\n      dup1\n      0x9fb42b1f\n      eq\n      tag_11\n      jumpi\n      dup1\n      0xa8b78ed0\n      eq\n      tag_12\n      jumpi\n      dup1\n      0xaaffadf3\n      eq\n      tag_13\n      jumpi\n      dup1\n      0xb25cdccf\n      eq\n      tag_14\n      jumpi\n      jump(tag_2)\n    tag_19:\n      dup1\n      0x40193883\n      gt\n      tag_21\n      jumpi\n      dup1\n      0x40193883\n      eq\n      tag_7\n      jumpi\n      dup1\n      0x4b5e7d70\n      eq\n      tag_8\n      jumpi\n      dup1\n      0x4cb6f4a5\n      eq\n      tag_9\n      jumpi\n      dup1\n      0x81d12c58\n      eq\n      tag_10\n      jumpi\n      jump(tag_2)\n    tag_21:\n      dup1\n      0x12065fe0\n      eq\n      tag_3\n      jumpi\n      dup1\n      0x1e206f15\n      eq\n      tag_4\n      jumpi\n      dup1\n      0x1f6d4942\n      eq\n      tag_5\n      jumpi\n      dup1\n      0x29dcb0cf\n      eq\n      tag_6\n      jumpi\n      jump(tag_2)\n    tag_1:\n      jumpi(tag_2, calldatasize)\n        /* \"contracts/crowdfunding.sol\":1434:1446  contribute() */\n      tag_24\n        /* \"contracts/crowdfunding.sol\":1434:1444  contribute */\n      tag_25\n        /* \"contracts/crowdfunding.sol\":1434:1446  contribute() */\n      jump\t// in\n    tag_24:\n        /* \"contracts/crowdfunding.sol\":73:2878  contract CrowdFunding{\r... */\n      stop\n    tag_2:\n      0x00\n      dup1\n      revert\n        /* \"contracts/crowdfunding.sol\":1879:1973  function getBalance() public view returns(uint){\r... */\n    tag_3:\n      callvalue\n      dup1\n      iszero\n      tag_26\n      jumpi\n      0x00\n      dup1\n      revert\n    tag_26:\n      pop\n      tag_27\n      tag_28\n      jump\t// in\n    tag_27:\n      mload(0x40)\n      tag_29\n      swap2\n      swap1\n      tag_30\n      jump\t// in\n    tag_29:\n      mload(0x40)\n      dup1\n      swap2\n      sub\n      swap1\n      return\n        /* \"contracts/crowdfunding.sol\":181:210  uint public numOfContributors */\n    tag_4:\n      callvalue\n      dup1\n      iszero\n      tag_31\n      jumpi\n      0x00\n      dup1\n      revert\n    tag_31:\n      pop\n      tag_32\n      tag_33\n      jump\t// in\n    tag_32:\n      mload(0x40)\n      tag_34\n      swap2\n      swap1\n      tag_30\n      jump\t// in\n    tag_34:\n      mload(0x40)\n      dup1\n      swap2\n      sub\n      swap1\n      return\n        /* \"contracts/crowdfunding.sol\":103:147  mapping(address => uint) public contributors */\n    tag_5:\n      callvalue\n      dup1\n      iszero\n      tag_35\n      jumpi\n      0x00\n      dup1\n      revert\n    tag_35:\n      pop\n      tag_36\n      0x04\n      dup1\n      calldatasize\n      sub\n      dup2\n      add\n      swap1\n      tag_37\n      swap2\n      swap1\n      tag_38\n      jump\t// in\n    tag_37:\n      tag_39\n      jump\t// in\n    tag_36:\n      mload(0x40)\n      tag_40\n      swap2\n      swap1\n      tag_30\n      jump\t// in\n    tag_40:\n      mload(0x40)\n      dup1\n      swap2\n      sub\n      swap1\n      return\n        /* \"contracts/crowdfunding.sol\":251:271  uint public deadline */\n    tag_6:\n      callvalue\n      dup1\n      iszero\n      tag_41\n      jumpi\n      0x00\n      dup1\n      revert\n    tag_41:\n      pop\n      tag_42\n      tag_43\n      jump\t// in\n    tag_42:\n      mload(0x40)\n      tag_44\n      swap2\n      swap1\n      tag_30\n      jump\t// in\n    tag_44:\n      mload(0x40)\n      dup1\n      swap2\n      sub\n      swap1\n      return\n        /* \"contracts/crowdfunding.sol\":278:294  uint public goal */\n    tag_7:\n      callvalue\n      dup1\n      iszero\n      tag_45\n      jumpi\n      0x00\n      dup1\n      revert\n    tag_45:\n      pop\n      tag_46\n      tag_47\n      jump\t// in\n    tag_46:\n      mload(0x40)\n      tag_48\n      swap2\n      swap1\n      tag_30\n      jump\t// in\n    tag_48:\n      mload(0x40)\n      dup1\n      swap2\n      sub\n      swap1\n      return\n        /* \"contracts/crowdfunding.sol\":2335:2697  function addRequest(string memory _description, address payable _recipient,uint _value ) public adminOnly{\r... */\n    tag_8:\n      callvalue\n      dup1\n      iszero\n      tag_49\n      jumpi\n      0x00\n      dup1\n      revert\n    tag_49:\n      pop\n      tag_50\n      0x04\n      dup1\n      calldatasize\n      sub\n      dup2\n      add\n      swap1\n      tag_51\n      swap2\n      swap1\n      tag_52\n      jump\t// in\n    tag_51:\n      tag_53\n      jump\t// in\n    tag_50:\n      stop\n        /* \"contracts/crowdfunding.sol\":2705:2873  function voteRequest(uint _requestNumber) public {\r... */\n    tag_9:\n      callvalue\n      dup1\n      iszero\n      tag_54\n      jumpi\n      0x00\n      dup1\n      revert\n    tag_54:\n      pop\n      tag_55\n      0x04\n      dup1\n      calldatasize\n      sub\n      dup2\n      add\n      swap1\n      tag_56\n      swap2\n      swap1\n      tag_57\n      jump\t// in\n    tag_56:\n      tag_58\n      jump\t// in\n    tag_55:\n      stop\n        /* \"contracts/crowdfunding.sol\":546:586  mapping(uint => Request) public requests */\n    tag_10:\n      callvalue\n      dup1\n      iszero\n      tag_59\n      jumpi\n      0x00\n      dup1\n      revert\n    tag_59:\n      pop\n      tag_60\n      0x04\n      dup1\n      calldatasize\n      sub\n      dup2\n      add\n      swap1\n      tag_61\n      swap2\n      swap1\n      tag_57\n      jump\t// in\n    tag_61:\n      tag_62\n      jump\t// in\n    tag_60:\n      mload(0x40)\n      tag_63\n      swap6\n      swap5\n      swap4\n      swap3\n      swap2\n      swap1\n      tag_64\n      jump\t// in\n    tag_63:\n      mload(0x40)\n      dup1\n      swap2\n      sub\n      swap1\n      return\n        /* \"contracts/crowdfunding.sol\":593:616  uint public numRequests */\n    tag_11:\n      callvalue\n      dup1\n      iszero\n      tag_65\n      jumpi\n      0x00\n      dup1\n      revert\n    tag_65:\n      pop\n      tag_66\n      tag_67\n      jump\t// in\n    tag_66:\n      mload(0x40)\n      tag_68\n      swap2\n      swap1\n      tag_30\n      jump\t// in\n    tag_68:\n      mload(0x40)\n      dup1\n      swap2\n      sub\n      swap1\n      return\n        /* \"contracts/crowdfunding.sol\":1462:1550  function startCampaign() public adminOnly{\r... */\n    tag_12:\n      callvalue\n      dup1\n      iszero\n      tag_69\n      jumpi\n      0x00\n      dup1\n      revert\n    tag_69:\n      pop\n      tag_70\n      tag_71\n      jump\t// in\n    tag_70:\n      stop\n        /* \"contracts/crowdfunding.sol\":217:244  uint public minContribution */\n    tag_13:\n      callvalue\n      dup1\n      iszero\n      tag_72\n      jumpi\n      0x00\n      dup1\n      revert\n    tag_72:\n      pop\n      tag_73\n      tag_74\n      jump\t// in\n    tag_73:\n      mload(0x40)\n      tag_75\n      swap2\n      swap1\n      tag_30\n      jump\t// in\n    tag_75:\n      mload(0x40)\n      dup1\n      swap2\n      sub\n      swap1\n      return\n        /* \"contracts/crowdfunding.sol\":685:710  State public fundingState */\n    tag_14:\n      callvalue\n      dup1\n      iszero\n      tag_76\n      jumpi\n      0x00\n      dup1\n      revert\n    tag_76:\n      pop\n      tag_77\n      tag_78\n      jump\t// in\n    tag_77:\n      mload(0x40)\n      tag_79\n      swap2\n      swap1\n      tag_80\n      jump\t// in\n    tag_79:\n      mload(0x40)\n      dup1\n      swap2\n      sub\n      swap1\n      return\n        /* \"contracts/crowdfunding.sol\":301:325  uint public raisedAmount */\n    tag_15:\n      callvalue\n      dup1\n      iszero\n      tag_81\n      jumpi\n      0x00\n      dup1\n      revert\n    tag_81:\n      pop\n      tag_82\n      tag_83\n      jump\t// in\n    tag_82:\n      mload(0x40)\n      tag_84\n      swap2\n      swap1\n      tag_30\n      jump\t// in\n    tag_84:\n      mload(0x40)\n      dup1\n      swap2\n      sub\n      swap1\n      return\n        /* \"contracts/crowdfunding.sol\":1985:2327  function requestRefund() public payable {\r... */\n    tag_16:\n      tag_85\n      tag_86\n      jump\t// in\n    tag_85:\n      stop\n        /* \"contracts/crowdfunding.sol\":1558:1871  function contribute() public payable campaignRunning{\r... */\n    tag_17:\n      tag_87\n      tag_25\n      jump\t// in\n    tag_87:\n      stop\n        /* \"contracts/crowdfunding.sol\":154:174  address public admin */\n    tag_18:\n      callvalue\n      dup1\n      iszero\n      tag_88\n      jumpi\n      0x00\n      dup1\n      revert\n    tag_88:\n      pop\n      tag_89\n      tag_90\n      jump\t// in\n    tag_89:\n      mload(0x40)\n      tag_91\n      swap2\n      swap1\n      tag_92\n      jump\t// in\n    tag_91:\n      mload(0x40)\n      dup1\n      swap2\n      sub\n      swap1\n      return\n        /* \"contracts/crowdfunding.sol\":1558:1871  function contribute() public payable campaignRunning{\r... */\n    tag_25:\n        /* \"contracts/crowdfunding.sol\":1160:1173  State.RUNNING */\n      0x02\n        /* \"contracts/crowdfunding.sol\":1144:1173  fundingState == State.RUNNING */\n      0x04\n      dup2\n      gt\n      iszero\n      tag_94\n      jumpi\n      tag_95\n      tag_96\n      jump\t// in\n    tag_95:\n    tag_94:\n        /* \"contracts/crowdfunding.sol\":1144:1156  fundingState */\n      0x09\n      0x00\n      swap1\n      sload\n      swap1\n      0x0100\n      exp\n      swap1\n      div\n      0xff\n      and\n        /* \"contracts/crowdfunding.sol\":1144:1173  fundingState == State.RUNNING */\n      0x04\n      dup2\n      gt\n      iszero\n      tag_97\n      jumpi\n      tag_98\n      tag_96\n      jump\t// in\n    tag_98:\n    tag_97:\n      eq\n        /* \"contracts/crowdfunding.sol\":1136:1205  require(fundingState == State.RUNNING, \"CrowdFunding is not running\") */\n      tag_99\n      jumpi\n      mload(0x40)\n      0x08c379a000000000000000000000000000000000000000000000000000000000\n      dup2\n      mstore\n      0x04\n      add\n      tag_100\n      swap1\n      tag_101\n      jump\t// in\n    tag_100:\n      mload(0x40)\n      dup1\n      swap2\n      sub\n      swap1\n      revert\n    tag_99:\n        /* \"contracts/crowdfunding.sol\":1243:1251  deadline */\n      sload(0x04)\n        /* \"contracts/crowdfunding.sol\":1224:1239  block.timestamp */\n      timestamp\n        /* \"contracts/crowdfunding.sol\":1224:1251  block.timestamp <= deadline */\n      gt\n      iszero\n        /* \"contracts/crowdfunding.sol\":1216:1271  require(block.timestamp <= deadline, \"deadline passed\") */\n      tag_102\n      jumpi\n      mload(0x40)\n      0x08c379a000000000000000000000000000000000000000000000000000000000\n      dup2\n      mstore\n      0x04\n      add\n      tag_103\n      swap1\n      tag_104\n      jump\t// in\n    tag_103:\n      mload(0x40)\n      dup1\n      swap2\n      sub\n      swap1\n      revert\n    tag_102:\n        /* \"contracts/crowdfunding.sol\":1642:1657  minContribution */\n      sload(0x03)\n        /* \"contracts/crowdfunding.sol\":1629:1638  msg.value */\n      callvalue\n        /* \"contracts/crowdfunding.sol\":1629:1657  msg.value >= minContribution */\n      lt\n      iszero\n        /* \"contracts/crowdfunding.sol\":1621:1690  require(msg.value >= minContribution, \"didnt reach min contribution\") */\n      tag_106\n      jumpi\n      mload(0x40)\n      0x08c379a000000000000000000000000000000000000000000000000000000000\n      dup2\n      mstore\n      0x04\n      add\n      tag_107\n      swap1\n      tag_108\n      jump\t// in\n    tag_107:\n      mload(0x40)\n      dup1\n      swap2\n      sub\n      swap1\n      revert\n    tag_106:\n        /* \"contracts/crowdfunding.sol\":1732:1733  0 */\n      0x00\n        /* \"contracts/crowdfunding.sol\":1704:1716  contributors */\n      dup1\n        /* \"contracts/crowdfunding.sol\":1704:1728  contributors[msg.sender] */\n      0x00\n        /* \"contracts/crowdfunding.sol\":1717:1727  msg.sender */\n      caller\n        /* \"contracts/crowdfunding.sol\":1704:1728  contributors[msg.sender] */\n      0xffffffffffffffffffffffffffffffffffffffff\n      and\n      0xffffffffffffffffffffffffffffffffffffffff\n      and\n      dup2\n      mstore\n      0x20\n      add\n      swap1\n      dup2\n      mstore\n      0x20\n      add\n      0x00\n      keccak256\n      sload\n        /* \"contracts/crowdfunding.sol\":1704:1733  contributors[msg.sender] == 0 */\n      eq\n        /* \"contracts/crowdfunding.sol\":1701:1780  if(contributors[msg.sender] == 0){\r... */\n      iszero\n      tag_109\n      jumpi\n        /* \"contracts/crowdfunding.sol\":1749:1766  numOfContributors */\n      0x02\n      0x00\n        /* \"contracts/crowdfunding.sol\":1749:1768  numOfContributors++ */\n      dup2\n      sload\n      dup1\n      swap3\n      swap2\n      swap1\n      tag_110\n      swap1\n      tag_111\n      jump\t// in\n    tag_110:\n      swap2\n      swap1\n      pop\n      sstore\n      pop\n        /* \"contracts/crowdfunding.sol\":1701:1780  if(contributors[msg.sender] == 0){\r... */\n    tag_109:\n        /* \"contracts/crowdfunding.sol\":1818:1827  msg.value */\n      callvalue\n        /* \"contracts/crowdfunding.sol\":1790:1802  contributors */\n      0x00\n        /* \"contracts/crowdfunding.sol\":1790:1814  contributors[msg.sender] */\n      dup1\n        /* \"contracts/crowdfunding.sol\":1803:1813  msg.sender */\n      caller\n        /* \"contracts/crowdfunding.sol\":1790:1814  contributors[msg.sender] */\n      0xffffffffffffffffffffffffffffffffffffffff\n      and\n      0xffffffffffffffffffffffffffffffffffffffff\n      and\n      dup2\n      mstore\n      0x20\n      add\n      swap1\n      dup2\n      mstore\n      0x20\n      add\n      0x00\n      keccak256\n      0x00\n        /* \"contracts/crowdfunding.sol\":1790:1827  contributors[msg.sender] += msg.value */\n      dup3\n      dup3\n      sload\n      tag_112\n      swap2\n      swap1\n      tag_113\n      jump\t// in\n    tag_112:\n      swap3\n      pop\n      pop\n      dup2\n      swap1\n      sstore\n      pop\n        /* \"contracts/crowdfunding.sol\":1854:1863  msg.value */\n      callvalue\n        /* \"contracts/crowdfunding.sol\":1838:1850  raisedAmount */\n      0x06\n      0x00\n        /* \"contracts/crowdfunding.sol\":1838:1863  raisedAmount += msg.value */\n      dup3\n      dup3\n      sload\n      tag_114\n      swap2\n      swap1\n      tag_113\n      jump\t// in\n    tag_114:\n      swap3\n      pop\n      pop\n      dup2\n      swap1\n      sstore\n      pop\n        /* \"contracts/crowdfunding.sol\":1558:1871  function contribute() public payable campaignRunning{\r... */\n      jump\t// out\n        /* \"contracts/crowdfunding.sol\":1879:1973  function getBalance() public view returns(uint){\r... */\n    tag_28:\n        /* \"contracts/crowdfunding.sol\":1921:1925  uint */\n      0x00\n        /* \"contracts/crowdfunding.sol\":1944:1965  address(this).balance */\n      selfbalance\n        /* \"contracts/crowdfunding.sol\":1937:1965  return address(this).balance */\n      swap1\n      pop\n        /* \"contracts/crowdfunding.sol\":1879:1973  function getBalance() public view returns(uint){\r... */\n      swap1\n      jump\t// out\n        /* \"contracts/crowdfunding.sol\":181:210  uint public numOfContributors */\n    tag_33:\n      sload(0x02)\n      dup2\n      jump\t// out\n        /* \"contracts/crowdfunding.sol\":103:147  mapping(address => uint) public contributors */\n    tag_39:\n      mstore(0x20, 0x00)\n      dup1\n      0x00\n      mstore\n      keccak256(0x00, 0x40)\n      0x00\n      swap2\n      pop\n      swap1\n      pop\n      sload\n      dup2\n      jump\t// out\n        /* \"contracts/crowdfunding.sol\":251:271  uint public deadline */\n    tag_43:\n      sload(0x04)\n      dup2\n      jump\t// out\n        /* \"contracts/crowdfunding.sol\":278:294  uint public goal */\n    tag_47:\n      sload(0x05)\n      dup2\n      jump\t// out\n        /* \"contracts/crowdfunding.sol\":2335:2697  function addRequest(string memory _description, address payable _recipient,uint _value ) public adminOnly{\r... */\n    tag_53:\n        /* \"contracts/crowdfunding.sol\":1031:1036  admin */\n      0x01\n      0x00\n      swap1\n      sload\n      swap1\n      0x0100\n      exp\n      swap1\n      div\n      0xffffffffffffffffffffffffffffffffffffffff\n      and\n        /* \"contracts/crowdfunding.sol\":1017:1036  msg.sender == admin */\n      0xffffffffffffffffffffffffffffffffffffffff\n      and\n        /* \"contracts/crowdfunding.sol\":1017:1027  msg.sender */\n      caller\n        /* \"contracts/crowdfunding.sol\":1017:1036  msg.sender == admin */\n      0xffffffffffffffffffffffffffffffffffffffff\n      and\n      eq\n        /* \"contracts/crowdfunding.sol\":1009:1071  require(msg.sender == admin, \"message sender is not an admin\") */\n      tag_117\n      jumpi\n      mload(0x40)\n      0x08c379a000000000000000000000000000000000000000000000000000000000\n      dup2\n      mstore\n      0x04\n      add\n      tag_118\n      swap1\n      tag_119\n      jump\t// in\n    tag_118:\n      mload(0x40)\n      dup1\n      swap2\n      sub\n      swap1\n      revert\n    tag_117:\n        /* \"contracts/crowdfunding.sol\":2451:2470  Request storage req */\n      0x00\n        /* \"contracts/crowdfunding.sol\":2473:2481  requests */\n      0x07\n        /* \"contracts/crowdfunding.sol\":2473:2494  requests[numRequests] */\n      0x00\n        /* \"contracts/crowdfunding.sol\":2482:2493  numRequests */\n      sload(0x08)\n        /* \"contracts/crowdfunding.sol\":2473:2494  requests[numRequests] */\n      dup2\n      mstore\n      0x20\n      add\n      swap1\n      dup2\n      mstore\n      0x20\n      add\n      0x00\n      keccak256\n        /* \"contracts/crowdfunding.sol\":2451:2494  Request storage req = requests[numRequests] */\n      swap1\n      pop\n        /* \"contracts/crowdfunding.sol\":2505:2516  numRequests */\n      0x08\n      0x00\n        /* \"contracts/crowdfunding.sol\":2505:2518  numRequests++ */\n      dup2\n      sload\n      dup1\n      swap3\n      swap2\n      swap1\n      tag_121\n      swap1\n      tag_111\n      jump\t// in\n    tag_121:\n      swap2\n      swap1\n      pop\n      sstore\n      pop\n        /* \"contracts/crowdfunding.sol\":2549:2561  _description */\n      dup4\n        /* \"contracts/crowdfunding.sol\":2531:2534  req */\n      dup2\n        /* \"contracts/crowdfunding.sol\":2531:2546  req.description */\n      0x00\n      add\n        /* \"contracts/crowdfunding.sol\":2531:2561  req.description = _description */\n      swap1\n      dup1\n      mload\n      swap1\n      0x20\n      add\n      swap1\n      tag_122\n      swap3\n      swap2\n      swap1\n      tag_123\n      jump\t// in\n    tag_122:\n      pop\n        /* \"contracts/crowdfunding.sol\":2588:2598  _recipient */\n      dup3\n        /* \"contracts/crowdfunding.sol\":2572:2575  req */\n      dup2\n        /* \"contracts/crowdfunding.sol\":2572:2585  req.recipient */\n      0x01\n      add\n      0x00\n        /* \"contracts/crowdfunding.sol\":2572:2598  req.recipient = _recipient */\n      0x0100\n      exp\n      dup2\n      sload\n      dup2\n      0xffffffffffffffffffffffffffffffffffffffff\n      mul\n      not\n      and\n      swap1\n      dup4\n      0xffffffffffffffffffffffffffffffffffffffff\n      and\n      mul\n      or\n      swap1\n      sstore\n      pop\n        /* \"contracts/crowdfunding.sol\":2621:2627  _value */\n      dup2\n        /* \"contracts/crowdfunding.sol\":2609:2612  req */\n      dup2\n        /* \"contracts/crowdfunding.sol\":2609:2618  req.value */\n      0x02\n      add\n        /* \"contracts/crowdfunding.sol\":2609:2627  req.value = _value */\n      dup2\n      swap1\n      sstore\n      pop\n        /* \"contracts/crowdfunding.sol\":2654:2659  false */\n      0x00\n        /* \"contracts/crowdfunding.sol\":2638:2641  req */\n      dup2\n        /* \"contracts/crowdfunding.sol\":2638:2651  req.completed */\n      0x03\n      add\n      0x00\n        /* \"contracts/crowdfunding.sol\":2638:2659  req.completed = false */\n      0x0100\n      exp\n      dup2\n      sload\n      dup2\n      0xff\n      mul\n      not\n      and\n      swap1\n      dup4\n      iszero\n      iszero\n      mul\n      or\n      swap1\n      sstore\n      pop\n        /* \"contracts/crowdfunding.sol\":2688:2689  0 */\n      0x00\n        /* \"contracts/crowdfunding.sol\":2670:2673  req */\n      dup2\n        /* \"contracts/crowdfunding.sol\":2670:2685  req.numOfVoters */\n      0x04\n      add\n        /* \"contracts/crowdfunding.sol\":2670:2689  req.numOfVoters = 0 */\n      dup2\n      swap1\n      sstore\n      pop\n        /* \"contracts/crowdfunding.sol\":2440:2697  {\r... */\n      pop\n        /* \"contracts/crowdfunding.sol\":2335:2697  function addRequest(string memory _description, address payable _recipient,uint _value ) public adminOnly{\r... */\n      pop\n      pop\n      pop\n      jump\t// out\n        /* \"contracts/crowdfunding.sol\":2705:2873  function voteRequest(uint _requestNumber) public {\r... */\n    tag_58:\n        /* \"contracts/crowdfunding.sol\":2800:2801  0 */\n      0x00\n        /* \"contracts/crowdfunding.sol\":2773:2785  contributors */\n      dup1\n        /* \"contracts/crowdfunding.sol\":2773:2797  contributors[msg.sender] */\n      0x00\n        /* \"contracts/crowdfunding.sol\":2786:2796  msg.sender */\n      caller\n        /* \"contracts/crowdfunding.sol\":2773:2797  contributors[msg.sender] */\n      0xffffffffffffffffffffffffffffffffffffffff\n      and\n      0xffffffffffffffffffffffffffffffffffffffff\n      and\n      dup2\n      mstore\n      0x20\n      add\n      swap1\n      dup2\n      mstore\n      0x20\n      add\n      0x00\n      keccak256\n      sload\n        /* \"contracts/crowdfunding.sol\":2773:2801  contributors[msg.sender] > 0 */\n      gt\n        /* \"contracts/crowdfunding.sol\":2765:2802  require(contributors[msg.sender] > 0) */\n      tag_125\n      jumpi\n      0x00\n      dup1\n      revert\n    tag_125:\n        /* \"contracts/crowdfunding.sol\":2861:2865  true */\n      0x01\n        /* \"contracts/crowdfunding.sol\":2815:2823  requests */\n      0x07\n        /* \"contracts/crowdfunding.sol\":2815:2839  requests[_requestNumber] */\n      0x00\n        /* \"contracts/crowdfunding.sol\":2824:2838  _requestNumber */\n      dup4\n        /* \"contracts/crowdfunding.sol\":2815:2839  requests[_requestNumber] */\n      dup2\n      mstore\n      0x20\n      add\n      swap1\n      dup2\n      mstore\n      0x20\n      add\n      0x00\n      keccak256\n        /* \"contracts/crowdfunding.sol\":2815:2846  requests[_requestNumber].voters */\n      0x05\n      add\n        /* \"contracts/crowdfunding.sol\":2815:2858  requests[_requestNumber].voters[msg.sender] */\n      0x00\n        /* \"contracts/crowdfunding.sol\":2847:2857  msg.sender */\n      caller\n        /* \"contracts/crowdfunding.sol\":2815:2858  requests[_requestNumber].voters[msg.sender] */\n      0xffffffffffffffffffffffffffffffffffffffff\n      and\n      0xffffffffffffffffffffffffffffffffffffffff\n      and\n      dup2\n      mstore\n      0x20\n      add\n      swap1\n      dup2\n      mstore\n      0x20\n      add\n      0x00\n      keccak256\n      0x00\n        /* \"contracts/crowdfunding.sol\":2815:2865  requests[_requestNumber].voters[msg.sender] = true */\n      0x0100\n      exp\n      dup2\n      sload\n      dup2\n      0xff\n      mul\n      not\n      and\n      swap1\n      dup4\n      iszero\n      iszero\n      mul\n      or\n      swap1\n      sstore\n      pop\n        /* \"contracts/crowdfunding.sol\":2705:2873  function voteRequest(uint _requestNumber) public {\r... */\n      pop\n      jump\t// out\n        /* \"contracts/crowdfunding.sol\":546:586  mapping(uint => Request) public requests */\n    tag_62:\n      mstore(0x20, 0x07)\n      dup1\n      0x00\n      mstore\n      keccak256(0x00, 0x40)\n      0x00\n      swap2\n      pop\n      swap1\n      pop\n      dup1\n      0x00\n      add\n      dup1\n      sload\n      tag_126\n      swap1\n      tag_127\n      jump\t// in\n    tag_126:\n      dup1\n      0x1f\n      add\n      0x20\n      dup1\n      swap2\n      div\n      mul\n      0x20\n      add\n      mload(0x40)\n      swap1\n      dup2\n      add\n      0x40\n      mstore\n      dup1\n      swap3\n      swap2\n      swap1\n      dup2\n      dup2\n      mstore\n      0x20\n      add\n      dup3\n      dup1\n      sload\n      tag_128\n      swap1\n      tag_127\n      jump\t// in\n    tag_128:\n      dup1\n      iszero\n      tag_129\n      jumpi\n      dup1\n      0x1f\n      lt\n      tag_130\n      jumpi\n      0x0100\n      dup1\n      dup4\n      sload\n      div\n      mul\n      dup4\n      mstore\n      swap2\n      0x20\n      add\n      swap2\n      jump(tag_129)\n    tag_130:\n      dup3\n      add\n      swap2\n      swap1\n      0x00\n      mstore\n      keccak256(0x00, 0x20)\n      swap1\n    tag_131:\n      dup2\n      sload\n      dup2\n      mstore\n      swap1\n      0x01\n      add\n      swap1\n      0x20\n      add\n      dup1\n      dup4\n      gt\n      tag_131\n      jumpi\n      dup3\n      swap1\n      sub\n      0x1f\n      and\n      dup3\n      add\n      swap2\n    tag_129:\n      pop\n      pop\n      pop\n      pop\n      pop\n      swap1\n      dup1\n      0x01\n      add\n      0x00\n      swap1\n      sload\n      swap1\n      0x0100\n      exp\n      swap1\n      div\n      0xffffffffffffffffffffffffffffffffffffffff\n      and\n      swap1\n      dup1\n      0x02\n      add\n      sload\n      swap1\n      dup1\n      0x03\n      add\n      0x00\n      swap1\n      sload\n      swap1\n      0x0100\n      exp\n      swap1\n      div\n      0xff\n      and\n      swap1\n      dup1\n      0x04\n      add\n      sload\n      swap1\n      pop\n      dup6\n      jump\t// out\n        /* \"contracts/crowdfunding.sol\":593:616  uint public numRequests */\n    tag_67:\n      sload(0x08)\n      dup2\n      jump\t// out\n        /* \"contracts/crowdfunding.sol\":1462:1550  function startCampaign() public adminOnly{\r... */\n    tag_71:\n        /* \"contracts/crowdfunding.sol\":1031:1036  admin */\n      0x01\n      0x00\n      swap1\n      sload\n      swap1\n      0x0100\n      exp\n      swap1\n      div\n      0xffffffffffffffffffffffffffffffffffffffff\n      and\n        /* \"contracts/crowdfunding.sol\":1017:1036  msg.sender == admin */\n      0xffffffffffffffffffffffffffffffffffffffff\n      and\n        /* \"contracts/crowdfunding.sol\":1017:1027  msg.sender */\n      caller\n        /* \"contracts/crowdfunding.sol\":1017:1036  msg.sender == admin */\n      0xffffffffffffffffffffffffffffffffffffffff\n      and\n      eq\n        /* \"contracts/crowdfunding.sol\":1009:1071  require(msg.sender == admin, \"message sender is not an admin\") */\n      tag_133\n      jumpi\n      mload(0x40)\n      0x08c379a000000000000000000000000000000000000000000000000000000000\n      dup2\n      mstore\n      0x04\n      add\n      tag_134\n      swap1\n      tag_119\n      jump\t// in\n    tag_134:\n      mload(0x40)\n      dup1\n      swap2\n      sub\n      swap1\n      revert\n    tag_133:\n        /* \"contracts/crowdfunding.sol\":1529:1542  State.RUNNING */\n      0x02\n        /* \"contracts/crowdfunding.sol\":1514:1526  fundingState */\n      0x09\n      0x00\n        /* \"contracts/crowdfunding.sol\":1514:1542  fundingState = State.RUNNING */\n      0x0100\n      exp\n      dup2\n      sload\n      dup2\n      0xff\n      mul\n      not\n      and\n      swap1\n      dup4\n      0x04\n      dup2\n      gt\n      iszero\n      tag_136\n      jumpi\n      tag_137\n      tag_96\n      jump\t// in\n    tag_137:\n    tag_136:\n      mul\n      or\n      swap1\n      sstore\n      pop\n        /* \"contracts/crowdfunding.sol\":1462:1550  function startCampaign() public adminOnly{\r... */\n      jump\t// out\n        /* \"contracts/crowdfunding.sol\":217:244  uint public minContribution */\n    tag_74:\n      sload(0x03)\n      dup2\n      jump\t// out\n        /* \"contracts/crowdfunding.sol\":685:710  State public fundingState */\n    tag_78:\n      0x09\n      0x00\n      swap1\n      sload\n      swap1\n      0x0100\n      exp\n      swap1\n      div\n      0xff\n      and\n      dup2\n      jump\t// out\n        /* \"contracts/crowdfunding.sol\":301:325  uint public raisedAmount */\n    tag_83:\n      sload(0x06)\n      dup2\n      jump\t// out\n        /* \"contracts/crowdfunding.sol\":1985:2327  function requestRefund() public payable {\r... */\n    tag_86:\n        /* \"contracts/crowdfunding.sol\":2071:2072  0 */\n      0x00\n        /* \"contracts/crowdfunding.sol\":2044:2056  contributors */\n      dup1\n        /* \"contracts/crowdfunding.sol\":2044:2068  contributors[msg.sender] */\n      0x00\n        /* \"contracts/crowdfunding.sol\":2057:2067  msg.sender */\n      caller\n        /* \"contracts/crowdfunding.sol\":2044:2068  contributors[msg.sender] */\n      0xffffffffffffffffffffffffffffffffffffffff\n      and\n      0xffffffffffffffffffffffffffffffffffffffff\n      and\n      dup2\n      mstore\n      0x20\n      add\n      swap1\n      dup2\n      mstore\n      0x20\n      add\n      0x00\n      keccak256\n      sload\n        /* \"contracts/crowdfunding.sol\":2044:2072  contributors[msg.sender] > 0 */\n      gt\n        /* \"contracts/crowdfunding.sol\":2036:2073  require(contributors[msg.sender] > 0) */\n      tag_139\n      jumpi\n      0x00\n      dup1\n      revert\n    tag_139:\n        /* \"contracts/crowdfunding.sol\":2108:2122  State.CANCELED */\n      0x04\n        /* \"contracts/crowdfunding.sol\":2092:2122  fundingState == State.CANCELED */\n      dup1\n      dup2\n      gt\n      iszero\n      tag_140\n      jumpi\n      tag_141\n      tag_96\n      jump\t// in\n    tag_141:\n    tag_140:\n        /* \"contracts/crowdfunding.sol\":2092:2104  fundingState */\n      0x09\n      0x00\n      swap1\n      sload\n      swap1\n      0x0100\n      exp\n      swap1\n      div\n      0xff\n      and\n        /* \"contracts/crowdfunding.sol\":2092:2122  fundingState == State.CANCELED */\n      0x04\n      dup2\n      gt\n      iszero\n      tag_142\n      jumpi\n      tag_143\n      tag_96\n      jump\t// in\n    tag_143:\n    tag_142:\n      eq\n        /* \"contracts/crowdfunding.sol\":2092:2175  fundingState == State.CANCELED || block.timestamp > deadline && raisedAmount < goal */\n      dup1\n      tag_144\n      jumpi\n      pop\n        /* \"contracts/crowdfunding.sol\":2144:2152  deadline */\n      sload(0x04)\n        /* \"contracts/crowdfunding.sol\":2126:2141  block.timestamp */\n      timestamp\n        /* \"contracts/crowdfunding.sol\":2126:2152  block.timestamp > deadline */\n      gt\n        /* \"contracts/crowdfunding.sol\":2126:2175  block.timestamp > deadline && raisedAmount < goal */\n      dup1\n      iszero\n      tag_145\n      jumpi\n      pop\n        /* \"contracts/crowdfunding.sol\":2171:2175  goal */\n      sload(0x05)\n        /* \"contracts/crowdfunding.sol\":2156:2168  raisedAmount */\n      sload(0x06)\n        /* \"contracts/crowdfunding.sol\":2156:2175  raisedAmount < goal */\n      lt\n        /* \"contracts/crowdfunding.sol\":2126:2175  block.timestamp > deadline && raisedAmount < goal */\n    tag_145:\n        /* \"contracts/crowdfunding.sol\":2092:2175  fundingState == State.CANCELED || block.timestamp > deadline && raisedAmount < goal */\n    tag_144:\n        /* \"contracts/crowdfunding.sol\":2084:2176  require(fundingState == State.CANCELED || block.timestamp > deadline && raisedAmount < goal) */\n      tag_146\n      jumpi\n      0x00\n      dup1\n      revert\n    tag_146:\n        /* \"contracts/crowdfunding.sol\":2197:2207  uint value */\n      0x00\n        /* \"contracts/crowdfunding.sol\":2210:2222  contributors */\n      dup1\n        /* \"contracts/crowdfunding.sol\":2210:2234  contributors[msg.sender] */\n      0x00\n        /* \"contracts/crowdfunding.sol\":2223:2233  msg.sender */\n      caller\n        /* \"contracts/crowdfunding.sol\":2210:2234  contributors[msg.sender] */\n      0xffffffffffffffffffffffffffffffffffffffff\n      and\n      0xffffffffffffffffffffffffffffffffffffffff\n      and\n      dup2\n      mstore\n      0x20\n      add\n      swap1\n      dup2\n      mstore\n      0x20\n      add\n      0x00\n      keccak256\n      sload\n        /* \"contracts/crowdfunding.sol\":2197:2234  uint value = contributors[msg.sender] */\n      swap1\n      pop\n        /* \"contracts/crowdfunding.sol\":2272:2273  0 */\n      0x00\n        /* \"contracts/crowdfunding.sol\":2245:2257  contributors */\n      dup1\n        /* \"contracts/crowdfunding.sol\":2245:2269  contributors[msg.sender] */\n      0x00\n        /* \"contracts/crowdfunding.sol\":2258:2268  msg.sender */\n      caller\n        /* \"contracts/crowdfunding.sol\":2245:2269  contributors[msg.sender] */\n      0xffffffffffffffffffffffffffffffffffffffff\n      and\n      0xffffffffffffffffffffffffffffffffffffffff\n      and\n      dup2\n      mstore\n      0x20\n      add\n      swap1\n      dup2\n      mstore\n      0x20\n      add\n      0x00\n      keccak256\n        /* \"contracts/crowdfunding.sol\":2245:2273  contributors[msg.sender] = 0 */\n      dup2\n      swap1\n      sstore\n      pop\n        /* \"contracts/crowdfunding.sol\":2292:2302  msg.sender */\n      caller\n        /* \"contracts/crowdfunding.sol\":2284:2312  payable(msg.sender).transfer */\n      0xffffffffffffffffffffffffffffffffffffffff\n      and\n        /* \"contracts/crowdfunding.sol\":2284:2319  payable(msg.sender).transfer(value) */\n      0x08fc\n        /* \"contracts/crowdfunding.sol\":2313:2318  value */\n      dup3\n        /* \"contracts/crowdfunding.sol\":2284:2319  payable(msg.sender).transfer(value) */\n      swap1\n      dup2\n      iszero\n      mul\n      swap1\n      mload(0x40)\n      0x00\n      mload(0x40)\n      dup1\n      dup4\n      sub\n      dup2\n      dup6\n      dup9\n      dup9\n      call\n      swap4\n      pop\n      pop\n      pop\n      pop\n      iszero\n      dup1\n      iszero\n      tag_148\n      jumpi\n      returndatasize\n      0x00\n      dup1\n      returndatacopy\n      revert(0x00, returndatasize)\n    tag_148:\n      pop\n        /* \"contracts/crowdfunding.sol\":2025:2327  {\r... */\n      pop\n        /* \"contracts/crowdfunding.sol\":1985:2327  function requestRefund() public payable {\r... */\n      jump\t// out\n        /* \"contracts/crowdfunding.sol\":154:174  address public admin */\n    tag_90:\n      0x01\n      0x00\n      swap1\n      sload\n      swap1\n      0x0100\n      exp\n      swap1\n      div\n      0xffffffffffffffffffffffffffffffffffffffff\n      and\n      dup2\n      jump\t// out\n    tag_123:\n      dup3\n      dup1\n      sload\n      tag_149\n      swap1\n      tag_127\n      jump\t// in\n    tag_149:\n      swap1\n      0x00\n      mstore\n      keccak256(0x00, 0x20)\n      swap1\n      0x1f\n      add\n      0x20\n      swap1\n      div\n      dup2\n      add\n      swap3\n      dup3\n      tag_151\n      jumpi\n      0x00\n      dup6\n      sstore\n      jump(tag_150)\n    tag_151:\n      dup3\n      0x1f\n      lt\n      tag_152\n      jumpi\n      dup1\n      mload\n      not(0xff)\n      and\n      dup4\n      dup1\n      add\n      or\n      dup6\n      sstore\n      jump(tag_150)\n    tag_152:\n      dup3\n      dup1\n      add\n      0x01\n      add\n      dup6\n      sstore\n      dup3\n      iszero\n      tag_150\n      jumpi\n      swap2\n      dup3\n      add\n    tag_153:\n      dup3\n      dup2\n      gt\n      iszero\n      tag_154\n      jumpi\n      dup3\n      mload\n      dup3\n      sstore\n      swap2\n      0x20\n      add\n      swap2\n      swap1\n      0x01\n      add\n      swap1\n      jump(tag_153)\n    tag_154:\n    tag_150:\n      pop\n      swap1\n      pop\n      tag_155\n      swap2\n      swap1\n      tag_156\n      jump\t// in\n    tag_155:\n      pop\n      swap1\n      jump\t// out\n    tag_156:\n    tag_157:\n      dup1\n      dup3\n      gt\n      iszero\n      tag_158\n      jumpi\n      0x00\n      dup2\n      0x00\n      swap1\n      sstore\n      pop\n      0x01\n      add\n      jump(tag_157)\n    tag_158:\n      pop\n      swap1\n      jump\t// out\n        /* \"#utility.yul\":7:419   */\n    tag_160:\n        /* \"#utility.yul\":85:90   */\n      0x00\n        /* \"#utility.yul\":110:176   */\n      tag_162\n        /* \"#utility.yul\":126:175   */\n      tag_163\n        /* \"#utility.yul\":168:174   */\n      dup5\n        /* \"#utility.yul\":126:175   */\n      tag_164\n      jump\t// in\n    tag_163:\n        /* \"#utility.yul\":110:176   */\n      tag_165\n      jump\t// in\n    tag_162:\n        /* \"#utility.yul\":101:176   */\n      swap1\n      pop\n        /* \"#utility.yul\":199:205   */\n      dup3\n        /* \"#utility.yul\":192:197   */\n      dup2\n        /* \"#utility.yul\":185:206   */\n      mstore\n        /* \"#utility.yul\":237:241   */\n      0x20\n        /* \"#utility.yul\":230:235   */\n      dup2\n        /* \"#utility.yul\":226:242   */\n      add\n        /* \"#utility.yul\":275:278   */\n      dup5\n        /* \"#utility.yul\":266:272   */\n      dup5\n        /* \"#utility.yul\":261:264   */\n      dup5\n        /* \"#utility.yul\":257:273   */\n      add\n        /* \"#utility.yul\":254:279   */\n      gt\n        /* \"#utility.yul\":251:363   */\n      iszero\n      tag_166\n      jumpi\n        /* \"#utility.yul\":282:361   */\n      tag_167\n      tag_168\n      jump\t// in\n    tag_167:\n        /* \"#utility.yul\":251:363   */\n    tag_166:\n        /* \"#utility.yul\":372:413   */\n      tag_169\n        /* \"#utility.yul\":406:412   */\n      dup5\n        /* \"#utility.yul\":401:404   */\n      dup3\n        /* \"#utility.yul\":396:399   */\n      dup6\n        /* \"#utility.yul\":372:413   */\n      tag_170\n      jump\t// in\n    tag_169:\n        /* \"#utility.yul\":91:419   */\n      pop\n        /* \"#utility.yul\":7:419   */\n      swap4\n      swap3\n      pop\n      pop\n      pop\n      jump\t// out\n        /* \"#utility.yul\":425:564   */\n    tag_171:\n        /* \"#utility.yul\":471:476   */\n      0x00\n        /* \"#utility.yul\":509:515   */\n      dup2\n        /* \"#utility.yul\":496:516   */\n      calldataload\n        /* \"#utility.yul\":487:516   */\n      swap1\n      pop\n        /* \"#utility.yul\":525:558   */\n      tag_173\n        /* \"#utility.yul\":552:557   */\n      dup2\n        /* \"#utility.yul\":525:558   */\n      tag_174\n      jump\t// in\n    tag_173:\n        /* \"#utility.yul\":425:564   */\n      swap3\n      swap2\n      pop\n      pop\n      jump\t// out\n        /* \"#utility.yul\":570:725   */\n    tag_175:\n        /* \"#utility.yul\":624:629   */\n      0x00\n        /* \"#utility.yul\":662:668   */\n      dup2\n        /* \"#utility.yul\":649:669   */\n      calldataload\n        /* \"#utility.yul\":640:669   */\n      swap1\n      pop\n        /* \"#utility.yul\":678:719   */\n      tag_177\n        /* \"#utility.yul\":713:718   */\n      dup2\n        /* \"#utility.yul\":678:719   */\n      tag_178\n      jump\t// in\n    tag_177:\n        /* \"#utility.yul\":570:725   */\n      swap3\n      swap2\n      pop\n      pop\n      jump\t// out\n        /* \"#utility.yul\":745:1085   */\n    tag_179:\n        /* \"#utility.yul\":801:806   */\n      0x00\n        /* \"#utility.yul\":850:853   */\n      dup3\n        /* \"#utility.yul\":843:847   */\n      0x1f\n        /* \"#utility.yul\":835:841   */\n      dup4\n        /* \"#utility.yul\":831:848   */\n      add\n        /* \"#utility.yul\":827:854   */\n      slt\n        /* \"#utility.yul\":817:939   */\n      tag_181\n      jumpi\n        /* \"#utility.yul\":858:937   */\n      tag_182\n      tag_183\n      jump\t// in\n    tag_182:\n        /* \"#utility.yul\":817:939   */\n    tag_181:\n        /* \"#utility.yul\":975:981   */\n      dup2\n        /* \"#utility.yul\":962:982   */\n      calldataload\n        /* \"#utility.yul\":1000:1079   */\n      tag_184\n        /* \"#utility.yul\":1075:1078   */\n      dup5\n        /* \"#utility.yul\":1067:1073   */\n      dup3\n        /* \"#utility.yul\":1060:1064   */\n      0x20\n        /* \"#utility.yul\":1052:1058   */\n      dup7\n        /* \"#utility.yul\":1048:1065   */\n      add\n        /* \"#utility.yul\":1000:1079   */\n      tag_160\n      jump\t// in\n    tag_184:\n        /* \"#utility.yul\":991:1079   */\n      swap2\n      pop\n        /* \"#utility.yul\":807:1085   */\n      pop\n        /* \"#utility.yul\":745:1085   */\n      swap3\n      swap2\n      pop\n      pop\n      jump\t// out\n        /* \"#utility.yul\":1091:1230   */\n    tag_185:\n        /* \"#utility.yul\":1137:1142   */\n      0x00\n        /* \"#utility.yul\":1175:1181   */\n      dup2\n        /* \"#utility.yul\":1162:1182   */\n      calldataload\n        /* \"#utility.yul\":1153:1182   */\n      swap1\n      pop\n        /* \"#utility.yul\":1191:1224   */\n      tag_187\n        /* \"#utility.yul\":1218:1223   */\n      dup2\n        /* \"#utility.yul\":1191:1224   */\n      tag_188\n      jump\t// in\n    tag_187:\n        /* \"#utility.yul\":1091:1230   */\n      swap3\n      swap2\n      pop\n      pop\n      jump\t// out\n        /* \"#utility.yul\":1236:1565   */\n    tag_38:\n        /* \"#utility.yul\":1295:1301   */\n      0x00\n        /* \"#utility.yul\":1344:1346   */\n      0x20\n        /* \"#utility.yul\":1332:1341   */\n      dup3\n        /* \"#utility.yul\":1323:1330   */\n      dup5\n        /* \"#utility.yul\":1319:1342   */\n      sub\n        /* \"#utility.yul\":1315:1347   */\n      slt\n        /* \"#utility.yul\":1312:1431   */\n      iszero\n      tag_190\n      jumpi\n        /* \"#utility.yul\":1350:1429   */\n      tag_191\n      tag_192\n      jump\t// in\n    tag_191:\n        /* \"#utility.yul\":1312:1431   */\n    tag_190:\n        /* \"#utility.yul\":1470:1471   */\n      0x00\n        /* \"#utility.yul\":1495:1548   */\n      tag_193\n        /* \"#utility.yul\":1540:1547   */\n      dup5\n        /* \"#utility.yul\":1531:1537   */\n      dup3\n        /* \"#utility.yul\":1520:1529   */\n      dup6\n        /* \"#utility.yul\":1516:1538   */\n      add\n        /* \"#utility.yul\":1495:1548   */\n      tag_171\n      jump\t// in\n    tag_193:\n        /* \"#utility.yul\":1485:1548   */\n      swap2\n      pop\n        /* \"#utility.yul\":1441:1558   */\n      pop\n        /* \"#utility.yul\":1236:1565   */\n      swap3\n      swap2\n      pop\n      pop\n      jump\t// out\n        /* \"#utility.yul\":1571:2386   */\n    tag_52:\n        /* \"#utility.yul\":1666:1672   */\n      0x00\n        /* \"#utility.yul\":1674:1680   */\n      dup1\n        /* \"#utility.yul\":1682:1688   */\n      0x00\n        /* \"#utility.yul\":1731:1733   */\n      0x60\n        /* \"#utility.yul\":1719:1728   */\n      dup5\n        /* \"#utility.yul\":1710:1717   */\n      dup7\n        /* \"#utility.yul\":1706:1729   */\n      sub\n        /* \"#utility.yul\":1702:1734   */\n      slt\n        /* \"#utility.yul\":1699:1818   */\n      iszero\n      tag_195\n      jumpi\n        /* \"#utility.yul\":1737:1816   */\n      tag_196\n      tag_192\n      jump\t// in\n    tag_196:\n        /* \"#utility.yul\":1699:1818   */\n    tag_195:\n        /* \"#utility.yul\":1885:1886   */\n      0x00\n        /* \"#utility.yul\":1874:1883   */\n      dup5\n        /* \"#utility.yul\":1870:1887   */\n      add\n        /* \"#utility.yul\":1857:1888   */\n      calldataload\n        /* \"#utility.yul\":1915:1933   */\n      0xffffffffffffffff\n        /* \"#utility.yul\":1907:1913   */\n      dup2\n        /* \"#utility.yul\":1904:1934   */\n      gt\n        /* \"#utility.yul\":1901:2018   */\n      iszero\n      tag_197\n      jumpi\n        /* \"#utility.yul\":1937:2016   */\n      tag_198\n      tag_199\n      jump\t// in\n    tag_198:\n        /* \"#utility.yul\":1901:2018   */\n    tag_197:\n        /* \"#utility.yul\":2042:2105   */\n      tag_200\n        /* \"#utility.yul\":2097:2104   */\n      dup7\n        /* \"#utility.yul\":2088:2094   */\n      dup3\n        /* \"#utility.yul\":2077:2086   */\n      dup8\n        /* \"#utility.yul\":2073:2095   */\n      add\n        /* \"#utility.yul\":2042:2105   */\n      tag_179\n      jump\t// in\n    tag_200:\n        /* \"#utility.yul\":2032:2105   */\n      swap4\n      pop\n        /* \"#utility.yul\":1828:2115   */\n      pop\n        /* \"#utility.yul\":2154:2156   */\n      0x20\n        /* \"#utility.yul\":2180:2241   */\n      tag_201\n        /* \"#utility.yul\":2233:2240   */\n      dup7\n        /* \"#utility.yul\":2224:2230   */\n      dup3\n        /* \"#utility.yul\":2213:2222   */\n      dup8\n        /* \"#utility.yul\":2209:2231   */\n      add\n        /* \"#utility.yul\":2180:2241   */\n      tag_175\n      jump\t// in\n    tag_201:\n        /* \"#utility.yul\":2170:2241   */\n      swap3\n      pop\n        /* \"#utility.yul\":2125:2251   */\n      pop\n        /* \"#utility.yul\":2290:2292   */\n      0x40\n        /* \"#utility.yul\":2316:2369   */\n      tag_202\n        /* \"#utility.yul\":2361:2368   */\n      dup7\n        /* \"#utility.yul\":2352:2358   */\n      dup3\n        /* \"#utility.yul\":2341:2350   */\n      dup8\n        /* \"#utility.yul\":2337:2359   */\n      add\n        /* \"#utility.yul\":2316:2369   */\n      tag_185\n      jump\t// in\n    tag_202:\n        /* \"#utility.yul\":2306:2369   */\n      swap2\n      pop\n        /* \"#utility.yul\":2261:2379   */\n      pop\n        /* \"#utility.yul\":1571:2386   */\n      swap3\n      pop\n      swap3\n      pop\n      swap3\n      jump\t// out\n        /* \"#utility.yul\":2392:2721   */\n    tag_57:\n        /* \"#utility.yul\":2451:2457   */\n      0x00\n        /* \"#utility.yul\":2500:2502   */\n      0x20\n        /* \"#utility.yul\":2488:2497   */\n      dup3\n        /* \"#utility.yul\":2479:2486   */\n      dup5\n        /* \"#utility.yul\":2475:2498   */\n      sub\n        /* \"#utility.yul\":2471:2503   */\n      slt\n        /* \"#utility.yul\":2468:2587   */\n      iszero\n      tag_204\n      jumpi\n        /* \"#utility.yul\":2506:2585   */\n      tag_205\n      tag_192\n      jump\t// in\n    tag_205:\n        /* \"#utility.yul\":2468:2587   */\n    tag_204:\n        /* \"#utility.yul\":2626:2627   */\n      0x00\n        /* \"#utility.yul\":2651:2704   */\n      tag_206\n        /* \"#utility.yul\":2696:2703   */\n      dup5\n        /* \"#utility.yul\":2687:2693   */\n      dup3\n        /* \"#utility.yul\":2676:2685   */\n      dup6\n        /* \"#utility.yul\":2672:2694   */\n      add\n        /* \"#utility.yul\":2651:2704   */\n      tag_185\n      jump\t// in\n    tag_206:\n        /* \"#utility.yul\":2641:2704   */\n      swap2\n      pop\n        /* \"#utility.yul\":2597:2714   */\n      pop\n        /* \"#utility.yul\":2392:2721   */\n      swap3\n      swap2\n      pop\n      pop\n      jump\t// out\n        /* \"#utility.yul\":2727:2869   */\n    tag_207:\n        /* \"#utility.yul\":2830:2862   */\n      tag_209\n        /* \"#utility.yul\":2856:2861   */\n      dup2\n        /* \"#utility.yul\":2830:2862   */\n      tag_210\n      jump\t// in\n    tag_209:\n        /* \"#utility.yul\":2825:2828   */\n      dup3\n        /* \"#utility.yul\":2818:2863   */\n      mstore\n        /* \"#utility.yul\":2727:2869   */\n      pop\n      pop\n      jump\t// out\n        /* \"#utility.yul\":2875:2993   */\n    tag_211:\n        /* \"#utility.yul\":2962:2986   */\n      tag_213\n        /* \"#utility.yul\":2980:2985   */\n      dup2\n        /* \"#utility.yul\":2962:2986   */\n      tag_214\n      jump\t// in\n    tag_213:\n        /* \"#utility.yul\":2957:2960   */\n      dup3\n        /* \"#utility.yul\":2950:2987   */\n      mstore\n        /* \"#utility.yul\":2875:2993   */\n      pop\n      pop\n      jump\t// out\n        /* \"#utility.yul\":2999:3108   */\n    tag_215:\n        /* \"#utility.yul\":3080:3101   */\n      tag_217\n        /* \"#utility.yul\":3095:3100   */\n      dup2\n        /* \"#utility.yul\":3080:3101   */\n      tag_218\n      jump\t// in\n    tag_217:\n        /* \"#utility.yul\":3075:3078   */\n      dup3\n        /* \"#utility.yul\":3068:3102   */\n      mstore\n        /* \"#utility.yul\":2999:3108   */\n      pop\n      pop\n      jump\t// out\n        /* \"#utility.yul\":3114:3257   */\n    tag_219:\n        /* \"#utility.yul\":3207:3250   */\n      tag_221\n        /* \"#utility.yul\":3244:3249   */\n      dup2\n        /* \"#utility.yul\":3207:3250   */\n      tag_222\n      jump\t// in\n    tag_221:\n        /* \"#utility.yul\":3202:3205   */\n      dup3\n        /* \"#utility.yul\":3195:3251   */\n      mstore\n        /* \"#utility.yul\":3114:3257   */\n      pop\n      pop\n      jump\t// out\n        /* \"#utility.yul\":3263:3627   */\n    tag_223:\n        /* \"#utility.yul\":3351:3354   */\n      0x00\n        /* \"#utility.yul\":3379:3418   */\n      tag_225\n        /* \"#utility.yul\":3412:3417   */\n      dup3\n        /* \"#utility.yul\":3379:3418   */\n      tag_226\n      jump\t// in\n    tag_225:\n        /* \"#utility.yul\":3434:3505   */\n      tag_227\n        /* \"#utility.yul\":3498:3504   */\n      dup2\n        /* \"#utility.yul\":3493:3496   */\n      dup6\n        /* \"#utility.yul\":3434:3505   */\n      tag_228\n      jump\t// in\n    tag_227:\n        /* \"#utility.yul\":3427:3505   */\n      swap4\n      pop\n        /* \"#utility.yul\":3514:3566   */\n      tag_229\n        /* \"#utility.yul\":3559:3565   */\n      dup2\n        /* \"#utility.yul\":3554:3557   */\n      dup6\n        /* \"#utility.yul\":3547:3551   */\n      0x20\n        /* \"#utility.yul\":3540:3545   */\n      dup7\n        /* \"#utility.yul\":3536:3552   */\n      add\n        /* \"#utility.yul\":3514:3566   */\n      tag_230\n      jump\t// in\n    tag_229:\n        /* \"#utility.yul\":3591:3620   */\n      tag_231\n        /* \"#utility.yul\":3613:3619   */\n      dup2\n        /* \"#utility.yul\":3591:3620   */\n      tag_232\n      jump\t// in\n    tag_231:\n        /* \"#utility.yul\":3586:3589   */\n      dup5\n        /* \"#utility.yul\":3582:3621   */\n      add\n        /* \"#utility.yul\":3575:3621   */\n      swap2\n      pop\n        /* \"#utility.yul\":3355:3627   */\n      pop\n        /* \"#utility.yul\":3263:3627   */\n      swap3\n      swap2\n      pop\n      pop\n      jump\t// out\n        /* \"#utility.yul\":3633:3999   */\n    tag_233:\n        /* \"#utility.yul\":3775:3778   */\n      0x00\n        /* \"#utility.yul\":3796:3863   */\n      tag_235\n        /* \"#utility.yul\":3860:3862   */\n      0x1c\n        /* \"#utility.yul\":3855:3858   */\n      dup4\n        /* \"#utility.yul\":3796:3863   */\n      tag_228\n      jump\t// in\n    tag_235:\n        /* \"#utility.yul\":3789:3863   */\n      swap2\n      pop\n        /* \"#utility.yul\":3872:3965   */\n      tag_236\n        /* \"#utility.yul\":3961:3964   */\n      dup3\n        /* \"#utility.yul\":3872:3965   */\n      tag_237\n      jump\t// in\n    tag_236:\n        /* \"#utility.yul\":3990:3992   */\n      0x20\n        /* \"#utility.yul\":3985:3988   */\n      dup3\n        /* \"#utility.yul\":3981:3993   */\n      add\n        /* \"#utility.yul\":3974:3993   */\n      swap1\n      pop\n        /* \"#utility.yul\":3633:3999   */\n      swap2\n      swap1\n      pop\n      jump\t// out\n        /* \"#utility.yul\":4005:4371   */\n    tag_238:\n        /* \"#utility.yul\":4147:4150   */\n      0x00\n        /* \"#utility.yul\":4168:4235   */\n      tag_240\n        /* \"#utility.yul\":4232:4234   */\n      0x1e\n        /* \"#utility.yul\":4227:4230   */\n      dup4\n        /* \"#utility.yul\":4168:4235   */\n      tag_228\n      jump\t// in\n    tag_240:\n        /* \"#utility.yul\":4161:4235   */\n      swap2\n      pop\n        /* \"#utility.yul\":4244:4337   */\n      tag_241\n        /* \"#utility.yul\":4333:4336   */\n      dup3\n        /* \"#utility.yul\":4244:4337   */\n      tag_242\n      jump\t// in\n    tag_241:\n        /* \"#utility.yul\":4362:4364   */\n      0x20\n        /* \"#utility.yul\":4357:4360   */\n      dup3\n        /* \"#utility.yul\":4353:4365   */\n      add\n        /* \"#utility.yul\":4346:4365   */\n      swap1\n      pop\n        /* \"#utility.yul\":4005:4371   */\n      swap2\n      swap1\n      pop\n      jump\t// out\n        /* \"#utility.yul\":4377:4743   */\n    tag_243:\n        /* \"#utility.yul\":4519:4522   */\n      0x00\n        /* \"#utility.yul\":4540:4607   */\n      tag_245\n        /* \"#utility.yul\":4604:4606   */\n      0x0f\n        /* \"#utility.yul\":4599:4602   */\n      dup4\n        /* \"#utility.yul\":4540:4607   */\n      tag_228\n      jump\t// in\n    tag_245:\n        /* \"#utility.yul\":4533:4607   */\n      swap2\n      pop\n        /* \"#utility.yul\":4616:4709   */\n      tag_246\n        /* \"#utility.yul\":4705:4708   */\n      dup3\n        /* \"#utility.yul\":4616:4709   */\n      tag_247\n      jump\t// in\n    tag_246:\n        /* \"#utility.yul\":4734:4736   */\n      0x20\n        /* \"#utility.yul\":4729:4732   */\n      dup3\n        /* \"#utility.yul\":4725:4737   */\n      add\n        /* \"#utility.yul\":4718:4737   */\n      swap1\n      pop\n        /* \"#utility.yul\":4377:4743   */\n      swap2\n      swap1\n      pop\n      jump\t// out\n        /* \"#utility.yul\":4749:5115   */\n    tag_248:\n        /* \"#utility.yul\":4891:4894   */\n      0x00\n        /* \"#utility.yul\":4912:4979   */\n      tag_250\n        /* \"#utility.yul\":4976:4978   */\n      0x1b\n        /* \"#utility.yul\":4971:4974   */\n      dup4\n        /* \"#utility.yul\":4912:4979   */\n      tag_228\n      jump\t// in\n    tag_250:\n        /* \"#utility.yul\":4905:4979   */\n      swap2\n      pop\n        /* \"#utility.yul\":4988:5081   */\n      tag_251\n        /* \"#utility.yul\":5077:5080   */\n      dup3\n        /* \"#utility.yul\":4988:5081   */\n      tag_252\n      jump\t// in\n    tag_251:\n        /* \"#utility.yul\":5106:5108   */\n      0x20\n        /* \"#utility.yul\":5101:5104   */\n      dup3\n        /* \"#utility.yul\":5097:5109   */\n      add\n        /* \"#utility.yul\":5090:5109   */\n      swap1\n      pop\n        /* \"#utility.yul\":4749:5115   */\n      swap2\n      swap1\n      pop\n      jump\t// out\n        /* \"#utility.yul\":5121:5239   */\n    tag_253:\n        /* \"#utility.yul\":5208:5232   */\n      tag_255\n        /* \"#utility.yul\":5226:5231   */\n      dup2\n        /* \"#utility.yul\":5208:5232   */\n      tag_256\n      jump\t// in\n    tag_255:\n        /* \"#utility.yul\":5203:5206   */\n      dup3\n        /* \"#utility.yul\":5196:5233   */\n      mstore\n        /* \"#utility.yul\":5121:5239   */\n      pop\n      pop\n      jump\t// out\n        /* \"#utility.yul\":5245:5467   */\n    tag_92:\n        /* \"#utility.yul\":5338:5342   */\n      0x00\n        /* \"#utility.yul\":5376:5378   */\n      0x20\n        /* \"#utility.yul\":5365:5374   */\n      dup3\n        /* \"#utility.yul\":5361:5379   */\n      add\n        /* \"#utility.yul\":5353:5379   */\n      swap1\n      pop\n        /* \"#utility.yul\":5389:5460   */\n      tag_258\n        /* \"#utility.yul\":5457:5458   */\n      0x00\n        /* \"#utility.yul\":5446:5455   */\n      dup4\n        /* \"#utility.yul\":5442:5459   */\n      add\n        /* \"#utility.yul\":5433:5439   */\n      dup5\n        /* \"#utility.yul\":5389:5460   */\n      tag_211\n      jump\t// in\n    tag_258:\n        /* \"#utility.yul\":5245:5467   */\n      swap3\n      swap2\n      pop\n      pop\n      jump\t// out\n        /* \"#utility.yul\":5473:5707   */\n    tag_80:\n        /* \"#utility.yul\":5572:5576   */\n      0x00\n        /* \"#utility.yul\":5610:5612   */\n      0x20\n        /* \"#utility.yul\":5599:5608   */\n      dup3\n        /* \"#utility.yul\":5595:5613   */\n      add\n        /* \"#utility.yul\":5587:5613   */\n      swap1\n      pop\n        /* \"#utility.yul\":5623:5700   */\n      tag_260\n        /* \"#utility.yul\":5697:5698   */\n      0x00\n        /* \"#utility.yul\":5686:5695   */\n      dup4\n        /* \"#utility.yul\":5682:5699   */\n      add\n        /* \"#utility.yul\":5673:5679   */\n      dup5\n        /* \"#utility.yul\":5623:5700   */\n      tag_219\n      jump\t// in\n    tag_260:\n        /* \"#utility.yul\":5473:5707   */\n      swap3\n      swap2\n      pop\n      pop\n      jump\t// out\n        /* \"#utility.yul\":5713:6488   */\n    tag_64:\n        /* \"#utility.yul\":5948:5952   */\n      0x00\n        /* \"#utility.yul\":5986:5989   */\n      0xa0\n        /* \"#utility.yul\":5975:5984   */\n      dup3\n        /* \"#utility.yul\":5971:5990   */\n      add\n        /* \"#utility.yul\":5963:5990   */\n      swap1\n      pop\n        /* \"#utility.yul\":6036:6045   */\n      dup2\n        /* \"#utility.yul\":6030:6034   */\n      dup2\n        /* \"#utility.yul\":6026:6046   */\n      sub\n        /* \"#utility.yul\":6022:6023   */\n      0x00\n        /* \"#utility.yul\":6011:6020   */\n      dup4\n        /* \"#utility.yul\":6007:6024   */\n      add\n        /* \"#utility.yul\":6000:6047   */\n      mstore\n        /* \"#utility.yul\":6064:6142   */\n      tag_262\n        /* \"#utility.yul\":6137:6141   */\n      dup2\n        /* \"#utility.yul\":6128:6134   */\n      dup9\n        /* \"#utility.yul\":6064:6142   */\n      tag_223\n      jump\t// in\n    tag_262:\n        /* \"#utility.yul\":6056:6142   */\n      swap1\n      pop\n        /* \"#utility.yul\":6152:6240   */\n      tag_263\n        /* \"#utility.yul\":6236:6238   */\n      0x20\n        /* \"#utility.yul\":6225:6234   */\n      dup4\n        /* \"#utility.yul\":6221:6239   */\n      add\n        /* \"#utility.yul\":6212:6218   */\n      dup8\n        /* \"#utility.yul\":6152:6240   */\n      tag_207\n      jump\t// in\n    tag_263:\n        /* \"#utility.yul\":6250:6322   */\n      tag_264\n        /* \"#utility.yul\":6318:6320   */\n      0x40\n        /* \"#utility.yul\":6307:6316   */\n      dup4\n        /* \"#utility.yul\":6303:6321   */\n      add\n        /* \"#utility.yul\":6294:6300   */\n      dup7\n        /* \"#utility.yul\":6250:6322   */\n      tag_253\n      jump\t// in\n    tag_264:\n        /* \"#utility.yul\":6332:6398   */\n      tag_265\n        /* \"#utility.yul\":6394:6396   */\n      0x60\n        /* \"#utility.yul\":6383:6392   */\n      dup4\n        /* \"#utility.yul\":6379:6397   */\n      add\n        /* \"#utility.yul\":6370:6376   */\n      dup6\n        /* \"#utility.yul\":6332:6398   */\n      tag_215\n      jump\t// in\n    tag_265:\n        /* \"#utility.yul\":6408:6481   */\n      tag_266\n        /* \"#utility.yul\":6476:6479   */\n      0x80\n        /* \"#utility.yul\":6465:6474   */\n      dup4\n        /* \"#utility.yul\":6461:6480   */\n      add\n        /* \"#utility.yul\":6452:6458   */\n      dup5\n        /* \"#utility.yul\":6408:6481   */\n      tag_253\n      jump\t// in\n    tag_266:\n        /* \"#utility.yul\":5713:6488   */\n      swap7\n      swap6\n      pop\n      pop\n      pop\n      pop\n      pop\n      pop\n      jump\t// out\n        /* \"#utility.yul\":6494:6913   */\n    tag_108:\n        /* \"#utility.yul\":6660:6664   */\n      0x00\n        /* \"#utility.yul\":6698:6700   */\n      0x20\n        /* \"#utility.yul\":6687:6696   */\n      dup3\n        /* \"#utility.yul\":6683:6701   */\n      add\n        /* \"#utility.yul\":6675:6701   */\n      swap1\n      pop\n        /* \"#utility.yul\":6747:6756   */\n      dup2\n        /* \"#utility.yul\":6741:6745   */\n      dup2\n        /* \"#utility.yul\":6737:6757   */\n      sub\n        /* \"#utility.yul\":6733:6734   */\n      0x00\n        /* \"#utility.yul\":6722:6731   */\n      dup4\n        /* \"#utility.yul\":6718:6735   */\n      add\n        /* \"#utility.yul\":6711:6758   */\n      mstore\n        /* \"#utility.yul\":6775:6906   */\n      tag_268\n        /* \"#utility.yul\":6901:6905   */\n      dup2\n        /* \"#utility.yul\":6775:6906   */\n      tag_233\n      jump\t// in\n    tag_268:\n        /* \"#utility.yul\":6767:6906   */\n      swap1\n      pop\n        /* \"#utility.yul\":6494:6913   */\n      swap2\n      swap1\n      pop\n      jump\t// out\n        /* \"#utility.yul\":6919:7338   */\n    tag_119:\n        /* \"#utility.yul\":7085:7089   */\n      0x00\n        /* \"#utility.yul\":7123:7125   */\n      0x20\n        /* \"#utility.yul\":7112:7121   */\n      dup3\n        /* \"#utility.yul\":7108:7126   */\n      add\n        /* \"#utility.yul\":7100:7126   */\n      swap1\n      pop\n        /* \"#utility.yul\":7172:7181   */\n      dup2\n        /* \"#utility.yul\":7166:7170   */\n      dup2\n        /* \"#utility.yul\":7162:7182   */\n      sub\n        /* \"#utility.yul\":7158:7159   */\n      0x00\n        /* \"#utility.yul\":7147:7156   */\n      dup4\n        /* \"#utility.yul\":7143:7160   */\n      add\n        /* \"#utility.yul\":7136:7183   */\n      mstore\n        /* \"#utility.yul\":7200:7331   */\n      tag_270\n        /* \"#utility.yul\":7326:7330   */\n      dup2\n        /* \"#utility.yul\":7200:7331   */\n      tag_238\n      jump\t// in\n    tag_270:\n        /* \"#utility.yul\":7192:7331   */\n      swap1\n      pop\n        /* \"#utility.yul\":6919:7338   */\n      swap2\n      swap1\n      pop\n      jump\t// out\n        /* \"#utility.yul\":7344:7763   */\n    tag_104:\n        /* \"#utility.yul\":7510:7514   */\n      0x00\n        /* \"#utility.yul\":7548:7550   */\n      0x20\n        /* \"#utility.yul\":7537:7546   */\n      dup3\n        /* \"#utility.yul\":7533:7551   */\n      add\n        /* \"#utility.yul\":7525:7551   */\n      swap1\n      pop\n        /* \"#utility.yul\":7597:7606   */\n      dup2\n        /* \"#utility.yul\":7591:7595   */\n      dup2\n        /* \"#utility.yul\":7587:7607   */\n      sub\n        /* \"#utility.yul\":7583:7584   */\n      0x00\n        /* \"#utility.yul\":7572:7581   */\n      dup4\n        /* \"#utility.yul\":7568:7585   */\n      add\n        /* \"#utility.yul\":7561:7608   */\n      mstore\n        /* \"#utility.yul\":7625:7756   */\n      tag_272\n        /* \"#utility.yul\":7751:7755   */\n      dup2\n        /* \"#utility.yul\":7625:7756   */\n      tag_243\n      jump\t// in\n    tag_272:\n        /* \"#utility.yul\":7617:7756   */\n      swap1\n      pop\n        /* \"#utility.yul\":7344:7763   */\n      swap2\n      swap1\n      pop\n      jump\t// out\n        /* \"#utility.yul\":7769:8188   */\n    tag_101:\n        /* \"#utility.yul\":7935:7939   */\n      0x00\n        /* \"#utility.yul\":7973:7975   */\n      0x20\n        /* \"#utility.yul\":7962:7971   */\n      dup3\n        /* \"#utility.yul\":7958:7976   */\n      add\n        /* \"#utility.yul\":7950:7976   */\n      swap1\n      pop\n        /* \"#utility.yul\":8022:8031   */\n      dup2\n        /* \"#utility.yul\":8016:8020   */\n      dup2\n        /* \"#utility.yul\":8012:8032   */\n      sub\n        /* \"#utility.yul\":8008:8009   */\n      0x00\n        /* \"#utility.yul\":7997:8006   */\n      dup4\n        /* \"#utility.yul\":7993:8010   */\n      add\n        /* \"#utility.yul\":7986:8033   */\n      mstore\n        /* \"#utility.yul\":8050:8181   */\n      tag_274\n        /* \"#utility.yul\":8176:8180   */\n      dup2\n        /* \"#utility.yul\":8050:8181   */\n      tag_248\n      jump\t// in\n    tag_274:\n        /* \"#utility.yul\":8042:8181   */\n      swap1\n      pop\n        /* \"#utility.yul\":7769:8188   */\n      swap2\n      swap1\n      pop\n      jump\t// out\n        /* \"#utility.yul\":8194:8416   */\n    tag_30:\n        /* \"#utility.yul\":8287:8291   */\n      0x00\n        /* \"#utility.yul\":8325:8327   */\n      0x20\n        /* \"#utility.yul\":8314:8323   */\n      dup3\n        /* \"#utility.yul\":8310:8328   */\n      add\n        /* \"#utility.yul\":8302:8328   */\n      swap1\n      pop\n        /* \"#utility.yul\":8338:8409   */\n      tag_276\n        /* \"#utility.yul\":8406:8407   */\n      0x00\n        /* \"#utility.yul\":8395:8404   */\n      dup4\n        /* \"#utility.yul\":8391:8408   */\n      add\n        /* \"#utility.yul\":8382:8388   */\n      dup5\n        /* \"#utility.yul\":8338:8409   */\n      tag_253\n      jump\t// in\n    tag_276:\n        /* \"#utility.yul\":8194:8416   */\n      swap3\n      swap2\n      pop\n      pop\n      jump\t// out\n        /* \"#utility.yul\":8422:8551   */\n    tag_165:\n        /* \"#utility.yul\":8456:8462   */\n      0x00\n        /* \"#utility.yul\":8483:8503   */\n      tag_278\n      tag_279\n      jump\t// in\n    tag_278:\n        /* \"#utility.yul\":8473:8503   */\n      swap1\n      pop\n        /* \"#utility.yul\":8512:8545   */\n      tag_280\n        /* \"#utility.yul\":8540:8544   */\n      dup3\n        /* \"#utility.yul\":8532:8538   */\n      dup3\n        /* \"#utility.yul\":8512:8545   */\n      tag_281\n      jump\t// in\n    tag_280:\n        /* \"#utility.yul\":8422:8551   */\n      swap2\n      swap1\n      pop\n      jump\t// out\n        /* \"#utility.yul\":8557:8632   */\n    tag_279:\n        /* \"#utility.yul\":8590:8596   */\n      0x00\n        /* \"#utility.yul\":8623:8625   */\n      0x40\n        /* \"#utility.yul\":8617:8626   */\n      mload\n        /* \"#utility.yul\":8607:8626   */\n      swap1\n      pop\n        /* \"#utility.yul\":8557:8632   */\n      swap1\n      jump\t// out\n        /* \"#utility.yul\":8638:8946   */\n    tag_164:\n        /* \"#utility.yul\":8700:8704   */\n      0x00\n        /* \"#utility.yul\":8790:8808   */\n      0xffffffffffffffff\n        /* \"#utility.yul\":8782:8788   */\n      dup3\n        /* \"#utility.yul\":8779:8809   */\n      gt\n        /* \"#utility.yul\":8776:8832   */\n      iszero\n      tag_284\n      jumpi\n        /* \"#utility.yul\":8812:8830   */\n      tag_285\n      tag_286\n      jump\t// in\n    tag_285:\n        /* \"#utility.yul\":8776:8832   */\n    tag_284:\n        /* \"#utility.yul\":8850:8879   */\n      tag_287\n        /* \"#utility.yul\":8872:8878   */\n      dup3\n        /* \"#utility.yul\":8850:8879   */\n      tag_232\n      jump\t// in\n    tag_287:\n        /* \"#utility.yul\":8842:8879   */\n      swap1\n      pop\n        /* \"#utility.yul\":8934:8938   */\n      0x20\n        /* \"#utility.yul\":8928:8932   */\n      dup2\n        /* \"#utility.yul\":8924:8939   */\n      add\n        /* \"#utility.yul\":8916:8939   */\n      swap1\n      pop\n        /* \"#utility.yul\":8638:8946   */\n      swap2\n      swap1\n      pop\n      jump\t// out\n        /* \"#utility.yul\":8952:9051   */\n    tag_226:\n        /* \"#utility.yul\":9004:9010   */\n      0x00\n        /* \"#utility.yul\":9038:9043   */\n      dup2\n        /* \"#utility.yul\":9032:9044   */\n      mload\n        /* \"#utility.yul\":9022:9044   */\n      swap1\n      pop\n        /* \"#utility.yul\":8952:9051   */\n      swap2\n      swap1\n      pop\n      jump\t// out\n        /* \"#utility.yul\":9057:9226   */\n    tag_228:\n        /* \"#utility.yul\":9141:9152   */\n      0x00\n        /* \"#utility.yul\":9175:9181   */\n      dup3\n        /* \"#utility.yul\":9170:9173   */\n      dup3\n        /* \"#utility.yul\":9163:9182   */\n      mstore\n        /* \"#utility.yul\":9215:9219   */\n      0x20\n        /* \"#utility.yul\":9210:9213   */\n      dup3\n        /* \"#utility.yul\":9206:9220   */\n      add\n        /* \"#utility.yul\":9191:9220   */\n      swap1\n      pop\n        /* \"#utility.yul\":9057:9226   */\n      swap3\n      swap2\n      pop\n      pop\n      jump\t// out\n        /* \"#utility.yul\":9232:9537   */\n    tag_113:\n        /* \"#utility.yul\":9272:9275   */\n      0x00\n        /* \"#utility.yul\":9291:9311   */\n      tag_291\n        /* \"#utility.yul\":9309:9310   */\n      dup3\n        /* \"#utility.yul\":9291:9311   */\n      tag_256\n      jump\t// in\n    tag_291:\n        /* \"#utility.yul\":9286:9311   */\n      swap2\n      pop\n        /* \"#utility.yul\":9325:9345   */\n      tag_292\n        /* \"#utility.yul\":9343:9344   */\n      dup4\n        /* \"#utility.yul\":9325:9345   */\n      tag_256\n      jump\t// in\n    tag_292:\n        /* \"#utility.yul\":9320:9345   */\n      swap3\n      pop\n        /* \"#utility.yul\":9479:9480   */\n      dup3\n        /* \"#utility.yul\":9411:9477   */\n      0xffffffffffffffffffffffffffffffffffffffffffffffffffffffffffffffff\n        /* \"#utility.yul\":9407:9481   */\n      sub\n        /* \"#utility.yul\":9404:9405   */\n      dup3\n        /* \"#utility.yul\":9401:9482   */\n      gt\n        /* \"#utility.yul\":9398:9505   */\n      iszero\n      tag_293\n      jumpi\n        /* \"#utility.yul\":9485:9503   */\n      tag_294\n      tag_295\n      jump\t// in\n    tag_294:\n        /* \"#utility.yul\":9398:9505   */\n    tag_293:\n        /* \"#utility.yul\":9529:9530   */\n      dup3\n        /* \"#utility.yul\":9526:9527   */\n      dup3\n        /* \"#utility.yul\":9522:9531   */\n      add\n        /* \"#utility.yul\":9515:9531   */\n      swap1\n      pop\n        /* \"#utility.yul\":9232:9537   */\n      swap3\n      swap2\n      pop\n      pop\n      jump\t// out\n        /* \"#utility.yul\":9543:9639   */\n    tag_214:\n        /* \"#utility.yul\":9580:9587   */\n      0x00\n        /* \"#utility.yul\":9609:9633   */\n      tag_297\n        /* \"#utility.yul\":9627:9632   */\n      dup3\n        /* \"#utility.yul\":9609:9633   */\n      tag_298\n      jump\t// in\n    tag_297:\n        /* \"#utility.yul\":9598:9633   */\n      swap1\n      pop\n        /* \"#utility.yul\":9543:9639   */\n      swap2\n      swap1\n      pop\n      jump\t// out\n        /* \"#utility.yul\":9645:9749   */\n    tag_210:\n        /* \"#utility.yul\":9690:9697   */\n      0x00\n        /* \"#utility.yul\":9719:9743   */\n      tag_300\n        /* \"#utility.yul\":9737:9742   */\n      dup3\n        /* \"#utility.yul\":9719:9743   */\n      tag_298\n      jump\t// in\n    tag_300:\n        /* \"#utility.yul\":9708:9743   */\n      swap1\n      pop\n        /* \"#utility.yul\":9645:9749   */\n      swap2\n      swap1\n      pop\n      jump\t// out\n        /* \"#utility.yul\":9755:9845   */\n    tag_218:\n        /* \"#utility.yul\":9789:9796   */\n      0x00\n        /* \"#utility.yul\":9832:9837   */\n      dup2\n        /* \"#utility.yul\":9825:9838   */\n      iszero\n        /* \"#utility.yul\":9818:9839   */\n      iszero\n        /* \"#utility.yul\":9807:9839   */\n      swap1\n      pop\n        /* \"#utility.yul\":9755:9845   */\n      swap2\n      swap1\n      pop\n      jump\t// out\n        /* \"#utility.yul\":9851:9978   */\n    tag_302:\n        /* \"#utility.yul\":9896:9903   */\n      0x00\n        /* \"#utility.yul\":9925:9930   */\n      dup2\n        /* \"#utility.yul\":9914:9930   */\n      swap1\n      pop\n        /* \"#utility.yul\":9931:9972   */\n      tag_304\n        /* \"#utility.yul\":9966:9971   */\n      dup3\n        /* \"#utility.yul\":9931:9972   */\n      tag_305\n      jump\t// in\n    tag_304:\n        /* \"#utility.yul\":9851:9978   */\n      swap2\n      swap1\n      pop\n      jump\t// out\n        /* \"#utility.yul\":9984:10110   */\n    tag_298:\n        /* \"#utility.yul\":10021:10028   */\n      0x00\n        /* \"#utility.yul\":10061:10103   */\n      0xffffffffffffffffffffffffffffffffffffffff\n        /* \"#utility.yul\":10054:10059   */\n      dup3\n        /* \"#utility.yul\":10050:10104   */\n      and\n        /* \"#utility.yul\":10039:10104   */\n      swap1\n      pop\n        /* \"#utility.yul\":9984:10110   */\n      swap2\n      swap1\n      pop\n      jump\t// out\n        /* \"#utility.yul\":10116:10193   */\n    tag_256:\n        /* \"#utility.yul\":10153:10160   */\n      0x00\n        /* \"#utility.yul\":10182:10187   */\n      dup2\n        /* \"#utility.yul\":10171:10187   */\n      swap1\n      pop\n        /* \"#utility.yul\":10116:10193   */\n      swap2\n      swap1\n      pop\n      jump\t// out\n        /* \"#utility.yul\":10199:10326   */\n    tag_222:\n        /* \"#utility.yul\":10255:10264   */\n      0x00\n        /* \"#utility.yul\":10288:10320   */\n      tag_309\n        /* \"#utility.yul\":10314:10319   */\n      dup3\n        /* \"#utility.yul\":10288:10320   */\n      tag_302\n      jump\t// in\n    tag_309:\n        /* \"#utility.yul\":10275:10320   */\n      swap1\n      pop\n        /* \"#utility.yul\":10199:10326   */\n      swap2\n      swap1\n      pop\n      jump\t// out\n        /* \"#utility.yul\":10332:10486   */\n    tag_170:\n        /* \"#utility.yul\":10416:10422   */\n      dup3\n        /* \"#utility.yul\":10411:10414   */\n      dup2\n        /* \"#utility.yul\":10406:10409   */\n      dup4\n        /* \"#utility.yul\":10393:10423   */\n      calldatacopy\n        /* \"#utility.yul\":10478:10479   */\n      0x00\n        /* \"#utility.yul\":10469:10475   */\n      dup4\n        /* \"#utility.yul\":10464:10467   */\n      dup4\n        /* \"#utility.yul\":10460:10476   */\n      add\n        /* \"#utility.yul\":10453:10480   */\n      mstore\n        /* \"#utility.yul\":10332:10486   */\n      pop\n      pop\n      pop\n      jump\t// out\n        /* \"#utility.yul\":10492:10799   */\n    tag_230:\n        /* \"#utility.yul\":10560:10561   */\n      0x00\n        /* \"#utility.yul\":10570:10683   */\n    tag_312:\n        /* \"#utility.yul\":10584:10590   */\n      dup4\n        /* \"#utility.yul\":10581:10582   */\n      dup2\n        /* \"#utility.yul\":10578:10591   */\n      lt\n        /* \"#utility.yul\":10570:10683   */\n      iszero\n      tag_314\n      jumpi\n        /* \"#utility.yul\":10669:10670   */\n      dup1\n        /* \"#utility.yul\":10664:10667   */\n      dup3\n        /* \"#utility.yul\":10660:10671   */\n      add\n        /* \"#utility.yul\":10654:10672   */\n      mload\n        /* \"#utility.yul\":10650:10651   */\n      dup2\n        /* \"#utility.yul\":10645:10648   */\n      dup5\n        /* \"#utility.yul\":10641:10652   */\n      add\n        /* \"#utility.yul\":10634:10673   */\n      mstore\n        /* \"#utility.yul\":10606:10608   */\n      0x20\n        /* \"#utility.yul\":10603:10604   */\n      dup2\n        /* \"#utility.yul\":10599:10609   */\n      add\n        /* \"#utility.yul\":10594:10609   */\n      swap1\n      pop\n        /* \"#utility.yul\":10570:10683   */\n      jump(tag_312)\n    tag_314:\n        /* \"#utility.yul\":10701:10707   */\n      dup4\n        /* \"#utility.yul\":10698:10699   */\n      dup2\n        /* \"#utility.yul\":10695:10708   */\n      gt\n        /* \"#utility.yul\":10692:10793   */\n      iszero\n      tag_315\n      jumpi\n        /* \"#utility.yul\":10781:10782   */\n      0x00\n        /* \"#utility.yul\":10772:10778   */\n      dup5\n        /* \"#utility.yul\":10767:10770   */\n      dup5\n        /* \"#utility.yul\":10763:10779   */\n      add\n        /* \"#utility.yul\":10756:10783   */\n      mstore\n        /* \"#utility.yul\":10692:10793   */\n    tag_315:\n        /* \"#utility.yul\":10541:10799   */\n      pop\n        /* \"#utility.yul\":10492:10799   */\n      pop\n      pop\n      pop\n      jump\t// out\n        /* \"#utility.yul\":10805:11125   */\n    tag_127:\n        /* \"#utility.yul\":10849:10855   */\n      0x00\n        /* \"#utility.yul\":10886:10887   */\n      0x02\n        /* \"#utility.yul\":10880:10884   */\n      dup3\n        /* \"#utility.yul\":10876:10888   */\n      div\n        /* \"#utility.yul\":10866:10888   */\n      swap1\n      pop\n        /* \"#utility.yul\":10933:10934   */\n      0x01\n        /* \"#utility.yul\":10927:10931   */\n      dup3\n        /* \"#utility.yul\":10923:10935   */\n      and\n        /* \"#utility.yul\":10954:10972   */\n      dup1\n        /* \"#utility.yul\":10944:11025   */\n      tag_317\n      jumpi\n        /* \"#utility.yul\":11010:11014   */\n      0x7f\n        /* \"#utility.yul\":11002:11008   */\n      dup3\n        /* \"#utility.yul\":10998:11015   */\n      and\n        /* \"#utility.yul\":10988:11015   */\n      swap2\n      pop\n        /* \"#utility.yul\":10944:11025   */\n    tag_317:\n        /* \"#utility.yul\":11072:11074   */\n      0x20\n        /* \"#utility.yul\":11064:11070   */\n      dup3\n        /* \"#utility.yul\":11061:11075   */\n      lt\n        /* \"#utility.yul\":11041:11059   */\n      dup2\n        /* \"#utility.yul\":11038:11076   */\n      eq\n        /* \"#utility.yul\":11035:11119   */\n      iszero\n      tag_318\n      jumpi\n        /* \"#utility.yul\":11091:11109   */\n      tag_319\n      tag_320\n      jump\t// in\n    tag_319:\n        /* \"#utility.yul\":11035:11119   */\n    tag_318:\n        /* \"#utility.yul\":10856:11125   */\n      pop\n        /* \"#utility.yul\":10805:11125   */\n      swap2\n      swap1\n      pop\n      jump\t// out\n        /* \"#utility.yul\":11131:11412   */\n    tag_281:\n        /* \"#utility.yul\":11214:11241   */\n      tag_322\n        /* \"#utility.yul\":11236:11240   */\n      dup3\n        /* \"#utility.yul\":11214:11241   */\n      tag_232\n      jump\t// in\n    tag_322:\n        /* \"#utility.yul\":11206:11212   */\n      dup2\n        /* \"#utility.yul\":11202:11242   */\n      add\n        /* \"#utility.yul\":11344:11350   */\n      dup2\n        /* \"#utility.yul\":11332:11342   */\n      dup2\n        /* \"#utility.yul\":11329:11351   */\n      lt\n        /* \"#utility.yul\":11308:11326   */\n      0xffffffffffffffff\n        /* \"#utility.yul\":11296:11306   */\n      dup3\n        /* \"#utility.yul\":11293:11327   */\n      gt\n        /* \"#utility.yul\":11290:11352   */\n      or\n        /* \"#utility.yul\":11287:11375   */\n      iszero\n      tag_323\n      jumpi\n        /* \"#utility.yul\":11355:11373   */\n      tag_324\n      tag_286\n      jump\t// in\n    tag_324:\n        /* \"#utility.yul\":11287:11375   */\n    tag_323:\n        /* \"#utility.yul\":11395:11405   */\n      dup1\n        /* \"#utility.yul\":11391:11393   */\n      0x40\n        /* \"#utility.yul\":11384:11406   */\n      mstore\n        /* \"#utility.yul\":11174:11412   */\n      pop\n        /* \"#utility.yul\":11131:11412   */\n      pop\n      pop\n      jump\t// out\n        /* \"#utility.yul\":11418:11651   */\n    tag_111:\n        /* \"#utility.yul\":11457:11460   */\n      0x00\n        /* \"#utility.yul\":11480:11504   */\n      tag_326\n        /* \"#utility.yul\":11498:11503   */\n      dup3\n        /* \"#utility.yul\":11480:11504   */\n      tag_256\n      jump\t// in\n    tag_326:\n        /* \"#utility.yul\":11471:11504   */\n      swap2\n      pop\n        /* \"#utility.yul\":11526:11592   */\n      0xffffffffffffffffffffffffffffffffffffffffffffffffffffffffffffffff\n        /* \"#utility.yul\":11519:11524   */\n      dup3\n        /* \"#utility.yul\":11516:11593   */\n      eq\n        /* \"#utility.yul\":11513:11616   */\n      iszero\n      tag_327\n      jumpi\n        /* \"#utility.yul\":11596:11614   */\n      tag_328\n      tag_295\n      jump\t// in\n    tag_328:\n        /* \"#utility.yul\":11513:11616   */\n    tag_327:\n        /* \"#utility.yul\":11643:11644   */\n      0x01\n        /* \"#utility.yul\":11636:11641   */\n      dup3\n        /* \"#utility.yul\":11632:11645   */\n      add\n        /* \"#utility.yul\":11625:11645   */\n      swap1\n      pop\n        /* \"#utility.yul\":11418:11651   */\n      swap2\n      swap1\n      pop\n      jump\t// out\n        /* \"#utility.yul\":11657:11837   */\n    tag_295:\n        /* \"#utility.yul\":11705:11782   */\n      0x4e487b7100000000000000000000000000000000000000000000000000000000\n        /* \"#utility.yul\":11702:11703   */\n      0x00\n        /* \"#utility.yul\":11695:11783   */\n      mstore\n        /* \"#utility.yul\":11802:11806   */\n      0x11\n        /* \"#utility.yul\":11799:11800   */\n      0x04\n        /* \"#utility.yul\":11792:11807   */\n      mstore\n        /* \"#utility.yul\":11826:11830   */\n      0x24\n        /* \"#utility.yul\":11823:11824   */\n      0x00\n        /* \"#utility.yul\":11816:11831   */\n      revert\n        /* \"#utility.yul\":11843:12023   */\n    tag_96:\n        /* \"#utility.yul\":11891:11968   */\n      0x4e487b7100000000000000000000000000000000000000000000000000000000\n        /* \"#utility.yul\":11888:11889   */\n      0x00\n        /* \"#utility.yul\":11881:11969   */\n      mstore\n        /* \"#utility.yul\":11988:11992   */\n      0x21\n        /* \"#utility.yul\":11985:11986   */\n      0x04\n        /* \"#utility.yul\":11978:11993   */\n      mstore\n        /* \"#utility.yul\":12012:12016   */\n      0x24\n        /* \"#utility.yul\":12009:12010   */\n      0x00\n        /* \"#utility.yul\":12002:12017   */\n      revert\n        /* \"#utility.yul\":12029:12209   */\n    tag_320:\n        /* \"#utility.yul\":12077:12154   */\n      0x4e487b7100000000000000000000000000000000000000000000000000000000\n        /* \"#utility.yul\":12074:12075   */\n      0x00\n        /* \"#utility.yul\":12067:12155   */\n      mstore\n        /* \"#utility.yul\":12174:12178   */\n      0x22\n        /* \"#utility.yul\":12171:12172   */\n      0x04\n        /* \"#utility.yul\":12164:12179   */\n      mstore\n        /* \"#utility.yul\":12198:12202   */\n      0x24\n        /* \"#utility.yul\":12195:12196   */\n      0x00\n        /* \"#utility.yul\":12188:12203   */\n      revert\n        /* \"#utility.yul\":12215:12395   */\n    tag_286:\n        /* \"#utility.yul\":12263:12340   */\n      0x4e487b7100000000000000000000000000000000000000000000000000000000\n        /* \"#utility.yul\":12260:12261   */\n      0x00\n        /* \"#utility.yul\":12253:12341   */\n      mstore\n        /* \"#utility.yul\":12360:12364   */\n      0x41\n        /* \"#utility.yul\":12357:12358   */\n      0x04\n        /* \"#utility.yul\":12350:12365   */\n      mstore\n        /* \"#utility.yul\":12384:12388   */\n      0x24\n        /* \"#utility.yul\":12381:12382   */\n      0x00\n        /* \"#utility.yul\":12374:12389   */\n      revert\n        /* \"#utility.yul\":12401:12518   */\n    tag_183:\n        /* \"#utility.yul\":12510:12511   */\n      0x00\n        /* \"#utility.yul\":12507:12508   */\n      dup1\n        /* \"#utility.yul\":12500:12512   */\n      revert\n        /* \"#utility.yul\":12524:12641   */\n    tag_168:\n        /* \"#utility.yul\":12633:12634   */\n      0x00\n        /* \"#utility.yul\":12630:12631   */\n      dup1\n        /* \"#utility.yul\":12623:12635   */\n      revert\n        /* \"#utility.yul\":12647:12764   */\n    tag_199:\n        /* \"#utility.yul\":12756:12757   */\n      0x00\n        /* \"#utility.yul\":12753:12754   */\n      dup1\n        /* \"#utility.yul\":12746:12758   */\n      revert\n        /* \"#utility.yul\":12770:12887   */\n    tag_192:\n        /* \"#utility.yul\":12879:12880   */\n      0x00\n        /* \"#utility.yul\":12876:12877   */\n      dup1\n        /* \"#utility.yul\":12869:12881   */\n      revert\n        /* \"#utility.yul\":12893:12995   */\n    tag_232:\n        /* \"#utility.yul\":12934:12940   */\n      0x00\n        /* \"#utility.yul\":12985:12987   */\n      0x1f\n        /* \"#utility.yul\":12981:12988   */\n      not\n        /* \"#utility.yul\":12976:12978   */\n      0x1f\n        /* \"#utility.yul\":12969:12974   */\n      dup4\n        /* \"#utility.yul\":12965:12979   */\n      add\n        /* \"#utility.yul\":12961:12989   */\n      and\n        /* \"#utility.yul\":12951:12989   */\n      swap1\n      pop\n        /* \"#utility.yul\":12893:12995   */\n      swap2\n      swap1\n      pop\n      jump\t// out\n        /* \"#utility.yul\":13001:13179   */\n    tag_237:\n        /* \"#utility.yul\":13141:13171   */\n      0x6469646e74207265616368206d696e20636f6e747269627574696f6e00000000\n        /* \"#utility.yul\":13137:13138   */\n      0x00\n        /* \"#utility.yul\":13129:13135   */\n      dup3\n        /* \"#utility.yul\":13125:13139   */\n      add\n        /* \"#utility.yul\":13118:13172   */\n      mstore\n        /* \"#utility.yul\":13001:13179   */\n      pop\n      jump\t// out\n        /* \"#utility.yul\":13185:13365   */\n    tag_242:\n        /* \"#utility.yul\":13325:13357   */\n      0x6d6573736167652073656e646572206973206e6f7420616e2061646d696e0000\n        /* \"#utility.yul\":13321:13322   */\n      0x00\n        /* \"#utility.yul\":13313:13319   */\n      dup3\n        /* \"#utility.yul\":13309:13323   */\n      add\n        /* \"#utility.yul\":13302:13358   */\n      mstore\n        /* \"#utility.yul\":13185:13365   */\n      pop\n      jump\t// out\n        /* \"#utility.yul\":13371:13536   */\n    tag_247:\n        /* \"#utility.yul\":13511:13528   */\n      0x646561646c696e65207061737365640000000000000000000000000000000000\n        /* \"#utility.yul\":13507:13508   */\n      0x00\n        /* \"#utility.yul\":13499:13505   */\n      dup3\n        /* \"#utility.yul\":13495:13509   */\n      add\n        /* \"#utility.yul\":13488:13529   */\n      mstore\n        /* \"#utility.yul\":13371:13536   */\n      pop\n      jump\t// out\n        /* \"#utility.yul\":13542:13719   */\n    tag_252:\n        /* \"#utility.yul\":13682:13711   */\n      0x43726f776446756e64696e67206973206e6f742072756e6e696e670000000000\n        /* \"#utility.yul\":13678:13679   */\n      0x00\n        /* \"#utility.yul\":13670:13676   */\n      dup3\n        /* \"#utility.yul\":13666:13680   */\n      add\n        /* \"#utility.yul\":13659:13712   */\n      mstore\n        /* \"#utility.yul\":13542:13719   */\n      pop\n      jump\t// out\n        /* \"#utility.yul\":13725:13838   */\n    tag_305:\n        /* \"#utility.yul\":13806:13807   */\n      0x05\n        /* \"#utility.yul\":13799:13804   */\n      dup2\n        /* \"#utility.yul\":13796:13808   */\n      lt\n        /* \"#utility.yul\":13786:13832   */\n      tag_343\n      jumpi\n        /* \"#utility.yul\":13812:13830   */\n      tag_344\n      tag_96\n      jump\t// in\n    tag_344:\n        /* \"#utility.yul\":13786:13832   */\n    tag_343:\n        /* \"#utility.yul\":13725:13838   */\n      pop\n      jump\t// out\n        /* \"#utility.yul\":13844:13966   */\n    tag_174:\n        /* \"#utility.yul\":13917:13941   */\n      tag_346\n        /* \"#utility.yul\":13935:13940   */\n      dup2\n        /* \"#utility.yul\":13917:13941   */\n      tag_214\n      jump\t// in\n    tag_346:\n        /* \"#utility.yul\":13910:13915   */\n      dup2\n        /* \"#utility.yul\":13907:13942   */\n      eq\n        /* \"#utility.yul\":13897:13960   */\n      tag_347\n      jumpi\n        /* \"#utility.yul\":13956:13957   */\n      0x00\n        /* \"#utility.yul\":13953:13954   */\n      dup1\n        /* \"#utility.yul\":13946:13958   */\n      revert\n        /* \"#utility.yul\":13897:13960   */\n    tag_347:\n        /* \"#utility.yul\":13844:13966   */\n      pop\n      jump\t// out\n        /* \"#utility.yul\":13972:14110   */\n    tag_178:\n        /* \"#utility.yul\":14053:14085   */\n      tag_349\n        /* \"#utility.yul\":14079:14084   */\n      dup2\n        /* \"#utility.yul\":14053:14085   */\n      tag_210\n      jump\t// in\n    tag_349:\n        /* \"#utility.yul\":14046:14051   */\n      dup2\n        /* \"#utility.yul\":14043:14086   */\n      eq\n        /* \"#utility.yul\":14033:14104   */\n      tag_350\n      jumpi\n        /* \"#utility.yul\":14100:14101   */\n      0x00\n        /* \"#utility.yul\":14097:14098   */\n      dup1\n        /* \"#utility.yul\":14090:14102   */\n      revert\n        /* \"#utility.yul\":14033:14104   */\n    tag_350:\n        /* \"#utility.yul\":13972:14110   */\n      pop\n      jump\t// out\n        /* \"#utility.yul\":14116:14238   */\n    tag_188:\n        /* \"#utility.yul\":14189:14213   */\n      tag_352\n        /* \"#utility.yul\":14207:14212   */\n      dup2\n        /* \"#utility.yul\":14189:14213   */\n      tag_256\n      jump\t// in\n    tag_352:\n        /* \"#utility.yul\":14182:14187   */\n      dup2\n        /* \"#utility.yul\":14179:14214   */\n      eq\n        /* \"#utility.yul\":14169:14232   */\n      tag_353\n      jumpi\n        /* \"#utility.yul\":14228:14229   */\n      0x00\n        /* \"#utility.yul\":14225:14226   */\n      dup1\n        /* \"#utility.yul\":14218:14230   */\n      revert\n        /* \"#utility.yul\":14169:14232   */\n    tag_353:\n        /* \"#utility.yul\":14116:14238   */\n      pop\n      jump\t// out\n\n    auxdata: 0xa2646970667358221220eba70a4db7816b08bcfd6caaa4bb62ba55449e09e30b47ae0b8712629120ceb564736f6c63430008070033\n}\n",
				"bytecode": {
					"linkReferences": {},
					"object": "60806040523480156200001157600080fd5b50604051620015cb380380620015cb8339818101604052810190620000379190620000f0565b33600160006101000a81548173ffffffffffffffffffffffffffffffffffffffff021916908373ffffffffffffffffffffffffffffffffffffffff1602179055506000600960006101000a81548160ff02191690836004811115620000a157620000a0620001cd565b5b0217905550816005819055508042620000bb919062000137565b6004819055506064600381905550600060028190555050506200021b565b600081519050620000ea8162000201565b92915050565b600080604083850312156200010a5762000109620001fc565b5b60006200011a85828601620000d9565b92505060206200012d85828601620000d9565b9150509250929050565b6000620001448262000194565b9150620001518362000194565b9250827fffffffffffffffffffffffffffffffffffffffffffffffffffffffffffffffff038211156200018957620001886200019e565b5b828201905092915050565b6000819050919050565b7f4e487b7100000000000000000000000000000000000000000000000000000000600052601160045260246000fd5b7f4e487b7100000000000000000000000000000000000000000000000000000000600052602160045260246000fd5b600080fd5b6200020c8162000194565b81146200021857600080fd5b50565b6113a0806200022b6000396000f3fe6080604052600436106100f75760003560e01c80639fb42b1f1161008a578063c59ee1dc11610059578063c59ee1dc1461031f578063d5cef1331461034a578063d7bb99ba14610354578063f851a4401461035e57610106565b80639fb42b1f14610287578063a8b78ed0146102b2578063aaffadf3146102c9578063b25cdccf146102f457610106565b806340193883116100c657806340193883146101c95780634b5e7d70146101f45780634cb6f4a51461021d57806381d12c581461024657610106565b806312065fe01461010b5780631e206f15146101365780631f6d49421461016157806329dcb0cf1461019e57610106565b3661010657610104610389565b005b600080fd5b34801561011757600080fd5b50610120610559565b60405161012d9190610f3c565b60405180910390f35b34801561014257600080fd5b5061014b610561565b6040516101589190610f3c565b60405180910390f35b34801561016d57600080fd5b5061018860048036038101906101839190610c53565b610567565b6040516101959190610f3c565b60405180910390f35b3480156101aa57600080fd5b506101b361057f565b6040516101c09190610f3c565b60405180910390f35b3480156101d557600080fd5b506101de610585565b6040516101eb9190610f3c565b60405180910390f35b34801561020057600080fd5b5061021b60048036038101906102169190610c80565b61058b565b005b34801561022957600080fd5b50610244600480360381019061023f9190610cef565b6106de565b005b34801561025257600080fd5b5061026d60048036038101906102689190610cef565b610798565b60405161027e959493929190610e62565b60405180910390f35b34801561029357600080fd5b5061029c610883565b6040516102a99190610f3c565b60405180910390f35b3480156102be57600080fd5b506102c7610889565b005b3480156102d557600080fd5b506102de610946565b6040516102eb9190610f3c565b60405180910390f35b34801561030057600080fd5b5061030961094c565b6040516103169190610e47565b60405180910390f35b34801561032b57600080fd5b5061033461095f565b6040516103419190610f3c565b60405180910390f35b610352610965565b005b61035c610389565b005b34801561036a57600080fd5b50610373610adb565b6040516103809190610e2c565b60405180910390f35b6002600481111561039d5761039c6111bb565b5b600960009054906101000a900460ff1660048111156103bf576103be6111bb565b5b146103ff576040517f08c379a00000000000000000000000000000000000000000000000000000000081526004016103f690610f1c565b60405180910390fd5b600454421115610444576040517f08c379a000000000000000000000000000000000000000000000000000000000815260040161043b90610efc565b60405180910390fd5b600354341015610489576040517f08c379a000000000000000000000000000000000000000000000000000000000815260040161048090610ebc565b60405180910390fd5b60008060003373ffffffffffffffffffffffffffffffffffffffff1673ffffffffffffffffffffffffffffffffffffffff1681526020019081526020016000205414156104e957600260008154809291906104e390611143565b91905055505b346000803373ffffffffffffffffffffffffffffffffffffffff1673ffffffffffffffffffffffffffffffffffffffff16815260200190815260200160002060008282546105379190610fc9565b9250508190555034600660008282546105509190610fc9565b92505081905550565b600047905090565b60025481565b60006020528060005260406000206000915090505481565b60045481565b60055481565b600160009054906101000a900473ffffffffffffffffffffffffffffffffffffffff1673ffffffffffffffffffffffffffffffffffffffff163373ffffffffffffffffffffffffffffffffffffffff161461061b576040517f08c379a000000000000000000000000000000000000000000000000000000000815260040161061290610edc565b60405180910390fd5b600060076000600854815260200190815260200160002090506008600081548092919061064790611143565b919050555083816000019080519060200190610664929190610b01565b50828160010160006101000a81548173ffffffffffffffffffffffffffffffffffffffff021916908373ffffffffffffffffffffffffffffffffffffffff16021790555081816002018190555060008160030160006101000a81548160ff0219169083151502179055506000816004018190555050505050565b60008060003373ffffffffffffffffffffffffffffffffffffffff1673ffffffffffffffffffffffffffffffffffffffff168152602001908152602001600020541161072957600080fd5b60016007600083815260200190815260200160002060050160003373ffffffffffffffffffffffffffffffffffffffff1673ffffffffffffffffffffffffffffffffffffffff16815260200190815260200160002060006101000a81548160ff02191690831515021790555050565b60076020528060005260406000206000915090508060000180546107bb906110e0565b80601f01602080910402602001604051908101604052809291908181526020018280546107e7906110e0565b80156108345780601f1061080957610100808354040283529160200191610834565b820191906000526020600020905b81548152906001019060200180831161081757829003601f168201915b5050505050908060010160009054906101000a900473ffffffffffffffffffffffffffffffffffffffff16908060020154908060030160009054906101000a900460ff16908060040154905085565b60085481565b600160009054906101000a900473ffffffffffffffffffffffffffffffffffffffff1673ffffffffffffffffffffffffffffffffffffffff163373ffffffffffffffffffffffffffffffffffffffff1614610919576040517f08c379a000000000000000000000000000000000000000000000000000000000815260040161091090610edc565b60405180910390fd5b6002600960006101000a81548160ff0219169083600481111561093f5761093e6111bb565b5b0217905550565b60035481565b600960009054906101000a900460ff1681565b60065481565b60008060003373ffffffffffffffffffffffffffffffffffffffff1673ffffffffffffffffffffffffffffffffffffffff16815260200190815260200160002054116109b057600080fd5b6004808111156109c3576109c26111bb565b5b600960009054906101000a900460ff1660048111156109e5576109e46111bb565b5b1480610a01575060045442118015610a005750600554600654105b5b610a0a57600080fd5b60008060003373ffffffffffffffffffffffffffffffffffffffff1673ffffffffffffffffffffffffffffffffffffffff16815260200190815260200160002054905060008060003373ffffffffffffffffffffffffffffffffffffffff1673ffffffffffffffffffffffffffffffffffffffff168152602001908152602001600020819055503373ffffffffffffffffffffffffffffffffffffffff166108fc829081150290604051600060405180830381858888f19350505050158015610ad7573d6000803e3d6000fd5b5050565b600160009054906101000a900473ffffffffffffffffffffffffffffffffffffffff1681565b828054610b0d906110e0565b90600052602060002090601f016020900481019282610b2f5760008555610b76565b82601f10610b4857805160ff1916838001178555610b76565b82800160010185558215610b76579182015b82811115610b75578251825591602001919060010190610b5a565b5b509050610b839190610b87565b5090565b5b80821115610ba0576000816000905550600101610b88565b5090565b6000610bb7610bb284610f7c565b610f57565b905082815260208101848484011115610bd357610bd261124d565b5b610bde84828561109e565b509392505050565b600081359050610bf581611325565b92915050565b600081359050610c0a8161133c565b92915050565b600082601f830112610c2557610c24611248565b5b8135610c35848260208601610ba4565b91505092915050565b600081359050610c4d81611353565b92915050565b600060208284031215610c6957610c68611257565b5b6000610c7784828501610be6565b91505092915050565b600080600060608486031215610c9957610c98611257565b5b600084013567ffffffffffffffff811115610cb757610cb6611252565b5b610cc386828701610c10565b9350506020610cd486828701610bfb565b9250506040610ce586828701610c3e565b9150509250925092565b600060208284031215610d0557610d04611257565b5b6000610d1384828501610c3e565b91505092915050565b610d2581611031565b82525050565b610d348161101f565b82525050565b610d4381611043565b82525050565b610d528161108c565b82525050565b6000610d6382610fad565b610d6d8185610fb8565b9350610d7d8185602086016110ad565b610d868161125c565b840191505092915050565b6000610d9e601c83610fb8565b9150610da98261126d565b602082019050919050565b6000610dc1601e83610fb8565b9150610dcc82611296565b602082019050919050565b6000610de4600f83610fb8565b9150610def826112bf565b602082019050919050565b6000610e07601b83610fb8565b9150610e12826112e8565b602082019050919050565b610e2681611082565b82525050565b6000602082019050610e416000830184610d2b565b92915050565b6000602082019050610e5c6000830184610d49565b92915050565b600060a0820190508181036000830152610e7c8188610d58565b9050610e8b6020830187610d1c565b610e986040830186610e1d565b610ea56060830185610d3a565b610eb26080830184610e1d565b9695505050505050565b60006020820190508181036000830152610ed581610d91565b9050919050565b60006020820190508181036000830152610ef581610db4565b9050919050565b60006020820190508181036000830152610f1581610dd7565b9050919050565b60006020820190508181036000830152610f3581610dfa565b9050919050565b6000602082019050610f516000830184610e1d565b92915050565b6000610f61610f72565b9050610f6d8282611112565b919050565b6000604051905090565b600067ffffffffffffffff821115610f9757610f96611219565b5b610fa08261125c565b9050602081019050919050565b600081519050919050565b600082825260208201905092915050565b6000610fd482611082565b9150610fdf83611082565b9250827fffffffffffffffffffffffffffffffffffffffffffffffffffffffffffffffff038211156110145761101361118c565b5b828201905092915050565b600061102a82611062565b9050919050565b600061103c82611062565b9050919050565b60008115159050919050565b600081905061105d82611311565b919050565b600073ffffffffffffffffffffffffffffffffffffffff82169050919050565b6000819050919050565b60006110978261104f565b9050919050565b82818337600083830152505050565b60005b838110156110cb5780820151818401526020810190506110b0565b838111156110da576000848401525b50505050565b600060028204905060018216806110f857607f821691505b6020821081141561110c5761110b6111ea565b5b50919050565b61111b8261125c565b810181811067ffffffffffffffff8211171561113a57611139611219565b5b80604052505050565b600061114e82611082565b91507fffffffffffffffffffffffffffffffffffffffffffffffffffffffffffffffff8214156111815761118061118c565b5b600182019050919050565b7f4e487b7100000000000000000000000000000000000000000000000000000000600052601160045260246000fd5b7f4e487b7100000000000000000000000000000000000000000000000000000000600052602160045260246000fd5b7f4e487b7100000000000000000000000000000000000000000000000000000000600052602260045260246000fd5b7f4e487b7100000000000000000000000000000000000000000000000000000000600052604160045260246000fd5b600080fd5b600080fd5b600080fd5b600080fd5b6000601f19601f8301169050919050565b7f6469646e74207265616368206d696e20636f6e747269627574696f6e00000000600082015250565b7f6d6573736167652073656e646572206973206e6f7420616e2061646d696e0000600082015250565b7f646561646c696e65207061737365640000000000000000000000000000000000600082015250565b7f43726f776446756e64696e67206973206e6f742072756e6e696e670000000000600082015250565b60058110611322576113216111bb565b5b50565b61132e8161101f565b811461133957600080fd5b50565b61134581611031565b811461135057600080fd5b50565b61135c81611082565b811461136757600080fd5b5056fea2646970667358221220eba70a4db7816b08bcfd6caaa4bb62ba55449e09e30b47ae0b8712629120ceb564736f6c63430008070033",
					"opcodes": "PUSH1 0x80 PUSH1 0x40 MSTORE CALLVALUE DUP1 ISZERO PUSH3 0x11 JUMPI PUSH1 0x0 DUP1 REVERT JUMPDEST POP PUSH1 0x40 MLOAD PUSH3 0x15CB CODESIZE SUB DUP1 PUSH3 0x15CB DUP4 CODECOPY DUP2 DUP2 ADD PUSH1 0x40 MSTORE DUP2 ADD SWAP1 PUSH3 0x37 SWAP2 SWAP1 PUSH3 0xF0 JUMP JUMPDEST CALLER PUSH1 0x1 PUSH1 0x0 PUSH2 0x100 EXP DUP2 SLOAD DUP2 PUSH20 0xFFFFFFFFFFFFFFFFFFFFFFFFFFFFFFFFFFFFFFFF MUL NOT AND SWAP1 DUP4 PUSH20 0xFFFFFFFFFFFFFFFFFFFFFFFFFFFFFFFFFFFFFFFF AND MUL OR SWAP1 SSTORE POP PUSH1 0x0 PUSH1 0x9 PUSH1 0x0 PUSH2 0x100 EXP DUP2 SLOAD DUP2 PUSH1 0xFF MUL NOT AND SWAP1 DUP4 PUSH1 0x4 DUP2 GT ISZERO PUSH3 0xA1 JUMPI PUSH3 0xA0 PUSH3 0x1CD JUMP JUMPDEST JUMPDEST MUL OR SWAP1 SSTORE POP DUP2 PUSH1 0x5 DUP2 SWAP1 SSTORE POP DUP1 TIMESTAMP PUSH3 0xBB SWAP2 SWAP1 PUSH3 0x137 JUMP JUMPDEST PUSH1 0x4 DUP2 SWAP1 SSTORE POP PUSH1 0x64 PUSH1 0x3 DUP2 SWAP1 SSTORE POP PUSH1 0x0 PUSH1 0x2 DUP2 SWAP1 SSTORE POP POP POP PUSH3 0x21B JUMP JUMPDEST PUSH1 0x0 DUP2 MLOAD SWAP1 POP PUSH3 0xEA DUP2 PUSH3 0x201 JUMP JUMPDEST SWAP3 SWAP2 POP POP JUMP JUMPDEST PUSH1 0x0 DUP1 PUSH1 0x40 DUP4 DUP6 SUB SLT ISZERO PUSH3 0x10A JUMPI PUSH3 0x109 PUSH3 0x1FC JUMP JUMPDEST JUMPDEST PUSH1 0x0 PUSH3 0x11A DUP6 DUP3 DUP7 ADD PUSH3 0xD9 JUMP JUMPDEST SWAP3 POP POP PUSH1 0x20 PUSH3 0x12D DUP6 DUP3 DUP7 ADD PUSH3 0xD9 JUMP JUMPDEST SWAP2 POP POP SWAP3 POP SWAP3 SWAP1 POP JUMP JUMPDEST PUSH1 0x0 PUSH3 0x144 DUP3 PUSH3 0x194 JUMP JUMPDEST SWAP2 POP PUSH3 0x151 DUP4 PUSH3 0x194 JUMP JUMPDEST SWAP3 POP DUP3 PUSH32 0xFFFFFFFFFFFFFFFFFFFFFFFFFFFFFFFFFFFFFFFFFFFFFFFFFFFFFFFFFFFFFFFF SUB DUP3 GT ISZERO PUSH3 0x189 JUMPI PUSH3 0x188 PUSH3 0x19E JUMP JUMPDEST JUMPDEST DUP3 DUP3 ADD SWAP1 POP SWAP3 SWAP2 POP POP JUMP JUMPDEST PUSH1 0x0 DUP2 SWAP1 POP SWAP2 SWAP1 POP JUMP JUMPDEST PUSH32 0x4E487B7100000000000000000000000000000000000000000000000000000000 PUSH1 0x0 MSTORE PUSH1 0x11 PUSH1 0x4 MSTORE PUSH1 0x24 PUSH1 0x0 REVERT JUMPDEST PUSH32 0x4E487B7100000000000000000000000000000000000000000000000000000000 PUSH1 0x0 MSTORE PUSH1 0x21 PUSH1 0x4 MSTORE PUSH1 0x24 PUSH1 0x0 REVERT JUMPDEST PUSH1 0x0 DUP1 REVERT JUMPDEST PUSH3 0x20C DUP2 PUSH3 0x194 JUMP JUMPDEST DUP2 EQ PUSH3 0x218 JUMPI PUSH1 0x0 DUP1 REVERT JUMPDEST POP JUMP JUMPDEST PUSH2 0x13A0 DUP1 PUSH3 0x22B PUSH1 0x0 CODECOPY PUSH1 0x0 RETURN INVALID PUSH1 0x80 PUSH1 0x40 MSTORE PUSH1 0x4 CALLDATASIZE LT PUSH2 0xF7 JUMPI PUSH1 0x0 CALLDATALOAD PUSH1 0xE0 SHR DUP1 PUSH4 0x9FB42B1F GT PUSH2 0x8A JUMPI DUP1 PUSH4 0xC59EE1DC GT PUSH2 0x59 JUMPI DUP1 PUSH4 0xC59EE1DC EQ PUSH2 0x31F JUMPI DUP1 PUSH4 0xD5CEF133 EQ PUSH2 0x34A JUMPI DUP1 PUSH4 0xD7BB99BA EQ PUSH2 0x354 JUMPI DUP1 PUSH4 0xF851A440 EQ PUSH2 0x35E JUMPI PUSH2 0x106 JUMP JUMPDEST DUP1 PUSH4 0x9FB42B1F EQ PUSH2 0x287 JUMPI DUP1 PUSH4 0xA8B78ED0 EQ PUSH2 0x2B2 JUMPI DUP1 PUSH4 0xAAFFADF3 EQ PUSH2 0x2C9 JUMPI DUP1 PUSH4 0xB25CDCCF EQ PUSH2 0x2F4 JUMPI PUSH2 0x106 JUMP JUMPDEST DUP1 PUSH4 0x40193883 GT PUSH2 0xC6 JUMPI DUP1 PUSH4 0x40193883 EQ PUSH2 0x1C9 JUMPI DUP1 PUSH4 0x4B5E7D70 EQ PUSH2 0x1F4 JUMPI DUP1 PUSH4 0x4CB6F4A5 EQ PUSH2 0x21D JUMPI DUP1 PUSH4 0x81D12C58 EQ PUSH2 0x246 JUMPI PUSH2 0x106 JUMP JUMPDEST DUP1 PUSH4 0x12065FE0 EQ PUSH2 0x10B JUMPI DUP1 PUSH4 0x1E206F15 EQ PUSH2 0x136 JUMPI DUP1 PUSH4 0x1F6D4942 EQ PUSH2 0x161 JUMPI DUP1 PUSH4 0x29DCB0CF EQ PUSH2 0x19E JUMPI PUSH2 0x106 JUMP JUMPDEST CALLDATASIZE PUSH2 0x106 JUMPI PUSH2 0x104 PUSH2 0x389 JUMP JUMPDEST STOP JUMPDEST PUSH1 0x0 DUP1 REVERT JUMPDEST CALLVALUE DUP1 ISZERO PUSH2 0x117 JUMPI PUSH1 0x0 DUP1 REVERT JUMPDEST POP PUSH2 0x120 PUSH2 0x559 JUMP JUMPDEST PUSH1 0x40 MLOAD PUSH2 0x12D SWAP2 SWAP1 PUSH2 0xF3C JUMP JUMPDEST PUSH1 0x40 MLOAD DUP1 SWAP2 SUB SWAP1 RETURN JUMPDEST CALLVALUE DUP1 ISZERO PUSH2 0x142 JUMPI PUSH1 0x0 DUP1 REVERT JUMPDEST POP PUSH2 0x14B PUSH2 0x561 JUMP JUMPDEST PUSH1 0x40 MLOAD PUSH2 0x158 SWAP2 SWAP1 PUSH2 0xF3C JUMP JUMPDEST PUSH1 0x40 MLOAD DUP1 SWAP2 SUB SWAP1 RETURN JUMPDEST CALLVALUE DUP1 ISZERO PUSH2 0x16D JUMPI PUSH1 0x0 DUP1 REVERT JUMPDEST POP PUSH2 0x188 PUSH1 0x4 DUP1 CALLDATASIZE SUB DUP2 ADD SWAP1 PUSH2 0x183 SWAP2 SWAP1 PUSH2 0xC53 JUMP JUMPDEST PUSH2 0x567 JUMP JUMPDEST PUSH1 0x40 MLOAD PUSH2 0x195 SWAP2 SWAP1 PUSH2 0xF3C JUMP JUMPDEST PUSH1 0x40 MLOAD DUP1 SWAP2 SUB SWAP1 RETURN JUMPDEST CALLVALUE DUP1 ISZERO PUSH2 0x1AA JUMPI PUSH1 0x0 DUP1 REVERT JUMPDEST POP PUSH2 0x1B3 PUSH2 0x57F JUMP JUMPDEST PUSH1 0x40 MLOAD PUSH2 0x1C0 SWAP2 SWAP1 PUSH2 0xF3C JUMP JUMPDEST PUSH1 0x40 MLOAD DUP1 SWAP2 SUB SWAP1 RETURN JUMPDEST CALLVALUE DUP1 ISZERO PUSH2 0x1D5 JUMPI PUSH1 0x0 DUP1 REVERT JUMPDEST POP PUSH2 0x1DE PUSH2 0x585 JUMP JUMPDEST PUSH1 0x40 MLOAD PUSH2 0x1EB SWAP2 SWAP1 PUSH2 0xF3C JUMP JUMPDEST PUSH1 0x40 MLOAD DUP1 SWAP2 SUB SWAP1 RETURN JUMPDEST CALLVALUE DUP1 ISZERO PUSH2 0x200 JUMPI PUSH1 0x0 DUP1 REVERT JUMPDEST POP PUSH2 0x21B PUSH1 0x4 DUP1 CALLDATASIZE SUB DUP2 ADD SWAP1 PUSH2 0x216 SWAP2 SWAP1 PUSH2 0xC80 JUMP JUMPDEST PUSH2 0x58B JUMP JUMPDEST STOP JUMPDEST CALLVALUE DUP1 ISZERO PUSH2 0x229 JUMPI PUSH1 0x0 DUP1 REVERT JUMPDEST POP PUSH2 0x244 PUSH1 0x4 DUP1 CALLDATASIZE SUB DUP2 ADD SWAP1 PUSH2 0x23F SWAP2 SWAP1 PUSH2 0xCEF JUMP JUMPDEST PUSH2 0x6DE JUMP JUMPDEST STOP JUMPDEST CALLVALUE DUP1 ISZERO PUSH2 0x252 JUMPI PUSH1 0x0 DUP1 REVERT JUMPDEST POP PUSH2 0x26D PUSH1 0x4 DUP1 CALLDATASIZE SUB DUP2 ADD SWAP1 PUSH2 0x268 SWAP2 SWAP1 PUSH2 0xCEF JUMP JUMPDEST PUSH2 0x798 JUMP JUMPDEST PUSH1 0x40 MLOAD PUSH2 0x27E SWAP6 SWAP5 SWAP4 SWAP3 SWAP2 SWAP1 PUSH2 0xE62 JUMP JUMPDEST PUSH1 0x40 MLOAD DUP1 SWAP2 SUB SWAP1 RETURN JUMPDEST CALLVALUE DUP1 ISZERO PUSH2 0x293 JUMPI PUSH1 0x0 DUP1 REVERT JUMPDEST POP PUSH2 0x29C PUSH2 0x883 JUMP JUMPDEST PUSH1 0x40 MLOAD PUSH2 0x2A9 SWAP2 SWAP1 PUSH2 0xF3C JUMP JUMPDEST PUSH1 0x40 MLOAD DUP1 SWAP2 SUB SWAP1 RETURN JUMPDEST CALLVALUE DUP1 ISZERO PUSH2 0x2BE JUMPI PUSH1 0x0 DUP1 REVERT JUMPDEST POP PUSH2 0x2C7 PUSH2 0x889 JUMP JUMPDEST STOP JUMPDEST CALLVALUE DUP1 ISZERO PUSH2 0x2D5 JUMPI PUSH1 0x0 DUP1 REVERT JUMPDEST POP PUSH2 0x2DE PUSH2 0x946 JUMP JUMPDEST PUSH1 0x40 MLOAD PUSH2 0x2EB SWAP2 SWAP1 PUSH2 0xF3C JUMP JUMPDEST PUSH1 0x40 MLOAD DUP1 SWAP2 SUB SWAP1 RETURN JUMPDEST CALLVALUE DUP1 ISZERO PUSH2 0x300 JUMPI PUSH1 0x0 DUP1 REVERT JUMPDEST POP PUSH2 0x309 PUSH2 0x94C JUMP JUMPDEST PUSH1 0x40 MLOAD PUSH2 0x316 SWAP2 SWAP1 PUSH2 0xE47 JUMP JUMPDEST PUSH1 0x40 MLOAD DUP1 SWAP2 SUB SWAP1 RETURN JUMPDEST CALLVALUE DUP1 ISZERO PUSH2 0x32B JUMPI PUSH1 0x0 DUP1 REVERT JUMPDEST POP PUSH2 0x334 PUSH2 0x95F JUMP JUMPDEST PUSH1 0x40 MLOAD PUSH2 0x341 SWAP2 SWAP1 PUSH2 0xF3C JUMP JUMPDEST PUSH1 0x40 MLOAD DUP1 SWAP2 SUB SWAP1 RETURN JUMPDEST PUSH2 0x352 PUSH2 0x965 JUMP JUMPDEST STOP JUMPDEST PUSH2 0x35C PUSH2 0x389 JUMP JUMPDEST STOP JUMPDEST CALLVALUE DUP1 ISZERO PUSH2 0x36A JUMPI PUSH1 0x0 DUP1 REVERT JUMPDEST POP PUSH2 0x373 PUSH2 0xADB JUMP JUMPDEST PUSH1 0x40 MLOAD PUSH2 0x380 SWAP2 SWAP1 PUSH2 0xE2C JUMP JUMPDEST PUSH1 0x40 MLOAD DUP1 SWAP2 SUB SWAP1 RETURN JUMPDEST PUSH1 0x2 PUSH1 0x4 DUP2 GT ISZERO PUSH2 0x39D JUMPI PUSH2 0x39C PUSH2 0x11BB JUMP JUMPDEST JUMPDEST PUSH1 0x9 PUSH1 0x0 SWAP1 SLOAD SWAP1 PUSH2 0x100 EXP SWAP1 DIV PUSH1 0xFF AND PUSH1 0x4 DUP2 GT ISZERO PUSH2 0x3BF JUMPI PUSH2 0x3BE PUSH2 0x11BB JUMP JUMPDEST JUMPDEST EQ PUSH2 0x3FF JUMPI PUSH1 0x40 MLOAD PUSH32 0x8C379A000000000000000000000000000000000000000000000000000000000 DUP2 MSTORE PUSH1 0x4 ADD PUSH2 0x3F6 SWAP1 PUSH2 0xF1C JUMP JUMPDEST PUSH1 0x40 MLOAD DUP1 SWAP2 SUB SWAP1 REVERT JUMPDEST PUSH1 0x4 SLOAD TIMESTAMP GT ISZERO PUSH2 0x444 JUMPI PUSH1 0x40 MLOAD PUSH32 0x8C379A000000000000000000000000000000000000000000000000000000000 DUP2 MSTORE PUSH1 0x4 ADD PUSH2 0x43B SWAP1 PUSH2 0xEFC JUMP JUMPDEST PUSH1 0x40 MLOAD DUP1 SWAP2 SUB SWAP1 REVERT JUMPDEST PUSH1 0x3 SLOAD CALLVALUE LT ISZERO PUSH2 0x489 JUMPI PUSH1 0x40 MLOAD PUSH32 0x8C379A000000000000000000000000000000000000000000000000000000000 DUP2 MSTORE PUSH1 0x4 ADD PUSH2 0x480 SWAP1 PUSH2 0xEBC JUMP JUMPDEST PUSH1 0x40 MLOAD DUP1 SWAP2 SUB SWAP1 REVERT JUMPDEST PUSH1 0x0 DUP1 PUSH1 0x0 CALLER PUSH20 0xFFFFFFFFFFFFFFFFFFFFFFFFFFFFFFFFFFFFFFFF AND PUSH20 0xFFFFFFFFFFFFFFFFFFFFFFFFFFFFFFFFFFFFFFFF AND DUP2 MSTORE PUSH1 0x20 ADD SWAP1 DUP2 MSTORE PUSH1 0x20 ADD PUSH1 0x0 KECCAK256 SLOAD EQ ISZERO PUSH2 0x4E9 JUMPI PUSH1 0x2 PUSH1 0x0 DUP2 SLOAD DUP1 SWAP3 SWAP2 SWAP1 PUSH2 0x4E3 SWAP1 PUSH2 0x1143 JUMP JUMPDEST SWAP2 SWAP1 POP SSTORE POP JUMPDEST CALLVALUE PUSH1 0x0 DUP1 CALLER PUSH20 0xFFFFFFFFFFFFFFFFFFFFFFFFFFFFFFFFFFFFFFFF AND PUSH20 0xFFFFFFFFFFFFFFFFFFFFFFFFFFFFFFFFFFFFFFFF AND DUP2 MSTORE PUSH1 0x20 ADD SWAP1 DUP2 MSTORE PUSH1 0x20 ADD PUSH1 0x0 KECCAK256 PUSH1 0x0 DUP3 DUP3 SLOAD PUSH2 0x537 SWAP2 SWAP1 PUSH2 0xFC9 JUMP JUMPDEST SWAP3 POP POP DUP2 SWAP1 SSTORE POP CALLVALUE PUSH1 0x6 PUSH1 0x0 DUP3 DUP3 SLOAD PUSH2 0x550 SWAP2 SWAP1 PUSH2 0xFC9 JUMP JUMPDEST SWAP3 POP POP DUP2 SWAP1 SSTORE POP JUMP JUMPDEST PUSH1 0x0 SELFBALANCE SWAP1 POP SWAP1 JUMP JUMPDEST PUSH1 0x2 SLOAD DUP2 JUMP JUMPDEST PUSH1 0x0 PUSH1 0x20 MSTORE DUP1 PUSH1 0x0 MSTORE PUSH1 0x40 PUSH1 0x0 KECCAK256 PUSH1 0x0 SWAP2 POP SWAP1 POP SLOAD DUP2 JUMP JUMPDEST PUSH1 0x4 SLOAD DUP2 JUMP JUMPDEST PUSH1 0x5 SLOAD DUP2 JUMP JUMPDEST PUSH1 0x1 PUSH1 0x0 SWAP1 SLOAD SWAP1 PUSH2 0x100 EXP SWAP1 DIV PUSH20 0xFFFFFFFFFFFFFFFFFFFFFFFFFFFFFFFFFFFFFFFF AND PUSH20 0xFFFFFFFFFFFFFFFFFFFFFFFFFFFFFFFFFFFFFFFF AND CALLER PUSH20 0xFFFFFFFFFFFFFFFFFFFFFFFFFFFFFFFFFFFFFFFF AND EQ PUSH2 0x61B JUMPI PUSH1 0x40 MLOAD PUSH32 0x8C379A000000000000000000000000000000000000000000000000000000000 DUP2 MSTORE PUSH1 0x4 ADD PUSH2 0x612 SWAP1 PUSH2 0xEDC JUMP JUMPDEST PUSH1 0x40 MLOAD DUP1 SWAP2 SUB SWAP1 REVERT JUMPDEST PUSH1 0x0 PUSH1 0x7 PUSH1 0x0 PUSH1 0x8 SLOAD DUP2 MSTORE PUSH1 0x20 ADD SWAP1 DUP2 MSTORE PUSH1 0x20 ADD PUSH1 0x0 KECCAK256 SWAP1 POP PUSH1 0x8 PUSH1 0x0 DUP2 SLOAD DUP1 SWAP3 SWAP2 SWAP1 PUSH2 0x647 SWAP1 PUSH2 0x1143 JUMP JUMPDEST SWAP2 SWAP1 POP SSTORE POP DUP4 DUP2 PUSH1 0x0 ADD SWAP1 DUP1 MLOAD SWAP1 PUSH1 0x20 ADD SWAP1 PUSH2 0x664 SWAP3 SWAP2 SWAP1 PUSH2 0xB01 JUMP JUMPDEST POP DUP3 DUP2 PUSH1 0x1 ADD PUSH1 0x0 PUSH2 0x100 EXP DUP2 SLOAD DUP2 PUSH20 0xFFFFFFFFFFFFFFFFFFFFFFFFFFFFFFFFFFFFFFFF MUL NOT AND SWAP1 DUP4 PUSH20 0xFFFFFFFFFFFFFFFFFFFFFFFFFFFFFFFFFFFFFFFF AND MUL OR SWAP1 SSTORE POP DUP2 DUP2 PUSH1 0x2 ADD DUP2 SWAP1 SSTORE POP PUSH1 0x0 DUP2 PUSH1 0x3 ADD PUSH1 0x0 PUSH2 0x100 EXP DUP2 SLOAD DUP2 PUSH1 0xFF MUL NOT AND SWAP1 DUP4 ISZERO ISZERO MUL OR SWAP1 SSTORE POP PUSH1 0x0 DUP2 PUSH1 0x4 ADD DUP2 SWAP1 SSTORE POP POP POP POP POP JUMP JUMPDEST PUSH1 0x0 DUP1 PUSH1 0x0 CALLER PUSH20 0xFFFFFFFFFFFFFFFFFFFFFFFFFFFFFFFFFFFFFFFF AND PUSH20 0xFFFFFFFFFFFFFFFFFFFFFFFFFFFFFFFFFFFFFFFF AND DUP2 MSTORE PUSH1 0x20 ADD SWAP1 DUP2 MSTORE PUSH1 0x20 ADD PUSH1 0x0 KECCAK256 SLOAD GT PUSH2 0x729 JUMPI PUSH1 0x0 DUP1 REVERT JUMPDEST PUSH1 0x1 PUSH1 0x7 PUSH1 0x0 DUP4 DUP2 MSTORE PUSH1 0x20 ADD SWAP1 DUP2 MSTORE PUSH1 0x20 ADD PUSH1 0x0 KECCAK256 PUSH1 0x5 ADD PUSH1 0x0 CALLER PUSH20 0xFFFFFFFFFFFFFFFFFFFFFFFFFFFFFFFFFFFFFFFF AND PUSH20 0xFFFFFFFFFFFFFFFFFFFFFFFFFFFFFFFFFFFFFFFF AND DUP2 MSTORE PUSH1 0x20 ADD SWAP1 DUP2 MSTORE PUSH1 0x20 ADD PUSH1 0x0 KECCAK256 PUSH1 0x0 PUSH2 0x100 EXP DUP2 SLOAD DUP2 PUSH1 0xFF MUL NOT AND SWAP1 DUP4 ISZERO ISZERO MUL OR SWAP1 SSTORE POP POP JUMP JUMPDEST PUSH1 0x7 PUSH1 0x20 MSTORE DUP1 PUSH1 0x0 MSTORE PUSH1 0x40 PUSH1 0x0 KECCAK256 PUSH1 0x0 SWAP2 POP SWAP1 POP DUP1 PUSH1 0x0 ADD DUP1 SLOAD PUSH2 0x7BB SWAP1 PUSH2 0x10E0 JUMP JUMPDEST DUP1 PUSH1 0x1F ADD PUSH1 0x20 DUP1 SWAP2 DIV MUL PUSH1 0x20 ADD PUSH1 0x40 MLOAD SWAP1 DUP2 ADD PUSH1 0x40 MSTORE DUP1 SWAP3 SWAP2 SWAP1 DUP2 DUP2 MSTORE PUSH1 0x20 ADD DUP3 DUP1 SLOAD PUSH2 0x7E7 SWAP1 PUSH2 0x10E0 JUMP JUMPDEST DUP1 ISZERO PUSH2 0x834 JUMPI DUP1 PUSH1 0x1F LT PUSH2 0x809 JUMPI PUSH2 0x100 DUP1 DUP4 SLOAD DIV MUL DUP4 MSTORE SWAP2 PUSH1 0x20 ADD SWAP2 PUSH2 0x834 JUMP JUMPDEST DUP3 ADD SWAP2 SWAP1 PUSH1 0x0 MSTORE PUSH1 0x20 PUSH1 0x0 KECCAK256 SWAP1 JUMPDEST DUP2 SLOAD DUP2 MSTORE SWAP1 PUSH1 0x1 ADD SWAP1 PUSH1 0x20 ADD DUP1 DUP4 GT PUSH2 0x817 JUMPI DUP3 SWAP1 SUB PUSH1 0x1F AND DUP3 ADD SWAP2 JUMPDEST POP POP POP POP POP SWAP1 DUP1 PUSH1 0x1 ADD PUSH1 0x0 SWAP1 SLOAD SWAP1 PUSH2 0x100 EXP SWAP1 DIV PUSH20 0xFFFFFFFFFFFFFFFFFFFFFFFFFFFFFFFFFFFFFFFF AND SWAP1 DUP1 PUSH1 0x2 ADD SLOAD SWAP1 DUP1 PUSH1 0x3 ADD PUSH1 0x0 SWAP1 SLOAD SWAP1 PUSH2 0x100 EXP SWAP1 DIV PUSH1 0xFF AND SWAP1 DUP1 PUSH1 0x4 ADD SLOAD SWAP1 POP DUP6 JUMP JUMPDEST PUSH1 0x8 SLOAD DUP2 JUMP JUMPDEST PUSH1 0x1 PUSH1 0x0 SWAP1 SLOAD SWAP1 PUSH2 0x100 EXP SWAP1 DIV PUSH20 0xFFFFFFFFFFFFFFFFFFFFFFFFFFFFFFFFFFFFFFFF AND PUSH20 0xFFFFFFFFFFFFFFFFFFFFFFFFFFFFFFFFFFFFFFFF AND CALLER PUSH20 0xFFFFFFFFFFFFFFFFFFFFFFFFFFFFFFFFFFFFFFFF AND EQ PUSH2 0x919 JUMPI PUSH1 0x40 MLOAD PUSH32 0x8C379A000000000000000000000000000000000000000000000000000000000 DUP2 MSTORE PUSH1 0x4 ADD PUSH2 0x910 SWAP1 PUSH2 0xEDC JUMP JUMPDEST PUSH1 0x40 MLOAD DUP1 SWAP2 SUB SWAP1 REVERT JUMPDEST PUSH1 0x2 PUSH1 0x9 PUSH1 0x0 PUSH2 0x100 EXP DUP2 SLOAD DUP2 PUSH1 0xFF MUL NOT AND SWAP1 DUP4 PUSH1 0x4 DUP2 GT ISZERO PUSH2 0x93F JUMPI PUSH2 0x93E PUSH2 0x11BB JUMP JUMPDEST JUMPDEST MUL OR SWAP1 SSTORE POP JUMP JUMPDEST PUSH1 0x3 SLOAD DUP2 JUMP JUMPDEST PUSH1 0x9 PUSH1 0x0 SWAP1 SLOAD SWAP1 PUSH2 0x100 EXP SWAP1 DIV PUSH1 0xFF AND DUP2 JUMP JUMPDEST PUSH1 0x6 SLOAD DUP2 JUMP JUMPDEST PUSH1 0x0 DUP1 PUSH1 0x0 CALLER PUSH20 0xFFFFFFFFFFFFFFFFFFFFFFFFFFFFFFFFFFFFFFFF AND PUSH20 0xFFFFFFFFFFFFFFFFFFFFFFFFFFFFFFFFFFFFFFFF AND DUP2 MSTORE PUSH1 0x20 ADD SWAP1 DUP2 MSTORE PUSH1 0x20 ADD PUSH1 0x0 KECCAK256 SLOAD GT PUSH2 0x9B0 JUMPI PUSH1 0x0 DUP1 REVERT JUMPDEST PUSH1 0x4 DUP1 DUP2 GT ISZERO PUSH2 0x9C3 JUMPI PUSH2 0x9C2 PUSH2 0x11BB JUMP JUMPDEST JUMPDEST PUSH1 0x9 PUSH1 0x0 SWAP1 SLOAD SWAP1 PUSH2 0x100 EXP SWAP1 DIV PUSH1 0xFF AND PUSH1 0x4 DUP2 GT ISZERO PUSH2 0x9E5 JUMPI PUSH2 0x9E4 PUSH2 0x11BB JUMP JUMPDEST JUMPDEST EQ DUP1 PUSH2 0xA01 JUMPI POP PUSH1 0x4 SLOAD TIMESTAMP GT DUP1 ISZERO PUSH2 0xA00 JUMPI POP PUSH1 0x5 SLOAD PUSH1 0x6 SLOAD LT JUMPDEST JUMPDEST PUSH2 0xA0A JUMPI PUSH1 0x0 DUP1 REVERT JUMPDEST PUSH1 0x0 DUP1 PUSH1 0x0 CALLER PUSH20 0xFFFFFFFFFFFFFFFFFFFFFFFFFFFFFFFFFFFFFFFF AND PUSH20 0xFFFFFFFFFFFFFFFFFFFFFFFFFFFFFFFFFFFFFFFF AND DUP2 MSTORE PUSH1 0x20 ADD SWAP1 DUP2 MSTORE PUSH1 0x20 ADD PUSH1 0x0 KECCAK256 SLOAD SWAP1 POP PUSH1 0x0 DUP1 PUSH1 0x0 CALLER PUSH20 0xFFFFFFFFFFFFFFFFFFFFFFFFFFFFFFFFFFFFFFFF AND PUSH20 0xFFFFFFFFFFFFFFFFFFFFFFFFFFFFFFFFFFFFFFFF AND DUP2 MSTORE PUSH1 0x20 ADD SWAP1 DUP2 MSTORE PUSH1 0x20 ADD PUSH1 0x0 KECCAK256 DUP2 SWAP1 SSTORE POP CALLER PUSH20 0xFFFFFFFFFFFFFFFFFFFFFFFFFFFFFFFFFFFFFFFF AND PUSH2 0x8FC DUP3 SWAP1 DUP2 ISZERO MUL SWAP1 PUSH1 0x40 MLOAD PUSH1 0x0 PUSH1 0x40 MLOAD DUP1 DUP4 SUB DUP2 DUP6 DUP9 DUP9 CALL SWAP4 POP POP POP POP ISZERO DUP1 ISZERO PUSH2 0xAD7 JUMPI RETURNDATASIZE PUSH1 0x0 DUP1 RETURNDATACOPY RETURNDATASIZE PUSH1 0x0 REVERT JUMPDEST POP POP JUMP JUMPDEST PUSH1 0x1 PUSH1 0x0 SWAP1 SLOAD SWAP1 PUSH2 0x100 EXP SWAP1 DIV PUSH20 0xFFFFFFFFFFFFFFFFFFFFFFFFFFFFFFFFFFFFFFFF AND DUP2 JUMP JUMPDEST DUP3 DUP1 SLOAD PUSH2 0xB0D SWAP1 PUSH2 0x10E0 JUMP JUMPDEST SWAP1 PUSH1 0x0 MSTORE PUSH1 0x20 PUSH1 0x0 KECCAK256 SWAP1 PUSH1 0x1F ADD PUSH1 0x20 SWAP1 DIV DUP2 ADD SWAP3 DUP3 PUSH2 0xB2F JUMPI PUSH1 0x0 DUP6 SSTORE PUSH2 0xB76 JUMP JUMPDEST DUP3 PUSH1 0x1F LT PUSH2 0xB48 JUMPI DUP1 MLOAD PUSH1 0xFF NOT AND DUP4 DUP1 ADD OR DUP6 SSTORE PUSH2 0xB76 JUMP JUMPDEST DUP3 DUP1 ADD PUSH1 0x1 ADD DUP6 SSTORE DUP3 ISZERO PUSH2 0xB76 JUMPI SWAP2 DUP3 ADD JUMPDEST DUP3 DUP2 GT ISZERO PUSH2 0xB75 JUMPI DUP3 MLOAD DUP3 SSTORE SWAP2 PUSH1 0x20 ADD SWAP2 SWAP1 PUSH1 0x1 ADD SWAP1 PUSH2 0xB5A JUMP JUMPDEST JUMPDEST POP SWAP1 POP PUSH2 0xB83 SWAP2 SWAP1 PUSH2 0xB87 JUMP JUMPDEST POP SWAP1 JUMP JUMPDEST JUMPDEST DUP1 DUP3 GT ISZERO PUSH2 0xBA0 JUMPI PUSH1 0x0 DUP2 PUSH1 0x0 SWAP1 SSTORE POP PUSH1 0x1 ADD PUSH2 0xB88 JUMP JUMPDEST POP SWAP1 JUMP JUMPDEST PUSH1 0x0 PUSH2 0xBB7 PUSH2 0xBB2 DUP5 PUSH2 0xF7C JUMP JUMPDEST PUSH2 0xF57 JUMP JUMPDEST SWAP1 POP DUP3 DUP2 MSTORE PUSH1 0x20 DUP2 ADD DUP5 DUP5 DUP5 ADD GT ISZERO PUSH2 0xBD3 JUMPI PUSH2 0xBD2 PUSH2 0x124D JUMP JUMPDEST JUMPDEST PUSH2 0xBDE DUP5 DUP3 DUP6 PUSH2 0x109E JUMP JUMPDEST POP SWAP4 SWAP3 POP POP POP JUMP JUMPDEST PUSH1 0x0 DUP2 CALLDATALOAD SWAP1 POP PUSH2 0xBF5 DUP2 PUSH2 0x1325 JUMP JUMPDEST SWAP3 SWAP2 POP POP JUMP JUMPDEST PUSH1 0x0 DUP2 CALLDATALOAD SWAP1 POP PUSH2 0xC0A DUP2 PUSH2 0x133C JUMP JUMPDEST SWAP3 SWAP2 POP POP JUMP JUMPDEST PUSH1 0x0 DUP3 PUSH1 0x1F DUP4 ADD SLT PUSH2 0xC25 JUMPI PUSH2 0xC24 PUSH2 0x1248 JUMP JUMPDEST JUMPDEST DUP2 CALLDATALOAD PUSH2 0xC35 DUP5 DUP3 PUSH1 0x20 DUP7 ADD PUSH2 0xBA4 JUMP JUMPDEST SWAP2 POP POP SWAP3 SWAP2 POP POP JUMP JUMPDEST PUSH1 0x0 DUP2 CALLDATALOAD SWAP1 POP PUSH2 0xC4D DUP2 PUSH2 0x1353 JUMP JUMPDEST SWAP3 SWAP2 POP POP JUMP JUMPDEST PUSH1 0x0 PUSH1 0x20 DUP3 DUP5 SUB SLT ISZERO PUSH2 0xC69 JUMPI PUSH2 0xC68 PUSH2 0x1257 JUMP JUMPDEST JUMPDEST PUSH1 0x0 PUSH2 0xC77 DUP5 DUP3 DUP6 ADD PUSH2 0xBE6 JUMP JUMPDEST SWAP2 POP POP SWAP3 SWAP2 POP POP JUMP JUMPDEST PUSH1 0x0 DUP1 PUSH1 0x0 PUSH1 0x60 DUP5 DUP7 SUB SLT ISZERO PUSH2 0xC99 JUMPI PUSH2 0xC98 PUSH2 0x1257 JUMP JUMPDEST JUMPDEST PUSH1 0x0 DUP5 ADD CALLDATALOAD PUSH8 0xFFFFFFFFFFFFFFFF DUP2 GT ISZERO PUSH2 0xCB7 JUMPI PUSH2 0xCB6 PUSH2 0x1252 JUMP JUMPDEST JUMPDEST PUSH2 0xCC3 DUP7 DUP3 DUP8 ADD PUSH2 0xC10 JUMP JUMPDEST SWAP4 POP POP PUSH1 0x20 PUSH2 0xCD4 DUP7 DUP3 DUP8 ADD PUSH2 0xBFB JUMP JUMPDEST SWAP3 POP POP PUSH1 0x40 PUSH2 0xCE5 DUP7 DUP3 DUP8 ADD PUSH2 0xC3E JUMP JUMPDEST SWAP2 POP POP SWAP3 POP SWAP3 POP SWAP3 JUMP JUMPDEST PUSH1 0x0 PUSH1 0x20 DUP3 DUP5 SUB SLT ISZERO PUSH2 0xD05 JUMPI PUSH2 0xD04 PUSH2 0x1257 JUMP JUMPDEST JUMPDEST PUSH1 0x0 PUSH2 0xD13 DUP5 DUP3 DUP6 ADD PUSH2 0xC3E JUMP JUMPDEST SWAP2 POP POP SWAP3 SWAP2 POP POP JUMP JUMPDEST PUSH2 0xD25 DUP2 PUSH2 0x1031 JUMP JUMPDEST DUP3 MSTORE POP POP JUMP JUMPDEST PUSH2 0xD34 DUP2 PUSH2 0x101F JUMP JUMPDEST DUP3 MSTORE POP POP JUMP JUMPDEST PUSH2 0xD43 DUP2 PUSH2 0x1043 JUMP JUMPDEST DUP3 MSTORE POP POP JUMP JUMPDEST PUSH2 0xD52 DUP2 PUSH2 0x108C JUMP JUMPDEST DUP3 MSTORE POP POP JUMP JUMPDEST PUSH1 0x0 PUSH2 0xD63 DUP3 PUSH2 0xFAD JUMP JUMPDEST PUSH2 0xD6D DUP2 DUP6 PUSH2 0xFB8 JUMP JUMPDEST SWAP4 POP PUSH2 0xD7D DUP2 DUP6 PUSH1 0x20 DUP7 ADD PUSH2 0x10AD JUMP JUMPDEST PUSH2 0xD86 DUP2 PUSH2 0x125C JUMP JUMPDEST DUP5 ADD SWAP2 POP POP SWAP3 SWAP2 POP POP JUMP JUMPDEST PUSH1 0x0 PUSH2 0xD9E PUSH1 0x1C DUP4 PUSH2 0xFB8 JUMP JUMPDEST SWAP2 POP PUSH2 0xDA9 DUP3 PUSH2 0x126D JUMP JUMPDEST PUSH1 0x20 DUP3 ADD SWAP1 POP SWAP2 SWAP1 POP JUMP JUMPDEST PUSH1 0x0 PUSH2 0xDC1 PUSH1 0x1E DUP4 PUSH2 0xFB8 JUMP JUMPDEST SWAP2 POP PUSH2 0xDCC DUP3 PUSH2 0x1296 JUMP JUMPDEST PUSH1 0x20 DUP3 ADD SWAP1 POP SWAP2 SWAP1 POP JUMP JUMPDEST PUSH1 0x0 PUSH2 0xDE4 PUSH1 0xF DUP4 PUSH2 0xFB8 JUMP JUMPDEST SWAP2 POP PUSH2 0xDEF DUP3 PUSH2 0x12BF JUMP JUMPDEST PUSH1 0x20 DUP3 ADD SWAP1 POP SWAP2 SWAP1 POP JUMP JUMPDEST PUSH1 0x0 PUSH2 0xE07 PUSH1 0x1B DUP4 PUSH2 0xFB8 JUMP JUMPDEST SWAP2 POP PUSH2 0xE12 DUP3 PUSH2 0x12E8 JUMP JUMPDEST PUSH1 0x20 DUP3 ADD SWAP1 POP SWAP2 SWAP1 POP JUMP JUMPDEST PUSH2 0xE26 DUP2 PUSH2 0x1082 JUMP JUMPDEST DUP3 MSTORE POP POP JUMP JUMPDEST PUSH1 0x0 PUSH1 0x20 DUP3 ADD SWAP1 POP PUSH2 0xE41 PUSH1 0x0 DUP4 ADD DUP5 PUSH2 0xD2B JUMP JUMPDEST SWAP3 SWAP2 POP POP JUMP JUMPDEST PUSH1 0x0 PUSH1 0x20 DUP3 ADD SWAP1 POP PUSH2 0xE5C PUSH1 0x0 DUP4 ADD DUP5 PUSH2 0xD49 JUMP JUMPDEST SWAP3 SWAP2 POP POP JUMP JUMPDEST PUSH1 0x0 PUSH1 0xA0 DUP3 ADD SWAP1 POP DUP2 DUP2 SUB PUSH1 0x0 DUP4 ADD MSTORE PUSH2 0xE7C DUP2 DUP9 PUSH2 0xD58 JUMP JUMPDEST SWAP1 POP PUSH2 0xE8B PUSH1 0x20 DUP4 ADD DUP8 PUSH2 0xD1C JUMP JUMPDEST PUSH2 0xE98 PUSH1 0x40 DUP4 ADD DUP7 PUSH2 0xE1D JUMP JUMPDEST PUSH2 0xEA5 PUSH1 0x60 DUP4 ADD DUP6 PUSH2 0xD3A JUMP JUMPDEST PUSH2 0xEB2 PUSH1 0x80 DUP4 ADD DUP5 PUSH2 0xE1D JUMP JUMPDEST SWAP7 SWAP6 POP POP POP POP POP POP JUMP JUMPDEST PUSH1 0x0 PUSH1 0x20 DUP3 ADD SWAP1 POP DUP2 DUP2 SUB PUSH1 0x0 DUP4 ADD MSTORE PUSH2 0xED5 DUP2 PUSH2 0xD91 JUMP JUMPDEST SWAP1 POP SWAP2 SWAP1 POP JUMP JUMPDEST PUSH1 0x0 PUSH1 0x20 DUP3 ADD SWAP1 POP DUP2 DUP2 SUB PUSH1 0x0 DUP4 ADD MSTORE PUSH2 0xEF5 DUP2 PUSH2 0xDB4 JUMP JUMPDEST SWAP1 POP SWAP2 SWAP1 POP JUMP JUMPDEST PUSH1 0x0 PUSH1 0x20 DUP3 ADD SWAP1 POP DUP2 DUP2 SUB PUSH1 0x0 DUP4 ADD MSTORE PUSH2 0xF15 DUP2 PUSH2 0xDD7 JUMP JUMPDEST SWAP1 POP SWAP2 SWAP1 POP JUMP JUMPDEST PUSH1 0x0 PUSH1 0x20 DUP3 ADD SWAP1 POP DUP2 DUP2 SUB PUSH1 0x0 DUP4 ADD MSTORE PUSH2 0xF35 DUP2 PUSH2 0xDFA JUMP JUMPDEST SWAP1 POP SWAP2 SWAP1 POP JUMP JUMPDEST PUSH1 0x0 PUSH1 0x20 DUP3 ADD SWAP1 POP PUSH2 0xF51 PUSH1 0x0 DUP4 ADD DUP5 PUSH2 0xE1D JUMP JUMPDEST SWAP3 SWAP2 POP POP JUMP JUMPDEST PUSH1 0x0 PUSH2 0xF61 PUSH2 0xF72 JUMP JUMPDEST SWAP1 POP PUSH2 0xF6D DUP3 DUP3 PUSH2 0x1112 JUMP JUMPDEST SWAP2 SWAP1 POP JUMP JUMPDEST PUSH1 0x0 PUSH1 0x40 MLOAD SWAP1 POP SWAP1 JUMP JUMPDEST PUSH1 0x0 PUSH8 0xFFFFFFFFFFFFFFFF DUP3 GT ISZERO PUSH2 0xF97 JUMPI PUSH2 0xF96 PUSH2 0x1219 JUMP JUMPDEST JUMPDEST PUSH2 0xFA0 DUP3 PUSH2 0x125C JUMP JUMPDEST SWAP1 POP PUSH1 0x20 DUP2 ADD SWAP1 POP SWAP2 SWAP1 POP JUMP JUMPDEST PUSH1 0x0 DUP2 MLOAD SWAP1 POP SWAP2 SWAP1 POP JUMP JUMPDEST PUSH1 0x0 DUP3 DUP3 MSTORE PUSH1 0x20 DUP3 ADD SWAP1 POP SWAP3 SWAP2 POP POP JUMP JUMPDEST PUSH1 0x0 PUSH2 0xFD4 DUP3 PUSH2 0x1082 JUMP JUMPDEST SWAP2 POP PUSH2 0xFDF DUP4 PUSH2 0x1082 JUMP JUMPDEST SWAP3 POP DUP3 PUSH32 0xFFFFFFFFFFFFFFFFFFFFFFFFFFFFFFFFFFFFFFFFFFFFFFFFFFFFFFFFFFFFFFFF SUB DUP3 GT ISZERO PUSH2 0x1014 JUMPI PUSH2 0x1013 PUSH2 0x118C JUMP JUMPDEST JUMPDEST DUP3 DUP3 ADD SWAP1 POP SWAP3 SWAP2 POP POP JUMP JUMPDEST PUSH1 0x0 PUSH2 0x102A DUP3 PUSH2 0x1062 JUMP JUMPDEST SWAP1 POP SWAP2 SWAP1 POP JUMP JUMPDEST PUSH1 0x0 PUSH2 0x103C DUP3 PUSH2 0x1062 JUMP JUMPDEST SWAP1 POP SWAP2 SWAP1 POP JUMP JUMPDEST PUSH1 0x0 DUP2 ISZERO ISZERO SWAP1 POP SWAP2 SWAP1 POP JUMP JUMPDEST PUSH1 0x0 DUP2 SWAP1 POP PUSH2 0x105D DUP3 PUSH2 0x1311 JUMP JUMPDEST SWAP2 SWAP1 POP JUMP JUMPDEST PUSH1 0x0 PUSH20 0xFFFFFFFFFFFFFFFFFFFFFFFFFFFFFFFFFFFFFFFF DUP3 AND SWAP1 POP SWAP2 SWAP1 POP JUMP JUMPDEST PUSH1 0x0 DUP2 SWAP1 POP SWAP2 SWAP1 POP JUMP JUMPDEST PUSH1 0x0 PUSH2 0x1097 DUP3 PUSH2 0x104F JUMP JUMPDEST SWAP1 POP SWAP2 SWAP1 POP JUMP JUMPDEST DUP3 DUP2 DUP4 CALLDATACOPY PUSH1 0x0 DUP4 DUP4 ADD MSTORE POP POP POP JUMP JUMPDEST PUSH1 0x0 JUMPDEST DUP4 DUP2 LT ISZERO PUSH2 0x10CB JUMPI DUP1 DUP3 ADD MLOAD DUP2 DUP5 ADD MSTORE PUSH1 0x20 DUP2 ADD SWAP1 POP PUSH2 0x10B0 JUMP JUMPDEST DUP4 DUP2 GT ISZERO PUSH2 0x10DA JUMPI PUSH1 0x0 DUP5 DUP5 ADD MSTORE JUMPDEST POP POP POP POP JUMP JUMPDEST PUSH1 0x0 PUSH1 0x2 DUP3 DIV SWAP1 POP PUSH1 0x1 DUP3 AND DUP1 PUSH2 0x10F8 JUMPI PUSH1 0x7F DUP3 AND SWAP2 POP JUMPDEST PUSH1 0x20 DUP3 LT DUP2 EQ ISZERO PUSH2 0x110C JUMPI PUSH2 0x110B PUSH2 0x11EA JUMP JUMPDEST JUMPDEST POP SWAP2 SWAP1 POP JUMP JUMPDEST PUSH2 0x111B DUP3 PUSH2 0x125C JUMP JUMPDEST DUP2 ADD DUP2 DUP2 LT PUSH8 0xFFFFFFFFFFFFFFFF DUP3 GT OR ISZERO PUSH2 0x113A JUMPI PUSH2 0x1139 PUSH2 0x1219 JUMP JUMPDEST JUMPDEST DUP1 PUSH1 0x40 MSTORE POP POP POP JUMP JUMPDEST PUSH1 0x0 PUSH2 0x114E DUP3 PUSH2 0x1082 JUMP JUMPDEST SWAP2 POP PUSH32 0xFFFFFFFFFFFFFFFFFFFFFFFFFFFFFFFFFFFFFFFFFFFFFFFFFFFFFFFFFFFFFFFF DUP3 EQ ISZERO PUSH2 0x1181 JUMPI PUSH2 0x1180 PUSH2 0x118C JUMP JUMPDEST JUMPDEST PUSH1 0x1 DUP3 ADD SWAP1 POP SWAP2 SWAP1 POP JUMP JUMPDEST PUSH32 0x4E487B7100000000000000000000000000000000000000000000000000000000 PUSH1 0x0 MSTORE PUSH1 0x11 PUSH1 0x4 MSTORE PUSH1 0x24 PUSH1 0x0 REVERT JUMPDEST PUSH32 0x4E487B7100000000000000000000000000000000000000000000000000000000 PUSH1 0x0 MSTORE PUSH1 0x21 PUSH1 0x4 MSTORE PUSH1 0x24 PUSH1 0x0 REVERT JUMPDEST PUSH32 0x4E487B7100000000000000000000000000000000000000000000000000000000 PUSH1 0x0 MSTORE PUSH1 0x22 PUSH1 0x4 MSTORE PUSH1 0x24 PUSH1 0x0 REVERT JUMPDEST PUSH32 0x4E487B7100000000000000000000000000000000000000000000000000000000 PUSH1 0x0 MSTORE PUSH1 0x41 PUSH1 0x4 MSTORE PUSH1 0x24 PUSH1 0x0 REVERT JUMPDEST PUSH1 0x0 DUP1 REVERT JUMPDEST PUSH1 0x0 DUP1 REVERT JUMPDEST PUSH1 0x0 DUP1 REVERT JUMPDEST PUSH1 0x0 DUP1 REVERT JUMPDEST PUSH1 0x0 PUSH1 0x1F NOT PUSH1 0x1F DUP4 ADD AND SWAP1 POP SWAP2 SWAP1 POP JUMP JUMPDEST PUSH32 0x6469646E74207265616368206D696E20636F6E747269627574696F6E00000000 PUSH1 0x0 DUP3 ADD MSTORE POP JUMP JUMPDEST PUSH32 0x6D6573736167652073656E646572206973206E6F7420616E2061646D696E0000 PUSH1 0x0 DUP3 ADD MSTORE POP JUMP JUMPDEST PUSH32 0x646561646C696E65207061737365640000000000000000000000000000000000 PUSH1 0x0 DUP3 ADD MSTORE POP JUMP JUMPDEST PUSH32 0x43726F776446756E64696E67206973206E6F742072756E6E696E670000000000 PUSH1 0x0 DUP3 ADD MSTORE POP JUMP JUMPDEST PUSH1 0x5 DUP2 LT PUSH2 0x1322 JUMPI PUSH2 0x1321 PUSH2 0x11BB JUMP JUMPDEST JUMPDEST POP JUMP JUMPDEST PUSH2 0x132E DUP2 PUSH2 0x101F JUMP JUMPDEST DUP2 EQ PUSH2 0x1339 JUMPI PUSH1 0x0 DUP1 REVERT JUMPDEST POP JUMP JUMPDEST PUSH2 0x1345 DUP2 PUSH2 0x1031 JUMP JUMPDEST DUP2 EQ PUSH2 0x1350 JUMPI PUSH1 0x0 DUP1 REVERT JUMPDEST POP JUMP JUMPDEST PUSH2 0x135C DUP2 PUSH2 0x1082 JUMP JUMPDEST DUP2 EQ PUSH2 0x1367 JUMPI PUSH1 0x0 DUP1 REVERT JUMPDEST POP JUMP INVALID LOG2 PUSH5 0x6970667358 0x22 SLT KECCAK256 0xEB 0xA7 EXP 0x4D 0xB7 DUP2 PUSH12 0x8BCFD6CAAA4BB62BA55449E MULMOD 0xE3 SIGNEXTEND SELFBALANCE 0xAE SIGNEXTEND DUP8 SLT PUSH3 0x9120CE 0xB5 PUSH5 0x736F6C6343 STOP ADDMOD SMOD STOP CALLER "
				},
				"gasEstimates": {
					"creation": {
						"codeDepositCost": "1004800",
						"executionCost": "infinite",
						"totalCost": "infinite"
					},
					"external": {
						"addRequest(string,address,uint256)": "infinite",
						"admin()": "2602",
						"contribute()": "infinite",
						"contributors(address)": "2882",
						"deadline()": "2519",
						"fundingState()": "2649",
						"getBalance()": "363",
						"goal()": "2452",
						"minContribution()": "2496",
						"numOfContributors()": "2475",
						"numRequests()": "2452",
						"raisedAmount()": "2451",
						"requestRefund()": "infinite",
						"requests(uint256)": "infinite",
						"startCampaign()": "26646",
						"voteRequest(uint256)": "27125"
					}
				},
				"methodIdentifiers": {
					"addRequest(string,address,uint256)": "4b5e7d70",
					"admin()": "f851a440",
					"contribute()": "d7bb99ba",
					"contributors(address)": "1f6d4942",
					"deadline()": "29dcb0cf",
					"fundingState()": "b25cdccf",
					"getBalance()": "12065fe0",
					"goal()": "40193883",
					"minContribution()": "aaffadf3",
					"numOfContributors()": "1e206f15",
					"numRequests()": "9fb42b1f",
					"raisedAmount()": "c59ee1dc",
					"requestRefund()": "d5cef133",
					"requests(uint256)": "81d12c58",
					"startCampaign()": "a8b78ed0",
					"voteRequest(uint256)": "4cb6f4a5"
				}
			},
			"storageLayout": {
				"storage": [
					{
						"astId": 5,
						"contract": "contracts/crowdfunding.sol:CrowdFunding",
						"label": "contributors",
						"offset": 0,
						"slot": "0",
						"type": "t_mapping(t_address,t_uint256)"
					},
					{
						"astId": 7,
						"contract": "contracts/crowdfunding.sol:CrowdFunding",
						"label": "admin",
						"offset": 0,
						"slot": "1",
						"type": "t_address"
					},
					{
						"astId": 9,
						"contract": "contracts/crowdfunding.sol:CrowdFunding",
						"label": "numOfContributors",
						"offset": 0,
						"slot": "2",
						"type": "t_uint256"
					},
					{
						"astId": 11,
						"contract": "contracts/crowdfunding.sol:CrowdFunding",
						"label": "minContribution",
						"offset": 0,
						"slot": "3",
						"type": "t_uint256"
					},
					{
						"astId": 13,
						"contract": "contracts/crowdfunding.sol:CrowdFunding",
						"label": "deadline",
						"offset": 0,
						"slot": "4",
						"type": "t_uint256"
					},
					{
						"astId": 15,
						"contract": "contracts/crowdfunding.sol:CrowdFunding",
						"label": "goal",
						"offset": 0,
						"slot": "5",
						"type": "t_uint256"
					},
					{
						"astId": 17,
						"contract": "contracts/crowdfunding.sol:CrowdFunding",
						"label": "raisedAmount",
						"offset": 0,
						"slot": "6",
						"type": "t_uint256"
					},
					{
						"astId": 37,
						"contract": "contracts/crowdfunding.sol:CrowdFunding",
						"label": "requests",
						"offset": 0,
						"slot": "7",
						"type": "t_mapping(t_uint256,t_struct(Request)32_storage)"
					},
					{
						"astId": 39,
						"contract": "contracts/crowdfunding.sol:CrowdFunding",
						"label": "numRequests",
						"offset": 0,
						"slot": "8",
						"type": "t_uint256"
					},
					{
						"astId": 48,
						"contract": "contracts/crowdfunding.sol:CrowdFunding",
						"label": "fundingState",
						"offset": 0,
						"slot": "9",
						"type": "t_enum(State)45"
					}
				],
				"types": {
					"t_address": {
						"encoding": "inplace",
						"label": "address",
						"numberOfBytes": "20"
					},
					"t_address_payable": {
						"encoding": "inplace",
						"label": "address payable",
						"numberOfBytes": "20"
					},
					"t_bool": {
						"encoding": "inplace",
						"label": "bool",
						"numberOfBytes": "1"
					},
					"t_enum(State)45": {
						"encoding": "inplace",
						"label": "enum CrowdFunding.State",
						"numberOfBytes": "1"
					},
					"t_mapping(t_address,t_bool)": {
						"encoding": "mapping",
						"key": "t_address",
						"label": "mapping(address => bool)",
						"numberOfBytes": "32",
						"value": "t_bool"
					},
					"t_mapping(t_address,t_uint256)": {
						"encoding": "mapping",
						"key": "t_address",
						"label": "mapping(address => uint256)",
						"numberOfBytes": "32",
						"value": "t_uint256"
					},
					"t_mapping(t_uint256,t_struct(Request)32_storage)": {
						"encoding": "mapping",
						"key": "t_uint256",
						"label": "mapping(uint256 => struct CrowdFunding.Request)",
						"numberOfBytes": "32",
						"value": "t_struct(Request)32_storage"
					},
					"t_string_storage": {
						"encoding": "bytes",
						"label": "string",
						"numberOfBytes": "32"
					},
					"t_struct(Request)32_storage": {
						"encoding": "inplace",
						"label": "struct CrowdFunding.Request",
						"members": [
							{
								"astId": 19,
								"contract": "contracts/crowdfunding.sol:CrowdFunding",
								"label": "description",
								"offset": 0,
								"slot": "0",
								"type": "t_string_storage"
							},
							{
								"astId": 21,
								"contract": "contracts/crowdfunding.sol:CrowdFunding",
								"label": "recipient",
								"offset": 0,
								"slot": "1",
								"type": "t_address_payable"
							},
							{
								"astId": 23,
								"contract": "contracts/crowdfunding.sol:CrowdFunding",
								"label": "value",
								"offset": 0,
								"slot": "2",
								"type": "t_uint256"
							},
							{
								"astId": 25,
								"contract": "contracts/crowdfunding.sol:CrowdFunding",
								"label": "completed",
								"offset": 0,
								"slot": "3",
								"type": "t_bool"
							},
							{
								"astId": 27,
								"contract": "contracts/crowdfunding.sol:CrowdFunding",
								"label": "numOfVoters",
								"offset": 0,
								"slot": "4",
								"type": "t_uint256"
							},
							{
								"astId": 31,
								"contract": "contracts/crowdfunding.sol:CrowdFunding",
								"label": "voters",
								"offset": 0,
								"slot": "5",
								"type": "t_mapping(t_address,t_bool)"
							}
						],
						"numberOfBytes": "192"
					},
					"t_uint256": {
						"encoding": "inplace",
						"label": "uint256",
						"numberOfBytes": "32"
					}
				}
			},
			"userdoc": {
				"kind": "user",
				"methods": {},
				"version": 1
			}
		}
	}
}