{
	"contracts/crowdfunding.sol": {
		"CrowdFunding": {
			"abi": [
				{
					"inputs": [
						{
							"internalType": "uint256",
							"name": "_goal",
							"type": "uint256"
						},
						{
							"internalType": "uint256",
							"name": "_deadline",
							"type": "uint256"
						}
					],
					"stateMutability": "nonpayable",
					"type": "constructor"
				},
				{
					"anonymous": false,
					"inputs": [
						{
							"indexed": false,
							"internalType": "address",
							"name": "_sender",
							"type": "address"
						},
						{
							"indexed": false,
							"internalType": "uint256",
							"name": "_value",
							"type": "uint256"
						}
					],
					"name": "ContributeEvent",
					"type": "event"
				},
				{
					"anonymous": false,
					"inputs": [
						{
							"indexed": false,
							"internalType": "string",
							"name": "_description",
							"type": "string"
						},
						{
							"indexed": false,
							"internalType": "address",
							"name": "_recipient",
							"type": "address"
						},
						{
							"indexed": false,
							"internalType": "uint256",
							"name": "_value",
							"type": "uint256"
						}
					],
					"name": "CreateRequestEvent",
					"type": "event"
				},
				{
					"anonymous": false,
					"inputs": [
						{
							"indexed": false,
							"internalType": "address",
							"name": "_recipient",
							"type": "address"
						},
						{
							"indexed": false,
							"internalType": "uint256",
							"name": "_value",
							"type": "uint256"
						}
					],
					"name": "MakePaymentEvent",
					"type": "event"
				},
				{
					"inputs": [
						{
							"internalType": "string",
							"name": "_description",
							"type": "string"
						},
						{
							"internalType": "address payable",
							"name": "_recipient",
							"type": "address"
						},
						{
							"internalType": "uint256",
							"name": "_value",
							"type": "uint256"
						}
					],
					"name": "addRequest",
					"outputs": [],
					"stateMutability": "nonpayable",
					"type": "function"
				},
				{
					"inputs": [],
					"name": "admin",
					"outputs": [
						{
							"internalType": "address",
							"name": "",
							"type": "address"
						}
					],
					"stateMutability": "view",
					"type": "function"
				},
				{
					"inputs": [],
					"name": "contribute",
					"outputs": [],
					"stateMutability": "payable",
					"type": "function"
				},
				{
					"inputs": [
						{
							"internalType": "address",
							"name": "",
							"type": "address"
						}
					],
					"name": "contributors",
					"outputs": [
						{
							"internalType": "uint256",
							"name": "",
							"type": "uint256"
						}
					],
					"stateMutability": "view",
					"type": "function"
				},
				{
					"inputs": [],
					"name": "deadline",
					"outputs": [
						{
							"internalType": "uint256",
							"name": "",
							"type": "uint256"
						}
					],
					"stateMutability": "view",
					"type": "function"
				},
				{
					"inputs": [],
					"name": "fundingState",
					"outputs": [
						{
							"internalType": "enum CrowdFunding.State",
							"name": "",
							"type": "uint8"
						}
					],
					"stateMutability": "view",
					"type": "function"
				},
				{
					"inputs": [],
					"name": "getBalance",
					"outputs": [
						{
							"internalType": "uint256",
							"name": "",
							"type": "uint256"
						}
					],
					"stateMutability": "view",
					"type": "function"
				},
				{
					"inputs": [],
					"name": "goal",
					"outputs": [
						{
							"internalType": "uint256",
							"name": "",
							"type": "uint256"
						}
					],
					"stateMutability": "view",
					"type": "function"
				},
				{
					"inputs": [
						{
							"internalType": "uint256",
							"name": "_requestNumber",
							"type": "uint256"
						}
					],
					"name": "makePayment",
					"outputs": [],
					"stateMutability": "nonpayable",
					"type": "function"
				},
				{
					"inputs": [],
					"name": "minContribution",
					"outputs": [
						{
							"internalType": "uint256",
							"name": "",
							"type": "uint256"
						}
					],
					"stateMutability": "view",
					"type": "function"
				},
				{
					"inputs": [],
					"name": "numOfContributors",
					"outputs": [
						{
							"internalType": "uint256",
							"name": "",
							"type": "uint256"
						}
					],
					"stateMutability": "view",
					"type": "function"
				},
				{
					"inputs": [],
					"name": "numRequests",
					"outputs": [
						{
							"internalType": "uint256",
							"name": "",
							"type": "uint256"
						}
					],
					"stateMutability": "view",
					"type": "function"
				},
				{
					"inputs": [],
					"name": "raisedAmount",
					"outputs": [
						{
							"internalType": "uint256",
							"name": "",
							"type": "uint256"
						}
					],
					"stateMutability": "view",
					"type": "function"
				},
				{
					"inputs": [],
					"name": "requestRefund",
					"outputs": [],
					"stateMutability": "payable",
					"type": "function"
				},
				{
					"inputs": [
						{
							"internalType": "uint256",
							"name": "",
							"type": "uint256"
						}
					],
					"name": "requests",
					"outputs": [
						{
							"internalType": "string",
							"name": "description",
							"type": "string"
						},
						{
							"internalType": "address payable",
							"name": "recipient",
							"type": "address"
						},
						{
							"internalType": "uint256",
							"name": "value",
							"type": "uint256"
						},
						{
							"internalType": "bool",
							"name": "completed",
							"type": "bool"
						},
						{
							"internalType": "uint256",
							"name": "numOfVoters",
							"type": "uint256"
						}
					],
					"stateMutability": "view",
					"type": "function"
				},
				{
					"inputs": [],
					"name": "startCampaign",
					"outputs": [],
					"stateMutability": "nonpayable",
					"type": "function"
				},
				{
					"inputs": [
						{
							"internalType": "uint256",
							"name": "_requestNumber",
							"type": "uint256"
						}
					],
					"name": "voteRequest",
					"outputs": [],
					"stateMutability": "nonpayable",
					"type": "function"
				},
				{
					"stateMutability": "payable",
					"type": "receive"
				}
			],
			"devdoc": {
				"kind": "dev",
				"methods": {},
				"version": 1
			},
			"evm": {
				"assembly": "    /* \"contracts/crowdfunding.sol\":73:3902  contract CrowdFunding{\r... */\n  mstore(0x40, 0x80)\n    /* \"contracts/crowdfunding.sol\":719:970  constructor(uint _goal, uint _deadline){\r... */\n  callvalue\n  dup1\n  iszero\n  tag_1\n  jumpi\n  0x00\n  dup1\n  revert\ntag_1:\n  pop\n  mload(0x40)\n  sub(codesize, bytecodeSize)\n  dup1\n  bytecodeSize\n  dup4\n  codecopy\n  dup2\n  dup2\n  add\n  0x40\n  mstore\n  dup2\n  add\n  swap1\n  tag_2\n  swap2\n  swap1\n  tag_3\n  jump\t// in\ntag_2:\n    /* \"contracts/crowdfunding.sol\":777:787  msg.sender */\n  caller\n    /* \"contracts/crowdfunding.sol\":769:774  admin */\n  0x01\n  0x00\n    /* \"contracts/crowdfunding.sol\":769:787  admin = msg.sender */\n  0x0100\n  exp\n  dup2\n  sload\n  dup2\n  0xffffffffffffffffffffffffffffffffffffffff\n  mul\n  not\n  and\n  swap1\n  dup4\n  0xffffffffffffffffffffffffffffffffffffffff\n  and\n  mul\n  or\n  swap1\n  sstore\n  pop\n    /* \"contracts/crowdfunding.sol\":813:823  State.INIT */\n  0x00\n    /* \"contracts/crowdfunding.sol\":798:810  fundingState */\n  0x09\n  0x00\n    /* \"contracts/crowdfunding.sol\":798:823  fundingState = State.INIT */\n  0x0100\n  exp\n  dup2\n  sload\n  dup2\n  0xff\n  mul\n  not\n  and\n  swap1\n  dup4\n  0x04\n  dup2\n  gt\n  iszero\n  tag_6\n  jumpi\n  tag_7\n  tag_8\n  jump\t// in\ntag_7:\ntag_6:\n  mul\n  or\n  swap1\n  sstore\n  pop\n    /* \"contracts/crowdfunding.sol\":841:846  _goal */\n  dup2\n    /* \"contracts/crowdfunding.sol\":834:838  goal */\n  0x05\n    /* \"contracts/crowdfunding.sol\":834:846  goal = _goal */\n  dup2\n  swap1\n  sstore\n  pop\n    /* \"contracts/crowdfunding.sol\":885:894  _deadline */\n  dup1\n    /* \"contracts/crowdfunding.sol\":868:883  block.timestamp */\n  timestamp\n    /* \"contracts/crowdfunding.sol\":868:894  block.timestamp+ _deadline */\n  tag_9\n  swap2\n  swap1\n  tag_10\n  jump\t// in\ntag_9:\n    /* \"contracts/crowdfunding.sol\":857:865  deadline */\n  0x04\n    /* \"contracts/crowdfunding.sol\":857:894  deadline = block.timestamp+ _deadline */\n  dup2\n  swap1\n  sstore\n  pop\n    /* \"contracts/crowdfunding.sol\":923:930  100 wei */\n  0x64\n    /* \"contracts/crowdfunding.sol\":905:920  minContribution */\n  0x03\n    /* \"contracts/crowdfunding.sol\":905:930  minContribution = 100 wei */\n  dup2\n  swap1\n  sstore\n  pop\n    /* \"contracts/crowdfunding.sol\":961:962  0 */\n  0x00\n    /* \"contracts/crowdfunding.sol\":941:958  numOfContributors */\n  0x02\n    /* \"contracts/crowdfunding.sol\":941:962  numOfContributors = 0 */\n  dup2\n  swap1\n  sstore\n  pop\n    /* \"contracts/crowdfunding.sol\":719:970  constructor(uint _goal, uint _deadline){\r... */\n  pop\n  pop\n    /* \"contracts/crowdfunding.sol\":73:3902  contract CrowdFunding{\r... */\n  jump(tag_11)\n    /* \"#utility.yul\":7:150   */\ntag_13:\n    /* \"#utility.yul\":64:69   */\n  0x00\n    /* \"#utility.yul\":95:101   */\n  dup2\n    /* \"#utility.yul\":89:102   */\n  mload\n    /* \"#utility.yul\":80:102   */\n  swap1\n  pop\n    /* \"#utility.yul\":111:144   */\n  tag_15\n    /* \"#utility.yul\":138:143   */\n  dup2\n    /* \"#utility.yul\":111:144   */\n  tag_16\n  jump\t// in\ntag_15:\n    /* \"#utility.yul\":7:150   */\n  swap3\n  swap2\n  pop\n  pop\n  jump\t// out\n    /* \"#utility.yul\":156:663   */\ntag_3:\n    /* \"#utility.yul\":235:241   */\n  0x00\n    /* \"#utility.yul\":243:249   */\n  dup1\n    /* \"#utility.yul\":292:294   */\n  0x40\n    /* \"#utility.yul\":280:289   */\n  dup4\n    /* \"#utility.yul\":271:278   */\n  dup6\n    /* \"#utility.yul\":267:290   */\n  sub\n    /* \"#utility.yul\":263:295   */\n  slt\n    /* \"#utility.yul\":260:379   */\n  iszero\n  tag_18\n  jumpi\n    /* \"#utility.yul\":298:377   */\n  tag_19\n  tag_20\n  jump\t// in\ntag_19:\n    /* \"#utility.yul\":260:379   */\ntag_18:\n    /* \"#utility.yul\":418:419   */\n  0x00\n    /* \"#utility.yul\":443:507   */\n  tag_21\n    /* \"#utility.yul\":499:506   */\n  dup6\n    /* \"#utility.yul\":490:496   */\n  dup3\n    /* \"#utility.yul\":479:488   */\n  dup7\n    /* \"#utility.yul\":475:497   */\n  add\n    /* \"#utility.yul\":443:507   */\n  tag_13\n  jump\t// in\ntag_21:\n    /* \"#utility.yul\":433:507   */\n  swap3\n  pop\n    /* \"#utility.yul\":389:517   */\n  pop\n    /* \"#utility.yul\":556:558   */\n  0x20\n    /* \"#utility.yul\":582:646   */\n  tag_22\n    /* \"#utility.yul\":638:645   */\n  dup6\n    /* \"#utility.yul\":629:635   */\n  dup3\n    /* \"#utility.yul\":618:627   */\n  dup7\n    /* \"#utility.yul\":614:636   */\n  add\n    /* \"#utility.yul\":582:646   */\n  tag_13\n  jump\t// in\ntag_22:\n    /* \"#utility.yul\":572:646   */\n  swap2\n  pop\n    /* \"#utility.yul\":527:656   */\n  pop\n    /* \"#utility.yul\":156:663   */\n  swap3\n  pop\n  swap3\n  swap1\n  pop\n  jump\t// out\n    /* \"#utility.yul\":750:1055   */\ntag_10:\n    /* \"#utility.yul\":790:793   */\n  0x00\n    /* \"#utility.yul\":809:829   */\n  tag_26\n    /* \"#utility.yul\":827:828   */\n  dup3\n    /* \"#utility.yul\":809:829   */\n  tag_27\n  jump\t// in\ntag_26:\n    /* \"#utility.yul\":804:829   */\n  swap2\n  pop\n    /* \"#utility.yul\":843:863   */\n  tag_28\n    /* \"#utility.yul\":861:862   */\n  dup4\n    /* \"#utility.yul\":843:863   */\n  tag_27\n  jump\t// in\ntag_28:\n    /* \"#utility.yul\":838:863   */\n  swap3\n  pop\n    /* \"#utility.yul\":997:998   */\n  dup3\n    /* \"#utility.yul\":929:995   */\n  0xffffffffffffffffffffffffffffffffffffffffffffffffffffffffffffffff\n    /* \"#utility.yul\":925:999   */\n  sub\n    /* \"#utility.yul\":922:923   */\n  dup3\n    /* \"#utility.yul\":919:1000   */\n  gt\n    /* \"#utility.yul\":916:1023   */\n  iszero\n  tag_29\n  jumpi\n    /* \"#utility.yul\":1003:1021   */\n  tag_30\n  tag_31\n  jump\t// in\ntag_30:\n    /* \"#utility.yul\":916:1023   */\ntag_29:\n    /* \"#utility.yul\":1047:1048   */\n  dup3\n    /* \"#utility.yul\":1044:1045   */\n  dup3\n    /* \"#utility.yul\":1040:1049   */\n  add\n    /* \"#utility.yul\":1033:1049   */\n  swap1\n  pop\n    /* \"#utility.yul\":750:1055   */\n  swap3\n  swap2\n  pop\n  pop\n  jump\t// out\n    /* \"#utility.yul\":1061:1138   */\ntag_27:\n    /* \"#utility.yul\":1098:1105   */\n  0x00\n    /* \"#utility.yul\":1127:1132   */\n  dup2\n    /* \"#utility.yul\":1116:1132   */\n  swap1\n  pop\n    /* \"#utility.yul\":1061:1138   */\n  swap2\n  swap1\n  pop\n  jump\t// out\n    /* \"#utility.yul\":1144:1324   */\ntag_31:\n    /* \"#utility.yul\":1192:1269   */\n  0x4e487b7100000000000000000000000000000000000000000000000000000000\n    /* \"#utility.yul\":1189:1190   */\n  0x00\n    /* \"#utility.yul\":1182:1270   */\n  mstore\n    /* \"#utility.yul\":1289:1293   */\n  0x11\n    /* \"#utility.yul\":1286:1287   */\n  0x04\n    /* \"#utility.yul\":1279:1294   */\n  mstore\n    /* \"#utility.yul\":1313:1317   */\n  0x24\n    /* \"#utility.yul\":1310:1311   */\n  0x00\n    /* \"#utility.yul\":1303:1318   */\n  revert\n    /* \"#utility.yul\":1330:1510   */\ntag_8:\n    /* \"#utility.yul\":1378:1455   */\n  0x4e487b7100000000000000000000000000000000000000000000000000000000\n    /* \"#utility.yul\":1375:1376   */\n  0x00\n    /* \"#utility.yul\":1368:1456   */\n  mstore\n    /* \"#utility.yul\":1475:1479   */\n  0x21\n    /* \"#utility.yul\":1472:1473   */\n  0x04\n    /* \"#utility.yul\":1465:1480   */\n  mstore\n    /* \"#utility.yul\":1499:1503   */\n  0x24\n    /* \"#utility.yul\":1496:1497   */\n  0x00\n    /* \"#utility.yul\":1489:1504   */\n  revert\n    /* \"#utility.yul\":1639:1756   */\ntag_20:\n    /* \"#utility.yul\":1748:1749   */\n  0x00\n    /* \"#utility.yul\":1745:1746   */\n  dup1\n    /* \"#utility.yul\":1738:1750   */\n  revert\n    /* \"#utility.yul\":1762:1884   */\ntag_16:\n    /* \"#utility.yul\":1835:1859   */\n  tag_39\n    /* \"#utility.yul\":1853:1858   */\n  dup2\n    /* \"#utility.yul\":1835:1859   */\n  tag_27\n  jump\t// in\ntag_39:\n    /* \"#utility.yul\":1828:1833   */\n  dup2\n    /* \"#utility.yul\":1825:1860   */\n  eq\n    /* \"#utility.yul\":1815:1878   */\n  tag_40\n  jumpi\n    /* \"#utility.yul\":1874:1875   */\n  0x00\n    /* \"#utility.yul\":1871:1872   */\n  dup1\n    /* \"#utility.yul\":1864:1876   */\n  revert\n    /* \"#utility.yul\":1815:1878   */\ntag_40:\n    /* \"#utility.yul\":1762:1884   */\n  pop\n  jump\t// out\n    /* \"contracts/crowdfunding.sol\":73:3902  contract CrowdFunding{\r... */\ntag_11:\n  dataSize(sub_0)\n  dup1\n  dataOffset(sub_0)\n  0x00\n  codecopy\n  0x00\n  return\nstop\n\nsub_0: assembly {\n        /* \"contracts/crowdfunding.sol\":73:3902  contract CrowdFunding{\r... */\n      mstore(0x40, 0x80)\n      jumpi(tag_1, lt(calldatasize, 0x04))\n      shr(0xe0, calldataload(0x00))\n      dup1\n      0x81d12c58\n      gt\n      tag_20\n      jumpi\n      dup1\n      0xb25cdccf\n      gt\n      tag_21\n      jumpi\n      dup1\n      0xb25cdccf\n      eq\n      tag_15\n      jumpi\n      dup1\n      0xc59ee1dc\n      eq\n      tag_16\n      jumpi\n      dup1\n      0xd5cef133\n      eq\n      tag_17\n      jumpi\n      dup1\n      0xd7bb99ba\n      eq\n      tag_18\n      jumpi\n      dup1\n      0xf851a440\n      eq\n      tag_19\n      jumpi\n      jump(tag_2)\n    tag_21:\n      dup1\n      0x81d12c58\n      eq\n      tag_11\n      jumpi\n      dup1\n      0x9fb42b1f\n      eq\n      tag_12\n      jumpi\n      dup1\n      0xa8b78ed0\n      eq\n      tag_13\n      jumpi\n      dup1\n      0xaaffadf3\n      eq\n      tag_14\n      jumpi\n      jump(tag_2)\n    tag_20:\n      dup1\n      0x40193883\n      gt\n      tag_22\n      jumpi\n      dup1\n      0x40193883\n      eq\n      tag_7\n      jumpi\n      dup1\n      0x4b5e7d70\n      eq\n      tag_8\n      jumpi\n      dup1\n      0x4cb6f4a5\n      eq\n      tag_9\n      jumpi\n      dup1\n      0x5114cb52\n      eq\n      tag_10\n      jumpi\n      jump(tag_2)\n    tag_22:\n      dup1\n      0x12065fe0\n      eq\n      tag_3\n      jumpi\n      dup1\n      0x1e206f15\n      eq\n      tag_4\n      jumpi\n      dup1\n      0x1f6d4942\n      eq\n      tag_5\n      jumpi\n      dup1\n      0x29dcb0cf\n      eq\n      tag_6\n      jumpi\n      jump(tag_2)\n    tag_1:\n      jumpi(tag_2, calldatasize)\n        /* \"contracts/crowdfunding.sol\":1789:1801  contribute() */\n      tag_25\n        /* \"contracts/crowdfunding.sol\":1789:1799  contribute */\n      tag_26\n        /* \"contracts/crowdfunding.sol\":1789:1801  contribute() */\n      jump\t// in\n    tag_25:\n        /* \"contracts/crowdfunding.sol\":73:3902  contract CrowdFunding{\r... */\n      stop\n    tag_2:\n      0x00\n      dup1\n      revert\n        /* \"contracts/crowdfunding.sol\":2290:2384  function getBalance() public view returns(uint){\r... */\n    tag_3:\n      callvalue\n      dup1\n      iszero\n      tag_27\n      jumpi\n      0x00\n      dup1\n      revert\n    tag_27:\n      pop\n      tag_28\n      tag_29\n      jump\t// in\n    tag_28:\n      mload(0x40)\n      tag_30\n      swap2\n      swap1\n      tag_31\n      jump\t// in\n    tag_30:\n      mload(0x40)\n      dup1\n      swap2\n      sub\n      swap1\n      return\n        /* \"contracts/crowdfunding.sol\":181:210  uint public numOfContributors */\n    tag_4:\n      callvalue\n      dup1\n      iszero\n      tag_32\n      jumpi\n      0x00\n      dup1\n      revert\n    tag_32:\n      pop\n      tag_33\n      tag_34\n      jump\t// in\n    tag_33:\n      mload(0x40)\n      tag_35\n      swap2\n      swap1\n      tag_31\n      jump\t// in\n    tag_35:\n      mload(0x40)\n      dup1\n      swap2\n      sub\n      swap1\n      return\n        /* \"contracts/crowdfunding.sol\":103:147  mapping(address => uint) public contributors */\n    tag_5:\n      callvalue\n      dup1\n      iszero\n      tag_36\n      jumpi\n      0x00\n      dup1\n      revert\n    tag_36:\n      pop\n      tag_37\n      0x04\n      dup1\n      calldatasize\n      sub\n      dup2\n      add\n      swap1\n      tag_38\n      swap2\n      swap1\n      tag_39\n      jump\t// in\n    tag_38:\n      tag_40\n      jump\t// in\n    tag_37:\n      mload(0x40)\n      tag_41\n      swap2\n      swap1\n      tag_31\n      jump\t// in\n    tag_41:\n      mload(0x40)\n      dup1\n      swap2\n      sub\n      swap1\n      return\n        /* \"contracts/crowdfunding.sol\":251:271  uint public deadline */\n    tag_6:\n      callvalue\n      dup1\n      iszero\n      tag_42\n      jumpi\n      0x00\n      dup1\n      revert\n    tag_42:\n      pop\n      tag_43\n      tag_44\n      jump\t// in\n    tag_43:\n      mload(0x40)\n      tag_45\n      swap2\n      swap1\n      tag_31\n      jump\t// in\n    tag_45:\n      mload(0x40)\n      dup1\n      swap2\n      sub\n      swap1\n      return\n        /* \"contracts/crowdfunding.sol\":278:294  uint public goal */\n    tag_7:\n      callvalue\n      dup1\n      iszero\n      tag_46\n      jumpi\n      0x00\n      dup1\n      revert\n    tag_46:\n      pop\n      tag_47\n      tag_48\n      jump\t// in\n    tag_47:\n      mload(0x40)\n      tag_49\n      swap2\n      swap1\n      tag_31\n      jump\t// in\n    tag_49:\n      mload(0x40)\n      dup1\n      swap2\n      sub\n      swap1\n      return\n        /* \"contracts/crowdfunding.sol\":2713:3145  function addRequest(string memory _description, address payable _recipient,uint _value ) public adminOnly{\r... */\n    tag_8:\n      callvalue\n      dup1\n      iszero\n      tag_50\n      jumpi\n      0x00\n      dup1\n      revert\n    tag_50:\n      pop\n      tag_51\n      0x04\n      dup1\n      calldatasize\n      sub\n      dup2\n      add\n      swap1\n      tag_52\n      swap2\n      swap1\n      tag_53\n      jump\t// in\n    tag_52:\n      tag_54\n      jump\t// in\n    tag_51:\n      stop\n        /* \"contracts/crowdfunding.sol\":3153:3423  function voteRequest(uint _requestNumber) public onlyContributor {\r... */\n    tag_9:\n      callvalue\n      dup1\n      iszero\n      tag_55\n      jumpi\n      0x00\n      dup1\n      revert\n    tag_55:\n      pop\n      tag_56\n      0x04\n      dup1\n      calldatasize\n      sub\n      dup2\n      add\n      swap1\n      tag_57\n      swap2\n      swap1\n      tag_58\n      jump\t// in\n    tag_57:\n      tag_59\n      jump\t// in\n    tag_56:\n      stop\n        /* \"contracts/crowdfunding.sol\":3431:3897  function makePayment(uint _requestNumber) public adminOnly {\r... */\n    tag_10:\n      callvalue\n      dup1\n      iszero\n      tag_60\n      jumpi\n      0x00\n      dup1\n      revert\n    tag_60:\n      pop\n      tag_61\n      0x04\n      dup1\n      calldatasize\n      sub\n      dup2\n      add\n      swap1\n      tag_62\n      swap2\n      swap1\n      tag_58\n      jump\t// in\n    tag_62:\n      tag_63\n      jump\t// in\n    tag_61:\n      stop\n        /* \"contracts/crowdfunding.sol\":546:586  mapping(uint => Request) public requests */\n    tag_11:\n      callvalue\n      dup1\n      iszero\n      tag_64\n      jumpi\n      0x00\n      dup1\n      revert\n    tag_64:\n      pop\n      tag_65\n      0x04\n      dup1\n      calldatasize\n      sub\n      dup2\n      add\n      swap1\n      tag_66\n      swap2\n      swap1\n      tag_58\n      jump\t// in\n    tag_66:\n      tag_67\n      jump\t// in\n    tag_65:\n      mload(0x40)\n      tag_68\n      swap6\n      swap5\n      swap4\n      swap3\n      swap2\n      swap1\n      tag_69\n      jump\t// in\n    tag_68:\n      mload(0x40)\n      dup1\n      swap2\n      sub\n      swap1\n      return\n        /* \"contracts/crowdfunding.sol\":593:616  uint public numRequests */\n    tag_12:\n      callvalue\n      dup1\n      iszero\n      tag_70\n      jumpi\n      0x00\n      dup1\n      revert\n    tag_70:\n      pop\n      tag_71\n      tag_72\n      jump\t// in\n    tag_71:\n      mload(0x40)\n      tag_73\n      swap2\n      swap1\n      tag_31\n      jump\t// in\n    tag_73:\n      mload(0x40)\n      dup1\n      swap2\n      sub\n      swap1\n      return\n        /* \"contracts/crowdfunding.sol\":1817:1905  function startCampaign() public adminOnly{\r... */\n    tag_13:\n      callvalue\n      dup1\n      iszero\n      tag_74\n      jumpi\n      0x00\n      dup1\n      revert\n    tag_74:\n      pop\n      tag_75\n      tag_76\n      jump\t// in\n    tag_75:\n      stop\n        /* \"contracts/crowdfunding.sol\":217:244  uint public minContribution */\n    tag_14:\n      callvalue\n      dup1\n      iszero\n      tag_77\n      jumpi\n      0x00\n      dup1\n      revert\n    tag_77:\n      pop\n      tag_78\n      tag_79\n      jump\t// in\n    tag_78:\n      mload(0x40)\n      tag_80\n      swap2\n      swap1\n      tag_31\n      jump\t// in\n    tag_80:\n      mload(0x40)\n      dup1\n      swap2\n      sub\n      swap1\n      return\n        /* \"contracts/crowdfunding.sol\":685:710  State public fundingState */\n    tag_15:\n      callvalue\n      dup1\n      iszero\n      tag_81\n      jumpi\n      0x00\n      dup1\n      revert\n    tag_81:\n      pop\n      tag_82\n      tag_83\n      jump\t// in\n    tag_82:\n      mload(0x40)\n      tag_84\n      swap2\n      swap1\n      tag_85\n      jump\t// in\n    tag_84:\n      mload(0x40)\n      dup1\n      swap2\n      sub\n      swap1\n      return\n        /* \"contracts/crowdfunding.sol\":301:325  uint public raisedAmount */\n    tag_16:\n      callvalue\n      dup1\n      iszero\n      tag_86\n      jumpi\n      0x00\n      dup1\n      revert\n    tag_86:\n      pop\n      tag_87\n      tag_88\n      jump\t// in\n    tag_87:\n      mload(0x40)\n      tag_89\n      swap2\n      swap1\n      tag_31\n      jump\t// in\n    tag_89:\n      mload(0x40)\n      dup1\n      swap2\n      sub\n      swap1\n      return\n        /* \"contracts/crowdfunding.sol\":2396:2705  function requestRefund() public payable onlyContributor{\r... */\n    tag_17:\n      tag_90\n      tag_91\n      jump\t// in\n    tag_90:\n      stop\n        /* \"contracts/crowdfunding.sol\":1913:2282  function contribute() public payable campaignRunning{\r... */\n    tag_18:\n      tag_92\n      tag_26\n      jump\t// in\n    tag_92:\n      stop\n        /* \"contracts/crowdfunding.sol\":154:174  address public admin */\n    tag_19:\n      callvalue\n      dup1\n      iszero\n      tag_93\n      jumpi\n      0x00\n      dup1\n      revert\n    tag_93:\n      pop\n      tag_94\n      tag_95\n      jump\t// in\n    tag_94:\n      mload(0x40)\n      tag_96\n      swap2\n      swap1\n      tag_97\n      jump\t// in\n    tag_96:\n      mload(0x40)\n      dup1\n      swap2\n      sub\n      swap1\n      return\n        /* \"contracts/crowdfunding.sol\":1913:2282  function contribute() public payable campaignRunning{\r... */\n    tag_26:\n        /* \"contracts/crowdfunding.sol\":1367:1380  State.RUNNING */\n      0x02\n        /* \"contracts/crowdfunding.sol\":1351:1380  fundingState == State.RUNNING */\n      0x04\n      dup2\n      gt\n      iszero\n      tag_99\n      jumpi\n      tag_100\n      tag_101\n      jump\t// in\n    tag_100:\n    tag_99:\n        /* \"contracts/crowdfunding.sol\":1351:1363  fundingState */\n      0x09\n      0x00\n      swap1\n      sload\n      swap1\n      0x0100\n      exp\n      swap1\n      div\n      0xff\n      and\n        /* \"contracts/crowdfunding.sol\":1351:1380  fundingState == State.RUNNING */\n      0x04\n      dup2\n      gt\n      iszero\n      tag_102\n      jumpi\n      tag_103\n      tag_101\n      jump\t// in\n    tag_103:\n    tag_102:\n      eq\n        /* \"contracts/crowdfunding.sol\":1343:1412  require(fundingState == State.RUNNING, \"CrowdFunding is not running\") */\n      tag_104\n      jumpi\n      mload(0x40)\n      0x08c379a000000000000000000000000000000000000000000000000000000000\n      dup2\n      mstore\n      0x04\n      add\n      tag_105\n      swap1\n      tag_106\n      jump\t// in\n    tag_105:\n      mload(0x40)\n      dup1\n      swap2\n      sub\n      swap1\n      revert\n    tag_104:\n        /* \"contracts/crowdfunding.sol\":1450:1458  deadline */\n      sload(0x04)\n        /* \"contracts/crowdfunding.sol\":1431:1446  block.timestamp */\n      timestamp\n        /* \"contracts/crowdfunding.sol\":1431:1458  block.timestamp <= deadline */\n      gt\n      iszero\n        /* \"contracts/crowdfunding.sol\":1423:1478  require(block.timestamp <= deadline, \"deadline passed\") */\n      tag_107\n      jumpi\n      mload(0x40)\n      0x08c379a000000000000000000000000000000000000000000000000000000000\n      dup2\n      mstore\n      0x04\n      add\n      tag_108\n      swap1\n      tag_109\n      jump\t// in\n    tag_108:\n      mload(0x40)\n      dup1\n      swap2\n      sub\n      swap1\n      revert\n    tag_107:\n        /* \"contracts/crowdfunding.sol\":1997:2012  minContribution */\n      sload(0x03)\n        /* \"contracts/crowdfunding.sol\":1984:1993  msg.value */\n      callvalue\n        /* \"contracts/crowdfunding.sol\":1984:2012  msg.value >= minContribution */\n      lt\n      iszero\n        /* \"contracts/crowdfunding.sol\":1976:2045  require(msg.value >= minContribution, \"didnt reach min contribution\") */\n      tag_111\n      jumpi\n      mload(0x40)\n      0x08c379a000000000000000000000000000000000000000000000000000000000\n      dup2\n      mstore\n      0x04\n      add\n      tag_112\n      swap1\n      tag_113\n      jump\t// in\n    tag_112:\n      mload(0x40)\n      dup1\n      swap2\n      sub\n      swap1\n      revert\n    tag_111:\n        /* \"contracts/crowdfunding.sol\":2087:2088  0 */\n      0x00\n        /* \"contracts/crowdfunding.sol\":2059:2071  contributors */\n      dup1\n        /* \"contracts/crowdfunding.sol\":2059:2083  contributors[msg.sender] */\n      0x00\n        /* \"contracts/crowdfunding.sol\":2072:2082  msg.sender */\n      caller\n        /* \"contracts/crowdfunding.sol\":2059:2083  contributors[msg.sender] */\n      0xffffffffffffffffffffffffffffffffffffffff\n      and\n      0xffffffffffffffffffffffffffffffffffffffff\n      and\n      dup2\n      mstore\n      0x20\n      add\n      swap1\n      dup2\n      mstore\n      0x20\n      add\n      0x00\n      keccak256\n      sload\n        /* \"contracts/crowdfunding.sol\":2059:2088  contributors[msg.sender] == 0 */\n      eq\n        /* \"contracts/crowdfunding.sol\":2056:2135  if(contributors[msg.sender] == 0){\r... */\n      iszero\n      tag_114\n      jumpi\n        /* \"contracts/crowdfunding.sol\":2104:2121  numOfContributors */\n      0x02\n      0x00\n        /* \"contracts/crowdfunding.sol\":2104:2123  numOfContributors++ */\n      dup2\n      sload\n      dup1\n      swap3\n      swap2\n      swap1\n      tag_115\n      swap1\n      tag_116\n      jump\t// in\n    tag_115:\n      swap2\n      swap1\n      pop\n      sstore\n      pop\n        /* \"contracts/crowdfunding.sol\":2056:2135  if(contributors[msg.sender] == 0){\r... */\n    tag_114:\n        /* \"contracts/crowdfunding.sol\":2173:2182  msg.value */\n      callvalue\n        /* \"contracts/crowdfunding.sol\":2145:2157  contributors */\n      0x00\n        /* \"contracts/crowdfunding.sol\":2145:2169  contributors[msg.sender] */\n      dup1\n        /* \"contracts/crowdfunding.sol\":2158:2168  msg.sender */\n      caller\n        /* \"contracts/crowdfunding.sol\":2145:2169  contributors[msg.sender] */\n      0xffffffffffffffffffffffffffffffffffffffff\n      and\n      0xffffffffffffffffffffffffffffffffffffffff\n      and\n      dup2\n      mstore\n      0x20\n      add\n      swap1\n      dup2\n      mstore\n      0x20\n      add\n      0x00\n      keccak256\n      0x00\n        /* \"contracts/crowdfunding.sol\":2145:2182  contributors[msg.sender] += msg.value */\n      dup3\n      dup3\n      sload\n      tag_117\n      swap2\n      swap1\n      tag_118\n      jump\t// in\n    tag_117:\n      swap3\n      pop\n      pop\n      dup2\n      swap1\n      sstore\n      pop\n        /* \"contracts/crowdfunding.sol\":2209:2218  msg.value */\n      callvalue\n        /* \"contracts/crowdfunding.sol\":2193:2205  raisedAmount */\n      0x06\n      0x00\n        /* \"contracts/crowdfunding.sol\":2193:2218  raisedAmount += msg.value */\n      dup3\n      dup3\n      sload\n      tag_119\n      swap2\n      swap1\n      tag_118\n      jump\t// in\n    tag_119:\n      swap3\n      pop\n      pop\n      dup2\n      swap1\n      sstore\n      pop\n        /* \"contracts/crowdfunding.sol\":2236:2274  ContributeEvent(msg.sender, msg.value) */\n      0x2daf61dec57a2c194e9e87958b1a40a5c236b5e8c6041655d664ddbd16c29320\n        /* \"contracts/crowdfunding.sol\":2252:2262  msg.sender */\n      caller\n        /* \"contracts/crowdfunding.sol\":2264:2273  msg.value */\n      callvalue\n        /* \"contracts/crowdfunding.sol\":2236:2274  ContributeEvent(msg.sender, msg.value) */\n      mload(0x40)\n      tag_120\n      swap3\n      swap2\n      swap1\n      tag_121\n      jump\t// in\n    tag_120:\n      mload(0x40)\n      dup1\n      swap2\n      sub\n      swap1\n      log1\n        /* \"contracts/crowdfunding.sol\":1913:2282  function contribute() public payable campaignRunning{\r... */\n      jump\t// out\n        /* \"contracts/crowdfunding.sol\":2290:2384  function getBalance() public view returns(uint){\r... */\n    tag_29:\n        /* \"contracts/crowdfunding.sol\":2332:2336  uint */\n      0x00\n        /* \"contracts/crowdfunding.sol\":2355:2376  address(this).balance */\n      selfbalance\n        /* \"contracts/crowdfunding.sol\":2348:2376  return address(this).balance */\n      swap1\n      pop\n        /* \"contracts/crowdfunding.sol\":2290:2384  function getBalance() public view returns(uint){\r... */\n      swap1\n      jump\t// out\n        /* \"contracts/crowdfunding.sol\":181:210  uint public numOfContributors */\n    tag_34:\n      sload(0x02)\n      dup2\n      jump\t// out\n        /* \"contracts/crowdfunding.sol\":103:147  mapping(address => uint) public contributors */\n    tag_40:\n      mstore(0x20, 0x00)\n      dup1\n      0x00\n      mstore\n      keccak256(0x00, 0x40)\n      0x00\n      swap2\n      pop\n      swap1\n      pop\n      sload\n      dup2\n      jump\t// out\n        /* \"contracts/crowdfunding.sol\":251:271  uint public deadline */\n    tag_44:\n      sload(0x04)\n      dup2\n      jump\t// out\n        /* \"contracts/crowdfunding.sol\":278:294  uint public goal */\n    tag_48:\n      sload(0x05)\n      dup2\n      jump\t// out\n        /* \"contracts/crowdfunding.sol\":2713:3145  function addRequest(string memory _description, address payable _recipient,uint _value ) public adminOnly{\r... */\n    tag_54:\n        /* \"contracts/crowdfunding.sol\":1238:1243  admin */\n      0x01\n      0x00\n      swap1\n      sload\n      swap1\n      0x0100\n      exp\n      swap1\n      div\n      0xffffffffffffffffffffffffffffffffffffffff\n      and\n        /* \"contracts/crowdfunding.sol\":1224:1243  msg.sender == admin */\n      0xffffffffffffffffffffffffffffffffffffffff\n      and\n        /* \"contracts/crowdfunding.sol\":1224:1234  msg.sender */\n      caller\n        /* \"contracts/crowdfunding.sol\":1224:1243  msg.sender == admin */\n      0xffffffffffffffffffffffffffffffffffffffff\n      and\n      eq\n        /* \"contracts/crowdfunding.sol\":1216:1278  require(msg.sender == admin, \"message sender is not an admin\") */\n      tag_124\n      jumpi\n      mload(0x40)\n      0x08c379a000000000000000000000000000000000000000000000000000000000\n      dup2\n      mstore\n      0x04\n      add\n      tag_125\n      swap1\n      tag_126\n      jump\t// in\n    tag_125:\n      mload(0x40)\n      dup1\n      swap2\n      sub\n      swap1\n      revert\n    tag_124:\n        /* \"contracts/crowdfunding.sol\":2829:2848  Request storage req */\n      0x00\n        /* \"contracts/crowdfunding.sol\":2851:2859  requests */\n      0x07\n        /* \"contracts/crowdfunding.sol\":2851:2872  requests[numRequests] */\n      0x00\n        /* \"contracts/crowdfunding.sol\":2860:2871  numRequests */\n      sload(0x08)\n        /* \"contracts/crowdfunding.sol\":2851:2872  requests[numRequests] */\n      dup2\n      mstore\n      0x20\n      add\n      swap1\n      dup2\n      mstore\n      0x20\n      add\n      0x00\n      keccak256\n        /* \"contracts/crowdfunding.sol\":2829:2872  Request storage req = requests[numRequests] */\n      swap1\n      pop\n        /* \"contracts/crowdfunding.sol\":2883:2894  numRequests */\n      0x08\n      0x00\n        /* \"contracts/crowdfunding.sol\":2883:2896  numRequests++ */\n      dup2\n      sload\n      dup1\n      swap3\n      swap2\n      swap1\n      tag_128\n      swap1\n      tag_116\n      jump\t// in\n    tag_128:\n      swap2\n      swap1\n      pop\n      sstore\n      pop\n        /* \"contracts/crowdfunding.sol\":2927:2939  _description */\n      dup4\n        /* \"contracts/crowdfunding.sol\":2909:2912  req */\n      dup2\n        /* \"contracts/crowdfunding.sol\":2909:2924  req.description */\n      0x00\n      add\n        /* \"contracts/crowdfunding.sol\":2909:2939  req.description = _description */\n      swap1\n      dup1\n      mload\n      swap1\n      0x20\n      add\n      swap1\n      tag_129\n      swap3\n      swap2\n      swap1\n      tag_130\n      jump\t// in\n    tag_129:\n      pop\n        /* \"contracts/crowdfunding.sol\":2966:2976  _recipient */\n      dup3\n        /* \"contracts/crowdfunding.sol\":2950:2953  req */\n      dup2\n        /* \"contracts/crowdfunding.sol\":2950:2963  req.recipient */\n      0x01\n      add\n      0x00\n        /* \"contracts/crowdfunding.sol\":2950:2976  req.recipient = _recipient */\n      0x0100\n      exp\n      dup2\n      sload\n      dup2\n      0xffffffffffffffffffffffffffffffffffffffff\n      mul\n      not\n      and\n      swap1\n      dup4\n      0xffffffffffffffffffffffffffffffffffffffff\n      and\n      mul\n      or\n      swap1\n      sstore\n      pop\n        /* \"contracts/crowdfunding.sol\":2999:3005  _value */\n      dup2\n        /* \"contracts/crowdfunding.sol\":2987:2990  req */\n      dup2\n        /* \"contracts/crowdfunding.sol\":2987:2996  req.value */\n      0x02\n      add\n        /* \"contracts/crowdfunding.sol\":2987:3005  req.value = _value */\n      dup2\n      swap1\n      sstore\n      pop\n        /* \"contracts/crowdfunding.sol\":3032:3037  false */\n      0x00\n        /* \"contracts/crowdfunding.sol\":3016:3019  req */\n      dup2\n        /* \"contracts/crowdfunding.sol\":3016:3029  req.completed */\n      0x03\n      add\n      0x00\n        /* \"contracts/crowdfunding.sol\":3016:3037  req.completed = false */\n      0x0100\n      exp\n      dup2\n      sload\n      dup2\n      0xff\n      mul\n      not\n      and\n      swap1\n      dup4\n      iszero\n      iszero\n      mul\n      or\n      swap1\n      sstore\n      pop\n        /* \"contracts/crowdfunding.sol\":3066:3067  0 */\n      0x00\n        /* \"contracts/crowdfunding.sol\":3048:3051  req */\n      dup2\n        /* \"contracts/crowdfunding.sol\":3048:3063  req.numOfVoters */\n      0x04\n      add\n        /* \"contracts/crowdfunding.sol\":3048:3067  req.numOfVoters = 0 */\n      dup2\n      swap1\n      sstore\n      pop\n        /* \"contracts/crowdfunding.sol\":3085:3137  CreateRequestEvent(_description, _recipient, _value) */\n      0x5392bd80651676ccaaedec1afbe841d47e369223df0ba1586110b6426ee87a3a\n        /* \"contracts/crowdfunding.sol\":3104:3116  _description */\n      dup5\n        /* \"contracts/crowdfunding.sol\":3118:3128  _recipient */\n      dup5\n        /* \"contracts/crowdfunding.sol\":3130:3136  _value */\n      dup5\n        /* \"contracts/crowdfunding.sol\":3085:3137  CreateRequestEvent(_description, _recipient, _value) */\n      mload(0x40)\n      tag_131\n      swap4\n      swap3\n      swap2\n      swap1\n      tag_132\n      jump\t// in\n    tag_131:\n      mload(0x40)\n      dup1\n      swap2\n      sub\n      swap1\n      log1\n        /* \"contracts/crowdfunding.sol\":2818:3145  {\r... */\n      pop\n        /* \"contracts/crowdfunding.sol\":2713:3145  function addRequest(string memory _description, address payable _recipient,uint _value ) public adminOnly{\r... */\n      pop\n      pop\n      pop\n      jump\t// out\n        /* \"contracts/crowdfunding.sol\":3153:3423  function voteRequest(uint _requestNumber) public onlyContributor {\r... */\n    tag_59:\n        /* \"contracts/crowdfunding.sol\":1693:1694  0 */\n      0x00\n        /* \"contracts/crowdfunding.sol\":1666:1678  contributors */\n      dup1\n        /* \"contracts/crowdfunding.sol\":1666:1690  contributors[msg.sender] */\n      0x00\n        /* \"contracts/crowdfunding.sol\":1679:1689  msg.sender */\n      caller\n        /* \"contracts/crowdfunding.sol\":1666:1690  contributors[msg.sender] */\n      0xffffffffffffffffffffffffffffffffffffffff\n      and\n      0xffffffffffffffffffffffffffffffffffffffff\n      and\n      dup2\n      mstore\n      0x20\n      add\n      swap1\n      dup2\n      mstore\n      0x20\n      add\n      0x00\n      keccak256\n      sload\n        /* \"contracts/crowdfunding.sol\":1666:1694  contributors[msg.sender] > 0 */\n      gt\n        /* \"contracts/crowdfunding.sol\":1658:1724  require(contributors[msg.sender] > 0, \"you are not a contributor\") */\n      tag_134\n      jumpi\n      mload(0x40)\n      0x08c379a000000000000000000000000000000000000000000000000000000000\n      dup2\n      mstore\n      0x04\n      add\n      tag_135\n      swap1\n      tag_136\n      jump\t// in\n    tag_135:\n      mload(0x40)\n      dup1\n      swap2\n      sub\n      swap1\n      revert\n    tag_134:\n        /* \"contracts/crowdfunding.sol\":3229:3248  Request storage req */\n      0x00\n        /* \"contracts/crowdfunding.sol\":3251:3259  requests */\n      0x07\n        /* \"contracts/crowdfunding.sol\":3251:3275  requests[_requestNumber] */\n      0x00\n        /* \"contracts/crowdfunding.sol\":3260:3274  _requestNumber */\n      dup4\n        /* \"contracts/crowdfunding.sol\":3251:3275  requests[_requestNumber] */\n      dup2\n      mstore\n      0x20\n      add\n      swap1\n      dup2\n      mstore\n      0x20\n      add\n      0x00\n      keccak256\n        /* \"contracts/crowdfunding.sol\":3229:3275  Request storage req = requests[_requestNumber] */\n      swap1\n      pop\n        /* \"contracts/crowdfunding.sol\":3320:3325  false */\n      0x00\n        /* \"contracts/crowdfunding.sol\":3294:3325  req.voters[msg.sender] == false */\n      iszero\n      iszero\n        /* \"contracts/crowdfunding.sol\":3294:3297  req */\n      dup2\n        /* \"contracts/crowdfunding.sol\":3294:3304  req.voters */\n      0x05\n      add\n        /* \"contracts/crowdfunding.sol\":3294:3316  req.voters[msg.sender] */\n      0x00\n        /* \"contracts/crowdfunding.sol\":3305:3315  msg.sender */\n      caller\n        /* \"contracts/crowdfunding.sol\":3294:3316  req.voters[msg.sender] */\n      0xffffffffffffffffffffffffffffffffffffffff\n      and\n      0xffffffffffffffffffffffffffffffffffffffff\n      and\n      dup2\n      mstore\n      0x20\n      add\n      swap1\n      dup2\n      mstore\n      0x20\n      add\n      0x00\n      keccak256\n      0x00\n      swap1\n      sload\n      swap1\n      0x0100\n      exp\n      swap1\n      div\n      0xff\n      and\n        /* \"contracts/crowdfunding.sol\":3294:3325  req.voters[msg.sender] == false */\n      iszero\n      iszero\n      eq\n        /* \"contracts/crowdfunding.sol\":3286:3347  require(req.voters[msg.sender] == false, \"you already voted\") */\n      tag_138\n      jumpi\n      mload(0x40)\n      0x08c379a000000000000000000000000000000000000000000000000000000000\n      dup2\n      mstore\n      0x04\n      add\n      tag_139\n      swap1\n      tag_140\n      jump\t// in\n    tag_139:\n      mload(0x40)\n      dup1\n      swap2\n      sub\n      swap1\n      revert\n    tag_138:\n        /* \"contracts/crowdfunding.sol\":3383:3387  true */\n      0x01\n        /* \"contracts/crowdfunding.sol\":3358:3361  req */\n      dup2\n        /* \"contracts/crowdfunding.sol\":3358:3368  req.voters */\n      0x05\n      add\n        /* \"contracts/crowdfunding.sol\":3358:3380  req.voters[msg.sender] */\n      0x00\n        /* \"contracts/crowdfunding.sol\":3369:3379  msg.sender */\n      caller\n        /* \"contracts/crowdfunding.sol\":3358:3380  req.voters[msg.sender] */\n      0xffffffffffffffffffffffffffffffffffffffff\n      and\n      0xffffffffffffffffffffffffffffffffffffffff\n      and\n      dup2\n      mstore\n      0x20\n      add\n      swap1\n      dup2\n      mstore\n      0x20\n      add\n      0x00\n      keccak256\n      0x00\n        /* \"contracts/crowdfunding.sol\":3358:3387  req.voters[msg.sender] = true */\n      0x0100\n      exp\n      dup2\n      sload\n      dup2\n      0xff\n      mul\n      not\n      and\n      swap1\n      dup4\n      iszero\n      iszero\n      mul\n      or\n      swap1\n      sstore\n      pop\n        /* \"contracts/crowdfunding.sol\":3398:3401  req */\n      dup1\n        /* \"contracts/crowdfunding.sol\":3398:3413  req.numOfVoters */\n      0x04\n      add\n      0x00\n        /* \"contracts/crowdfunding.sol\":3398:3415  req.numOfVoters++ */\n      dup2\n      sload\n      dup1\n      swap3\n      swap2\n      swap1\n      tag_141\n      swap1\n      tag_116\n      jump\t// in\n    tag_141:\n      swap2\n      swap1\n      pop\n      sstore\n      pop\n        /* \"contracts/crowdfunding.sol\":3218:3423  {\r... */\n      pop\n        /* \"contracts/crowdfunding.sol\":3153:3423  function voteRequest(uint _requestNumber) public onlyContributor {\r... */\n      pop\n      jump\t// out\n        /* \"contracts/crowdfunding.sol\":3431:3897  function makePayment(uint _requestNumber) public adminOnly {\r... */\n    tag_63:\n        /* \"contracts/crowdfunding.sol\":1238:1243  admin */\n      0x01\n      0x00\n      swap1\n      sload\n      swap1\n      0x0100\n      exp\n      swap1\n      div\n      0xffffffffffffffffffffffffffffffffffffffff\n      and\n        /* \"contracts/crowdfunding.sol\":1224:1243  msg.sender == admin */\n      0xffffffffffffffffffffffffffffffffffffffff\n      and\n        /* \"contracts/crowdfunding.sol\":1224:1234  msg.sender */\n      caller\n        /* \"contracts/crowdfunding.sol\":1224:1243  msg.sender == admin */\n      0xffffffffffffffffffffffffffffffffffffffff\n      and\n      eq\n        /* \"contracts/crowdfunding.sol\":1216:1278  require(msg.sender == admin, \"message sender is not an admin\") */\n      tag_143\n      jumpi\n      mload(0x40)\n      0x08c379a000000000000000000000000000000000000000000000000000000000\n      dup2\n      mstore\n      0x04\n      add\n      tag_144\n      swap1\n      tag_126\n      jump\t// in\n    tag_144:\n      mload(0x40)\n      dup1\n      swap2\n      sub\n      swap1\n      revert\n    tag_143:\n        /* \"contracts/crowdfunding.sol\":3525:3529  goal */\n      sload(0x05)\n        /* \"contracts/crowdfunding.sol\":3509:3521  raisedAmount */\n      sload(0x06)\n        /* \"contracts/crowdfunding.sol\":3509:3529  raisedAmount >= goal */\n      lt\n      iszero\n        /* \"contracts/crowdfunding.sol\":3501:3530  require(raisedAmount >= goal) */\n      tag_146\n      jumpi\n      0x00\n      dup1\n      revert\n    tag_146:\n        /* \"contracts/crowdfunding.sol\":3543:3562  Request storage req */\n      0x00\n        /* \"contracts/crowdfunding.sol\":3565:3573  requests */\n      0x07\n        /* \"contracts/crowdfunding.sol\":3565:3589  requests[_requestNumber] */\n      0x00\n        /* \"contracts/crowdfunding.sol\":3574:3588  _requestNumber */\n      dup4\n        /* \"contracts/crowdfunding.sol\":3565:3589  requests[_requestNumber] */\n      dup2\n      mstore\n      0x20\n      add\n      swap1\n      dup2\n      mstore\n      0x20\n      add\n      0x00\n      keccak256\n        /* \"contracts/crowdfunding.sol\":3543:3589  Request storage req = requests[_requestNumber] */\n      swap1\n      pop\n        /* \"contracts/crowdfunding.sol\":3625:3630  false */\n      0x00\n        /* \"contracts/crowdfunding.sol\":3608:3630  req.completed == false */\n      iszero\n      iszero\n        /* \"contracts/crowdfunding.sol\":3608:3611  req */\n      dup2\n        /* \"contracts/crowdfunding.sol\":3608:3621  req.completed */\n      0x03\n      add\n      0x00\n      swap1\n      sload\n      swap1\n      0x0100\n      exp\n      swap1\n      div\n      0xff\n      and\n        /* \"contracts/crowdfunding.sol\":3608:3630  req.completed == false */\n      iszero\n      iszero\n      eq\n        /* \"contracts/crowdfunding.sol\":3600:3660  require(req.completed == false, \"request already completed\") */\n      tag_147\n      jumpi\n      mload(0x40)\n      0x08c379a000000000000000000000000000000000000000000000000000000000\n      dup2\n      mstore\n      0x04\n      add\n      tag_148\n      swap1\n      tag_149\n      jump\t// in\n    tag_148:\n      mload(0x40)\n      dup1\n      swap2\n      sub\n      swap1\n      revert\n    tag_147:\n        /* \"contracts/crowdfunding.sol\":3673:3684  uint voters */\n      0x00\n        /* \"contracts/crowdfunding.sol\":3687:3690  req */\n      dup2\n        /* \"contracts/crowdfunding.sol\":3687:3702  req.numOfVoters */\n      0x04\n      add\n      sload\n        /* \"contracts/crowdfunding.sol\":3673:3702  uint voters = req.numOfVoters */\n      swap1\n      pop\n        /* \"contracts/crowdfunding.sol\":3749:3750  2 */\n      0x02\n        /* \"contracts/crowdfunding.sol\":3731:3748  numOfContributors */\n      dup1\n      sload\n        /* \"contracts/crowdfunding.sol\":3731:3750  numOfContributors/2 */\n      tag_150\n      swap2\n      swap1\n      tag_151\n      jump\t// in\n    tag_150:\n        /* \"contracts/crowdfunding.sol\":3721:3727  voters */\n      dup2\n        /* \"contracts/crowdfunding.sol\":3721:3751  voters > (numOfContributors/2) */\n      gt\n        /* \"contracts/crowdfunding.sol\":3713:3752  require(voters > (numOfContributors/2)) */\n      tag_152\n      jumpi\n      0x00\n      dup1\n      revert\n    tag_152:\n        /* \"contracts/crowdfunding.sol\":3765:3768  req */\n      dup2\n        /* \"contracts/crowdfunding.sol\":3765:3778  req.recipient */\n      0x01\n      add\n      0x00\n      swap1\n      sload\n      swap1\n      0x0100\n      exp\n      swap1\n      div\n      0xffffffffffffffffffffffffffffffffffffffff\n      and\n        /* \"contracts/crowdfunding.sol\":3765:3787  req.recipient.transfer */\n      0xffffffffffffffffffffffffffffffffffffffff\n      and\n        /* \"contracts/crowdfunding.sol\":3765:3798  req.recipient.transfer(req.value) */\n      0x08fc\n        /* \"contracts/crowdfunding.sol\":3788:3791  req */\n      dup4\n        /* \"contracts/crowdfunding.sol\":3788:3797  req.value */\n      0x02\n      add\n      sload\n        /* \"contracts/crowdfunding.sol\":3765:3798  req.recipient.transfer(req.value) */\n      swap1\n      dup2\n      iszero\n      mul\n      swap1\n      mload(0x40)\n      0x00\n      mload(0x40)\n      dup1\n      dup4\n      sub\n      dup2\n      dup6\n      dup9\n      dup9\n      call\n      swap4\n      pop\n      pop\n      pop\n      pop\n      iszero\n      dup1\n      iszero\n      tag_154\n      jumpi\n      returndatasize\n      0x00\n      dup1\n      returndatacopy\n      revert(0x00, returndatasize)\n    tag_154:\n      pop\n        /* \"contracts/crowdfunding.sol\":3825:3829  true */\n      0x01\n        /* \"contracts/crowdfunding.sol\":3809:3812  req */\n      dup3\n        /* \"contracts/crowdfunding.sol\":3809:3822  req.completed */\n      0x03\n      add\n      0x00\n        /* \"contracts/crowdfunding.sol\":3809:3829  req.completed = true */\n      0x0100\n      exp\n      dup2\n      sload\n      dup2\n      0xff\n      mul\n      not\n      and\n      swap1\n      dup4\n      iszero\n      iszero\n      mul\n      or\n      swap1\n      sstore\n      pop\n        /* \"contracts/crowdfunding.sol\":3847:3889  MakePaymentEvent(req.recipient, req.value) */\n      0x516e1673e5e85c44620165259173329adda2ad25e7bb15020c732be060b5b790\n        /* \"contracts/crowdfunding.sol\":3864:3867  req */\n      dup3\n        /* \"contracts/crowdfunding.sol\":3864:3877  req.recipient */\n      0x01\n      add\n      0x00\n      swap1\n      sload\n      swap1\n      0x0100\n      exp\n      swap1\n      div\n      0xffffffffffffffffffffffffffffffffffffffff\n      and\n        /* \"contracts/crowdfunding.sol\":3879:3882  req */\n      dup4\n        /* \"contracts/crowdfunding.sol\":3879:3888  req.value */\n      0x02\n      add\n      sload\n        /* \"contracts/crowdfunding.sol\":3847:3889  MakePaymentEvent(req.recipient, req.value) */\n      mload(0x40)\n      tag_155\n      swap3\n      swap2\n      swap1\n      tag_156\n      jump\t// in\n    tag_155:\n      mload(0x40)\n      dup1\n      swap2\n      sub\n      swap1\n      log1\n        /* \"contracts/crowdfunding.sol\":3490:3897  {\r... */\n      pop\n      pop\n        /* \"contracts/crowdfunding.sol\":3431:3897  function makePayment(uint _requestNumber) public adminOnly {\r... */\n      pop\n      jump\t// out\n        /* \"contracts/crowdfunding.sol\":546:586  mapping(uint => Request) public requests */\n    tag_67:\n      mstore(0x20, 0x07)\n      dup1\n      0x00\n      mstore\n      keccak256(0x00, 0x40)\n      0x00\n      swap2\n      pop\n      swap1\n      pop\n      dup1\n      0x00\n      add\n      dup1\n      sload\n      tag_157\n      swap1\n      tag_158\n      jump\t// in\n    tag_157:\n      dup1\n      0x1f\n      add\n      0x20\n      dup1\n      swap2\n      div\n      mul\n      0x20\n      add\n      mload(0x40)\n      swap1\n      dup2\n      add\n      0x40\n      mstore\n      dup1\n      swap3\n      swap2\n      swap1\n      dup2\n      dup2\n      mstore\n      0x20\n      add\n      dup3\n      dup1\n      sload\n      tag_159\n      swap1\n      tag_158\n      jump\t// in\n    tag_159:\n      dup1\n      iszero\n      tag_160\n      jumpi\n      dup1\n      0x1f\n      lt\n      tag_161\n      jumpi\n      0x0100\n      dup1\n      dup4\n      sload\n      div\n      mul\n      dup4\n      mstore\n      swap2\n      0x20\n      add\n      swap2\n      jump(tag_160)\n    tag_161:\n      dup3\n      add\n      swap2\n      swap1\n      0x00\n      mstore\n      keccak256(0x00, 0x20)\n      swap1\n    tag_162:\n      dup2\n      sload\n      dup2\n      mstore\n      swap1\n      0x01\n      add\n      swap1\n      0x20\n      add\n      dup1\n      dup4\n      gt\n      tag_162\n      jumpi\n      dup3\n      swap1\n      sub\n      0x1f\n      and\n      dup3\n      add\n      swap2\n    tag_160:\n      pop\n      pop\n      pop\n      pop\n      pop\n      swap1\n      dup1\n      0x01\n      add\n      0x00\n      swap1\n      sload\n      swap1\n      0x0100\n      exp\n      swap1\n      div\n      0xffffffffffffffffffffffffffffffffffffffff\n      and\n      swap1\n      dup1\n      0x02\n      add\n      sload\n      swap1\n      dup1\n      0x03\n      add\n      0x00\n      swap1\n      sload\n      swap1\n      0x0100\n      exp\n      swap1\n      div\n      0xff\n      and\n      swap1\n      dup1\n      0x04\n      add\n      sload\n      swap1\n      pop\n      dup6\n      jump\t// out\n        /* \"contracts/crowdfunding.sol\":593:616  uint public numRequests */\n    tag_72:\n      sload(0x08)\n      dup2\n      jump\t// out\n        /* \"contracts/crowdfunding.sol\":1817:1905  function startCampaign() public adminOnly{\r... */\n    tag_76:\n        /* \"contracts/crowdfunding.sol\":1238:1243  admin */\n      0x01\n      0x00\n      swap1\n      sload\n      swap1\n      0x0100\n      exp\n      swap1\n      div\n      0xffffffffffffffffffffffffffffffffffffffff\n      and\n        /* \"contracts/crowdfunding.sol\":1224:1243  msg.sender == admin */\n      0xffffffffffffffffffffffffffffffffffffffff\n      and\n        /* \"contracts/crowdfunding.sol\":1224:1234  msg.sender */\n      caller\n        /* \"contracts/crowdfunding.sol\":1224:1243  msg.sender == admin */\n      0xffffffffffffffffffffffffffffffffffffffff\n      and\n      eq\n        /* \"contracts/crowdfunding.sol\":1216:1278  require(msg.sender == admin, \"message sender is not an admin\") */\n      tag_164\n      jumpi\n      mload(0x40)\n      0x08c379a000000000000000000000000000000000000000000000000000000000\n      dup2\n      mstore\n      0x04\n      add\n      tag_165\n      swap1\n      tag_126\n      jump\t// in\n    tag_165:\n      mload(0x40)\n      dup1\n      swap2\n      sub\n      swap1\n      revert\n    tag_164:\n        /* \"contracts/crowdfunding.sol\":1884:1897  State.RUNNING */\n      0x02\n        /* \"contracts/crowdfunding.sol\":1869:1881  fundingState */\n      0x09\n      0x00\n        /* \"contracts/crowdfunding.sol\":1869:1897  fundingState = State.RUNNING */\n      0x0100\n      exp\n      dup2\n      sload\n      dup2\n      0xff\n      mul\n      not\n      and\n      swap1\n      dup4\n      0x04\n      dup2\n      gt\n      iszero\n      tag_167\n      jumpi\n      tag_168\n      tag_101\n      jump\t// in\n    tag_168:\n    tag_167:\n      mul\n      or\n      swap1\n      sstore\n      pop\n        /* \"contracts/crowdfunding.sol\":1817:1905  function startCampaign() public adminOnly{\r... */\n      jump\t// out\n        /* \"contracts/crowdfunding.sol\":217:244  uint public minContribution */\n    tag_79:\n      sload(0x03)\n      dup2\n      jump\t// out\n        /* \"contracts/crowdfunding.sol\":685:710  State public fundingState */\n    tag_83:\n      0x09\n      0x00\n      swap1\n      sload\n      swap1\n      0x0100\n      exp\n      swap1\n      div\n      0xff\n      and\n      dup2\n      jump\t// out\n        /* \"contracts/crowdfunding.sol\":301:325  uint public raisedAmount */\n    tag_88:\n      sload(0x06)\n      dup2\n      jump\t// out\n        /* \"contracts/crowdfunding.sol\":2396:2705  function requestRefund() public payable onlyContributor{\r... */\n    tag_91:\n        /* \"contracts/crowdfunding.sol\":1693:1694  0 */\n      0x00\n        /* \"contracts/crowdfunding.sol\":1666:1678  contributors */\n      dup1\n        /* \"contracts/crowdfunding.sol\":1666:1690  contributors[msg.sender] */\n      0x00\n        /* \"contracts/crowdfunding.sol\":1679:1689  msg.sender */\n      caller\n        /* \"contracts/crowdfunding.sol\":1666:1690  contributors[msg.sender] */\n      0xffffffffffffffffffffffffffffffffffffffff\n      and\n      0xffffffffffffffffffffffffffffffffffffffff\n      and\n      dup2\n      mstore\n      0x20\n      add\n      swap1\n      dup2\n      mstore\n      0x20\n      add\n      0x00\n      keccak256\n      sload\n        /* \"contracts/crowdfunding.sol\":1666:1694  contributors[msg.sender] > 0 */\n      gt\n        /* \"contracts/crowdfunding.sol\":1658:1724  require(contributors[msg.sender] > 0, \"you are not a contributor\") */\n      tag_170\n      jumpi\n      mload(0x40)\n      0x08c379a000000000000000000000000000000000000000000000000000000000\n      dup2\n      mstore\n      0x04\n      add\n      tag_171\n      swap1\n      tag_136\n      jump\t// in\n    tag_171:\n      mload(0x40)\n      dup1\n      swap2\n      sub\n      swap1\n      revert\n    tag_170:\n        /* \"contracts/crowdfunding.sol\":2486:2500  State.CANCELED */\n      0x04\n        /* \"contracts/crowdfunding.sol\":2470:2500  fundingState == State.CANCELED */\n      dup1\n      dup2\n      gt\n      iszero\n      tag_173\n      jumpi\n      tag_174\n      tag_101\n      jump\t// in\n    tag_174:\n    tag_173:\n        /* \"contracts/crowdfunding.sol\":2470:2482  fundingState */\n      0x09\n      0x00\n      swap1\n      sload\n      swap1\n      0x0100\n      exp\n      swap1\n      div\n      0xff\n      and\n        /* \"contracts/crowdfunding.sol\":2470:2500  fundingState == State.CANCELED */\n      0x04\n      dup2\n      gt\n      iszero\n      tag_175\n      jumpi\n      tag_176\n      tag_101\n      jump\t// in\n    tag_176:\n    tag_175:\n      eq\n        /* \"contracts/crowdfunding.sol\":2470:2553  fundingState == State.CANCELED || block.timestamp > deadline && raisedAmount < goal */\n      dup1\n      tag_177\n      jumpi\n      pop\n        /* \"contracts/crowdfunding.sol\":2522:2530  deadline */\n      sload(0x04)\n        /* \"contracts/crowdfunding.sol\":2504:2519  block.timestamp */\n      timestamp\n        /* \"contracts/crowdfunding.sol\":2504:2530  block.timestamp > deadline */\n      gt\n        /* \"contracts/crowdfunding.sol\":2504:2553  block.timestamp > deadline && raisedAmount < goal */\n      dup1\n      iszero\n      tag_178\n      jumpi\n      pop\n        /* \"contracts/crowdfunding.sol\":2549:2553  goal */\n      sload(0x05)\n        /* \"contracts/crowdfunding.sol\":2534:2546  raisedAmount */\n      sload(0x06)\n        /* \"contracts/crowdfunding.sol\":2534:2553  raisedAmount < goal */\n      lt\n        /* \"contracts/crowdfunding.sol\":2504:2553  block.timestamp > deadline && raisedAmount < goal */\n    tag_178:\n        /* \"contracts/crowdfunding.sol\":2470:2553  fundingState == State.CANCELED || block.timestamp > deadline && raisedAmount < goal */\n    tag_177:\n        /* \"contracts/crowdfunding.sol\":2462:2554  require(fundingState == State.CANCELED || block.timestamp > deadline && raisedAmount < goal) */\n      tag_179\n      jumpi\n      0x00\n      dup1\n      revert\n    tag_179:\n        /* \"contracts/crowdfunding.sol\":2575:2585  uint value */\n      0x00\n        /* \"contracts/crowdfunding.sol\":2588:2600  contributors */\n      dup1\n        /* \"contracts/crowdfunding.sol\":2588:2612  contributors[msg.sender] */\n      0x00\n        /* \"contracts/crowdfunding.sol\":2601:2611  msg.sender */\n      caller\n        /* \"contracts/crowdfunding.sol\":2588:2612  contributors[msg.sender] */\n      0xffffffffffffffffffffffffffffffffffffffff\n      and\n      0xffffffffffffffffffffffffffffffffffffffff\n      and\n      dup2\n      mstore\n      0x20\n      add\n      swap1\n      dup2\n      mstore\n      0x20\n      add\n      0x00\n      keccak256\n      sload\n        /* \"contracts/crowdfunding.sol\":2575:2612  uint value = contributors[msg.sender] */\n      swap1\n      pop\n        /* \"contracts/crowdfunding.sol\":2650:2651  0 */\n      0x00\n        /* \"contracts/crowdfunding.sol\":2623:2635  contributors */\n      dup1\n        /* \"contracts/crowdfunding.sol\":2623:2647  contributors[msg.sender] */\n      0x00\n        /* \"contracts/crowdfunding.sol\":2636:2646  msg.sender */\n      caller\n        /* \"contracts/crowdfunding.sol\":2623:2647  contributors[msg.sender] */\n      0xffffffffffffffffffffffffffffffffffffffff\n      and\n      0xffffffffffffffffffffffffffffffffffffffff\n      and\n      dup2\n      mstore\n      0x20\n      add\n      swap1\n      dup2\n      mstore\n      0x20\n      add\n      0x00\n      keccak256\n        /* \"contracts/crowdfunding.sol\":2623:2651  contributors[msg.sender] = 0 */\n      dup2\n      swap1\n      sstore\n      pop\n        /* \"contracts/crowdfunding.sol\":2670:2680  msg.sender */\n      caller\n        /* \"contracts/crowdfunding.sol\":2662:2690  payable(msg.sender).transfer */\n      0xffffffffffffffffffffffffffffffffffffffff\n      and\n        /* \"contracts/crowdfunding.sol\":2662:2697  payable(msg.sender).transfer(value) */\n      0x08fc\n        /* \"contracts/crowdfunding.sol\":2691:2696  value */\n      dup3\n        /* \"contracts/crowdfunding.sol\":2662:2697  payable(msg.sender).transfer(value) */\n      swap1\n      dup2\n      iszero\n      mul\n      swap1\n      mload(0x40)\n      0x00\n      mload(0x40)\n      dup1\n      dup4\n      sub\n      dup2\n      dup6\n      dup9\n      dup9\n      call\n      swap4\n      pop\n      pop\n      pop\n      pop\n      iszero\n      dup1\n      iszero\n      tag_181\n      jumpi\n      returndatasize\n      0x00\n      dup1\n      returndatacopy\n      revert(0x00, returndatasize)\n    tag_181:\n      pop\n        /* \"contracts/crowdfunding.sol\":2451:2705  {\r... */\n      pop\n        /* \"contracts/crowdfunding.sol\":2396:2705  function requestRefund() public payable onlyContributor{\r... */\n      jump\t// out\n        /* \"contracts/crowdfunding.sol\":154:174  address public admin */\n    tag_95:\n      0x01\n      0x00\n      swap1\n      sload\n      swap1\n      0x0100\n      exp\n      swap1\n      div\n      0xffffffffffffffffffffffffffffffffffffffff\n      and\n      dup2\n      jump\t// out\n    tag_130:\n      dup3\n      dup1\n      sload\n      tag_182\n      swap1\n      tag_158\n      jump\t// in\n    tag_182:\n      swap1\n      0x00\n      mstore\n      keccak256(0x00, 0x20)\n      swap1\n      0x1f\n      add\n      0x20\n      swap1\n      div\n      dup2\n      add\n      swap3\n      dup3\n      tag_184\n      jumpi\n      0x00\n      dup6\n      sstore\n      jump(tag_183)\n    tag_184:\n      dup3\n      0x1f\n      lt\n      tag_185\n      jumpi\n      dup1\n      mload\n      not(0xff)\n      and\n      dup4\n      dup1\n      add\n      or\n      dup6\n      sstore\n      jump(tag_183)\n    tag_185:\n      dup3\n      dup1\n      add\n      0x01\n      add\n      dup6\n      sstore\n      dup3\n      iszero\n      tag_183\n      jumpi\n      swap2\n      dup3\n      add\n    tag_186:\n      dup3\n      dup2\n      gt\n      iszero\n      tag_187\n      jumpi\n      dup3\n      mload\n      dup3\n      sstore\n      swap2\n      0x20\n      add\n      swap2\n      swap1\n      0x01\n      add\n      swap1\n      jump(tag_186)\n    tag_187:\n    tag_183:\n      pop\n      swap1\n      pop\n      tag_188\n      swap2\n      swap1\n      tag_189\n      jump\t// in\n    tag_188:\n      pop\n      swap1\n      jump\t// out\n    tag_189:\n    tag_190:\n      dup1\n      dup3\n      gt\n      iszero\n      tag_191\n      jumpi\n      0x00\n      dup2\n      0x00\n      swap1\n      sstore\n      pop\n      0x01\n      add\n      jump(tag_190)\n    tag_191:\n      pop\n      swap1\n      jump\t// out\n        /* \"#utility.yul\":7:419   */\n    tag_193:\n        /* \"#utility.yul\":85:90   */\n      0x00\n        /* \"#utility.yul\":110:176   */\n      tag_195\n        /* \"#utility.yul\":126:175   */\n      tag_196\n        /* \"#utility.yul\":168:174   */\n      dup5\n        /* \"#utility.yul\":126:175   */\n      tag_197\n      jump\t// in\n    tag_196:\n        /* \"#utility.yul\":110:176   */\n      tag_198\n      jump\t// in\n    tag_195:\n        /* \"#utility.yul\":101:176   */\n      swap1\n      pop\n        /* \"#utility.yul\":199:205   */\n      dup3\n        /* \"#utility.yul\":192:197   */\n      dup2\n        /* \"#utility.yul\":185:206   */\n      mstore\n        /* \"#utility.yul\":237:241   */\n      0x20\n        /* \"#utility.yul\":230:235   */\n      dup2\n        /* \"#utility.yul\":226:242   */\n      add\n        /* \"#utility.yul\":275:278   */\n      dup5\n        /* \"#utility.yul\":266:272   */\n      dup5\n        /* \"#utility.yul\":261:264   */\n      dup5\n        /* \"#utility.yul\":257:273   */\n      add\n        /* \"#utility.yul\":254:279   */\n      gt\n        /* \"#utility.yul\":251:363   */\n      iszero\n      tag_199\n      jumpi\n        /* \"#utility.yul\":282:361   */\n      tag_200\n      tag_201\n      jump\t// in\n    tag_200:\n        /* \"#utility.yul\":251:363   */\n    tag_199:\n        /* \"#utility.yul\":372:413   */\n      tag_202\n        /* \"#utility.yul\":406:412   */\n      dup5\n        /* \"#utility.yul\":401:404   */\n      dup3\n        /* \"#utility.yul\":396:399   */\n      dup6\n        /* \"#utility.yul\":372:413   */\n      tag_203\n      jump\t// in\n    tag_202:\n        /* \"#utility.yul\":91:419   */\n      pop\n        /* \"#utility.yul\":7:419   */\n      swap4\n      swap3\n      pop\n      pop\n      pop\n      jump\t// out\n        /* \"#utility.yul\":425:564   */\n    tag_204:\n        /* \"#utility.yul\":471:476   */\n      0x00\n        /* \"#utility.yul\":509:515   */\n      dup2\n        /* \"#utility.yul\":496:516   */\n      calldataload\n        /* \"#utility.yul\":487:516   */\n      swap1\n      pop\n        /* \"#utility.yul\":525:558   */\n      tag_206\n        /* \"#utility.yul\":552:557   */\n      dup2\n        /* \"#utility.yul\":525:558   */\n      tag_207\n      jump\t// in\n    tag_206:\n        /* \"#utility.yul\":425:564   */\n      swap3\n      swap2\n      pop\n      pop\n      jump\t// out\n        /* \"#utility.yul\":570:725   */\n    tag_208:\n        /* \"#utility.yul\":624:629   */\n      0x00\n        /* \"#utility.yul\":662:668   */\n      dup2\n        /* \"#utility.yul\":649:669   */\n      calldataload\n        /* \"#utility.yul\":640:669   */\n      swap1\n      pop\n        /* \"#utility.yul\":678:719   */\n      tag_210\n        /* \"#utility.yul\":713:718   */\n      dup2\n        /* \"#utility.yul\":678:719   */\n      tag_211\n      jump\t// in\n    tag_210:\n        /* \"#utility.yul\":570:725   */\n      swap3\n      swap2\n      pop\n      pop\n      jump\t// out\n        /* \"#utility.yul\":745:1085   */\n    tag_212:\n        /* \"#utility.yul\":801:806   */\n      0x00\n        /* \"#utility.yul\":850:853   */\n      dup3\n        /* \"#utility.yul\":843:847   */\n      0x1f\n        /* \"#utility.yul\":835:841   */\n      dup4\n        /* \"#utility.yul\":831:848   */\n      add\n        /* \"#utility.yul\":827:854   */\n      slt\n        /* \"#utility.yul\":817:939   */\n      tag_214\n      jumpi\n        /* \"#utility.yul\":858:937   */\n      tag_215\n      tag_216\n      jump\t// in\n    tag_215:\n        /* \"#utility.yul\":817:939   */\n    tag_214:\n        /* \"#utility.yul\":975:981   */\n      dup2\n        /* \"#utility.yul\":962:982   */\n      calldataload\n        /* \"#utility.yul\":1000:1079   */\n      tag_217\n        /* \"#utility.yul\":1075:1078   */\n      dup5\n        /* \"#utility.yul\":1067:1073   */\n      dup3\n        /* \"#utility.yul\":1060:1064   */\n      0x20\n        /* \"#utility.yul\":1052:1058   */\n      dup7\n        /* \"#utility.yul\":1048:1065   */\n      add\n        /* \"#utility.yul\":1000:1079   */\n      tag_193\n      jump\t// in\n    tag_217:\n        /* \"#utility.yul\":991:1079   */\n      swap2\n      pop\n        /* \"#utility.yul\":807:1085   */\n      pop\n        /* \"#utility.yul\":745:1085   */\n      swap3\n      swap2\n      pop\n      pop\n      jump\t// out\n        /* \"#utility.yul\":1091:1230   */\n    tag_218:\n        /* \"#utility.yul\":1137:1142   */\n      0x00\n        /* \"#utility.yul\":1175:1181   */\n      dup2\n        /* \"#utility.yul\":1162:1182   */\n      calldataload\n        /* \"#utility.yul\":1153:1182   */\n      swap1\n      pop\n        /* \"#utility.yul\":1191:1224   */\n      tag_220\n        /* \"#utility.yul\":1218:1223   */\n      dup2\n        /* \"#utility.yul\":1191:1224   */\n      tag_221\n      jump\t// in\n    tag_220:\n        /* \"#utility.yul\":1091:1230   */\n      swap3\n      swap2\n      pop\n      pop\n      jump\t// out\n        /* \"#utility.yul\":1236:1565   */\n    tag_39:\n        /* \"#utility.yul\":1295:1301   */\n      0x00\n        /* \"#utility.yul\":1344:1346   */\n      0x20\n        /* \"#utility.yul\":1332:1341   */\n      dup3\n        /* \"#utility.yul\":1323:1330   */\n      dup5\n        /* \"#utility.yul\":1319:1342   */\n      sub\n        /* \"#utility.yul\":1315:1347   */\n      slt\n        /* \"#utility.yul\":1312:1431   */\n      iszero\n      tag_223\n      jumpi\n        /* \"#utility.yul\":1350:1429   */\n      tag_224\n      tag_225\n      jump\t// in\n    tag_224:\n        /* \"#utility.yul\":1312:1431   */\n    tag_223:\n        /* \"#utility.yul\":1470:1471   */\n      0x00\n        /* \"#utility.yul\":1495:1548   */\n      tag_226\n        /* \"#utility.yul\":1540:1547   */\n      dup5\n        /* \"#utility.yul\":1531:1537   */\n      dup3\n        /* \"#utility.yul\":1520:1529   */\n      dup6\n        /* \"#utility.yul\":1516:1538   */\n      add\n        /* \"#utility.yul\":1495:1548   */\n      tag_204\n      jump\t// in\n    tag_226:\n        /* \"#utility.yul\":1485:1548   */\n      swap2\n      pop\n        /* \"#utility.yul\":1441:1558   */\n      pop\n        /* \"#utility.yul\":1236:1565   */\n      swap3\n      swap2\n      pop\n      pop\n      jump\t// out\n        /* \"#utility.yul\":1571:2386   */\n    tag_53:\n        /* \"#utility.yul\":1666:1672   */\n      0x00\n        /* \"#utility.yul\":1674:1680   */\n      dup1\n        /* \"#utility.yul\":1682:1688   */\n      0x00\n        /* \"#utility.yul\":1731:1733   */\n      0x60\n        /* \"#utility.yul\":1719:1728   */\n      dup5\n        /* \"#utility.yul\":1710:1717   */\n      dup7\n        /* \"#utility.yul\":1706:1729   */\n      sub\n        /* \"#utility.yul\":1702:1734   */\n      slt\n        /* \"#utility.yul\":1699:1818   */\n      iszero\n      tag_228\n      jumpi\n        /* \"#utility.yul\":1737:1816   */\n      tag_229\n      tag_225\n      jump\t// in\n    tag_229:\n        /* \"#utility.yul\":1699:1818   */\n    tag_228:\n        /* \"#utility.yul\":1885:1886   */\n      0x00\n        /* \"#utility.yul\":1874:1883   */\n      dup5\n        /* \"#utility.yul\":1870:1887   */\n      add\n        /* \"#utility.yul\":1857:1888   */\n      calldataload\n        /* \"#utility.yul\":1915:1933   */\n      0xffffffffffffffff\n        /* \"#utility.yul\":1907:1913   */\n      dup2\n        /* \"#utility.yul\":1904:1934   */\n      gt\n        /* \"#utility.yul\":1901:2018   */\n      iszero\n      tag_230\n      jumpi\n        /* \"#utility.yul\":1937:2016   */\n      tag_231\n      tag_232\n      jump\t// in\n    tag_231:\n        /* \"#utility.yul\":1901:2018   */\n    tag_230:\n        /* \"#utility.yul\":2042:2105   */\n      tag_233\n        /* \"#utility.yul\":2097:2104   */\n      dup7\n        /* \"#utility.yul\":2088:2094   */\n      dup3\n        /* \"#utility.yul\":2077:2086   */\n      dup8\n        /* \"#utility.yul\":2073:2095   */\n      add\n        /* \"#utility.yul\":2042:2105   */\n      tag_212\n      jump\t// in\n    tag_233:\n        /* \"#utility.yul\":2032:2105   */\n      swap4\n      pop\n        /* \"#utility.yul\":1828:2115   */\n      pop\n        /* \"#utility.yul\":2154:2156   */\n      0x20\n        /* \"#utility.yul\":2180:2241   */\n      tag_234\n        /* \"#utility.yul\":2233:2240   */\n      dup7\n        /* \"#utility.yul\":2224:2230   */\n      dup3\n        /* \"#utility.yul\":2213:2222   */\n      dup8\n        /* \"#utility.yul\":2209:2231   */\n      add\n        /* \"#utility.yul\":2180:2241   */\n      tag_208\n      jump\t// in\n    tag_234:\n        /* \"#utility.yul\":2170:2241   */\n      swap3\n      pop\n        /* \"#utility.yul\":2125:2251   */\n      pop\n        /* \"#utility.yul\":2290:2292   */\n      0x40\n        /* \"#utility.yul\":2316:2369   */\n      tag_235\n        /* \"#utility.yul\":2361:2368   */\n      dup7\n        /* \"#utility.yul\":2352:2358   */\n      dup3\n        /* \"#utility.yul\":2341:2350   */\n      dup8\n        /* \"#utility.yul\":2337:2359   */\n      add\n        /* \"#utility.yul\":2316:2369   */\n      tag_218\n      jump\t// in\n    tag_235:\n        /* \"#utility.yul\":2306:2369   */\n      swap2\n      pop\n        /* \"#utility.yul\":2261:2379   */\n      pop\n        /* \"#utility.yul\":1571:2386   */\n      swap3\n      pop\n      swap3\n      pop\n      swap3\n      jump\t// out\n        /* \"#utility.yul\":2392:2721   */\n    tag_58:\n        /* \"#utility.yul\":2451:2457   */\n      0x00\n        /* \"#utility.yul\":2500:2502   */\n      0x20\n        /* \"#utility.yul\":2488:2497   */\n      dup3\n        /* \"#utility.yul\":2479:2486   */\n      dup5\n        /* \"#utility.yul\":2475:2498   */\n      sub\n        /* \"#utility.yul\":2471:2503   */\n      slt\n        /* \"#utility.yul\":2468:2587   */\n      iszero\n      tag_237\n      jumpi\n        /* \"#utility.yul\":2506:2585   */\n      tag_238\n      tag_225\n      jump\t// in\n    tag_238:\n        /* \"#utility.yul\":2468:2587   */\n    tag_237:\n        /* \"#utility.yul\":2626:2627   */\n      0x00\n        /* \"#utility.yul\":2651:2704   */\n      tag_239\n        /* \"#utility.yul\":2696:2703   */\n      dup5\n        /* \"#utility.yul\":2687:2693   */\n      dup3\n        /* \"#utility.yul\":2676:2685   */\n      dup6\n        /* \"#utility.yul\":2672:2694   */\n      add\n        /* \"#utility.yul\":2651:2704   */\n      tag_218\n      jump\t// in\n    tag_239:\n        /* \"#utility.yul\":2641:2704   */\n      swap2\n      pop\n        /* \"#utility.yul\":2597:2714   */\n      pop\n        /* \"#utility.yul\":2392:2721   */\n      swap3\n      swap2\n      pop\n      pop\n      jump\t// out\n        /* \"#utility.yul\":2727:2874   */\n    tag_240:\n        /* \"#utility.yul\":2822:2867   */\n      tag_242\n        /* \"#utility.yul\":2861:2866   */\n      dup2\n        /* \"#utility.yul\":2822:2867   */\n      tag_243\n      jump\t// in\n    tag_242:\n        /* \"#utility.yul\":2817:2820   */\n      dup3\n        /* \"#utility.yul\":2810:2868   */\n      mstore\n        /* \"#utility.yul\":2727:2874   */\n      pop\n      pop\n      jump\t// out\n        /* \"#utility.yul\":2880:3022   */\n    tag_244:\n        /* \"#utility.yul\":2983:3015   */\n      tag_246\n        /* \"#utility.yul\":3009:3014   */\n      dup2\n        /* \"#utility.yul\":2983:3015   */\n      tag_247\n      jump\t// in\n    tag_246:\n        /* \"#utility.yul\":2978:2981   */\n      dup3\n        /* \"#utility.yul\":2971:3016   */\n      mstore\n        /* \"#utility.yul\":2880:3022   */\n      pop\n      pop\n      jump\t// out\n        /* \"#utility.yul\":3028:3146   */\n    tag_248:\n        /* \"#utility.yul\":3115:3139   */\n      tag_250\n        /* \"#utility.yul\":3133:3138   */\n      dup2\n        /* \"#utility.yul\":3115:3139   */\n      tag_251\n      jump\t// in\n    tag_250:\n        /* \"#utility.yul\":3110:3113   */\n      dup3\n        /* \"#utility.yul\":3103:3140   */\n      mstore\n        /* \"#utility.yul\":3028:3146   */\n      pop\n      pop\n      jump\t// out\n        /* \"#utility.yul\":3152:3261   */\n    tag_252:\n        /* \"#utility.yul\":3233:3254   */\n      tag_254\n        /* \"#utility.yul\":3248:3253   */\n      dup2\n        /* \"#utility.yul\":3233:3254   */\n      tag_255\n      jump\t// in\n    tag_254:\n        /* \"#utility.yul\":3228:3231   */\n      dup3\n        /* \"#utility.yul\":3221:3255   */\n      mstore\n        /* \"#utility.yul\":3152:3261   */\n      pop\n      pop\n      jump\t// out\n        /* \"#utility.yul\":3267:3410   */\n    tag_256:\n        /* \"#utility.yul\":3360:3403   */\n      tag_258\n        /* \"#utility.yul\":3397:3402   */\n      dup2\n        /* \"#utility.yul\":3360:3403   */\n      tag_259\n      jump\t// in\n    tag_258:\n        /* \"#utility.yul\":3355:3358   */\n      dup3\n        /* \"#utility.yul\":3348:3404   */\n      mstore\n        /* \"#utility.yul\":3267:3410   */\n      pop\n      pop\n      jump\t// out\n        /* \"#utility.yul\":3416:3780   */\n    tag_260:\n        /* \"#utility.yul\":3504:3507   */\n      0x00\n        /* \"#utility.yul\":3532:3571   */\n      tag_262\n        /* \"#utility.yul\":3565:3570   */\n      dup3\n        /* \"#utility.yul\":3532:3571   */\n      tag_263\n      jump\t// in\n    tag_262:\n        /* \"#utility.yul\":3587:3658   */\n      tag_264\n        /* \"#utility.yul\":3651:3657   */\n      dup2\n        /* \"#utility.yul\":3646:3649   */\n      dup6\n        /* \"#utility.yul\":3587:3658   */\n      tag_265\n      jump\t// in\n    tag_264:\n        /* \"#utility.yul\":3580:3658   */\n      swap4\n      pop\n        /* \"#utility.yul\":3667:3719   */\n      tag_266\n        /* \"#utility.yul\":3712:3718   */\n      dup2\n        /* \"#utility.yul\":3707:3710   */\n      dup6\n        /* \"#utility.yul\":3700:3704   */\n      0x20\n        /* \"#utility.yul\":3693:3698   */\n      dup7\n        /* \"#utility.yul\":3689:3705   */\n      add\n        /* \"#utility.yul\":3667:3719   */\n      tag_267\n      jump\t// in\n    tag_266:\n        /* \"#utility.yul\":3744:3773   */\n      tag_268\n        /* \"#utility.yul\":3766:3772   */\n      dup2\n        /* \"#utility.yul\":3744:3773   */\n      tag_269\n      jump\t// in\n    tag_268:\n        /* \"#utility.yul\":3739:3742   */\n      dup5\n        /* \"#utility.yul\":3735:3774   */\n      add\n        /* \"#utility.yul\":3728:3774   */\n      swap2\n      pop\n        /* \"#utility.yul\":3508:3780   */\n      pop\n        /* \"#utility.yul\":3416:3780   */\n      swap3\n      swap2\n      pop\n      pop\n      jump\t// out\n        /* \"#utility.yul\":3786:4152   */\n    tag_270:\n        /* \"#utility.yul\":3928:3931   */\n      0x00\n        /* \"#utility.yul\":3949:4016   */\n      tag_272\n        /* \"#utility.yul\":4013:4015   */\n      0x19\n        /* \"#utility.yul\":4008:4011   */\n      dup4\n        /* \"#utility.yul\":3949:4016   */\n      tag_265\n      jump\t// in\n    tag_272:\n        /* \"#utility.yul\":3942:4016   */\n      swap2\n      pop\n        /* \"#utility.yul\":4025:4118   */\n      tag_273\n        /* \"#utility.yul\":4114:4117   */\n      dup3\n        /* \"#utility.yul\":4025:4118   */\n      tag_274\n      jump\t// in\n    tag_273:\n        /* \"#utility.yul\":4143:4145   */\n      0x20\n        /* \"#utility.yul\":4138:4141   */\n      dup3\n        /* \"#utility.yul\":4134:4146   */\n      add\n        /* \"#utility.yul\":4127:4146   */\n      swap1\n      pop\n        /* \"#utility.yul\":3786:4152   */\n      swap2\n      swap1\n      pop\n      jump\t// out\n        /* \"#utility.yul\":4158:4524   */\n    tag_275:\n        /* \"#utility.yul\":4300:4303   */\n      0x00\n        /* \"#utility.yul\":4321:4388   */\n      tag_277\n        /* \"#utility.yul\":4385:4387   */\n      0x1c\n        /* \"#utility.yul\":4380:4383   */\n      dup4\n        /* \"#utility.yul\":4321:4388   */\n      tag_265\n      jump\t// in\n    tag_277:\n        /* \"#utility.yul\":4314:4388   */\n      swap2\n      pop\n        /* \"#utility.yul\":4397:4490   */\n      tag_278\n        /* \"#utility.yul\":4486:4489   */\n      dup3\n        /* \"#utility.yul\":4397:4490   */\n      tag_279\n      jump\t// in\n    tag_278:\n        /* \"#utility.yul\":4515:4517   */\n      0x20\n        /* \"#utility.yul\":4510:4513   */\n      dup3\n        /* \"#utility.yul\":4506:4518   */\n      add\n        /* \"#utility.yul\":4499:4518   */\n      swap1\n      pop\n        /* \"#utility.yul\":4158:4524   */\n      swap2\n      swap1\n      pop\n      jump\t// out\n        /* \"#utility.yul\":4530:4896   */\n    tag_280:\n        /* \"#utility.yul\":4672:4675   */\n      0x00\n        /* \"#utility.yul\":4693:4760   */\n      tag_282\n        /* \"#utility.yul\":4757:4759   */\n      0x19\n        /* \"#utility.yul\":4752:4755   */\n      dup4\n        /* \"#utility.yul\":4693:4760   */\n      tag_265\n      jump\t// in\n    tag_282:\n        /* \"#utility.yul\":4686:4760   */\n      swap2\n      pop\n        /* \"#utility.yul\":4769:4862   */\n      tag_283\n        /* \"#utility.yul\":4858:4861   */\n      dup3\n        /* \"#utility.yul\":4769:4862   */\n      tag_284\n      jump\t// in\n    tag_283:\n        /* \"#utility.yul\":4887:4889   */\n      0x20\n        /* \"#utility.yul\":4882:4885   */\n      dup3\n        /* \"#utility.yul\":4878:4890   */\n      add\n        /* \"#utility.yul\":4871:4890   */\n      swap1\n      pop\n        /* \"#utility.yul\":4530:4896   */\n      swap2\n      swap1\n      pop\n      jump\t// out\n        /* \"#utility.yul\":4902:5268   */\n    tag_285:\n        /* \"#utility.yul\":5044:5047   */\n      0x00\n        /* \"#utility.yul\":5065:5132   */\n      tag_287\n        /* \"#utility.yul\":5129:5131   */\n      0x11\n        /* \"#utility.yul\":5124:5127   */\n      dup4\n        /* \"#utility.yul\":5065:5132   */\n      tag_265\n      jump\t// in\n    tag_287:\n        /* \"#utility.yul\":5058:5132   */\n      swap2\n      pop\n        /* \"#utility.yul\":5141:5234   */\n      tag_288\n        /* \"#utility.yul\":5230:5233   */\n      dup3\n        /* \"#utility.yul\":5141:5234   */\n      tag_289\n      jump\t// in\n    tag_288:\n        /* \"#utility.yul\":5259:5261   */\n      0x20\n        /* \"#utility.yul\":5254:5257   */\n      dup3\n        /* \"#utility.yul\":5250:5262   */\n      add\n        /* \"#utility.yul\":5243:5262   */\n      swap1\n      pop\n        /* \"#utility.yul\":4902:5268   */\n      swap2\n      swap1\n      pop\n      jump\t// out\n        /* \"#utility.yul\":5274:5640   */\n    tag_290:\n        /* \"#utility.yul\":5416:5419   */\n      0x00\n        /* \"#utility.yul\":5437:5504   */\n      tag_292\n        /* \"#utility.yul\":5501:5503   */\n      0x1e\n        /* \"#utility.yul\":5496:5499   */\n      dup4\n        /* \"#utility.yul\":5437:5504   */\n      tag_265\n      jump\t// in\n    tag_292:\n        /* \"#utility.yul\":5430:5504   */\n      swap2\n      pop\n        /* \"#utility.yul\":5513:5606   */\n      tag_293\n        /* \"#utility.yul\":5602:5605   */\n      dup3\n        /* \"#utility.yul\":5513:5606   */\n      tag_294\n      jump\t// in\n    tag_293:\n        /* \"#utility.yul\":5631:5633   */\n      0x20\n        /* \"#utility.yul\":5626:5629   */\n      dup3\n        /* \"#utility.yul\":5622:5634   */\n      add\n        /* \"#utility.yul\":5615:5634   */\n      swap1\n      pop\n        /* \"#utility.yul\":5274:5640   */\n      swap2\n      swap1\n      pop\n      jump\t// out\n        /* \"#utility.yul\":5646:6012   */\n    tag_295:\n        /* \"#utility.yul\":5788:5791   */\n      0x00\n        /* \"#utility.yul\":5809:5876   */\n      tag_297\n        /* \"#utility.yul\":5873:5875   */\n      0x0f\n        /* \"#utility.yul\":5868:5871   */\n      dup4\n        /* \"#utility.yul\":5809:5876   */\n      tag_265\n      jump\t// in\n    tag_297:\n        /* \"#utility.yul\":5802:5876   */\n      swap2\n      pop\n        /* \"#utility.yul\":5885:5978   */\n      tag_298\n        /* \"#utility.yul\":5974:5977   */\n      dup3\n        /* \"#utility.yul\":5885:5978   */\n      tag_299\n      jump\t// in\n    tag_298:\n        /* \"#utility.yul\":6003:6005   */\n      0x20\n        /* \"#utility.yul\":5998:6001   */\n      dup3\n        /* \"#utility.yul\":5994:6006   */\n      add\n        /* \"#utility.yul\":5987:6006   */\n      swap1\n      pop\n        /* \"#utility.yul\":5646:6012   */\n      swap2\n      swap1\n      pop\n      jump\t// out\n        /* \"#utility.yul\":6018:6384   */\n    tag_300:\n        /* \"#utility.yul\":6160:6163   */\n      0x00\n        /* \"#utility.yul\":6181:6248   */\n      tag_302\n        /* \"#utility.yul\":6245:6247   */\n      0x1b\n        /* \"#utility.yul\":6240:6243   */\n      dup4\n        /* \"#utility.yul\":6181:6248   */\n      tag_265\n      jump\t// in\n    tag_302:\n        /* \"#utility.yul\":6174:6248   */\n      swap2\n      pop\n        /* \"#utility.yul\":6257:6350   */\n      tag_303\n        /* \"#utility.yul\":6346:6349   */\n      dup3\n        /* \"#utility.yul\":6257:6350   */\n      tag_304\n      jump\t// in\n    tag_303:\n        /* \"#utility.yul\":6375:6377   */\n      0x20\n        /* \"#utility.yul\":6370:6373   */\n      dup3\n        /* \"#utility.yul\":6366:6378   */\n      add\n        /* \"#utility.yul\":6359:6378   */\n      swap1\n      pop\n        /* \"#utility.yul\":6018:6384   */\n      swap2\n      swap1\n      pop\n      jump\t// out\n        /* \"#utility.yul\":6390:6508   */\n    tag_305:\n        /* \"#utility.yul\":6477:6501   */\n      tag_307\n        /* \"#utility.yul\":6495:6500   */\n      dup2\n        /* \"#utility.yul\":6477:6501   */\n      tag_308\n      jump\t// in\n    tag_307:\n        /* \"#utility.yul\":6472:6475   */\n      dup3\n        /* \"#utility.yul\":6465:6502   */\n      mstore\n        /* \"#utility.yul\":6390:6508   */\n      pop\n      pop\n      jump\t// out\n        /* \"#utility.yul\":6514:6736   */\n    tag_97:\n        /* \"#utility.yul\":6607:6611   */\n      0x00\n        /* \"#utility.yul\":6645:6647   */\n      0x20\n        /* \"#utility.yul\":6634:6643   */\n      dup3\n        /* \"#utility.yul\":6630:6648   */\n      add\n        /* \"#utility.yul\":6622:6648   */\n      swap1\n      pop\n        /* \"#utility.yul\":6658:6729   */\n      tag_310\n        /* \"#utility.yul\":6726:6727   */\n      0x00\n        /* \"#utility.yul\":6715:6724   */\n      dup4\n        /* \"#utility.yul\":6711:6728   */\n      add\n        /* \"#utility.yul\":6702:6708   */\n      dup5\n        /* \"#utility.yul\":6658:6729   */\n      tag_248\n      jump\t// in\n    tag_310:\n        /* \"#utility.yul\":6514:6736   */\n      swap3\n      swap2\n      pop\n      pop\n      jump\t// out\n        /* \"#utility.yul\":6742:7090   */\n    tag_156:\n        /* \"#utility.yul\":6871:6875   */\n      0x00\n        /* \"#utility.yul\":6909:6911   */\n      0x40\n        /* \"#utility.yul\":6898:6907   */\n      dup3\n        /* \"#utility.yul\":6894:6912   */\n      add\n        /* \"#utility.yul\":6886:6912   */\n      swap1\n      pop\n        /* \"#utility.yul\":6922:7001   */\n      tag_312\n        /* \"#utility.yul\":6998:6999   */\n      0x00\n        /* \"#utility.yul\":6987:6996   */\n      dup4\n        /* \"#utility.yul\":6983:7000   */\n      add\n        /* \"#utility.yul\":6974:6980   */\n      dup6\n        /* \"#utility.yul\":6922:7001   */\n      tag_240\n      jump\t// in\n    tag_312:\n        /* \"#utility.yul\":7011:7083   */\n      tag_313\n        /* \"#utility.yul\":7079:7081   */\n      0x20\n        /* \"#utility.yul\":7068:7077   */\n      dup4\n        /* \"#utility.yul\":7064:7082   */\n      add\n        /* \"#utility.yul\":7055:7061   */\n      dup5\n        /* \"#utility.yul\":7011:7083   */\n      tag_305\n      jump\t// in\n    tag_313:\n        /* \"#utility.yul\":6742:7090   */\n      swap4\n      swap3\n      pop\n      pop\n      pop\n      jump\t// out\n        /* \"#utility.yul\":7096:7428   */\n    tag_121:\n        /* \"#utility.yul\":7217:7221   */\n      0x00\n        /* \"#utility.yul\":7255:7257   */\n      0x40\n        /* \"#utility.yul\":7244:7253   */\n      dup3\n        /* \"#utility.yul\":7240:7258   */\n      add\n        /* \"#utility.yul\":7232:7258   */\n      swap1\n      pop\n        /* \"#utility.yul\":7268:7339   */\n      tag_315\n        /* \"#utility.yul\":7336:7337   */\n      0x00\n        /* \"#utility.yul\":7325:7334   */\n      dup4\n        /* \"#utility.yul\":7321:7338   */\n      add\n        /* \"#utility.yul\":7312:7318   */\n      dup6\n        /* \"#utility.yul\":7268:7339   */\n      tag_248\n      jump\t// in\n    tag_315:\n        /* \"#utility.yul\":7349:7421   */\n      tag_316\n        /* \"#utility.yul\":7417:7419   */\n      0x20\n        /* \"#utility.yul\":7406:7415   */\n      dup4\n        /* \"#utility.yul\":7402:7420   */\n      add\n        /* \"#utility.yul\":7393:7399   */\n      dup5\n        /* \"#utility.yul\":7349:7421   */\n      tag_305\n      jump\t// in\n    tag_316:\n        /* \"#utility.yul\":7096:7428   */\n      swap4\n      swap3\n      pop\n      pop\n      pop\n      jump\t// out\n        /* \"#utility.yul\":7434:7668   */\n    tag_85:\n        /* \"#utility.yul\":7533:7537   */\n      0x00\n        /* \"#utility.yul\":7571:7573   */\n      0x20\n        /* \"#utility.yul\":7560:7569   */\n      dup3\n        /* \"#utility.yul\":7556:7574   */\n      add\n        /* \"#utility.yul\":7548:7574   */\n      swap1\n      pop\n        /* \"#utility.yul\":7584:7661   */\n      tag_318\n        /* \"#utility.yul\":7658:7659   */\n      0x00\n        /* \"#utility.yul\":7647:7656   */\n      dup4\n        /* \"#utility.yul\":7643:7660   */\n      add\n        /* \"#utility.yul\":7634:7640   */\n      dup5\n        /* \"#utility.yul\":7584:7661   */\n      tag_256\n      jump\t// in\n    tag_318:\n        /* \"#utility.yul\":7434:7668   */\n      swap3\n      swap2\n      pop\n      pop\n      jump\t// out\n        /* \"#utility.yul\":7674:8223   */\n    tag_132:\n        /* \"#utility.yul\":7851:7855   */\n      0x00\n        /* \"#utility.yul\":7889:7891   */\n      0x60\n        /* \"#utility.yul\":7878:7887   */\n      dup3\n        /* \"#utility.yul\":7874:7892   */\n      add\n        /* \"#utility.yul\":7866:7892   */\n      swap1\n      pop\n        /* \"#utility.yul\":7938:7947   */\n      dup2\n        /* \"#utility.yul\":7932:7936   */\n      dup2\n        /* \"#utility.yul\":7928:7948   */\n      sub\n        /* \"#utility.yul\":7924:7925   */\n      0x00\n        /* \"#utility.yul\":7913:7922   */\n      dup4\n        /* \"#utility.yul\":7909:7926   */\n      add\n        /* \"#utility.yul\":7902:7949   */\n      mstore\n        /* \"#utility.yul\":7966:8044   */\n      tag_320\n        /* \"#utility.yul\":8039:8043   */\n      dup2\n        /* \"#utility.yul\":8030:8036   */\n      dup7\n        /* \"#utility.yul\":7966:8044   */\n      tag_260\n      jump\t// in\n    tag_320:\n        /* \"#utility.yul\":7958:8044   */\n      swap1\n      pop\n        /* \"#utility.yul\":8054:8134   */\n      tag_321\n        /* \"#utility.yul\":8130:8132   */\n      0x20\n        /* \"#utility.yul\":8119:8128   */\n      dup4\n        /* \"#utility.yul\":8115:8133   */\n      add\n        /* \"#utility.yul\":8106:8112   */\n      dup6\n        /* \"#utility.yul\":8054:8134   */\n      tag_240\n      jump\t// in\n    tag_321:\n        /* \"#utility.yul\":8144:8216   */\n      tag_322\n        /* \"#utility.yul\":8212:8214   */\n      0x40\n        /* \"#utility.yul\":8201:8210   */\n      dup4\n        /* \"#utility.yul\":8197:8215   */\n      add\n        /* \"#utility.yul\":8188:8194   */\n      dup5\n        /* \"#utility.yul\":8144:8216   */\n      tag_305\n      jump\t// in\n    tag_322:\n        /* \"#utility.yul\":7674:8223   */\n      swap5\n      swap4\n      pop\n      pop\n      pop\n      pop\n      jump\t// out\n        /* \"#utility.yul\":8229:9004   */\n    tag_69:\n        /* \"#utility.yul\":8464:8468   */\n      0x00\n        /* \"#utility.yul\":8502:8505   */\n      0xa0\n        /* \"#utility.yul\":8491:8500   */\n      dup3\n        /* \"#utility.yul\":8487:8506   */\n      add\n        /* \"#utility.yul\":8479:8506   */\n      swap1\n      pop\n        /* \"#utility.yul\":8552:8561   */\n      dup2\n        /* \"#utility.yul\":8546:8550   */\n      dup2\n        /* \"#utility.yul\":8542:8562   */\n      sub\n        /* \"#utility.yul\":8538:8539   */\n      0x00\n        /* \"#utility.yul\":8527:8536   */\n      dup4\n        /* \"#utility.yul\":8523:8540   */\n      add\n        /* \"#utility.yul\":8516:8563   */\n      mstore\n        /* \"#utility.yul\":8580:8658   */\n      tag_324\n        /* \"#utility.yul\":8653:8657   */\n      dup2\n        /* \"#utility.yul\":8644:8650   */\n      dup9\n        /* \"#utility.yul\":8580:8658   */\n      tag_260\n      jump\t// in\n    tag_324:\n        /* \"#utility.yul\":8572:8658   */\n      swap1\n      pop\n        /* \"#utility.yul\":8668:8756   */\n      tag_325\n        /* \"#utility.yul\":8752:8754   */\n      0x20\n        /* \"#utility.yul\":8741:8750   */\n      dup4\n        /* \"#utility.yul\":8737:8755   */\n      add\n        /* \"#utility.yul\":8728:8734   */\n      dup8\n        /* \"#utility.yul\":8668:8756   */\n      tag_244\n      jump\t// in\n    tag_325:\n        /* \"#utility.yul\":8766:8838   */\n      tag_326\n        /* \"#utility.yul\":8834:8836   */\n      0x40\n        /* \"#utility.yul\":8823:8832   */\n      dup4\n        /* \"#utility.yul\":8819:8837   */\n      add\n        /* \"#utility.yul\":8810:8816   */\n      dup7\n        /* \"#utility.yul\":8766:8838   */\n      tag_305\n      jump\t// in\n    tag_326:\n        /* \"#utility.yul\":8848:8914   */\n      tag_327\n        /* \"#utility.yul\":8910:8912   */\n      0x60\n        /* \"#utility.yul\":8899:8908   */\n      dup4\n        /* \"#utility.yul\":8895:8913   */\n      add\n        /* \"#utility.yul\":8886:8892   */\n      dup6\n        /* \"#utility.yul\":8848:8914   */\n      tag_252\n      jump\t// in\n    tag_327:\n        /* \"#utility.yul\":8924:8997   */\n      tag_328\n        /* \"#utility.yul\":8992:8995   */\n      0x80\n        /* \"#utility.yul\":8981:8990   */\n      dup4\n        /* \"#utility.yul\":8977:8996   */\n      add\n        /* \"#utility.yul\":8968:8974   */\n      dup5\n        /* \"#utility.yul\":8924:8997   */\n      tag_305\n      jump\t// in\n    tag_328:\n        /* \"#utility.yul\":8229:9004   */\n      swap7\n      swap6\n      pop\n      pop\n      pop\n      pop\n      pop\n      pop\n      jump\t// out\n        /* \"#utility.yul\":9010:9429   */\n    tag_149:\n        /* \"#utility.yul\":9176:9180   */\n      0x00\n        /* \"#utility.yul\":9214:9216   */\n      0x20\n        /* \"#utility.yul\":9203:9212   */\n      dup3\n        /* \"#utility.yul\":9199:9217   */\n      add\n        /* \"#utility.yul\":9191:9217   */\n      swap1\n      pop\n        /* \"#utility.yul\":9263:9272   */\n      dup2\n        /* \"#utility.yul\":9257:9261   */\n      dup2\n        /* \"#utility.yul\":9253:9273   */\n      sub\n        /* \"#utility.yul\":9249:9250   */\n      0x00\n        /* \"#utility.yul\":9238:9247   */\n      dup4\n        /* \"#utility.yul\":9234:9251   */\n      add\n        /* \"#utility.yul\":9227:9274   */\n      mstore\n        /* \"#utility.yul\":9291:9422   */\n      tag_330\n        /* \"#utility.yul\":9417:9421   */\n      dup2\n        /* \"#utility.yul\":9291:9422   */\n      tag_270\n      jump\t// in\n    tag_330:\n        /* \"#utility.yul\":9283:9422   */\n      swap1\n      pop\n        /* \"#utility.yul\":9010:9429   */\n      swap2\n      swap1\n      pop\n      jump\t// out\n        /* \"#utility.yul\":9435:9854   */\n    tag_113:\n        /* \"#utility.yul\":9601:9605   */\n      0x00\n        /* \"#utility.yul\":9639:9641   */\n      0x20\n        /* \"#utility.yul\":9628:9637   */\n      dup3\n        /* \"#utility.yul\":9624:9642   */\n      add\n        /* \"#utility.yul\":9616:9642   */\n      swap1\n      pop\n        /* \"#utility.yul\":9688:9697   */\n      dup2\n        /* \"#utility.yul\":9682:9686   */\n      dup2\n        /* \"#utility.yul\":9678:9698   */\n      sub\n        /* \"#utility.yul\":9674:9675   */\n      0x00\n        /* \"#utility.yul\":9663:9672   */\n      dup4\n        /* \"#utility.yul\":9659:9676   */\n      add\n        /* \"#utility.yul\":9652:9699   */\n      mstore\n        /* \"#utility.yul\":9716:9847   */\n      tag_332\n        /* \"#utility.yul\":9842:9846   */\n      dup2\n        /* \"#utility.yul\":9716:9847   */\n      tag_275\n      jump\t// in\n    tag_332:\n        /* \"#utility.yul\":9708:9847   */\n      swap1\n      pop\n        /* \"#utility.yul\":9435:9854   */\n      swap2\n      swap1\n      pop\n      jump\t// out\n        /* \"#utility.yul\":9860:10279   */\n    tag_136:\n        /* \"#utility.yul\":10026:10030   */\n      0x00\n        /* \"#utility.yul\":10064:10066   */\n      0x20\n        /* \"#utility.yul\":10053:10062   */\n      dup3\n        /* \"#utility.yul\":10049:10067   */\n      add\n        /* \"#utility.yul\":10041:10067   */\n      swap1\n      pop\n        /* \"#utility.yul\":10113:10122   */\n      dup2\n        /* \"#utility.yul\":10107:10111   */\n      dup2\n        /* \"#utility.yul\":10103:10123   */\n      sub\n        /* \"#utility.yul\":10099:10100   */\n      0x00\n        /* \"#utility.yul\":10088:10097   */\n      dup4\n        /* \"#utility.yul\":10084:10101   */\n      add\n        /* \"#utility.yul\":10077:10124   */\n      mstore\n        /* \"#utility.yul\":10141:10272   */\n      tag_334\n        /* \"#utility.yul\":10267:10271   */\n      dup2\n        /* \"#utility.yul\":10141:10272   */\n      tag_280\n      jump\t// in\n    tag_334:\n        /* \"#utility.yul\":10133:10272   */\n      swap1\n      pop\n        /* \"#utility.yul\":9860:10279   */\n      swap2\n      swap1\n      pop\n      jump\t// out\n        /* \"#utility.yul\":10285:10704   */\n    tag_140:\n        /* \"#utility.yul\":10451:10455   */\n      0x00\n        /* \"#utility.yul\":10489:10491   */\n      0x20\n        /* \"#utility.yul\":10478:10487   */\n      dup3\n        /* \"#utility.yul\":10474:10492   */\n      add\n        /* \"#utility.yul\":10466:10492   */\n      swap1\n      pop\n        /* \"#utility.yul\":10538:10547   */\n      dup2\n        /* \"#utility.yul\":10532:10536   */\n      dup2\n        /* \"#utility.yul\":10528:10548   */\n      sub\n        /* \"#utility.yul\":10524:10525   */\n      0x00\n        /* \"#utility.yul\":10513:10522   */\n      dup4\n        /* \"#utility.yul\":10509:10526   */\n      add\n        /* \"#utility.yul\":10502:10549   */\n      mstore\n        /* \"#utility.yul\":10566:10697   */\n      tag_336\n        /* \"#utility.yul\":10692:10696   */\n      dup2\n        /* \"#utility.yul\":10566:10697   */\n      tag_285\n      jump\t// in\n    tag_336:\n        /* \"#utility.yul\":10558:10697   */\n      swap1\n      pop\n        /* \"#utility.yul\":10285:10704   */\n      swap2\n      swap1\n      pop\n      jump\t// out\n        /* \"#utility.yul\":10710:11129   */\n    tag_126:\n        /* \"#utility.yul\":10876:10880   */\n      0x00\n        /* \"#utility.yul\":10914:10916   */\n      0x20\n        /* \"#utility.yul\":10903:10912   */\n      dup3\n        /* \"#utility.yul\":10899:10917   */\n      add\n        /* \"#utility.yul\":10891:10917   */\n      swap1\n      pop\n        /* \"#utility.yul\":10963:10972   */\n      dup2\n        /* \"#utility.yul\":10957:10961   */\n      dup2\n        /* \"#utility.yul\":10953:10973   */\n      sub\n        /* \"#utility.yul\":10949:10950   */\n      0x00\n        /* \"#utility.yul\":10938:10947   */\n      dup4\n        /* \"#utility.yul\":10934:10951   */\n      add\n        /* \"#utility.yul\":10927:10974   */\n      mstore\n        /* \"#utility.yul\":10991:11122   */\n      tag_338\n        /* \"#utility.yul\":11117:11121   */\n      dup2\n        /* \"#utility.yul\":10991:11122   */\n      tag_290\n      jump\t// in\n    tag_338:\n        /* \"#utility.yul\":10983:11122   */\n      swap1\n      pop\n        /* \"#utility.yul\":10710:11129   */\n      swap2\n      swap1\n      pop\n      jump\t// out\n        /* \"#utility.yul\":11135:11554   */\n    tag_109:\n        /* \"#utility.yul\":11301:11305   */\n      0x00\n        /* \"#utility.yul\":11339:11341   */\n      0x20\n        /* \"#utility.yul\":11328:11337   */\n      dup3\n        /* \"#utility.yul\":11324:11342   */\n      add\n        /* \"#utility.yul\":11316:11342   */\n      swap1\n      pop\n        /* \"#utility.yul\":11388:11397   */\n      dup2\n        /* \"#utility.yul\":11382:11386   */\n      dup2\n        /* \"#utility.yul\":11378:11398   */\n      sub\n        /* \"#utility.yul\":11374:11375   */\n      0x00\n        /* \"#utility.yul\":11363:11372   */\n      dup4\n        /* \"#utility.yul\":11359:11376   */\n      add\n        /* \"#utility.yul\":11352:11399   */\n      mstore\n        /* \"#utility.yul\":11416:11547   */\n      tag_340\n        /* \"#utility.yul\":11542:11546   */\n      dup2\n        /* \"#utility.yul\":11416:11547   */\n      tag_295\n      jump\t// in\n    tag_340:\n        /* \"#utility.yul\":11408:11547   */\n      swap1\n      pop\n        /* \"#utility.yul\":11135:11554   */\n      swap2\n      swap1\n      pop\n      jump\t// out\n        /* \"#utility.yul\":11560:11979   */\n    tag_106:\n        /* \"#utility.yul\":11726:11730   */\n      0x00\n        /* \"#utility.yul\":11764:11766   */\n      0x20\n        /* \"#utility.yul\":11753:11762   */\n      dup3\n        /* \"#utility.yul\":11749:11767   */\n      add\n        /* \"#utility.yul\":11741:11767   */\n      swap1\n      pop\n        /* \"#utility.yul\":11813:11822   */\n      dup2\n        /* \"#utility.yul\":11807:11811   */\n      dup2\n        /* \"#utility.yul\":11803:11823   */\n      sub\n        /* \"#utility.yul\":11799:11800   */\n      0x00\n        /* \"#utility.yul\":11788:11797   */\n      dup4\n        /* \"#utility.yul\":11784:11801   */\n      add\n        /* \"#utility.yul\":11777:11824   */\n      mstore\n        /* \"#utility.yul\":11841:11972   */\n      tag_342\n        /* \"#utility.yul\":11967:11971   */\n      dup2\n        /* \"#utility.yul\":11841:11972   */\n      tag_300\n      jump\t// in\n    tag_342:\n        /* \"#utility.yul\":11833:11972   */\n      swap1\n      pop\n        /* \"#utility.yul\":11560:11979   */\n      swap2\n      swap1\n      pop\n      jump\t// out\n        /* \"#utility.yul\":11985:12207   */\n    tag_31:\n        /* \"#utility.yul\":12078:12082   */\n      0x00\n        /* \"#utility.yul\":12116:12118   */\n      0x20\n        /* \"#utility.yul\":12105:12114   */\n      dup3\n        /* \"#utility.yul\":12101:12119   */\n      add\n        /* \"#utility.yul\":12093:12119   */\n      swap1\n      pop\n        /* \"#utility.yul\":12129:12200   */\n      tag_344\n        /* \"#utility.yul\":12197:12198   */\n      0x00\n        /* \"#utility.yul\":12186:12195   */\n      dup4\n        /* \"#utility.yul\":12182:12199   */\n      add\n        /* \"#utility.yul\":12173:12179   */\n      dup5\n        /* \"#utility.yul\":12129:12200   */\n      tag_305\n      jump\t// in\n    tag_344:\n        /* \"#utility.yul\":11985:12207   */\n      swap3\n      swap2\n      pop\n      pop\n      jump\t// out\n        /* \"#utility.yul\":12213:12342   */\n    tag_198:\n        /* \"#utility.yul\":12247:12253   */\n      0x00\n        /* \"#utility.yul\":12274:12294   */\n      tag_346\n      tag_347\n      jump\t// in\n    tag_346:\n        /* \"#utility.yul\":12264:12294   */\n      swap1\n      pop\n        /* \"#utility.yul\":12303:12336   */\n      tag_348\n        /* \"#utility.yul\":12331:12335   */\n      dup3\n        /* \"#utility.yul\":12323:12329   */\n      dup3\n        /* \"#utility.yul\":12303:12336   */\n      tag_349\n      jump\t// in\n    tag_348:\n        /* \"#utility.yul\":12213:12342   */\n      swap2\n      swap1\n      pop\n      jump\t// out\n        /* \"#utility.yul\":12348:12423   */\n    tag_347:\n        /* \"#utility.yul\":12381:12387   */\n      0x00\n        /* \"#utility.yul\":12414:12416   */\n      0x40\n        /* \"#utility.yul\":12408:12417   */\n      mload\n        /* \"#utility.yul\":12398:12417   */\n      swap1\n      pop\n        /* \"#utility.yul\":12348:12423   */\n      swap1\n      jump\t// out\n        /* \"#utility.yul\":12429:12737   */\n    tag_197:\n        /* \"#utility.yul\":12491:12495   */\n      0x00\n        /* \"#utility.yul\":12581:12599   */\n      0xffffffffffffffff\n        /* \"#utility.yul\":12573:12579   */\n      dup3\n        /* \"#utility.yul\":12570:12600   */\n      gt\n        /* \"#utility.yul\":12567:12623   */\n      iszero\n      tag_352\n      jumpi\n        /* \"#utility.yul\":12603:12621   */\n      tag_353\n      tag_354\n      jump\t// in\n    tag_353:\n        /* \"#utility.yul\":12567:12623   */\n    tag_352:\n        /* \"#utility.yul\":12641:12670   */\n      tag_355\n        /* \"#utility.yul\":12663:12669   */\n      dup3\n        /* \"#utility.yul\":12641:12670   */\n      tag_269\n      jump\t// in\n    tag_355:\n        /* \"#utility.yul\":12633:12670   */\n      swap1\n      pop\n        /* \"#utility.yul\":12725:12729   */\n      0x20\n        /* \"#utility.yul\":12719:12723   */\n      dup2\n        /* \"#utility.yul\":12715:12730   */\n      add\n        /* \"#utility.yul\":12707:12730   */\n      swap1\n      pop\n        /* \"#utility.yul\":12429:12737   */\n      swap2\n      swap1\n      pop\n      jump\t// out\n        /* \"#utility.yul\":12743:12842   */\n    tag_263:\n        /* \"#utility.yul\":12795:12801   */\n      0x00\n        /* \"#utility.yul\":12829:12834   */\n      dup2\n        /* \"#utility.yul\":12823:12835   */\n      mload\n        /* \"#utility.yul\":12813:12835   */\n      swap1\n      pop\n        /* \"#utility.yul\":12743:12842   */\n      swap2\n      swap1\n      pop\n      jump\t// out\n        /* \"#utility.yul\":12848:13017   */\n    tag_265:\n        /* \"#utility.yul\":12932:12943   */\n      0x00\n        /* \"#utility.yul\":12966:12972   */\n      dup3\n        /* \"#utility.yul\":12961:12964   */\n      dup3\n        /* \"#utility.yul\":12954:12973   */\n      mstore\n        /* \"#utility.yul\":13006:13010   */\n      0x20\n        /* \"#utility.yul\":13001:13004   */\n      dup3\n        /* \"#utility.yul\":12997:13011   */\n      add\n        /* \"#utility.yul\":12982:13011   */\n      swap1\n      pop\n        /* \"#utility.yul\":12848:13017   */\n      swap3\n      swap2\n      pop\n      pop\n      jump\t// out\n        /* \"#utility.yul\":13023:13328   */\n    tag_118:\n        /* \"#utility.yul\":13063:13066   */\n      0x00\n        /* \"#utility.yul\":13082:13102   */\n      tag_359\n        /* \"#utility.yul\":13100:13101   */\n      dup3\n        /* \"#utility.yul\":13082:13102   */\n      tag_308\n      jump\t// in\n    tag_359:\n        /* \"#utility.yul\":13077:13102   */\n      swap2\n      pop\n        /* \"#utility.yul\":13116:13136   */\n      tag_360\n        /* \"#utility.yul\":13134:13135   */\n      dup4\n        /* \"#utility.yul\":13116:13136   */\n      tag_308\n      jump\t// in\n    tag_360:\n        /* \"#utility.yul\":13111:13136   */\n      swap3\n      pop\n        /* \"#utility.yul\":13270:13271   */\n      dup3\n        /* \"#utility.yul\":13202:13268   */\n      0xffffffffffffffffffffffffffffffffffffffffffffffffffffffffffffffff\n        /* \"#utility.yul\":13198:13272   */\n      sub\n        /* \"#utility.yul\":13195:13196   */\n      dup3\n        /* \"#utility.yul\":13192:13273   */\n      gt\n        /* \"#utility.yul\":13189:13296   */\n      iszero\n      tag_361\n      jumpi\n        /* \"#utility.yul\":13276:13294   */\n      tag_362\n      tag_363\n      jump\t// in\n    tag_362:\n        /* \"#utility.yul\":13189:13296   */\n    tag_361:\n        /* \"#utility.yul\":13320:13321   */\n      dup3\n        /* \"#utility.yul\":13317:13318   */\n      dup3\n        /* \"#utility.yul\":13313:13322   */\n      add\n        /* \"#utility.yul\":13306:13322   */\n      swap1\n      pop\n        /* \"#utility.yul\":13023:13328   */\n      swap3\n      swap2\n      pop\n      pop\n      jump\t// out\n        /* \"#utility.yul\":13334:13519   */\n    tag_151:\n        /* \"#utility.yul\":13374:13375   */\n      0x00\n        /* \"#utility.yul\":13391:13411   */\n      tag_365\n        /* \"#utility.yul\":13409:13410   */\n      dup3\n        /* \"#utility.yul\":13391:13411   */\n      tag_308\n      jump\t// in\n    tag_365:\n        /* \"#utility.yul\":13386:13411   */\n      swap2\n      pop\n        /* \"#utility.yul\":13425:13445   */\n      tag_366\n        /* \"#utility.yul\":13443:13444   */\n      dup4\n        /* \"#utility.yul\":13425:13445   */\n      tag_308\n      jump\t// in\n    tag_366:\n        /* \"#utility.yul\":13420:13445   */\n      swap3\n      pop\n        /* \"#utility.yul\":13464:13465   */\n      dup3\n        /* \"#utility.yul\":13454:13489   */\n      tag_367\n      jumpi\n        /* \"#utility.yul\":13469:13487   */\n      tag_368\n      tag_369\n      jump\t// in\n    tag_368:\n        /* \"#utility.yul\":13454:13489   */\n    tag_367:\n        /* \"#utility.yul\":13511:13512   */\n      dup3\n        /* \"#utility.yul\":13508:13509   */\n      dup3\n        /* \"#utility.yul\":13504:13513   */\n      div\n        /* \"#utility.yul\":13499:13513   */\n      swap1\n      pop\n        /* \"#utility.yul\":13334:13519   */\n      swap3\n      swap2\n      pop\n      pop\n      jump\t// out\n        /* \"#utility.yul\":13525:13621   */\n    tag_251:\n        /* \"#utility.yul\":13562:13569   */\n      0x00\n        /* \"#utility.yul\":13591:13615   */\n      tag_371\n        /* \"#utility.yul\":13609:13614   */\n      dup3\n        /* \"#utility.yul\":13591:13615   */\n      tag_372\n      jump\t// in\n    tag_371:\n        /* \"#utility.yul\":13580:13615   */\n      swap1\n      pop\n        /* \"#utility.yul\":13525:13621   */\n      swap2\n      swap1\n      pop\n      jump\t// out\n        /* \"#utility.yul\":13627:13731   */\n    tag_247:\n        /* \"#utility.yul\":13672:13679   */\n      0x00\n        /* \"#utility.yul\":13701:13725   */\n      tag_374\n        /* \"#utility.yul\":13719:13724   */\n      dup3\n        /* \"#utility.yul\":13701:13725   */\n      tag_372\n      jump\t// in\n    tag_374:\n        /* \"#utility.yul\":13690:13725   */\n      swap1\n      pop\n        /* \"#utility.yul\":13627:13731   */\n      swap2\n      swap1\n      pop\n      jump\t// out\n        /* \"#utility.yul\":13737:13827   */\n    tag_255:\n        /* \"#utility.yul\":13771:13778   */\n      0x00\n        /* \"#utility.yul\":13814:13819   */\n      dup2\n        /* \"#utility.yul\":13807:13820   */\n      iszero\n        /* \"#utility.yul\":13800:13821   */\n      iszero\n        /* \"#utility.yul\":13789:13821   */\n      swap1\n      pop\n        /* \"#utility.yul\":13737:13827   */\n      swap2\n      swap1\n      pop\n      jump\t// out\n        /* \"#utility.yul\":13833:13960   */\n    tag_376:\n        /* \"#utility.yul\":13878:13885   */\n      0x00\n        /* \"#utility.yul\":13907:13912   */\n      dup2\n        /* \"#utility.yul\":13896:13912   */\n      swap1\n      pop\n        /* \"#utility.yul\":13913:13954   */\n      tag_378\n        /* \"#utility.yul\":13948:13953   */\n      dup3\n        /* \"#utility.yul\":13913:13954   */\n      tag_379\n      jump\t// in\n    tag_378:\n        /* \"#utility.yul\":13833:13960   */\n      swap2\n      swap1\n      pop\n      jump\t// out\n        /* \"#utility.yul\":13966:14092   */\n    tag_372:\n        /* \"#utility.yul\":14003:14010   */\n      0x00\n        /* \"#utility.yul\":14043:14085   */\n      0xffffffffffffffffffffffffffffffffffffffff\n        /* \"#utility.yul\":14036:14041   */\n      dup3\n        /* \"#utility.yul\":14032:14086   */\n      and\n        /* \"#utility.yul\":14021:14086   */\n      swap1\n      pop\n        /* \"#utility.yul\":13966:14092   */\n      swap2\n      swap1\n      pop\n      jump\t// out\n        /* \"#utility.yul\":14098:14175   */\n    tag_308:\n        /* \"#utility.yul\":14135:14142   */\n      0x00\n        /* \"#utility.yul\":14164:14169   */\n      dup2\n        /* \"#utility.yul\":14153:14169   */\n      swap1\n      pop\n        /* \"#utility.yul\":14098:14175   */\n      swap2\n      swap1\n      pop\n      jump\t// out\n        /* \"#utility.yul\":14181:14315   */\n    tag_243:\n        /* \"#utility.yul\":14239:14248   */\n      0x00\n        /* \"#utility.yul\":14272:14309   */\n      tag_383\n        /* \"#utility.yul\":14303:14308   */\n      dup3\n        /* \"#utility.yul\":14272:14309   */\n      tag_384\n      jump\t// in\n    tag_383:\n        /* \"#utility.yul\":14259:14309   */\n      swap1\n      pop\n        /* \"#utility.yul\":14181:14315   */\n      swap2\n      swap1\n      pop\n      jump\t// out\n        /* \"#utility.yul\":14321:14448   */\n    tag_259:\n        /* \"#utility.yul\":14377:14386   */\n      0x00\n        /* \"#utility.yul\":14410:14442   */\n      tag_386\n        /* \"#utility.yul\":14436:14441   */\n      dup3\n        /* \"#utility.yul\":14410:14442   */\n      tag_376\n      jump\t// in\n    tag_386:\n        /* \"#utility.yul\":14397:14442   */\n      swap1\n      pop\n        /* \"#utility.yul\":14321:14448   */\n      swap2\n      swap1\n      pop\n      jump\t// out\n        /* \"#utility.yul\":14454:14580   */\n    tag_384:\n        /* \"#utility.yul\":14504:14513   */\n      0x00\n        /* \"#utility.yul\":14537:14574   */\n      tag_388\n        /* \"#utility.yul\":14568:14573   */\n      dup3\n        /* \"#utility.yul\":14537:14574   */\n      tag_389\n      jump\t// in\n    tag_388:\n        /* \"#utility.yul\":14524:14574   */\n      swap1\n      pop\n        /* \"#utility.yul\":14454:14580   */\n      swap2\n      swap1\n      pop\n      jump\t// out\n        /* \"#utility.yul\":14586:14699   */\n    tag_389:\n        /* \"#utility.yul\":14636:14645   */\n      0x00\n        /* \"#utility.yul\":14669:14693   */\n      tag_391\n        /* \"#utility.yul\":14687:14692   */\n      dup3\n        /* \"#utility.yul\":14669:14693   */\n      tag_372\n      jump\t// in\n    tag_391:\n        /* \"#utility.yul\":14656:14693   */\n      swap1\n      pop\n        /* \"#utility.yul\":14586:14699   */\n      swap2\n      swap1\n      pop\n      jump\t// out\n        /* \"#utility.yul\":14705:14859   */\n    tag_203:\n        /* \"#utility.yul\":14789:14795   */\n      dup3\n        /* \"#utility.yul\":14784:14787   */\n      dup2\n        /* \"#utility.yul\":14779:14782   */\n      dup4\n        /* \"#utility.yul\":14766:14796   */\n      calldatacopy\n        /* \"#utility.yul\":14851:14852   */\n      0x00\n        /* \"#utility.yul\":14842:14848   */\n      dup4\n        /* \"#utility.yul\":14837:14840   */\n      dup4\n        /* \"#utility.yul\":14833:14849   */\n      add\n        /* \"#utility.yul\":14826:14853   */\n      mstore\n        /* \"#utility.yul\":14705:14859   */\n      pop\n      pop\n      pop\n      jump\t// out\n        /* \"#utility.yul\":14865:15172   */\n    tag_267:\n        /* \"#utility.yul\":14933:14934   */\n      0x00\n        /* \"#utility.yul\":14943:15056   */\n    tag_394:\n        /* \"#utility.yul\":14957:14963   */\n      dup4\n        /* \"#utility.yul\":14954:14955   */\n      dup2\n        /* \"#utility.yul\":14951:14964   */\n      lt\n        /* \"#utility.yul\":14943:15056   */\n      iszero\n      tag_396\n      jumpi\n        /* \"#utility.yul\":15042:15043   */\n      dup1\n        /* \"#utility.yul\":15037:15040   */\n      dup3\n        /* \"#utility.yul\":15033:15044   */\n      add\n        /* \"#utility.yul\":15027:15045   */\n      mload\n        /* \"#utility.yul\":15023:15024   */\n      dup2\n        /* \"#utility.yul\":15018:15021   */\n      dup5\n        /* \"#utility.yul\":15014:15025   */\n      add\n        /* \"#utility.yul\":15007:15046   */\n      mstore\n        /* \"#utility.yul\":14979:14981   */\n      0x20\n        /* \"#utility.yul\":14976:14977   */\n      dup2\n        /* \"#utility.yul\":14972:14982   */\n      add\n        /* \"#utility.yul\":14967:14982   */\n      swap1\n      pop\n        /* \"#utility.yul\":14943:15056   */\n      jump(tag_394)\n    tag_396:\n        /* \"#utility.yul\":15074:15080   */\n      dup4\n        /* \"#utility.yul\":15071:15072   */\n      dup2\n        /* \"#utility.yul\":15068:15081   */\n      gt\n        /* \"#utility.yul\":15065:15166   */\n      iszero\n      tag_397\n      jumpi\n        /* \"#utility.yul\":15154:15155   */\n      0x00\n        /* \"#utility.yul\":15145:15151   */\n      dup5\n        /* \"#utility.yul\":15140:15143   */\n      dup5\n        /* \"#utility.yul\":15136:15152   */\n      add\n        /* \"#utility.yul\":15129:15156   */\n      mstore\n        /* \"#utility.yul\":15065:15166   */\n    tag_397:\n        /* \"#utility.yul\":14914:15172   */\n      pop\n        /* \"#utility.yul\":14865:15172   */\n      pop\n      pop\n      pop\n      jump\t// out\n        /* \"#utility.yul\":15178:15498   */\n    tag_158:\n        /* \"#utility.yul\":15222:15228   */\n      0x00\n        /* \"#utility.yul\":15259:15260   */\n      0x02\n        /* \"#utility.yul\":15253:15257   */\n      dup3\n        /* \"#utility.yul\":15249:15261   */\n      div\n        /* \"#utility.yul\":15239:15261   */\n      swap1\n      pop\n        /* \"#utility.yul\":15306:15307   */\n      0x01\n        /* \"#utility.yul\":15300:15304   */\n      dup3\n        /* \"#utility.yul\":15296:15308   */\n      and\n        /* \"#utility.yul\":15327:15345   */\n      dup1\n        /* \"#utility.yul\":15317:15398   */\n      tag_399\n      jumpi\n        /* \"#utility.yul\":15383:15387   */\n      0x7f\n        /* \"#utility.yul\":15375:15381   */\n      dup3\n        /* \"#utility.yul\":15371:15388   */\n      and\n        /* \"#utility.yul\":15361:15388   */\n      swap2\n      pop\n        /* \"#utility.yul\":15317:15398   */\n    tag_399:\n        /* \"#utility.yul\":15445:15447   */\n      0x20\n        /* \"#utility.yul\":15437:15443   */\n      dup3\n        /* \"#utility.yul\":15434:15448   */\n      lt\n        /* \"#utility.yul\":15414:15432   */\n      dup2\n        /* \"#utility.yul\":15411:15449   */\n      eq\n        /* \"#utility.yul\":15408:15492   */\n      iszero\n      tag_400\n      jumpi\n        /* \"#utility.yul\":15464:15482   */\n      tag_401\n      tag_402\n      jump\t// in\n    tag_401:\n        /* \"#utility.yul\":15408:15492   */\n    tag_400:\n        /* \"#utility.yul\":15229:15498   */\n      pop\n        /* \"#utility.yul\":15178:15498   */\n      swap2\n      swap1\n      pop\n      jump\t// out\n        /* \"#utility.yul\":15504:15785   */\n    tag_349:\n        /* \"#utility.yul\":15587:15614   */\n      tag_404\n        /* \"#utility.yul\":15609:15613   */\n      dup3\n        /* \"#utility.yul\":15587:15614   */\n      tag_269\n      jump\t// in\n    tag_404:\n        /* \"#utility.yul\":15579:15585   */\n      dup2\n        /* \"#utility.yul\":15575:15615   */\n      add\n        /* \"#utility.yul\":15717:15723   */\n      dup2\n        /* \"#utility.yul\":15705:15715   */\n      dup2\n        /* \"#utility.yul\":15702:15724   */\n      lt\n        /* \"#utility.yul\":15681:15699   */\n      0xffffffffffffffff\n        /* \"#utility.yul\":15669:15679   */\n      dup3\n        /* \"#utility.yul\":15666:15700   */\n      gt\n        /* \"#utility.yul\":15663:15725   */\n      or\n        /* \"#utility.yul\":15660:15748   */\n      iszero\n      tag_405\n      jumpi\n        /* \"#utility.yul\":15728:15746   */\n      tag_406\n      tag_354\n      jump\t// in\n    tag_406:\n        /* \"#utility.yul\":15660:15748   */\n    tag_405:\n        /* \"#utility.yul\":15768:15778   */\n      dup1\n        /* \"#utility.yul\":15764:15766   */\n      0x40\n        /* \"#utility.yul\":15757:15779   */\n      mstore\n        /* \"#utility.yul\":15547:15785   */\n      pop\n        /* \"#utility.yul\":15504:15785   */\n      pop\n      pop\n      jump\t// out\n        /* \"#utility.yul\":15791:16024   */\n    tag_116:\n        /* \"#utility.yul\":15830:15833   */\n      0x00\n        /* \"#utility.yul\":15853:15877   */\n      tag_408\n        /* \"#utility.yul\":15871:15876   */\n      dup3\n        /* \"#utility.yul\":15853:15877   */\n      tag_308\n      jump\t// in\n    tag_408:\n        /* \"#utility.yul\":15844:15877   */\n      swap2\n      pop\n        /* \"#utility.yul\":15899:15965   */\n      0xffffffffffffffffffffffffffffffffffffffffffffffffffffffffffffffff\n        /* \"#utility.yul\":15892:15897   */\n      dup3\n        /* \"#utility.yul\":15889:15966   */\n      eq\n        /* \"#utility.yul\":15886:15989   */\n      iszero\n      tag_409\n      jumpi\n        /* \"#utility.yul\":15969:15987   */\n      tag_410\n      tag_363\n      jump\t// in\n    tag_410:\n        /* \"#utility.yul\":15886:15989   */\n    tag_409:\n        /* \"#utility.yul\":16016:16017   */\n      0x01\n        /* \"#utility.yul\":16009:16014   */\n      dup3\n        /* \"#utility.yul\":16005:16018   */\n      add\n        /* \"#utility.yul\":15998:16018   */\n      swap1\n      pop\n        /* \"#utility.yul\":15791:16024   */\n      swap2\n      swap1\n      pop\n      jump\t// out\n        /* \"#utility.yul\":16030:16210   */\n    tag_363:\n        /* \"#utility.yul\":16078:16155   */\n      0x4e487b7100000000000000000000000000000000000000000000000000000000\n        /* \"#utility.yul\":16075:16076   */\n      0x00\n        /* \"#utility.yul\":16068:16156   */\n      mstore\n        /* \"#utility.yul\":16175:16179   */\n      0x11\n        /* \"#utility.yul\":16172:16173   */\n      0x04\n        /* \"#utility.yul\":16165:16180   */\n      mstore\n        /* \"#utility.yul\":16199:16203   */\n      0x24\n        /* \"#utility.yul\":16196:16197   */\n      0x00\n        /* \"#utility.yul\":16189:16204   */\n      revert\n        /* \"#utility.yul\":16216:16396   */\n    tag_369:\n        /* \"#utility.yul\":16264:16341   */\n      0x4e487b7100000000000000000000000000000000000000000000000000000000\n        /* \"#utility.yul\":16261:16262   */\n      0x00\n        /* \"#utility.yul\":16254:16342   */\n      mstore\n        /* \"#utility.yul\":16361:16365   */\n      0x12\n        /* \"#utility.yul\":16358:16359   */\n      0x04\n        /* \"#utility.yul\":16351:16366   */\n      mstore\n        /* \"#utility.yul\":16385:16389   */\n      0x24\n        /* \"#utility.yul\":16382:16383   */\n      0x00\n        /* \"#utility.yul\":16375:16390   */\n      revert\n        /* \"#utility.yul\":16402:16582   */\n    tag_101:\n        /* \"#utility.yul\":16450:16527   */\n      0x4e487b7100000000000000000000000000000000000000000000000000000000\n        /* \"#utility.yul\":16447:16448   */\n      0x00\n        /* \"#utility.yul\":16440:16528   */\n      mstore\n        /* \"#utility.yul\":16547:16551   */\n      0x21\n        /* \"#utility.yul\":16544:16545   */\n      0x04\n        /* \"#utility.yul\":16537:16552   */\n      mstore\n        /* \"#utility.yul\":16571:16575   */\n      0x24\n        /* \"#utility.yul\":16568:16569   */\n      0x00\n        /* \"#utility.yul\":16561:16576   */\n      revert\n        /* \"#utility.yul\":16588:16768   */\n    tag_402:\n        /* \"#utility.yul\":16636:16713   */\n      0x4e487b7100000000000000000000000000000000000000000000000000000000\n        /* \"#utility.yul\":16633:16634   */\n      0x00\n        /* \"#utility.yul\":16626:16714   */\n      mstore\n        /* \"#utility.yul\":16733:16737   */\n      0x22\n        /* \"#utility.yul\":16730:16731   */\n      0x04\n        /* \"#utility.yul\":16723:16738   */\n      mstore\n        /* \"#utility.yul\":16757:16761   */\n      0x24\n        /* \"#utility.yul\":16754:16755   */\n      0x00\n        /* \"#utility.yul\":16747:16762   */\n      revert\n        /* \"#utility.yul\":16774:16954   */\n    tag_354:\n        /* \"#utility.yul\":16822:16899   */\n      0x4e487b7100000000000000000000000000000000000000000000000000000000\n        /* \"#utility.yul\":16819:16820   */\n      0x00\n        /* \"#utility.yul\":16812:16900   */\n      mstore\n        /* \"#utility.yul\":16919:16923   */\n      0x41\n        /* \"#utility.yul\":16916:16917   */\n      0x04\n        /* \"#utility.yul\":16909:16924   */\n      mstore\n        /* \"#utility.yul\":16943:16947   */\n      0x24\n        /* \"#utility.yul\":16940:16941   */\n      0x00\n        /* \"#utility.yul\":16933:16948   */\n      revert\n        /* \"#utility.yul\":16960:17077   */\n    tag_216:\n        /* \"#utility.yul\":17069:17070   */\n      0x00\n        /* \"#utility.yul\":17066:17067   */\n      dup1\n        /* \"#utility.yul\":17059:17071   */\n      revert\n        /* \"#utility.yul\":17083:17200   */\n    tag_201:\n        /* \"#utility.yul\":17192:17193   */\n      0x00\n        /* \"#utility.yul\":17189:17190   */\n      dup1\n        /* \"#utility.yul\":17182:17194   */\n      revert\n        /* \"#utility.yul\":17206:17323   */\n    tag_232:\n        /* \"#utility.yul\":17315:17316   */\n      0x00\n        /* \"#utility.yul\":17312:17313   */\n      dup1\n        /* \"#utility.yul\":17305:17317   */\n      revert\n        /* \"#utility.yul\":17329:17446   */\n    tag_225:\n        /* \"#utility.yul\":17438:17439   */\n      0x00\n        /* \"#utility.yul\":17435:17436   */\n      dup1\n        /* \"#utility.yul\":17428:17440   */\n      revert\n        /* \"#utility.yul\":17452:17554   */\n    tag_269:\n        /* \"#utility.yul\":17493:17499   */\n      0x00\n        /* \"#utility.yul\":17544:17546   */\n      0x1f\n        /* \"#utility.yul\":17540:17547   */\n      not\n        /* \"#utility.yul\":17535:17537   */\n      0x1f\n        /* \"#utility.yul\":17528:17533   */\n      dup4\n        /* \"#utility.yul\":17524:17538   */\n      add\n        /* \"#utility.yul\":17520:17548   */\n      and\n        /* \"#utility.yul\":17510:17548   */\n      swap1\n      pop\n        /* \"#utility.yul\":17452:17554   */\n      swap2\n      swap1\n      pop\n      jump\t// out\n        /* \"#utility.yul\":17560:17735   */\n    tag_274:\n        /* \"#utility.yul\":17700:17727   */\n      0x7265717565737420616c726561647920636f6d706c6574656400000000000000\n        /* \"#utility.yul\":17696:17697   */\n      0x00\n        /* \"#utility.yul\":17688:17694   */\n      dup3\n        /* \"#utility.yul\":17684:17698   */\n      add\n        /* \"#utility.yul\":17677:17728   */\n      mstore\n        /* \"#utility.yul\":17560:17735   */\n      pop\n      jump\t// out\n        /* \"#utility.yul\":17741:17919   */\n    tag_279:\n        /* \"#utility.yul\":17881:17911   */\n      0x6469646e74207265616368206d696e20636f6e747269627574696f6e00000000\n        /* \"#utility.yul\":17877:17878   */\n      0x00\n        /* \"#utility.yul\":17869:17875   */\n      dup3\n        /* \"#utility.yul\":17865:17879   */\n      add\n        /* \"#utility.yul\":17858:17912   */\n      mstore\n        /* \"#utility.yul\":17741:17919   */\n      pop\n      jump\t// out\n        /* \"#utility.yul\":17925:18100   */\n    tag_284:\n        /* \"#utility.yul\":18065:18092   */\n      0x796f7520617265206e6f74206120636f6e7472696275746f7200000000000000\n        /* \"#utility.yul\":18061:18062   */\n      0x00\n        /* \"#utility.yul\":18053:18059   */\n      dup3\n        /* \"#utility.yul\":18049:18063   */\n      add\n        /* \"#utility.yul\":18042:18093   */\n      mstore\n        /* \"#utility.yul\":17925:18100   */\n      pop\n      jump\t// out\n        /* \"#utility.yul\":18106:18273   */\n    tag_289:\n        /* \"#utility.yul\":18246:18265   */\n      0x796f7520616c726561647920766f746564000000000000000000000000000000\n        /* \"#utility.yul\":18242:18243   */\n      0x00\n        /* \"#utility.yul\":18234:18240   */\n      dup3\n        /* \"#utility.yul\":18230:18244   */\n      add\n        /* \"#utility.yul\":18223:18266   */\n      mstore\n        /* \"#utility.yul\":18106:18273   */\n      pop\n      jump\t// out\n        /* \"#utility.yul\":18279:18459   */\n    tag_294:\n        /* \"#utility.yul\":18419:18451   */\n      0x6d6573736167652073656e646572206973206e6f7420616e2061646d696e0000\n        /* \"#utility.yul\":18415:18416   */\n      0x00\n        /* \"#utility.yul\":18407:18413   */\n      dup3\n        /* \"#utility.yul\":18403:18417   */\n      add\n        /* \"#utility.yul\":18396:18452   */\n      mstore\n        /* \"#utility.yul\":18279:18459   */\n      pop\n      jump\t// out\n        /* \"#utility.yul\":18465:18630   */\n    tag_299:\n        /* \"#utility.yul\":18605:18622   */\n      0x646561646c696e65207061737365640000000000000000000000000000000000\n        /* \"#utility.yul\":18601:18602   */\n      0x00\n        /* \"#utility.yul\":18593:18599   */\n      dup3\n        /* \"#utility.yul\":18589:18603   */\n      add\n        /* \"#utility.yul\":18582:18623   */\n      mstore\n        /* \"#utility.yul\":18465:18630   */\n      pop\n      jump\t// out\n        /* \"#utility.yul\":18636:18813   */\n    tag_304:\n        /* \"#utility.yul\":18776:18805   */\n      0x43726f776446756e64696e67206973206e6f742072756e6e696e670000000000\n        /* \"#utility.yul\":18772:18773   */\n      0x00\n        /* \"#utility.yul\":18764:18770   */\n      dup3\n        /* \"#utility.yul\":18760:18774   */\n      add\n        /* \"#utility.yul\":18753:18806   */\n      mstore\n        /* \"#utility.yul\":18636:18813   */\n      pop\n      jump\t// out\n        /* \"#utility.yul\":18819:18932   */\n    tag_379:\n        /* \"#utility.yul\":18900:18901   */\n      0x05\n        /* \"#utility.yul\":18893:18898   */\n      dup2\n        /* \"#utility.yul\":18890:18902   */\n      lt\n        /* \"#utility.yul\":18880:18926   */\n      tag_429\n      jumpi\n        /* \"#utility.yul\":18906:18924   */\n      tag_430\n      tag_101\n      jump\t// in\n    tag_430:\n        /* \"#utility.yul\":18880:18926   */\n    tag_429:\n        /* \"#utility.yul\":18819:18932   */\n      pop\n      jump\t// out\n        /* \"#utility.yul\":18938:19060   */\n    tag_207:\n        /* \"#utility.yul\":19011:19035   */\n      tag_432\n        /* \"#utility.yul\":19029:19034   */\n      dup2\n        /* \"#utility.yul\":19011:19035   */\n      tag_251\n      jump\t// in\n    tag_432:\n        /* \"#utility.yul\":19004:19009   */\n      dup2\n        /* \"#utility.yul\":19001:19036   */\n      eq\n        /* \"#utility.yul\":18991:19054   */\n      tag_433\n      jumpi\n        /* \"#utility.yul\":19050:19051   */\n      0x00\n        /* \"#utility.yul\":19047:19048   */\n      dup1\n        /* \"#utility.yul\":19040:19052   */\n      revert\n        /* \"#utility.yul\":18991:19054   */\n    tag_433:\n        /* \"#utility.yul\":18938:19060   */\n      pop\n      jump\t// out\n        /* \"#utility.yul\":19066:19204   */\n    tag_211:\n        /* \"#utility.yul\":19147:19179   */\n      tag_435\n        /* \"#utility.yul\":19173:19178   */\n      dup2\n        /* \"#utility.yul\":19147:19179   */\n      tag_247\n      jump\t// in\n    tag_435:\n        /* \"#utility.yul\":19140:19145   */\n      dup2\n        /* \"#utility.yul\":19137:19180   */\n      eq\n        /* \"#utility.yul\":19127:19198   */\n      tag_436\n      jumpi\n        /* \"#utility.yul\":19194:19195   */\n      0x00\n        /* \"#utility.yul\":19191:19192   */\n      dup1\n        /* \"#utility.yul\":19184:19196   */\n      revert\n        /* \"#utility.yul\":19127:19198   */\n    tag_436:\n        /* \"#utility.yul\":19066:19204   */\n      pop\n      jump\t// out\n        /* \"#utility.yul\":19210:19332   */\n    tag_221:\n        /* \"#utility.yul\":19283:19307   */\n      tag_438\n        /* \"#utility.yul\":19301:19306   */\n      dup2\n        /* \"#utility.yul\":19283:19307   */\n      tag_308\n      jump\t// in\n    tag_438:\n        /* \"#utility.yul\":19276:19281   */\n      dup2\n        /* \"#utility.yul\":19273:19308   */\n      eq\n        /* \"#utility.yul\":19263:19326   */\n      tag_439\n      jumpi\n        /* \"#utility.yul\":19322:19323   */\n      0x00\n        /* \"#utility.yul\":19319:19320   */\n      dup1\n        /* \"#utility.yul\":19312:19324   */\n      revert\n        /* \"#utility.yul\":19263:19326   */\n    tag_439:\n        /* \"#utility.yul\":19210:19332   */\n      pop\n      jump\t// out\n\n    auxdata: 0xa26469706673582212201371a79900ff64f827a17426591485845ee99634a443a83cfe5e491858de57bd64736f6c63430008070033\n}\n",
				"bytecode": {
					"linkReferences": {},
					"object": "60806040523480156200001157600080fd5b5060405162001c3138038062001c318339818101604052810190620000379190620000f0565b33600160006101000a81548173ffffffffffffffffffffffffffffffffffffffff021916908373ffffffffffffffffffffffffffffffffffffffff1602179055506000600960006101000a81548160ff02191690836004811115620000a157620000a0620001cd565b5b0217905550816005819055508042620000bb919062000137565b6004819055506064600381905550600060028190555050506200021b565b600081519050620000ea8162000201565b92915050565b600080604083850312156200010a5762000109620001fc565b5b60006200011a85828601620000d9565b92505060206200012d85828601620000d9565b9150509250929050565b6000620001448262000194565b9150620001518362000194565b9250827fffffffffffffffffffffffffffffffffffffffffffffffffffffffffffffffff038211156200018957620001886200019e565b5b828201905092915050565b6000819050919050565b7f4e487b7100000000000000000000000000000000000000000000000000000000600052601160045260246000fd5b7f4e487b7100000000000000000000000000000000000000000000000000000000600052602160045260246000fd5b600080fd5b6200020c8162000194565b81146200021857600080fd5b50565b611a06806200022b6000396000f3fe6080604052600436106101025760003560e01c806381d12c5811610095578063b25cdccf11610064578063b25cdccf14610328578063c59ee1dc14610353578063d5cef1331461037e578063d7bb99ba14610388578063f851a4401461039257610111565b806381d12c581461027a5780639fb42b1f146102bb578063a8b78ed0146102e6578063aaffadf3146102fd57610111565b806340193883116100d157806340193883146101d45780634b5e7d70146101ff5780634cb6f4a5146102285780635114cb521461025157610111565b806312065fe0146101165780631e206f15146101415780631f6d49421461016c57806329dcb0cf146101a957610111565b366101115761010f6103bd565b005b600080fd5b34801561012257600080fd5b5061012b6105c6565b6040516101389190611491565b60405180910390f35b34801561014d57600080fd5b506101566105ce565b6040516101639190611491565b60405180910390f35b34801561017857600080fd5b50610193600480360381019061018e9190611040565b6105d4565b6040516101a09190611491565b60405180910390f35b3480156101b557600080fd5b506101be6105ec565b6040516101cb9190611491565b60405180910390f35b3480156101e057600080fd5b506101e96105f2565b6040516101f69190611491565b60405180910390f35b34801561020b57600080fd5b506102266004803603810190610221919061106d565b6105f8565b005b34801561023457600080fd5b5061024f600480360381019061024a91906110dc565b610786565b005b34801561025d57600080fd5b50610278600480360381019061027391906110dc565b61092b565b005b34801561028657600080fd5b506102a1600480360381019061029c91906110dc565b610b4f565b6040516102b2959493929190611357565b60405180910390f35b3480156102c757600080fd5b506102d0610c3a565b6040516102dd9190611491565b60405180910390f35b3480156102f257600080fd5b506102fb610c40565b005b34801561030957600080fd5b50610312610cfd565b60405161031f9190611491565b60405180910390f35b34801561033457600080fd5b5061033d610d03565b60405161034a91906112fe565b60405180910390f35b34801561035f57600080fd5b50610368610d16565b6040516103759190611491565b60405180910390f35b610386610d1c565b005b6103906103bd565b005b34801561039e57600080fd5b506103a7610ec8565b6040516103b49190611291565b60405180910390f35b600260048111156103d1576103d06117a6565b5b600960009054906101000a900460ff1660048111156103f3576103f26117a6565b5b14610433576040517f08c379a000000000000000000000000000000000000000000000000000000000815260040161042a90611471565b60405180910390fd5b600454421115610478576040517f08c379a000000000000000000000000000000000000000000000000000000000815260040161046f90611451565b60405180910390fd5b6003543410156104bd576040517f08c379a00000000000000000000000000000000000000000000000000000000081526004016104b4906113d1565b60405180910390fd5b60008060003373ffffffffffffffffffffffffffffffffffffffff1673ffffffffffffffffffffffffffffffffffffffff16815260200190815260200160002054141561051d5760026000815480929190610517906116ff565b91905055505b346000803373ffffffffffffffffffffffffffffffffffffffff1673ffffffffffffffffffffffffffffffffffffffff168152602001908152602001600020600082825461056b919061151e565b925050819055503460066000828254610584919061151e565b925050819055507f2daf61dec57a2c194e9e87958b1a40a5c236b5e8c6041655d664ddbd16c2932033346040516105bc9291906112d5565b60405180910390a1565b600047905090565b60025481565b60006020528060005260406000206000915090505481565b60045481565b60055481565b600160009054906101000a900473ffffffffffffffffffffffffffffffffffffffff1673ffffffffffffffffffffffffffffffffffffffff163373ffffffffffffffffffffffffffffffffffffffff1614610688576040517f08c379a000000000000000000000000000000000000000000000000000000000815260040161067f90611431565b60405180910390fd5b60006007600060085481526020019081526020016000209050600860008154809291906106b4906116ff565b9190505550838160000190805190602001906106d1929190610eee565b50828160010160006101000a81548173ffffffffffffffffffffffffffffffffffffffff021916908373ffffffffffffffffffffffffffffffffffffffff16021790555081816002018190555060008160030160006101000a81548160ff021916908315150217905550600081600401819055507f5392bd80651676ccaaedec1afbe841d47e369223df0ba1586110b6426ee87a3a84848460405161077893929190611319565b60405180910390a150505050565b60008060003373ffffffffffffffffffffffffffffffffffffffff1673ffffffffffffffffffffffffffffffffffffffff1681526020019081526020016000205411610807576040517f08c379a00000000000000000000000000000000000000000000000000000000081526004016107fe906113f1565b60405180910390fd5b6000600760008381526020019081526020016000209050600015158160050160003373ffffffffffffffffffffffffffffffffffffffff1673ffffffffffffffffffffffffffffffffffffffff16815260200190815260200160002060009054906101000a900460ff161515146108b3576040517f08c379a00000000000000000000000000000000000000000000000000000000081526004016108aa90611411565b60405180910390fd5b60018160050160003373ffffffffffffffffffffffffffffffffffffffff1673ffffffffffffffffffffffffffffffffffffffff16815260200190815260200160002060006101000a81548160ff021916908315150217905550806004016000815480929190610922906116ff565b91905055505050565b600160009054906101000a900473ffffffffffffffffffffffffffffffffffffffff1673ffffffffffffffffffffffffffffffffffffffff163373ffffffffffffffffffffffffffffffffffffffff16146109bb576040517f08c379a00000000000000000000000000000000000000000000000000000000081526004016109b290611431565b60405180910390fd5b60055460065410156109cc57600080fd5b6000600760008381526020019081526020016000209050600015158160030160009054906101000a900460ff16151514610a3b576040517f08c379a0000000000000000000000000000000000000000000000000000000008152600401610a32906113b1565b60405180910390fd5b60008160040154905060028054610a529190611574565b8111610a5d57600080fd5b8160010160009054906101000a900473ffffffffffffffffffffffffffffffffffffffff1673ffffffffffffffffffffffffffffffffffffffff166108fc83600201549081150290604051600060405180830381858888f19350505050158015610acb573d6000803e3d6000fd5b5060018260030160006101000a81548160ff0219169083151502179055507f516e1673e5e85c44620165259173329adda2ad25e7bb15020c732be060b5b7908260010160009054906101000a900473ffffffffffffffffffffffffffffffffffffffff168360020154604051610b429291906112ac565b60405180910390a1505050565b6007602052806000526040600020600091509050806000018054610b729061169c565b80601f0160208091040260200160405190810160405280929190818152602001828054610b9e9061169c565b8015610beb5780601f10610bc057610100808354040283529160200191610beb565b820191906000526020600020905b815481529060010190602001808311610bce57829003601f168201915b5050505050908060010160009054906101000a900473ffffffffffffffffffffffffffffffffffffffff16908060020154908060030160009054906101000a900460ff16908060040154905085565b60085481565b600160009054906101000a900473ffffffffffffffffffffffffffffffffffffffff1673ffffffffffffffffffffffffffffffffffffffff163373ffffffffffffffffffffffffffffffffffffffff1614610cd0576040517f08c379a0000000000000000000000000000000000000000000000000000000008152600401610cc790611431565b60405180910390fd5b6002600960006101000a81548160ff02191690836004811115610cf657610cf56117a6565b5b0217905550565b60035481565b600960009054906101000a900460ff1681565b60065481565b60008060003373ffffffffffffffffffffffffffffffffffffffff1673ffffffffffffffffffffffffffffffffffffffff1681526020019081526020016000205411610d9d576040517f08c379a0000000000000000000000000000000000000000000000000000000008152600401610d94906113f1565b60405180910390fd5b600480811115610db057610daf6117a6565b5b600960009054906101000a900460ff166004811115610dd257610dd16117a6565b5b1480610dee575060045442118015610ded5750600554600654105b5b610df757600080fd5b60008060003373ffffffffffffffffffffffffffffffffffffffff1673ffffffffffffffffffffffffffffffffffffffff16815260200190815260200160002054905060008060003373ffffffffffffffffffffffffffffffffffffffff1673ffffffffffffffffffffffffffffffffffffffff168152602001908152602001600020819055503373ffffffffffffffffffffffffffffffffffffffff166108fc829081150290604051600060405180830381858888f19350505050158015610ec4573d6000803e3d6000fd5b5050565b600160009054906101000a900473ffffffffffffffffffffffffffffffffffffffff1681565b828054610efa9061169c565b90600052602060002090601f016020900481019282610f1c5760008555610f63565b82601f10610f3557805160ff1916838001178555610f63565b82800160010185558215610f63579182015b82811115610f62578251825591602001919060010190610f47565b5b509050610f709190610f74565b5090565b5b80821115610f8d576000816000905550600101610f75565b5090565b6000610fa4610f9f846114d1565b6114ac565b905082815260208101848484011115610fc057610fbf611838565b5b610fcb84828561165a565b509392505050565b600081359050610fe28161198b565b92915050565b600081359050610ff7816119a2565b92915050565b600082601f83011261101257611011611833565b5b8135611022848260208601610f91565b91505092915050565b60008135905061103a816119b9565b92915050565b60006020828403121561105657611055611842565b5b600061106484828501610fd3565b91505092915050565b60008060006060848603121561108657611085611842565b5b600084013567ffffffffffffffff8111156110a4576110a361183d565b5b6110b086828701610ffd565b93505060206110c186828701610fe8565b92505060406110d28682870161102b565b9150509250925092565b6000602082840312156110f2576110f1611842565b5b60006111008482850161102b565b91505092915050565b61111281611612565b82525050565b611121816115b7565b82525050565b611130816115a5565b82525050565b61113f816115c9565b82525050565b61114e81611624565b82525050565b600061115f82611502565b611169818561150d565b9350611179818560208601611669565b61118281611847565b840191505092915050565b600061119a60198361150d565b91506111a582611858565b602082019050919050565b60006111bd601c8361150d565b91506111c882611881565b602082019050919050565b60006111e060198361150d565b91506111eb826118aa565b602082019050919050565b600061120360118361150d565b915061120e826118d3565b602082019050919050565b6000611226601e8361150d565b9150611231826118fc565b602082019050919050565b6000611249600f8361150d565b915061125482611925565b602082019050919050565b600061126c601b8361150d565b91506112778261194e565b602082019050919050565b61128b81611608565b82525050565b60006020820190506112a66000830184611127565b92915050565b60006040820190506112c16000830185611109565b6112ce6020830184611282565b9392505050565b60006040820190506112ea6000830185611127565b6112f76020830184611282565b9392505050565b60006020820190506113136000830184611145565b92915050565b600060608201905081810360008301526113338186611154565b90506113426020830185611109565b61134f6040830184611282565b949350505050565b600060a08201905081810360008301526113718188611154565b90506113806020830187611118565b61138d6040830186611282565b61139a6060830185611136565b6113a76080830184611282565b9695505050505050565b600060208201905081810360008301526113ca8161118d565b9050919050565b600060208201905081810360008301526113ea816111b0565b9050919050565b6000602082019050818103600083015261140a816111d3565b9050919050565b6000602082019050818103600083015261142a816111f6565b9050919050565b6000602082019050818103600083015261144a81611219565b9050919050565b6000602082019050818103600083015261146a8161123c565b9050919050565b6000602082019050818103600083015261148a8161125f565b9050919050565b60006020820190506114a66000830184611282565b92915050565b60006114b66114c7565b90506114c282826116ce565b919050565b6000604051905090565b600067ffffffffffffffff8211156114ec576114eb611804565b5b6114f582611847565b9050602081019050919050565b600081519050919050565b600082825260208201905092915050565b600061152982611608565b915061153483611608565b9250827fffffffffffffffffffffffffffffffffffffffffffffffffffffffffffffffff0382111561156957611568611748565b5b828201905092915050565b600061157f82611608565b915061158a83611608565b92508261159a57611599611777565b5b828204905092915050565b60006115b0826115e8565b9050919050565b60006115c2826115e8565b9050919050565b60008115159050919050565b60008190506115e382611977565b919050565b600073ffffffffffffffffffffffffffffffffffffffff82169050919050565b6000819050919050565b600061161d82611636565b9050919050565b600061162f826115d5565b9050919050565b600061164182611648565b9050919050565b6000611653826115e8565b9050919050565b82818337600083830152505050565b60005b8381101561168757808201518184015260208101905061166c565b83811115611696576000848401525b50505050565b600060028204905060018216806116b457607f821691505b602082108114156116c8576116c76117d5565b5b50919050565b6116d782611847565b810181811067ffffffffffffffff821117156116f6576116f5611804565b5b80604052505050565b600061170a82611608565b91507fffffffffffffffffffffffffffffffffffffffffffffffffffffffffffffffff82141561173d5761173c611748565b5b600182019050919050565b7f4e487b7100000000000000000000000000000000000000000000000000000000600052601160045260246000fd5b7f4e487b7100000000000000000000000000000000000000000000000000000000600052601260045260246000fd5b7f4e487b7100000000000000000000000000000000000000000000000000000000600052602160045260246000fd5b7f4e487b7100000000000000000000000000000000000000000000000000000000600052602260045260246000fd5b7f4e487b7100000000000000000000000000000000000000000000000000000000600052604160045260246000fd5b600080fd5b600080fd5b600080fd5b600080fd5b6000601f19601f8301169050919050565b7f7265717565737420616c726561647920636f6d706c6574656400000000000000600082015250565b7f6469646e74207265616368206d696e20636f6e747269627574696f6e00000000600082015250565b7f796f7520617265206e6f74206120636f6e7472696275746f7200000000000000600082015250565b7f796f7520616c726561647920766f746564000000000000000000000000000000600082015250565b7f6d6573736167652073656e646572206973206e6f7420616e2061646d696e0000600082015250565b7f646561646c696e65207061737365640000000000000000000000000000000000600082015250565b7f43726f776446756e64696e67206973206e6f742072756e6e696e670000000000600082015250565b60058110611988576119876117a6565b5b50565b611994816115a5565b811461199f57600080fd5b50565b6119ab816115b7565b81146119b657600080fd5b50565b6119c281611608565b81146119cd57600080fd5b5056fea26469706673582212201371a79900ff64f827a17426591485845ee99634a443a83cfe5e491858de57bd64736f6c63430008070033",
					"opcodes": "PUSH1 0x80 PUSH1 0x40 MSTORE CALLVALUE DUP1 ISZERO PUSH3 0x11 JUMPI PUSH1 0x0 DUP1 REVERT JUMPDEST POP PUSH1 0x40 MLOAD PUSH3 0x1C31 CODESIZE SUB DUP1 PUSH3 0x1C31 DUP4 CODECOPY DUP2 DUP2 ADD PUSH1 0x40 MSTORE DUP2 ADD SWAP1 PUSH3 0x37 SWAP2 SWAP1 PUSH3 0xF0 JUMP JUMPDEST CALLER PUSH1 0x1 PUSH1 0x0 PUSH2 0x100 EXP DUP2 SLOAD DUP2 PUSH20 0xFFFFFFFFFFFFFFFFFFFFFFFFFFFFFFFFFFFFFFFF MUL NOT AND SWAP1 DUP4 PUSH20 0xFFFFFFFFFFFFFFFFFFFFFFFFFFFFFFFFFFFFFFFF AND MUL OR SWAP1 SSTORE POP PUSH1 0x0 PUSH1 0x9 PUSH1 0x0 PUSH2 0x100 EXP DUP2 SLOAD DUP2 PUSH1 0xFF MUL NOT AND SWAP1 DUP4 PUSH1 0x4 DUP2 GT ISZERO PUSH3 0xA1 JUMPI PUSH3 0xA0 PUSH3 0x1CD JUMP JUMPDEST JUMPDEST MUL OR SWAP1 SSTORE POP DUP2 PUSH1 0x5 DUP2 SWAP1 SSTORE POP DUP1 TIMESTAMP PUSH3 0xBB SWAP2 SWAP1 PUSH3 0x137 JUMP JUMPDEST PUSH1 0x4 DUP2 SWAP1 SSTORE POP PUSH1 0x64 PUSH1 0x3 DUP2 SWAP1 SSTORE POP PUSH1 0x0 PUSH1 0x2 DUP2 SWAP1 SSTORE POP POP POP PUSH3 0x21B JUMP JUMPDEST PUSH1 0x0 DUP2 MLOAD SWAP1 POP PUSH3 0xEA DUP2 PUSH3 0x201 JUMP JUMPDEST SWAP3 SWAP2 POP POP JUMP JUMPDEST PUSH1 0x0 DUP1 PUSH1 0x40 DUP4 DUP6 SUB SLT ISZERO PUSH3 0x10A JUMPI PUSH3 0x109 PUSH3 0x1FC JUMP JUMPDEST JUMPDEST PUSH1 0x0 PUSH3 0x11A DUP6 DUP3 DUP7 ADD PUSH3 0xD9 JUMP JUMPDEST SWAP3 POP POP PUSH1 0x20 PUSH3 0x12D DUP6 DUP3 DUP7 ADD PUSH3 0xD9 JUMP JUMPDEST SWAP2 POP POP SWAP3 POP SWAP3 SWAP1 POP JUMP JUMPDEST PUSH1 0x0 PUSH3 0x144 DUP3 PUSH3 0x194 JUMP JUMPDEST SWAP2 POP PUSH3 0x151 DUP4 PUSH3 0x194 JUMP JUMPDEST SWAP3 POP DUP3 PUSH32 0xFFFFFFFFFFFFFFFFFFFFFFFFFFFFFFFFFFFFFFFFFFFFFFFFFFFFFFFFFFFFFFFF SUB DUP3 GT ISZERO PUSH3 0x189 JUMPI PUSH3 0x188 PUSH3 0x19E JUMP JUMPDEST JUMPDEST DUP3 DUP3 ADD SWAP1 POP SWAP3 SWAP2 POP POP JUMP JUMPDEST PUSH1 0x0 DUP2 SWAP1 POP SWAP2 SWAP1 POP JUMP JUMPDEST PUSH32 0x4E487B7100000000000000000000000000000000000000000000000000000000 PUSH1 0x0 MSTORE PUSH1 0x11 PUSH1 0x4 MSTORE PUSH1 0x24 PUSH1 0x0 REVERT JUMPDEST PUSH32 0x4E487B7100000000000000000000000000000000000000000000000000000000 PUSH1 0x0 MSTORE PUSH1 0x21 PUSH1 0x4 MSTORE PUSH1 0x24 PUSH1 0x0 REVERT JUMPDEST PUSH1 0x0 DUP1 REVERT JUMPDEST PUSH3 0x20C DUP2 PUSH3 0x194 JUMP JUMPDEST DUP2 EQ PUSH3 0x218 JUMPI PUSH1 0x0 DUP1 REVERT JUMPDEST POP JUMP JUMPDEST PUSH2 0x1A06 DUP1 PUSH3 0x22B PUSH1 0x0 CODECOPY PUSH1 0x0 RETURN INVALID PUSH1 0x80 PUSH1 0x40 MSTORE PUSH1 0x4 CALLDATASIZE LT PUSH2 0x102 JUMPI PUSH1 0x0 CALLDATALOAD PUSH1 0xE0 SHR DUP1 PUSH4 0x81D12C58 GT PUSH2 0x95 JUMPI DUP1 PUSH4 0xB25CDCCF GT PUSH2 0x64 JUMPI DUP1 PUSH4 0xB25CDCCF EQ PUSH2 0x328 JUMPI DUP1 PUSH4 0xC59EE1DC EQ PUSH2 0x353 JUMPI DUP1 PUSH4 0xD5CEF133 EQ PUSH2 0x37E JUMPI DUP1 PUSH4 0xD7BB99BA EQ PUSH2 0x388 JUMPI DUP1 PUSH4 0xF851A440 EQ PUSH2 0x392 JUMPI PUSH2 0x111 JUMP JUMPDEST DUP1 PUSH4 0x81D12C58 EQ PUSH2 0x27A JUMPI DUP1 PUSH4 0x9FB42B1F EQ PUSH2 0x2BB JUMPI DUP1 PUSH4 0xA8B78ED0 EQ PUSH2 0x2E6 JUMPI DUP1 PUSH4 0xAAFFADF3 EQ PUSH2 0x2FD JUMPI PUSH2 0x111 JUMP JUMPDEST DUP1 PUSH4 0x40193883 GT PUSH2 0xD1 JUMPI DUP1 PUSH4 0x40193883 EQ PUSH2 0x1D4 JUMPI DUP1 PUSH4 0x4B5E7D70 EQ PUSH2 0x1FF JUMPI DUP1 PUSH4 0x4CB6F4A5 EQ PUSH2 0x228 JUMPI DUP1 PUSH4 0x5114CB52 EQ PUSH2 0x251 JUMPI PUSH2 0x111 JUMP JUMPDEST DUP1 PUSH4 0x12065FE0 EQ PUSH2 0x116 JUMPI DUP1 PUSH4 0x1E206F15 EQ PUSH2 0x141 JUMPI DUP1 PUSH4 0x1F6D4942 EQ PUSH2 0x16C JUMPI DUP1 PUSH4 0x29DCB0CF EQ PUSH2 0x1A9 JUMPI PUSH2 0x111 JUMP JUMPDEST CALLDATASIZE PUSH2 0x111 JUMPI PUSH2 0x10F PUSH2 0x3BD JUMP JUMPDEST STOP JUMPDEST PUSH1 0x0 DUP1 REVERT JUMPDEST CALLVALUE DUP1 ISZERO PUSH2 0x122 JUMPI PUSH1 0x0 DUP1 REVERT JUMPDEST POP PUSH2 0x12B PUSH2 0x5C6 JUMP JUMPDEST PUSH1 0x40 MLOAD PUSH2 0x138 SWAP2 SWAP1 PUSH2 0x1491 JUMP JUMPDEST PUSH1 0x40 MLOAD DUP1 SWAP2 SUB SWAP1 RETURN JUMPDEST CALLVALUE DUP1 ISZERO PUSH2 0x14D JUMPI PUSH1 0x0 DUP1 REVERT JUMPDEST POP PUSH2 0x156 PUSH2 0x5CE JUMP JUMPDEST PUSH1 0x40 MLOAD PUSH2 0x163 SWAP2 SWAP1 PUSH2 0x1491 JUMP JUMPDEST PUSH1 0x40 MLOAD DUP1 SWAP2 SUB SWAP1 RETURN JUMPDEST CALLVALUE DUP1 ISZERO PUSH2 0x178 JUMPI PUSH1 0x0 DUP1 REVERT JUMPDEST POP PUSH2 0x193 PUSH1 0x4 DUP1 CALLDATASIZE SUB DUP2 ADD SWAP1 PUSH2 0x18E SWAP2 SWAP1 PUSH2 0x1040 JUMP JUMPDEST PUSH2 0x5D4 JUMP JUMPDEST PUSH1 0x40 MLOAD PUSH2 0x1A0 SWAP2 SWAP1 PUSH2 0x1491 JUMP JUMPDEST PUSH1 0x40 MLOAD DUP1 SWAP2 SUB SWAP1 RETURN JUMPDEST CALLVALUE DUP1 ISZERO PUSH2 0x1B5 JUMPI PUSH1 0x0 DUP1 REVERT JUMPDEST POP PUSH2 0x1BE PUSH2 0x5EC JUMP JUMPDEST PUSH1 0x40 MLOAD PUSH2 0x1CB SWAP2 SWAP1 PUSH2 0x1491 JUMP JUMPDEST PUSH1 0x40 MLOAD DUP1 SWAP2 SUB SWAP1 RETURN JUMPDEST CALLVALUE DUP1 ISZERO PUSH2 0x1E0 JUMPI PUSH1 0x0 DUP1 REVERT JUMPDEST POP PUSH2 0x1E9 PUSH2 0x5F2 JUMP JUMPDEST PUSH1 0x40 MLOAD PUSH2 0x1F6 SWAP2 SWAP1 PUSH2 0x1491 JUMP JUMPDEST PUSH1 0x40 MLOAD DUP1 SWAP2 SUB SWAP1 RETURN JUMPDEST CALLVALUE DUP1 ISZERO PUSH2 0x20B JUMPI PUSH1 0x0 DUP1 REVERT JUMPDEST POP PUSH2 0x226 PUSH1 0x4 DUP1 CALLDATASIZE SUB DUP2 ADD SWAP1 PUSH2 0x221 SWAP2 SWAP1 PUSH2 0x106D JUMP JUMPDEST PUSH2 0x5F8 JUMP JUMPDEST STOP JUMPDEST CALLVALUE DUP1 ISZERO PUSH2 0x234 JUMPI PUSH1 0x0 DUP1 REVERT JUMPDEST POP PUSH2 0x24F PUSH1 0x4 DUP1 CALLDATASIZE SUB DUP2 ADD SWAP1 PUSH2 0x24A SWAP2 SWAP1 PUSH2 0x10DC JUMP JUMPDEST PUSH2 0x786 JUMP JUMPDEST STOP JUMPDEST CALLVALUE DUP1 ISZERO PUSH2 0x25D JUMPI PUSH1 0x0 DUP1 REVERT JUMPDEST POP PUSH2 0x278 PUSH1 0x4 DUP1 CALLDATASIZE SUB DUP2 ADD SWAP1 PUSH2 0x273 SWAP2 SWAP1 PUSH2 0x10DC JUMP JUMPDEST PUSH2 0x92B JUMP JUMPDEST STOP JUMPDEST CALLVALUE DUP1 ISZERO PUSH2 0x286 JUMPI PUSH1 0x0 DUP1 REVERT JUMPDEST POP PUSH2 0x2A1 PUSH1 0x4 DUP1 CALLDATASIZE SUB DUP2 ADD SWAP1 PUSH2 0x29C SWAP2 SWAP1 PUSH2 0x10DC JUMP JUMPDEST PUSH2 0xB4F JUMP JUMPDEST PUSH1 0x40 MLOAD PUSH2 0x2B2 SWAP6 SWAP5 SWAP4 SWAP3 SWAP2 SWAP1 PUSH2 0x1357 JUMP JUMPDEST PUSH1 0x40 MLOAD DUP1 SWAP2 SUB SWAP1 RETURN JUMPDEST CALLVALUE DUP1 ISZERO PUSH2 0x2C7 JUMPI PUSH1 0x0 DUP1 REVERT JUMPDEST POP PUSH2 0x2D0 PUSH2 0xC3A JUMP JUMPDEST PUSH1 0x40 MLOAD PUSH2 0x2DD SWAP2 SWAP1 PUSH2 0x1491 JUMP JUMPDEST PUSH1 0x40 MLOAD DUP1 SWAP2 SUB SWAP1 RETURN JUMPDEST CALLVALUE DUP1 ISZERO PUSH2 0x2F2 JUMPI PUSH1 0x0 DUP1 REVERT JUMPDEST POP PUSH2 0x2FB PUSH2 0xC40 JUMP JUMPDEST STOP JUMPDEST CALLVALUE DUP1 ISZERO PUSH2 0x309 JUMPI PUSH1 0x0 DUP1 REVERT JUMPDEST POP PUSH2 0x312 PUSH2 0xCFD JUMP JUMPDEST PUSH1 0x40 MLOAD PUSH2 0x31F SWAP2 SWAP1 PUSH2 0x1491 JUMP JUMPDEST PUSH1 0x40 MLOAD DUP1 SWAP2 SUB SWAP1 RETURN JUMPDEST CALLVALUE DUP1 ISZERO PUSH2 0x334 JUMPI PUSH1 0x0 DUP1 REVERT JUMPDEST POP PUSH2 0x33D PUSH2 0xD03 JUMP JUMPDEST PUSH1 0x40 MLOAD PUSH2 0x34A SWAP2 SWAP1 PUSH2 0x12FE JUMP JUMPDEST PUSH1 0x40 MLOAD DUP1 SWAP2 SUB SWAP1 RETURN JUMPDEST CALLVALUE DUP1 ISZERO PUSH2 0x35F JUMPI PUSH1 0x0 DUP1 REVERT JUMPDEST POP PUSH2 0x368 PUSH2 0xD16 JUMP JUMPDEST PUSH1 0x40 MLOAD PUSH2 0x375 SWAP2 SWAP1 PUSH2 0x1491 JUMP JUMPDEST PUSH1 0x40 MLOAD DUP1 SWAP2 SUB SWAP1 RETURN JUMPDEST PUSH2 0x386 PUSH2 0xD1C JUMP JUMPDEST STOP JUMPDEST PUSH2 0x390 PUSH2 0x3BD JUMP JUMPDEST STOP JUMPDEST CALLVALUE DUP1 ISZERO PUSH2 0x39E JUMPI PUSH1 0x0 DUP1 REVERT JUMPDEST POP PUSH2 0x3A7 PUSH2 0xEC8 JUMP JUMPDEST PUSH1 0x40 MLOAD PUSH2 0x3B4 SWAP2 SWAP1 PUSH2 0x1291 JUMP JUMPDEST PUSH1 0x40 MLOAD DUP1 SWAP2 SUB SWAP1 RETURN JUMPDEST PUSH1 0x2 PUSH1 0x4 DUP2 GT ISZERO PUSH2 0x3D1 JUMPI PUSH2 0x3D0 PUSH2 0x17A6 JUMP JUMPDEST JUMPDEST PUSH1 0x9 PUSH1 0x0 SWAP1 SLOAD SWAP1 PUSH2 0x100 EXP SWAP1 DIV PUSH1 0xFF AND PUSH1 0x4 DUP2 GT ISZERO PUSH2 0x3F3 JUMPI PUSH2 0x3F2 PUSH2 0x17A6 JUMP JUMPDEST JUMPDEST EQ PUSH2 0x433 JUMPI PUSH1 0x40 MLOAD PUSH32 0x8C379A000000000000000000000000000000000000000000000000000000000 DUP2 MSTORE PUSH1 0x4 ADD PUSH2 0x42A SWAP1 PUSH2 0x1471 JUMP JUMPDEST PUSH1 0x40 MLOAD DUP1 SWAP2 SUB SWAP1 REVERT JUMPDEST PUSH1 0x4 SLOAD TIMESTAMP GT ISZERO PUSH2 0x478 JUMPI PUSH1 0x40 MLOAD PUSH32 0x8C379A000000000000000000000000000000000000000000000000000000000 DUP2 MSTORE PUSH1 0x4 ADD PUSH2 0x46F SWAP1 PUSH2 0x1451 JUMP JUMPDEST PUSH1 0x40 MLOAD DUP1 SWAP2 SUB SWAP1 REVERT JUMPDEST PUSH1 0x3 SLOAD CALLVALUE LT ISZERO PUSH2 0x4BD JUMPI PUSH1 0x40 MLOAD PUSH32 0x8C379A000000000000000000000000000000000000000000000000000000000 DUP2 MSTORE PUSH1 0x4 ADD PUSH2 0x4B4 SWAP1 PUSH2 0x13D1 JUMP JUMPDEST PUSH1 0x40 MLOAD DUP1 SWAP2 SUB SWAP1 REVERT JUMPDEST PUSH1 0x0 DUP1 PUSH1 0x0 CALLER PUSH20 0xFFFFFFFFFFFFFFFFFFFFFFFFFFFFFFFFFFFFFFFF AND PUSH20 0xFFFFFFFFFFFFFFFFFFFFFFFFFFFFFFFFFFFFFFFF AND DUP2 MSTORE PUSH1 0x20 ADD SWAP1 DUP2 MSTORE PUSH1 0x20 ADD PUSH1 0x0 KECCAK256 SLOAD EQ ISZERO PUSH2 0x51D JUMPI PUSH1 0x2 PUSH1 0x0 DUP2 SLOAD DUP1 SWAP3 SWAP2 SWAP1 PUSH2 0x517 SWAP1 PUSH2 0x16FF JUMP JUMPDEST SWAP2 SWAP1 POP SSTORE POP JUMPDEST CALLVALUE PUSH1 0x0 DUP1 CALLER PUSH20 0xFFFFFFFFFFFFFFFFFFFFFFFFFFFFFFFFFFFFFFFF AND PUSH20 0xFFFFFFFFFFFFFFFFFFFFFFFFFFFFFFFFFFFFFFFF AND DUP2 MSTORE PUSH1 0x20 ADD SWAP1 DUP2 MSTORE PUSH1 0x20 ADD PUSH1 0x0 KECCAK256 PUSH1 0x0 DUP3 DUP3 SLOAD PUSH2 0x56B SWAP2 SWAP1 PUSH2 0x151E JUMP JUMPDEST SWAP3 POP POP DUP2 SWAP1 SSTORE POP CALLVALUE PUSH1 0x6 PUSH1 0x0 DUP3 DUP3 SLOAD PUSH2 0x584 SWAP2 SWAP1 PUSH2 0x151E JUMP JUMPDEST SWAP3 POP POP DUP2 SWAP1 SSTORE POP PUSH32 0x2DAF61DEC57A2C194E9E87958B1A40A5C236B5E8C6041655D664DDBD16C29320 CALLER CALLVALUE PUSH1 0x40 MLOAD PUSH2 0x5BC SWAP3 SWAP2 SWAP1 PUSH2 0x12D5 JUMP JUMPDEST PUSH1 0x40 MLOAD DUP1 SWAP2 SUB SWAP1 LOG1 JUMP JUMPDEST PUSH1 0x0 SELFBALANCE SWAP1 POP SWAP1 JUMP JUMPDEST PUSH1 0x2 SLOAD DUP2 JUMP JUMPDEST PUSH1 0x0 PUSH1 0x20 MSTORE DUP1 PUSH1 0x0 MSTORE PUSH1 0x40 PUSH1 0x0 KECCAK256 PUSH1 0x0 SWAP2 POP SWAP1 POP SLOAD DUP2 JUMP JUMPDEST PUSH1 0x4 SLOAD DUP2 JUMP JUMPDEST PUSH1 0x5 SLOAD DUP2 JUMP JUMPDEST PUSH1 0x1 PUSH1 0x0 SWAP1 SLOAD SWAP1 PUSH2 0x100 EXP SWAP1 DIV PUSH20 0xFFFFFFFFFFFFFFFFFFFFFFFFFFFFFFFFFFFFFFFF AND PUSH20 0xFFFFFFFFFFFFFFFFFFFFFFFFFFFFFFFFFFFFFFFF AND CALLER PUSH20 0xFFFFFFFFFFFFFFFFFFFFFFFFFFFFFFFFFFFFFFFF AND EQ PUSH2 0x688 JUMPI PUSH1 0x40 MLOAD PUSH32 0x8C379A000000000000000000000000000000000000000000000000000000000 DUP2 MSTORE PUSH1 0x4 ADD PUSH2 0x67F SWAP1 PUSH2 0x1431 JUMP JUMPDEST PUSH1 0x40 MLOAD DUP1 SWAP2 SUB SWAP1 REVERT JUMPDEST PUSH1 0x0 PUSH1 0x7 PUSH1 0x0 PUSH1 0x8 SLOAD DUP2 MSTORE PUSH1 0x20 ADD SWAP1 DUP2 MSTORE PUSH1 0x20 ADD PUSH1 0x0 KECCAK256 SWAP1 POP PUSH1 0x8 PUSH1 0x0 DUP2 SLOAD DUP1 SWAP3 SWAP2 SWAP1 PUSH2 0x6B4 SWAP1 PUSH2 0x16FF JUMP JUMPDEST SWAP2 SWAP1 POP SSTORE POP DUP4 DUP2 PUSH1 0x0 ADD SWAP1 DUP1 MLOAD SWAP1 PUSH1 0x20 ADD SWAP1 PUSH2 0x6D1 SWAP3 SWAP2 SWAP1 PUSH2 0xEEE JUMP JUMPDEST POP DUP3 DUP2 PUSH1 0x1 ADD PUSH1 0x0 PUSH2 0x100 EXP DUP2 SLOAD DUP2 PUSH20 0xFFFFFFFFFFFFFFFFFFFFFFFFFFFFFFFFFFFFFFFF MUL NOT AND SWAP1 DUP4 PUSH20 0xFFFFFFFFFFFFFFFFFFFFFFFFFFFFFFFFFFFFFFFF AND MUL OR SWAP1 SSTORE POP DUP2 DUP2 PUSH1 0x2 ADD DUP2 SWAP1 SSTORE POP PUSH1 0x0 DUP2 PUSH1 0x3 ADD PUSH1 0x0 PUSH2 0x100 EXP DUP2 SLOAD DUP2 PUSH1 0xFF MUL NOT AND SWAP1 DUP4 ISZERO ISZERO MUL OR SWAP1 SSTORE POP PUSH1 0x0 DUP2 PUSH1 0x4 ADD DUP2 SWAP1 SSTORE POP PUSH32 0x5392BD80651676CCAAEDEC1AFBE841D47E369223DF0BA1586110B6426EE87A3A DUP5 DUP5 DUP5 PUSH1 0x40 MLOAD PUSH2 0x778 SWAP4 SWAP3 SWAP2 SWAP1 PUSH2 0x1319 JUMP JUMPDEST PUSH1 0x40 MLOAD DUP1 SWAP2 SUB SWAP1 LOG1 POP POP POP POP JUMP JUMPDEST PUSH1 0x0 DUP1 PUSH1 0x0 CALLER PUSH20 0xFFFFFFFFFFFFFFFFFFFFFFFFFFFFFFFFFFFFFFFF AND PUSH20 0xFFFFFFFFFFFFFFFFFFFFFFFFFFFFFFFFFFFFFFFF AND DUP2 MSTORE PUSH1 0x20 ADD SWAP1 DUP2 MSTORE PUSH1 0x20 ADD PUSH1 0x0 KECCAK256 SLOAD GT PUSH2 0x807 JUMPI PUSH1 0x40 MLOAD PUSH32 0x8C379A000000000000000000000000000000000000000000000000000000000 DUP2 MSTORE PUSH1 0x4 ADD PUSH2 0x7FE SWAP1 PUSH2 0x13F1 JUMP JUMPDEST PUSH1 0x40 MLOAD DUP1 SWAP2 SUB SWAP1 REVERT JUMPDEST PUSH1 0x0 PUSH1 0x7 PUSH1 0x0 DUP4 DUP2 MSTORE PUSH1 0x20 ADD SWAP1 DUP2 MSTORE PUSH1 0x20 ADD PUSH1 0x0 KECCAK256 SWAP1 POP PUSH1 0x0 ISZERO ISZERO DUP2 PUSH1 0x5 ADD PUSH1 0x0 CALLER PUSH20 0xFFFFFFFFFFFFFFFFFFFFFFFFFFFFFFFFFFFFFFFF AND PUSH20 0xFFFFFFFFFFFFFFFFFFFFFFFFFFFFFFFFFFFFFFFF AND DUP2 MSTORE PUSH1 0x20 ADD SWAP1 DUP2 MSTORE PUSH1 0x20 ADD PUSH1 0x0 KECCAK256 PUSH1 0x0 SWAP1 SLOAD SWAP1 PUSH2 0x100 EXP SWAP1 DIV PUSH1 0xFF AND ISZERO ISZERO EQ PUSH2 0x8B3 JUMPI PUSH1 0x40 MLOAD PUSH32 0x8C379A000000000000000000000000000000000000000000000000000000000 DUP2 MSTORE PUSH1 0x4 ADD PUSH2 0x8AA SWAP1 PUSH2 0x1411 JUMP JUMPDEST PUSH1 0x40 MLOAD DUP1 SWAP2 SUB SWAP1 REVERT JUMPDEST PUSH1 0x1 DUP2 PUSH1 0x5 ADD PUSH1 0x0 CALLER PUSH20 0xFFFFFFFFFFFFFFFFFFFFFFFFFFFFFFFFFFFFFFFF AND PUSH20 0xFFFFFFFFFFFFFFFFFFFFFFFFFFFFFFFFFFFFFFFF AND DUP2 MSTORE PUSH1 0x20 ADD SWAP1 DUP2 MSTORE PUSH1 0x20 ADD PUSH1 0x0 KECCAK256 PUSH1 0x0 PUSH2 0x100 EXP DUP2 SLOAD DUP2 PUSH1 0xFF MUL NOT AND SWAP1 DUP4 ISZERO ISZERO MUL OR SWAP1 SSTORE POP DUP1 PUSH1 0x4 ADD PUSH1 0x0 DUP2 SLOAD DUP1 SWAP3 SWAP2 SWAP1 PUSH2 0x922 SWAP1 PUSH2 0x16FF JUMP JUMPDEST SWAP2 SWAP1 POP SSTORE POP POP POP JUMP JUMPDEST PUSH1 0x1 PUSH1 0x0 SWAP1 SLOAD SWAP1 PUSH2 0x100 EXP SWAP1 DIV PUSH20 0xFFFFFFFFFFFFFFFFFFFFFFFFFFFFFFFFFFFFFFFF AND PUSH20 0xFFFFFFFFFFFFFFFFFFFFFFFFFFFFFFFFFFFFFFFF AND CALLER PUSH20 0xFFFFFFFFFFFFFFFFFFFFFFFFFFFFFFFFFFFFFFFF AND EQ PUSH2 0x9BB JUMPI PUSH1 0x40 MLOAD PUSH32 0x8C379A000000000000000000000000000000000000000000000000000000000 DUP2 MSTORE PUSH1 0x4 ADD PUSH2 0x9B2 SWAP1 PUSH2 0x1431 JUMP JUMPDEST PUSH1 0x40 MLOAD DUP1 SWAP2 SUB SWAP1 REVERT JUMPDEST PUSH1 0x5 SLOAD PUSH1 0x6 SLOAD LT ISZERO PUSH2 0x9CC JUMPI PUSH1 0x0 DUP1 REVERT JUMPDEST PUSH1 0x0 PUSH1 0x7 PUSH1 0x0 DUP4 DUP2 MSTORE PUSH1 0x20 ADD SWAP1 DUP2 MSTORE PUSH1 0x20 ADD PUSH1 0x0 KECCAK256 SWAP1 POP PUSH1 0x0 ISZERO ISZERO DUP2 PUSH1 0x3 ADD PUSH1 0x0 SWAP1 SLOAD SWAP1 PUSH2 0x100 EXP SWAP1 DIV PUSH1 0xFF AND ISZERO ISZERO EQ PUSH2 0xA3B JUMPI PUSH1 0x40 MLOAD PUSH32 0x8C379A000000000000000000000000000000000000000000000000000000000 DUP2 MSTORE PUSH1 0x4 ADD PUSH2 0xA32 SWAP1 PUSH2 0x13B1 JUMP JUMPDEST PUSH1 0x40 MLOAD DUP1 SWAP2 SUB SWAP1 REVERT JUMPDEST PUSH1 0x0 DUP2 PUSH1 0x4 ADD SLOAD SWAP1 POP PUSH1 0x2 DUP1 SLOAD PUSH2 0xA52 SWAP2 SWAP1 PUSH2 0x1574 JUMP JUMPDEST DUP2 GT PUSH2 0xA5D JUMPI PUSH1 0x0 DUP1 REVERT JUMPDEST DUP2 PUSH1 0x1 ADD PUSH1 0x0 SWAP1 SLOAD SWAP1 PUSH2 0x100 EXP SWAP1 DIV PUSH20 0xFFFFFFFFFFFFFFFFFFFFFFFFFFFFFFFFFFFFFFFF AND PUSH20 0xFFFFFFFFFFFFFFFFFFFFFFFFFFFFFFFFFFFFFFFF AND PUSH2 0x8FC DUP4 PUSH1 0x2 ADD SLOAD SWAP1 DUP2 ISZERO MUL SWAP1 PUSH1 0x40 MLOAD PUSH1 0x0 PUSH1 0x40 MLOAD DUP1 DUP4 SUB DUP2 DUP6 DUP9 DUP9 CALL SWAP4 POP POP POP POP ISZERO DUP1 ISZERO PUSH2 0xACB JUMPI RETURNDATASIZE PUSH1 0x0 DUP1 RETURNDATACOPY RETURNDATASIZE PUSH1 0x0 REVERT JUMPDEST POP PUSH1 0x1 DUP3 PUSH1 0x3 ADD PUSH1 0x0 PUSH2 0x100 EXP DUP2 SLOAD DUP2 PUSH1 0xFF MUL NOT AND SWAP1 DUP4 ISZERO ISZERO MUL OR SWAP1 SSTORE POP PUSH32 0x516E1673E5E85C44620165259173329ADDA2AD25E7BB15020C732BE060B5B790 DUP3 PUSH1 0x1 ADD PUSH1 0x0 SWAP1 SLOAD SWAP1 PUSH2 0x100 EXP SWAP1 DIV PUSH20 0xFFFFFFFFFFFFFFFFFFFFFFFFFFFFFFFFFFFFFFFF AND DUP4 PUSH1 0x2 ADD SLOAD PUSH1 0x40 MLOAD PUSH2 0xB42 SWAP3 SWAP2 SWAP1 PUSH2 0x12AC JUMP JUMPDEST PUSH1 0x40 MLOAD DUP1 SWAP2 SUB SWAP1 LOG1 POP POP POP JUMP JUMPDEST PUSH1 0x7 PUSH1 0x20 MSTORE DUP1 PUSH1 0x0 MSTORE PUSH1 0x40 PUSH1 0x0 KECCAK256 PUSH1 0x0 SWAP2 POP SWAP1 POP DUP1 PUSH1 0x0 ADD DUP1 SLOAD PUSH2 0xB72 SWAP1 PUSH2 0x169C JUMP JUMPDEST DUP1 PUSH1 0x1F ADD PUSH1 0x20 DUP1 SWAP2 DIV MUL PUSH1 0x20 ADD PUSH1 0x40 MLOAD SWAP1 DUP2 ADD PUSH1 0x40 MSTORE DUP1 SWAP3 SWAP2 SWAP1 DUP2 DUP2 MSTORE PUSH1 0x20 ADD DUP3 DUP1 SLOAD PUSH2 0xB9E SWAP1 PUSH2 0x169C JUMP JUMPDEST DUP1 ISZERO PUSH2 0xBEB JUMPI DUP1 PUSH1 0x1F LT PUSH2 0xBC0 JUMPI PUSH2 0x100 DUP1 DUP4 SLOAD DIV MUL DUP4 MSTORE SWAP2 PUSH1 0x20 ADD SWAP2 PUSH2 0xBEB JUMP JUMPDEST DUP3 ADD SWAP2 SWAP1 PUSH1 0x0 MSTORE PUSH1 0x20 PUSH1 0x0 KECCAK256 SWAP1 JUMPDEST DUP2 SLOAD DUP2 MSTORE SWAP1 PUSH1 0x1 ADD SWAP1 PUSH1 0x20 ADD DUP1 DUP4 GT PUSH2 0xBCE JUMPI DUP3 SWAP1 SUB PUSH1 0x1F AND DUP3 ADD SWAP2 JUMPDEST POP POP POP POP POP SWAP1 DUP1 PUSH1 0x1 ADD PUSH1 0x0 SWAP1 SLOAD SWAP1 PUSH2 0x100 EXP SWAP1 DIV PUSH20 0xFFFFFFFFFFFFFFFFFFFFFFFFFFFFFFFFFFFFFFFF AND SWAP1 DUP1 PUSH1 0x2 ADD SLOAD SWAP1 DUP1 PUSH1 0x3 ADD PUSH1 0x0 SWAP1 SLOAD SWAP1 PUSH2 0x100 EXP SWAP1 DIV PUSH1 0xFF AND SWAP1 DUP1 PUSH1 0x4 ADD SLOAD SWAP1 POP DUP6 JUMP JUMPDEST PUSH1 0x8 SLOAD DUP2 JUMP JUMPDEST PUSH1 0x1 PUSH1 0x0 SWAP1 SLOAD SWAP1 PUSH2 0x100 EXP SWAP1 DIV PUSH20 0xFFFFFFFFFFFFFFFFFFFFFFFFFFFFFFFFFFFFFFFF AND PUSH20 0xFFFFFFFFFFFFFFFFFFFFFFFFFFFFFFFFFFFFFFFF AND CALLER PUSH20 0xFFFFFFFFFFFFFFFFFFFFFFFFFFFFFFFFFFFFFFFF AND EQ PUSH2 0xCD0 JUMPI PUSH1 0x40 MLOAD PUSH32 0x8C379A000000000000000000000000000000000000000000000000000000000 DUP2 MSTORE PUSH1 0x4 ADD PUSH2 0xCC7 SWAP1 PUSH2 0x1431 JUMP JUMPDEST PUSH1 0x40 MLOAD DUP1 SWAP2 SUB SWAP1 REVERT JUMPDEST PUSH1 0x2 PUSH1 0x9 PUSH1 0x0 PUSH2 0x100 EXP DUP2 SLOAD DUP2 PUSH1 0xFF MUL NOT AND SWAP1 DUP4 PUSH1 0x4 DUP2 GT ISZERO PUSH2 0xCF6 JUMPI PUSH2 0xCF5 PUSH2 0x17A6 JUMP JUMPDEST JUMPDEST MUL OR SWAP1 SSTORE POP JUMP JUMPDEST PUSH1 0x3 SLOAD DUP2 JUMP JUMPDEST PUSH1 0x9 PUSH1 0x0 SWAP1 SLOAD SWAP1 PUSH2 0x100 EXP SWAP1 DIV PUSH1 0xFF AND DUP2 JUMP JUMPDEST PUSH1 0x6 SLOAD DUP2 JUMP JUMPDEST PUSH1 0x0 DUP1 PUSH1 0x0 CALLER PUSH20 0xFFFFFFFFFFFFFFFFFFFFFFFFFFFFFFFFFFFFFFFF AND PUSH20 0xFFFFFFFFFFFFFFFFFFFFFFFFFFFFFFFFFFFFFFFF AND DUP2 MSTORE PUSH1 0x20 ADD SWAP1 DUP2 MSTORE PUSH1 0x20 ADD PUSH1 0x0 KECCAK256 SLOAD GT PUSH2 0xD9D JUMPI PUSH1 0x40 MLOAD PUSH32 0x8C379A000000000000000000000000000000000000000000000000000000000 DUP2 MSTORE PUSH1 0x4 ADD PUSH2 0xD94 SWAP1 PUSH2 0x13F1 JUMP JUMPDEST PUSH1 0x40 MLOAD DUP1 SWAP2 SUB SWAP1 REVERT JUMPDEST PUSH1 0x4 DUP1 DUP2 GT ISZERO PUSH2 0xDB0 JUMPI PUSH2 0xDAF PUSH2 0x17A6 JUMP JUMPDEST JUMPDEST PUSH1 0x9 PUSH1 0x0 SWAP1 SLOAD SWAP1 PUSH2 0x100 EXP SWAP1 DIV PUSH1 0xFF AND PUSH1 0x4 DUP2 GT ISZERO PUSH2 0xDD2 JUMPI PUSH2 0xDD1 PUSH2 0x17A6 JUMP JUMPDEST JUMPDEST EQ DUP1 PUSH2 0xDEE JUMPI POP PUSH1 0x4 SLOAD TIMESTAMP GT DUP1 ISZERO PUSH2 0xDED JUMPI POP PUSH1 0x5 SLOAD PUSH1 0x6 SLOAD LT JUMPDEST JUMPDEST PUSH2 0xDF7 JUMPI PUSH1 0x0 DUP1 REVERT JUMPDEST PUSH1 0x0 DUP1 PUSH1 0x0 CALLER PUSH20 0xFFFFFFFFFFFFFFFFFFFFFFFFFFFFFFFFFFFFFFFF AND PUSH20 0xFFFFFFFFFFFFFFFFFFFFFFFFFFFFFFFFFFFFFFFF AND DUP2 MSTORE PUSH1 0x20 ADD SWAP1 DUP2 MSTORE PUSH1 0x20 ADD PUSH1 0x0 KECCAK256 SLOAD SWAP1 POP PUSH1 0x0 DUP1 PUSH1 0x0 CALLER PUSH20 0xFFFFFFFFFFFFFFFFFFFFFFFFFFFFFFFFFFFFFFFF AND PUSH20 0xFFFFFFFFFFFFFFFFFFFFFFFFFFFFFFFFFFFFFFFF AND DUP2 MSTORE PUSH1 0x20 ADD SWAP1 DUP2 MSTORE PUSH1 0x20 ADD PUSH1 0x0 KECCAK256 DUP2 SWAP1 SSTORE POP CALLER PUSH20 0xFFFFFFFFFFFFFFFFFFFFFFFFFFFFFFFFFFFFFFFF AND PUSH2 0x8FC DUP3 SWAP1 DUP2 ISZERO MUL SWAP1 PUSH1 0x40 MLOAD PUSH1 0x0 PUSH1 0x40 MLOAD DUP1 DUP4 SUB DUP2 DUP6 DUP9 DUP9 CALL SWAP4 POP POP POP POP ISZERO DUP1 ISZERO PUSH2 0xEC4 JUMPI RETURNDATASIZE PUSH1 0x0 DUP1 RETURNDATACOPY RETURNDATASIZE PUSH1 0x0 REVERT JUMPDEST POP POP JUMP JUMPDEST PUSH1 0x1 PUSH1 0x0 SWAP1 SLOAD SWAP1 PUSH2 0x100 EXP SWAP1 DIV PUSH20 0xFFFFFFFFFFFFFFFFFFFFFFFFFFFFFFFFFFFFFFFF AND DUP2 JUMP JUMPDEST DUP3 DUP1 SLOAD PUSH2 0xEFA SWAP1 PUSH2 0x169C JUMP JUMPDEST SWAP1 PUSH1 0x0 MSTORE PUSH1 0x20 PUSH1 0x0 KECCAK256 SWAP1 PUSH1 0x1F ADD PUSH1 0x20 SWAP1 DIV DUP2 ADD SWAP3 DUP3 PUSH2 0xF1C JUMPI PUSH1 0x0 DUP6 SSTORE PUSH2 0xF63 JUMP JUMPDEST DUP3 PUSH1 0x1F LT PUSH2 0xF35 JUMPI DUP1 MLOAD PUSH1 0xFF NOT AND DUP4 DUP1 ADD OR DUP6 SSTORE PUSH2 0xF63 JUMP JUMPDEST DUP3 DUP1 ADD PUSH1 0x1 ADD DUP6 SSTORE DUP3 ISZERO PUSH2 0xF63 JUMPI SWAP2 DUP3 ADD JUMPDEST DUP3 DUP2 GT ISZERO PUSH2 0xF62 JUMPI DUP3 MLOAD DUP3 SSTORE SWAP2 PUSH1 0x20 ADD SWAP2 SWAP1 PUSH1 0x1 ADD SWAP1 PUSH2 0xF47 JUMP JUMPDEST JUMPDEST POP SWAP1 POP PUSH2 0xF70 SWAP2 SWAP1 PUSH2 0xF74 JUMP JUMPDEST POP SWAP1 JUMP JUMPDEST JUMPDEST DUP1 DUP3 GT ISZERO PUSH2 0xF8D JUMPI PUSH1 0x0 DUP2 PUSH1 0x0 SWAP1 SSTORE POP PUSH1 0x1 ADD PUSH2 0xF75 JUMP JUMPDEST POP SWAP1 JUMP JUMPDEST PUSH1 0x0 PUSH2 0xFA4 PUSH2 0xF9F DUP5 PUSH2 0x14D1 JUMP JUMPDEST PUSH2 0x14AC JUMP JUMPDEST SWAP1 POP DUP3 DUP2 MSTORE PUSH1 0x20 DUP2 ADD DUP5 DUP5 DUP5 ADD GT ISZERO PUSH2 0xFC0 JUMPI PUSH2 0xFBF PUSH2 0x1838 JUMP JUMPDEST JUMPDEST PUSH2 0xFCB DUP5 DUP3 DUP6 PUSH2 0x165A JUMP JUMPDEST POP SWAP4 SWAP3 POP POP POP JUMP JUMPDEST PUSH1 0x0 DUP2 CALLDATALOAD SWAP1 POP PUSH2 0xFE2 DUP2 PUSH2 0x198B JUMP JUMPDEST SWAP3 SWAP2 POP POP JUMP JUMPDEST PUSH1 0x0 DUP2 CALLDATALOAD SWAP1 POP PUSH2 0xFF7 DUP2 PUSH2 0x19A2 JUMP JUMPDEST SWAP3 SWAP2 POP POP JUMP JUMPDEST PUSH1 0x0 DUP3 PUSH1 0x1F DUP4 ADD SLT PUSH2 0x1012 JUMPI PUSH2 0x1011 PUSH2 0x1833 JUMP JUMPDEST JUMPDEST DUP2 CALLDATALOAD PUSH2 0x1022 DUP5 DUP3 PUSH1 0x20 DUP7 ADD PUSH2 0xF91 JUMP JUMPDEST SWAP2 POP POP SWAP3 SWAP2 POP POP JUMP JUMPDEST PUSH1 0x0 DUP2 CALLDATALOAD SWAP1 POP PUSH2 0x103A DUP2 PUSH2 0x19B9 JUMP JUMPDEST SWAP3 SWAP2 POP POP JUMP JUMPDEST PUSH1 0x0 PUSH1 0x20 DUP3 DUP5 SUB SLT ISZERO PUSH2 0x1056 JUMPI PUSH2 0x1055 PUSH2 0x1842 JUMP JUMPDEST JUMPDEST PUSH1 0x0 PUSH2 0x1064 DUP5 DUP3 DUP6 ADD PUSH2 0xFD3 JUMP JUMPDEST SWAP2 POP POP SWAP3 SWAP2 POP POP JUMP JUMPDEST PUSH1 0x0 DUP1 PUSH1 0x0 PUSH1 0x60 DUP5 DUP7 SUB SLT ISZERO PUSH2 0x1086 JUMPI PUSH2 0x1085 PUSH2 0x1842 JUMP JUMPDEST JUMPDEST PUSH1 0x0 DUP5 ADD CALLDATALOAD PUSH8 0xFFFFFFFFFFFFFFFF DUP2 GT ISZERO PUSH2 0x10A4 JUMPI PUSH2 0x10A3 PUSH2 0x183D JUMP JUMPDEST JUMPDEST PUSH2 0x10B0 DUP7 DUP3 DUP8 ADD PUSH2 0xFFD JUMP JUMPDEST SWAP4 POP POP PUSH1 0x20 PUSH2 0x10C1 DUP7 DUP3 DUP8 ADD PUSH2 0xFE8 JUMP JUMPDEST SWAP3 POP POP PUSH1 0x40 PUSH2 0x10D2 DUP7 DUP3 DUP8 ADD PUSH2 0x102B JUMP JUMPDEST SWAP2 POP POP SWAP3 POP SWAP3 POP SWAP3 JUMP JUMPDEST PUSH1 0x0 PUSH1 0x20 DUP3 DUP5 SUB SLT ISZERO PUSH2 0x10F2 JUMPI PUSH2 0x10F1 PUSH2 0x1842 JUMP JUMPDEST JUMPDEST PUSH1 0x0 PUSH2 0x1100 DUP5 DUP3 DUP6 ADD PUSH2 0x102B JUMP JUMPDEST SWAP2 POP POP SWAP3 SWAP2 POP POP JUMP JUMPDEST PUSH2 0x1112 DUP2 PUSH2 0x1612 JUMP JUMPDEST DUP3 MSTORE POP POP JUMP JUMPDEST PUSH2 0x1121 DUP2 PUSH2 0x15B7 JUMP JUMPDEST DUP3 MSTORE POP POP JUMP JUMPDEST PUSH2 0x1130 DUP2 PUSH2 0x15A5 JUMP JUMPDEST DUP3 MSTORE POP POP JUMP JUMPDEST PUSH2 0x113F DUP2 PUSH2 0x15C9 JUMP JUMPDEST DUP3 MSTORE POP POP JUMP JUMPDEST PUSH2 0x114E DUP2 PUSH2 0x1624 JUMP JUMPDEST DUP3 MSTORE POP POP JUMP JUMPDEST PUSH1 0x0 PUSH2 0x115F DUP3 PUSH2 0x1502 JUMP JUMPDEST PUSH2 0x1169 DUP2 DUP6 PUSH2 0x150D JUMP JUMPDEST SWAP4 POP PUSH2 0x1179 DUP2 DUP6 PUSH1 0x20 DUP7 ADD PUSH2 0x1669 JUMP JUMPDEST PUSH2 0x1182 DUP2 PUSH2 0x1847 JUMP JUMPDEST DUP5 ADD SWAP2 POP POP SWAP3 SWAP2 POP POP JUMP JUMPDEST PUSH1 0x0 PUSH2 0x119A PUSH1 0x19 DUP4 PUSH2 0x150D JUMP JUMPDEST SWAP2 POP PUSH2 0x11A5 DUP3 PUSH2 0x1858 JUMP JUMPDEST PUSH1 0x20 DUP3 ADD SWAP1 POP SWAP2 SWAP1 POP JUMP JUMPDEST PUSH1 0x0 PUSH2 0x11BD PUSH1 0x1C DUP4 PUSH2 0x150D JUMP JUMPDEST SWAP2 POP PUSH2 0x11C8 DUP3 PUSH2 0x1881 JUMP JUMPDEST PUSH1 0x20 DUP3 ADD SWAP1 POP SWAP2 SWAP1 POP JUMP JUMPDEST PUSH1 0x0 PUSH2 0x11E0 PUSH1 0x19 DUP4 PUSH2 0x150D JUMP JUMPDEST SWAP2 POP PUSH2 0x11EB DUP3 PUSH2 0x18AA JUMP JUMPDEST PUSH1 0x20 DUP3 ADD SWAP1 POP SWAP2 SWAP1 POP JUMP JUMPDEST PUSH1 0x0 PUSH2 0x1203 PUSH1 0x11 DUP4 PUSH2 0x150D JUMP JUMPDEST SWAP2 POP PUSH2 0x120E DUP3 PUSH2 0x18D3 JUMP JUMPDEST PUSH1 0x20 DUP3 ADD SWAP1 POP SWAP2 SWAP1 POP JUMP JUMPDEST PUSH1 0x0 PUSH2 0x1226 PUSH1 0x1E DUP4 PUSH2 0x150D JUMP JUMPDEST SWAP2 POP PUSH2 0x1231 DUP3 PUSH2 0x18FC JUMP JUMPDEST PUSH1 0x20 DUP3 ADD SWAP1 POP SWAP2 SWAP1 POP JUMP JUMPDEST PUSH1 0x0 PUSH2 0x1249 PUSH1 0xF DUP4 PUSH2 0x150D JUMP JUMPDEST SWAP2 POP PUSH2 0x1254 DUP3 PUSH2 0x1925 JUMP JUMPDEST PUSH1 0x20 DUP3 ADD SWAP1 POP SWAP2 SWAP1 POP JUMP JUMPDEST PUSH1 0x0 PUSH2 0x126C PUSH1 0x1B DUP4 PUSH2 0x150D JUMP JUMPDEST SWAP2 POP PUSH2 0x1277 DUP3 PUSH2 0x194E JUMP JUMPDEST PUSH1 0x20 DUP3 ADD SWAP1 POP SWAP2 SWAP1 POP JUMP JUMPDEST PUSH2 0x128B DUP2 PUSH2 0x1608 JUMP JUMPDEST DUP3 MSTORE POP POP JUMP JUMPDEST PUSH1 0x0 PUSH1 0x20 DUP3 ADD SWAP1 POP PUSH2 0x12A6 PUSH1 0x0 DUP4 ADD DUP5 PUSH2 0x1127 JUMP JUMPDEST SWAP3 SWAP2 POP POP JUMP JUMPDEST PUSH1 0x0 PUSH1 0x40 DUP3 ADD SWAP1 POP PUSH2 0x12C1 PUSH1 0x0 DUP4 ADD DUP6 PUSH2 0x1109 JUMP JUMPDEST PUSH2 0x12CE PUSH1 0x20 DUP4 ADD DUP5 PUSH2 0x1282 JUMP JUMPDEST SWAP4 SWAP3 POP POP POP JUMP JUMPDEST PUSH1 0x0 PUSH1 0x40 DUP3 ADD SWAP1 POP PUSH2 0x12EA PUSH1 0x0 DUP4 ADD DUP6 PUSH2 0x1127 JUMP JUMPDEST PUSH2 0x12F7 PUSH1 0x20 DUP4 ADD DUP5 PUSH2 0x1282 JUMP JUMPDEST SWAP4 SWAP3 POP POP POP JUMP JUMPDEST PUSH1 0x0 PUSH1 0x20 DUP3 ADD SWAP1 POP PUSH2 0x1313 PUSH1 0x0 DUP4 ADD DUP5 PUSH2 0x1145 JUMP JUMPDEST SWAP3 SWAP2 POP POP JUMP JUMPDEST PUSH1 0x0 PUSH1 0x60 DUP3 ADD SWAP1 POP DUP2 DUP2 SUB PUSH1 0x0 DUP4 ADD MSTORE PUSH2 0x1333 DUP2 DUP7 PUSH2 0x1154 JUMP JUMPDEST SWAP1 POP PUSH2 0x1342 PUSH1 0x20 DUP4 ADD DUP6 PUSH2 0x1109 JUMP JUMPDEST PUSH2 0x134F PUSH1 0x40 DUP4 ADD DUP5 PUSH2 0x1282 JUMP JUMPDEST SWAP5 SWAP4 POP POP POP POP JUMP JUMPDEST PUSH1 0x0 PUSH1 0xA0 DUP3 ADD SWAP1 POP DUP2 DUP2 SUB PUSH1 0x0 DUP4 ADD MSTORE PUSH2 0x1371 DUP2 DUP9 PUSH2 0x1154 JUMP JUMPDEST SWAP1 POP PUSH2 0x1380 PUSH1 0x20 DUP4 ADD DUP8 PUSH2 0x1118 JUMP JUMPDEST PUSH2 0x138D PUSH1 0x40 DUP4 ADD DUP7 PUSH2 0x1282 JUMP JUMPDEST PUSH2 0x139A PUSH1 0x60 DUP4 ADD DUP6 PUSH2 0x1136 JUMP JUMPDEST PUSH2 0x13A7 PUSH1 0x80 DUP4 ADD DUP5 PUSH2 0x1282 JUMP JUMPDEST SWAP7 SWAP6 POP POP POP POP POP POP JUMP JUMPDEST PUSH1 0x0 PUSH1 0x20 DUP3 ADD SWAP1 POP DUP2 DUP2 SUB PUSH1 0x0 DUP4 ADD MSTORE PUSH2 0x13CA DUP2 PUSH2 0x118D JUMP JUMPDEST SWAP1 POP SWAP2 SWAP1 POP JUMP JUMPDEST PUSH1 0x0 PUSH1 0x20 DUP3 ADD SWAP1 POP DUP2 DUP2 SUB PUSH1 0x0 DUP4 ADD MSTORE PUSH2 0x13EA DUP2 PUSH2 0x11B0 JUMP JUMPDEST SWAP1 POP SWAP2 SWAP1 POP JUMP JUMPDEST PUSH1 0x0 PUSH1 0x20 DUP3 ADD SWAP1 POP DUP2 DUP2 SUB PUSH1 0x0 DUP4 ADD MSTORE PUSH2 0x140A DUP2 PUSH2 0x11D3 JUMP JUMPDEST SWAP1 POP SWAP2 SWAP1 POP JUMP JUMPDEST PUSH1 0x0 PUSH1 0x20 DUP3 ADD SWAP1 POP DUP2 DUP2 SUB PUSH1 0x0 DUP4 ADD MSTORE PUSH2 0x142A DUP2 PUSH2 0x11F6 JUMP JUMPDEST SWAP1 POP SWAP2 SWAP1 POP JUMP JUMPDEST PUSH1 0x0 PUSH1 0x20 DUP3 ADD SWAP1 POP DUP2 DUP2 SUB PUSH1 0x0 DUP4 ADD MSTORE PUSH2 0x144A DUP2 PUSH2 0x1219 JUMP JUMPDEST SWAP1 POP SWAP2 SWAP1 POP JUMP JUMPDEST PUSH1 0x0 PUSH1 0x20 DUP3 ADD SWAP1 POP DUP2 DUP2 SUB PUSH1 0x0 DUP4 ADD MSTORE PUSH2 0x146A DUP2 PUSH2 0x123C JUMP JUMPDEST SWAP1 POP SWAP2 SWAP1 POP JUMP JUMPDEST PUSH1 0x0 PUSH1 0x20 DUP3 ADD SWAP1 POP DUP2 DUP2 SUB PUSH1 0x0 DUP4 ADD MSTORE PUSH2 0x148A DUP2 PUSH2 0x125F JUMP JUMPDEST SWAP1 POP SWAP2 SWAP1 POP JUMP JUMPDEST PUSH1 0x0 PUSH1 0x20 DUP3 ADD SWAP1 POP PUSH2 0x14A6 PUSH1 0x0 DUP4 ADD DUP5 PUSH2 0x1282 JUMP JUMPDEST SWAP3 SWAP2 POP POP JUMP JUMPDEST PUSH1 0x0 PUSH2 0x14B6 PUSH2 0x14C7 JUMP JUMPDEST SWAP1 POP PUSH2 0x14C2 DUP3 DUP3 PUSH2 0x16CE JUMP JUMPDEST SWAP2 SWAP1 POP JUMP JUMPDEST PUSH1 0x0 PUSH1 0x40 MLOAD SWAP1 POP SWAP1 JUMP JUMPDEST PUSH1 0x0 PUSH8 0xFFFFFFFFFFFFFFFF DUP3 GT ISZERO PUSH2 0x14EC JUMPI PUSH2 0x14EB PUSH2 0x1804 JUMP JUMPDEST JUMPDEST PUSH2 0x14F5 DUP3 PUSH2 0x1847 JUMP JUMPDEST SWAP1 POP PUSH1 0x20 DUP2 ADD SWAP1 POP SWAP2 SWAP1 POP JUMP JUMPDEST PUSH1 0x0 DUP2 MLOAD SWAP1 POP SWAP2 SWAP1 POP JUMP JUMPDEST PUSH1 0x0 DUP3 DUP3 MSTORE PUSH1 0x20 DUP3 ADD SWAP1 POP SWAP3 SWAP2 POP POP JUMP JUMPDEST PUSH1 0x0 PUSH2 0x1529 DUP3 PUSH2 0x1608 JUMP JUMPDEST SWAP2 POP PUSH2 0x1534 DUP4 PUSH2 0x1608 JUMP JUMPDEST SWAP3 POP DUP3 PUSH32 0xFFFFFFFFFFFFFFFFFFFFFFFFFFFFFFFFFFFFFFFFFFFFFFFFFFFFFFFFFFFFFFFF SUB DUP3 GT ISZERO PUSH2 0x1569 JUMPI PUSH2 0x1568 PUSH2 0x1748 JUMP JUMPDEST JUMPDEST DUP3 DUP3 ADD SWAP1 POP SWAP3 SWAP2 POP POP JUMP JUMPDEST PUSH1 0x0 PUSH2 0x157F DUP3 PUSH2 0x1608 JUMP JUMPDEST SWAP2 POP PUSH2 0x158A DUP4 PUSH2 0x1608 JUMP JUMPDEST SWAP3 POP DUP3 PUSH2 0x159A JUMPI PUSH2 0x1599 PUSH2 0x1777 JUMP JUMPDEST JUMPDEST DUP3 DUP3 DIV SWAP1 POP SWAP3 SWAP2 POP POP JUMP JUMPDEST PUSH1 0x0 PUSH2 0x15B0 DUP3 PUSH2 0x15E8 JUMP JUMPDEST SWAP1 POP SWAP2 SWAP1 POP JUMP JUMPDEST PUSH1 0x0 PUSH2 0x15C2 DUP3 PUSH2 0x15E8 JUMP JUMPDEST SWAP1 POP SWAP2 SWAP1 POP JUMP JUMPDEST PUSH1 0x0 DUP2 ISZERO ISZERO SWAP1 POP SWAP2 SWAP1 POP JUMP JUMPDEST PUSH1 0x0 DUP2 SWAP1 POP PUSH2 0x15E3 DUP3 PUSH2 0x1977 JUMP JUMPDEST SWAP2 SWAP1 POP JUMP JUMPDEST PUSH1 0x0 PUSH20 0xFFFFFFFFFFFFFFFFFFFFFFFFFFFFFFFFFFFFFFFF DUP3 AND SWAP1 POP SWAP2 SWAP1 POP JUMP JUMPDEST PUSH1 0x0 DUP2 SWAP1 POP SWAP2 SWAP1 POP JUMP JUMPDEST PUSH1 0x0 PUSH2 0x161D DUP3 PUSH2 0x1636 JUMP JUMPDEST SWAP1 POP SWAP2 SWAP1 POP JUMP JUMPDEST PUSH1 0x0 PUSH2 0x162F DUP3 PUSH2 0x15D5 JUMP JUMPDEST SWAP1 POP SWAP2 SWAP1 POP JUMP JUMPDEST PUSH1 0x0 PUSH2 0x1641 DUP3 PUSH2 0x1648 JUMP JUMPDEST SWAP1 POP SWAP2 SWAP1 POP JUMP JUMPDEST PUSH1 0x0 PUSH2 0x1653 DUP3 PUSH2 0x15E8 JUMP JUMPDEST SWAP1 POP SWAP2 SWAP1 POP JUMP JUMPDEST DUP3 DUP2 DUP4 CALLDATACOPY PUSH1 0x0 DUP4 DUP4 ADD MSTORE POP POP POP JUMP JUMPDEST PUSH1 0x0 JUMPDEST DUP4 DUP2 LT ISZERO PUSH2 0x1687 JUMPI DUP1 DUP3 ADD MLOAD DUP2 DUP5 ADD MSTORE PUSH1 0x20 DUP2 ADD SWAP1 POP PUSH2 0x166C JUMP JUMPDEST DUP4 DUP2 GT ISZERO PUSH2 0x1696 JUMPI PUSH1 0x0 DUP5 DUP5 ADD MSTORE JUMPDEST POP POP POP POP JUMP JUMPDEST PUSH1 0x0 PUSH1 0x2 DUP3 DIV SWAP1 POP PUSH1 0x1 DUP3 AND DUP1 PUSH2 0x16B4 JUMPI PUSH1 0x7F DUP3 AND SWAP2 POP JUMPDEST PUSH1 0x20 DUP3 LT DUP2 EQ ISZERO PUSH2 0x16C8 JUMPI PUSH2 0x16C7 PUSH2 0x17D5 JUMP JUMPDEST JUMPDEST POP SWAP2 SWAP1 POP JUMP JUMPDEST PUSH2 0x16D7 DUP3 PUSH2 0x1847 JUMP JUMPDEST DUP2 ADD DUP2 DUP2 LT PUSH8 0xFFFFFFFFFFFFFFFF DUP3 GT OR ISZERO PUSH2 0x16F6 JUMPI PUSH2 0x16F5 PUSH2 0x1804 JUMP JUMPDEST JUMPDEST DUP1 PUSH1 0x40 MSTORE POP POP POP JUMP JUMPDEST PUSH1 0x0 PUSH2 0x170A DUP3 PUSH2 0x1608 JUMP JUMPDEST SWAP2 POP PUSH32 0xFFFFFFFFFFFFFFFFFFFFFFFFFFFFFFFFFFFFFFFFFFFFFFFFFFFFFFFFFFFFFFFF DUP3 EQ ISZERO PUSH2 0x173D JUMPI PUSH2 0x173C PUSH2 0x1748 JUMP JUMPDEST JUMPDEST PUSH1 0x1 DUP3 ADD SWAP1 POP SWAP2 SWAP1 POP JUMP JUMPDEST PUSH32 0x4E487B7100000000000000000000000000000000000000000000000000000000 PUSH1 0x0 MSTORE PUSH1 0x11 PUSH1 0x4 MSTORE PUSH1 0x24 PUSH1 0x0 REVERT JUMPDEST PUSH32 0x4E487B7100000000000000000000000000000000000000000000000000000000 PUSH1 0x0 MSTORE PUSH1 0x12 PUSH1 0x4 MSTORE PUSH1 0x24 PUSH1 0x0 REVERT JUMPDEST PUSH32 0x4E487B7100000000000000000000000000000000000000000000000000000000 PUSH1 0x0 MSTORE PUSH1 0x21 PUSH1 0x4 MSTORE PUSH1 0x24 PUSH1 0x0 REVERT JUMPDEST PUSH32 0x4E487B7100000000000000000000000000000000000000000000000000000000 PUSH1 0x0 MSTORE PUSH1 0x22 PUSH1 0x4 MSTORE PUSH1 0x24 PUSH1 0x0 REVERT JUMPDEST PUSH32 0x4E487B7100000000000000000000000000000000000000000000000000000000 PUSH1 0x0 MSTORE PUSH1 0x41 PUSH1 0x4 MSTORE PUSH1 0x24 PUSH1 0x0 REVERT JUMPDEST PUSH1 0x0 DUP1 REVERT JUMPDEST PUSH1 0x0 DUP1 REVERT JUMPDEST PUSH1 0x0 DUP1 REVERT JUMPDEST PUSH1 0x0 DUP1 REVERT JUMPDEST PUSH1 0x0 PUSH1 0x1F NOT PUSH1 0x1F DUP4 ADD AND SWAP1 POP SWAP2 SWAP1 POP JUMP JUMPDEST PUSH32 0x7265717565737420616C726561647920636F6D706C6574656400000000000000 PUSH1 0x0 DUP3 ADD MSTORE POP JUMP JUMPDEST PUSH32 0x6469646E74207265616368206D696E20636F6E747269627574696F6E00000000 PUSH1 0x0 DUP3 ADD MSTORE POP JUMP JUMPDEST PUSH32 0x796F7520617265206E6F74206120636F6E7472696275746F7200000000000000 PUSH1 0x0 DUP3 ADD MSTORE POP JUMP JUMPDEST PUSH32 0x796F7520616C726561647920766F746564000000000000000000000000000000 PUSH1 0x0 DUP3 ADD MSTORE POP JUMP JUMPDEST PUSH32 0x6D6573736167652073656E646572206973206E6F7420616E2061646D696E0000 PUSH1 0x0 DUP3 ADD MSTORE POP JUMP JUMPDEST PUSH32 0x646561646C696E65207061737365640000000000000000000000000000000000 PUSH1 0x0 DUP3 ADD MSTORE POP JUMP JUMPDEST PUSH32 0x43726F776446756E64696E67206973206E6F742072756E6E696E670000000000 PUSH1 0x0 DUP3 ADD MSTORE POP JUMP JUMPDEST PUSH1 0x5 DUP2 LT PUSH2 0x1988 JUMPI PUSH2 0x1987 PUSH2 0x17A6 JUMP JUMPDEST JUMPDEST POP JUMP JUMPDEST PUSH2 0x1994 DUP2 PUSH2 0x15A5 JUMP JUMPDEST DUP2 EQ PUSH2 0x199F JUMPI PUSH1 0x0 DUP1 REVERT JUMPDEST POP JUMP JUMPDEST PUSH2 0x19AB DUP2 PUSH2 0x15B7 JUMP JUMPDEST DUP2 EQ PUSH2 0x19B6 JUMPI PUSH1 0x0 DUP1 REVERT JUMPDEST POP JUMP JUMPDEST PUSH2 0x19C2 DUP2 PUSH2 0x1608 JUMP JUMPDEST DUP2 EQ PUSH2 0x19CD JUMPI PUSH1 0x0 DUP1 REVERT JUMPDEST POP JUMP INVALID LOG2 PUSH5 0x6970667358 0x22 SLT KECCAK256 SGT PUSH18 0xA79900FF64F827A17426591485845EE99634 LOG4 NUMBER 0xA8 EXTCODECOPY INVALID 0x5E 0x49 XOR PC 0xDE JUMPI 0xBD PUSH5 0x736F6C6343 STOP ADDMOD SMOD STOP CALLER "
				},
				"gasEstimates": {
					"creation": {
						"codeDepositCost": "1332400",
						"executionCost": "infinite",
						"totalCost": "infinite"
					},
					"external": {
						"addRequest(string,address,uint256)": "infinite",
						"admin()": "2624",
						"contribute()": "infinite",
						"contributors(address)": "2882",
						"deadline()": "2519",
						"fundingState()": "2582",
						"getBalance()": "363",
						"goal()": "2452",
						"makePayment(uint256)": "infinite",
						"minContribution()": "2518",
						"numOfContributors()": "2475",
						"numRequests()": "2474",
						"raisedAmount()": "2473",
						"requestRefund()": "infinite",
						"requests(uint256)": "infinite",
						"startCampaign()": "26668",
						"voteRequest(uint256)": "infinite"
					}
				},
				"methodIdentifiers": {
					"addRequest(string,address,uint256)": "4b5e7d70",
					"admin()": "f851a440",
					"contribute()": "d7bb99ba",
					"contributors(address)": "1f6d4942",
					"deadline()": "29dcb0cf",
					"fundingState()": "b25cdccf",
					"getBalance()": "12065fe0",
					"goal()": "40193883",
					"makePayment(uint256)": "5114cb52",
					"minContribution()": "aaffadf3",
					"numOfContributors()": "1e206f15",
					"numRequests()": "9fb42b1f",
					"raisedAmount()": "c59ee1dc",
					"requestRefund()": "d5cef133",
					"requests(uint256)": "81d12c58",
					"startCampaign()": "a8b78ed0",
					"voteRequest(uint256)": "4cb6f4a5"
				}
			},
			"storageLayout": {
				"storage": [
					{
						"astId": 5,
						"contract": "contracts/crowdfunding.sol:CrowdFunding",
						"label": "contributors",
						"offset": 0,
						"slot": "0",
						"type": "t_mapping(t_address,t_uint256)"
					},
					{
						"astId": 7,
						"contract": "contracts/crowdfunding.sol:CrowdFunding",
						"label": "admin",
						"offset": 0,
						"slot": "1",
						"type": "t_address"
					},
					{
						"astId": 9,
						"contract": "contracts/crowdfunding.sol:CrowdFunding",
						"label": "numOfContributors",
						"offset": 0,
						"slot": "2",
						"type": "t_uint256"
					},
					{
						"astId": 11,
						"contract": "contracts/crowdfunding.sol:CrowdFunding",
						"label": "minContribution",
						"offset": 0,
						"slot": "3",
						"type": "t_uint256"
					},
					{
						"astId": 13,
						"contract": "contracts/crowdfunding.sol:CrowdFunding",
						"label": "deadline",
						"offset": 0,
						"slot": "4",
						"type": "t_uint256"
					},
					{
						"astId": 15,
						"contract": "contracts/crowdfunding.sol:CrowdFunding",
						"label": "goal",
						"offset": 0,
						"slot": "5",
						"type": "t_uint256"
					},
					{
						"astId": 17,
						"contract": "contracts/crowdfunding.sol:CrowdFunding",
						"label": "raisedAmount",
						"offset": 0,
						"slot": "6",
						"type": "t_uint256"
					},
					{
						"astId": 37,
						"contract": "contracts/crowdfunding.sol:CrowdFunding",
						"label": "requests",
						"offset": 0,
						"slot": "7",
						"type": "t_mapping(t_uint256,t_struct(Request)32_storage)"
					},
					{
						"astId": 39,
						"contract": "contracts/crowdfunding.sol:CrowdFunding",
						"label": "numRequests",
						"offset": 0,
						"slot": "8",
						"type": "t_uint256"
					},
					{
						"astId": 48,
						"contract": "contracts/crowdfunding.sol:CrowdFunding",
						"label": "fundingState",
						"offset": 0,
						"slot": "9",
						"type": "t_enum(State)45"
					}
				],
				"types": {
					"t_address": {
						"encoding": "inplace",
						"label": "address",
						"numberOfBytes": "20"
					},
					"t_address_payable": {
						"encoding": "inplace",
						"label": "address payable",
						"numberOfBytes": "20"
					},
					"t_bool": {
						"encoding": "inplace",
						"label": "bool",
						"numberOfBytes": "1"
					},
					"t_enum(State)45": {
						"encoding": "inplace",
						"label": "enum CrowdFunding.State",
						"numberOfBytes": "1"
					},
					"t_mapping(t_address,t_bool)": {
						"encoding": "mapping",
						"key": "t_address",
						"label": "mapping(address => bool)",
						"numberOfBytes": "32",
						"value": "t_bool"
					},
					"t_mapping(t_address,t_uint256)": {
						"encoding": "mapping",
						"key": "t_address",
						"label": "mapping(address => uint256)",
						"numberOfBytes": "32",
						"value": "t_uint256"
					},
					"t_mapping(t_uint256,t_struct(Request)32_storage)": {
						"encoding": "mapping",
						"key": "t_uint256",
						"label": "mapping(uint256 => struct CrowdFunding.Request)",
						"numberOfBytes": "32",
						"value": "t_struct(Request)32_storage"
					},
					"t_string_storage": {
						"encoding": "bytes",
						"label": "string",
						"numberOfBytes": "32"
					},
					"t_struct(Request)32_storage": {
						"encoding": "inplace",
						"label": "struct CrowdFunding.Request",
						"members": [
							{
								"astId": 19,
								"contract": "contracts/crowdfunding.sol:CrowdFunding",
								"label": "description",
								"offset": 0,
								"slot": "0",
								"type": "t_string_storage"
							},
							{
								"astId": 21,
								"contract": "contracts/crowdfunding.sol:CrowdFunding",
								"label": "recipient",
								"offset": 0,
								"slot": "1",
								"type": "t_address_payable"
							},
							{
								"astId": 23,
								"contract": "contracts/crowdfunding.sol:CrowdFunding",
								"label": "value",
								"offset": 0,
								"slot": "2",
								"type": "t_uint256"
							},
							{
								"astId": 25,
								"contract": "contracts/crowdfunding.sol:CrowdFunding",
								"label": "completed",
								"offset": 0,
								"slot": "3",
								"type": "t_bool"
							},
							{
								"astId": 27,
								"contract": "contracts/crowdfunding.sol:CrowdFunding",
								"label": "numOfVoters",
								"offset": 0,
								"slot": "4",
								"type": "t_uint256"
							},
							{
								"astId": 31,
								"contract": "contracts/crowdfunding.sol:CrowdFunding",
								"label": "voters",
								"offset": 0,
								"slot": "5",
								"type": "t_mapping(t_address,t_bool)"
							}
						],
						"numberOfBytes": "192"
					},
					"t_uint256": {
						"encoding": "inplace",
						"label": "uint256",
						"numberOfBytes": "32"
					}
				}
			},
			"userdoc": {
				"kind": "user",
				"methods": {},
				"version": 1
			}
		}
	}
}