{
	"contracts/crowdfunding.sol": {
		"CrowdFunding": {
			"abi": [
				{
					"inputs": [
						{
							"internalType": "uint256",
							"name": "_goal",
							"type": "uint256"
						},
						{
							"internalType": "uint256",
							"name": "_deadline",
							"type": "uint256"
						}
					],
					"stateMutability": "nonpayable",
					"type": "constructor"
				},
				{
					"inputs": [],
					"name": "admin",
					"outputs": [
						{
							"internalType": "address",
							"name": "",
							"type": "address"
						}
					],
					"stateMutability": "view",
					"type": "function"
				},
				{
					"inputs": [],
					"name": "contribute",
					"outputs": [],
					"stateMutability": "payable",
					"type": "function"
				},
				{
					"inputs": [
						{
							"internalType": "address",
							"name": "",
							"type": "address"
						}
					],
					"name": "contributors",
					"outputs": [
						{
							"internalType": "uint256",
							"name": "",
							"type": "uint256"
						}
					],
					"stateMutability": "view",
					"type": "function"
				},
				{
					"inputs": [],
					"name": "deadline",
					"outputs": [
						{
							"internalType": "uint256",
							"name": "",
							"type": "uint256"
						}
					],
					"stateMutability": "view",
					"type": "function"
				},
				{
					"inputs": [],
					"name": "fundingState",
					"outputs": [
						{
							"internalType": "enum CrowdFunding.State",
							"name": "",
							"type": "uint8"
						}
					],
					"stateMutability": "view",
					"type": "function"
				},
				{
					"inputs": [],
					"name": "getBalance",
					"outputs": [
						{
							"internalType": "uint256",
							"name": "",
							"type": "uint256"
						}
					],
					"stateMutability": "view",
					"type": "function"
				},
				{
					"inputs": [],
					"name": "goal",
					"outputs": [
						{
							"internalType": "uint256",
							"name": "",
							"type": "uint256"
						}
					],
					"stateMutability": "view",
					"type": "function"
				},
				{
					"inputs": [],
					"name": "minContribution",
					"outputs": [
						{
							"internalType": "uint256",
							"name": "",
							"type": "uint256"
						}
					],
					"stateMutability": "view",
					"type": "function"
				},
				{
					"inputs": [],
					"name": "numOfContributors",
					"outputs": [
						{
							"internalType": "uint256",
							"name": "",
							"type": "uint256"
						}
					],
					"stateMutability": "view",
					"type": "function"
				},
				{
					"inputs": [],
					"name": "raisedAmount",
					"outputs": [
						{
							"internalType": "uint256",
							"name": "",
							"type": "uint256"
						}
					],
					"stateMutability": "view",
					"type": "function"
				},
				{
					"inputs": [],
					"name": "requestRefund",
					"outputs": [],
					"stateMutability": "payable",
					"type": "function"
				},
				{
					"inputs": [],
					"name": "startCampaign",
					"outputs": [],
					"stateMutability": "nonpayable",
					"type": "function"
				},
				{
					"stateMutability": "payable",
					"type": "receive"
				}
			],
			"devdoc": {
				"kind": "dev",
				"methods": {},
				"version": 1
			},
			"evm": {
				"assembly": "    /* \"contracts/crowdfunding.sol\":73:1973  contract CrowdFunding{\r... */\n  mstore(0x40, 0x80)\n    /* \"contracts/crowdfunding.sol\":428:679  constructor(uint _goal, uint _deadline){\r... */\n  callvalue\n  dup1\n  iszero\n  tag_1\n  jumpi\n  0x00\n  dup1\n  revert\ntag_1:\n  pop\n  mload(0x40)\n  sub(codesize, bytecodeSize)\n  dup1\n  bytecodeSize\n  dup4\n  codecopy\n  dup2\n  dup2\n  add\n  0x40\n  mstore\n  dup2\n  add\n  swap1\n  tag_2\n  swap2\n  swap1\n  tag_3\n  jump\t// in\ntag_2:\n    /* \"contracts/crowdfunding.sol\":486:496  msg.sender */\n  caller\n    /* \"contracts/crowdfunding.sol\":478:483  admin */\n  0x01\n  0x00\n    /* \"contracts/crowdfunding.sol\":478:496  admin = msg.sender */\n  0x0100\n  exp\n  dup2\n  sload\n  dup2\n  0xffffffffffffffffffffffffffffffffffffffff\n  mul\n  not\n  and\n  swap1\n  dup4\n  0xffffffffffffffffffffffffffffffffffffffff\n  and\n  mul\n  or\n  swap1\n  sstore\n  pop\n    /* \"contracts/crowdfunding.sol\":522:532  State.INIT */\n  0x00\n    /* \"contracts/crowdfunding.sol\":507:519  fundingState */\n  0x07\n  0x00\n    /* \"contracts/crowdfunding.sol\":507:532  fundingState = State.INIT */\n  0x0100\n  exp\n  dup2\n  sload\n  dup2\n  0xff\n  mul\n  not\n  and\n  swap1\n  dup4\n  0x04\n  dup2\n  gt\n  iszero\n  tag_6\n  jumpi\n  tag_7\n  tag_8\n  jump\t// in\ntag_7:\ntag_6:\n  mul\n  or\n  swap1\n  sstore\n  pop\n    /* \"contracts/crowdfunding.sol\":550:555  _goal */\n  dup2\n    /* \"contracts/crowdfunding.sol\":543:547  goal */\n  0x05\n    /* \"contracts/crowdfunding.sol\":543:555  goal = _goal */\n  dup2\n  swap1\n  sstore\n  pop\n    /* \"contracts/crowdfunding.sol\":594:603  _deadline */\n  dup1\n    /* \"contracts/crowdfunding.sol\":577:592  block.timestamp */\n  timestamp\n    /* \"contracts/crowdfunding.sol\":577:603  block.timestamp+ _deadline */\n  tag_9\n  swap2\n  swap1\n  tag_10\n  jump\t// in\ntag_9:\n    /* \"contracts/crowdfunding.sol\":566:574  deadline */\n  0x04\n    /* \"contracts/crowdfunding.sol\":566:603  deadline = block.timestamp+ _deadline */\n  dup2\n  swap1\n  sstore\n  pop\n    /* \"contracts/crowdfunding.sol\":632:639  100 wei */\n  0x64\n    /* \"contracts/crowdfunding.sol\":614:629  minContribution */\n  0x03\n    /* \"contracts/crowdfunding.sol\":614:639  minContribution = 100 wei */\n  dup2\n  swap1\n  sstore\n  pop\n    /* \"contracts/crowdfunding.sol\":670:671  0 */\n  0x00\n    /* \"contracts/crowdfunding.sol\":650:667  numOfContributors */\n  0x02\n    /* \"contracts/crowdfunding.sol\":650:671  numOfContributors = 0 */\n  dup2\n  swap1\n  sstore\n  pop\n    /* \"contracts/crowdfunding.sol\":428:679  constructor(uint _goal, uint _deadline){\r... */\n  pop\n  pop\n    /* \"contracts/crowdfunding.sol\":73:1973  contract CrowdFunding{\r... */\n  jump(tag_11)\n    /* \"#utility.yul\":7:150   */\ntag_13:\n    /* \"#utility.yul\":64:69   */\n  0x00\n    /* \"#utility.yul\":95:101   */\n  dup2\n    /* \"#utility.yul\":89:102   */\n  mload\n    /* \"#utility.yul\":80:102   */\n  swap1\n  pop\n    /* \"#utility.yul\":111:144   */\n  tag_15\n    /* \"#utility.yul\":138:143   */\n  dup2\n    /* \"#utility.yul\":111:144   */\n  tag_16\n  jump\t// in\ntag_15:\n    /* \"#utility.yul\":7:150   */\n  swap3\n  swap2\n  pop\n  pop\n  jump\t// out\n    /* \"#utility.yul\":156:663   */\ntag_3:\n    /* \"#utility.yul\":235:241   */\n  0x00\n    /* \"#utility.yul\":243:249   */\n  dup1\n    /* \"#utility.yul\":292:294   */\n  0x40\n    /* \"#utility.yul\":280:289   */\n  dup4\n    /* \"#utility.yul\":271:278   */\n  dup6\n    /* \"#utility.yul\":267:290   */\n  sub\n    /* \"#utility.yul\":263:295   */\n  slt\n    /* \"#utility.yul\":260:379   */\n  iszero\n  tag_18\n  jumpi\n    /* \"#utility.yul\":298:377   */\n  tag_19\n  tag_20\n  jump\t// in\ntag_19:\n    /* \"#utility.yul\":260:379   */\ntag_18:\n    /* \"#utility.yul\":418:419   */\n  0x00\n    /* \"#utility.yul\":443:507   */\n  tag_21\n    /* \"#utility.yul\":499:506   */\n  dup6\n    /* \"#utility.yul\":490:496   */\n  dup3\n    /* \"#utility.yul\":479:488   */\n  dup7\n    /* \"#utility.yul\":475:497   */\n  add\n    /* \"#utility.yul\":443:507   */\n  tag_13\n  jump\t// in\ntag_21:\n    /* \"#utility.yul\":433:507   */\n  swap3\n  pop\n    /* \"#utility.yul\":389:517   */\n  pop\n    /* \"#utility.yul\":556:558   */\n  0x20\n    /* \"#utility.yul\":582:646   */\n  tag_22\n    /* \"#utility.yul\":638:645   */\n  dup6\n    /* \"#utility.yul\":629:635   */\n  dup3\n    /* \"#utility.yul\":618:627   */\n  dup7\n    /* \"#utility.yul\":614:636   */\n  add\n    /* \"#utility.yul\":582:646   */\n  tag_13\n  jump\t// in\ntag_22:\n    /* \"#utility.yul\":572:646   */\n  swap2\n  pop\n    /* \"#utility.yul\":527:656   */\n  pop\n    /* \"#utility.yul\":156:663   */\n  swap3\n  pop\n  swap3\n  swap1\n  pop\n  jump\t// out\n    /* \"#utility.yul\":750:1055   */\ntag_10:\n    /* \"#utility.yul\":790:793   */\n  0x00\n    /* \"#utility.yul\":809:829   */\n  tag_26\n    /* \"#utility.yul\":827:828   */\n  dup3\n    /* \"#utility.yul\":809:829   */\n  tag_27\n  jump\t// in\ntag_26:\n    /* \"#utility.yul\":804:829   */\n  swap2\n  pop\n    /* \"#utility.yul\":843:863   */\n  tag_28\n    /* \"#utility.yul\":861:862   */\n  dup4\n    /* \"#utility.yul\":843:863   */\n  tag_27\n  jump\t// in\ntag_28:\n    /* \"#utility.yul\":838:863   */\n  swap3\n  pop\n    /* \"#utility.yul\":997:998   */\n  dup3\n    /* \"#utility.yul\":929:995   */\n  0xffffffffffffffffffffffffffffffffffffffffffffffffffffffffffffffff\n    /* \"#utility.yul\":925:999   */\n  sub\n    /* \"#utility.yul\":922:923   */\n  dup3\n    /* \"#utility.yul\":919:1000   */\n  gt\n    /* \"#utility.yul\":916:1023   */\n  iszero\n  tag_29\n  jumpi\n    /* \"#utility.yul\":1003:1021   */\n  tag_30\n  tag_31\n  jump\t// in\ntag_30:\n    /* \"#utility.yul\":916:1023   */\ntag_29:\n    /* \"#utility.yul\":1047:1048   */\n  dup3\n    /* \"#utility.yul\":1044:1045   */\n  dup3\n    /* \"#utility.yul\":1040:1049   */\n  add\n    /* \"#utility.yul\":1033:1049   */\n  swap1\n  pop\n    /* \"#utility.yul\":750:1055   */\n  swap3\n  swap2\n  pop\n  pop\n  jump\t// out\n    /* \"#utility.yul\":1061:1138   */\ntag_27:\n    /* \"#utility.yul\":1098:1105   */\n  0x00\n    /* \"#utility.yul\":1127:1132   */\n  dup2\n    /* \"#utility.yul\":1116:1132   */\n  swap1\n  pop\n    /* \"#utility.yul\":1061:1138   */\n  swap2\n  swap1\n  pop\n  jump\t// out\n    /* \"#utility.yul\":1144:1324   */\ntag_31:\n    /* \"#utility.yul\":1192:1269   */\n  0x4e487b7100000000000000000000000000000000000000000000000000000000\n    /* \"#utility.yul\":1189:1190   */\n  0x00\n    /* \"#utility.yul\":1182:1270   */\n  mstore\n    /* \"#utility.yul\":1289:1293   */\n  0x11\n    /* \"#utility.yul\":1286:1287   */\n  0x04\n    /* \"#utility.yul\":1279:1294   */\n  mstore\n    /* \"#utility.yul\":1313:1317   */\n  0x24\n    /* \"#utility.yul\":1310:1311   */\n  0x00\n    /* \"#utility.yul\":1303:1318   */\n  revert\n    /* \"#utility.yul\":1330:1510   */\ntag_8:\n    /* \"#utility.yul\":1378:1455   */\n  0x4e487b7100000000000000000000000000000000000000000000000000000000\n    /* \"#utility.yul\":1375:1376   */\n  0x00\n    /* \"#utility.yul\":1368:1456   */\n  mstore\n    /* \"#utility.yul\":1475:1479   */\n  0x21\n    /* \"#utility.yul\":1472:1473   */\n  0x04\n    /* \"#utility.yul\":1465:1480   */\n  mstore\n    /* \"#utility.yul\":1499:1503   */\n  0x24\n    /* \"#utility.yul\":1496:1497   */\n  0x00\n    /* \"#utility.yul\":1489:1504   */\n  revert\n    /* \"#utility.yul\":1639:1756   */\ntag_20:\n    /* \"#utility.yul\":1748:1749   */\n  0x00\n    /* \"#utility.yul\":1745:1746   */\n  dup1\n    /* \"#utility.yul\":1738:1750   */\n  revert\n    /* \"#utility.yul\":1762:1884   */\ntag_16:\n    /* \"#utility.yul\":1835:1859   */\n  tag_39\n    /* \"#utility.yul\":1853:1858   */\n  dup2\n    /* \"#utility.yul\":1835:1859   */\n  tag_27\n  jump\t// in\ntag_39:\n    /* \"#utility.yul\":1828:1833   */\n  dup2\n    /* \"#utility.yul\":1825:1860   */\n  eq\n    /* \"#utility.yul\":1815:1878   */\n  tag_40\n  jumpi\n    /* \"#utility.yul\":1874:1875   */\n  0x00\n    /* \"#utility.yul\":1871:1872   */\n  dup1\n    /* \"#utility.yul\":1864:1876   */\n  revert\n    /* \"#utility.yul\":1815:1878   */\ntag_40:\n    /* \"#utility.yul\":1762:1884   */\n  pop\n  jump\t// out\n    /* \"contracts/crowdfunding.sol\":73:1973  contract CrowdFunding{\r... */\ntag_11:\n  dataSize(sub_0)\n  dup1\n  dataOffset(sub_0)\n  0x00\n  codecopy\n  0x00\n  return\nstop\n\nsub_0: assembly {\n        /* \"contracts/crowdfunding.sol\":73:1973  contract CrowdFunding{\r... */\n      mstore(0x40, 0x80)\n      jumpi(tag_1, lt(calldatasize, 0x04))\n      shr(0xe0, calldataload(0x00))\n      dup1\n      0xaaffadf3\n      gt\n      tag_15\n      jumpi\n      dup1\n      0xaaffadf3\n      eq\n      tag_9\n      jumpi\n      dup1\n      0xb25cdccf\n      eq\n      tag_10\n      jumpi\n      dup1\n      0xc59ee1dc\n      eq\n      tag_11\n      jumpi\n      dup1\n      0xd5cef133\n      eq\n      tag_12\n      jumpi\n      dup1\n      0xd7bb99ba\n      eq\n      tag_13\n      jumpi\n      dup1\n      0xf851a440\n      eq\n      tag_14\n      jumpi\n      jump(tag_2)\n    tag_15:\n      dup1\n      0x12065fe0\n      eq\n      tag_3\n      jumpi\n      dup1\n      0x1e206f15\n      eq\n      tag_4\n      jumpi\n      dup1\n      0x1f6d4942\n      eq\n      tag_5\n      jumpi\n      dup1\n      0x29dcb0cf\n      eq\n      tag_6\n      jumpi\n      dup1\n      0x40193883\n      eq\n      tag_7\n      jumpi\n      dup1\n      0xa8b78ed0\n      eq\n      tag_8\n      jumpi\n      jump(tag_2)\n    tag_1:\n      jumpi(tag_2, calldatasize)\n        /* \"contracts/crowdfunding.sol\":1143:1155  contribute() */\n      tag_18\n        /* \"contracts/crowdfunding.sol\":1143:1153  contribute */\n      tag_19\n        /* \"contracts/crowdfunding.sol\":1143:1155  contribute() */\n      jump\t// in\n    tag_18:\n        /* \"contracts/crowdfunding.sol\":73:1973  contract CrowdFunding{\r... */\n      stop\n    tag_2:\n      0x00\n      dup1\n      revert\n        /* \"contracts/crowdfunding.sol\":1588:1682  function getBalance() public view returns(uint){\r... */\n    tag_3:\n      callvalue\n      dup1\n      iszero\n      tag_20\n      jumpi\n      0x00\n      dup1\n      revert\n    tag_20:\n      pop\n      tag_21\n      tag_22\n      jump\t// in\n    tag_21:\n      mload(0x40)\n      tag_23\n      swap2\n      swap1\n      tag_24\n      jump\t// in\n    tag_23:\n      mload(0x40)\n      dup1\n      swap2\n      sub\n      swap1\n      return\n        /* \"contracts/crowdfunding.sol\":181:210  uint public numOfContributors */\n    tag_4:\n      callvalue\n      dup1\n      iszero\n      tag_25\n      jumpi\n      0x00\n      dup1\n      revert\n    tag_25:\n      pop\n      tag_26\n      tag_27\n      jump\t// in\n    tag_26:\n      mload(0x40)\n      tag_28\n      swap2\n      swap1\n      tag_24\n      jump\t// in\n    tag_28:\n      mload(0x40)\n      dup1\n      swap2\n      sub\n      swap1\n      return\n        /* \"contracts/crowdfunding.sol\":103:147  mapping(address => uint) public contributors */\n    tag_5:\n      callvalue\n      dup1\n      iszero\n      tag_29\n      jumpi\n      0x00\n      dup1\n      revert\n    tag_29:\n      pop\n      tag_30\n      0x04\n      dup1\n      calldatasize\n      sub\n      dup2\n      add\n      swap1\n      tag_31\n      swap2\n      swap1\n      tag_32\n      jump\t// in\n    tag_31:\n      tag_33\n      jump\t// in\n    tag_30:\n      mload(0x40)\n      tag_34\n      swap2\n      swap1\n      tag_24\n      jump\t// in\n    tag_34:\n      mload(0x40)\n      dup1\n      swap2\n      sub\n      swap1\n      return\n        /* \"contracts/crowdfunding.sol\":251:271  uint public deadline */\n    tag_6:\n      callvalue\n      dup1\n      iszero\n      tag_35\n      jumpi\n      0x00\n      dup1\n      revert\n    tag_35:\n      pop\n      tag_36\n      tag_37\n      jump\t// in\n    tag_36:\n      mload(0x40)\n      tag_38\n      swap2\n      swap1\n      tag_24\n      jump\t// in\n    tag_38:\n      mload(0x40)\n      dup1\n      swap2\n      sub\n      swap1\n      return\n        /* \"contracts/crowdfunding.sol\":278:294  uint public goal */\n    tag_7:\n      callvalue\n      dup1\n      iszero\n      tag_39\n      jumpi\n      0x00\n      dup1\n      revert\n    tag_39:\n      pop\n      tag_40\n      tag_41\n      jump\t// in\n    tag_40:\n      mload(0x40)\n      tag_42\n      swap2\n      swap1\n      tag_24\n      jump\t// in\n    tag_42:\n      mload(0x40)\n      dup1\n      swap2\n      sub\n      swap1\n      return\n        /* \"contracts/crowdfunding.sol\":1171:1259  function startCampaign() public adminOnly{\r... */\n    tag_8:\n      callvalue\n      dup1\n      iszero\n      tag_43\n      jumpi\n      0x00\n      dup1\n      revert\n    tag_43:\n      pop\n      tag_44\n      tag_45\n      jump\t// in\n    tag_44:\n      stop\n        /* \"contracts/crowdfunding.sol\":217:244  uint public minContribution */\n    tag_9:\n      callvalue\n      dup1\n      iszero\n      tag_46\n      jumpi\n      0x00\n      dup1\n      revert\n    tag_46:\n      pop\n      tag_47\n      tag_48\n      jump\t// in\n    tag_47:\n      mload(0x40)\n      tag_49\n      swap2\n      swap1\n      tag_24\n      jump\t// in\n    tag_49:\n      mload(0x40)\n      dup1\n      swap2\n      sub\n      swap1\n      return\n        /* \"contracts/crowdfunding.sol\":394:419  State public fundingState */\n    tag_10:\n      callvalue\n      dup1\n      iszero\n      tag_50\n      jumpi\n      0x00\n      dup1\n      revert\n    tag_50:\n      pop\n      tag_51\n      tag_52\n      jump\t// in\n    tag_51:\n      mload(0x40)\n      tag_53\n      swap2\n      swap1\n      tag_54\n      jump\t// in\n    tag_53:\n      mload(0x40)\n      dup1\n      swap2\n      sub\n      swap1\n      return\n        /* \"contracts/crowdfunding.sol\":301:325  uint public raisedAmount */\n    tag_11:\n      callvalue\n      dup1\n      iszero\n      tag_55\n      jumpi\n      0x00\n      dup1\n      revert\n    tag_55:\n      pop\n      tag_56\n      tag_57\n      jump\t// in\n    tag_56:\n      mload(0x40)\n      tag_58\n      swap2\n      swap1\n      tag_24\n      jump\t// in\n    tag_58:\n      mload(0x40)\n      dup1\n      swap2\n      sub\n      swap1\n      return\n        /* \"contracts/crowdfunding.sol\":1694:1968  function requestRefund() public payable {\r... */\n    tag_12:\n      tag_59\n      tag_60\n      jump\t// in\n    tag_59:\n      stop\n        /* \"contracts/crowdfunding.sol\":1267:1580  function contribute() public payable campaignRunning{\r... */\n    tag_13:\n      tag_61\n      tag_19\n      jump\t// in\n    tag_61:\n      stop\n        /* \"contracts/crowdfunding.sol\":154:174  address public admin */\n    tag_14:\n      callvalue\n      dup1\n      iszero\n      tag_62\n      jumpi\n      0x00\n      dup1\n      revert\n    tag_62:\n      pop\n      tag_63\n      tag_64\n      jump\t// in\n    tag_63:\n      mload(0x40)\n      tag_65\n      swap2\n      swap1\n      tag_66\n      jump\t// in\n    tag_65:\n      mload(0x40)\n      dup1\n      swap2\n      sub\n      swap1\n      return\n        /* \"contracts/crowdfunding.sol\":1267:1580  function contribute() public payable campaignRunning{\r... */\n    tag_19:\n        /* \"contracts/crowdfunding.sol\":869:882  State.RUNNING */\n      0x02\n        /* \"contracts/crowdfunding.sol\":853:882  fundingState == State.RUNNING */\n      0x04\n      dup2\n      gt\n      iszero\n      tag_68\n      jumpi\n      tag_69\n      tag_70\n      jump\t// in\n    tag_69:\n    tag_68:\n        /* \"contracts/crowdfunding.sol\":853:865  fundingState */\n      0x07\n      0x00\n      swap1\n      sload\n      swap1\n      0x0100\n      exp\n      swap1\n      div\n      0xff\n      and\n        /* \"contracts/crowdfunding.sol\":853:882  fundingState == State.RUNNING */\n      0x04\n      dup2\n      gt\n      iszero\n      tag_71\n      jumpi\n      tag_72\n      tag_70\n      jump\t// in\n    tag_72:\n    tag_71:\n      eq\n        /* \"contracts/crowdfunding.sol\":845:914  require(fundingState == State.RUNNING, \"CrowdFunding is not running\") */\n      tag_73\n      jumpi\n      mload(0x40)\n      0x08c379a000000000000000000000000000000000000000000000000000000000\n      dup2\n      mstore\n      0x04\n      add\n      tag_74\n      swap1\n      tag_75\n      jump\t// in\n    tag_74:\n      mload(0x40)\n      dup1\n      swap2\n      sub\n      swap1\n      revert\n    tag_73:\n        /* \"contracts/crowdfunding.sol\":952:960  deadline */\n      sload(0x04)\n        /* \"contracts/crowdfunding.sol\":933:948  block.timestamp */\n      timestamp\n        /* \"contracts/crowdfunding.sol\":933:960  block.timestamp <= deadline */\n      gt\n      iszero\n        /* \"contracts/crowdfunding.sol\":925:980  require(block.timestamp <= deadline, \"deadline passed\") */\n      tag_76\n      jumpi\n      mload(0x40)\n      0x08c379a000000000000000000000000000000000000000000000000000000000\n      dup2\n      mstore\n      0x04\n      add\n      tag_77\n      swap1\n      tag_78\n      jump\t// in\n    tag_77:\n      mload(0x40)\n      dup1\n      swap2\n      sub\n      swap1\n      revert\n    tag_76:\n        /* \"contracts/crowdfunding.sol\":1351:1366  minContribution */\n      sload(0x03)\n        /* \"contracts/crowdfunding.sol\":1338:1347  msg.value */\n      callvalue\n        /* \"contracts/crowdfunding.sol\":1338:1366  msg.value >= minContribution */\n      lt\n      iszero\n        /* \"contracts/crowdfunding.sol\":1330:1399  require(msg.value >= minContribution, \"didnt reach min contribution\") */\n      tag_80\n      jumpi\n      mload(0x40)\n      0x08c379a000000000000000000000000000000000000000000000000000000000\n      dup2\n      mstore\n      0x04\n      add\n      tag_81\n      swap1\n      tag_82\n      jump\t// in\n    tag_81:\n      mload(0x40)\n      dup1\n      swap2\n      sub\n      swap1\n      revert\n    tag_80:\n        /* \"contracts/crowdfunding.sol\":1441:1442  0 */\n      0x00\n        /* \"contracts/crowdfunding.sol\":1413:1425  contributors */\n      dup1\n        /* \"contracts/crowdfunding.sol\":1413:1437  contributors[msg.sender] */\n      0x00\n        /* \"contracts/crowdfunding.sol\":1426:1436  msg.sender */\n      caller\n        /* \"contracts/crowdfunding.sol\":1413:1437  contributors[msg.sender] */\n      0xffffffffffffffffffffffffffffffffffffffff\n      and\n      0xffffffffffffffffffffffffffffffffffffffff\n      and\n      dup2\n      mstore\n      0x20\n      add\n      swap1\n      dup2\n      mstore\n      0x20\n      add\n      0x00\n      keccak256\n      sload\n        /* \"contracts/crowdfunding.sol\":1413:1442  contributors[msg.sender] == 0 */\n      eq\n        /* \"contracts/crowdfunding.sol\":1410:1489  if(contributors[msg.sender] == 0){\r... */\n      iszero\n      tag_83\n      jumpi\n        /* \"contracts/crowdfunding.sol\":1458:1475  numOfContributors */\n      0x02\n      0x00\n        /* \"contracts/crowdfunding.sol\":1458:1477  numOfContributors++ */\n      dup2\n      sload\n      dup1\n      swap3\n      swap2\n      swap1\n      tag_84\n      swap1\n      tag_85\n      jump\t// in\n    tag_84:\n      swap2\n      swap1\n      pop\n      sstore\n      pop\n        /* \"contracts/crowdfunding.sol\":1410:1489  if(contributors[msg.sender] == 0){\r... */\n    tag_83:\n        /* \"contracts/crowdfunding.sol\":1527:1536  msg.value */\n      callvalue\n        /* \"contracts/crowdfunding.sol\":1499:1511  contributors */\n      0x00\n        /* \"contracts/crowdfunding.sol\":1499:1523  contributors[msg.sender] */\n      dup1\n        /* \"contracts/crowdfunding.sol\":1512:1522  msg.sender */\n      caller\n        /* \"contracts/crowdfunding.sol\":1499:1523  contributors[msg.sender] */\n      0xffffffffffffffffffffffffffffffffffffffff\n      and\n      0xffffffffffffffffffffffffffffffffffffffff\n      and\n      dup2\n      mstore\n      0x20\n      add\n      swap1\n      dup2\n      mstore\n      0x20\n      add\n      0x00\n      keccak256\n      0x00\n        /* \"contracts/crowdfunding.sol\":1499:1536  contributors[msg.sender] += msg.value */\n      dup3\n      dup3\n      sload\n      tag_86\n      swap2\n      swap1\n      tag_87\n      jump\t// in\n    tag_86:\n      swap3\n      pop\n      pop\n      dup2\n      swap1\n      sstore\n      pop\n        /* \"contracts/crowdfunding.sol\":1563:1572  msg.value */\n      callvalue\n        /* \"contracts/crowdfunding.sol\":1547:1559  raisedAmount */\n      0x06\n      0x00\n        /* \"contracts/crowdfunding.sol\":1547:1572  raisedAmount += msg.value */\n      dup3\n      dup3\n      sload\n      tag_88\n      swap2\n      swap1\n      tag_87\n      jump\t// in\n    tag_88:\n      swap3\n      pop\n      pop\n      dup2\n      swap1\n      sstore\n      pop\n        /* \"contracts/crowdfunding.sol\":1267:1580  function contribute() public payable campaignRunning{\r... */\n      jump\t// out\n        /* \"contracts/crowdfunding.sol\":1588:1682  function getBalance() public view returns(uint){\r... */\n    tag_22:\n        /* \"contracts/crowdfunding.sol\":1630:1634  uint */\n      0x00\n        /* \"contracts/crowdfunding.sol\":1653:1674  address(this).balance */\n      selfbalance\n        /* \"contracts/crowdfunding.sol\":1646:1674  return address(this).balance */\n      swap1\n      pop\n        /* \"contracts/crowdfunding.sol\":1588:1682  function getBalance() public view returns(uint){\r... */\n      swap1\n      jump\t// out\n        /* \"contracts/crowdfunding.sol\":181:210  uint public numOfContributors */\n    tag_27:\n      sload(0x02)\n      dup2\n      jump\t// out\n        /* \"contracts/crowdfunding.sol\":103:147  mapping(address => uint) public contributors */\n    tag_33:\n      mstore(0x20, 0x00)\n      dup1\n      0x00\n      mstore\n      keccak256(0x00, 0x40)\n      0x00\n      swap2\n      pop\n      swap1\n      pop\n      sload\n      dup2\n      jump\t// out\n        /* \"contracts/crowdfunding.sol\":251:271  uint public deadline */\n    tag_37:\n      sload(0x04)\n      dup2\n      jump\t// out\n        /* \"contracts/crowdfunding.sol\":278:294  uint public goal */\n    tag_41:\n      sload(0x05)\n      dup2\n      jump\t// out\n        /* \"contracts/crowdfunding.sol\":1171:1259  function startCampaign() public adminOnly{\r... */\n    tag_45:\n        /* \"contracts/crowdfunding.sol\":740:745  admin */\n      0x01\n      0x00\n      swap1\n      sload\n      swap1\n      0x0100\n      exp\n      swap1\n      div\n      0xffffffffffffffffffffffffffffffffffffffff\n      and\n        /* \"contracts/crowdfunding.sol\":726:745  msg.sender == admin */\n      0xffffffffffffffffffffffffffffffffffffffff\n      and\n        /* \"contracts/crowdfunding.sol\":726:736  msg.sender */\n      caller\n        /* \"contracts/crowdfunding.sol\":726:745  msg.sender == admin */\n      0xffffffffffffffffffffffffffffffffffffffff\n      and\n      eq\n        /* \"contracts/crowdfunding.sol\":718:780  require(msg.sender == admin, \"message sender is not an admin\") */\n      tag_91\n      jumpi\n      mload(0x40)\n      0x08c379a000000000000000000000000000000000000000000000000000000000\n      dup2\n      mstore\n      0x04\n      add\n      tag_92\n      swap1\n      tag_93\n      jump\t// in\n    tag_92:\n      mload(0x40)\n      dup1\n      swap2\n      sub\n      swap1\n      revert\n    tag_91:\n        /* \"contracts/crowdfunding.sol\":1238:1251  State.RUNNING */\n      0x02\n        /* \"contracts/crowdfunding.sol\":1223:1235  fundingState */\n      0x07\n      0x00\n        /* \"contracts/crowdfunding.sol\":1223:1251  fundingState = State.RUNNING */\n      0x0100\n      exp\n      dup2\n      sload\n      dup2\n      0xff\n      mul\n      not\n      and\n      swap1\n      dup4\n      0x04\n      dup2\n      gt\n      iszero\n      tag_95\n      jumpi\n      tag_96\n      tag_70\n      jump\t// in\n    tag_96:\n    tag_95:\n      mul\n      or\n      swap1\n      sstore\n      pop\n        /* \"contracts/crowdfunding.sol\":1171:1259  function startCampaign() public adminOnly{\r... */\n      jump\t// out\n        /* \"contracts/crowdfunding.sol\":217:244  uint public minContribution */\n    tag_48:\n      sload(0x03)\n      dup2\n      jump\t// out\n        /* \"contracts/crowdfunding.sol\":394:419  State public fundingState */\n    tag_52:\n      0x07\n      0x00\n      swap1\n      sload\n      swap1\n      0x0100\n      exp\n      swap1\n      div\n      0xff\n      and\n      dup2\n      jump\t// out\n        /* \"contracts/crowdfunding.sol\":301:325  uint public raisedAmount */\n    tag_57:\n      sload(0x06)\n      dup2\n      jump\t// out\n        /* \"contracts/crowdfunding.sol\":1694:1968  function requestRefund() public payable {\r... */\n    tag_60:\n        /* \"contracts/crowdfunding.sol\":1780:1781  0 */\n      0x00\n        /* \"contracts/crowdfunding.sol\":1753:1765  contributors */\n      dup1\n        /* \"contracts/crowdfunding.sol\":1753:1777  contributors[msg.sender] */\n      0x00\n        /* \"contracts/crowdfunding.sol\":1766:1776  msg.sender */\n      caller\n        /* \"contracts/crowdfunding.sol\":1753:1777  contributors[msg.sender] */\n      0xffffffffffffffffffffffffffffffffffffffff\n      and\n      0xffffffffffffffffffffffffffffffffffffffff\n      and\n      dup2\n      mstore\n      0x20\n      add\n      swap1\n      dup2\n      mstore\n      0x20\n      add\n      0x00\n      keccak256\n      sload\n        /* \"contracts/crowdfunding.sol\":1753:1781  contributors[msg.sender] > 0 */\n      gt\n        /* \"contracts/crowdfunding.sol\":1745:1782  require(contributors[msg.sender] > 0) */\n      tag_98\n      jumpi\n      0x00\n      dup1\n      revert\n    tag_98:\n        /* \"contracts/crowdfunding.sol\":1817:1831  State.CANCELED */\n      0x04\n        /* \"contracts/crowdfunding.sol\":1801:1831  fundingState == State.CANCELED */\n      dup1\n      dup2\n      gt\n      iszero\n      tag_99\n      jumpi\n      tag_100\n      tag_70\n      jump\t// in\n    tag_100:\n    tag_99:\n        /* \"contracts/crowdfunding.sol\":1801:1813  fundingState */\n      0x07\n      0x00\n      swap1\n      sload\n      swap1\n      0x0100\n      exp\n      swap1\n      div\n      0xff\n      and\n        /* \"contracts/crowdfunding.sol\":1801:1831  fundingState == State.CANCELED */\n      0x04\n      dup2\n      gt\n      iszero\n      tag_101\n      jumpi\n      tag_102\n      tag_70\n      jump\t// in\n    tag_102:\n    tag_101:\n      eq\n        /* \"contracts/crowdfunding.sol\":1801:1884  fundingState == State.CANCELED || block.timestamp > deadline && raisedAmount < goal */\n      dup1\n      tag_103\n      jumpi\n      pop\n        /* \"contracts/crowdfunding.sol\":1853:1861  deadline */\n      sload(0x04)\n        /* \"contracts/crowdfunding.sol\":1835:1850  block.timestamp */\n      timestamp\n        /* \"contracts/crowdfunding.sol\":1835:1861  block.timestamp > deadline */\n      gt\n        /* \"contracts/crowdfunding.sol\":1835:1884  block.timestamp > deadline && raisedAmount < goal */\n      dup1\n      iszero\n      tag_104\n      jumpi\n      pop\n        /* \"contracts/crowdfunding.sol\":1880:1884  goal */\n      sload(0x05)\n        /* \"contracts/crowdfunding.sol\":1865:1877  raisedAmount */\n      sload(0x06)\n        /* \"contracts/crowdfunding.sol\":1865:1884  raisedAmount < goal */\n      lt\n        /* \"contracts/crowdfunding.sol\":1835:1884  block.timestamp > deadline && raisedAmount < goal */\n    tag_104:\n        /* \"contracts/crowdfunding.sol\":1801:1884  fundingState == State.CANCELED || block.timestamp > deadline && raisedAmount < goal */\n    tag_103:\n        /* \"contracts/crowdfunding.sol\":1793:1885  require(fundingState == State.CANCELED || block.timestamp > deadline && raisedAmount < goal) */\n      tag_105\n      jumpi\n      0x00\n      dup1\n      revert\n    tag_105:\n        /* \"contracts/crowdfunding.sol\":1914:1924  msg.sender */\n      caller\n        /* \"contracts/crowdfunding.sol\":1906:1934  payable(msg.sender).transfer */\n      0xffffffffffffffffffffffffffffffffffffffff\n      and\n        /* \"contracts/crowdfunding.sol\":1906:1960  payable(msg.sender).transfer(contributors[msg.sender]) */\n      0x08fc\n        /* \"contracts/crowdfunding.sol\":1935:1947  contributors */\n      0x00\n        /* \"contracts/crowdfunding.sol\":1935:1959  contributors[msg.sender] */\n      dup1\n        /* \"contracts/crowdfunding.sol\":1948:1958  msg.sender */\n      caller\n        /* \"contracts/crowdfunding.sol\":1935:1959  contributors[msg.sender] */\n      0xffffffffffffffffffffffffffffffffffffffff\n      and\n      0xffffffffffffffffffffffffffffffffffffffff\n      and\n      dup2\n      mstore\n      0x20\n      add\n      swap1\n      dup2\n      mstore\n      0x20\n      add\n      0x00\n      keccak256\n      sload\n        /* \"contracts/crowdfunding.sol\":1906:1960  payable(msg.sender).transfer(contributors[msg.sender]) */\n      swap1\n      dup2\n      iszero\n      mul\n      swap1\n      mload(0x40)\n      0x00\n      mload(0x40)\n      dup1\n      dup4\n      sub\n      dup2\n      dup6\n      dup9\n      dup9\n      call\n      swap4\n      pop\n      pop\n      pop\n      pop\n      iszero\n      dup1\n      iszero\n      tag_107\n      jumpi\n      returndatasize\n      0x00\n      dup1\n      returndatacopy\n      revert(0x00, returndatasize)\n    tag_107:\n      pop\n        /* \"contracts/crowdfunding.sol\":1694:1968  function requestRefund() public payable {\r... */\n      jump\t// out\n        /* \"contracts/crowdfunding.sol\":154:174  address public admin */\n    tag_64:\n      0x01\n      0x00\n      swap1\n      sload\n      swap1\n      0x0100\n      exp\n      swap1\n      div\n      0xffffffffffffffffffffffffffffffffffffffff\n      and\n      dup2\n      jump\t// out\n        /* \"#utility.yul\":7:146   */\n    tag_109:\n        /* \"#utility.yul\":53:58   */\n      0x00\n        /* \"#utility.yul\":91:97   */\n      dup2\n        /* \"#utility.yul\":78:98   */\n      calldataload\n        /* \"#utility.yul\":69:98   */\n      swap1\n      pop\n        /* \"#utility.yul\":107:140   */\n      tag_111\n        /* \"#utility.yul\":134:139   */\n      dup2\n        /* \"#utility.yul\":107:140   */\n      tag_112\n      jump\t// in\n    tag_111:\n        /* \"#utility.yul\":7:146   */\n      swap3\n      swap2\n      pop\n      pop\n      jump\t// out\n        /* \"#utility.yul\":152:481   */\n    tag_32:\n        /* \"#utility.yul\":211:217   */\n      0x00\n        /* \"#utility.yul\":260:262   */\n      0x20\n        /* \"#utility.yul\":248:257   */\n      dup3\n        /* \"#utility.yul\":239:246   */\n      dup5\n        /* \"#utility.yul\":235:258   */\n      sub\n        /* \"#utility.yul\":231:263   */\n      slt\n        /* \"#utility.yul\":228:347   */\n      iszero\n      tag_114\n      jumpi\n        /* \"#utility.yul\":266:345   */\n      tag_115\n      tag_116\n      jump\t// in\n    tag_115:\n        /* \"#utility.yul\":228:347   */\n    tag_114:\n        /* \"#utility.yul\":386:387   */\n      0x00\n        /* \"#utility.yul\":411:464   */\n      tag_117\n        /* \"#utility.yul\":456:463   */\n      dup5\n        /* \"#utility.yul\":447:453   */\n      dup3\n        /* \"#utility.yul\":436:445   */\n      dup6\n        /* \"#utility.yul\":432:454   */\n      add\n        /* \"#utility.yul\":411:464   */\n      tag_109\n      jump\t// in\n    tag_117:\n        /* \"#utility.yul\":401:464   */\n      swap2\n      pop\n        /* \"#utility.yul\":357:474   */\n      pop\n        /* \"#utility.yul\":152:481   */\n      swap3\n      swap2\n      pop\n      pop\n      jump\t// out\n        /* \"#utility.yul\":487:605   */\n    tag_118:\n        /* \"#utility.yul\":574:598   */\n      tag_120\n        /* \"#utility.yul\":592:597   */\n      dup2\n        /* \"#utility.yul\":574:598   */\n      tag_121\n      jump\t// in\n    tag_120:\n        /* \"#utility.yul\":569:572   */\n      dup3\n        /* \"#utility.yul\":562:599   */\n      mstore\n        /* \"#utility.yul\":487:605   */\n      pop\n      pop\n      jump\t// out\n        /* \"#utility.yul\":611:754   */\n    tag_122:\n        /* \"#utility.yul\":704:747   */\n      tag_124\n        /* \"#utility.yul\":741:746   */\n      dup2\n        /* \"#utility.yul\":704:747   */\n      tag_125\n      jump\t// in\n    tag_124:\n        /* \"#utility.yul\":699:702   */\n      dup3\n        /* \"#utility.yul\":692:748   */\n      mstore\n        /* \"#utility.yul\":611:754   */\n      pop\n      pop\n      jump\t// out\n        /* \"#utility.yul\":760:1126   */\n    tag_126:\n        /* \"#utility.yul\":902:905   */\n      0x00\n        /* \"#utility.yul\":923:990   */\n      tag_128\n        /* \"#utility.yul\":987:989   */\n      0x1c\n        /* \"#utility.yul\":982:985   */\n      dup4\n        /* \"#utility.yul\":923:990   */\n      tag_129\n      jump\t// in\n    tag_128:\n        /* \"#utility.yul\":916:990   */\n      swap2\n      pop\n        /* \"#utility.yul\":999:1092   */\n      tag_130\n        /* \"#utility.yul\":1088:1091   */\n      dup3\n        /* \"#utility.yul\":999:1092   */\n      tag_131\n      jump\t// in\n    tag_130:\n        /* \"#utility.yul\":1117:1119   */\n      0x20\n        /* \"#utility.yul\":1112:1115   */\n      dup3\n        /* \"#utility.yul\":1108:1120   */\n      add\n        /* \"#utility.yul\":1101:1120   */\n      swap1\n      pop\n        /* \"#utility.yul\":760:1126   */\n      swap2\n      swap1\n      pop\n      jump\t// out\n        /* \"#utility.yul\":1132:1498   */\n    tag_132:\n        /* \"#utility.yul\":1274:1277   */\n      0x00\n        /* \"#utility.yul\":1295:1362   */\n      tag_134\n        /* \"#utility.yul\":1359:1361   */\n      0x1e\n        /* \"#utility.yul\":1354:1357   */\n      dup4\n        /* \"#utility.yul\":1295:1362   */\n      tag_129\n      jump\t// in\n    tag_134:\n        /* \"#utility.yul\":1288:1362   */\n      swap2\n      pop\n        /* \"#utility.yul\":1371:1464   */\n      tag_135\n        /* \"#utility.yul\":1460:1463   */\n      dup3\n        /* \"#utility.yul\":1371:1464   */\n      tag_136\n      jump\t// in\n    tag_135:\n        /* \"#utility.yul\":1489:1491   */\n      0x20\n        /* \"#utility.yul\":1484:1487   */\n      dup3\n        /* \"#utility.yul\":1480:1492   */\n      add\n        /* \"#utility.yul\":1473:1492   */\n      swap1\n      pop\n        /* \"#utility.yul\":1132:1498   */\n      swap2\n      swap1\n      pop\n      jump\t// out\n        /* \"#utility.yul\":1504:1870   */\n    tag_137:\n        /* \"#utility.yul\":1646:1649   */\n      0x00\n        /* \"#utility.yul\":1667:1734   */\n      tag_139\n        /* \"#utility.yul\":1731:1733   */\n      0x0f\n        /* \"#utility.yul\":1726:1729   */\n      dup4\n        /* \"#utility.yul\":1667:1734   */\n      tag_129\n      jump\t// in\n    tag_139:\n        /* \"#utility.yul\":1660:1734   */\n      swap2\n      pop\n        /* \"#utility.yul\":1743:1836   */\n      tag_140\n        /* \"#utility.yul\":1832:1835   */\n      dup3\n        /* \"#utility.yul\":1743:1836   */\n      tag_141\n      jump\t// in\n    tag_140:\n        /* \"#utility.yul\":1861:1863   */\n      0x20\n        /* \"#utility.yul\":1856:1859   */\n      dup3\n        /* \"#utility.yul\":1852:1864   */\n      add\n        /* \"#utility.yul\":1845:1864   */\n      swap1\n      pop\n        /* \"#utility.yul\":1504:1870   */\n      swap2\n      swap1\n      pop\n      jump\t// out\n        /* \"#utility.yul\":1876:2242   */\n    tag_142:\n        /* \"#utility.yul\":2018:2021   */\n      0x00\n        /* \"#utility.yul\":2039:2106   */\n      tag_144\n        /* \"#utility.yul\":2103:2105   */\n      0x1b\n        /* \"#utility.yul\":2098:2101   */\n      dup4\n        /* \"#utility.yul\":2039:2106   */\n      tag_129\n      jump\t// in\n    tag_144:\n        /* \"#utility.yul\":2032:2106   */\n      swap2\n      pop\n        /* \"#utility.yul\":2115:2208   */\n      tag_145\n        /* \"#utility.yul\":2204:2207   */\n      dup3\n        /* \"#utility.yul\":2115:2208   */\n      tag_146\n      jump\t// in\n    tag_145:\n        /* \"#utility.yul\":2233:2235   */\n      0x20\n        /* \"#utility.yul\":2228:2231   */\n      dup3\n        /* \"#utility.yul\":2224:2236   */\n      add\n        /* \"#utility.yul\":2217:2236   */\n      swap1\n      pop\n        /* \"#utility.yul\":1876:2242   */\n      swap2\n      swap1\n      pop\n      jump\t// out\n        /* \"#utility.yul\":2248:2366   */\n    tag_147:\n        /* \"#utility.yul\":2335:2359   */\n      tag_149\n        /* \"#utility.yul\":2353:2358   */\n      dup2\n        /* \"#utility.yul\":2335:2359   */\n      tag_150\n      jump\t// in\n    tag_149:\n        /* \"#utility.yul\":2330:2333   */\n      dup3\n        /* \"#utility.yul\":2323:2360   */\n      mstore\n        /* \"#utility.yul\":2248:2366   */\n      pop\n      pop\n      jump\t// out\n        /* \"#utility.yul\":2372:2594   */\n    tag_66:\n        /* \"#utility.yul\":2465:2469   */\n      0x00\n        /* \"#utility.yul\":2503:2505   */\n      0x20\n        /* \"#utility.yul\":2492:2501   */\n      dup3\n        /* \"#utility.yul\":2488:2506   */\n      add\n        /* \"#utility.yul\":2480:2506   */\n      swap1\n      pop\n        /* \"#utility.yul\":2516:2587   */\n      tag_152\n        /* \"#utility.yul\":2584:2585   */\n      0x00\n        /* \"#utility.yul\":2573:2582   */\n      dup4\n        /* \"#utility.yul\":2569:2586   */\n      add\n        /* \"#utility.yul\":2560:2566   */\n      dup5\n        /* \"#utility.yul\":2516:2587   */\n      tag_118\n      jump\t// in\n    tag_152:\n        /* \"#utility.yul\":2372:2594   */\n      swap3\n      swap2\n      pop\n      pop\n      jump\t// out\n        /* \"#utility.yul\":2600:2834   */\n    tag_54:\n        /* \"#utility.yul\":2699:2703   */\n      0x00\n        /* \"#utility.yul\":2737:2739   */\n      0x20\n        /* \"#utility.yul\":2726:2735   */\n      dup3\n        /* \"#utility.yul\":2722:2740   */\n      add\n        /* \"#utility.yul\":2714:2740   */\n      swap1\n      pop\n        /* \"#utility.yul\":2750:2827   */\n      tag_154\n        /* \"#utility.yul\":2824:2825   */\n      0x00\n        /* \"#utility.yul\":2813:2822   */\n      dup4\n        /* \"#utility.yul\":2809:2826   */\n      add\n        /* \"#utility.yul\":2800:2806   */\n      dup5\n        /* \"#utility.yul\":2750:2827   */\n      tag_122\n      jump\t// in\n    tag_154:\n        /* \"#utility.yul\":2600:2834   */\n      swap3\n      swap2\n      pop\n      pop\n      jump\t// out\n        /* \"#utility.yul\":2840:3259   */\n    tag_82:\n        /* \"#utility.yul\":3006:3010   */\n      0x00\n        /* \"#utility.yul\":3044:3046   */\n      0x20\n        /* \"#utility.yul\":3033:3042   */\n      dup3\n        /* \"#utility.yul\":3029:3047   */\n      add\n        /* \"#utility.yul\":3021:3047   */\n      swap1\n      pop\n        /* \"#utility.yul\":3093:3102   */\n      dup2\n        /* \"#utility.yul\":3087:3091   */\n      dup2\n        /* \"#utility.yul\":3083:3103   */\n      sub\n        /* \"#utility.yul\":3079:3080   */\n      0x00\n        /* \"#utility.yul\":3068:3077   */\n      dup4\n        /* \"#utility.yul\":3064:3081   */\n      add\n        /* \"#utility.yul\":3057:3104   */\n      mstore\n        /* \"#utility.yul\":3121:3252   */\n      tag_156\n        /* \"#utility.yul\":3247:3251   */\n      dup2\n        /* \"#utility.yul\":3121:3252   */\n      tag_126\n      jump\t// in\n    tag_156:\n        /* \"#utility.yul\":3113:3252   */\n      swap1\n      pop\n        /* \"#utility.yul\":2840:3259   */\n      swap2\n      swap1\n      pop\n      jump\t// out\n        /* \"#utility.yul\":3265:3684   */\n    tag_93:\n        /* \"#utility.yul\":3431:3435   */\n      0x00\n        /* \"#utility.yul\":3469:3471   */\n      0x20\n        /* \"#utility.yul\":3458:3467   */\n      dup3\n        /* \"#utility.yul\":3454:3472   */\n      add\n        /* \"#utility.yul\":3446:3472   */\n      swap1\n      pop\n        /* \"#utility.yul\":3518:3527   */\n      dup2\n        /* \"#utility.yul\":3512:3516   */\n      dup2\n        /* \"#utility.yul\":3508:3528   */\n      sub\n        /* \"#utility.yul\":3504:3505   */\n      0x00\n        /* \"#utility.yul\":3493:3502   */\n      dup4\n        /* \"#utility.yul\":3489:3506   */\n      add\n        /* \"#utility.yul\":3482:3529   */\n      mstore\n        /* \"#utility.yul\":3546:3677   */\n      tag_158\n        /* \"#utility.yul\":3672:3676   */\n      dup2\n        /* \"#utility.yul\":3546:3677   */\n      tag_132\n      jump\t// in\n    tag_158:\n        /* \"#utility.yul\":3538:3677   */\n      swap1\n      pop\n        /* \"#utility.yul\":3265:3684   */\n      swap2\n      swap1\n      pop\n      jump\t// out\n        /* \"#utility.yul\":3690:4109   */\n    tag_78:\n        /* \"#utility.yul\":3856:3860   */\n      0x00\n        /* \"#utility.yul\":3894:3896   */\n      0x20\n        /* \"#utility.yul\":3883:3892   */\n      dup3\n        /* \"#utility.yul\":3879:3897   */\n      add\n        /* \"#utility.yul\":3871:3897   */\n      swap1\n      pop\n        /* \"#utility.yul\":3943:3952   */\n      dup2\n        /* \"#utility.yul\":3937:3941   */\n      dup2\n        /* \"#utility.yul\":3933:3953   */\n      sub\n        /* \"#utility.yul\":3929:3930   */\n      0x00\n        /* \"#utility.yul\":3918:3927   */\n      dup4\n        /* \"#utility.yul\":3914:3931   */\n      add\n        /* \"#utility.yul\":3907:3954   */\n      mstore\n        /* \"#utility.yul\":3971:4102   */\n      tag_160\n        /* \"#utility.yul\":4097:4101   */\n      dup2\n        /* \"#utility.yul\":3971:4102   */\n      tag_137\n      jump\t// in\n    tag_160:\n        /* \"#utility.yul\":3963:4102   */\n      swap1\n      pop\n        /* \"#utility.yul\":3690:4109   */\n      swap2\n      swap1\n      pop\n      jump\t// out\n        /* \"#utility.yul\":4115:4534   */\n    tag_75:\n        /* \"#utility.yul\":4281:4285   */\n      0x00\n        /* \"#utility.yul\":4319:4321   */\n      0x20\n        /* \"#utility.yul\":4308:4317   */\n      dup3\n        /* \"#utility.yul\":4304:4322   */\n      add\n        /* \"#utility.yul\":4296:4322   */\n      swap1\n      pop\n        /* \"#utility.yul\":4368:4377   */\n      dup2\n        /* \"#utility.yul\":4362:4366   */\n      dup2\n        /* \"#utility.yul\":4358:4378   */\n      sub\n        /* \"#utility.yul\":4354:4355   */\n      0x00\n        /* \"#utility.yul\":4343:4352   */\n      dup4\n        /* \"#utility.yul\":4339:4356   */\n      add\n        /* \"#utility.yul\":4332:4379   */\n      mstore\n        /* \"#utility.yul\":4396:4527   */\n      tag_162\n        /* \"#utility.yul\":4522:4526   */\n      dup2\n        /* \"#utility.yul\":4396:4527   */\n      tag_142\n      jump\t// in\n    tag_162:\n        /* \"#utility.yul\":4388:4527   */\n      swap1\n      pop\n        /* \"#utility.yul\":4115:4534   */\n      swap2\n      swap1\n      pop\n      jump\t// out\n        /* \"#utility.yul\":4540:4762   */\n    tag_24:\n        /* \"#utility.yul\":4633:4637   */\n      0x00\n        /* \"#utility.yul\":4671:4673   */\n      0x20\n        /* \"#utility.yul\":4660:4669   */\n      dup3\n        /* \"#utility.yul\":4656:4674   */\n      add\n        /* \"#utility.yul\":4648:4674   */\n      swap1\n      pop\n        /* \"#utility.yul\":4684:4755   */\n      tag_164\n        /* \"#utility.yul\":4752:4753   */\n      0x00\n        /* \"#utility.yul\":4741:4750   */\n      dup4\n        /* \"#utility.yul\":4737:4754   */\n      add\n        /* \"#utility.yul\":4728:4734   */\n      dup5\n        /* \"#utility.yul\":4684:4755   */\n      tag_147\n      jump\t// in\n    tag_164:\n        /* \"#utility.yul\":4540:4762   */\n      swap3\n      swap2\n      pop\n      pop\n      jump\t// out\n        /* \"#utility.yul\":4849:5018   */\n    tag_129:\n        /* \"#utility.yul\":4933:4944   */\n      0x00\n        /* \"#utility.yul\":4967:4973   */\n      dup3\n        /* \"#utility.yul\":4962:4965   */\n      dup3\n        /* \"#utility.yul\":4955:4974   */\n      mstore\n        /* \"#utility.yul\":5007:5011   */\n      0x20\n        /* \"#utility.yul\":5002:5005   */\n      dup3\n        /* \"#utility.yul\":4998:5012   */\n      add\n        /* \"#utility.yul\":4983:5012   */\n      swap1\n      pop\n        /* \"#utility.yul\":4849:5018   */\n      swap3\n      swap2\n      pop\n      pop\n      jump\t// out\n        /* \"#utility.yul\":5024:5329   */\n    tag_87:\n        /* \"#utility.yul\":5064:5067   */\n      0x00\n        /* \"#utility.yul\":5083:5103   */\n      tag_169\n        /* \"#utility.yul\":5101:5102   */\n      dup3\n        /* \"#utility.yul\":5083:5103   */\n      tag_150\n      jump\t// in\n    tag_169:\n        /* \"#utility.yul\":5078:5103   */\n      swap2\n      pop\n        /* \"#utility.yul\":5117:5137   */\n      tag_170\n        /* \"#utility.yul\":5135:5136   */\n      dup4\n        /* \"#utility.yul\":5117:5137   */\n      tag_150\n      jump\t// in\n    tag_170:\n        /* \"#utility.yul\":5112:5137   */\n      swap3\n      pop\n        /* \"#utility.yul\":5271:5272   */\n      dup3\n        /* \"#utility.yul\":5203:5269   */\n      0xffffffffffffffffffffffffffffffffffffffffffffffffffffffffffffffff\n        /* \"#utility.yul\":5199:5273   */\n      sub\n        /* \"#utility.yul\":5196:5197   */\n      dup3\n        /* \"#utility.yul\":5193:5274   */\n      gt\n        /* \"#utility.yul\":5190:5297   */\n      iszero\n      tag_171\n      jumpi\n        /* \"#utility.yul\":5277:5295   */\n      tag_172\n      tag_173\n      jump\t// in\n    tag_172:\n        /* \"#utility.yul\":5190:5297   */\n    tag_171:\n        /* \"#utility.yul\":5321:5322   */\n      dup3\n        /* \"#utility.yul\":5318:5319   */\n      dup3\n        /* \"#utility.yul\":5314:5323   */\n      add\n        /* \"#utility.yul\":5307:5323   */\n      swap1\n      pop\n        /* \"#utility.yul\":5024:5329   */\n      swap3\n      swap2\n      pop\n      pop\n      jump\t// out\n        /* \"#utility.yul\":5335:5431   */\n    tag_121:\n        /* \"#utility.yul\":5372:5379   */\n      0x00\n        /* \"#utility.yul\":5401:5425   */\n      tag_175\n        /* \"#utility.yul\":5419:5424   */\n      dup3\n        /* \"#utility.yul\":5401:5425   */\n      tag_176\n      jump\t// in\n    tag_175:\n        /* \"#utility.yul\":5390:5425   */\n      swap1\n      pop\n        /* \"#utility.yul\":5335:5431   */\n      swap2\n      swap1\n      pop\n      jump\t// out\n        /* \"#utility.yul\":5437:5564   */\n    tag_177:\n        /* \"#utility.yul\":5482:5489   */\n      0x00\n        /* \"#utility.yul\":5511:5516   */\n      dup2\n        /* \"#utility.yul\":5500:5516   */\n      swap1\n      pop\n        /* \"#utility.yul\":5517:5558   */\n      tag_179\n        /* \"#utility.yul\":5552:5557   */\n      dup3\n        /* \"#utility.yul\":5517:5558   */\n      tag_180\n      jump\t// in\n    tag_179:\n        /* \"#utility.yul\":5437:5564   */\n      swap2\n      swap1\n      pop\n      jump\t// out\n        /* \"#utility.yul\":5570:5696   */\n    tag_176:\n        /* \"#utility.yul\":5607:5614   */\n      0x00\n        /* \"#utility.yul\":5647:5689   */\n      0xffffffffffffffffffffffffffffffffffffffff\n        /* \"#utility.yul\":5640:5645   */\n      dup3\n        /* \"#utility.yul\":5636:5690   */\n      and\n        /* \"#utility.yul\":5625:5690   */\n      swap1\n      pop\n        /* \"#utility.yul\":5570:5696   */\n      swap2\n      swap1\n      pop\n      jump\t// out\n        /* \"#utility.yul\":5702:5779   */\n    tag_150:\n        /* \"#utility.yul\":5739:5746   */\n      0x00\n        /* \"#utility.yul\":5768:5773   */\n      dup2\n        /* \"#utility.yul\":5757:5773   */\n      swap1\n      pop\n        /* \"#utility.yul\":5702:5779   */\n      swap2\n      swap1\n      pop\n      jump\t// out\n        /* \"#utility.yul\":5785:5912   */\n    tag_125:\n        /* \"#utility.yul\":5841:5850   */\n      0x00\n        /* \"#utility.yul\":5874:5906   */\n      tag_184\n        /* \"#utility.yul\":5900:5905   */\n      dup3\n        /* \"#utility.yul\":5874:5906   */\n      tag_177\n      jump\t// in\n    tag_184:\n        /* \"#utility.yul\":5861:5906   */\n      swap1\n      pop\n        /* \"#utility.yul\":5785:5912   */\n      swap2\n      swap1\n      pop\n      jump\t// out\n        /* \"#utility.yul\":5918:6151   */\n    tag_85:\n        /* \"#utility.yul\":5957:5960   */\n      0x00\n        /* \"#utility.yul\":5980:6004   */\n      tag_186\n        /* \"#utility.yul\":5998:6003   */\n      dup3\n        /* \"#utility.yul\":5980:6004   */\n      tag_150\n      jump\t// in\n    tag_186:\n        /* \"#utility.yul\":5971:6004   */\n      swap2\n      pop\n        /* \"#utility.yul\":6026:6092   */\n      0xffffffffffffffffffffffffffffffffffffffffffffffffffffffffffffffff\n        /* \"#utility.yul\":6019:6024   */\n      dup3\n        /* \"#utility.yul\":6016:6093   */\n      eq\n        /* \"#utility.yul\":6013:6116   */\n      iszero\n      tag_187\n      jumpi\n        /* \"#utility.yul\":6096:6114   */\n      tag_188\n      tag_173\n      jump\t// in\n    tag_188:\n        /* \"#utility.yul\":6013:6116   */\n    tag_187:\n        /* \"#utility.yul\":6143:6144   */\n      0x01\n        /* \"#utility.yul\":6136:6141   */\n      dup3\n        /* \"#utility.yul\":6132:6145   */\n      add\n        /* \"#utility.yul\":6125:6145   */\n      swap1\n      pop\n        /* \"#utility.yul\":5918:6151   */\n      swap2\n      swap1\n      pop\n      jump\t// out\n        /* \"#utility.yul\":6157:6337   */\n    tag_173:\n        /* \"#utility.yul\":6205:6282   */\n      0x4e487b7100000000000000000000000000000000000000000000000000000000\n        /* \"#utility.yul\":6202:6203   */\n      0x00\n        /* \"#utility.yul\":6195:6283   */\n      mstore\n        /* \"#utility.yul\":6302:6306   */\n      0x11\n        /* \"#utility.yul\":6299:6300   */\n      0x04\n        /* \"#utility.yul\":6292:6307   */\n      mstore\n        /* \"#utility.yul\":6326:6330   */\n      0x24\n        /* \"#utility.yul\":6323:6324   */\n      0x00\n        /* \"#utility.yul\":6316:6331   */\n      revert\n        /* \"#utility.yul\":6343:6523   */\n    tag_70:\n        /* \"#utility.yul\":6391:6468   */\n      0x4e487b7100000000000000000000000000000000000000000000000000000000\n        /* \"#utility.yul\":6388:6389   */\n      0x00\n        /* \"#utility.yul\":6381:6469   */\n      mstore\n        /* \"#utility.yul\":6488:6492   */\n      0x21\n        /* \"#utility.yul\":6485:6486   */\n      0x04\n        /* \"#utility.yul\":6478:6493   */\n      mstore\n        /* \"#utility.yul\":6512:6516   */\n      0x24\n        /* \"#utility.yul\":6509:6510   */\n      0x00\n        /* \"#utility.yul\":6502:6517   */\n      revert\n        /* \"#utility.yul\":6652:6769   */\n    tag_116:\n        /* \"#utility.yul\":6761:6762   */\n      0x00\n        /* \"#utility.yul\":6758:6759   */\n      dup1\n        /* \"#utility.yul\":6751:6763   */\n      revert\n        /* \"#utility.yul\":6775:6953   */\n    tag_131:\n        /* \"#utility.yul\":6915:6945   */\n      0x6469646e74207265616368206d696e20636f6e747269627574696f6e00000000\n        /* \"#utility.yul\":6911:6912   */\n      0x00\n        /* \"#utility.yul\":6903:6909   */\n      dup3\n        /* \"#utility.yul\":6899:6913   */\n      add\n        /* \"#utility.yul\":6892:6946   */\n      mstore\n        /* \"#utility.yul\":6775:6953   */\n      pop\n      jump\t// out\n        /* \"#utility.yul\":6959:7139   */\n    tag_136:\n        /* \"#utility.yul\":7099:7131   */\n      0x6d6573736167652073656e646572206973206e6f7420616e2061646d696e0000\n        /* \"#utility.yul\":7095:7096   */\n      0x00\n        /* \"#utility.yul\":7087:7093   */\n      dup3\n        /* \"#utility.yul\":7083:7097   */\n      add\n        /* \"#utility.yul\":7076:7132   */\n      mstore\n        /* \"#utility.yul\":6959:7139   */\n      pop\n      jump\t// out\n        /* \"#utility.yul\":7145:7310   */\n    tag_141:\n        /* \"#utility.yul\":7285:7302   */\n      0x646561646c696e65207061737365640000000000000000000000000000000000\n        /* \"#utility.yul\":7281:7282   */\n      0x00\n        /* \"#utility.yul\":7273:7279   */\n      dup3\n        /* \"#utility.yul\":7269:7283   */\n      add\n        /* \"#utility.yul\":7262:7303   */\n      mstore\n        /* \"#utility.yul\":7145:7310   */\n      pop\n      jump\t// out\n        /* \"#utility.yul\":7316:7493   */\n    tag_146:\n        /* \"#utility.yul\":7456:7485   */\n      0x43726f776446756e64696e67206973206e6f742072756e6e696e670000000000\n        /* \"#utility.yul\":7452:7453   */\n      0x00\n        /* \"#utility.yul\":7444:7450   */\n      dup3\n        /* \"#utility.yul\":7440:7454   */\n      add\n        /* \"#utility.yul\":7433:7486   */\n      mstore\n        /* \"#utility.yul\":7316:7493   */\n      pop\n      jump\t// out\n        /* \"#utility.yul\":7499:7612   */\n    tag_180:\n        /* \"#utility.yul\":7580:7581   */\n      0x05\n        /* \"#utility.yul\":7573:7578   */\n      dup2\n        /* \"#utility.yul\":7570:7582   */\n      lt\n        /* \"#utility.yul\":7560:7606   */\n      tag_199\n      jumpi\n        /* \"#utility.yul\":7586:7604   */\n      tag_200\n      tag_70\n      jump\t// in\n    tag_200:\n        /* \"#utility.yul\":7560:7606   */\n    tag_199:\n        /* \"#utility.yul\":7499:7612   */\n      pop\n      jump\t// out\n        /* \"#utility.yul\":7618:7740   */\n    tag_112:\n        /* \"#utility.yul\":7691:7715   */\n      tag_202\n        /* \"#utility.yul\":7709:7714   */\n      dup2\n        /* \"#utility.yul\":7691:7715   */\n      tag_121\n      jump\t// in\n    tag_202:\n        /* \"#utility.yul\":7684:7689   */\n      dup2\n        /* \"#utility.yul\":7681:7716   */\n      eq\n        /* \"#utility.yul\":7671:7734   */\n      tag_203\n      jumpi\n        /* \"#utility.yul\":7730:7731   */\n      0x00\n        /* \"#utility.yul\":7727:7728   */\n      dup1\n        /* \"#utility.yul\":7720:7732   */\n      revert\n        /* \"#utility.yul\":7671:7734   */\n    tag_203:\n        /* \"#utility.yul\":7618:7740   */\n      pop\n      jump\t// out\n\n    auxdata: 0xa2646970667358221220ae717493a6d16bc2383a0013a6cdc7e0dd95e25e6cdd3c43cf72e3a9467de56264736f6c63430008070033\n}\n",
				"bytecode": {
					"linkReferences": {},
					"object": "60806040523480156200001157600080fd5b5060405162000d1f38038062000d1f8339818101604052810190620000379190620000f0565b33600160006101000a81548173ffffffffffffffffffffffffffffffffffffffff021916908373ffffffffffffffffffffffffffffffffffffffff1602179055506000600760006101000a81548160ff02191690836004811115620000a157620000a0620001cd565b5b0217905550816005819055508042620000bb919062000137565b6004819055506064600381905550600060028190555050506200021b565b600081519050620000ea8162000201565b92915050565b600080604083850312156200010a5762000109620001fc565b5b60006200011a85828601620000d9565b92505060206200012d85828601620000d9565b9150509250929050565b6000620001448262000194565b9150620001518362000194565b9250827fffffffffffffffffffffffffffffffffffffffffffffffffffffffffffffffff038211156200018957620001886200019e565b5b828201905092915050565b6000819050919050565b7f4e487b7100000000000000000000000000000000000000000000000000000000600052601160045260246000fd5b7f4e487b7100000000000000000000000000000000000000000000000000000000600052602160045260246000fd5b600080fd5b6200020c8162000194565b81146200021857600080fd5b50565b610af4806200022b6000396000f3fe6080604052600436106100ab5760003560e01c8063aaffadf311610064578063aaffadf3146101bf578063b25cdccf146101ea578063c59ee1dc14610215578063d5cef13314610240578063d7bb99ba1461024a578063f851a44014610254576100ba565b806312065fe0146100bf5780631e206f15146100ea5780631f6d49421461011557806329dcb0cf14610152578063401938831461017d578063a8b78ed0146101a8576100ba565b366100ba576100b861027f565b005b600080fd5b3480156100cb57600080fd5b506100d461044f565b6040516100e19190610860565b60405180910390f35b3480156100f657600080fd5b506100ff610457565b60405161010c9190610860565b60405180910390f35b34801561012157600080fd5b5061013c600480360381019061013791906106c4565b61045d565b6040516101499190610860565b60405180910390f35b34801561015e57600080fd5b50610167610475565b6040516101749190610860565b60405180910390f35b34801561018957600080fd5b5061019261047b565b60405161019f9190610860565b60405180910390f35b3480156101b457600080fd5b506101bd610481565b005b3480156101cb57600080fd5b506101d461053e565b6040516101e19190610860565b60405180910390f35b3480156101f657600080fd5b506101ff610544565b60405161020c91906107c5565b60405180910390f35b34801561022157600080fd5b5061022a610557565b6040516102379190610860565b60405180910390f35b61024861055d565b005b61025261027f565b005b34801561026057600080fd5b50610269610689565b60405161027691906107aa565b60405180910390f35b60026004811115610293576102926109bb565b5b600760009054906101000a900460ff1660048111156102b5576102b46109bb565b5b146102f5576040517f08c379a00000000000000000000000000000000000000000000000000000000081526004016102ec90610840565b60405180910390fd5b60045442111561033a576040517f08c379a000000000000000000000000000000000000000000000000000000000815260040161033190610820565b60405180910390fd5b60035434101561037f576040517f08c379a0000000000000000000000000000000000000000000000000000000008152600401610376906107e0565b60405180910390fd5b60008060003373ffffffffffffffffffffffffffffffffffffffff1673ffffffffffffffffffffffffffffffffffffffff1681526020019081526020016000205414156103df57600260008154809291906103d990610943565b91905055505b346000803373ffffffffffffffffffffffffffffffffffffffff1673ffffffffffffffffffffffffffffffffffffffff168152602001908152602001600020600082825461042d919061088c565b925050819055503460066000828254610446919061088c565b92505081905550565b600047905090565b60025481565b60006020528060005260406000206000915090505481565b60045481565b60055481565b600160009054906101000a900473ffffffffffffffffffffffffffffffffffffffff1673ffffffffffffffffffffffffffffffffffffffff163373ffffffffffffffffffffffffffffffffffffffff1614610511576040517f08c379a000000000000000000000000000000000000000000000000000000000815260040161050890610800565b60405180910390fd5b6002600760006101000a81548160ff02191690836004811115610537576105366109bb565b5b0217905550565b60035481565b600760009054906101000a900460ff1681565b60065481565b60008060003373ffffffffffffffffffffffffffffffffffffffff1673ffffffffffffffffffffffffffffffffffffffff16815260200190815260200160002054116105a857600080fd5b6004808111156105bb576105ba6109bb565b5b600760009054906101000a900460ff1660048111156105dd576105dc6109bb565b5b14806105f95750600454421180156105f85750600554600654105b5b61060257600080fd5b3373ffffffffffffffffffffffffffffffffffffffff166108fc6000803373ffffffffffffffffffffffffffffffffffffffff1673ffffffffffffffffffffffffffffffffffffffff168152602001908152602001600020549081150290604051600060405180830381858888f19350505050158015610686573d6000803e3d6000fd5b50565b600160009054906101000a900473ffffffffffffffffffffffffffffffffffffffff1681565b6000813590506106be81610aa7565b92915050565b6000602082840312156106da576106d96109ea565b5b60006106e8848285016106af565b91505092915050565b6106fa816108e2565b82525050565b61070981610931565b82525050565b600061071c601c8361087b565b9150610727826109ef565b602082019050919050565b600061073f601e8361087b565b915061074a82610a18565b602082019050919050565b6000610762600f8361087b565b915061076d82610a41565b602082019050919050565b6000610785601b8361087b565b915061079082610a6a565b602082019050919050565b6107a481610927565b82525050565b60006020820190506107bf60008301846106f1565b92915050565b60006020820190506107da6000830184610700565b92915050565b600060208201905081810360008301526107f98161070f565b9050919050565b6000602082019050818103600083015261081981610732565b9050919050565b6000602082019050818103600083015261083981610755565b9050919050565b6000602082019050818103600083015261085981610778565b9050919050565b6000602082019050610875600083018461079b565b92915050565b600082825260208201905092915050565b600061089782610927565b91506108a283610927565b9250827fffffffffffffffffffffffffffffffffffffffffffffffffffffffffffffffff038211156108d7576108d661098c565b5b828201905092915050565b60006108ed82610907565b9050919050565b600081905061090282610a93565b919050565b600073ffffffffffffffffffffffffffffffffffffffff82169050919050565b6000819050919050565b600061093c826108f4565b9050919050565b600061094e82610927565b91507fffffffffffffffffffffffffffffffffffffffffffffffffffffffffffffffff8214156109815761098061098c565b5b600182019050919050565b7f4e487b7100000000000000000000000000000000000000000000000000000000600052601160045260246000fd5b7f4e487b7100000000000000000000000000000000000000000000000000000000600052602160045260246000fd5b600080fd5b7f6469646e74207265616368206d696e20636f6e747269627574696f6e00000000600082015250565b7f6d6573736167652073656e646572206973206e6f7420616e2061646d696e0000600082015250565b7f646561646c696e65207061737365640000000000000000000000000000000000600082015250565b7f43726f776446756e64696e67206973206e6f742072756e6e696e670000000000600082015250565b60058110610aa457610aa36109bb565b5b50565b610ab0816108e2565b8114610abb57600080fd5b5056fea2646970667358221220ae717493a6d16bc2383a0013a6cdc7e0dd95e25e6cdd3c43cf72e3a9467de56264736f6c63430008070033",
					"opcodes": "PUSH1 0x80 PUSH1 0x40 MSTORE CALLVALUE DUP1 ISZERO PUSH3 0x11 JUMPI PUSH1 0x0 DUP1 REVERT JUMPDEST POP PUSH1 0x40 MLOAD PUSH3 0xD1F CODESIZE SUB DUP1 PUSH3 0xD1F DUP4 CODECOPY DUP2 DUP2 ADD PUSH1 0x40 MSTORE DUP2 ADD SWAP1 PUSH3 0x37 SWAP2 SWAP1 PUSH3 0xF0 JUMP JUMPDEST CALLER PUSH1 0x1 PUSH1 0x0 PUSH2 0x100 EXP DUP2 SLOAD DUP2 PUSH20 0xFFFFFFFFFFFFFFFFFFFFFFFFFFFFFFFFFFFFFFFF MUL NOT AND SWAP1 DUP4 PUSH20 0xFFFFFFFFFFFFFFFFFFFFFFFFFFFFFFFFFFFFFFFF AND MUL OR SWAP1 SSTORE POP PUSH1 0x0 PUSH1 0x7 PUSH1 0x0 PUSH2 0x100 EXP DUP2 SLOAD DUP2 PUSH1 0xFF MUL NOT AND SWAP1 DUP4 PUSH1 0x4 DUP2 GT ISZERO PUSH3 0xA1 JUMPI PUSH3 0xA0 PUSH3 0x1CD JUMP JUMPDEST JUMPDEST MUL OR SWAP1 SSTORE POP DUP2 PUSH1 0x5 DUP2 SWAP1 SSTORE POP DUP1 TIMESTAMP PUSH3 0xBB SWAP2 SWAP1 PUSH3 0x137 JUMP JUMPDEST PUSH1 0x4 DUP2 SWAP1 SSTORE POP PUSH1 0x64 PUSH1 0x3 DUP2 SWAP1 SSTORE POP PUSH1 0x0 PUSH1 0x2 DUP2 SWAP1 SSTORE POP POP POP PUSH3 0x21B JUMP JUMPDEST PUSH1 0x0 DUP2 MLOAD SWAP1 POP PUSH3 0xEA DUP2 PUSH3 0x201 JUMP JUMPDEST SWAP3 SWAP2 POP POP JUMP JUMPDEST PUSH1 0x0 DUP1 PUSH1 0x40 DUP4 DUP6 SUB SLT ISZERO PUSH3 0x10A JUMPI PUSH3 0x109 PUSH3 0x1FC JUMP JUMPDEST JUMPDEST PUSH1 0x0 PUSH3 0x11A DUP6 DUP3 DUP7 ADD PUSH3 0xD9 JUMP JUMPDEST SWAP3 POP POP PUSH1 0x20 PUSH3 0x12D DUP6 DUP3 DUP7 ADD PUSH3 0xD9 JUMP JUMPDEST SWAP2 POP POP SWAP3 POP SWAP3 SWAP1 POP JUMP JUMPDEST PUSH1 0x0 PUSH3 0x144 DUP3 PUSH3 0x194 JUMP JUMPDEST SWAP2 POP PUSH3 0x151 DUP4 PUSH3 0x194 JUMP JUMPDEST SWAP3 POP DUP3 PUSH32 0xFFFFFFFFFFFFFFFFFFFFFFFFFFFFFFFFFFFFFFFFFFFFFFFFFFFFFFFFFFFFFFFF SUB DUP3 GT ISZERO PUSH3 0x189 JUMPI PUSH3 0x188 PUSH3 0x19E JUMP JUMPDEST JUMPDEST DUP3 DUP3 ADD SWAP1 POP SWAP3 SWAP2 POP POP JUMP JUMPDEST PUSH1 0x0 DUP2 SWAP1 POP SWAP2 SWAP1 POP JUMP JUMPDEST PUSH32 0x4E487B7100000000000000000000000000000000000000000000000000000000 PUSH1 0x0 MSTORE PUSH1 0x11 PUSH1 0x4 MSTORE PUSH1 0x24 PUSH1 0x0 REVERT JUMPDEST PUSH32 0x4E487B7100000000000000000000000000000000000000000000000000000000 PUSH1 0x0 MSTORE PUSH1 0x21 PUSH1 0x4 MSTORE PUSH1 0x24 PUSH1 0x0 REVERT JUMPDEST PUSH1 0x0 DUP1 REVERT JUMPDEST PUSH3 0x20C DUP2 PUSH3 0x194 JUMP JUMPDEST DUP2 EQ PUSH3 0x218 JUMPI PUSH1 0x0 DUP1 REVERT JUMPDEST POP JUMP JUMPDEST PUSH2 0xAF4 DUP1 PUSH3 0x22B PUSH1 0x0 CODECOPY PUSH1 0x0 RETURN INVALID PUSH1 0x80 PUSH1 0x40 MSTORE PUSH1 0x4 CALLDATASIZE LT PUSH2 0xAB JUMPI PUSH1 0x0 CALLDATALOAD PUSH1 0xE0 SHR DUP1 PUSH4 0xAAFFADF3 GT PUSH2 0x64 JUMPI DUP1 PUSH4 0xAAFFADF3 EQ PUSH2 0x1BF JUMPI DUP1 PUSH4 0xB25CDCCF EQ PUSH2 0x1EA JUMPI DUP1 PUSH4 0xC59EE1DC EQ PUSH2 0x215 JUMPI DUP1 PUSH4 0xD5CEF133 EQ PUSH2 0x240 JUMPI DUP1 PUSH4 0xD7BB99BA EQ PUSH2 0x24A JUMPI DUP1 PUSH4 0xF851A440 EQ PUSH2 0x254 JUMPI PUSH2 0xBA JUMP JUMPDEST DUP1 PUSH4 0x12065FE0 EQ PUSH2 0xBF JUMPI DUP1 PUSH4 0x1E206F15 EQ PUSH2 0xEA JUMPI DUP1 PUSH4 0x1F6D4942 EQ PUSH2 0x115 JUMPI DUP1 PUSH4 0x29DCB0CF EQ PUSH2 0x152 JUMPI DUP1 PUSH4 0x40193883 EQ PUSH2 0x17D JUMPI DUP1 PUSH4 0xA8B78ED0 EQ PUSH2 0x1A8 JUMPI PUSH2 0xBA JUMP JUMPDEST CALLDATASIZE PUSH2 0xBA JUMPI PUSH2 0xB8 PUSH2 0x27F JUMP JUMPDEST STOP JUMPDEST PUSH1 0x0 DUP1 REVERT JUMPDEST CALLVALUE DUP1 ISZERO PUSH2 0xCB JUMPI PUSH1 0x0 DUP1 REVERT JUMPDEST POP PUSH2 0xD4 PUSH2 0x44F JUMP JUMPDEST PUSH1 0x40 MLOAD PUSH2 0xE1 SWAP2 SWAP1 PUSH2 0x860 JUMP JUMPDEST PUSH1 0x40 MLOAD DUP1 SWAP2 SUB SWAP1 RETURN JUMPDEST CALLVALUE DUP1 ISZERO PUSH2 0xF6 JUMPI PUSH1 0x0 DUP1 REVERT JUMPDEST POP PUSH2 0xFF PUSH2 0x457 JUMP JUMPDEST PUSH1 0x40 MLOAD PUSH2 0x10C SWAP2 SWAP1 PUSH2 0x860 JUMP JUMPDEST PUSH1 0x40 MLOAD DUP1 SWAP2 SUB SWAP1 RETURN JUMPDEST CALLVALUE DUP1 ISZERO PUSH2 0x121 JUMPI PUSH1 0x0 DUP1 REVERT JUMPDEST POP PUSH2 0x13C PUSH1 0x4 DUP1 CALLDATASIZE SUB DUP2 ADD SWAP1 PUSH2 0x137 SWAP2 SWAP1 PUSH2 0x6C4 JUMP JUMPDEST PUSH2 0x45D JUMP JUMPDEST PUSH1 0x40 MLOAD PUSH2 0x149 SWAP2 SWAP1 PUSH2 0x860 JUMP JUMPDEST PUSH1 0x40 MLOAD DUP1 SWAP2 SUB SWAP1 RETURN JUMPDEST CALLVALUE DUP1 ISZERO PUSH2 0x15E JUMPI PUSH1 0x0 DUP1 REVERT JUMPDEST POP PUSH2 0x167 PUSH2 0x475 JUMP JUMPDEST PUSH1 0x40 MLOAD PUSH2 0x174 SWAP2 SWAP1 PUSH2 0x860 JUMP JUMPDEST PUSH1 0x40 MLOAD DUP1 SWAP2 SUB SWAP1 RETURN JUMPDEST CALLVALUE DUP1 ISZERO PUSH2 0x189 JUMPI PUSH1 0x0 DUP1 REVERT JUMPDEST POP PUSH2 0x192 PUSH2 0x47B JUMP JUMPDEST PUSH1 0x40 MLOAD PUSH2 0x19F SWAP2 SWAP1 PUSH2 0x860 JUMP JUMPDEST PUSH1 0x40 MLOAD DUP1 SWAP2 SUB SWAP1 RETURN JUMPDEST CALLVALUE DUP1 ISZERO PUSH2 0x1B4 JUMPI PUSH1 0x0 DUP1 REVERT JUMPDEST POP PUSH2 0x1BD PUSH2 0x481 JUMP JUMPDEST STOP JUMPDEST CALLVALUE DUP1 ISZERO PUSH2 0x1CB JUMPI PUSH1 0x0 DUP1 REVERT JUMPDEST POP PUSH2 0x1D4 PUSH2 0x53E JUMP JUMPDEST PUSH1 0x40 MLOAD PUSH2 0x1E1 SWAP2 SWAP1 PUSH2 0x860 JUMP JUMPDEST PUSH1 0x40 MLOAD DUP1 SWAP2 SUB SWAP1 RETURN JUMPDEST CALLVALUE DUP1 ISZERO PUSH2 0x1F6 JUMPI PUSH1 0x0 DUP1 REVERT JUMPDEST POP PUSH2 0x1FF PUSH2 0x544 JUMP JUMPDEST PUSH1 0x40 MLOAD PUSH2 0x20C SWAP2 SWAP1 PUSH2 0x7C5 JUMP JUMPDEST PUSH1 0x40 MLOAD DUP1 SWAP2 SUB SWAP1 RETURN JUMPDEST CALLVALUE DUP1 ISZERO PUSH2 0x221 JUMPI PUSH1 0x0 DUP1 REVERT JUMPDEST POP PUSH2 0x22A PUSH2 0x557 JUMP JUMPDEST PUSH1 0x40 MLOAD PUSH2 0x237 SWAP2 SWAP1 PUSH2 0x860 JUMP JUMPDEST PUSH1 0x40 MLOAD DUP1 SWAP2 SUB SWAP1 RETURN JUMPDEST PUSH2 0x248 PUSH2 0x55D JUMP JUMPDEST STOP JUMPDEST PUSH2 0x252 PUSH2 0x27F JUMP JUMPDEST STOP JUMPDEST CALLVALUE DUP1 ISZERO PUSH2 0x260 JUMPI PUSH1 0x0 DUP1 REVERT JUMPDEST POP PUSH2 0x269 PUSH2 0x689 JUMP JUMPDEST PUSH1 0x40 MLOAD PUSH2 0x276 SWAP2 SWAP1 PUSH2 0x7AA JUMP JUMPDEST PUSH1 0x40 MLOAD DUP1 SWAP2 SUB SWAP1 RETURN JUMPDEST PUSH1 0x2 PUSH1 0x4 DUP2 GT ISZERO PUSH2 0x293 JUMPI PUSH2 0x292 PUSH2 0x9BB JUMP JUMPDEST JUMPDEST PUSH1 0x7 PUSH1 0x0 SWAP1 SLOAD SWAP1 PUSH2 0x100 EXP SWAP1 DIV PUSH1 0xFF AND PUSH1 0x4 DUP2 GT ISZERO PUSH2 0x2B5 JUMPI PUSH2 0x2B4 PUSH2 0x9BB JUMP JUMPDEST JUMPDEST EQ PUSH2 0x2F5 JUMPI PUSH1 0x40 MLOAD PUSH32 0x8C379A000000000000000000000000000000000000000000000000000000000 DUP2 MSTORE PUSH1 0x4 ADD PUSH2 0x2EC SWAP1 PUSH2 0x840 JUMP JUMPDEST PUSH1 0x40 MLOAD DUP1 SWAP2 SUB SWAP1 REVERT JUMPDEST PUSH1 0x4 SLOAD TIMESTAMP GT ISZERO PUSH2 0x33A JUMPI PUSH1 0x40 MLOAD PUSH32 0x8C379A000000000000000000000000000000000000000000000000000000000 DUP2 MSTORE PUSH1 0x4 ADD PUSH2 0x331 SWAP1 PUSH2 0x820 JUMP JUMPDEST PUSH1 0x40 MLOAD DUP1 SWAP2 SUB SWAP1 REVERT JUMPDEST PUSH1 0x3 SLOAD CALLVALUE LT ISZERO PUSH2 0x37F JUMPI PUSH1 0x40 MLOAD PUSH32 0x8C379A000000000000000000000000000000000000000000000000000000000 DUP2 MSTORE PUSH1 0x4 ADD PUSH2 0x376 SWAP1 PUSH2 0x7E0 JUMP JUMPDEST PUSH1 0x40 MLOAD DUP1 SWAP2 SUB SWAP1 REVERT JUMPDEST PUSH1 0x0 DUP1 PUSH1 0x0 CALLER PUSH20 0xFFFFFFFFFFFFFFFFFFFFFFFFFFFFFFFFFFFFFFFF AND PUSH20 0xFFFFFFFFFFFFFFFFFFFFFFFFFFFFFFFFFFFFFFFF AND DUP2 MSTORE PUSH1 0x20 ADD SWAP1 DUP2 MSTORE PUSH1 0x20 ADD PUSH1 0x0 KECCAK256 SLOAD EQ ISZERO PUSH2 0x3DF JUMPI PUSH1 0x2 PUSH1 0x0 DUP2 SLOAD DUP1 SWAP3 SWAP2 SWAP1 PUSH2 0x3D9 SWAP1 PUSH2 0x943 JUMP JUMPDEST SWAP2 SWAP1 POP SSTORE POP JUMPDEST CALLVALUE PUSH1 0x0 DUP1 CALLER PUSH20 0xFFFFFFFFFFFFFFFFFFFFFFFFFFFFFFFFFFFFFFFF AND PUSH20 0xFFFFFFFFFFFFFFFFFFFFFFFFFFFFFFFFFFFFFFFF AND DUP2 MSTORE PUSH1 0x20 ADD SWAP1 DUP2 MSTORE PUSH1 0x20 ADD PUSH1 0x0 KECCAK256 PUSH1 0x0 DUP3 DUP3 SLOAD PUSH2 0x42D SWAP2 SWAP1 PUSH2 0x88C JUMP JUMPDEST SWAP3 POP POP DUP2 SWAP1 SSTORE POP CALLVALUE PUSH1 0x6 PUSH1 0x0 DUP3 DUP3 SLOAD PUSH2 0x446 SWAP2 SWAP1 PUSH2 0x88C JUMP JUMPDEST SWAP3 POP POP DUP2 SWAP1 SSTORE POP JUMP JUMPDEST PUSH1 0x0 SELFBALANCE SWAP1 POP SWAP1 JUMP JUMPDEST PUSH1 0x2 SLOAD DUP2 JUMP JUMPDEST PUSH1 0x0 PUSH1 0x20 MSTORE DUP1 PUSH1 0x0 MSTORE PUSH1 0x40 PUSH1 0x0 KECCAK256 PUSH1 0x0 SWAP2 POP SWAP1 POP SLOAD DUP2 JUMP JUMPDEST PUSH1 0x4 SLOAD DUP2 JUMP JUMPDEST PUSH1 0x5 SLOAD DUP2 JUMP JUMPDEST PUSH1 0x1 PUSH1 0x0 SWAP1 SLOAD SWAP1 PUSH2 0x100 EXP SWAP1 DIV PUSH20 0xFFFFFFFFFFFFFFFFFFFFFFFFFFFFFFFFFFFFFFFF AND PUSH20 0xFFFFFFFFFFFFFFFFFFFFFFFFFFFFFFFFFFFFFFFF AND CALLER PUSH20 0xFFFFFFFFFFFFFFFFFFFFFFFFFFFFFFFFFFFFFFFF AND EQ PUSH2 0x511 JUMPI PUSH1 0x40 MLOAD PUSH32 0x8C379A000000000000000000000000000000000000000000000000000000000 DUP2 MSTORE PUSH1 0x4 ADD PUSH2 0x508 SWAP1 PUSH2 0x800 JUMP JUMPDEST PUSH1 0x40 MLOAD DUP1 SWAP2 SUB SWAP1 REVERT JUMPDEST PUSH1 0x2 PUSH1 0x7 PUSH1 0x0 PUSH2 0x100 EXP DUP2 SLOAD DUP2 PUSH1 0xFF MUL NOT AND SWAP1 DUP4 PUSH1 0x4 DUP2 GT ISZERO PUSH2 0x537 JUMPI PUSH2 0x536 PUSH2 0x9BB JUMP JUMPDEST JUMPDEST MUL OR SWAP1 SSTORE POP JUMP JUMPDEST PUSH1 0x3 SLOAD DUP2 JUMP JUMPDEST PUSH1 0x7 PUSH1 0x0 SWAP1 SLOAD SWAP1 PUSH2 0x100 EXP SWAP1 DIV PUSH1 0xFF AND DUP2 JUMP JUMPDEST PUSH1 0x6 SLOAD DUP2 JUMP JUMPDEST PUSH1 0x0 DUP1 PUSH1 0x0 CALLER PUSH20 0xFFFFFFFFFFFFFFFFFFFFFFFFFFFFFFFFFFFFFFFF AND PUSH20 0xFFFFFFFFFFFFFFFFFFFFFFFFFFFFFFFFFFFFFFFF AND DUP2 MSTORE PUSH1 0x20 ADD SWAP1 DUP2 MSTORE PUSH1 0x20 ADD PUSH1 0x0 KECCAK256 SLOAD GT PUSH2 0x5A8 JUMPI PUSH1 0x0 DUP1 REVERT JUMPDEST PUSH1 0x4 DUP1 DUP2 GT ISZERO PUSH2 0x5BB JUMPI PUSH2 0x5BA PUSH2 0x9BB JUMP JUMPDEST JUMPDEST PUSH1 0x7 PUSH1 0x0 SWAP1 SLOAD SWAP1 PUSH2 0x100 EXP SWAP1 DIV PUSH1 0xFF AND PUSH1 0x4 DUP2 GT ISZERO PUSH2 0x5DD JUMPI PUSH2 0x5DC PUSH2 0x9BB JUMP JUMPDEST JUMPDEST EQ DUP1 PUSH2 0x5F9 JUMPI POP PUSH1 0x4 SLOAD TIMESTAMP GT DUP1 ISZERO PUSH2 0x5F8 JUMPI POP PUSH1 0x5 SLOAD PUSH1 0x6 SLOAD LT JUMPDEST JUMPDEST PUSH2 0x602 JUMPI PUSH1 0x0 DUP1 REVERT JUMPDEST CALLER PUSH20 0xFFFFFFFFFFFFFFFFFFFFFFFFFFFFFFFFFFFFFFFF AND PUSH2 0x8FC PUSH1 0x0 DUP1 CALLER PUSH20 0xFFFFFFFFFFFFFFFFFFFFFFFFFFFFFFFFFFFFFFFF AND PUSH20 0xFFFFFFFFFFFFFFFFFFFFFFFFFFFFFFFFFFFFFFFF AND DUP2 MSTORE PUSH1 0x20 ADD SWAP1 DUP2 MSTORE PUSH1 0x20 ADD PUSH1 0x0 KECCAK256 SLOAD SWAP1 DUP2 ISZERO MUL SWAP1 PUSH1 0x40 MLOAD PUSH1 0x0 PUSH1 0x40 MLOAD DUP1 DUP4 SUB DUP2 DUP6 DUP9 DUP9 CALL SWAP4 POP POP POP POP ISZERO DUP1 ISZERO PUSH2 0x686 JUMPI RETURNDATASIZE PUSH1 0x0 DUP1 RETURNDATACOPY RETURNDATASIZE PUSH1 0x0 REVERT JUMPDEST POP JUMP JUMPDEST PUSH1 0x1 PUSH1 0x0 SWAP1 SLOAD SWAP1 PUSH2 0x100 EXP SWAP1 DIV PUSH20 0xFFFFFFFFFFFFFFFFFFFFFFFFFFFFFFFFFFFFFFFF AND DUP2 JUMP JUMPDEST PUSH1 0x0 DUP2 CALLDATALOAD SWAP1 POP PUSH2 0x6BE DUP2 PUSH2 0xAA7 JUMP JUMPDEST SWAP3 SWAP2 POP POP JUMP JUMPDEST PUSH1 0x0 PUSH1 0x20 DUP3 DUP5 SUB SLT ISZERO PUSH2 0x6DA JUMPI PUSH2 0x6D9 PUSH2 0x9EA JUMP JUMPDEST JUMPDEST PUSH1 0x0 PUSH2 0x6E8 DUP5 DUP3 DUP6 ADD PUSH2 0x6AF JUMP JUMPDEST SWAP2 POP POP SWAP3 SWAP2 POP POP JUMP JUMPDEST PUSH2 0x6FA DUP2 PUSH2 0x8E2 JUMP JUMPDEST DUP3 MSTORE POP POP JUMP JUMPDEST PUSH2 0x709 DUP2 PUSH2 0x931 JUMP JUMPDEST DUP3 MSTORE POP POP JUMP JUMPDEST PUSH1 0x0 PUSH2 0x71C PUSH1 0x1C DUP4 PUSH2 0x87B JUMP JUMPDEST SWAP2 POP PUSH2 0x727 DUP3 PUSH2 0x9EF JUMP JUMPDEST PUSH1 0x20 DUP3 ADD SWAP1 POP SWAP2 SWAP1 POP JUMP JUMPDEST PUSH1 0x0 PUSH2 0x73F PUSH1 0x1E DUP4 PUSH2 0x87B JUMP JUMPDEST SWAP2 POP PUSH2 0x74A DUP3 PUSH2 0xA18 JUMP JUMPDEST PUSH1 0x20 DUP3 ADD SWAP1 POP SWAP2 SWAP1 POP JUMP JUMPDEST PUSH1 0x0 PUSH2 0x762 PUSH1 0xF DUP4 PUSH2 0x87B JUMP JUMPDEST SWAP2 POP PUSH2 0x76D DUP3 PUSH2 0xA41 JUMP JUMPDEST PUSH1 0x20 DUP3 ADD SWAP1 POP SWAP2 SWAP1 POP JUMP JUMPDEST PUSH1 0x0 PUSH2 0x785 PUSH1 0x1B DUP4 PUSH2 0x87B JUMP JUMPDEST SWAP2 POP PUSH2 0x790 DUP3 PUSH2 0xA6A JUMP JUMPDEST PUSH1 0x20 DUP3 ADD SWAP1 POP SWAP2 SWAP1 POP JUMP JUMPDEST PUSH2 0x7A4 DUP2 PUSH2 0x927 JUMP JUMPDEST DUP3 MSTORE POP POP JUMP JUMPDEST PUSH1 0x0 PUSH1 0x20 DUP3 ADD SWAP1 POP PUSH2 0x7BF PUSH1 0x0 DUP4 ADD DUP5 PUSH2 0x6F1 JUMP JUMPDEST SWAP3 SWAP2 POP POP JUMP JUMPDEST PUSH1 0x0 PUSH1 0x20 DUP3 ADD SWAP1 POP PUSH2 0x7DA PUSH1 0x0 DUP4 ADD DUP5 PUSH2 0x700 JUMP JUMPDEST SWAP3 SWAP2 POP POP JUMP JUMPDEST PUSH1 0x0 PUSH1 0x20 DUP3 ADD SWAP1 POP DUP2 DUP2 SUB PUSH1 0x0 DUP4 ADD MSTORE PUSH2 0x7F9 DUP2 PUSH2 0x70F JUMP JUMPDEST SWAP1 POP SWAP2 SWAP1 POP JUMP JUMPDEST PUSH1 0x0 PUSH1 0x20 DUP3 ADD SWAP1 POP DUP2 DUP2 SUB PUSH1 0x0 DUP4 ADD MSTORE PUSH2 0x819 DUP2 PUSH2 0x732 JUMP JUMPDEST SWAP1 POP SWAP2 SWAP1 POP JUMP JUMPDEST PUSH1 0x0 PUSH1 0x20 DUP3 ADD SWAP1 POP DUP2 DUP2 SUB PUSH1 0x0 DUP4 ADD MSTORE PUSH2 0x839 DUP2 PUSH2 0x755 JUMP JUMPDEST SWAP1 POP SWAP2 SWAP1 POP JUMP JUMPDEST PUSH1 0x0 PUSH1 0x20 DUP3 ADD SWAP1 POP DUP2 DUP2 SUB PUSH1 0x0 DUP4 ADD MSTORE PUSH2 0x859 DUP2 PUSH2 0x778 JUMP JUMPDEST SWAP1 POP SWAP2 SWAP1 POP JUMP JUMPDEST PUSH1 0x0 PUSH1 0x20 DUP3 ADD SWAP1 POP PUSH2 0x875 PUSH1 0x0 DUP4 ADD DUP5 PUSH2 0x79B JUMP JUMPDEST SWAP3 SWAP2 POP POP JUMP JUMPDEST PUSH1 0x0 DUP3 DUP3 MSTORE PUSH1 0x20 DUP3 ADD SWAP1 POP SWAP3 SWAP2 POP POP JUMP JUMPDEST PUSH1 0x0 PUSH2 0x897 DUP3 PUSH2 0x927 JUMP JUMPDEST SWAP2 POP PUSH2 0x8A2 DUP4 PUSH2 0x927 JUMP JUMPDEST SWAP3 POP DUP3 PUSH32 0xFFFFFFFFFFFFFFFFFFFFFFFFFFFFFFFFFFFFFFFFFFFFFFFFFFFFFFFFFFFFFFFF SUB DUP3 GT ISZERO PUSH2 0x8D7 JUMPI PUSH2 0x8D6 PUSH2 0x98C JUMP JUMPDEST JUMPDEST DUP3 DUP3 ADD SWAP1 POP SWAP3 SWAP2 POP POP JUMP JUMPDEST PUSH1 0x0 PUSH2 0x8ED DUP3 PUSH2 0x907 JUMP JUMPDEST SWAP1 POP SWAP2 SWAP1 POP JUMP JUMPDEST PUSH1 0x0 DUP2 SWAP1 POP PUSH2 0x902 DUP3 PUSH2 0xA93 JUMP JUMPDEST SWAP2 SWAP1 POP JUMP JUMPDEST PUSH1 0x0 PUSH20 0xFFFFFFFFFFFFFFFFFFFFFFFFFFFFFFFFFFFFFFFF DUP3 AND SWAP1 POP SWAP2 SWAP1 POP JUMP JUMPDEST PUSH1 0x0 DUP2 SWAP1 POP SWAP2 SWAP1 POP JUMP JUMPDEST PUSH1 0x0 PUSH2 0x93C DUP3 PUSH2 0x8F4 JUMP JUMPDEST SWAP1 POP SWAP2 SWAP1 POP JUMP JUMPDEST PUSH1 0x0 PUSH2 0x94E DUP3 PUSH2 0x927 JUMP JUMPDEST SWAP2 POP PUSH32 0xFFFFFFFFFFFFFFFFFFFFFFFFFFFFFFFFFFFFFFFFFFFFFFFFFFFFFFFFFFFFFFFF DUP3 EQ ISZERO PUSH2 0x981 JUMPI PUSH2 0x980 PUSH2 0x98C JUMP JUMPDEST JUMPDEST PUSH1 0x1 DUP3 ADD SWAP1 POP SWAP2 SWAP1 POP JUMP JUMPDEST PUSH32 0x4E487B7100000000000000000000000000000000000000000000000000000000 PUSH1 0x0 MSTORE PUSH1 0x11 PUSH1 0x4 MSTORE PUSH1 0x24 PUSH1 0x0 REVERT JUMPDEST PUSH32 0x4E487B7100000000000000000000000000000000000000000000000000000000 PUSH1 0x0 MSTORE PUSH1 0x21 PUSH1 0x4 MSTORE PUSH1 0x24 PUSH1 0x0 REVERT JUMPDEST PUSH1 0x0 DUP1 REVERT JUMPDEST PUSH32 0x6469646E74207265616368206D696E20636F6E747269627574696F6E00000000 PUSH1 0x0 DUP3 ADD MSTORE POP JUMP JUMPDEST PUSH32 0x6D6573736167652073656E646572206973206E6F7420616E2061646D696E0000 PUSH1 0x0 DUP3 ADD MSTORE POP JUMP JUMPDEST PUSH32 0x646561646C696E65207061737365640000000000000000000000000000000000 PUSH1 0x0 DUP3 ADD MSTORE POP JUMP JUMPDEST PUSH32 0x43726F776446756E64696E67206973206E6F742072756E6E696E670000000000 PUSH1 0x0 DUP3 ADD MSTORE POP JUMP JUMPDEST PUSH1 0x5 DUP2 LT PUSH2 0xAA4 JUMPI PUSH2 0xAA3 PUSH2 0x9BB JUMP JUMPDEST JUMPDEST POP JUMP JUMPDEST PUSH2 0xAB0 DUP2 PUSH2 0x8E2 JUMP JUMPDEST DUP2 EQ PUSH2 0xABB JUMPI PUSH1 0x0 DUP1 REVERT JUMPDEST POP JUMP INVALID LOG2 PUSH5 0x6970667358 0x22 SLT KECCAK256 0xAE PUSH18 0x7493A6D16BC2383A0013A6CDC7E0DD95E25E PUSH13 0xDD3C43CF72E3A9467DE5626473 PUSH16 0x6C634300080700330000000000000000 "
				},
				"gasEstimates": {
					"creation": {
						"codeDepositCost": "560800",
						"executionCost": "infinite",
						"totalCost": "infinite"
					},
					"external": {
						"admin()": "2624",
						"contribute()": "infinite",
						"contributors(address)": "2859",
						"deadline()": "2496",
						"fundingState()": "2582",
						"getBalance()": "340",
						"goal()": "2518",
						"minContribution()": "2429",
						"numOfContributors()": "2452",
						"raisedAmount()": "2473",
						"requestRefund()": "infinite",
						"startCampaign()": "26712"
					}
				},
				"methodIdentifiers": {
					"admin()": "f851a440",
					"contribute()": "d7bb99ba",
					"contributors(address)": "1f6d4942",
					"deadline()": "29dcb0cf",
					"fundingState()": "b25cdccf",
					"getBalance()": "12065fe0",
					"goal()": "40193883",
					"minContribution()": "aaffadf3",
					"numOfContributors()": "1e206f15",
					"raisedAmount()": "c59ee1dc",
					"requestRefund()": "d5cef133",
					"startCampaign()": "a8b78ed0"
				}
			},
			"storageLayout": {
				"storage": [
					{
						"astId": 5,
						"contract": "contracts/crowdfunding.sol:CrowdFunding",
						"label": "contributors",
						"offset": 0,
						"slot": "0",
						"type": "t_mapping(t_address,t_uint256)"
					},
					{
						"astId": 7,
						"contract": "contracts/crowdfunding.sol:CrowdFunding",
						"label": "admin",
						"offset": 0,
						"slot": "1",
						"type": "t_address"
					},
					{
						"astId": 9,
						"contract": "contracts/crowdfunding.sol:CrowdFunding",
						"label": "numOfContributors",
						"offset": 0,
						"slot": "2",
						"type": "t_uint256"
					},
					{
						"astId": 11,
						"contract": "contracts/crowdfunding.sol:CrowdFunding",
						"label": "minContribution",
						"offset": 0,
						"slot": "3",
						"type": "t_uint256"
					},
					{
						"astId": 13,
						"contract": "contracts/crowdfunding.sol:CrowdFunding",
						"label": "deadline",
						"offset": 0,
						"slot": "4",
						"type": "t_uint256"
					},
					{
						"astId": 15,
						"contract": "contracts/crowdfunding.sol:CrowdFunding",
						"label": "goal",
						"offset": 0,
						"slot": "5",
						"type": "t_uint256"
					},
					{
						"astId": 17,
						"contract": "contracts/crowdfunding.sol:CrowdFunding",
						"label": "raisedAmount",
						"offset": 0,
						"slot": "6",
						"type": "t_uint256"
					},
					{
						"astId": 26,
						"contract": "contracts/crowdfunding.sol:CrowdFunding",
						"label": "fundingState",
						"offset": 0,
						"slot": "7",
						"type": "t_enum(State)23"
					}
				],
				"types": {
					"t_address": {
						"encoding": "inplace",
						"label": "address",
						"numberOfBytes": "20"
					},
					"t_enum(State)23": {
						"encoding": "inplace",
						"label": "enum CrowdFunding.State",
						"numberOfBytes": "1"
					},
					"t_mapping(t_address,t_uint256)": {
						"encoding": "mapping",
						"key": "t_address",
						"label": "mapping(address => uint256)",
						"numberOfBytes": "32",
						"value": "t_uint256"
					},
					"t_uint256": {
						"encoding": "inplace",
						"label": "uint256",
						"numberOfBytes": "32"
					}
				}
			},
			"userdoc": {
				"kind": "user",
				"methods": {},
				"version": 1
			}
		}
	}
}