{
	"contracts/crowdfunding.sol": {
		"CrowdFunding": {
			"abi": [
				{
					"inputs": [
						{
							"internalType": "uint256",
							"name": "_goal",
							"type": "uint256"
						},
						{
							"internalType": "uint256",
							"name": "_deadline",
							"type": "uint256"
						}
					],
					"stateMutability": "nonpayable",
					"type": "constructor"
				},
				{
					"inputs": [
						{
							"internalType": "string",
							"name": "_description",
							"type": "string"
						},
						{
							"internalType": "address payable",
							"name": "_recipient",
							"type": "address"
						},
						{
							"internalType": "uint256",
							"name": "_value",
							"type": "uint256"
						}
					],
					"name": "addRequest",
					"outputs": [],
					"stateMutability": "nonpayable",
					"type": "function"
				},
				{
					"inputs": [],
					"name": "admin",
					"outputs": [
						{
							"internalType": "address",
							"name": "",
							"type": "address"
						}
					],
					"stateMutability": "view",
					"type": "function"
				},
				{
					"inputs": [],
					"name": "contribute",
					"outputs": [],
					"stateMutability": "payable",
					"type": "function"
				},
				{
					"inputs": [
						{
							"internalType": "address",
							"name": "",
							"type": "address"
						}
					],
					"name": "contributors",
					"outputs": [
						{
							"internalType": "uint256",
							"name": "",
							"type": "uint256"
						}
					],
					"stateMutability": "view",
					"type": "function"
				},
				{
					"inputs": [],
					"name": "deadline",
					"outputs": [
						{
							"internalType": "uint256",
							"name": "",
							"type": "uint256"
						}
					],
					"stateMutability": "view",
					"type": "function"
				},
				{
					"inputs": [],
					"name": "fundingState",
					"outputs": [
						{
							"internalType": "enum CrowdFunding.State",
							"name": "",
							"type": "uint8"
						}
					],
					"stateMutability": "view",
					"type": "function"
				},
				{
					"inputs": [],
					"name": "getBalance",
					"outputs": [
						{
							"internalType": "uint256",
							"name": "",
							"type": "uint256"
						}
					],
					"stateMutability": "view",
					"type": "function"
				},
				{
					"inputs": [],
					"name": "goal",
					"outputs": [
						{
							"internalType": "uint256",
							"name": "",
							"type": "uint256"
						}
					],
					"stateMutability": "view",
					"type": "function"
				},
				{
					"inputs": [],
					"name": "minContribution",
					"outputs": [
						{
							"internalType": "uint256",
							"name": "",
							"type": "uint256"
						}
					],
					"stateMutability": "view",
					"type": "function"
				},
				{
					"inputs": [],
					"name": "numOfContributors",
					"outputs": [
						{
							"internalType": "uint256",
							"name": "",
							"type": "uint256"
						}
					],
					"stateMutability": "view",
					"type": "function"
				},
				{
					"inputs": [],
					"name": "numRequests",
					"outputs": [
						{
							"internalType": "uint256",
							"name": "",
							"type": "uint256"
						}
					],
					"stateMutability": "view",
					"type": "function"
				},
				{
					"inputs": [],
					"name": "raisedAmount",
					"outputs": [
						{
							"internalType": "uint256",
							"name": "",
							"type": "uint256"
						}
					],
					"stateMutability": "view",
					"type": "function"
				},
				{
					"inputs": [],
					"name": "requestRefund",
					"outputs": [],
					"stateMutability": "payable",
					"type": "function"
				},
				{
					"inputs": [
						{
							"internalType": "uint256",
							"name": "",
							"type": "uint256"
						}
					],
					"name": "requests",
					"outputs": [
						{
							"internalType": "string",
							"name": "description",
							"type": "string"
						},
						{
							"internalType": "address payable",
							"name": "recipient",
							"type": "address"
						},
						{
							"internalType": "uint256",
							"name": "value",
							"type": "uint256"
						},
						{
							"internalType": "bool",
							"name": "completed",
							"type": "bool"
						},
						{
							"internalType": "uint256",
							"name": "numOfVoters",
							"type": "uint256"
						}
					],
					"stateMutability": "view",
					"type": "function"
				},
				{
					"inputs": [],
					"name": "startCampaign",
					"outputs": [],
					"stateMutability": "nonpayable",
					"type": "function"
				},
				{
					"inputs": [
						{
							"internalType": "uint256",
							"name": "_requestNumber",
							"type": "uint256"
						}
					],
					"name": "voteRequest",
					"outputs": [],
					"stateMutability": "nonpayable",
					"type": "function"
				},
				{
					"stateMutability": "payable",
					"type": "receive"
				}
			],
			"devdoc": {
				"kind": "dev",
				"methods": {},
				"version": 1
			},
			"evm": {
				"assembly": "    /* \"contracts/crowdfunding.sol\":73:2959  contract CrowdFunding{\r... */\n  mstore(0x40, 0x80)\n    /* \"contracts/crowdfunding.sol\":719:970  constructor(uint _goal, uint _deadline){\r... */\n  callvalue\n  dup1\n  iszero\n  tag_1\n  jumpi\n  0x00\n  dup1\n  revert\ntag_1:\n  pop\n  mload(0x40)\n  sub(codesize, bytecodeSize)\n  dup1\n  bytecodeSize\n  dup4\n  codecopy\n  dup2\n  dup2\n  add\n  0x40\n  mstore\n  dup2\n  add\n  swap1\n  tag_2\n  swap2\n  swap1\n  tag_3\n  jump\t// in\ntag_2:\n    /* \"contracts/crowdfunding.sol\":777:787  msg.sender */\n  caller\n    /* \"contracts/crowdfunding.sol\":769:774  admin */\n  0x01\n  0x00\n    /* \"contracts/crowdfunding.sol\":769:787  admin = msg.sender */\n  0x0100\n  exp\n  dup2\n  sload\n  dup2\n  0xffffffffffffffffffffffffffffffffffffffff\n  mul\n  not\n  and\n  swap1\n  dup4\n  0xffffffffffffffffffffffffffffffffffffffff\n  and\n  mul\n  or\n  swap1\n  sstore\n  pop\n    /* \"contracts/crowdfunding.sol\":813:823  State.INIT */\n  0x00\n    /* \"contracts/crowdfunding.sol\":798:810  fundingState */\n  0x09\n  0x00\n    /* \"contracts/crowdfunding.sol\":798:823  fundingState = State.INIT */\n  0x0100\n  exp\n  dup2\n  sload\n  dup2\n  0xff\n  mul\n  not\n  and\n  swap1\n  dup4\n  0x04\n  dup2\n  gt\n  iszero\n  tag_6\n  jumpi\n  tag_7\n  tag_8\n  jump\t// in\ntag_7:\ntag_6:\n  mul\n  or\n  swap1\n  sstore\n  pop\n    /* \"contracts/crowdfunding.sol\":841:846  _goal */\n  dup2\n    /* \"contracts/crowdfunding.sol\":834:838  goal */\n  0x05\n    /* \"contracts/crowdfunding.sol\":834:846  goal = _goal */\n  dup2\n  swap1\n  sstore\n  pop\n    /* \"contracts/crowdfunding.sol\":885:894  _deadline */\n  dup1\n    /* \"contracts/crowdfunding.sol\":868:883  block.timestamp */\n  timestamp\n    /* \"contracts/crowdfunding.sol\":868:894  block.timestamp+ _deadline */\n  tag_9\n  swap2\n  swap1\n  tag_10\n  jump\t// in\ntag_9:\n    /* \"contracts/crowdfunding.sol\":857:865  deadline */\n  0x04\n    /* \"contracts/crowdfunding.sol\":857:894  deadline = block.timestamp+ _deadline */\n  dup2\n  swap1\n  sstore\n  pop\n    /* \"contracts/crowdfunding.sol\":923:930  100 wei */\n  0x64\n    /* \"contracts/crowdfunding.sol\":905:920  minContribution */\n  0x03\n    /* \"contracts/crowdfunding.sol\":905:930  minContribution = 100 wei */\n  dup2\n  swap1\n  sstore\n  pop\n    /* \"contracts/crowdfunding.sol\":961:962  0 */\n  0x00\n    /* \"contracts/crowdfunding.sol\":941:958  numOfContributors */\n  0x02\n    /* \"contracts/crowdfunding.sol\":941:962  numOfContributors = 0 */\n  dup2\n  swap1\n  sstore\n  pop\n    /* \"contracts/crowdfunding.sol\":719:970  constructor(uint _goal, uint _deadline){\r... */\n  pop\n  pop\n    /* \"contracts/crowdfunding.sol\":73:2959  contract CrowdFunding{\r... */\n  jump(tag_11)\n    /* \"#utility.yul\":7:150   */\ntag_13:\n    /* \"#utility.yul\":64:69   */\n  0x00\n    /* \"#utility.yul\":95:101   */\n  dup2\n    /* \"#utility.yul\":89:102   */\n  mload\n    /* \"#utility.yul\":80:102   */\n  swap1\n  pop\n    /* \"#utility.yul\":111:144   */\n  tag_15\n    /* \"#utility.yul\":138:143   */\n  dup2\n    /* \"#utility.yul\":111:144   */\n  tag_16\n  jump\t// in\ntag_15:\n    /* \"#utility.yul\":7:150   */\n  swap3\n  swap2\n  pop\n  pop\n  jump\t// out\n    /* \"#utility.yul\":156:663   */\ntag_3:\n    /* \"#utility.yul\":235:241   */\n  0x00\n    /* \"#utility.yul\":243:249   */\n  dup1\n    /* \"#utility.yul\":292:294   */\n  0x40\n    /* \"#utility.yul\":280:289   */\n  dup4\n    /* \"#utility.yul\":271:278   */\n  dup6\n    /* \"#utility.yul\":267:290   */\n  sub\n    /* \"#utility.yul\":263:295   */\n  slt\n    /* \"#utility.yul\":260:379   */\n  iszero\n  tag_18\n  jumpi\n    /* \"#utility.yul\":298:377   */\n  tag_19\n  tag_20\n  jump\t// in\ntag_19:\n    /* \"#utility.yul\":260:379   */\ntag_18:\n    /* \"#utility.yul\":418:419   */\n  0x00\n    /* \"#utility.yul\":443:507   */\n  tag_21\n    /* \"#utility.yul\":499:506   */\n  dup6\n    /* \"#utility.yul\":490:496   */\n  dup3\n    /* \"#utility.yul\":479:488   */\n  dup7\n    /* \"#utility.yul\":475:497   */\n  add\n    /* \"#utility.yul\":443:507   */\n  tag_13\n  jump\t// in\ntag_21:\n    /* \"#utility.yul\":433:507   */\n  swap3\n  pop\n    /* \"#utility.yul\":389:517   */\n  pop\n    /* \"#utility.yul\":556:558   */\n  0x20\n    /* \"#utility.yul\":582:646   */\n  tag_22\n    /* \"#utility.yul\":638:645   */\n  dup6\n    /* \"#utility.yul\":629:635   */\n  dup3\n    /* \"#utility.yul\":618:627   */\n  dup7\n    /* \"#utility.yul\":614:636   */\n  add\n    /* \"#utility.yul\":582:646   */\n  tag_13\n  jump\t// in\ntag_22:\n    /* \"#utility.yul\":572:646   */\n  swap2\n  pop\n    /* \"#utility.yul\":527:656   */\n  pop\n    /* \"#utility.yul\":156:663   */\n  swap3\n  pop\n  swap3\n  swap1\n  pop\n  jump\t// out\n    /* \"#utility.yul\":750:1055   */\ntag_10:\n    /* \"#utility.yul\":790:793   */\n  0x00\n    /* \"#utility.yul\":809:829   */\n  tag_26\n    /* \"#utility.yul\":827:828   */\n  dup3\n    /* \"#utility.yul\":809:829   */\n  tag_27\n  jump\t// in\ntag_26:\n    /* \"#utility.yul\":804:829   */\n  swap2\n  pop\n    /* \"#utility.yul\":843:863   */\n  tag_28\n    /* \"#utility.yul\":861:862   */\n  dup4\n    /* \"#utility.yul\":843:863   */\n  tag_27\n  jump\t// in\ntag_28:\n    /* \"#utility.yul\":838:863   */\n  swap3\n  pop\n    /* \"#utility.yul\":997:998   */\n  dup3\n    /* \"#utility.yul\":929:995   */\n  0xffffffffffffffffffffffffffffffffffffffffffffffffffffffffffffffff\n    /* \"#utility.yul\":925:999   */\n  sub\n    /* \"#utility.yul\":922:923   */\n  dup3\n    /* \"#utility.yul\":919:1000   */\n  gt\n    /* \"#utility.yul\":916:1023   */\n  iszero\n  tag_29\n  jumpi\n    /* \"#utility.yul\":1003:1021   */\n  tag_30\n  tag_31\n  jump\t// in\ntag_30:\n    /* \"#utility.yul\":916:1023   */\ntag_29:\n    /* \"#utility.yul\":1047:1048   */\n  dup3\n    /* \"#utility.yul\":1044:1045   */\n  dup3\n    /* \"#utility.yul\":1040:1049   */\n  add\n    /* \"#utility.yul\":1033:1049   */\n  swap1\n  pop\n    /* \"#utility.yul\":750:1055   */\n  swap3\n  swap2\n  pop\n  pop\n  jump\t// out\n    /* \"#utility.yul\":1061:1138   */\ntag_27:\n    /* \"#utility.yul\":1098:1105   */\n  0x00\n    /* \"#utility.yul\":1127:1132   */\n  dup2\n    /* \"#utility.yul\":1116:1132   */\n  swap1\n  pop\n    /* \"#utility.yul\":1061:1138   */\n  swap2\n  swap1\n  pop\n  jump\t// out\n    /* \"#utility.yul\":1144:1324   */\ntag_31:\n    /* \"#utility.yul\":1192:1269   */\n  0x4e487b7100000000000000000000000000000000000000000000000000000000\n    /* \"#utility.yul\":1189:1190   */\n  0x00\n    /* \"#utility.yul\":1182:1270   */\n  mstore\n    /* \"#utility.yul\":1289:1293   */\n  0x11\n    /* \"#utility.yul\":1286:1287   */\n  0x04\n    /* \"#utility.yul\":1279:1294   */\n  mstore\n    /* \"#utility.yul\":1313:1317   */\n  0x24\n    /* \"#utility.yul\":1310:1311   */\n  0x00\n    /* \"#utility.yul\":1303:1318   */\n  revert\n    /* \"#utility.yul\":1330:1510   */\ntag_8:\n    /* \"#utility.yul\":1378:1455   */\n  0x4e487b7100000000000000000000000000000000000000000000000000000000\n    /* \"#utility.yul\":1375:1376   */\n  0x00\n    /* \"#utility.yul\":1368:1456   */\n  mstore\n    /* \"#utility.yul\":1475:1479   */\n  0x21\n    /* \"#utility.yul\":1472:1473   */\n  0x04\n    /* \"#utility.yul\":1465:1480   */\n  mstore\n    /* \"#utility.yul\":1499:1503   */\n  0x24\n    /* \"#utility.yul\":1496:1497   */\n  0x00\n    /* \"#utility.yul\":1489:1504   */\n  revert\n    /* \"#utility.yul\":1639:1756   */\ntag_20:\n    /* \"#utility.yul\":1748:1749   */\n  0x00\n    /* \"#utility.yul\":1745:1746   */\n  dup1\n    /* \"#utility.yul\":1738:1750   */\n  revert\n    /* \"#utility.yul\":1762:1884   */\ntag_16:\n    /* \"#utility.yul\":1835:1859   */\n  tag_39\n    /* \"#utility.yul\":1853:1858   */\n  dup2\n    /* \"#utility.yul\":1835:1859   */\n  tag_27\n  jump\t// in\ntag_39:\n    /* \"#utility.yul\":1828:1833   */\n  dup2\n    /* \"#utility.yul\":1825:1860   */\n  eq\n    /* \"#utility.yul\":1815:1878   */\n  tag_40\n  jumpi\n    /* \"#utility.yul\":1874:1875   */\n  0x00\n    /* \"#utility.yul\":1871:1872   */\n  dup1\n    /* \"#utility.yul\":1864:1876   */\n  revert\n    /* \"#utility.yul\":1815:1878   */\ntag_40:\n    /* \"#utility.yul\":1762:1884   */\n  pop\n  jump\t// out\n    /* \"contracts/crowdfunding.sol\":73:2959  contract CrowdFunding{\r... */\ntag_11:\n  dataSize(sub_0)\n  dup1\n  dataOffset(sub_0)\n  0x00\n  codecopy\n  0x00\n  return\nstop\n\nsub_0: assembly {\n        /* \"contracts/crowdfunding.sol\":73:2959  contract CrowdFunding{\r... */\n      mstore(0x40, 0x80)\n      jumpi(tag_1, lt(calldatasize, 0x04))\n      shr(0xe0, calldataload(0x00))\n      dup1\n      0x9fb42b1f\n      gt\n      tag_19\n      jumpi\n      dup1\n      0xc59ee1dc\n      gt\n      tag_20\n      jumpi\n      dup1\n      0xc59ee1dc\n      eq\n      tag_15\n      jumpi\n      dup1\n      0xd5cef133\n      eq\n      tag_16\n      jumpi\n      dup1\n      0xd7bb99ba\n      eq\n      tag_17\n      jumpi\n      dup1\n      0xf851a440\n      eq\n      tag_18\n      jumpi\n      jump(tag_2)\n    tag_20:\n      dup1\n      0x9fb42b1f\n      eq\n      tag_11\n      jumpi\n      dup1\n      0xa8b78ed0\n      eq\n      tag_12\n      jumpi\n      dup1\n      0xaaffadf3\n      eq\n      tag_13\n      jumpi\n      dup1\n      0xb25cdccf\n      eq\n      tag_14\n      jumpi\n      jump(tag_2)\n    tag_19:\n      dup1\n      0x40193883\n      gt\n      tag_21\n      jumpi\n      dup1\n      0x40193883\n      eq\n      tag_7\n      jumpi\n      dup1\n      0x4b5e7d70\n      eq\n      tag_8\n      jumpi\n      dup1\n      0x4cb6f4a5\n      eq\n      tag_9\n      jumpi\n      dup1\n      0x81d12c58\n      eq\n      tag_10\n      jumpi\n      jump(tag_2)\n    tag_21:\n      dup1\n      0x12065fe0\n      eq\n      tag_3\n      jumpi\n      dup1\n      0x1e206f15\n      eq\n      tag_4\n      jumpi\n      dup1\n      0x1f6d4942\n      eq\n      tag_5\n      jumpi\n      dup1\n      0x29dcb0cf\n      eq\n      tag_6\n      jumpi\n      jump(tag_2)\n    tag_1:\n      jumpi(tag_2, calldatasize)\n        /* \"contracts/crowdfunding.sol\":1582:1594  contribute() */\n      tag_24\n        /* \"contracts/crowdfunding.sol\":1582:1592  contribute */\n      tag_25\n        /* \"contracts/crowdfunding.sol\":1582:1594  contribute() */\n      jump\t// in\n    tag_24:\n        /* \"contracts/crowdfunding.sol\":73:2959  contract CrowdFunding{\r... */\n      stop\n    tag_2:\n      0x00\n      dup1\n      revert\n        /* \"contracts/crowdfunding.sol\":2027:2121  function getBalance() public view returns(uint){\r... */\n    tag_3:\n      callvalue\n      dup1\n      iszero\n      tag_26\n      jumpi\n      0x00\n      dup1\n      revert\n    tag_26:\n      pop\n      tag_27\n      tag_28\n      jump\t// in\n    tag_27:\n      mload(0x40)\n      tag_29\n      swap2\n      swap1\n      tag_30\n      jump\t// in\n    tag_29:\n      mload(0x40)\n      dup1\n      swap2\n      sub\n      swap1\n      return\n        /* \"contracts/crowdfunding.sol\":181:210  uint public numOfContributors */\n    tag_4:\n      callvalue\n      dup1\n      iszero\n      tag_31\n      jumpi\n      0x00\n      dup1\n      revert\n    tag_31:\n      pop\n      tag_32\n      tag_33\n      jump\t// in\n    tag_32:\n      mload(0x40)\n      tag_34\n      swap2\n      swap1\n      tag_30\n      jump\t// in\n    tag_34:\n      mload(0x40)\n      dup1\n      swap2\n      sub\n      swap1\n      return\n        /* \"contracts/crowdfunding.sol\":103:147  mapping(address => uint) public contributors */\n    tag_5:\n      callvalue\n      dup1\n      iszero\n      tag_35\n      jumpi\n      0x00\n      dup1\n      revert\n    tag_35:\n      pop\n      tag_36\n      0x04\n      dup1\n      calldatasize\n      sub\n      dup2\n      add\n      swap1\n      tag_37\n      swap2\n      swap1\n      tag_38\n      jump\t// in\n    tag_37:\n      tag_39\n      jump\t// in\n    tag_36:\n      mload(0x40)\n      tag_40\n      swap2\n      swap1\n      tag_30\n      jump\t// in\n    tag_40:\n      mload(0x40)\n      dup1\n      swap2\n      sub\n      swap1\n      return\n        /* \"contracts/crowdfunding.sol\":251:271  uint public deadline */\n    tag_6:\n      callvalue\n      dup1\n      iszero\n      tag_41\n      jumpi\n      0x00\n      dup1\n      revert\n    tag_41:\n      pop\n      tag_42\n      tag_43\n      jump\t// in\n    tag_42:\n      mload(0x40)\n      tag_44\n      swap2\n      swap1\n      tag_30\n      jump\t// in\n    tag_44:\n      mload(0x40)\n      dup1\n      swap2\n      sub\n      swap1\n      return\n        /* \"contracts/crowdfunding.sol\":278:294  uint public goal */\n    tag_7:\n      callvalue\n      dup1\n      iszero\n      tag_45\n      jumpi\n      0x00\n      dup1\n      revert\n    tag_45:\n      pop\n      tag_46\n      tag_47\n      jump\t// in\n    tag_46:\n      mload(0x40)\n      tag_48\n      swap2\n      swap1\n      tag_30\n      jump\t// in\n    tag_48:\n      mload(0x40)\n      dup1\n      swap2\n      sub\n      swap1\n      return\n        /* \"contracts/crowdfunding.sol\":2450:2812  function addRequest(string memory _description, address payable _recipient,uint _value ) public adminOnly{\r... */\n    tag_8:\n      callvalue\n      dup1\n      iszero\n      tag_49\n      jumpi\n      0x00\n      dup1\n      revert\n    tag_49:\n      pop\n      tag_50\n      0x04\n      dup1\n      calldatasize\n      sub\n      dup2\n      add\n      swap1\n      tag_51\n      swap2\n      swap1\n      tag_52\n      jump\t// in\n    tag_51:\n      tag_53\n      jump\t// in\n    tag_50:\n      stop\n        /* \"contracts/crowdfunding.sol\":2820:2954  function voteRequest(uint _requestNumber) public onlyContributor {\r... */\n    tag_9:\n      callvalue\n      dup1\n      iszero\n      tag_54\n      jumpi\n      0x00\n      dup1\n      revert\n    tag_54:\n      pop\n      tag_55\n      0x04\n      dup1\n      calldatasize\n      sub\n      dup2\n      add\n      swap1\n      tag_56\n      swap2\n      swap1\n      tag_57\n      jump\t// in\n    tag_56:\n      tag_58\n      jump\t// in\n    tag_55:\n      stop\n        /* \"contracts/crowdfunding.sol\":546:586  mapping(uint => Request) public requests */\n    tag_10:\n      callvalue\n      dup1\n      iszero\n      tag_59\n      jumpi\n      0x00\n      dup1\n      revert\n    tag_59:\n      pop\n      tag_60\n      0x04\n      dup1\n      calldatasize\n      sub\n      dup2\n      add\n      swap1\n      tag_61\n      swap2\n      swap1\n      tag_57\n      jump\t// in\n    tag_61:\n      tag_62\n      jump\t// in\n    tag_60:\n      mload(0x40)\n      tag_63\n      swap6\n      swap5\n      swap4\n      swap3\n      swap2\n      swap1\n      tag_64\n      jump\t// in\n    tag_63:\n      mload(0x40)\n      dup1\n      swap2\n      sub\n      swap1\n      return\n        /* \"contracts/crowdfunding.sol\":593:616  uint public numRequests */\n    tag_11:\n      callvalue\n      dup1\n      iszero\n      tag_65\n      jumpi\n      0x00\n      dup1\n      revert\n    tag_65:\n      pop\n      tag_66\n      tag_67\n      jump\t// in\n    tag_66:\n      mload(0x40)\n      tag_68\n      swap2\n      swap1\n      tag_30\n      jump\t// in\n    tag_68:\n      mload(0x40)\n      dup1\n      swap2\n      sub\n      swap1\n      return\n        /* \"contracts/crowdfunding.sol\":1610:1698  function startCampaign() public adminOnly{\r... */\n    tag_12:\n      callvalue\n      dup1\n      iszero\n      tag_69\n      jumpi\n      0x00\n      dup1\n      revert\n    tag_69:\n      pop\n      tag_70\n      tag_71\n      jump\t// in\n    tag_70:\n      stop\n        /* \"contracts/crowdfunding.sol\":217:244  uint public minContribution */\n    tag_13:\n      callvalue\n      dup1\n      iszero\n      tag_72\n      jumpi\n      0x00\n      dup1\n      revert\n    tag_72:\n      pop\n      tag_73\n      tag_74\n      jump\t// in\n    tag_73:\n      mload(0x40)\n      tag_75\n      swap2\n      swap1\n      tag_30\n      jump\t// in\n    tag_75:\n      mload(0x40)\n      dup1\n      swap2\n      sub\n      swap1\n      return\n        /* \"contracts/crowdfunding.sol\":685:710  State public fundingState */\n    tag_14:\n      callvalue\n      dup1\n      iszero\n      tag_76\n      jumpi\n      0x00\n      dup1\n      revert\n    tag_76:\n      pop\n      tag_77\n      tag_78\n      jump\t// in\n    tag_77:\n      mload(0x40)\n      tag_79\n      swap2\n      swap1\n      tag_80\n      jump\t// in\n    tag_79:\n      mload(0x40)\n      dup1\n      swap2\n      sub\n      swap1\n      return\n        /* \"contracts/crowdfunding.sol\":301:325  uint public raisedAmount */\n    tag_15:\n      callvalue\n      dup1\n      iszero\n      tag_81\n      jumpi\n      0x00\n      dup1\n      revert\n    tag_81:\n      pop\n      tag_82\n      tag_83\n      jump\t// in\n    tag_82:\n      mload(0x40)\n      tag_84\n      swap2\n      swap1\n      tag_30\n      jump\t// in\n    tag_84:\n      mload(0x40)\n      dup1\n      swap2\n      sub\n      swap1\n      return\n        /* \"contracts/crowdfunding.sol\":2133:2442  function requestRefund() public payable onlyContributor{\r... */\n    tag_16:\n      tag_85\n      tag_86\n      jump\t// in\n    tag_85:\n      stop\n        /* \"contracts/crowdfunding.sol\":1706:2019  function contribute() public payable campaignRunning{\r... */\n    tag_17:\n      tag_87\n      tag_25\n      jump\t// in\n    tag_87:\n      stop\n        /* \"contracts/crowdfunding.sol\":154:174  address public admin */\n    tag_18:\n      callvalue\n      dup1\n      iszero\n      tag_88\n      jumpi\n      0x00\n      dup1\n      revert\n    tag_88:\n      pop\n      tag_89\n      tag_90\n      jump\t// in\n    tag_89:\n      mload(0x40)\n      tag_91\n      swap2\n      swap1\n      tag_92\n      jump\t// in\n    tag_91:\n      mload(0x40)\n      dup1\n      swap2\n      sub\n      swap1\n      return\n        /* \"contracts/crowdfunding.sol\":1706:2019  function contribute() public payable campaignRunning{\r... */\n    tag_25:\n        /* \"contracts/crowdfunding.sol\":1160:1173  State.RUNNING */\n      0x02\n        /* \"contracts/crowdfunding.sol\":1144:1173  fundingState == State.RUNNING */\n      0x04\n      dup2\n      gt\n      iszero\n      tag_94\n      jumpi\n      tag_95\n      tag_96\n      jump\t// in\n    tag_95:\n    tag_94:\n        /* \"contracts/crowdfunding.sol\":1144:1156  fundingState */\n      0x09\n      0x00\n      swap1\n      sload\n      swap1\n      0x0100\n      exp\n      swap1\n      div\n      0xff\n      and\n        /* \"contracts/crowdfunding.sol\":1144:1173  fundingState == State.RUNNING */\n      0x04\n      dup2\n      gt\n      iszero\n      tag_97\n      jumpi\n      tag_98\n      tag_96\n      jump\t// in\n    tag_98:\n    tag_97:\n      eq\n        /* \"contracts/crowdfunding.sol\":1136:1205  require(fundingState == State.RUNNING, \"CrowdFunding is not running\") */\n      tag_99\n      jumpi\n      mload(0x40)\n      0x08c379a000000000000000000000000000000000000000000000000000000000\n      dup2\n      mstore\n      0x04\n      add\n      tag_100\n      swap1\n      tag_101\n      jump\t// in\n    tag_100:\n      mload(0x40)\n      dup1\n      swap2\n      sub\n      swap1\n      revert\n    tag_99:\n        /* \"contracts/crowdfunding.sol\":1243:1251  deadline */\n      sload(0x04)\n        /* \"contracts/crowdfunding.sol\":1224:1239  block.timestamp */\n      timestamp\n        /* \"contracts/crowdfunding.sol\":1224:1251  block.timestamp <= deadline */\n      gt\n      iszero\n        /* \"contracts/crowdfunding.sol\":1216:1271  require(block.timestamp <= deadline, \"deadline passed\") */\n      tag_102\n      jumpi\n      mload(0x40)\n      0x08c379a000000000000000000000000000000000000000000000000000000000\n      dup2\n      mstore\n      0x04\n      add\n      tag_103\n      swap1\n      tag_104\n      jump\t// in\n    tag_103:\n      mload(0x40)\n      dup1\n      swap2\n      sub\n      swap1\n      revert\n    tag_102:\n        /* \"contracts/crowdfunding.sol\":1790:1805  minContribution */\n      sload(0x03)\n        /* \"contracts/crowdfunding.sol\":1777:1786  msg.value */\n      callvalue\n        /* \"contracts/crowdfunding.sol\":1777:1805  msg.value >= minContribution */\n      lt\n      iszero\n        /* \"contracts/crowdfunding.sol\":1769:1838  require(msg.value >= minContribution, \"didnt reach min contribution\") */\n      tag_106\n      jumpi\n      mload(0x40)\n      0x08c379a000000000000000000000000000000000000000000000000000000000\n      dup2\n      mstore\n      0x04\n      add\n      tag_107\n      swap1\n      tag_108\n      jump\t// in\n    tag_107:\n      mload(0x40)\n      dup1\n      swap2\n      sub\n      swap1\n      revert\n    tag_106:\n        /* \"contracts/crowdfunding.sol\":1880:1881  0 */\n      0x00\n        /* \"contracts/crowdfunding.sol\":1852:1864  contributors */\n      dup1\n        /* \"contracts/crowdfunding.sol\":1852:1876  contributors[msg.sender] */\n      0x00\n        /* \"contracts/crowdfunding.sol\":1865:1875  msg.sender */\n      caller\n        /* \"contracts/crowdfunding.sol\":1852:1876  contributors[msg.sender] */\n      0xffffffffffffffffffffffffffffffffffffffff\n      and\n      0xffffffffffffffffffffffffffffffffffffffff\n      and\n      dup2\n      mstore\n      0x20\n      add\n      swap1\n      dup2\n      mstore\n      0x20\n      add\n      0x00\n      keccak256\n      sload\n        /* \"contracts/crowdfunding.sol\":1852:1881  contributors[msg.sender] == 0 */\n      eq\n        /* \"contracts/crowdfunding.sol\":1849:1928  if(contributors[msg.sender] == 0){\r... */\n      iszero\n      tag_109\n      jumpi\n        /* \"contracts/crowdfunding.sol\":1897:1914  numOfContributors */\n      0x02\n      0x00\n        /* \"contracts/crowdfunding.sol\":1897:1916  numOfContributors++ */\n      dup2\n      sload\n      dup1\n      swap3\n      swap2\n      swap1\n      tag_110\n      swap1\n      tag_111\n      jump\t// in\n    tag_110:\n      swap2\n      swap1\n      pop\n      sstore\n      pop\n        /* \"contracts/crowdfunding.sol\":1849:1928  if(contributors[msg.sender] == 0){\r... */\n    tag_109:\n        /* \"contracts/crowdfunding.sol\":1966:1975  msg.value */\n      callvalue\n        /* \"contracts/crowdfunding.sol\":1938:1950  contributors */\n      0x00\n        /* \"contracts/crowdfunding.sol\":1938:1962  contributors[msg.sender] */\n      dup1\n        /* \"contracts/crowdfunding.sol\":1951:1961  msg.sender */\n      caller\n        /* \"contracts/crowdfunding.sol\":1938:1962  contributors[msg.sender] */\n      0xffffffffffffffffffffffffffffffffffffffff\n      and\n      0xffffffffffffffffffffffffffffffffffffffff\n      and\n      dup2\n      mstore\n      0x20\n      add\n      swap1\n      dup2\n      mstore\n      0x20\n      add\n      0x00\n      keccak256\n      0x00\n        /* \"contracts/crowdfunding.sol\":1938:1975  contributors[msg.sender] += msg.value */\n      dup3\n      dup3\n      sload\n      tag_112\n      swap2\n      swap1\n      tag_113\n      jump\t// in\n    tag_112:\n      swap3\n      pop\n      pop\n      dup2\n      swap1\n      sstore\n      pop\n        /* \"contracts/crowdfunding.sol\":2002:2011  msg.value */\n      callvalue\n        /* \"contracts/crowdfunding.sol\":1986:1998  raisedAmount */\n      0x06\n      0x00\n        /* \"contracts/crowdfunding.sol\":1986:2011  raisedAmount += msg.value */\n      dup3\n      dup3\n      sload\n      tag_114\n      swap2\n      swap1\n      tag_113\n      jump\t// in\n    tag_114:\n      swap3\n      pop\n      pop\n      dup2\n      swap1\n      sstore\n      pop\n        /* \"contracts/crowdfunding.sol\":1706:2019  function contribute() public payable campaignRunning{\r... */\n      jump\t// out\n        /* \"contracts/crowdfunding.sol\":2027:2121  function getBalance() public view returns(uint){\r... */\n    tag_28:\n        /* \"contracts/crowdfunding.sol\":2069:2073  uint */\n      0x00\n        /* \"contracts/crowdfunding.sol\":2092:2113  address(this).balance */\n      selfbalance\n        /* \"contracts/crowdfunding.sol\":2085:2113  return address(this).balance */\n      swap1\n      pop\n        /* \"contracts/crowdfunding.sol\":2027:2121  function getBalance() public view returns(uint){\r... */\n      swap1\n      jump\t// out\n        /* \"contracts/crowdfunding.sol\":181:210  uint public numOfContributors */\n    tag_33:\n      sload(0x02)\n      dup2\n      jump\t// out\n        /* \"contracts/crowdfunding.sol\":103:147  mapping(address => uint) public contributors */\n    tag_39:\n      mstore(0x20, 0x00)\n      dup1\n      0x00\n      mstore\n      keccak256(0x00, 0x40)\n      0x00\n      swap2\n      pop\n      swap1\n      pop\n      sload\n      dup2\n      jump\t// out\n        /* \"contracts/crowdfunding.sol\":251:271  uint public deadline */\n    tag_43:\n      sload(0x04)\n      dup2\n      jump\t// out\n        /* \"contracts/crowdfunding.sol\":278:294  uint public goal */\n    tag_47:\n      sload(0x05)\n      dup2\n      jump\t// out\n        /* \"contracts/crowdfunding.sol\":2450:2812  function addRequest(string memory _description, address payable _recipient,uint _value ) public adminOnly{\r... */\n    tag_53:\n        /* \"contracts/crowdfunding.sol\":1031:1036  admin */\n      0x01\n      0x00\n      swap1\n      sload\n      swap1\n      0x0100\n      exp\n      swap1\n      div\n      0xffffffffffffffffffffffffffffffffffffffff\n      and\n        /* \"contracts/crowdfunding.sol\":1017:1036  msg.sender == admin */\n      0xffffffffffffffffffffffffffffffffffffffff\n      and\n        /* \"contracts/crowdfunding.sol\":1017:1027  msg.sender */\n      caller\n        /* \"contracts/crowdfunding.sol\":1017:1036  msg.sender == admin */\n      0xffffffffffffffffffffffffffffffffffffffff\n      and\n      eq\n        /* \"contracts/crowdfunding.sol\":1009:1071  require(msg.sender == admin, \"message sender is not an admin\") */\n      tag_117\n      jumpi\n      mload(0x40)\n      0x08c379a000000000000000000000000000000000000000000000000000000000\n      dup2\n      mstore\n      0x04\n      add\n      tag_118\n      swap1\n      tag_119\n      jump\t// in\n    tag_118:\n      mload(0x40)\n      dup1\n      swap2\n      sub\n      swap1\n      revert\n    tag_117:\n        /* \"contracts/crowdfunding.sol\":2566:2585  Request storage req */\n      0x00\n        /* \"contracts/crowdfunding.sol\":2588:2596  requests */\n      0x07\n        /* \"contracts/crowdfunding.sol\":2588:2609  requests[numRequests] */\n      0x00\n        /* \"contracts/crowdfunding.sol\":2597:2608  numRequests */\n      sload(0x08)\n        /* \"contracts/crowdfunding.sol\":2588:2609  requests[numRequests] */\n      dup2\n      mstore\n      0x20\n      add\n      swap1\n      dup2\n      mstore\n      0x20\n      add\n      0x00\n      keccak256\n        /* \"contracts/crowdfunding.sol\":2566:2609  Request storage req = requests[numRequests] */\n      swap1\n      pop\n        /* \"contracts/crowdfunding.sol\":2620:2631  numRequests */\n      0x08\n      0x00\n        /* \"contracts/crowdfunding.sol\":2620:2633  numRequests++ */\n      dup2\n      sload\n      dup1\n      swap3\n      swap2\n      swap1\n      tag_121\n      swap1\n      tag_111\n      jump\t// in\n    tag_121:\n      swap2\n      swap1\n      pop\n      sstore\n      pop\n        /* \"contracts/crowdfunding.sol\":2664:2676  _description */\n      dup4\n        /* \"contracts/crowdfunding.sol\":2646:2649  req */\n      dup2\n        /* \"contracts/crowdfunding.sol\":2646:2661  req.description */\n      0x00\n      add\n        /* \"contracts/crowdfunding.sol\":2646:2676  req.description = _description */\n      swap1\n      dup1\n      mload\n      swap1\n      0x20\n      add\n      swap1\n      tag_122\n      swap3\n      swap2\n      swap1\n      tag_123\n      jump\t// in\n    tag_122:\n      pop\n        /* \"contracts/crowdfunding.sol\":2703:2713  _recipient */\n      dup3\n        /* \"contracts/crowdfunding.sol\":2687:2690  req */\n      dup2\n        /* \"contracts/crowdfunding.sol\":2687:2700  req.recipient */\n      0x01\n      add\n      0x00\n        /* \"contracts/crowdfunding.sol\":2687:2713  req.recipient = _recipient */\n      0x0100\n      exp\n      dup2\n      sload\n      dup2\n      0xffffffffffffffffffffffffffffffffffffffff\n      mul\n      not\n      and\n      swap1\n      dup4\n      0xffffffffffffffffffffffffffffffffffffffff\n      and\n      mul\n      or\n      swap1\n      sstore\n      pop\n        /* \"contracts/crowdfunding.sol\":2736:2742  _value */\n      dup2\n        /* \"contracts/crowdfunding.sol\":2724:2727  req */\n      dup2\n        /* \"contracts/crowdfunding.sol\":2724:2733  req.value */\n      0x02\n      add\n        /* \"contracts/crowdfunding.sol\":2724:2742  req.value = _value */\n      dup2\n      swap1\n      sstore\n      pop\n        /* \"contracts/crowdfunding.sol\":2769:2774  false */\n      0x00\n        /* \"contracts/crowdfunding.sol\":2753:2756  req */\n      dup2\n        /* \"contracts/crowdfunding.sol\":2753:2766  req.completed */\n      0x03\n      add\n      0x00\n        /* \"contracts/crowdfunding.sol\":2753:2774  req.completed = false */\n      0x0100\n      exp\n      dup2\n      sload\n      dup2\n      0xff\n      mul\n      not\n      and\n      swap1\n      dup4\n      iszero\n      iszero\n      mul\n      or\n      swap1\n      sstore\n      pop\n        /* \"contracts/crowdfunding.sol\":2803:2804  0 */\n      0x00\n        /* \"contracts/crowdfunding.sol\":2785:2788  req */\n      dup2\n        /* \"contracts/crowdfunding.sol\":2785:2800  req.numOfVoters */\n      0x04\n      add\n        /* \"contracts/crowdfunding.sol\":2785:2804  req.numOfVoters = 0 */\n      dup2\n      swap1\n      sstore\n      pop\n        /* \"contracts/crowdfunding.sol\":2555:2812  {\r... */\n      pop\n        /* \"contracts/crowdfunding.sol\":2450:2812  function addRequest(string memory _description, address payable _recipient,uint _value ) public adminOnly{\r... */\n      pop\n      pop\n      pop\n      jump\t// out\n        /* \"contracts/crowdfunding.sol\":2820:2954  function voteRequest(uint _requestNumber) public onlyContributor {\r... */\n    tag_58:\n        /* \"contracts/crowdfunding.sol\":1486:1487  0 */\n      0x00\n        /* \"contracts/crowdfunding.sol\":1459:1471  contributors */\n      dup1\n        /* \"contracts/crowdfunding.sol\":1459:1483  contributors[msg.sender] */\n      0x00\n        /* \"contracts/crowdfunding.sol\":1472:1482  msg.sender */\n      caller\n        /* \"contracts/crowdfunding.sol\":1459:1483  contributors[msg.sender] */\n      0xffffffffffffffffffffffffffffffffffffffff\n      and\n      0xffffffffffffffffffffffffffffffffffffffff\n      and\n      dup2\n      mstore\n      0x20\n      add\n      swap1\n      dup2\n      mstore\n      0x20\n      add\n      0x00\n      keccak256\n      sload\n        /* \"contracts/crowdfunding.sol\":1459:1487  contributors[msg.sender] > 0 */\n      gt\n        /* \"contracts/crowdfunding.sol\":1451:1517  require(contributors[msg.sender] > 0, \"you are not a contributor\") */\n      tag_125\n      jumpi\n      mload(0x40)\n      0x08c379a000000000000000000000000000000000000000000000000000000000\n      dup2\n      mstore\n      0x04\n      add\n      tag_126\n      swap1\n      tag_127\n      jump\t// in\n    tag_126:\n      mload(0x40)\n      dup1\n      swap2\n      sub\n      swap1\n      revert\n    tag_125:\n        /* \"contracts/crowdfunding.sol\":2942:2946  true */\n      0x01\n        /* \"contracts/crowdfunding.sol\":2896:2904  requests */\n      0x07\n        /* \"contracts/crowdfunding.sol\":2896:2920  requests[_requestNumber] */\n      0x00\n        /* \"contracts/crowdfunding.sol\":2905:2919  _requestNumber */\n      dup4\n        /* \"contracts/crowdfunding.sol\":2896:2920  requests[_requestNumber] */\n      dup2\n      mstore\n      0x20\n      add\n      swap1\n      dup2\n      mstore\n      0x20\n      add\n      0x00\n      keccak256\n        /* \"contracts/crowdfunding.sol\":2896:2927  requests[_requestNumber].voters */\n      0x05\n      add\n        /* \"contracts/crowdfunding.sol\":2896:2939  requests[_requestNumber].voters[msg.sender] */\n      0x00\n        /* \"contracts/crowdfunding.sol\":2928:2938  msg.sender */\n      caller\n        /* \"contracts/crowdfunding.sol\":2896:2939  requests[_requestNumber].voters[msg.sender] */\n      0xffffffffffffffffffffffffffffffffffffffff\n      and\n      0xffffffffffffffffffffffffffffffffffffffff\n      and\n      dup2\n      mstore\n      0x20\n      add\n      swap1\n      dup2\n      mstore\n      0x20\n      add\n      0x00\n      keccak256\n      0x00\n        /* \"contracts/crowdfunding.sol\":2896:2946  requests[_requestNumber].voters[msg.sender] = true */\n      0x0100\n      exp\n      dup2\n      sload\n      dup2\n      0xff\n      mul\n      not\n      and\n      swap1\n      dup4\n      iszero\n      iszero\n      mul\n      or\n      swap1\n      sstore\n      pop\n        /* \"contracts/crowdfunding.sol\":2820:2954  function voteRequest(uint _requestNumber) public onlyContributor {\r... */\n      pop\n      jump\t// out\n        /* \"contracts/crowdfunding.sol\":546:586  mapping(uint => Request) public requests */\n    tag_62:\n      mstore(0x20, 0x07)\n      dup1\n      0x00\n      mstore\n      keccak256(0x00, 0x40)\n      0x00\n      swap2\n      pop\n      swap1\n      pop\n      dup1\n      0x00\n      add\n      dup1\n      sload\n      tag_129\n      swap1\n      tag_130\n      jump\t// in\n    tag_129:\n      dup1\n      0x1f\n      add\n      0x20\n      dup1\n      swap2\n      div\n      mul\n      0x20\n      add\n      mload(0x40)\n      swap1\n      dup2\n      add\n      0x40\n      mstore\n      dup1\n      swap3\n      swap2\n      swap1\n      dup2\n      dup2\n      mstore\n      0x20\n      add\n      dup3\n      dup1\n      sload\n      tag_131\n      swap1\n      tag_130\n      jump\t// in\n    tag_131:\n      dup1\n      iszero\n      tag_132\n      jumpi\n      dup1\n      0x1f\n      lt\n      tag_133\n      jumpi\n      0x0100\n      dup1\n      dup4\n      sload\n      div\n      mul\n      dup4\n      mstore\n      swap2\n      0x20\n      add\n      swap2\n      jump(tag_132)\n    tag_133:\n      dup3\n      add\n      swap2\n      swap1\n      0x00\n      mstore\n      keccak256(0x00, 0x20)\n      swap1\n    tag_134:\n      dup2\n      sload\n      dup2\n      mstore\n      swap1\n      0x01\n      add\n      swap1\n      0x20\n      add\n      dup1\n      dup4\n      gt\n      tag_134\n      jumpi\n      dup3\n      swap1\n      sub\n      0x1f\n      and\n      dup3\n      add\n      swap2\n    tag_132:\n      pop\n      pop\n      pop\n      pop\n      pop\n      swap1\n      dup1\n      0x01\n      add\n      0x00\n      swap1\n      sload\n      swap1\n      0x0100\n      exp\n      swap1\n      div\n      0xffffffffffffffffffffffffffffffffffffffff\n      and\n      swap1\n      dup1\n      0x02\n      add\n      sload\n      swap1\n      dup1\n      0x03\n      add\n      0x00\n      swap1\n      sload\n      swap1\n      0x0100\n      exp\n      swap1\n      div\n      0xff\n      and\n      swap1\n      dup1\n      0x04\n      add\n      sload\n      swap1\n      pop\n      dup6\n      jump\t// out\n        /* \"contracts/crowdfunding.sol\":593:616  uint public numRequests */\n    tag_67:\n      sload(0x08)\n      dup2\n      jump\t// out\n        /* \"contracts/crowdfunding.sol\":1610:1698  function startCampaign() public adminOnly{\r... */\n    tag_71:\n        /* \"contracts/crowdfunding.sol\":1031:1036  admin */\n      0x01\n      0x00\n      swap1\n      sload\n      swap1\n      0x0100\n      exp\n      swap1\n      div\n      0xffffffffffffffffffffffffffffffffffffffff\n      and\n        /* \"contracts/crowdfunding.sol\":1017:1036  msg.sender == admin */\n      0xffffffffffffffffffffffffffffffffffffffff\n      and\n        /* \"contracts/crowdfunding.sol\":1017:1027  msg.sender */\n      caller\n        /* \"contracts/crowdfunding.sol\":1017:1036  msg.sender == admin */\n      0xffffffffffffffffffffffffffffffffffffffff\n      and\n      eq\n        /* \"contracts/crowdfunding.sol\":1009:1071  require(msg.sender == admin, \"message sender is not an admin\") */\n      tag_136\n      jumpi\n      mload(0x40)\n      0x08c379a000000000000000000000000000000000000000000000000000000000\n      dup2\n      mstore\n      0x04\n      add\n      tag_137\n      swap1\n      tag_119\n      jump\t// in\n    tag_137:\n      mload(0x40)\n      dup1\n      swap2\n      sub\n      swap1\n      revert\n    tag_136:\n        /* \"contracts/crowdfunding.sol\":1677:1690  State.RUNNING */\n      0x02\n        /* \"contracts/crowdfunding.sol\":1662:1674  fundingState */\n      0x09\n      0x00\n        /* \"contracts/crowdfunding.sol\":1662:1690  fundingState = State.RUNNING */\n      0x0100\n      exp\n      dup2\n      sload\n      dup2\n      0xff\n      mul\n      not\n      and\n      swap1\n      dup4\n      0x04\n      dup2\n      gt\n      iszero\n      tag_139\n      jumpi\n      tag_140\n      tag_96\n      jump\t// in\n    tag_140:\n    tag_139:\n      mul\n      or\n      swap1\n      sstore\n      pop\n        /* \"contracts/crowdfunding.sol\":1610:1698  function startCampaign() public adminOnly{\r... */\n      jump\t// out\n        /* \"contracts/crowdfunding.sol\":217:244  uint public minContribution */\n    tag_74:\n      sload(0x03)\n      dup2\n      jump\t// out\n        /* \"contracts/crowdfunding.sol\":685:710  State public fundingState */\n    tag_78:\n      0x09\n      0x00\n      swap1\n      sload\n      swap1\n      0x0100\n      exp\n      swap1\n      div\n      0xff\n      and\n      dup2\n      jump\t// out\n        /* \"contracts/crowdfunding.sol\":301:325  uint public raisedAmount */\n    tag_83:\n      sload(0x06)\n      dup2\n      jump\t// out\n        /* \"contracts/crowdfunding.sol\":2133:2442  function requestRefund() public payable onlyContributor{\r... */\n    tag_86:\n        /* \"contracts/crowdfunding.sol\":1486:1487  0 */\n      0x00\n        /* \"contracts/crowdfunding.sol\":1459:1471  contributors */\n      dup1\n        /* \"contracts/crowdfunding.sol\":1459:1483  contributors[msg.sender] */\n      0x00\n        /* \"contracts/crowdfunding.sol\":1472:1482  msg.sender */\n      caller\n        /* \"contracts/crowdfunding.sol\":1459:1483  contributors[msg.sender] */\n      0xffffffffffffffffffffffffffffffffffffffff\n      and\n      0xffffffffffffffffffffffffffffffffffffffff\n      and\n      dup2\n      mstore\n      0x20\n      add\n      swap1\n      dup2\n      mstore\n      0x20\n      add\n      0x00\n      keccak256\n      sload\n        /* \"contracts/crowdfunding.sol\":1459:1487  contributors[msg.sender] > 0 */\n      gt\n        /* \"contracts/crowdfunding.sol\":1451:1517  require(contributors[msg.sender] > 0, \"you are not a contributor\") */\n      tag_142\n      jumpi\n      mload(0x40)\n      0x08c379a000000000000000000000000000000000000000000000000000000000\n      dup2\n      mstore\n      0x04\n      add\n      tag_143\n      swap1\n      tag_127\n      jump\t// in\n    tag_143:\n      mload(0x40)\n      dup1\n      swap2\n      sub\n      swap1\n      revert\n    tag_142:\n        /* \"contracts/crowdfunding.sol\":2223:2237  State.CANCELED */\n      0x04\n        /* \"contracts/crowdfunding.sol\":2207:2237  fundingState == State.CANCELED */\n      dup1\n      dup2\n      gt\n      iszero\n      tag_145\n      jumpi\n      tag_146\n      tag_96\n      jump\t// in\n    tag_146:\n    tag_145:\n        /* \"contracts/crowdfunding.sol\":2207:2219  fundingState */\n      0x09\n      0x00\n      swap1\n      sload\n      swap1\n      0x0100\n      exp\n      swap1\n      div\n      0xff\n      and\n        /* \"contracts/crowdfunding.sol\":2207:2237  fundingState == State.CANCELED */\n      0x04\n      dup2\n      gt\n      iszero\n      tag_147\n      jumpi\n      tag_148\n      tag_96\n      jump\t// in\n    tag_148:\n    tag_147:\n      eq\n        /* \"contracts/crowdfunding.sol\":2207:2290  fundingState == State.CANCELED || block.timestamp > deadline && raisedAmount < goal */\n      dup1\n      tag_149\n      jumpi\n      pop\n        /* \"contracts/crowdfunding.sol\":2259:2267  deadline */\n      sload(0x04)\n        /* \"contracts/crowdfunding.sol\":2241:2256  block.timestamp */\n      timestamp\n        /* \"contracts/crowdfunding.sol\":2241:2267  block.timestamp > deadline */\n      gt\n        /* \"contracts/crowdfunding.sol\":2241:2290  block.timestamp > deadline && raisedAmount < goal */\n      dup1\n      iszero\n      tag_150\n      jumpi\n      pop\n        /* \"contracts/crowdfunding.sol\":2286:2290  goal */\n      sload(0x05)\n        /* \"contracts/crowdfunding.sol\":2271:2283  raisedAmount */\n      sload(0x06)\n        /* \"contracts/crowdfunding.sol\":2271:2290  raisedAmount < goal */\n      lt\n        /* \"contracts/crowdfunding.sol\":2241:2290  block.timestamp > deadline && raisedAmount < goal */\n    tag_150:\n        /* \"contracts/crowdfunding.sol\":2207:2290  fundingState == State.CANCELED || block.timestamp > deadline && raisedAmount < goal */\n    tag_149:\n        /* \"contracts/crowdfunding.sol\":2199:2291  require(fundingState == State.CANCELED || block.timestamp > deadline && raisedAmount < goal) */\n      tag_151\n      jumpi\n      0x00\n      dup1\n      revert\n    tag_151:\n        /* \"contracts/crowdfunding.sol\":2312:2322  uint value */\n      0x00\n        /* \"contracts/crowdfunding.sol\":2325:2337  contributors */\n      dup1\n        /* \"contracts/crowdfunding.sol\":2325:2349  contributors[msg.sender] */\n      0x00\n        /* \"contracts/crowdfunding.sol\":2338:2348  msg.sender */\n      caller\n        /* \"contracts/crowdfunding.sol\":2325:2349  contributors[msg.sender] */\n      0xffffffffffffffffffffffffffffffffffffffff\n      and\n      0xffffffffffffffffffffffffffffffffffffffff\n      and\n      dup2\n      mstore\n      0x20\n      add\n      swap1\n      dup2\n      mstore\n      0x20\n      add\n      0x00\n      keccak256\n      sload\n        /* \"contracts/crowdfunding.sol\":2312:2349  uint value = contributors[msg.sender] */\n      swap1\n      pop\n        /* \"contracts/crowdfunding.sol\":2387:2388  0 */\n      0x00\n        /* \"contracts/crowdfunding.sol\":2360:2372  contributors */\n      dup1\n        /* \"contracts/crowdfunding.sol\":2360:2384  contributors[msg.sender] */\n      0x00\n        /* \"contracts/crowdfunding.sol\":2373:2383  msg.sender */\n      caller\n        /* \"contracts/crowdfunding.sol\":2360:2384  contributors[msg.sender] */\n      0xffffffffffffffffffffffffffffffffffffffff\n      and\n      0xffffffffffffffffffffffffffffffffffffffff\n      and\n      dup2\n      mstore\n      0x20\n      add\n      swap1\n      dup2\n      mstore\n      0x20\n      add\n      0x00\n      keccak256\n        /* \"contracts/crowdfunding.sol\":2360:2388  contributors[msg.sender] = 0 */\n      dup2\n      swap1\n      sstore\n      pop\n        /* \"contracts/crowdfunding.sol\":2407:2417  msg.sender */\n      caller\n        /* \"contracts/crowdfunding.sol\":2399:2427  payable(msg.sender).transfer */\n      0xffffffffffffffffffffffffffffffffffffffff\n      and\n        /* \"contracts/crowdfunding.sol\":2399:2434  payable(msg.sender).transfer(value) */\n      0x08fc\n        /* \"contracts/crowdfunding.sol\":2428:2433  value */\n      dup3\n        /* \"contracts/crowdfunding.sol\":2399:2434  payable(msg.sender).transfer(value) */\n      swap1\n      dup2\n      iszero\n      mul\n      swap1\n      mload(0x40)\n      0x00\n      mload(0x40)\n      dup1\n      dup4\n      sub\n      dup2\n      dup6\n      dup9\n      dup9\n      call\n      swap4\n      pop\n      pop\n      pop\n      pop\n      iszero\n      dup1\n      iszero\n      tag_153\n      jumpi\n      returndatasize\n      0x00\n      dup1\n      returndatacopy\n      revert(0x00, returndatasize)\n    tag_153:\n      pop\n        /* \"contracts/crowdfunding.sol\":2188:2442  {\r... */\n      pop\n        /* \"contracts/crowdfunding.sol\":2133:2442  function requestRefund() public payable onlyContributor{\r... */\n      jump\t// out\n        /* \"contracts/crowdfunding.sol\":154:174  address public admin */\n    tag_90:\n      0x01\n      0x00\n      swap1\n      sload\n      swap1\n      0x0100\n      exp\n      swap1\n      div\n      0xffffffffffffffffffffffffffffffffffffffff\n      and\n      dup2\n      jump\t// out\n    tag_123:\n      dup3\n      dup1\n      sload\n      tag_154\n      swap1\n      tag_130\n      jump\t// in\n    tag_154:\n      swap1\n      0x00\n      mstore\n      keccak256(0x00, 0x20)\n      swap1\n      0x1f\n      add\n      0x20\n      swap1\n      div\n      dup2\n      add\n      swap3\n      dup3\n      tag_156\n      jumpi\n      0x00\n      dup6\n      sstore\n      jump(tag_155)\n    tag_156:\n      dup3\n      0x1f\n      lt\n      tag_157\n      jumpi\n      dup1\n      mload\n      not(0xff)\n      and\n      dup4\n      dup1\n      add\n      or\n      dup6\n      sstore\n      jump(tag_155)\n    tag_157:\n      dup3\n      dup1\n      add\n      0x01\n      add\n      dup6\n      sstore\n      dup3\n      iszero\n      tag_155\n      jumpi\n      swap2\n      dup3\n      add\n    tag_158:\n      dup3\n      dup2\n      gt\n      iszero\n      tag_159\n      jumpi\n      dup3\n      mload\n      dup3\n      sstore\n      swap2\n      0x20\n      add\n      swap2\n      swap1\n      0x01\n      add\n      swap1\n      jump(tag_158)\n    tag_159:\n    tag_155:\n      pop\n      swap1\n      pop\n      tag_160\n      swap2\n      swap1\n      tag_161\n      jump\t// in\n    tag_160:\n      pop\n      swap1\n      jump\t// out\n    tag_161:\n    tag_162:\n      dup1\n      dup3\n      gt\n      iszero\n      tag_163\n      jumpi\n      0x00\n      dup2\n      0x00\n      swap1\n      sstore\n      pop\n      0x01\n      add\n      jump(tag_162)\n    tag_163:\n      pop\n      swap1\n      jump\t// out\n        /* \"#utility.yul\":7:419   */\n    tag_165:\n        /* \"#utility.yul\":85:90   */\n      0x00\n        /* \"#utility.yul\":110:176   */\n      tag_167\n        /* \"#utility.yul\":126:175   */\n      tag_168\n        /* \"#utility.yul\":168:174   */\n      dup5\n        /* \"#utility.yul\":126:175   */\n      tag_169\n      jump\t// in\n    tag_168:\n        /* \"#utility.yul\":110:176   */\n      tag_170\n      jump\t// in\n    tag_167:\n        /* \"#utility.yul\":101:176   */\n      swap1\n      pop\n        /* \"#utility.yul\":199:205   */\n      dup3\n        /* \"#utility.yul\":192:197   */\n      dup2\n        /* \"#utility.yul\":185:206   */\n      mstore\n        /* \"#utility.yul\":237:241   */\n      0x20\n        /* \"#utility.yul\":230:235   */\n      dup2\n        /* \"#utility.yul\":226:242   */\n      add\n        /* \"#utility.yul\":275:278   */\n      dup5\n        /* \"#utility.yul\":266:272   */\n      dup5\n        /* \"#utility.yul\":261:264   */\n      dup5\n        /* \"#utility.yul\":257:273   */\n      add\n        /* \"#utility.yul\":254:279   */\n      gt\n        /* \"#utility.yul\":251:363   */\n      iszero\n      tag_171\n      jumpi\n        /* \"#utility.yul\":282:361   */\n      tag_172\n      tag_173\n      jump\t// in\n    tag_172:\n        /* \"#utility.yul\":251:363   */\n    tag_171:\n        /* \"#utility.yul\":372:413   */\n      tag_174\n        /* \"#utility.yul\":406:412   */\n      dup5\n        /* \"#utility.yul\":401:404   */\n      dup3\n        /* \"#utility.yul\":396:399   */\n      dup6\n        /* \"#utility.yul\":372:413   */\n      tag_175\n      jump\t// in\n    tag_174:\n        /* \"#utility.yul\":91:419   */\n      pop\n        /* \"#utility.yul\":7:419   */\n      swap4\n      swap3\n      pop\n      pop\n      pop\n      jump\t// out\n        /* \"#utility.yul\":425:564   */\n    tag_176:\n        /* \"#utility.yul\":471:476   */\n      0x00\n        /* \"#utility.yul\":509:515   */\n      dup2\n        /* \"#utility.yul\":496:516   */\n      calldataload\n        /* \"#utility.yul\":487:516   */\n      swap1\n      pop\n        /* \"#utility.yul\":525:558   */\n      tag_178\n        /* \"#utility.yul\":552:557   */\n      dup2\n        /* \"#utility.yul\":525:558   */\n      tag_179\n      jump\t// in\n    tag_178:\n        /* \"#utility.yul\":425:564   */\n      swap3\n      swap2\n      pop\n      pop\n      jump\t// out\n        /* \"#utility.yul\":570:725   */\n    tag_180:\n        /* \"#utility.yul\":624:629   */\n      0x00\n        /* \"#utility.yul\":662:668   */\n      dup2\n        /* \"#utility.yul\":649:669   */\n      calldataload\n        /* \"#utility.yul\":640:669   */\n      swap1\n      pop\n        /* \"#utility.yul\":678:719   */\n      tag_182\n        /* \"#utility.yul\":713:718   */\n      dup2\n        /* \"#utility.yul\":678:719   */\n      tag_183\n      jump\t// in\n    tag_182:\n        /* \"#utility.yul\":570:725   */\n      swap3\n      swap2\n      pop\n      pop\n      jump\t// out\n        /* \"#utility.yul\":745:1085   */\n    tag_184:\n        /* \"#utility.yul\":801:806   */\n      0x00\n        /* \"#utility.yul\":850:853   */\n      dup3\n        /* \"#utility.yul\":843:847   */\n      0x1f\n        /* \"#utility.yul\":835:841   */\n      dup4\n        /* \"#utility.yul\":831:848   */\n      add\n        /* \"#utility.yul\":827:854   */\n      slt\n        /* \"#utility.yul\":817:939   */\n      tag_186\n      jumpi\n        /* \"#utility.yul\":858:937   */\n      tag_187\n      tag_188\n      jump\t// in\n    tag_187:\n        /* \"#utility.yul\":817:939   */\n    tag_186:\n        /* \"#utility.yul\":975:981   */\n      dup2\n        /* \"#utility.yul\":962:982   */\n      calldataload\n        /* \"#utility.yul\":1000:1079   */\n      tag_189\n        /* \"#utility.yul\":1075:1078   */\n      dup5\n        /* \"#utility.yul\":1067:1073   */\n      dup3\n        /* \"#utility.yul\":1060:1064   */\n      0x20\n        /* \"#utility.yul\":1052:1058   */\n      dup7\n        /* \"#utility.yul\":1048:1065   */\n      add\n        /* \"#utility.yul\":1000:1079   */\n      tag_165\n      jump\t// in\n    tag_189:\n        /* \"#utility.yul\":991:1079   */\n      swap2\n      pop\n        /* \"#utility.yul\":807:1085   */\n      pop\n        /* \"#utility.yul\":745:1085   */\n      swap3\n      swap2\n      pop\n      pop\n      jump\t// out\n        /* \"#utility.yul\":1091:1230   */\n    tag_190:\n        /* \"#utility.yul\":1137:1142   */\n      0x00\n        /* \"#utility.yul\":1175:1181   */\n      dup2\n        /* \"#utility.yul\":1162:1182   */\n      calldataload\n        /* \"#utility.yul\":1153:1182   */\n      swap1\n      pop\n        /* \"#utility.yul\":1191:1224   */\n      tag_192\n        /* \"#utility.yul\":1218:1223   */\n      dup2\n        /* \"#utility.yul\":1191:1224   */\n      tag_193\n      jump\t// in\n    tag_192:\n        /* \"#utility.yul\":1091:1230   */\n      swap3\n      swap2\n      pop\n      pop\n      jump\t// out\n        /* \"#utility.yul\":1236:1565   */\n    tag_38:\n        /* \"#utility.yul\":1295:1301   */\n      0x00\n        /* \"#utility.yul\":1344:1346   */\n      0x20\n        /* \"#utility.yul\":1332:1341   */\n      dup3\n        /* \"#utility.yul\":1323:1330   */\n      dup5\n        /* \"#utility.yul\":1319:1342   */\n      sub\n        /* \"#utility.yul\":1315:1347   */\n      slt\n        /* \"#utility.yul\":1312:1431   */\n      iszero\n      tag_195\n      jumpi\n        /* \"#utility.yul\":1350:1429   */\n      tag_196\n      tag_197\n      jump\t// in\n    tag_196:\n        /* \"#utility.yul\":1312:1431   */\n    tag_195:\n        /* \"#utility.yul\":1470:1471   */\n      0x00\n        /* \"#utility.yul\":1495:1548   */\n      tag_198\n        /* \"#utility.yul\":1540:1547   */\n      dup5\n        /* \"#utility.yul\":1531:1537   */\n      dup3\n        /* \"#utility.yul\":1520:1529   */\n      dup6\n        /* \"#utility.yul\":1516:1538   */\n      add\n        /* \"#utility.yul\":1495:1548   */\n      tag_176\n      jump\t// in\n    tag_198:\n        /* \"#utility.yul\":1485:1548   */\n      swap2\n      pop\n        /* \"#utility.yul\":1441:1558   */\n      pop\n        /* \"#utility.yul\":1236:1565   */\n      swap3\n      swap2\n      pop\n      pop\n      jump\t// out\n        /* \"#utility.yul\":1571:2386   */\n    tag_52:\n        /* \"#utility.yul\":1666:1672   */\n      0x00\n        /* \"#utility.yul\":1674:1680   */\n      dup1\n        /* \"#utility.yul\":1682:1688   */\n      0x00\n        /* \"#utility.yul\":1731:1733   */\n      0x60\n        /* \"#utility.yul\":1719:1728   */\n      dup5\n        /* \"#utility.yul\":1710:1717   */\n      dup7\n        /* \"#utility.yul\":1706:1729   */\n      sub\n        /* \"#utility.yul\":1702:1734   */\n      slt\n        /* \"#utility.yul\":1699:1818   */\n      iszero\n      tag_200\n      jumpi\n        /* \"#utility.yul\":1737:1816   */\n      tag_201\n      tag_197\n      jump\t// in\n    tag_201:\n        /* \"#utility.yul\":1699:1818   */\n    tag_200:\n        /* \"#utility.yul\":1885:1886   */\n      0x00\n        /* \"#utility.yul\":1874:1883   */\n      dup5\n        /* \"#utility.yul\":1870:1887   */\n      add\n        /* \"#utility.yul\":1857:1888   */\n      calldataload\n        /* \"#utility.yul\":1915:1933   */\n      0xffffffffffffffff\n        /* \"#utility.yul\":1907:1913   */\n      dup2\n        /* \"#utility.yul\":1904:1934   */\n      gt\n        /* \"#utility.yul\":1901:2018   */\n      iszero\n      tag_202\n      jumpi\n        /* \"#utility.yul\":1937:2016   */\n      tag_203\n      tag_204\n      jump\t// in\n    tag_203:\n        /* \"#utility.yul\":1901:2018   */\n    tag_202:\n        /* \"#utility.yul\":2042:2105   */\n      tag_205\n        /* \"#utility.yul\":2097:2104   */\n      dup7\n        /* \"#utility.yul\":2088:2094   */\n      dup3\n        /* \"#utility.yul\":2077:2086   */\n      dup8\n        /* \"#utility.yul\":2073:2095   */\n      add\n        /* \"#utility.yul\":2042:2105   */\n      tag_184\n      jump\t// in\n    tag_205:\n        /* \"#utility.yul\":2032:2105   */\n      swap4\n      pop\n        /* \"#utility.yul\":1828:2115   */\n      pop\n        /* \"#utility.yul\":2154:2156   */\n      0x20\n        /* \"#utility.yul\":2180:2241   */\n      tag_206\n        /* \"#utility.yul\":2233:2240   */\n      dup7\n        /* \"#utility.yul\":2224:2230   */\n      dup3\n        /* \"#utility.yul\":2213:2222   */\n      dup8\n        /* \"#utility.yul\":2209:2231   */\n      add\n        /* \"#utility.yul\":2180:2241   */\n      tag_180\n      jump\t// in\n    tag_206:\n        /* \"#utility.yul\":2170:2241   */\n      swap3\n      pop\n        /* \"#utility.yul\":2125:2251   */\n      pop\n        /* \"#utility.yul\":2290:2292   */\n      0x40\n        /* \"#utility.yul\":2316:2369   */\n      tag_207\n        /* \"#utility.yul\":2361:2368   */\n      dup7\n        /* \"#utility.yul\":2352:2358   */\n      dup3\n        /* \"#utility.yul\":2341:2350   */\n      dup8\n        /* \"#utility.yul\":2337:2359   */\n      add\n        /* \"#utility.yul\":2316:2369   */\n      tag_190\n      jump\t// in\n    tag_207:\n        /* \"#utility.yul\":2306:2369   */\n      swap2\n      pop\n        /* \"#utility.yul\":2261:2379   */\n      pop\n        /* \"#utility.yul\":1571:2386   */\n      swap3\n      pop\n      swap3\n      pop\n      swap3\n      jump\t// out\n        /* \"#utility.yul\":2392:2721   */\n    tag_57:\n        /* \"#utility.yul\":2451:2457   */\n      0x00\n        /* \"#utility.yul\":2500:2502   */\n      0x20\n        /* \"#utility.yul\":2488:2497   */\n      dup3\n        /* \"#utility.yul\":2479:2486   */\n      dup5\n        /* \"#utility.yul\":2475:2498   */\n      sub\n        /* \"#utility.yul\":2471:2503   */\n      slt\n        /* \"#utility.yul\":2468:2587   */\n      iszero\n      tag_209\n      jumpi\n        /* \"#utility.yul\":2506:2585   */\n      tag_210\n      tag_197\n      jump\t// in\n    tag_210:\n        /* \"#utility.yul\":2468:2587   */\n    tag_209:\n        /* \"#utility.yul\":2626:2627   */\n      0x00\n        /* \"#utility.yul\":2651:2704   */\n      tag_211\n        /* \"#utility.yul\":2696:2703   */\n      dup5\n        /* \"#utility.yul\":2687:2693   */\n      dup3\n        /* \"#utility.yul\":2676:2685   */\n      dup6\n        /* \"#utility.yul\":2672:2694   */\n      add\n        /* \"#utility.yul\":2651:2704   */\n      tag_190\n      jump\t// in\n    tag_211:\n        /* \"#utility.yul\":2641:2704   */\n      swap2\n      pop\n        /* \"#utility.yul\":2597:2714   */\n      pop\n        /* \"#utility.yul\":2392:2721   */\n      swap3\n      swap2\n      pop\n      pop\n      jump\t// out\n        /* \"#utility.yul\":2727:2869   */\n    tag_212:\n        /* \"#utility.yul\":2830:2862   */\n      tag_214\n        /* \"#utility.yul\":2856:2861   */\n      dup2\n        /* \"#utility.yul\":2830:2862   */\n      tag_215\n      jump\t// in\n    tag_214:\n        /* \"#utility.yul\":2825:2828   */\n      dup3\n        /* \"#utility.yul\":2818:2863   */\n      mstore\n        /* \"#utility.yul\":2727:2869   */\n      pop\n      pop\n      jump\t// out\n        /* \"#utility.yul\":2875:2993   */\n    tag_216:\n        /* \"#utility.yul\":2962:2986   */\n      tag_218\n        /* \"#utility.yul\":2980:2985   */\n      dup2\n        /* \"#utility.yul\":2962:2986   */\n      tag_219\n      jump\t// in\n    tag_218:\n        /* \"#utility.yul\":2957:2960   */\n      dup3\n        /* \"#utility.yul\":2950:2987   */\n      mstore\n        /* \"#utility.yul\":2875:2993   */\n      pop\n      pop\n      jump\t// out\n        /* \"#utility.yul\":2999:3108   */\n    tag_220:\n        /* \"#utility.yul\":3080:3101   */\n      tag_222\n        /* \"#utility.yul\":3095:3100   */\n      dup2\n        /* \"#utility.yul\":3080:3101   */\n      tag_223\n      jump\t// in\n    tag_222:\n        /* \"#utility.yul\":3075:3078   */\n      dup3\n        /* \"#utility.yul\":3068:3102   */\n      mstore\n        /* \"#utility.yul\":2999:3108   */\n      pop\n      pop\n      jump\t// out\n        /* \"#utility.yul\":3114:3257   */\n    tag_224:\n        /* \"#utility.yul\":3207:3250   */\n      tag_226\n        /* \"#utility.yul\":3244:3249   */\n      dup2\n        /* \"#utility.yul\":3207:3250   */\n      tag_227\n      jump\t// in\n    tag_226:\n        /* \"#utility.yul\":3202:3205   */\n      dup3\n        /* \"#utility.yul\":3195:3251   */\n      mstore\n        /* \"#utility.yul\":3114:3257   */\n      pop\n      pop\n      jump\t// out\n        /* \"#utility.yul\":3263:3627   */\n    tag_228:\n        /* \"#utility.yul\":3351:3354   */\n      0x00\n        /* \"#utility.yul\":3379:3418   */\n      tag_230\n        /* \"#utility.yul\":3412:3417   */\n      dup3\n        /* \"#utility.yul\":3379:3418   */\n      tag_231\n      jump\t// in\n    tag_230:\n        /* \"#utility.yul\":3434:3505   */\n      tag_232\n        /* \"#utility.yul\":3498:3504   */\n      dup2\n        /* \"#utility.yul\":3493:3496   */\n      dup6\n        /* \"#utility.yul\":3434:3505   */\n      tag_233\n      jump\t// in\n    tag_232:\n        /* \"#utility.yul\":3427:3505   */\n      swap4\n      pop\n        /* \"#utility.yul\":3514:3566   */\n      tag_234\n        /* \"#utility.yul\":3559:3565   */\n      dup2\n        /* \"#utility.yul\":3554:3557   */\n      dup6\n        /* \"#utility.yul\":3547:3551   */\n      0x20\n        /* \"#utility.yul\":3540:3545   */\n      dup7\n        /* \"#utility.yul\":3536:3552   */\n      add\n        /* \"#utility.yul\":3514:3566   */\n      tag_235\n      jump\t// in\n    tag_234:\n        /* \"#utility.yul\":3591:3620   */\n      tag_236\n        /* \"#utility.yul\":3613:3619   */\n      dup2\n        /* \"#utility.yul\":3591:3620   */\n      tag_237\n      jump\t// in\n    tag_236:\n        /* \"#utility.yul\":3586:3589   */\n      dup5\n        /* \"#utility.yul\":3582:3621   */\n      add\n        /* \"#utility.yul\":3575:3621   */\n      swap2\n      pop\n        /* \"#utility.yul\":3355:3627   */\n      pop\n        /* \"#utility.yul\":3263:3627   */\n      swap3\n      swap2\n      pop\n      pop\n      jump\t// out\n        /* \"#utility.yul\":3633:3999   */\n    tag_238:\n        /* \"#utility.yul\":3775:3778   */\n      0x00\n        /* \"#utility.yul\":3796:3863   */\n      tag_240\n        /* \"#utility.yul\":3860:3862   */\n      0x1c\n        /* \"#utility.yul\":3855:3858   */\n      dup4\n        /* \"#utility.yul\":3796:3863   */\n      tag_233\n      jump\t// in\n    tag_240:\n        /* \"#utility.yul\":3789:3863   */\n      swap2\n      pop\n        /* \"#utility.yul\":3872:3965   */\n      tag_241\n        /* \"#utility.yul\":3961:3964   */\n      dup3\n        /* \"#utility.yul\":3872:3965   */\n      tag_242\n      jump\t// in\n    tag_241:\n        /* \"#utility.yul\":3990:3992   */\n      0x20\n        /* \"#utility.yul\":3985:3988   */\n      dup3\n        /* \"#utility.yul\":3981:3993   */\n      add\n        /* \"#utility.yul\":3974:3993   */\n      swap1\n      pop\n        /* \"#utility.yul\":3633:3999   */\n      swap2\n      swap1\n      pop\n      jump\t// out\n        /* \"#utility.yul\":4005:4371   */\n    tag_243:\n        /* \"#utility.yul\":4147:4150   */\n      0x00\n        /* \"#utility.yul\":4168:4235   */\n      tag_245\n        /* \"#utility.yul\":4232:4234   */\n      0x19\n        /* \"#utility.yul\":4227:4230   */\n      dup4\n        /* \"#utility.yul\":4168:4235   */\n      tag_233\n      jump\t// in\n    tag_245:\n        /* \"#utility.yul\":4161:4235   */\n      swap2\n      pop\n        /* \"#utility.yul\":4244:4337   */\n      tag_246\n        /* \"#utility.yul\":4333:4336   */\n      dup3\n        /* \"#utility.yul\":4244:4337   */\n      tag_247\n      jump\t// in\n    tag_246:\n        /* \"#utility.yul\":4362:4364   */\n      0x20\n        /* \"#utility.yul\":4357:4360   */\n      dup3\n        /* \"#utility.yul\":4353:4365   */\n      add\n        /* \"#utility.yul\":4346:4365   */\n      swap1\n      pop\n        /* \"#utility.yul\":4005:4371   */\n      swap2\n      swap1\n      pop\n      jump\t// out\n        /* \"#utility.yul\":4377:4743   */\n    tag_248:\n        /* \"#utility.yul\":4519:4522   */\n      0x00\n        /* \"#utility.yul\":4540:4607   */\n      tag_250\n        /* \"#utility.yul\":4604:4606   */\n      0x1e\n        /* \"#utility.yul\":4599:4602   */\n      dup4\n        /* \"#utility.yul\":4540:4607   */\n      tag_233\n      jump\t// in\n    tag_250:\n        /* \"#utility.yul\":4533:4607   */\n      swap2\n      pop\n        /* \"#utility.yul\":4616:4709   */\n      tag_251\n        /* \"#utility.yul\":4705:4708   */\n      dup3\n        /* \"#utility.yul\":4616:4709   */\n      tag_252\n      jump\t// in\n    tag_251:\n        /* \"#utility.yul\":4734:4736   */\n      0x20\n        /* \"#utility.yul\":4729:4732   */\n      dup3\n        /* \"#utility.yul\":4725:4737   */\n      add\n        /* \"#utility.yul\":4718:4737   */\n      swap1\n      pop\n        /* \"#utility.yul\":4377:4743   */\n      swap2\n      swap1\n      pop\n      jump\t// out\n        /* \"#utility.yul\":4749:5115   */\n    tag_253:\n        /* \"#utility.yul\":4891:4894   */\n      0x00\n        /* \"#utility.yul\":4912:4979   */\n      tag_255\n        /* \"#utility.yul\":4976:4978   */\n      0x0f\n        /* \"#utility.yul\":4971:4974   */\n      dup4\n        /* \"#utility.yul\":4912:4979   */\n      tag_233\n      jump\t// in\n    tag_255:\n        /* \"#utility.yul\":4905:4979   */\n      swap2\n      pop\n        /* \"#utility.yul\":4988:5081   */\n      tag_256\n        /* \"#utility.yul\":5077:5080   */\n      dup3\n        /* \"#utility.yul\":4988:5081   */\n      tag_257\n      jump\t// in\n    tag_256:\n        /* \"#utility.yul\":5106:5108   */\n      0x20\n        /* \"#utility.yul\":5101:5104   */\n      dup3\n        /* \"#utility.yul\":5097:5109   */\n      add\n        /* \"#utility.yul\":5090:5109   */\n      swap1\n      pop\n        /* \"#utility.yul\":4749:5115   */\n      swap2\n      swap1\n      pop\n      jump\t// out\n        /* \"#utility.yul\":5121:5487   */\n    tag_258:\n        /* \"#utility.yul\":5263:5266   */\n      0x00\n        /* \"#utility.yul\":5284:5351   */\n      tag_260\n        /* \"#utility.yul\":5348:5350   */\n      0x1b\n        /* \"#utility.yul\":5343:5346   */\n      dup4\n        /* \"#utility.yul\":5284:5351   */\n      tag_233\n      jump\t// in\n    tag_260:\n        /* \"#utility.yul\":5277:5351   */\n      swap2\n      pop\n        /* \"#utility.yul\":5360:5453   */\n      tag_261\n        /* \"#utility.yul\":5449:5452   */\n      dup3\n        /* \"#utility.yul\":5360:5453   */\n      tag_262\n      jump\t// in\n    tag_261:\n        /* \"#utility.yul\":5478:5480   */\n      0x20\n        /* \"#utility.yul\":5473:5476   */\n      dup3\n        /* \"#utility.yul\":5469:5481   */\n      add\n        /* \"#utility.yul\":5462:5481   */\n      swap1\n      pop\n        /* \"#utility.yul\":5121:5487   */\n      swap2\n      swap1\n      pop\n      jump\t// out\n        /* \"#utility.yul\":5493:5611   */\n    tag_263:\n        /* \"#utility.yul\":5580:5604   */\n      tag_265\n        /* \"#utility.yul\":5598:5603   */\n      dup2\n        /* \"#utility.yul\":5580:5604   */\n      tag_266\n      jump\t// in\n    tag_265:\n        /* \"#utility.yul\":5575:5578   */\n      dup3\n        /* \"#utility.yul\":5568:5605   */\n      mstore\n        /* \"#utility.yul\":5493:5611   */\n      pop\n      pop\n      jump\t// out\n        /* \"#utility.yul\":5617:5839   */\n    tag_92:\n        /* \"#utility.yul\":5710:5714   */\n      0x00\n        /* \"#utility.yul\":5748:5750   */\n      0x20\n        /* \"#utility.yul\":5737:5746   */\n      dup3\n        /* \"#utility.yul\":5733:5751   */\n      add\n        /* \"#utility.yul\":5725:5751   */\n      swap1\n      pop\n        /* \"#utility.yul\":5761:5832   */\n      tag_268\n        /* \"#utility.yul\":5829:5830   */\n      0x00\n        /* \"#utility.yul\":5818:5827   */\n      dup4\n        /* \"#utility.yul\":5814:5831   */\n      add\n        /* \"#utility.yul\":5805:5811   */\n      dup5\n        /* \"#utility.yul\":5761:5832   */\n      tag_216\n      jump\t// in\n    tag_268:\n        /* \"#utility.yul\":5617:5839   */\n      swap3\n      swap2\n      pop\n      pop\n      jump\t// out\n        /* \"#utility.yul\":5845:6079   */\n    tag_80:\n        /* \"#utility.yul\":5944:5948   */\n      0x00\n        /* \"#utility.yul\":5982:5984   */\n      0x20\n        /* \"#utility.yul\":5971:5980   */\n      dup3\n        /* \"#utility.yul\":5967:5985   */\n      add\n        /* \"#utility.yul\":5959:5985   */\n      swap1\n      pop\n        /* \"#utility.yul\":5995:6072   */\n      tag_270\n        /* \"#utility.yul\":6069:6070   */\n      0x00\n        /* \"#utility.yul\":6058:6067   */\n      dup4\n        /* \"#utility.yul\":6054:6071   */\n      add\n        /* \"#utility.yul\":6045:6051   */\n      dup5\n        /* \"#utility.yul\":5995:6072   */\n      tag_224\n      jump\t// in\n    tag_270:\n        /* \"#utility.yul\":5845:6079   */\n      swap3\n      swap2\n      pop\n      pop\n      jump\t// out\n        /* \"#utility.yul\":6085:6860   */\n    tag_64:\n        /* \"#utility.yul\":6320:6324   */\n      0x00\n        /* \"#utility.yul\":6358:6361   */\n      0xa0\n        /* \"#utility.yul\":6347:6356   */\n      dup3\n        /* \"#utility.yul\":6343:6362   */\n      add\n        /* \"#utility.yul\":6335:6362   */\n      swap1\n      pop\n        /* \"#utility.yul\":6408:6417   */\n      dup2\n        /* \"#utility.yul\":6402:6406   */\n      dup2\n        /* \"#utility.yul\":6398:6418   */\n      sub\n        /* \"#utility.yul\":6394:6395   */\n      0x00\n        /* \"#utility.yul\":6383:6392   */\n      dup4\n        /* \"#utility.yul\":6379:6396   */\n      add\n        /* \"#utility.yul\":6372:6419   */\n      mstore\n        /* \"#utility.yul\":6436:6514   */\n      tag_272\n        /* \"#utility.yul\":6509:6513   */\n      dup2\n        /* \"#utility.yul\":6500:6506   */\n      dup9\n        /* \"#utility.yul\":6436:6514   */\n      tag_228\n      jump\t// in\n    tag_272:\n        /* \"#utility.yul\":6428:6514   */\n      swap1\n      pop\n        /* \"#utility.yul\":6524:6612   */\n      tag_273\n        /* \"#utility.yul\":6608:6610   */\n      0x20\n        /* \"#utility.yul\":6597:6606   */\n      dup4\n        /* \"#utility.yul\":6593:6611   */\n      add\n        /* \"#utility.yul\":6584:6590   */\n      dup8\n        /* \"#utility.yul\":6524:6612   */\n      tag_212\n      jump\t// in\n    tag_273:\n        /* \"#utility.yul\":6622:6694   */\n      tag_274\n        /* \"#utility.yul\":6690:6692   */\n      0x40\n        /* \"#utility.yul\":6679:6688   */\n      dup4\n        /* \"#utility.yul\":6675:6693   */\n      add\n        /* \"#utility.yul\":6666:6672   */\n      dup7\n        /* \"#utility.yul\":6622:6694   */\n      tag_263\n      jump\t// in\n    tag_274:\n        /* \"#utility.yul\":6704:6770   */\n      tag_275\n        /* \"#utility.yul\":6766:6768   */\n      0x60\n        /* \"#utility.yul\":6755:6764   */\n      dup4\n        /* \"#utility.yul\":6751:6769   */\n      add\n        /* \"#utility.yul\":6742:6748   */\n      dup6\n        /* \"#utility.yul\":6704:6770   */\n      tag_220\n      jump\t// in\n    tag_275:\n        /* \"#utility.yul\":6780:6853   */\n      tag_276\n        /* \"#utility.yul\":6848:6851   */\n      0x80\n        /* \"#utility.yul\":6837:6846   */\n      dup4\n        /* \"#utility.yul\":6833:6852   */\n      add\n        /* \"#utility.yul\":6824:6830   */\n      dup5\n        /* \"#utility.yul\":6780:6853   */\n      tag_263\n      jump\t// in\n    tag_276:\n        /* \"#utility.yul\":6085:6860   */\n      swap7\n      swap6\n      pop\n      pop\n      pop\n      pop\n      pop\n      pop\n      jump\t// out\n        /* \"#utility.yul\":6866:7285   */\n    tag_108:\n        /* \"#utility.yul\":7032:7036   */\n      0x00\n        /* \"#utility.yul\":7070:7072   */\n      0x20\n        /* \"#utility.yul\":7059:7068   */\n      dup3\n        /* \"#utility.yul\":7055:7073   */\n      add\n        /* \"#utility.yul\":7047:7073   */\n      swap1\n      pop\n        /* \"#utility.yul\":7119:7128   */\n      dup2\n        /* \"#utility.yul\":7113:7117   */\n      dup2\n        /* \"#utility.yul\":7109:7129   */\n      sub\n        /* \"#utility.yul\":7105:7106   */\n      0x00\n        /* \"#utility.yul\":7094:7103   */\n      dup4\n        /* \"#utility.yul\":7090:7107   */\n      add\n        /* \"#utility.yul\":7083:7130   */\n      mstore\n        /* \"#utility.yul\":7147:7278   */\n      tag_278\n        /* \"#utility.yul\":7273:7277   */\n      dup2\n        /* \"#utility.yul\":7147:7278   */\n      tag_238\n      jump\t// in\n    tag_278:\n        /* \"#utility.yul\":7139:7278   */\n      swap1\n      pop\n        /* \"#utility.yul\":6866:7285   */\n      swap2\n      swap1\n      pop\n      jump\t// out\n        /* \"#utility.yul\":7291:7710   */\n    tag_127:\n        /* \"#utility.yul\":7457:7461   */\n      0x00\n        /* \"#utility.yul\":7495:7497   */\n      0x20\n        /* \"#utility.yul\":7484:7493   */\n      dup3\n        /* \"#utility.yul\":7480:7498   */\n      add\n        /* \"#utility.yul\":7472:7498   */\n      swap1\n      pop\n        /* \"#utility.yul\":7544:7553   */\n      dup2\n        /* \"#utility.yul\":7538:7542   */\n      dup2\n        /* \"#utility.yul\":7534:7554   */\n      sub\n        /* \"#utility.yul\":7530:7531   */\n      0x00\n        /* \"#utility.yul\":7519:7528   */\n      dup4\n        /* \"#utility.yul\":7515:7532   */\n      add\n        /* \"#utility.yul\":7508:7555   */\n      mstore\n        /* \"#utility.yul\":7572:7703   */\n      tag_280\n        /* \"#utility.yul\":7698:7702   */\n      dup2\n        /* \"#utility.yul\":7572:7703   */\n      tag_243\n      jump\t// in\n    tag_280:\n        /* \"#utility.yul\":7564:7703   */\n      swap1\n      pop\n        /* \"#utility.yul\":7291:7710   */\n      swap2\n      swap1\n      pop\n      jump\t// out\n        /* \"#utility.yul\":7716:8135   */\n    tag_119:\n        /* \"#utility.yul\":7882:7886   */\n      0x00\n        /* \"#utility.yul\":7920:7922   */\n      0x20\n        /* \"#utility.yul\":7909:7918   */\n      dup3\n        /* \"#utility.yul\":7905:7923   */\n      add\n        /* \"#utility.yul\":7897:7923   */\n      swap1\n      pop\n        /* \"#utility.yul\":7969:7978   */\n      dup2\n        /* \"#utility.yul\":7963:7967   */\n      dup2\n        /* \"#utility.yul\":7959:7979   */\n      sub\n        /* \"#utility.yul\":7955:7956   */\n      0x00\n        /* \"#utility.yul\":7944:7953   */\n      dup4\n        /* \"#utility.yul\":7940:7957   */\n      add\n        /* \"#utility.yul\":7933:7980   */\n      mstore\n        /* \"#utility.yul\":7997:8128   */\n      tag_282\n        /* \"#utility.yul\":8123:8127   */\n      dup2\n        /* \"#utility.yul\":7997:8128   */\n      tag_248\n      jump\t// in\n    tag_282:\n        /* \"#utility.yul\":7989:8128   */\n      swap1\n      pop\n        /* \"#utility.yul\":7716:8135   */\n      swap2\n      swap1\n      pop\n      jump\t// out\n        /* \"#utility.yul\":8141:8560   */\n    tag_104:\n        /* \"#utility.yul\":8307:8311   */\n      0x00\n        /* \"#utility.yul\":8345:8347   */\n      0x20\n        /* \"#utility.yul\":8334:8343   */\n      dup3\n        /* \"#utility.yul\":8330:8348   */\n      add\n        /* \"#utility.yul\":8322:8348   */\n      swap1\n      pop\n        /* \"#utility.yul\":8394:8403   */\n      dup2\n        /* \"#utility.yul\":8388:8392   */\n      dup2\n        /* \"#utility.yul\":8384:8404   */\n      sub\n        /* \"#utility.yul\":8380:8381   */\n      0x00\n        /* \"#utility.yul\":8369:8378   */\n      dup4\n        /* \"#utility.yul\":8365:8382   */\n      add\n        /* \"#utility.yul\":8358:8405   */\n      mstore\n        /* \"#utility.yul\":8422:8553   */\n      tag_284\n        /* \"#utility.yul\":8548:8552   */\n      dup2\n        /* \"#utility.yul\":8422:8553   */\n      tag_253\n      jump\t// in\n    tag_284:\n        /* \"#utility.yul\":8414:8553   */\n      swap1\n      pop\n        /* \"#utility.yul\":8141:8560   */\n      swap2\n      swap1\n      pop\n      jump\t// out\n        /* \"#utility.yul\":8566:8985   */\n    tag_101:\n        /* \"#utility.yul\":8732:8736   */\n      0x00\n        /* \"#utility.yul\":8770:8772   */\n      0x20\n        /* \"#utility.yul\":8759:8768   */\n      dup3\n        /* \"#utility.yul\":8755:8773   */\n      add\n        /* \"#utility.yul\":8747:8773   */\n      swap1\n      pop\n        /* \"#utility.yul\":8819:8828   */\n      dup2\n        /* \"#utility.yul\":8813:8817   */\n      dup2\n        /* \"#utility.yul\":8809:8829   */\n      sub\n        /* \"#utility.yul\":8805:8806   */\n      0x00\n        /* \"#utility.yul\":8794:8803   */\n      dup4\n        /* \"#utility.yul\":8790:8807   */\n      add\n        /* \"#utility.yul\":8783:8830   */\n      mstore\n        /* \"#utility.yul\":8847:8978   */\n      tag_286\n        /* \"#utility.yul\":8973:8977   */\n      dup2\n        /* \"#utility.yul\":8847:8978   */\n      tag_258\n      jump\t// in\n    tag_286:\n        /* \"#utility.yul\":8839:8978   */\n      swap1\n      pop\n        /* \"#utility.yul\":8566:8985   */\n      swap2\n      swap1\n      pop\n      jump\t// out\n        /* \"#utility.yul\":8991:9213   */\n    tag_30:\n        /* \"#utility.yul\":9084:9088   */\n      0x00\n        /* \"#utility.yul\":9122:9124   */\n      0x20\n        /* \"#utility.yul\":9111:9120   */\n      dup3\n        /* \"#utility.yul\":9107:9125   */\n      add\n        /* \"#utility.yul\":9099:9125   */\n      swap1\n      pop\n        /* \"#utility.yul\":9135:9206   */\n      tag_288\n        /* \"#utility.yul\":9203:9204   */\n      0x00\n        /* \"#utility.yul\":9192:9201   */\n      dup4\n        /* \"#utility.yul\":9188:9205   */\n      add\n        /* \"#utility.yul\":9179:9185   */\n      dup5\n        /* \"#utility.yul\":9135:9206   */\n      tag_263\n      jump\t// in\n    tag_288:\n        /* \"#utility.yul\":8991:9213   */\n      swap3\n      swap2\n      pop\n      pop\n      jump\t// out\n        /* \"#utility.yul\":9219:9348   */\n    tag_170:\n        /* \"#utility.yul\":9253:9259   */\n      0x00\n        /* \"#utility.yul\":9280:9300   */\n      tag_290\n      tag_291\n      jump\t// in\n    tag_290:\n        /* \"#utility.yul\":9270:9300   */\n      swap1\n      pop\n        /* \"#utility.yul\":9309:9342   */\n      tag_292\n        /* \"#utility.yul\":9337:9341   */\n      dup3\n        /* \"#utility.yul\":9329:9335   */\n      dup3\n        /* \"#utility.yul\":9309:9342   */\n      tag_293\n      jump\t// in\n    tag_292:\n        /* \"#utility.yul\":9219:9348   */\n      swap2\n      swap1\n      pop\n      jump\t// out\n        /* \"#utility.yul\":9354:9429   */\n    tag_291:\n        /* \"#utility.yul\":9387:9393   */\n      0x00\n        /* \"#utility.yul\":9420:9422   */\n      0x40\n        /* \"#utility.yul\":9414:9423   */\n      mload\n        /* \"#utility.yul\":9404:9423   */\n      swap1\n      pop\n        /* \"#utility.yul\":9354:9429   */\n      swap1\n      jump\t// out\n        /* \"#utility.yul\":9435:9743   */\n    tag_169:\n        /* \"#utility.yul\":9497:9501   */\n      0x00\n        /* \"#utility.yul\":9587:9605   */\n      0xffffffffffffffff\n        /* \"#utility.yul\":9579:9585   */\n      dup3\n        /* \"#utility.yul\":9576:9606   */\n      gt\n        /* \"#utility.yul\":9573:9629   */\n      iszero\n      tag_296\n      jumpi\n        /* \"#utility.yul\":9609:9627   */\n      tag_297\n      tag_298\n      jump\t// in\n    tag_297:\n        /* \"#utility.yul\":9573:9629   */\n    tag_296:\n        /* \"#utility.yul\":9647:9676   */\n      tag_299\n        /* \"#utility.yul\":9669:9675   */\n      dup3\n        /* \"#utility.yul\":9647:9676   */\n      tag_237\n      jump\t// in\n    tag_299:\n        /* \"#utility.yul\":9639:9676   */\n      swap1\n      pop\n        /* \"#utility.yul\":9731:9735   */\n      0x20\n        /* \"#utility.yul\":9725:9729   */\n      dup2\n        /* \"#utility.yul\":9721:9736   */\n      add\n        /* \"#utility.yul\":9713:9736   */\n      swap1\n      pop\n        /* \"#utility.yul\":9435:9743   */\n      swap2\n      swap1\n      pop\n      jump\t// out\n        /* \"#utility.yul\":9749:9848   */\n    tag_231:\n        /* \"#utility.yul\":9801:9807   */\n      0x00\n        /* \"#utility.yul\":9835:9840   */\n      dup2\n        /* \"#utility.yul\":9829:9841   */\n      mload\n        /* \"#utility.yul\":9819:9841   */\n      swap1\n      pop\n        /* \"#utility.yul\":9749:9848   */\n      swap2\n      swap1\n      pop\n      jump\t// out\n        /* \"#utility.yul\":9854:10023   */\n    tag_233:\n        /* \"#utility.yul\":9938:9949   */\n      0x00\n        /* \"#utility.yul\":9972:9978   */\n      dup3\n        /* \"#utility.yul\":9967:9970   */\n      dup3\n        /* \"#utility.yul\":9960:9979   */\n      mstore\n        /* \"#utility.yul\":10012:10016   */\n      0x20\n        /* \"#utility.yul\":10007:10010   */\n      dup3\n        /* \"#utility.yul\":10003:10017   */\n      add\n        /* \"#utility.yul\":9988:10017   */\n      swap1\n      pop\n        /* \"#utility.yul\":9854:10023   */\n      swap3\n      swap2\n      pop\n      pop\n      jump\t// out\n        /* \"#utility.yul\":10029:10334   */\n    tag_113:\n        /* \"#utility.yul\":10069:10072   */\n      0x00\n        /* \"#utility.yul\":10088:10108   */\n      tag_303\n        /* \"#utility.yul\":10106:10107   */\n      dup3\n        /* \"#utility.yul\":10088:10108   */\n      tag_266\n      jump\t// in\n    tag_303:\n        /* \"#utility.yul\":10083:10108   */\n      swap2\n      pop\n        /* \"#utility.yul\":10122:10142   */\n      tag_304\n        /* \"#utility.yul\":10140:10141   */\n      dup4\n        /* \"#utility.yul\":10122:10142   */\n      tag_266\n      jump\t// in\n    tag_304:\n        /* \"#utility.yul\":10117:10142   */\n      swap3\n      pop\n        /* \"#utility.yul\":10276:10277   */\n      dup3\n        /* \"#utility.yul\":10208:10274   */\n      0xffffffffffffffffffffffffffffffffffffffffffffffffffffffffffffffff\n        /* \"#utility.yul\":10204:10278   */\n      sub\n        /* \"#utility.yul\":10201:10202   */\n      dup3\n        /* \"#utility.yul\":10198:10279   */\n      gt\n        /* \"#utility.yul\":10195:10302   */\n      iszero\n      tag_305\n      jumpi\n        /* \"#utility.yul\":10282:10300   */\n      tag_306\n      tag_307\n      jump\t// in\n    tag_306:\n        /* \"#utility.yul\":10195:10302   */\n    tag_305:\n        /* \"#utility.yul\":10326:10327   */\n      dup3\n        /* \"#utility.yul\":10323:10324   */\n      dup3\n        /* \"#utility.yul\":10319:10328   */\n      add\n        /* \"#utility.yul\":10312:10328   */\n      swap1\n      pop\n        /* \"#utility.yul\":10029:10334   */\n      swap3\n      swap2\n      pop\n      pop\n      jump\t// out\n        /* \"#utility.yul\":10340:10436   */\n    tag_219:\n        /* \"#utility.yul\":10377:10384   */\n      0x00\n        /* \"#utility.yul\":10406:10430   */\n      tag_309\n        /* \"#utility.yul\":10424:10429   */\n      dup3\n        /* \"#utility.yul\":10406:10430   */\n      tag_310\n      jump\t// in\n    tag_309:\n        /* \"#utility.yul\":10395:10430   */\n      swap1\n      pop\n        /* \"#utility.yul\":10340:10436   */\n      swap2\n      swap1\n      pop\n      jump\t// out\n        /* \"#utility.yul\":10442:10546   */\n    tag_215:\n        /* \"#utility.yul\":10487:10494   */\n      0x00\n        /* \"#utility.yul\":10516:10540   */\n      tag_312\n        /* \"#utility.yul\":10534:10539   */\n      dup3\n        /* \"#utility.yul\":10516:10540   */\n      tag_310\n      jump\t// in\n    tag_312:\n        /* \"#utility.yul\":10505:10540   */\n      swap1\n      pop\n        /* \"#utility.yul\":10442:10546   */\n      swap2\n      swap1\n      pop\n      jump\t// out\n        /* \"#utility.yul\":10552:10642   */\n    tag_223:\n        /* \"#utility.yul\":10586:10593   */\n      0x00\n        /* \"#utility.yul\":10629:10634   */\n      dup2\n        /* \"#utility.yul\":10622:10635   */\n      iszero\n        /* \"#utility.yul\":10615:10636   */\n      iszero\n        /* \"#utility.yul\":10604:10636   */\n      swap1\n      pop\n        /* \"#utility.yul\":10552:10642   */\n      swap2\n      swap1\n      pop\n      jump\t// out\n        /* \"#utility.yul\":10648:10775   */\n    tag_314:\n        /* \"#utility.yul\":10693:10700   */\n      0x00\n        /* \"#utility.yul\":10722:10727   */\n      dup2\n        /* \"#utility.yul\":10711:10727   */\n      swap1\n      pop\n        /* \"#utility.yul\":10728:10769   */\n      tag_316\n        /* \"#utility.yul\":10763:10768   */\n      dup3\n        /* \"#utility.yul\":10728:10769   */\n      tag_317\n      jump\t// in\n    tag_316:\n        /* \"#utility.yul\":10648:10775   */\n      swap2\n      swap1\n      pop\n      jump\t// out\n        /* \"#utility.yul\":10781:10907   */\n    tag_310:\n        /* \"#utility.yul\":10818:10825   */\n      0x00\n        /* \"#utility.yul\":10858:10900   */\n      0xffffffffffffffffffffffffffffffffffffffff\n        /* \"#utility.yul\":10851:10856   */\n      dup3\n        /* \"#utility.yul\":10847:10901   */\n      and\n        /* \"#utility.yul\":10836:10901   */\n      swap1\n      pop\n        /* \"#utility.yul\":10781:10907   */\n      swap2\n      swap1\n      pop\n      jump\t// out\n        /* \"#utility.yul\":10913:10990   */\n    tag_266:\n        /* \"#utility.yul\":10950:10957   */\n      0x00\n        /* \"#utility.yul\":10979:10984   */\n      dup2\n        /* \"#utility.yul\":10968:10984   */\n      swap1\n      pop\n        /* \"#utility.yul\":10913:10990   */\n      swap2\n      swap1\n      pop\n      jump\t// out\n        /* \"#utility.yul\":10996:11123   */\n    tag_227:\n        /* \"#utility.yul\":11052:11061   */\n      0x00\n        /* \"#utility.yul\":11085:11117   */\n      tag_321\n        /* \"#utility.yul\":11111:11116   */\n      dup3\n        /* \"#utility.yul\":11085:11117   */\n      tag_314\n      jump\t// in\n    tag_321:\n        /* \"#utility.yul\":11072:11117   */\n      swap1\n      pop\n        /* \"#utility.yul\":10996:11123   */\n      swap2\n      swap1\n      pop\n      jump\t// out\n        /* \"#utility.yul\":11129:11283   */\n    tag_175:\n        /* \"#utility.yul\":11213:11219   */\n      dup3\n        /* \"#utility.yul\":11208:11211   */\n      dup2\n        /* \"#utility.yul\":11203:11206   */\n      dup4\n        /* \"#utility.yul\":11190:11220   */\n      calldatacopy\n        /* \"#utility.yul\":11275:11276   */\n      0x00\n        /* \"#utility.yul\":11266:11272   */\n      dup4\n        /* \"#utility.yul\":11261:11264   */\n      dup4\n        /* \"#utility.yul\":11257:11273   */\n      add\n        /* \"#utility.yul\":11250:11277   */\n      mstore\n        /* \"#utility.yul\":11129:11283   */\n      pop\n      pop\n      pop\n      jump\t// out\n        /* \"#utility.yul\":11289:11596   */\n    tag_235:\n        /* \"#utility.yul\":11357:11358   */\n      0x00\n        /* \"#utility.yul\":11367:11480   */\n    tag_324:\n        /* \"#utility.yul\":11381:11387   */\n      dup4\n        /* \"#utility.yul\":11378:11379   */\n      dup2\n        /* \"#utility.yul\":11375:11388   */\n      lt\n        /* \"#utility.yul\":11367:11480   */\n      iszero\n      tag_326\n      jumpi\n        /* \"#utility.yul\":11466:11467   */\n      dup1\n        /* \"#utility.yul\":11461:11464   */\n      dup3\n        /* \"#utility.yul\":11457:11468   */\n      add\n        /* \"#utility.yul\":11451:11469   */\n      mload\n        /* \"#utility.yul\":11447:11448   */\n      dup2\n        /* \"#utility.yul\":11442:11445   */\n      dup5\n        /* \"#utility.yul\":11438:11449   */\n      add\n        /* \"#utility.yul\":11431:11470   */\n      mstore\n        /* \"#utility.yul\":11403:11405   */\n      0x20\n        /* \"#utility.yul\":11400:11401   */\n      dup2\n        /* \"#utility.yul\":11396:11406   */\n      add\n        /* \"#utility.yul\":11391:11406   */\n      swap1\n      pop\n        /* \"#utility.yul\":11367:11480   */\n      jump(tag_324)\n    tag_326:\n        /* \"#utility.yul\":11498:11504   */\n      dup4\n        /* \"#utility.yul\":11495:11496   */\n      dup2\n        /* \"#utility.yul\":11492:11505   */\n      gt\n        /* \"#utility.yul\":11489:11590   */\n      iszero\n      tag_327\n      jumpi\n        /* \"#utility.yul\":11578:11579   */\n      0x00\n        /* \"#utility.yul\":11569:11575   */\n      dup5\n        /* \"#utility.yul\":11564:11567   */\n      dup5\n        /* \"#utility.yul\":11560:11576   */\n      add\n        /* \"#utility.yul\":11553:11580   */\n      mstore\n        /* \"#utility.yul\":11489:11590   */\n    tag_327:\n        /* \"#utility.yul\":11338:11596   */\n      pop\n        /* \"#utility.yul\":11289:11596   */\n      pop\n      pop\n      pop\n      jump\t// out\n        /* \"#utility.yul\":11602:11922   */\n    tag_130:\n        /* \"#utility.yul\":11646:11652   */\n      0x00\n        /* \"#utility.yul\":11683:11684   */\n      0x02\n        /* \"#utility.yul\":11677:11681   */\n      dup3\n        /* \"#utility.yul\":11673:11685   */\n      div\n        /* \"#utility.yul\":11663:11685   */\n      swap1\n      pop\n        /* \"#utility.yul\":11730:11731   */\n      0x01\n        /* \"#utility.yul\":11724:11728   */\n      dup3\n        /* \"#utility.yul\":11720:11732   */\n      and\n        /* \"#utility.yul\":11751:11769   */\n      dup1\n        /* \"#utility.yul\":11741:11822   */\n      tag_329\n      jumpi\n        /* \"#utility.yul\":11807:11811   */\n      0x7f\n        /* \"#utility.yul\":11799:11805   */\n      dup3\n        /* \"#utility.yul\":11795:11812   */\n      and\n        /* \"#utility.yul\":11785:11812   */\n      swap2\n      pop\n        /* \"#utility.yul\":11741:11822   */\n    tag_329:\n        /* \"#utility.yul\":11869:11871   */\n      0x20\n        /* \"#utility.yul\":11861:11867   */\n      dup3\n        /* \"#utility.yul\":11858:11872   */\n      lt\n        /* \"#utility.yul\":11838:11856   */\n      dup2\n        /* \"#utility.yul\":11835:11873   */\n      eq\n        /* \"#utility.yul\":11832:11916   */\n      iszero\n      tag_330\n      jumpi\n        /* \"#utility.yul\":11888:11906   */\n      tag_331\n      tag_332\n      jump\t// in\n    tag_331:\n        /* \"#utility.yul\":11832:11916   */\n    tag_330:\n        /* \"#utility.yul\":11653:11922   */\n      pop\n        /* \"#utility.yul\":11602:11922   */\n      swap2\n      swap1\n      pop\n      jump\t// out\n        /* \"#utility.yul\":11928:12209   */\n    tag_293:\n        /* \"#utility.yul\":12011:12038   */\n      tag_334\n        /* \"#utility.yul\":12033:12037   */\n      dup3\n        /* \"#utility.yul\":12011:12038   */\n      tag_237\n      jump\t// in\n    tag_334:\n        /* \"#utility.yul\":12003:12009   */\n      dup2\n        /* \"#utility.yul\":11999:12039   */\n      add\n        /* \"#utility.yul\":12141:12147   */\n      dup2\n        /* \"#utility.yul\":12129:12139   */\n      dup2\n        /* \"#utility.yul\":12126:12148   */\n      lt\n        /* \"#utility.yul\":12105:12123   */\n      0xffffffffffffffff\n        /* \"#utility.yul\":12093:12103   */\n      dup3\n        /* \"#utility.yul\":12090:12124   */\n      gt\n        /* \"#utility.yul\":12087:12149   */\n      or\n        /* \"#utility.yul\":12084:12172   */\n      iszero\n      tag_335\n      jumpi\n        /* \"#utility.yul\":12152:12170   */\n      tag_336\n      tag_298\n      jump\t// in\n    tag_336:\n        /* \"#utility.yul\":12084:12172   */\n    tag_335:\n        /* \"#utility.yul\":12192:12202   */\n      dup1\n        /* \"#utility.yul\":12188:12190   */\n      0x40\n        /* \"#utility.yul\":12181:12203   */\n      mstore\n        /* \"#utility.yul\":11971:12209   */\n      pop\n        /* \"#utility.yul\":11928:12209   */\n      pop\n      pop\n      jump\t// out\n        /* \"#utility.yul\":12215:12448   */\n    tag_111:\n        /* \"#utility.yul\":12254:12257   */\n      0x00\n        /* \"#utility.yul\":12277:12301   */\n      tag_338\n        /* \"#utility.yul\":12295:12300   */\n      dup3\n        /* \"#utility.yul\":12277:12301   */\n      tag_266\n      jump\t// in\n    tag_338:\n        /* \"#utility.yul\":12268:12301   */\n      swap2\n      pop\n        /* \"#utility.yul\":12323:12389   */\n      0xffffffffffffffffffffffffffffffffffffffffffffffffffffffffffffffff\n        /* \"#utility.yul\":12316:12321   */\n      dup3\n        /* \"#utility.yul\":12313:12390   */\n      eq\n        /* \"#utility.yul\":12310:12413   */\n      iszero\n      tag_339\n      jumpi\n        /* \"#utility.yul\":12393:12411   */\n      tag_340\n      tag_307\n      jump\t// in\n    tag_340:\n        /* \"#utility.yul\":12310:12413   */\n    tag_339:\n        /* \"#utility.yul\":12440:12441   */\n      0x01\n        /* \"#utility.yul\":12433:12438   */\n      dup3\n        /* \"#utility.yul\":12429:12442   */\n      add\n        /* \"#utility.yul\":12422:12442   */\n      swap1\n      pop\n        /* \"#utility.yul\":12215:12448   */\n      swap2\n      swap1\n      pop\n      jump\t// out\n        /* \"#utility.yul\":12454:12634   */\n    tag_307:\n        /* \"#utility.yul\":12502:12579   */\n      0x4e487b7100000000000000000000000000000000000000000000000000000000\n        /* \"#utility.yul\":12499:12500   */\n      0x00\n        /* \"#utility.yul\":12492:12580   */\n      mstore\n        /* \"#utility.yul\":12599:12603   */\n      0x11\n        /* \"#utility.yul\":12596:12597   */\n      0x04\n        /* \"#utility.yul\":12589:12604   */\n      mstore\n        /* \"#utility.yul\":12623:12627   */\n      0x24\n        /* \"#utility.yul\":12620:12621   */\n      0x00\n        /* \"#utility.yul\":12613:12628   */\n      revert\n        /* \"#utility.yul\":12640:12820   */\n    tag_96:\n        /* \"#utility.yul\":12688:12765   */\n      0x4e487b7100000000000000000000000000000000000000000000000000000000\n        /* \"#utility.yul\":12685:12686   */\n      0x00\n        /* \"#utility.yul\":12678:12766   */\n      mstore\n        /* \"#utility.yul\":12785:12789   */\n      0x21\n        /* \"#utility.yul\":12782:12783   */\n      0x04\n        /* \"#utility.yul\":12775:12790   */\n      mstore\n        /* \"#utility.yul\":12809:12813   */\n      0x24\n        /* \"#utility.yul\":12806:12807   */\n      0x00\n        /* \"#utility.yul\":12799:12814   */\n      revert\n        /* \"#utility.yul\":12826:13006   */\n    tag_332:\n        /* \"#utility.yul\":12874:12951   */\n      0x4e487b7100000000000000000000000000000000000000000000000000000000\n        /* \"#utility.yul\":12871:12872   */\n      0x00\n        /* \"#utility.yul\":12864:12952   */\n      mstore\n        /* \"#utility.yul\":12971:12975   */\n      0x22\n        /* \"#utility.yul\":12968:12969   */\n      0x04\n        /* \"#utility.yul\":12961:12976   */\n      mstore\n        /* \"#utility.yul\":12995:12999   */\n      0x24\n        /* \"#utility.yul\":12992:12993   */\n      0x00\n        /* \"#utility.yul\":12985:13000   */\n      revert\n        /* \"#utility.yul\":13012:13192   */\n    tag_298:\n        /* \"#utility.yul\":13060:13137   */\n      0x4e487b7100000000000000000000000000000000000000000000000000000000\n        /* \"#utility.yul\":13057:13058   */\n      0x00\n        /* \"#utility.yul\":13050:13138   */\n      mstore\n        /* \"#utility.yul\":13157:13161   */\n      0x41\n        /* \"#utility.yul\":13154:13155   */\n      0x04\n        /* \"#utility.yul\":13147:13162   */\n      mstore\n        /* \"#utility.yul\":13181:13185   */\n      0x24\n        /* \"#utility.yul\":13178:13179   */\n      0x00\n        /* \"#utility.yul\":13171:13186   */\n      revert\n        /* \"#utility.yul\":13198:13315   */\n    tag_188:\n        /* \"#utility.yul\":13307:13308   */\n      0x00\n        /* \"#utility.yul\":13304:13305   */\n      dup1\n        /* \"#utility.yul\":13297:13309   */\n      revert\n        /* \"#utility.yul\":13321:13438   */\n    tag_173:\n        /* \"#utility.yul\":13430:13431   */\n      0x00\n        /* \"#utility.yul\":13427:13428   */\n      dup1\n        /* \"#utility.yul\":13420:13432   */\n      revert\n        /* \"#utility.yul\":13444:13561   */\n    tag_204:\n        /* \"#utility.yul\":13553:13554   */\n      0x00\n        /* \"#utility.yul\":13550:13551   */\n      dup1\n        /* \"#utility.yul\":13543:13555   */\n      revert\n        /* \"#utility.yul\":13567:13684   */\n    tag_197:\n        /* \"#utility.yul\":13676:13677   */\n      0x00\n        /* \"#utility.yul\":13673:13674   */\n      dup1\n        /* \"#utility.yul\":13666:13678   */\n      revert\n        /* \"#utility.yul\":13690:13792   */\n    tag_237:\n        /* \"#utility.yul\":13731:13737   */\n      0x00\n        /* \"#utility.yul\":13782:13784   */\n      0x1f\n        /* \"#utility.yul\":13778:13785   */\n      not\n        /* \"#utility.yul\":13773:13775   */\n      0x1f\n        /* \"#utility.yul\":13766:13771   */\n      dup4\n        /* \"#utility.yul\":13762:13776   */\n      add\n        /* \"#utility.yul\":13758:13786   */\n      and\n        /* \"#utility.yul\":13748:13786   */\n      swap1\n      pop\n        /* \"#utility.yul\":13690:13792   */\n      swap2\n      swap1\n      pop\n      jump\t// out\n        /* \"#utility.yul\":13798:13976   */\n    tag_242:\n        /* \"#utility.yul\":13938:13968   */\n      0x6469646e74207265616368206d696e20636f6e747269627574696f6e00000000\n        /* \"#utility.yul\":13934:13935   */\n      0x00\n        /* \"#utility.yul\":13926:13932   */\n      dup3\n        /* \"#utility.yul\":13922:13936   */\n      add\n        /* \"#utility.yul\":13915:13969   */\n      mstore\n        /* \"#utility.yul\":13798:13976   */\n      pop\n      jump\t// out\n        /* \"#utility.yul\":13982:14157   */\n    tag_247:\n        /* \"#utility.yul\":14122:14149   */\n      0x796f7520617265206e6f74206120636f6e7472696275746f7200000000000000\n        /* \"#utility.yul\":14118:14119   */\n      0x00\n        /* \"#utility.yul\":14110:14116   */\n      dup3\n        /* \"#utility.yul\":14106:14120   */\n      add\n        /* \"#utility.yul\":14099:14150   */\n      mstore\n        /* \"#utility.yul\":13982:14157   */\n      pop\n      jump\t// out\n        /* \"#utility.yul\":14163:14343   */\n    tag_252:\n        /* \"#utility.yul\":14303:14335   */\n      0x6d6573736167652073656e646572206973206e6f7420616e2061646d696e0000\n        /* \"#utility.yul\":14299:14300   */\n      0x00\n        /* \"#utility.yul\":14291:14297   */\n      dup3\n        /* \"#utility.yul\":14287:14301   */\n      add\n        /* \"#utility.yul\":14280:14336   */\n      mstore\n        /* \"#utility.yul\":14163:14343   */\n      pop\n      jump\t// out\n        /* \"#utility.yul\":14349:14514   */\n    tag_257:\n        /* \"#utility.yul\":14489:14506   */\n      0x646561646c696e65207061737365640000000000000000000000000000000000\n        /* \"#utility.yul\":14485:14486   */\n      0x00\n        /* \"#utility.yul\":14477:14483   */\n      dup3\n        /* \"#utility.yul\":14473:14487   */\n      add\n        /* \"#utility.yul\":14466:14507   */\n      mstore\n        /* \"#utility.yul\":14349:14514   */\n      pop\n      jump\t// out\n        /* \"#utility.yul\":14520:14697   */\n    tag_262:\n        /* \"#utility.yul\":14660:14689   */\n      0x43726f776446756e64696e67206973206e6f742072756e6e696e670000000000\n        /* \"#utility.yul\":14656:14657   */\n      0x00\n        /* \"#utility.yul\":14648:14654   */\n      dup3\n        /* \"#utility.yul\":14644:14658   */\n      add\n        /* \"#utility.yul\":14637:14690   */\n      mstore\n        /* \"#utility.yul\":14520:14697   */\n      pop\n      jump\t// out\n        /* \"#utility.yul\":14703:14816   */\n    tag_317:\n        /* \"#utility.yul\":14784:14785   */\n      0x05\n        /* \"#utility.yul\":14777:14782   */\n      dup2\n        /* \"#utility.yul\":14774:14786   */\n      lt\n        /* \"#utility.yul\":14764:14810   */\n      tag_356\n      jumpi\n        /* \"#utility.yul\":14790:14808   */\n      tag_357\n      tag_96\n      jump\t// in\n    tag_357:\n        /* \"#utility.yul\":14764:14810   */\n    tag_356:\n        /* \"#utility.yul\":14703:14816   */\n      pop\n      jump\t// out\n        /* \"#utility.yul\":14822:14944   */\n    tag_179:\n        /* \"#utility.yul\":14895:14919   */\n      tag_359\n        /* \"#utility.yul\":14913:14918   */\n      dup2\n        /* \"#utility.yul\":14895:14919   */\n      tag_219\n      jump\t// in\n    tag_359:\n        /* \"#utility.yul\":14888:14893   */\n      dup2\n        /* \"#utility.yul\":14885:14920   */\n      eq\n        /* \"#utility.yul\":14875:14938   */\n      tag_360\n      jumpi\n        /* \"#utility.yul\":14934:14935   */\n      0x00\n        /* \"#utility.yul\":14931:14932   */\n      dup1\n        /* \"#utility.yul\":14924:14936   */\n      revert\n        /* \"#utility.yul\":14875:14938   */\n    tag_360:\n        /* \"#utility.yul\":14822:14944   */\n      pop\n      jump\t// out\n        /* \"#utility.yul\":14950:15088   */\n    tag_183:\n        /* \"#utility.yul\":15031:15063   */\n      tag_362\n        /* \"#utility.yul\":15057:15062   */\n      dup2\n        /* \"#utility.yul\":15031:15063   */\n      tag_215\n      jump\t// in\n    tag_362:\n        /* \"#utility.yul\":15024:15029   */\n      dup2\n        /* \"#utility.yul\":15021:15064   */\n      eq\n        /* \"#utility.yul\":15011:15082   */\n      tag_363\n      jumpi\n        /* \"#utility.yul\":15078:15079   */\n      0x00\n        /* \"#utility.yul\":15075:15076   */\n      dup1\n        /* \"#utility.yul\":15068:15080   */\n      revert\n        /* \"#utility.yul\":15011:15082   */\n    tag_363:\n        /* \"#utility.yul\":14950:15088   */\n      pop\n      jump\t// out\n        /* \"#utility.yul\":15094:15216   */\n    tag_193:\n        /* \"#utility.yul\":15167:15191   */\n      tag_365\n        /* \"#utility.yul\":15185:15190   */\n      dup2\n        /* \"#utility.yul\":15167:15191   */\n      tag_266\n      jump\t// in\n    tag_365:\n        /* \"#utility.yul\":15160:15165   */\n      dup2\n        /* \"#utility.yul\":15157:15192   */\n      eq\n        /* \"#utility.yul\":15147:15210   */\n      tag_366\n      jumpi\n        /* \"#utility.yul\":15206:15207   */\n      0x00\n        /* \"#utility.yul\":15203:15204   */\n      dup1\n        /* \"#utility.yul\":15196:15208   */\n      revert\n        /* \"#utility.yul\":15147:15210   */\n    tag_366:\n        /* \"#utility.yul\":15094:15216   */\n      pop\n      jump\t// out\n\n    auxdata: 0xa2646970667358221220458cf7153eeaee0e9dd6b10f1faaa09baeacbaff4f19bf248844dcbc7c9fa84364736f6c63430008070033\n}\n",
				"bytecode": {
					"linkReferences": {},
					"object": "60806040523480156200001157600080fd5b50604051620016a3380380620016a38339818101604052810190620000379190620000f0565b33600160006101000a81548173ffffffffffffffffffffffffffffffffffffffff021916908373ffffffffffffffffffffffffffffffffffffffff1602179055506000600960006101000a81548160ff02191690836004811115620000a157620000a0620001cd565b5b0217905550816005819055508042620000bb919062000137565b6004819055506064600381905550600060028190555050506200021b565b600081519050620000ea8162000201565b92915050565b600080604083850312156200010a5762000109620001fc565b5b60006200011a85828601620000d9565b92505060206200012d85828601620000d9565b9150509250929050565b6000620001448262000194565b9150620001518362000194565b9250827fffffffffffffffffffffffffffffffffffffffffffffffffffffffffffffffff038211156200018957620001886200019e565b5b828201905092915050565b6000819050919050565b7f4e487b7100000000000000000000000000000000000000000000000000000000600052601160045260246000fd5b7f4e487b7100000000000000000000000000000000000000000000000000000000600052602160045260246000fd5b600080fd5b6200020c8162000194565b81146200021857600080fd5b50565b611478806200022b6000396000f3fe6080604052600436106100f75760003560e01c80639fb42b1f1161008a578063c59ee1dc11610059578063c59ee1dc1461031f578063d5cef1331461034a578063d7bb99ba14610354578063f851a4401461035e57610106565b80639fb42b1f14610287578063a8b78ed0146102b2578063aaffadf3146102c9578063b25cdccf146102f457610106565b806340193883116100c657806340193883146101c95780634b5e7d70146101f45780634cb6f4a51461021d57806381d12c581461024657610106565b806312065fe01461010b5780631e206f15146101365780631f6d49421461016157806329dcb0cf1461019e57610106565b3661010657610104610389565b005b600080fd5b34801561011757600080fd5b50610120610559565b60405161012d9190610feb565b60405180910390f35b34801561014257600080fd5b5061014b610561565b6040516101589190610feb565b60405180910390f35b34801561016d57600080fd5b5061018860048036038101906101839190610cbf565b610567565b6040516101959190610feb565b60405180910390f35b3480156101aa57600080fd5b506101b361057f565b6040516101c09190610feb565b60405180910390f35b3480156101d557600080fd5b506101de610585565b6040516101eb9190610feb565b60405180910390f35b34801561020057600080fd5b5061021b60048036038101906102169190610cec565b61058b565b005b34801561022957600080fd5b50610244600480360381019061023f9190610d5b565b6106de565b005b34801561025257600080fd5b5061026d60048036038101906102689190610d5b565b6107ce565b60405161027e959493929190610ef1565b60405180910390f35b34801561029357600080fd5b5061029c6108b9565b6040516102a99190610feb565b60405180910390f35b3480156102be57600080fd5b506102c76108bf565b005b3480156102d557600080fd5b506102de61097c565b6040516102eb9190610feb565b60405180910390f35b34801561030057600080fd5b50610309610982565b6040516103169190610ed6565b60405180910390f35b34801561032b57600080fd5b50610334610995565b6040516103419190610feb565b60405180910390f35b61035261099b565b005b61035c610389565b005b34801561036a57600080fd5b50610373610b47565b6040516103809190610ebb565b60405180910390f35b6002600481111561039d5761039c61126a565b5b600960009054906101000a900460ff1660048111156103bf576103be61126a565b5b146103ff576040517f08c379a00000000000000000000000000000000000000000000000000000000081526004016103f690610fcb565b60405180910390fd5b600454421115610444576040517f08c379a000000000000000000000000000000000000000000000000000000000815260040161043b90610fab565b60405180910390fd5b600354341015610489576040517f08c379a000000000000000000000000000000000000000000000000000000000815260040161048090610f4b565b60405180910390fd5b60008060003373ffffffffffffffffffffffffffffffffffffffff1673ffffffffffffffffffffffffffffffffffffffff1681526020019081526020016000205414156104e957600260008154809291906104e3906111f2565b91905055505b346000803373ffffffffffffffffffffffffffffffffffffffff1673ffffffffffffffffffffffffffffffffffffffff16815260200190815260200160002060008282546105379190611078565b9250508190555034600660008282546105509190611078565b92505081905550565b600047905090565b60025481565b60006020528060005260406000206000915090505481565b60045481565b60055481565b600160009054906101000a900473ffffffffffffffffffffffffffffffffffffffff1673ffffffffffffffffffffffffffffffffffffffff163373ffffffffffffffffffffffffffffffffffffffff161461061b576040517f08c379a000000000000000000000000000000000000000000000000000000000815260040161061290610f8b565b60405180910390fd5b6000600760006008548152602001908152602001600020905060086000815480929190610647906111f2565b919050555083816000019080519060200190610664929190610b6d565b50828160010160006101000a81548173ffffffffffffffffffffffffffffffffffffffff021916908373ffffffffffffffffffffffffffffffffffffffff16021790555081816002018190555060008160030160006101000a81548160ff0219169083151502179055506000816004018190555050505050565b60008060003373ffffffffffffffffffffffffffffffffffffffff1673ffffffffffffffffffffffffffffffffffffffff168152602001908152602001600020541161075f576040517f08c379a000000000000000000000000000000000000000000000000000000000815260040161075690610f6b565b60405180910390fd5b60016007600083815260200190815260200160002060050160003373ffffffffffffffffffffffffffffffffffffffff1673ffffffffffffffffffffffffffffffffffffffff16815260200190815260200160002060006101000a81548160ff02191690831515021790555050565b60076020528060005260406000206000915090508060000180546107f19061118f565b80601f016020809104026020016040519081016040528092919081815260200182805461081d9061118f565b801561086a5780601f1061083f5761010080835404028352916020019161086a565b820191906000526020600020905b81548152906001019060200180831161084d57829003601f168201915b5050505050908060010160009054906101000a900473ffffffffffffffffffffffffffffffffffffffff16908060020154908060030160009054906101000a900460ff16908060040154905085565b60085481565b600160009054906101000a900473ffffffffffffffffffffffffffffffffffffffff1673ffffffffffffffffffffffffffffffffffffffff163373ffffffffffffffffffffffffffffffffffffffff161461094f576040517f08c379a000000000000000000000000000000000000000000000000000000000815260040161094690610f8b565b60405180910390fd5b6002600960006101000a81548160ff021916908360048111156109755761097461126a565b5b0217905550565b60035481565b600960009054906101000a900460ff1681565b60065481565b60008060003373ffffffffffffffffffffffffffffffffffffffff1673ffffffffffffffffffffffffffffffffffffffff1681526020019081526020016000205411610a1c576040517f08c379a0000000000000000000000000000000000000000000000000000000008152600401610a1390610f6b565b60405180910390fd5b600480811115610a2f57610a2e61126a565b5b600960009054906101000a900460ff166004811115610a5157610a5061126a565b5b1480610a6d575060045442118015610a6c5750600554600654105b5b610a7657600080fd5b60008060003373ffffffffffffffffffffffffffffffffffffffff1673ffffffffffffffffffffffffffffffffffffffff16815260200190815260200160002054905060008060003373ffffffffffffffffffffffffffffffffffffffff1673ffffffffffffffffffffffffffffffffffffffff168152602001908152602001600020819055503373ffffffffffffffffffffffffffffffffffffffff166108fc829081150290604051600060405180830381858888f19350505050158015610b43573d6000803e3d6000fd5b5050565b600160009054906101000a900473ffffffffffffffffffffffffffffffffffffffff1681565b828054610b799061118f565b90600052602060002090601f016020900481019282610b9b5760008555610be2565b82601f10610bb457805160ff1916838001178555610be2565b82800160010185558215610be2579182015b82811115610be1578251825591602001919060010190610bc6565b5b509050610bef9190610bf3565b5090565b5b80821115610c0c576000816000905550600101610bf4565b5090565b6000610c23610c1e8461102b565b611006565b905082815260208101848484011115610c3f57610c3e6112fc565b5b610c4a84828561114d565b509392505050565b600081359050610c61816113fd565b92915050565b600081359050610c7681611414565b92915050565b600082601f830112610c9157610c906112f7565b5b8135610ca1848260208601610c10565b91505092915050565b600081359050610cb98161142b565b92915050565b600060208284031215610cd557610cd4611306565b5b6000610ce384828501610c52565b91505092915050565b600080600060608486031215610d0557610d04611306565b5b600084013567ffffffffffffffff811115610d2357610d22611301565b5b610d2f86828701610c7c565b9350506020610d4086828701610c67565b9250506040610d5186828701610caa565b9150509250925092565b600060208284031215610d7157610d70611306565b5b6000610d7f84828501610caa565b91505092915050565b610d91816110e0565b82525050565b610da0816110ce565b82525050565b610daf816110f2565b82525050565b610dbe8161113b565b82525050565b6000610dcf8261105c565b610dd98185611067565b9350610de981856020860161115c565b610df28161130b565b840191505092915050565b6000610e0a601c83611067565b9150610e158261131c565b602082019050919050565b6000610e2d601983611067565b9150610e3882611345565b602082019050919050565b6000610e50601e83611067565b9150610e5b8261136e565b602082019050919050565b6000610e73600f83611067565b9150610e7e82611397565b602082019050919050565b6000610e96601b83611067565b9150610ea1826113c0565b602082019050919050565b610eb581611131565b82525050565b6000602082019050610ed06000830184610d97565b92915050565b6000602082019050610eeb6000830184610db5565b92915050565b600060a0820190508181036000830152610f0b8188610dc4565b9050610f1a6020830187610d88565b610f276040830186610eac565b610f346060830185610da6565b610f416080830184610eac565b9695505050505050565b60006020820190508181036000830152610f6481610dfd565b9050919050565b60006020820190508181036000830152610f8481610e20565b9050919050565b60006020820190508181036000830152610fa481610e43565b9050919050565b60006020820190508181036000830152610fc481610e66565b9050919050565b60006020820190508181036000830152610fe481610e89565b9050919050565b60006020820190506110006000830184610eac565b92915050565b6000611010611021565b905061101c82826111c1565b919050565b6000604051905090565b600067ffffffffffffffff821115611046576110456112c8565b5b61104f8261130b565b9050602081019050919050565b600081519050919050565b600082825260208201905092915050565b600061108382611131565b915061108e83611131565b9250827fffffffffffffffffffffffffffffffffffffffffffffffffffffffffffffffff038211156110c3576110c261123b565b5b828201905092915050565b60006110d982611111565b9050919050565b60006110eb82611111565b9050919050565b60008115159050919050565b600081905061110c826113e9565b919050565b600073ffffffffffffffffffffffffffffffffffffffff82169050919050565b6000819050919050565b6000611146826110fe565b9050919050565b82818337600083830152505050565b60005b8381101561117a57808201518184015260208101905061115f565b83811115611189576000848401525b50505050565b600060028204905060018216806111a757607f821691505b602082108114156111bb576111ba611299565b5b50919050565b6111ca8261130b565b810181811067ffffffffffffffff821117156111e9576111e86112c8565b5b80604052505050565b60006111fd82611131565b91507fffffffffffffffffffffffffffffffffffffffffffffffffffffffffffffffff8214156112305761122f61123b565b5b600182019050919050565b7f4e487b7100000000000000000000000000000000000000000000000000000000600052601160045260246000fd5b7f4e487b7100000000000000000000000000000000000000000000000000000000600052602160045260246000fd5b7f4e487b7100000000000000000000000000000000000000000000000000000000600052602260045260246000fd5b7f4e487b7100000000000000000000000000000000000000000000000000000000600052604160045260246000fd5b600080fd5b600080fd5b600080fd5b600080fd5b6000601f19601f8301169050919050565b7f6469646e74207265616368206d696e20636f6e747269627574696f6e00000000600082015250565b7f796f7520617265206e6f74206120636f6e7472696275746f7200000000000000600082015250565b7f6d6573736167652073656e646572206973206e6f7420616e2061646d696e0000600082015250565b7f646561646c696e65207061737365640000000000000000000000000000000000600082015250565b7f43726f776446756e64696e67206973206e6f742072756e6e696e670000000000600082015250565b600581106113fa576113f961126a565b5b50565b611406816110ce565b811461141157600080fd5b50565b61141d816110e0565b811461142857600080fd5b50565b61143481611131565b811461143f57600080fd5b5056fea2646970667358221220458cf7153eeaee0e9dd6b10f1faaa09baeacbaff4f19bf248844dcbc7c9fa84364736f6c63430008070033",
					"opcodes": "PUSH1 0x80 PUSH1 0x40 MSTORE CALLVALUE DUP1 ISZERO PUSH3 0x11 JUMPI PUSH1 0x0 DUP1 REVERT JUMPDEST POP PUSH1 0x40 MLOAD PUSH3 0x16A3 CODESIZE SUB DUP1 PUSH3 0x16A3 DUP4 CODECOPY DUP2 DUP2 ADD PUSH1 0x40 MSTORE DUP2 ADD SWAP1 PUSH3 0x37 SWAP2 SWAP1 PUSH3 0xF0 JUMP JUMPDEST CALLER PUSH1 0x1 PUSH1 0x0 PUSH2 0x100 EXP DUP2 SLOAD DUP2 PUSH20 0xFFFFFFFFFFFFFFFFFFFFFFFFFFFFFFFFFFFFFFFF MUL NOT AND SWAP1 DUP4 PUSH20 0xFFFFFFFFFFFFFFFFFFFFFFFFFFFFFFFFFFFFFFFF AND MUL OR SWAP1 SSTORE POP PUSH1 0x0 PUSH1 0x9 PUSH1 0x0 PUSH2 0x100 EXP DUP2 SLOAD DUP2 PUSH1 0xFF MUL NOT AND SWAP1 DUP4 PUSH1 0x4 DUP2 GT ISZERO PUSH3 0xA1 JUMPI PUSH3 0xA0 PUSH3 0x1CD JUMP JUMPDEST JUMPDEST MUL OR SWAP1 SSTORE POP DUP2 PUSH1 0x5 DUP2 SWAP1 SSTORE POP DUP1 TIMESTAMP PUSH3 0xBB SWAP2 SWAP1 PUSH3 0x137 JUMP JUMPDEST PUSH1 0x4 DUP2 SWAP1 SSTORE POP PUSH1 0x64 PUSH1 0x3 DUP2 SWAP1 SSTORE POP PUSH1 0x0 PUSH1 0x2 DUP2 SWAP1 SSTORE POP POP POP PUSH3 0x21B JUMP JUMPDEST PUSH1 0x0 DUP2 MLOAD SWAP1 POP PUSH3 0xEA DUP2 PUSH3 0x201 JUMP JUMPDEST SWAP3 SWAP2 POP POP JUMP JUMPDEST PUSH1 0x0 DUP1 PUSH1 0x40 DUP4 DUP6 SUB SLT ISZERO PUSH3 0x10A JUMPI PUSH3 0x109 PUSH3 0x1FC JUMP JUMPDEST JUMPDEST PUSH1 0x0 PUSH3 0x11A DUP6 DUP3 DUP7 ADD PUSH3 0xD9 JUMP JUMPDEST SWAP3 POP POP PUSH1 0x20 PUSH3 0x12D DUP6 DUP3 DUP7 ADD PUSH3 0xD9 JUMP JUMPDEST SWAP2 POP POP SWAP3 POP SWAP3 SWAP1 POP JUMP JUMPDEST PUSH1 0x0 PUSH3 0x144 DUP3 PUSH3 0x194 JUMP JUMPDEST SWAP2 POP PUSH3 0x151 DUP4 PUSH3 0x194 JUMP JUMPDEST SWAP3 POP DUP3 PUSH32 0xFFFFFFFFFFFFFFFFFFFFFFFFFFFFFFFFFFFFFFFFFFFFFFFFFFFFFFFFFFFFFFFF SUB DUP3 GT ISZERO PUSH3 0x189 JUMPI PUSH3 0x188 PUSH3 0x19E JUMP JUMPDEST JUMPDEST DUP3 DUP3 ADD SWAP1 POP SWAP3 SWAP2 POP POP JUMP JUMPDEST PUSH1 0x0 DUP2 SWAP1 POP SWAP2 SWAP1 POP JUMP JUMPDEST PUSH32 0x4E487B7100000000000000000000000000000000000000000000000000000000 PUSH1 0x0 MSTORE PUSH1 0x11 PUSH1 0x4 MSTORE PUSH1 0x24 PUSH1 0x0 REVERT JUMPDEST PUSH32 0x4E487B7100000000000000000000000000000000000000000000000000000000 PUSH1 0x0 MSTORE PUSH1 0x21 PUSH1 0x4 MSTORE PUSH1 0x24 PUSH1 0x0 REVERT JUMPDEST PUSH1 0x0 DUP1 REVERT JUMPDEST PUSH3 0x20C DUP2 PUSH3 0x194 JUMP JUMPDEST DUP2 EQ PUSH3 0x218 JUMPI PUSH1 0x0 DUP1 REVERT JUMPDEST POP JUMP JUMPDEST PUSH2 0x1478 DUP1 PUSH3 0x22B PUSH1 0x0 CODECOPY PUSH1 0x0 RETURN INVALID PUSH1 0x80 PUSH1 0x40 MSTORE PUSH1 0x4 CALLDATASIZE LT PUSH2 0xF7 JUMPI PUSH1 0x0 CALLDATALOAD PUSH1 0xE0 SHR DUP1 PUSH4 0x9FB42B1F GT PUSH2 0x8A JUMPI DUP1 PUSH4 0xC59EE1DC GT PUSH2 0x59 JUMPI DUP1 PUSH4 0xC59EE1DC EQ PUSH2 0x31F JUMPI DUP1 PUSH4 0xD5CEF133 EQ PUSH2 0x34A JUMPI DUP1 PUSH4 0xD7BB99BA EQ PUSH2 0x354 JUMPI DUP1 PUSH4 0xF851A440 EQ PUSH2 0x35E JUMPI PUSH2 0x106 JUMP JUMPDEST DUP1 PUSH4 0x9FB42B1F EQ PUSH2 0x287 JUMPI DUP1 PUSH4 0xA8B78ED0 EQ PUSH2 0x2B2 JUMPI DUP1 PUSH4 0xAAFFADF3 EQ PUSH2 0x2C9 JUMPI DUP1 PUSH4 0xB25CDCCF EQ PUSH2 0x2F4 JUMPI PUSH2 0x106 JUMP JUMPDEST DUP1 PUSH4 0x40193883 GT PUSH2 0xC6 JUMPI DUP1 PUSH4 0x40193883 EQ PUSH2 0x1C9 JUMPI DUP1 PUSH4 0x4B5E7D70 EQ PUSH2 0x1F4 JUMPI DUP1 PUSH4 0x4CB6F4A5 EQ PUSH2 0x21D JUMPI DUP1 PUSH4 0x81D12C58 EQ PUSH2 0x246 JUMPI PUSH2 0x106 JUMP JUMPDEST DUP1 PUSH4 0x12065FE0 EQ PUSH2 0x10B JUMPI DUP1 PUSH4 0x1E206F15 EQ PUSH2 0x136 JUMPI DUP1 PUSH4 0x1F6D4942 EQ PUSH2 0x161 JUMPI DUP1 PUSH4 0x29DCB0CF EQ PUSH2 0x19E JUMPI PUSH2 0x106 JUMP JUMPDEST CALLDATASIZE PUSH2 0x106 JUMPI PUSH2 0x104 PUSH2 0x389 JUMP JUMPDEST STOP JUMPDEST PUSH1 0x0 DUP1 REVERT JUMPDEST CALLVALUE DUP1 ISZERO PUSH2 0x117 JUMPI PUSH1 0x0 DUP1 REVERT JUMPDEST POP PUSH2 0x120 PUSH2 0x559 JUMP JUMPDEST PUSH1 0x40 MLOAD PUSH2 0x12D SWAP2 SWAP1 PUSH2 0xFEB JUMP JUMPDEST PUSH1 0x40 MLOAD DUP1 SWAP2 SUB SWAP1 RETURN JUMPDEST CALLVALUE DUP1 ISZERO PUSH2 0x142 JUMPI PUSH1 0x0 DUP1 REVERT JUMPDEST POP PUSH2 0x14B PUSH2 0x561 JUMP JUMPDEST PUSH1 0x40 MLOAD PUSH2 0x158 SWAP2 SWAP1 PUSH2 0xFEB JUMP JUMPDEST PUSH1 0x40 MLOAD DUP1 SWAP2 SUB SWAP1 RETURN JUMPDEST CALLVALUE DUP1 ISZERO PUSH2 0x16D JUMPI PUSH1 0x0 DUP1 REVERT JUMPDEST POP PUSH2 0x188 PUSH1 0x4 DUP1 CALLDATASIZE SUB DUP2 ADD SWAP1 PUSH2 0x183 SWAP2 SWAP1 PUSH2 0xCBF JUMP JUMPDEST PUSH2 0x567 JUMP JUMPDEST PUSH1 0x40 MLOAD PUSH2 0x195 SWAP2 SWAP1 PUSH2 0xFEB JUMP JUMPDEST PUSH1 0x40 MLOAD DUP1 SWAP2 SUB SWAP1 RETURN JUMPDEST CALLVALUE DUP1 ISZERO PUSH2 0x1AA JUMPI PUSH1 0x0 DUP1 REVERT JUMPDEST POP PUSH2 0x1B3 PUSH2 0x57F JUMP JUMPDEST PUSH1 0x40 MLOAD PUSH2 0x1C0 SWAP2 SWAP1 PUSH2 0xFEB JUMP JUMPDEST PUSH1 0x40 MLOAD DUP1 SWAP2 SUB SWAP1 RETURN JUMPDEST CALLVALUE DUP1 ISZERO PUSH2 0x1D5 JUMPI PUSH1 0x0 DUP1 REVERT JUMPDEST POP PUSH2 0x1DE PUSH2 0x585 JUMP JUMPDEST PUSH1 0x40 MLOAD PUSH2 0x1EB SWAP2 SWAP1 PUSH2 0xFEB JUMP JUMPDEST PUSH1 0x40 MLOAD DUP1 SWAP2 SUB SWAP1 RETURN JUMPDEST CALLVALUE DUP1 ISZERO PUSH2 0x200 JUMPI PUSH1 0x0 DUP1 REVERT JUMPDEST POP PUSH2 0x21B PUSH1 0x4 DUP1 CALLDATASIZE SUB DUP2 ADD SWAP1 PUSH2 0x216 SWAP2 SWAP1 PUSH2 0xCEC JUMP JUMPDEST PUSH2 0x58B JUMP JUMPDEST STOP JUMPDEST CALLVALUE DUP1 ISZERO PUSH2 0x229 JUMPI PUSH1 0x0 DUP1 REVERT JUMPDEST POP PUSH2 0x244 PUSH1 0x4 DUP1 CALLDATASIZE SUB DUP2 ADD SWAP1 PUSH2 0x23F SWAP2 SWAP1 PUSH2 0xD5B JUMP JUMPDEST PUSH2 0x6DE JUMP JUMPDEST STOP JUMPDEST CALLVALUE DUP1 ISZERO PUSH2 0x252 JUMPI PUSH1 0x0 DUP1 REVERT JUMPDEST POP PUSH2 0x26D PUSH1 0x4 DUP1 CALLDATASIZE SUB DUP2 ADD SWAP1 PUSH2 0x268 SWAP2 SWAP1 PUSH2 0xD5B JUMP JUMPDEST PUSH2 0x7CE JUMP JUMPDEST PUSH1 0x40 MLOAD PUSH2 0x27E SWAP6 SWAP5 SWAP4 SWAP3 SWAP2 SWAP1 PUSH2 0xEF1 JUMP JUMPDEST PUSH1 0x40 MLOAD DUP1 SWAP2 SUB SWAP1 RETURN JUMPDEST CALLVALUE DUP1 ISZERO PUSH2 0x293 JUMPI PUSH1 0x0 DUP1 REVERT JUMPDEST POP PUSH2 0x29C PUSH2 0x8B9 JUMP JUMPDEST PUSH1 0x40 MLOAD PUSH2 0x2A9 SWAP2 SWAP1 PUSH2 0xFEB JUMP JUMPDEST PUSH1 0x40 MLOAD DUP1 SWAP2 SUB SWAP1 RETURN JUMPDEST CALLVALUE DUP1 ISZERO PUSH2 0x2BE JUMPI PUSH1 0x0 DUP1 REVERT JUMPDEST POP PUSH2 0x2C7 PUSH2 0x8BF JUMP JUMPDEST STOP JUMPDEST CALLVALUE DUP1 ISZERO PUSH2 0x2D5 JUMPI PUSH1 0x0 DUP1 REVERT JUMPDEST POP PUSH2 0x2DE PUSH2 0x97C JUMP JUMPDEST PUSH1 0x40 MLOAD PUSH2 0x2EB SWAP2 SWAP1 PUSH2 0xFEB JUMP JUMPDEST PUSH1 0x40 MLOAD DUP1 SWAP2 SUB SWAP1 RETURN JUMPDEST CALLVALUE DUP1 ISZERO PUSH2 0x300 JUMPI PUSH1 0x0 DUP1 REVERT JUMPDEST POP PUSH2 0x309 PUSH2 0x982 JUMP JUMPDEST PUSH1 0x40 MLOAD PUSH2 0x316 SWAP2 SWAP1 PUSH2 0xED6 JUMP JUMPDEST PUSH1 0x40 MLOAD DUP1 SWAP2 SUB SWAP1 RETURN JUMPDEST CALLVALUE DUP1 ISZERO PUSH2 0x32B JUMPI PUSH1 0x0 DUP1 REVERT JUMPDEST POP PUSH2 0x334 PUSH2 0x995 JUMP JUMPDEST PUSH1 0x40 MLOAD PUSH2 0x341 SWAP2 SWAP1 PUSH2 0xFEB JUMP JUMPDEST PUSH1 0x40 MLOAD DUP1 SWAP2 SUB SWAP1 RETURN JUMPDEST PUSH2 0x352 PUSH2 0x99B JUMP JUMPDEST STOP JUMPDEST PUSH2 0x35C PUSH2 0x389 JUMP JUMPDEST STOP JUMPDEST CALLVALUE DUP1 ISZERO PUSH2 0x36A JUMPI PUSH1 0x0 DUP1 REVERT JUMPDEST POP PUSH2 0x373 PUSH2 0xB47 JUMP JUMPDEST PUSH1 0x40 MLOAD PUSH2 0x380 SWAP2 SWAP1 PUSH2 0xEBB JUMP JUMPDEST PUSH1 0x40 MLOAD DUP1 SWAP2 SUB SWAP1 RETURN JUMPDEST PUSH1 0x2 PUSH1 0x4 DUP2 GT ISZERO PUSH2 0x39D JUMPI PUSH2 0x39C PUSH2 0x126A JUMP JUMPDEST JUMPDEST PUSH1 0x9 PUSH1 0x0 SWAP1 SLOAD SWAP1 PUSH2 0x100 EXP SWAP1 DIV PUSH1 0xFF AND PUSH1 0x4 DUP2 GT ISZERO PUSH2 0x3BF JUMPI PUSH2 0x3BE PUSH2 0x126A JUMP JUMPDEST JUMPDEST EQ PUSH2 0x3FF JUMPI PUSH1 0x40 MLOAD PUSH32 0x8C379A000000000000000000000000000000000000000000000000000000000 DUP2 MSTORE PUSH1 0x4 ADD PUSH2 0x3F6 SWAP1 PUSH2 0xFCB JUMP JUMPDEST PUSH1 0x40 MLOAD DUP1 SWAP2 SUB SWAP1 REVERT JUMPDEST PUSH1 0x4 SLOAD TIMESTAMP GT ISZERO PUSH2 0x444 JUMPI PUSH1 0x40 MLOAD PUSH32 0x8C379A000000000000000000000000000000000000000000000000000000000 DUP2 MSTORE PUSH1 0x4 ADD PUSH2 0x43B SWAP1 PUSH2 0xFAB JUMP JUMPDEST PUSH1 0x40 MLOAD DUP1 SWAP2 SUB SWAP1 REVERT JUMPDEST PUSH1 0x3 SLOAD CALLVALUE LT ISZERO PUSH2 0x489 JUMPI PUSH1 0x40 MLOAD PUSH32 0x8C379A000000000000000000000000000000000000000000000000000000000 DUP2 MSTORE PUSH1 0x4 ADD PUSH2 0x480 SWAP1 PUSH2 0xF4B JUMP JUMPDEST PUSH1 0x40 MLOAD DUP1 SWAP2 SUB SWAP1 REVERT JUMPDEST PUSH1 0x0 DUP1 PUSH1 0x0 CALLER PUSH20 0xFFFFFFFFFFFFFFFFFFFFFFFFFFFFFFFFFFFFFFFF AND PUSH20 0xFFFFFFFFFFFFFFFFFFFFFFFFFFFFFFFFFFFFFFFF AND DUP2 MSTORE PUSH1 0x20 ADD SWAP1 DUP2 MSTORE PUSH1 0x20 ADD PUSH1 0x0 KECCAK256 SLOAD EQ ISZERO PUSH2 0x4E9 JUMPI PUSH1 0x2 PUSH1 0x0 DUP2 SLOAD DUP1 SWAP3 SWAP2 SWAP1 PUSH2 0x4E3 SWAP1 PUSH2 0x11F2 JUMP JUMPDEST SWAP2 SWAP1 POP SSTORE POP JUMPDEST CALLVALUE PUSH1 0x0 DUP1 CALLER PUSH20 0xFFFFFFFFFFFFFFFFFFFFFFFFFFFFFFFFFFFFFFFF AND PUSH20 0xFFFFFFFFFFFFFFFFFFFFFFFFFFFFFFFFFFFFFFFF AND DUP2 MSTORE PUSH1 0x20 ADD SWAP1 DUP2 MSTORE PUSH1 0x20 ADD PUSH1 0x0 KECCAK256 PUSH1 0x0 DUP3 DUP3 SLOAD PUSH2 0x537 SWAP2 SWAP1 PUSH2 0x1078 JUMP JUMPDEST SWAP3 POP POP DUP2 SWAP1 SSTORE POP CALLVALUE PUSH1 0x6 PUSH1 0x0 DUP3 DUP3 SLOAD PUSH2 0x550 SWAP2 SWAP1 PUSH2 0x1078 JUMP JUMPDEST SWAP3 POP POP DUP2 SWAP1 SSTORE POP JUMP JUMPDEST PUSH1 0x0 SELFBALANCE SWAP1 POP SWAP1 JUMP JUMPDEST PUSH1 0x2 SLOAD DUP2 JUMP JUMPDEST PUSH1 0x0 PUSH1 0x20 MSTORE DUP1 PUSH1 0x0 MSTORE PUSH1 0x40 PUSH1 0x0 KECCAK256 PUSH1 0x0 SWAP2 POP SWAP1 POP SLOAD DUP2 JUMP JUMPDEST PUSH1 0x4 SLOAD DUP2 JUMP JUMPDEST PUSH1 0x5 SLOAD DUP2 JUMP JUMPDEST PUSH1 0x1 PUSH1 0x0 SWAP1 SLOAD SWAP1 PUSH2 0x100 EXP SWAP1 DIV PUSH20 0xFFFFFFFFFFFFFFFFFFFFFFFFFFFFFFFFFFFFFFFF AND PUSH20 0xFFFFFFFFFFFFFFFFFFFFFFFFFFFFFFFFFFFFFFFF AND CALLER PUSH20 0xFFFFFFFFFFFFFFFFFFFFFFFFFFFFFFFFFFFFFFFF AND EQ PUSH2 0x61B JUMPI PUSH1 0x40 MLOAD PUSH32 0x8C379A000000000000000000000000000000000000000000000000000000000 DUP2 MSTORE PUSH1 0x4 ADD PUSH2 0x612 SWAP1 PUSH2 0xF8B JUMP JUMPDEST PUSH1 0x40 MLOAD DUP1 SWAP2 SUB SWAP1 REVERT JUMPDEST PUSH1 0x0 PUSH1 0x7 PUSH1 0x0 PUSH1 0x8 SLOAD DUP2 MSTORE PUSH1 0x20 ADD SWAP1 DUP2 MSTORE PUSH1 0x20 ADD PUSH1 0x0 KECCAK256 SWAP1 POP PUSH1 0x8 PUSH1 0x0 DUP2 SLOAD DUP1 SWAP3 SWAP2 SWAP1 PUSH2 0x647 SWAP1 PUSH2 0x11F2 JUMP JUMPDEST SWAP2 SWAP1 POP SSTORE POP DUP4 DUP2 PUSH1 0x0 ADD SWAP1 DUP1 MLOAD SWAP1 PUSH1 0x20 ADD SWAP1 PUSH2 0x664 SWAP3 SWAP2 SWAP1 PUSH2 0xB6D JUMP JUMPDEST POP DUP3 DUP2 PUSH1 0x1 ADD PUSH1 0x0 PUSH2 0x100 EXP DUP2 SLOAD DUP2 PUSH20 0xFFFFFFFFFFFFFFFFFFFFFFFFFFFFFFFFFFFFFFFF MUL NOT AND SWAP1 DUP4 PUSH20 0xFFFFFFFFFFFFFFFFFFFFFFFFFFFFFFFFFFFFFFFF AND MUL OR SWAP1 SSTORE POP DUP2 DUP2 PUSH1 0x2 ADD DUP2 SWAP1 SSTORE POP PUSH1 0x0 DUP2 PUSH1 0x3 ADD PUSH1 0x0 PUSH2 0x100 EXP DUP2 SLOAD DUP2 PUSH1 0xFF MUL NOT AND SWAP1 DUP4 ISZERO ISZERO MUL OR SWAP1 SSTORE POP PUSH1 0x0 DUP2 PUSH1 0x4 ADD DUP2 SWAP1 SSTORE POP POP POP POP POP JUMP JUMPDEST PUSH1 0x0 DUP1 PUSH1 0x0 CALLER PUSH20 0xFFFFFFFFFFFFFFFFFFFFFFFFFFFFFFFFFFFFFFFF AND PUSH20 0xFFFFFFFFFFFFFFFFFFFFFFFFFFFFFFFFFFFFFFFF AND DUP2 MSTORE PUSH1 0x20 ADD SWAP1 DUP2 MSTORE PUSH1 0x20 ADD PUSH1 0x0 KECCAK256 SLOAD GT PUSH2 0x75F JUMPI PUSH1 0x40 MLOAD PUSH32 0x8C379A000000000000000000000000000000000000000000000000000000000 DUP2 MSTORE PUSH1 0x4 ADD PUSH2 0x756 SWAP1 PUSH2 0xF6B JUMP JUMPDEST PUSH1 0x40 MLOAD DUP1 SWAP2 SUB SWAP1 REVERT JUMPDEST PUSH1 0x1 PUSH1 0x7 PUSH1 0x0 DUP4 DUP2 MSTORE PUSH1 0x20 ADD SWAP1 DUP2 MSTORE PUSH1 0x20 ADD PUSH1 0x0 KECCAK256 PUSH1 0x5 ADD PUSH1 0x0 CALLER PUSH20 0xFFFFFFFFFFFFFFFFFFFFFFFFFFFFFFFFFFFFFFFF AND PUSH20 0xFFFFFFFFFFFFFFFFFFFFFFFFFFFFFFFFFFFFFFFF AND DUP2 MSTORE PUSH1 0x20 ADD SWAP1 DUP2 MSTORE PUSH1 0x20 ADD PUSH1 0x0 KECCAK256 PUSH1 0x0 PUSH2 0x100 EXP DUP2 SLOAD DUP2 PUSH1 0xFF MUL NOT AND SWAP1 DUP4 ISZERO ISZERO MUL OR SWAP1 SSTORE POP POP JUMP JUMPDEST PUSH1 0x7 PUSH1 0x20 MSTORE DUP1 PUSH1 0x0 MSTORE PUSH1 0x40 PUSH1 0x0 KECCAK256 PUSH1 0x0 SWAP2 POP SWAP1 POP DUP1 PUSH1 0x0 ADD DUP1 SLOAD PUSH2 0x7F1 SWAP1 PUSH2 0x118F JUMP JUMPDEST DUP1 PUSH1 0x1F ADD PUSH1 0x20 DUP1 SWAP2 DIV MUL PUSH1 0x20 ADD PUSH1 0x40 MLOAD SWAP1 DUP2 ADD PUSH1 0x40 MSTORE DUP1 SWAP3 SWAP2 SWAP1 DUP2 DUP2 MSTORE PUSH1 0x20 ADD DUP3 DUP1 SLOAD PUSH2 0x81D SWAP1 PUSH2 0x118F JUMP JUMPDEST DUP1 ISZERO PUSH2 0x86A JUMPI DUP1 PUSH1 0x1F LT PUSH2 0x83F JUMPI PUSH2 0x100 DUP1 DUP4 SLOAD DIV MUL DUP4 MSTORE SWAP2 PUSH1 0x20 ADD SWAP2 PUSH2 0x86A JUMP JUMPDEST DUP3 ADD SWAP2 SWAP1 PUSH1 0x0 MSTORE PUSH1 0x20 PUSH1 0x0 KECCAK256 SWAP1 JUMPDEST DUP2 SLOAD DUP2 MSTORE SWAP1 PUSH1 0x1 ADD SWAP1 PUSH1 0x20 ADD DUP1 DUP4 GT PUSH2 0x84D JUMPI DUP3 SWAP1 SUB PUSH1 0x1F AND DUP3 ADD SWAP2 JUMPDEST POP POP POP POP POP SWAP1 DUP1 PUSH1 0x1 ADD PUSH1 0x0 SWAP1 SLOAD SWAP1 PUSH2 0x100 EXP SWAP1 DIV PUSH20 0xFFFFFFFFFFFFFFFFFFFFFFFFFFFFFFFFFFFFFFFF AND SWAP1 DUP1 PUSH1 0x2 ADD SLOAD SWAP1 DUP1 PUSH1 0x3 ADD PUSH1 0x0 SWAP1 SLOAD SWAP1 PUSH2 0x100 EXP SWAP1 DIV PUSH1 0xFF AND SWAP1 DUP1 PUSH1 0x4 ADD SLOAD SWAP1 POP DUP6 JUMP JUMPDEST PUSH1 0x8 SLOAD DUP2 JUMP JUMPDEST PUSH1 0x1 PUSH1 0x0 SWAP1 SLOAD SWAP1 PUSH2 0x100 EXP SWAP1 DIV PUSH20 0xFFFFFFFFFFFFFFFFFFFFFFFFFFFFFFFFFFFFFFFF AND PUSH20 0xFFFFFFFFFFFFFFFFFFFFFFFFFFFFFFFFFFFFFFFF AND CALLER PUSH20 0xFFFFFFFFFFFFFFFFFFFFFFFFFFFFFFFFFFFFFFFF AND EQ PUSH2 0x94F JUMPI PUSH1 0x40 MLOAD PUSH32 0x8C379A000000000000000000000000000000000000000000000000000000000 DUP2 MSTORE PUSH1 0x4 ADD PUSH2 0x946 SWAP1 PUSH2 0xF8B JUMP JUMPDEST PUSH1 0x40 MLOAD DUP1 SWAP2 SUB SWAP1 REVERT JUMPDEST PUSH1 0x2 PUSH1 0x9 PUSH1 0x0 PUSH2 0x100 EXP DUP2 SLOAD DUP2 PUSH1 0xFF MUL NOT AND SWAP1 DUP4 PUSH1 0x4 DUP2 GT ISZERO PUSH2 0x975 JUMPI PUSH2 0x974 PUSH2 0x126A JUMP JUMPDEST JUMPDEST MUL OR SWAP1 SSTORE POP JUMP JUMPDEST PUSH1 0x3 SLOAD DUP2 JUMP JUMPDEST PUSH1 0x9 PUSH1 0x0 SWAP1 SLOAD SWAP1 PUSH2 0x100 EXP SWAP1 DIV PUSH1 0xFF AND DUP2 JUMP JUMPDEST PUSH1 0x6 SLOAD DUP2 JUMP JUMPDEST PUSH1 0x0 DUP1 PUSH1 0x0 CALLER PUSH20 0xFFFFFFFFFFFFFFFFFFFFFFFFFFFFFFFFFFFFFFFF AND PUSH20 0xFFFFFFFFFFFFFFFFFFFFFFFFFFFFFFFFFFFFFFFF AND DUP2 MSTORE PUSH1 0x20 ADD SWAP1 DUP2 MSTORE PUSH1 0x20 ADD PUSH1 0x0 KECCAK256 SLOAD GT PUSH2 0xA1C JUMPI PUSH1 0x40 MLOAD PUSH32 0x8C379A000000000000000000000000000000000000000000000000000000000 DUP2 MSTORE PUSH1 0x4 ADD PUSH2 0xA13 SWAP1 PUSH2 0xF6B JUMP JUMPDEST PUSH1 0x40 MLOAD DUP1 SWAP2 SUB SWAP1 REVERT JUMPDEST PUSH1 0x4 DUP1 DUP2 GT ISZERO PUSH2 0xA2F JUMPI PUSH2 0xA2E PUSH2 0x126A JUMP JUMPDEST JUMPDEST PUSH1 0x9 PUSH1 0x0 SWAP1 SLOAD SWAP1 PUSH2 0x100 EXP SWAP1 DIV PUSH1 0xFF AND PUSH1 0x4 DUP2 GT ISZERO PUSH2 0xA51 JUMPI PUSH2 0xA50 PUSH2 0x126A JUMP JUMPDEST JUMPDEST EQ DUP1 PUSH2 0xA6D JUMPI POP PUSH1 0x4 SLOAD TIMESTAMP GT DUP1 ISZERO PUSH2 0xA6C JUMPI POP PUSH1 0x5 SLOAD PUSH1 0x6 SLOAD LT JUMPDEST JUMPDEST PUSH2 0xA76 JUMPI PUSH1 0x0 DUP1 REVERT JUMPDEST PUSH1 0x0 DUP1 PUSH1 0x0 CALLER PUSH20 0xFFFFFFFFFFFFFFFFFFFFFFFFFFFFFFFFFFFFFFFF AND PUSH20 0xFFFFFFFFFFFFFFFFFFFFFFFFFFFFFFFFFFFFFFFF AND DUP2 MSTORE PUSH1 0x20 ADD SWAP1 DUP2 MSTORE PUSH1 0x20 ADD PUSH1 0x0 KECCAK256 SLOAD SWAP1 POP PUSH1 0x0 DUP1 PUSH1 0x0 CALLER PUSH20 0xFFFFFFFFFFFFFFFFFFFFFFFFFFFFFFFFFFFFFFFF AND PUSH20 0xFFFFFFFFFFFFFFFFFFFFFFFFFFFFFFFFFFFFFFFF AND DUP2 MSTORE PUSH1 0x20 ADD SWAP1 DUP2 MSTORE PUSH1 0x20 ADD PUSH1 0x0 KECCAK256 DUP2 SWAP1 SSTORE POP CALLER PUSH20 0xFFFFFFFFFFFFFFFFFFFFFFFFFFFFFFFFFFFFFFFF AND PUSH2 0x8FC DUP3 SWAP1 DUP2 ISZERO MUL SWAP1 PUSH1 0x40 MLOAD PUSH1 0x0 PUSH1 0x40 MLOAD DUP1 DUP4 SUB DUP2 DUP6 DUP9 DUP9 CALL SWAP4 POP POP POP POP ISZERO DUP1 ISZERO PUSH2 0xB43 JUMPI RETURNDATASIZE PUSH1 0x0 DUP1 RETURNDATACOPY RETURNDATASIZE PUSH1 0x0 REVERT JUMPDEST POP POP JUMP JUMPDEST PUSH1 0x1 PUSH1 0x0 SWAP1 SLOAD SWAP1 PUSH2 0x100 EXP SWAP1 DIV PUSH20 0xFFFFFFFFFFFFFFFFFFFFFFFFFFFFFFFFFFFFFFFF AND DUP2 JUMP JUMPDEST DUP3 DUP1 SLOAD PUSH2 0xB79 SWAP1 PUSH2 0x118F JUMP JUMPDEST SWAP1 PUSH1 0x0 MSTORE PUSH1 0x20 PUSH1 0x0 KECCAK256 SWAP1 PUSH1 0x1F ADD PUSH1 0x20 SWAP1 DIV DUP2 ADD SWAP3 DUP3 PUSH2 0xB9B JUMPI PUSH1 0x0 DUP6 SSTORE PUSH2 0xBE2 JUMP JUMPDEST DUP3 PUSH1 0x1F LT PUSH2 0xBB4 JUMPI DUP1 MLOAD PUSH1 0xFF NOT AND DUP4 DUP1 ADD OR DUP6 SSTORE PUSH2 0xBE2 JUMP JUMPDEST DUP3 DUP1 ADD PUSH1 0x1 ADD DUP6 SSTORE DUP3 ISZERO PUSH2 0xBE2 JUMPI SWAP2 DUP3 ADD JUMPDEST DUP3 DUP2 GT ISZERO PUSH2 0xBE1 JUMPI DUP3 MLOAD DUP3 SSTORE SWAP2 PUSH1 0x20 ADD SWAP2 SWAP1 PUSH1 0x1 ADD SWAP1 PUSH2 0xBC6 JUMP JUMPDEST JUMPDEST POP SWAP1 POP PUSH2 0xBEF SWAP2 SWAP1 PUSH2 0xBF3 JUMP JUMPDEST POP SWAP1 JUMP JUMPDEST JUMPDEST DUP1 DUP3 GT ISZERO PUSH2 0xC0C JUMPI PUSH1 0x0 DUP2 PUSH1 0x0 SWAP1 SSTORE POP PUSH1 0x1 ADD PUSH2 0xBF4 JUMP JUMPDEST POP SWAP1 JUMP JUMPDEST PUSH1 0x0 PUSH2 0xC23 PUSH2 0xC1E DUP5 PUSH2 0x102B JUMP JUMPDEST PUSH2 0x1006 JUMP JUMPDEST SWAP1 POP DUP3 DUP2 MSTORE PUSH1 0x20 DUP2 ADD DUP5 DUP5 DUP5 ADD GT ISZERO PUSH2 0xC3F JUMPI PUSH2 0xC3E PUSH2 0x12FC JUMP JUMPDEST JUMPDEST PUSH2 0xC4A DUP5 DUP3 DUP6 PUSH2 0x114D JUMP JUMPDEST POP SWAP4 SWAP3 POP POP POP JUMP JUMPDEST PUSH1 0x0 DUP2 CALLDATALOAD SWAP1 POP PUSH2 0xC61 DUP2 PUSH2 0x13FD JUMP JUMPDEST SWAP3 SWAP2 POP POP JUMP JUMPDEST PUSH1 0x0 DUP2 CALLDATALOAD SWAP1 POP PUSH2 0xC76 DUP2 PUSH2 0x1414 JUMP JUMPDEST SWAP3 SWAP2 POP POP JUMP JUMPDEST PUSH1 0x0 DUP3 PUSH1 0x1F DUP4 ADD SLT PUSH2 0xC91 JUMPI PUSH2 0xC90 PUSH2 0x12F7 JUMP JUMPDEST JUMPDEST DUP2 CALLDATALOAD PUSH2 0xCA1 DUP5 DUP3 PUSH1 0x20 DUP7 ADD PUSH2 0xC10 JUMP JUMPDEST SWAP2 POP POP SWAP3 SWAP2 POP POP JUMP JUMPDEST PUSH1 0x0 DUP2 CALLDATALOAD SWAP1 POP PUSH2 0xCB9 DUP2 PUSH2 0x142B JUMP JUMPDEST SWAP3 SWAP2 POP POP JUMP JUMPDEST PUSH1 0x0 PUSH1 0x20 DUP3 DUP5 SUB SLT ISZERO PUSH2 0xCD5 JUMPI PUSH2 0xCD4 PUSH2 0x1306 JUMP JUMPDEST JUMPDEST PUSH1 0x0 PUSH2 0xCE3 DUP5 DUP3 DUP6 ADD PUSH2 0xC52 JUMP JUMPDEST SWAP2 POP POP SWAP3 SWAP2 POP POP JUMP JUMPDEST PUSH1 0x0 DUP1 PUSH1 0x0 PUSH1 0x60 DUP5 DUP7 SUB SLT ISZERO PUSH2 0xD05 JUMPI PUSH2 0xD04 PUSH2 0x1306 JUMP JUMPDEST JUMPDEST PUSH1 0x0 DUP5 ADD CALLDATALOAD PUSH8 0xFFFFFFFFFFFFFFFF DUP2 GT ISZERO PUSH2 0xD23 JUMPI PUSH2 0xD22 PUSH2 0x1301 JUMP JUMPDEST JUMPDEST PUSH2 0xD2F DUP7 DUP3 DUP8 ADD PUSH2 0xC7C JUMP JUMPDEST SWAP4 POP POP PUSH1 0x20 PUSH2 0xD40 DUP7 DUP3 DUP8 ADD PUSH2 0xC67 JUMP JUMPDEST SWAP3 POP POP PUSH1 0x40 PUSH2 0xD51 DUP7 DUP3 DUP8 ADD PUSH2 0xCAA JUMP JUMPDEST SWAP2 POP POP SWAP3 POP SWAP3 POP SWAP3 JUMP JUMPDEST PUSH1 0x0 PUSH1 0x20 DUP3 DUP5 SUB SLT ISZERO PUSH2 0xD71 JUMPI PUSH2 0xD70 PUSH2 0x1306 JUMP JUMPDEST JUMPDEST PUSH1 0x0 PUSH2 0xD7F DUP5 DUP3 DUP6 ADD PUSH2 0xCAA JUMP JUMPDEST SWAP2 POP POP SWAP3 SWAP2 POP POP JUMP JUMPDEST PUSH2 0xD91 DUP2 PUSH2 0x10E0 JUMP JUMPDEST DUP3 MSTORE POP POP JUMP JUMPDEST PUSH2 0xDA0 DUP2 PUSH2 0x10CE JUMP JUMPDEST DUP3 MSTORE POP POP JUMP JUMPDEST PUSH2 0xDAF DUP2 PUSH2 0x10F2 JUMP JUMPDEST DUP3 MSTORE POP POP JUMP JUMPDEST PUSH2 0xDBE DUP2 PUSH2 0x113B JUMP JUMPDEST DUP3 MSTORE POP POP JUMP JUMPDEST PUSH1 0x0 PUSH2 0xDCF DUP3 PUSH2 0x105C JUMP JUMPDEST PUSH2 0xDD9 DUP2 DUP6 PUSH2 0x1067 JUMP JUMPDEST SWAP4 POP PUSH2 0xDE9 DUP2 DUP6 PUSH1 0x20 DUP7 ADD PUSH2 0x115C JUMP JUMPDEST PUSH2 0xDF2 DUP2 PUSH2 0x130B JUMP JUMPDEST DUP5 ADD SWAP2 POP POP SWAP3 SWAP2 POP POP JUMP JUMPDEST PUSH1 0x0 PUSH2 0xE0A PUSH1 0x1C DUP4 PUSH2 0x1067 JUMP JUMPDEST SWAP2 POP PUSH2 0xE15 DUP3 PUSH2 0x131C JUMP JUMPDEST PUSH1 0x20 DUP3 ADD SWAP1 POP SWAP2 SWAP1 POP JUMP JUMPDEST PUSH1 0x0 PUSH2 0xE2D PUSH1 0x19 DUP4 PUSH2 0x1067 JUMP JUMPDEST SWAP2 POP PUSH2 0xE38 DUP3 PUSH2 0x1345 JUMP JUMPDEST PUSH1 0x20 DUP3 ADD SWAP1 POP SWAP2 SWAP1 POP JUMP JUMPDEST PUSH1 0x0 PUSH2 0xE50 PUSH1 0x1E DUP4 PUSH2 0x1067 JUMP JUMPDEST SWAP2 POP PUSH2 0xE5B DUP3 PUSH2 0x136E JUMP JUMPDEST PUSH1 0x20 DUP3 ADD SWAP1 POP SWAP2 SWAP1 POP JUMP JUMPDEST PUSH1 0x0 PUSH2 0xE73 PUSH1 0xF DUP4 PUSH2 0x1067 JUMP JUMPDEST SWAP2 POP PUSH2 0xE7E DUP3 PUSH2 0x1397 JUMP JUMPDEST PUSH1 0x20 DUP3 ADD SWAP1 POP SWAP2 SWAP1 POP JUMP JUMPDEST PUSH1 0x0 PUSH2 0xE96 PUSH1 0x1B DUP4 PUSH2 0x1067 JUMP JUMPDEST SWAP2 POP PUSH2 0xEA1 DUP3 PUSH2 0x13C0 JUMP JUMPDEST PUSH1 0x20 DUP3 ADD SWAP1 POP SWAP2 SWAP1 POP JUMP JUMPDEST PUSH2 0xEB5 DUP2 PUSH2 0x1131 JUMP JUMPDEST DUP3 MSTORE POP POP JUMP JUMPDEST PUSH1 0x0 PUSH1 0x20 DUP3 ADD SWAP1 POP PUSH2 0xED0 PUSH1 0x0 DUP4 ADD DUP5 PUSH2 0xD97 JUMP JUMPDEST SWAP3 SWAP2 POP POP JUMP JUMPDEST PUSH1 0x0 PUSH1 0x20 DUP3 ADD SWAP1 POP PUSH2 0xEEB PUSH1 0x0 DUP4 ADD DUP5 PUSH2 0xDB5 JUMP JUMPDEST SWAP3 SWAP2 POP POP JUMP JUMPDEST PUSH1 0x0 PUSH1 0xA0 DUP3 ADD SWAP1 POP DUP2 DUP2 SUB PUSH1 0x0 DUP4 ADD MSTORE PUSH2 0xF0B DUP2 DUP9 PUSH2 0xDC4 JUMP JUMPDEST SWAP1 POP PUSH2 0xF1A PUSH1 0x20 DUP4 ADD DUP8 PUSH2 0xD88 JUMP JUMPDEST PUSH2 0xF27 PUSH1 0x40 DUP4 ADD DUP7 PUSH2 0xEAC JUMP JUMPDEST PUSH2 0xF34 PUSH1 0x60 DUP4 ADD DUP6 PUSH2 0xDA6 JUMP JUMPDEST PUSH2 0xF41 PUSH1 0x80 DUP4 ADD DUP5 PUSH2 0xEAC JUMP JUMPDEST SWAP7 SWAP6 POP POP POP POP POP POP JUMP JUMPDEST PUSH1 0x0 PUSH1 0x20 DUP3 ADD SWAP1 POP DUP2 DUP2 SUB PUSH1 0x0 DUP4 ADD MSTORE PUSH2 0xF64 DUP2 PUSH2 0xDFD JUMP JUMPDEST SWAP1 POP SWAP2 SWAP1 POP JUMP JUMPDEST PUSH1 0x0 PUSH1 0x20 DUP3 ADD SWAP1 POP DUP2 DUP2 SUB PUSH1 0x0 DUP4 ADD MSTORE PUSH2 0xF84 DUP2 PUSH2 0xE20 JUMP JUMPDEST SWAP1 POP SWAP2 SWAP1 POP JUMP JUMPDEST PUSH1 0x0 PUSH1 0x20 DUP3 ADD SWAP1 POP DUP2 DUP2 SUB PUSH1 0x0 DUP4 ADD MSTORE PUSH2 0xFA4 DUP2 PUSH2 0xE43 JUMP JUMPDEST SWAP1 POP SWAP2 SWAP1 POP JUMP JUMPDEST PUSH1 0x0 PUSH1 0x20 DUP3 ADD SWAP1 POP DUP2 DUP2 SUB PUSH1 0x0 DUP4 ADD MSTORE PUSH2 0xFC4 DUP2 PUSH2 0xE66 JUMP JUMPDEST SWAP1 POP SWAP2 SWAP1 POP JUMP JUMPDEST PUSH1 0x0 PUSH1 0x20 DUP3 ADD SWAP1 POP DUP2 DUP2 SUB PUSH1 0x0 DUP4 ADD MSTORE PUSH2 0xFE4 DUP2 PUSH2 0xE89 JUMP JUMPDEST SWAP1 POP SWAP2 SWAP1 POP JUMP JUMPDEST PUSH1 0x0 PUSH1 0x20 DUP3 ADD SWAP1 POP PUSH2 0x1000 PUSH1 0x0 DUP4 ADD DUP5 PUSH2 0xEAC JUMP JUMPDEST SWAP3 SWAP2 POP POP JUMP JUMPDEST PUSH1 0x0 PUSH2 0x1010 PUSH2 0x1021 JUMP JUMPDEST SWAP1 POP PUSH2 0x101C DUP3 DUP3 PUSH2 0x11C1 JUMP JUMPDEST SWAP2 SWAP1 POP JUMP JUMPDEST PUSH1 0x0 PUSH1 0x40 MLOAD SWAP1 POP SWAP1 JUMP JUMPDEST PUSH1 0x0 PUSH8 0xFFFFFFFFFFFFFFFF DUP3 GT ISZERO PUSH2 0x1046 JUMPI PUSH2 0x1045 PUSH2 0x12C8 JUMP JUMPDEST JUMPDEST PUSH2 0x104F DUP3 PUSH2 0x130B JUMP JUMPDEST SWAP1 POP PUSH1 0x20 DUP2 ADD SWAP1 POP SWAP2 SWAP1 POP JUMP JUMPDEST PUSH1 0x0 DUP2 MLOAD SWAP1 POP SWAP2 SWAP1 POP JUMP JUMPDEST PUSH1 0x0 DUP3 DUP3 MSTORE PUSH1 0x20 DUP3 ADD SWAP1 POP SWAP3 SWAP2 POP POP JUMP JUMPDEST PUSH1 0x0 PUSH2 0x1083 DUP3 PUSH2 0x1131 JUMP JUMPDEST SWAP2 POP PUSH2 0x108E DUP4 PUSH2 0x1131 JUMP JUMPDEST SWAP3 POP DUP3 PUSH32 0xFFFFFFFFFFFFFFFFFFFFFFFFFFFFFFFFFFFFFFFFFFFFFFFFFFFFFFFFFFFFFFFF SUB DUP3 GT ISZERO PUSH2 0x10C3 JUMPI PUSH2 0x10C2 PUSH2 0x123B JUMP JUMPDEST JUMPDEST DUP3 DUP3 ADD SWAP1 POP SWAP3 SWAP2 POP POP JUMP JUMPDEST PUSH1 0x0 PUSH2 0x10D9 DUP3 PUSH2 0x1111 JUMP JUMPDEST SWAP1 POP SWAP2 SWAP1 POP JUMP JUMPDEST PUSH1 0x0 PUSH2 0x10EB DUP3 PUSH2 0x1111 JUMP JUMPDEST SWAP1 POP SWAP2 SWAP1 POP JUMP JUMPDEST PUSH1 0x0 DUP2 ISZERO ISZERO SWAP1 POP SWAP2 SWAP1 POP JUMP JUMPDEST PUSH1 0x0 DUP2 SWAP1 POP PUSH2 0x110C DUP3 PUSH2 0x13E9 JUMP JUMPDEST SWAP2 SWAP1 POP JUMP JUMPDEST PUSH1 0x0 PUSH20 0xFFFFFFFFFFFFFFFFFFFFFFFFFFFFFFFFFFFFFFFF DUP3 AND SWAP1 POP SWAP2 SWAP1 POP JUMP JUMPDEST PUSH1 0x0 DUP2 SWAP1 POP SWAP2 SWAP1 POP JUMP JUMPDEST PUSH1 0x0 PUSH2 0x1146 DUP3 PUSH2 0x10FE JUMP JUMPDEST SWAP1 POP SWAP2 SWAP1 POP JUMP JUMPDEST DUP3 DUP2 DUP4 CALLDATACOPY PUSH1 0x0 DUP4 DUP4 ADD MSTORE POP POP POP JUMP JUMPDEST PUSH1 0x0 JUMPDEST DUP4 DUP2 LT ISZERO PUSH2 0x117A JUMPI DUP1 DUP3 ADD MLOAD DUP2 DUP5 ADD MSTORE PUSH1 0x20 DUP2 ADD SWAP1 POP PUSH2 0x115F JUMP JUMPDEST DUP4 DUP2 GT ISZERO PUSH2 0x1189 JUMPI PUSH1 0x0 DUP5 DUP5 ADD MSTORE JUMPDEST POP POP POP POP JUMP JUMPDEST PUSH1 0x0 PUSH1 0x2 DUP3 DIV SWAP1 POP PUSH1 0x1 DUP3 AND DUP1 PUSH2 0x11A7 JUMPI PUSH1 0x7F DUP3 AND SWAP2 POP JUMPDEST PUSH1 0x20 DUP3 LT DUP2 EQ ISZERO PUSH2 0x11BB JUMPI PUSH2 0x11BA PUSH2 0x1299 JUMP JUMPDEST JUMPDEST POP SWAP2 SWAP1 POP JUMP JUMPDEST PUSH2 0x11CA DUP3 PUSH2 0x130B JUMP JUMPDEST DUP2 ADD DUP2 DUP2 LT PUSH8 0xFFFFFFFFFFFFFFFF DUP3 GT OR ISZERO PUSH2 0x11E9 JUMPI PUSH2 0x11E8 PUSH2 0x12C8 JUMP JUMPDEST JUMPDEST DUP1 PUSH1 0x40 MSTORE POP POP POP JUMP JUMPDEST PUSH1 0x0 PUSH2 0x11FD DUP3 PUSH2 0x1131 JUMP JUMPDEST SWAP2 POP PUSH32 0xFFFFFFFFFFFFFFFFFFFFFFFFFFFFFFFFFFFFFFFFFFFFFFFFFFFFFFFFFFFFFFFF DUP3 EQ ISZERO PUSH2 0x1230 JUMPI PUSH2 0x122F PUSH2 0x123B JUMP JUMPDEST JUMPDEST PUSH1 0x1 DUP3 ADD SWAP1 POP SWAP2 SWAP1 POP JUMP JUMPDEST PUSH32 0x4E487B7100000000000000000000000000000000000000000000000000000000 PUSH1 0x0 MSTORE PUSH1 0x11 PUSH1 0x4 MSTORE PUSH1 0x24 PUSH1 0x0 REVERT JUMPDEST PUSH32 0x4E487B7100000000000000000000000000000000000000000000000000000000 PUSH1 0x0 MSTORE PUSH1 0x21 PUSH1 0x4 MSTORE PUSH1 0x24 PUSH1 0x0 REVERT JUMPDEST PUSH32 0x4E487B7100000000000000000000000000000000000000000000000000000000 PUSH1 0x0 MSTORE PUSH1 0x22 PUSH1 0x4 MSTORE PUSH1 0x24 PUSH1 0x0 REVERT JUMPDEST PUSH32 0x4E487B7100000000000000000000000000000000000000000000000000000000 PUSH1 0x0 MSTORE PUSH1 0x41 PUSH1 0x4 MSTORE PUSH1 0x24 PUSH1 0x0 REVERT JUMPDEST PUSH1 0x0 DUP1 REVERT JUMPDEST PUSH1 0x0 DUP1 REVERT JUMPDEST PUSH1 0x0 DUP1 REVERT JUMPDEST PUSH1 0x0 DUP1 REVERT JUMPDEST PUSH1 0x0 PUSH1 0x1F NOT PUSH1 0x1F DUP4 ADD AND SWAP1 POP SWAP2 SWAP1 POP JUMP JUMPDEST PUSH32 0x6469646E74207265616368206D696E20636F6E747269627574696F6E00000000 PUSH1 0x0 DUP3 ADD MSTORE POP JUMP JUMPDEST PUSH32 0x796F7520617265206E6F74206120636F6E7472696275746F7200000000000000 PUSH1 0x0 DUP3 ADD MSTORE POP JUMP JUMPDEST PUSH32 0x6D6573736167652073656E646572206973206E6F7420616E2061646D696E0000 PUSH1 0x0 DUP3 ADD MSTORE POP JUMP JUMPDEST PUSH32 0x646561646C696E65207061737365640000000000000000000000000000000000 PUSH1 0x0 DUP3 ADD MSTORE POP JUMP JUMPDEST PUSH32 0x43726F776446756E64696E67206973206E6F742072756E6E696E670000000000 PUSH1 0x0 DUP3 ADD MSTORE POP JUMP JUMPDEST PUSH1 0x5 DUP2 LT PUSH2 0x13FA JUMPI PUSH2 0x13F9 PUSH2 0x126A JUMP JUMPDEST JUMPDEST POP JUMP JUMPDEST PUSH2 0x1406 DUP2 PUSH2 0x10CE JUMP JUMPDEST DUP2 EQ PUSH2 0x1411 JUMPI PUSH1 0x0 DUP1 REVERT JUMPDEST POP JUMP JUMPDEST PUSH2 0x141D DUP2 PUSH2 0x10E0 JUMP JUMPDEST DUP2 EQ PUSH2 0x1428 JUMPI PUSH1 0x0 DUP1 REVERT JUMPDEST POP JUMP JUMPDEST PUSH2 0x1434 DUP2 PUSH2 0x1131 JUMP JUMPDEST DUP2 EQ PUSH2 0x143F JUMPI PUSH1 0x0 DUP1 REVERT JUMPDEST POP JUMP INVALID LOG2 PUSH5 0x6970667358 0x22 SLT KECCAK256 GASLIMIT DUP13 0xF7 ISZERO RETURNDATACOPY 0xEA 0xEE 0xE SWAP14 0xD6 0xB1 0xF 0x1F 0xAA LOG0 SWAP12 0xAE 0xAC 0xBA SELFDESTRUCT 0x4F NOT 0xBF 0x24 DUP9 DIFFICULTY 0xDC 0xBC PUSH29 0x9FA84364736F6C63430008070033000000000000000000000000000000 "
				},
				"gasEstimates": {
					"creation": {
						"codeDepositCost": "1048000",
						"executionCost": "infinite",
						"totalCost": "infinite"
					},
					"external": {
						"addRequest(string,address,uint256)": "infinite",
						"admin()": "2602",
						"contribute()": "infinite",
						"contributors(address)": "2882",
						"deadline()": "2519",
						"fundingState()": "2649",
						"getBalance()": "363",
						"goal()": "2452",
						"minContribution()": "2496",
						"numOfContributors()": "2475",
						"numRequests()": "2452",
						"raisedAmount()": "2451",
						"requestRefund()": "infinite",
						"requests(uint256)": "infinite",
						"startCampaign()": "26646",
						"voteRequest(uint256)": "27125"
					}
				},
				"methodIdentifiers": {
					"addRequest(string,address,uint256)": "4b5e7d70",
					"admin()": "f851a440",
					"contribute()": "d7bb99ba",
					"contributors(address)": "1f6d4942",
					"deadline()": "29dcb0cf",
					"fundingState()": "b25cdccf",
					"getBalance()": "12065fe0",
					"goal()": "40193883",
					"minContribution()": "aaffadf3",
					"numOfContributors()": "1e206f15",
					"numRequests()": "9fb42b1f",
					"raisedAmount()": "c59ee1dc",
					"requestRefund()": "d5cef133",
					"requests(uint256)": "81d12c58",
					"startCampaign()": "a8b78ed0",
					"voteRequest(uint256)": "4cb6f4a5"
				}
			},
			"storageLayout": {
				"storage": [
					{
						"astId": 5,
						"contract": "contracts/crowdfunding.sol:CrowdFunding",
						"label": "contributors",
						"offset": 0,
						"slot": "0",
						"type": "t_mapping(t_address,t_uint256)"
					},
					{
						"astId": 7,
						"contract": "contracts/crowdfunding.sol:CrowdFunding",
						"label": "admin",
						"offset": 0,
						"slot": "1",
						"type": "t_address"
					},
					{
						"astId": 9,
						"contract": "contracts/crowdfunding.sol:CrowdFunding",
						"label": "numOfContributors",
						"offset": 0,
						"slot": "2",
						"type": "t_uint256"
					},
					{
						"astId": 11,
						"contract": "contracts/crowdfunding.sol:CrowdFunding",
						"label": "minContribution",
						"offset": 0,
						"slot": "3",
						"type": "t_uint256"
					},
					{
						"astId": 13,
						"contract": "contracts/crowdfunding.sol:CrowdFunding",
						"label": "deadline",
						"offset": 0,
						"slot": "4",
						"type": "t_uint256"
					},
					{
						"astId": 15,
						"contract": "contracts/crowdfunding.sol:CrowdFunding",
						"label": "goal",
						"offset": 0,
						"slot": "5",
						"type": "t_uint256"
					},
					{
						"astId": 17,
						"contract": "contracts/crowdfunding.sol:CrowdFunding",
						"label": "raisedAmount",
						"offset": 0,
						"slot": "6",
						"type": "t_uint256"
					},
					{
						"astId": 37,
						"contract": "contracts/crowdfunding.sol:CrowdFunding",
						"label": "requests",
						"offset": 0,
						"slot": "7",
						"type": "t_mapping(t_uint256,t_struct(Request)32_storage)"
					},
					{
						"astId": 39,
						"contract": "contracts/crowdfunding.sol:CrowdFunding",
						"label": "numRequests",
						"offset": 0,
						"slot": "8",
						"type": "t_uint256"
					},
					{
						"astId": 48,
						"contract": "contracts/crowdfunding.sol:CrowdFunding",
						"label": "fundingState",
						"offset": 0,
						"slot": "9",
						"type": "t_enum(State)45"
					}
				],
				"types": {
					"t_address": {
						"encoding": "inplace",
						"label": "address",
						"numberOfBytes": "20"
					},
					"t_address_payable": {
						"encoding": "inplace",
						"label": "address payable",
						"numberOfBytes": "20"
					},
					"t_bool": {
						"encoding": "inplace",
						"label": "bool",
						"numberOfBytes": "1"
					},
					"t_enum(State)45": {
						"encoding": "inplace",
						"label": "enum CrowdFunding.State",
						"numberOfBytes": "1"
					},
					"t_mapping(t_address,t_bool)": {
						"encoding": "mapping",
						"key": "t_address",
						"label": "mapping(address => bool)",
						"numberOfBytes": "32",
						"value": "t_bool"
					},
					"t_mapping(t_address,t_uint256)": {
						"encoding": "mapping",
						"key": "t_address",
						"label": "mapping(address => uint256)",
						"numberOfBytes": "32",
						"value": "t_uint256"
					},
					"t_mapping(t_uint256,t_struct(Request)32_storage)": {
						"encoding": "mapping",
						"key": "t_uint256",
						"label": "mapping(uint256 => struct CrowdFunding.Request)",
						"numberOfBytes": "32",
						"value": "t_struct(Request)32_storage"
					},
					"t_string_storage": {
						"encoding": "bytes",
						"label": "string",
						"numberOfBytes": "32"
					},
					"t_struct(Request)32_storage": {
						"encoding": "inplace",
						"label": "struct CrowdFunding.Request",
						"members": [
							{
								"astId": 19,
								"contract": "contracts/crowdfunding.sol:CrowdFunding",
								"label": "description",
								"offset": 0,
								"slot": "0",
								"type": "t_string_storage"
							},
							{
								"astId": 21,
								"contract": "contracts/crowdfunding.sol:CrowdFunding",
								"label": "recipient",
								"offset": 0,
								"slot": "1",
								"type": "t_address_payable"
							},
							{
								"astId": 23,
								"contract": "contracts/crowdfunding.sol:CrowdFunding",
								"label": "value",
								"offset": 0,
								"slot": "2",
								"type": "t_uint256"
							},
							{
								"astId": 25,
								"contract": "contracts/crowdfunding.sol:CrowdFunding",
								"label": "completed",
								"offset": 0,
								"slot": "3",
								"type": "t_bool"
							},
							{
								"astId": 27,
								"contract": "contracts/crowdfunding.sol:CrowdFunding",
								"label": "numOfVoters",
								"offset": 0,
								"slot": "4",
								"type": "t_uint256"
							},
							{
								"astId": 31,
								"contract": "contracts/crowdfunding.sol:CrowdFunding",
								"label": "voters",
								"offset": 0,
								"slot": "5",
								"type": "t_mapping(t_address,t_bool)"
							}
						],
						"numberOfBytes": "192"
					},
					"t_uint256": {
						"encoding": "inplace",
						"label": "uint256",
						"numberOfBytes": "32"
					}
				}
			},
			"userdoc": {
				"kind": "user",
				"methods": {},
				"version": 1
			}
		}
	}
}