{
	"contracts/crowdfunding.sol": {
		"CrowdFunding": {
			"abi": [
				{
					"inputs": [
						{
							"internalType": "uint256",
							"name": "_goal",
							"type": "uint256"
						},
						{
							"internalType": "uint256",
							"name": "_deadline",
							"type": "uint256"
						}
					],
					"stateMutability": "nonpayable",
					"type": "constructor"
				},
				{
					"anonymous": false,
					"inputs": [
						{
							"indexed": false,
							"internalType": "address",
							"name": "_sender",
							"type": "address"
						},
						{
							"indexed": false,
							"internalType": "uint256",
							"name": "_value",
							"type": "uint256"
						}
					],
					"name": "ContributeEvent",
					"type": "event"
				},
				{
					"anonymous": false,
					"inputs": [
						{
							"indexed": false,
							"internalType": "string",
							"name": "_description",
							"type": "string"
						},
						{
							"indexed": false,
							"internalType": "address",
							"name": "_recipient",
							"type": "address"
						},
						{
							"indexed": false,
							"internalType": "uint256",
							"name": "_value",
							"type": "uint256"
						}
					],
					"name": "CreateRequestEvent",
					"type": "event"
				},
				{
					"anonymous": false,
					"inputs": [
						{
							"indexed": false,
							"internalType": "address",
							"name": "_recipient",
							"type": "address"
						},
						{
							"indexed": false,
							"internalType": "uint256",
							"name": "_value",
							"type": "uint256"
						}
					],
					"name": "MakePaymentEvent",
					"type": "event"
				},
				{
					"inputs": [
						{
							"internalType": "string",
							"name": "_description",
							"type": "string"
						},
						{
							"internalType": "address payable",
							"name": "_recipient",
							"type": "address"
						},
						{
							"internalType": "uint256",
							"name": "_value",
							"type": "uint256"
						}
					],
					"name": "addRequest",
					"outputs": [],
					"stateMutability": "nonpayable",
					"type": "function"
				},
				{
					"inputs": [],
					"name": "admin",
					"outputs": [
						{
							"internalType": "address",
							"name": "",
							"type": "address"
						}
					],
					"stateMutability": "view",
					"type": "function"
				},
				{
					"inputs": [],
					"name": "contribute",
					"outputs": [],
					"stateMutability": "payable",
					"type": "function"
				},
				{
					"inputs": [
						{
							"internalType": "address",
							"name": "",
							"type": "address"
						}
					],
					"name": "contributors",
					"outputs": [
						{
							"internalType": "uint256",
							"name": "",
							"type": "uint256"
						}
					],
					"stateMutability": "view",
					"type": "function"
				},
				{
					"inputs": [],
					"name": "deadline",
					"outputs": [
						{
							"internalType": "uint256",
							"name": "",
							"type": "uint256"
						}
					],
					"stateMutability": "view",
					"type": "function"
				},
				{
					"inputs": [],
					"name": "fundingState",
					"outputs": [
						{
							"internalType": "enum CrowdFunding.State",
							"name": "",
							"type": "uint8"
						}
					],
					"stateMutability": "view",
					"type": "function"
				},
				{
					"inputs": [],
					"name": "getBalance",
					"outputs": [
						{
							"internalType": "uint256",
							"name": "",
							"type": "uint256"
						}
					],
					"stateMutability": "view",
					"type": "function"
				},
				{
					"inputs": [],
					"name": "goal",
					"outputs": [
						{
							"internalType": "uint256",
							"name": "",
							"type": "uint256"
						}
					],
					"stateMutability": "view",
					"type": "function"
				},
				{
					"inputs": [
						{
							"internalType": "uint256",
							"name": "_requestNumber",
							"type": "uint256"
						}
					],
					"name": "makePayment",
					"outputs": [],
					"stateMutability": "nonpayable",
					"type": "function"
				},
				{
					"inputs": [],
					"name": "minContribution",
					"outputs": [
						{
							"internalType": "uint256",
							"name": "",
							"type": "uint256"
						}
					],
					"stateMutability": "view",
					"type": "function"
				},
				{
					"inputs": [],
					"name": "numOfContributors",
					"outputs": [
						{
							"internalType": "uint256",
							"name": "",
							"type": "uint256"
						}
					],
					"stateMutability": "view",
					"type": "function"
				},
				{
					"inputs": [],
					"name": "numRequests",
					"outputs": [
						{
							"internalType": "uint256",
							"name": "",
							"type": "uint256"
						}
					],
					"stateMutability": "view",
					"type": "function"
				},
				{
					"inputs": [],
					"name": "raisedAmount",
					"outputs": [
						{
							"internalType": "uint256",
							"name": "",
							"type": "uint256"
						}
					],
					"stateMutability": "view",
					"type": "function"
				},
				{
					"inputs": [],
					"name": "requestRefund",
					"outputs": [],
					"stateMutability": "payable",
					"type": "function"
				},
				{
					"inputs": [
						{
							"internalType": "uint256",
							"name": "",
							"type": "uint256"
						}
					],
					"name": "requests",
					"outputs": [
						{
							"internalType": "string",
							"name": "description",
							"type": "string"
						},
						{
							"internalType": "address payable",
							"name": "recipient",
							"type": "address"
						},
						{
							"internalType": "uint256",
							"name": "value",
							"type": "uint256"
						},
						{
							"internalType": "bool",
							"name": "completed",
							"type": "bool"
						},
						{
							"internalType": "uint256",
							"name": "numOfVoters",
							"type": "uint256"
						}
					],
					"stateMutability": "view",
					"type": "function"
				},
				{
					"inputs": [],
					"name": "startCampaign",
					"outputs": [],
					"stateMutability": "nonpayable",
					"type": "function"
				},
				{
					"inputs": [
						{
							"internalType": "uint256",
							"name": "_requestNumber",
							"type": "uint256"
						}
					],
					"name": "voteRequest",
					"outputs": [],
					"stateMutability": "nonpayable",
					"type": "function"
				},
				{
					"stateMutability": "payable",
					"type": "receive"
				}
			],
			"devdoc": {
				"kind": "dev",
				"methods": {},
				"version": 1
			},
			"evm": {
				"assembly": "    /* \"contracts/crowdfunding.sol\":73:3842  contract CrowdFunding{\r... */\n  mstore(0x40, 0x80)\n    /* \"contracts/crowdfunding.sol\":719:970  constructor(uint _goal, uint _deadline){\r... */\n  callvalue\n  dup1\n  iszero\n  tag_1\n  jumpi\n  0x00\n  dup1\n  revert\ntag_1:\n  pop\n  mload(0x40)\n  sub(codesize, bytecodeSize)\n  dup1\n  bytecodeSize\n  dup4\n  codecopy\n  dup2\n  dup2\n  add\n  0x40\n  mstore\n  dup2\n  add\n  swap1\n  tag_2\n  swap2\n  swap1\n  tag_3\n  jump\t// in\ntag_2:\n    /* \"contracts/crowdfunding.sol\":777:787  msg.sender */\n  caller\n    /* \"contracts/crowdfunding.sol\":769:774  admin */\n  0x01\n  0x00\n    /* \"contracts/crowdfunding.sol\":769:787  admin = msg.sender */\n  0x0100\n  exp\n  dup2\n  sload\n  dup2\n  0xffffffffffffffffffffffffffffffffffffffff\n  mul\n  not\n  and\n  swap1\n  dup4\n  0xffffffffffffffffffffffffffffffffffffffff\n  and\n  mul\n  or\n  swap1\n  sstore\n  pop\n    /* \"contracts/crowdfunding.sol\":813:823  State.INIT */\n  0x00\n    /* \"contracts/crowdfunding.sol\":798:810  fundingState */\n  0x09\n  0x00\n    /* \"contracts/crowdfunding.sol\":798:823  fundingState = State.INIT */\n  0x0100\n  exp\n  dup2\n  sload\n  dup2\n  0xff\n  mul\n  not\n  and\n  swap1\n  dup4\n  0x04\n  dup2\n  gt\n  iszero\n  tag_6\n  jumpi\n  tag_7\n  tag_8\n  jump\t// in\ntag_7:\ntag_6:\n  mul\n  or\n  swap1\n  sstore\n  pop\n    /* \"contracts/crowdfunding.sol\":841:846  _goal */\n  dup2\n    /* \"contracts/crowdfunding.sol\":834:838  goal */\n  0x05\n    /* \"contracts/crowdfunding.sol\":834:846  goal = _goal */\n  dup2\n  swap1\n  sstore\n  pop\n    /* \"contracts/crowdfunding.sol\":885:894  _deadline */\n  dup1\n    /* \"contracts/crowdfunding.sol\":868:883  block.timestamp */\n  timestamp\n    /* \"contracts/crowdfunding.sol\":868:894  block.timestamp+ _deadline */\n  tag_9\n  swap2\n  swap1\n  tag_10\n  jump\t// in\ntag_9:\n    /* \"contracts/crowdfunding.sol\":857:865  deadline */\n  0x04\n    /* \"contracts/crowdfunding.sol\":857:894  deadline = block.timestamp+ _deadline */\n  dup2\n  swap1\n  sstore\n  pop\n    /* \"contracts/crowdfunding.sol\":923:930  100 wei */\n  0x64\n    /* \"contracts/crowdfunding.sol\":905:920  minContribution */\n  0x03\n    /* \"contracts/crowdfunding.sol\":905:930  minContribution = 100 wei */\n  dup2\n  swap1\n  sstore\n  pop\n    /* \"contracts/crowdfunding.sol\":961:962  0 */\n  0x00\n    /* \"contracts/crowdfunding.sol\":941:958  numOfContributors */\n  0x02\n    /* \"contracts/crowdfunding.sol\":941:962  numOfContributors = 0 */\n  dup2\n  swap1\n  sstore\n  pop\n    /* \"contracts/crowdfunding.sol\":719:970  constructor(uint _goal, uint _deadline){\r... */\n  pop\n  pop\n    /* \"contracts/crowdfunding.sol\":73:3842  contract CrowdFunding{\r... */\n  jump(tag_11)\n    /* \"#utility.yul\":7:150   */\ntag_13:\n    /* \"#utility.yul\":64:69   */\n  0x00\n    /* \"#utility.yul\":95:101   */\n  dup2\n    /* \"#utility.yul\":89:102   */\n  mload\n    /* \"#utility.yul\":80:102   */\n  swap1\n  pop\n    /* \"#utility.yul\":111:144   */\n  tag_15\n    /* \"#utility.yul\":138:143   */\n  dup2\n    /* \"#utility.yul\":111:144   */\n  tag_16\n  jump\t// in\ntag_15:\n    /* \"#utility.yul\":7:150   */\n  swap3\n  swap2\n  pop\n  pop\n  jump\t// out\n    /* \"#utility.yul\":156:663   */\ntag_3:\n    /* \"#utility.yul\":235:241   */\n  0x00\n    /* \"#utility.yul\":243:249   */\n  dup1\n    /* \"#utility.yul\":292:294   */\n  0x40\n    /* \"#utility.yul\":280:289   */\n  dup4\n    /* \"#utility.yul\":271:278   */\n  dup6\n    /* \"#utility.yul\":267:290   */\n  sub\n    /* \"#utility.yul\":263:295   */\n  slt\n    /* \"#utility.yul\":260:379   */\n  iszero\n  tag_18\n  jumpi\n    /* \"#utility.yul\":298:377   */\n  tag_19\n  tag_20\n  jump\t// in\ntag_19:\n    /* \"#utility.yul\":260:379   */\ntag_18:\n    /* \"#utility.yul\":418:419   */\n  0x00\n    /* \"#utility.yul\":443:507   */\n  tag_21\n    /* \"#utility.yul\":499:506   */\n  dup6\n    /* \"#utility.yul\":490:496   */\n  dup3\n    /* \"#utility.yul\":479:488   */\n  dup7\n    /* \"#utility.yul\":475:497   */\n  add\n    /* \"#utility.yul\":443:507   */\n  tag_13\n  jump\t// in\ntag_21:\n    /* \"#utility.yul\":433:507   */\n  swap3\n  pop\n    /* \"#utility.yul\":389:517   */\n  pop\n    /* \"#utility.yul\":556:558   */\n  0x20\n    /* \"#utility.yul\":582:646   */\n  tag_22\n    /* \"#utility.yul\":638:645   */\n  dup6\n    /* \"#utility.yul\":629:635   */\n  dup3\n    /* \"#utility.yul\":618:627   */\n  dup7\n    /* \"#utility.yul\":614:636   */\n  add\n    /* \"#utility.yul\":582:646   */\n  tag_13\n  jump\t// in\ntag_22:\n    /* \"#utility.yul\":572:646   */\n  swap2\n  pop\n    /* \"#utility.yul\":527:656   */\n  pop\n    /* \"#utility.yul\":156:663   */\n  swap3\n  pop\n  swap3\n  swap1\n  pop\n  jump\t// out\n    /* \"#utility.yul\":750:1055   */\ntag_10:\n    /* \"#utility.yul\":790:793   */\n  0x00\n    /* \"#utility.yul\":809:829   */\n  tag_26\n    /* \"#utility.yul\":827:828   */\n  dup3\n    /* \"#utility.yul\":809:829   */\n  tag_27\n  jump\t// in\ntag_26:\n    /* \"#utility.yul\":804:829   */\n  swap2\n  pop\n    /* \"#utility.yul\":843:863   */\n  tag_28\n    /* \"#utility.yul\":861:862   */\n  dup4\n    /* \"#utility.yul\":843:863   */\n  tag_27\n  jump\t// in\ntag_28:\n    /* \"#utility.yul\":838:863   */\n  swap3\n  pop\n    /* \"#utility.yul\":997:998   */\n  dup3\n    /* \"#utility.yul\":929:995   */\n  0xffffffffffffffffffffffffffffffffffffffffffffffffffffffffffffffff\n    /* \"#utility.yul\":925:999   */\n  sub\n    /* \"#utility.yul\":922:923   */\n  dup3\n    /* \"#utility.yul\":919:1000   */\n  gt\n    /* \"#utility.yul\":916:1023   */\n  iszero\n  tag_29\n  jumpi\n    /* \"#utility.yul\":1003:1021   */\n  tag_30\n  tag_31\n  jump\t// in\ntag_30:\n    /* \"#utility.yul\":916:1023   */\ntag_29:\n    /* \"#utility.yul\":1047:1048   */\n  dup3\n    /* \"#utility.yul\":1044:1045   */\n  dup3\n    /* \"#utility.yul\":1040:1049   */\n  add\n    /* \"#utility.yul\":1033:1049   */\n  swap1\n  pop\n    /* \"#utility.yul\":750:1055   */\n  swap3\n  swap2\n  pop\n  pop\n  jump\t// out\n    /* \"#utility.yul\":1061:1138   */\ntag_27:\n    /* \"#utility.yul\":1098:1105   */\n  0x00\n    /* \"#utility.yul\":1127:1132   */\n  dup2\n    /* \"#utility.yul\":1116:1132   */\n  swap1\n  pop\n    /* \"#utility.yul\":1061:1138   */\n  swap2\n  swap1\n  pop\n  jump\t// out\n    /* \"#utility.yul\":1144:1324   */\ntag_31:\n    /* \"#utility.yul\":1192:1269   */\n  0x4e487b7100000000000000000000000000000000000000000000000000000000\n    /* \"#utility.yul\":1189:1190   */\n  0x00\n    /* \"#utility.yul\":1182:1270   */\n  mstore\n    /* \"#utility.yul\":1289:1293   */\n  0x11\n    /* \"#utility.yul\":1286:1287   */\n  0x04\n    /* \"#utility.yul\":1279:1294   */\n  mstore\n    /* \"#utility.yul\":1313:1317   */\n  0x24\n    /* \"#utility.yul\":1310:1311   */\n  0x00\n    /* \"#utility.yul\":1303:1318   */\n  revert\n    /* \"#utility.yul\":1330:1510   */\ntag_8:\n    /* \"#utility.yul\":1378:1455   */\n  0x4e487b7100000000000000000000000000000000000000000000000000000000\n    /* \"#utility.yul\":1375:1376   */\n  0x00\n    /* \"#utility.yul\":1368:1456   */\n  mstore\n    /* \"#utility.yul\":1475:1479   */\n  0x21\n    /* \"#utility.yul\":1472:1473   */\n  0x04\n    /* \"#utility.yul\":1465:1480   */\n  mstore\n    /* \"#utility.yul\":1499:1503   */\n  0x24\n    /* \"#utility.yul\":1496:1497   */\n  0x00\n    /* \"#utility.yul\":1489:1504   */\n  revert\n    /* \"#utility.yul\":1639:1756   */\ntag_20:\n    /* \"#utility.yul\":1748:1749   */\n  0x00\n    /* \"#utility.yul\":1745:1746   */\n  dup1\n    /* \"#utility.yul\":1738:1750   */\n  revert\n    /* \"#utility.yul\":1762:1884   */\ntag_16:\n    /* \"#utility.yul\":1835:1859   */\n  tag_39\n    /* \"#utility.yul\":1853:1858   */\n  dup2\n    /* \"#utility.yul\":1835:1859   */\n  tag_27\n  jump\t// in\ntag_39:\n    /* \"#utility.yul\":1828:1833   */\n  dup2\n    /* \"#utility.yul\":1825:1860   */\n  eq\n    /* \"#utility.yul\":1815:1878   */\n  tag_40\n  jumpi\n    /* \"#utility.yul\":1874:1875   */\n  0x00\n    /* \"#utility.yul\":1871:1872   */\n  dup1\n    /* \"#utility.yul\":1864:1876   */\n  revert\n    /* \"#utility.yul\":1815:1878   */\ntag_40:\n    /* \"#utility.yul\":1762:1884   */\n  pop\n  jump\t// out\n    /* \"contracts/crowdfunding.sol\":73:3842  contract CrowdFunding{\r... */\ntag_11:\n  dataSize(sub_0)\n  dup1\n  dataOffset(sub_0)\n  0x00\n  codecopy\n  0x00\n  return\nstop\n\nsub_0: assembly {\n        /* \"contracts/crowdfunding.sol\":73:3842  contract CrowdFunding{\r... */\n      mstore(0x40, 0x80)\n      jumpi(tag_1, lt(calldatasize, 0x04))\n      shr(0xe0, calldataload(0x00))\n      dup1\n      0x81d12c58\n      gt\n      tag_20\n      jumpi\n      dup1\n      0xb25cdccf\n      gt\n      tag_21\n      jumpi\n      dup1\n      0xb25cdccf\n      eq\n      tag_15\n      jumpi\n      dup1\n      0xc59ee1dc\n      eq\n      tag_16\n      jumpi\n      dup1\n      0xd5cef133\n      eq\n      tag_17\n      jumpi\n      dup1\n      0xd7bb99ba\n      eq\n      tag_18\n      jumpi\n      dup1\n      0xf851a440\n      eq\n      tag_19\n      jumpi\n      jump(tag_2)\n    tag_21:\n      dup1\n      0x81d12c58\n      eq\n      tag_11\n      jumpi\n      dup1\n      0x9fb42b1f\n      eq\n      tag_12\n      jumpi\n      dup1\n      0xa8b78ed0\n      eq\n      tag_13\n      jumpi\n      dup1\n      0xaaffadf3\n      eq\n      tag_14\n      jumpi\n      jump(tag_2)\n    tag_20:\n      dup1\n      0x40193883\n      gt\n      tag_22\n      jumpi\n      dup1\n      0x40193883\n      eq\n      tag_7\n      jumpi\n      dup1\n      0x4b5e7d70\n      eq\n      tag_8\n      jumpi\n      dup1\n      0x4cb6f4a5\n      eq\n      tag_9\n      jumpi\n      dup1\n      0x5114cb52\n      eq\n      tag_10\n      jumpi\n      jump(tag_2)\n    tag_22:\n      dup1\n      0x12065fe0\n      eq\n      tag_3\n      jumpi\n      dup1\n      0x1e206f15\n      eq\n      tag_4\n      jumpi\n      dup1\n      0x1f6d4942\n      eq\n      tag_5\n      jumpi\n      dup1\n      0x29dcb0cf\n      eq\n      tag_6\n      jumpi\n      jump(tag_2)\n    tag_1:\n      jumpi(tag_2, calldatasize)\n        /* \"contracts/crowdfunding.sol\":1789:1801  contribute() */\n      tag_25\n        /* \"contracts/crowdfunding.sol\":1789:1799  contribute */\n      tag_26\n        /* \"contracts/crowdfunding.sol\":1789:1801  contribute() */\n      jump\t// in\n    tag_25:\n        /* \"contracts/crowdfunding.sol\":73:3842  contract CrowdFunding{\r... */\n      stop\n    tag_2:\n      0x00\n      dup1\n      revert\n        /* \"contracts/crowdfunding.sol\":2290:2384  function getBalance() public view returns(uint){\r... */\n    tag_3:\n      callvalue\n      dup1\n      iszero\n      tag_27\n      jumpi\n      0x00\n      dup1\n      revert\n    tag_27:\n      pop\n      tag_28\n      tag_29\n      jump\t// in\n    tag_28:\n      mload(0x40)\n      tag_30\n      swap2\n      swap1\n      tag_31\n      jump\t// in\n    tag_30:\n      mload(0x40)\n      dup1\n      swap2\n      sub\n      swap1\n      return\n        /* \"contracts/crowdfunding.sol\":181:210  uint public numOfContributors */\n    tag_4:\n      callvalue\n      dup1\n      iszero\n      tag_32\n      jumpi\n      0x00\n      dup1\n      revert\n    tag_32:\n      pop\n      tag_33\n      tag_34\n      jump\t// in\n    tag_33:\n      mload(0x40)\n      tag_35\n      swap2\n      swap1\n      tag_31\n      jump\t// in\n    tag_35:\n      mload(0x40)\n      dup1\n      swap2\n      sub\n      swap1\n      return\n        /* \"contracts/crowdfunding.sol\":103:147  mapping(address => uint) public contributors */\n    tag_5:\n      callvalue\n      dup1\n      iszero\n      tag_36\n      jumpi\n      0x00\n      dup1\n      revert\n    tag_36:\n      pop\n      tag_37\n      0x04\n      dup1\n      calldatasize\n      sub\n      dup2\n      add\n      swap1\n      tag_38\n      swap2\n      swap1\n      tag_39\n      jump\t// in\n    tag_38:\n      tag_40\n      jump\t// in\n    tag_37:\n      mload(0x40)\n      tag_41\n      swap2\n      swap1\n      tag_31\n      jump\t// in\n    tag_41:\n      mload(0x40)\n      dup1\n      swap2\n      sub\n      swap1\n      return\n        /* \"contracts/crowdfunding.sol\":251:271  uint public deadline */\n    tag_6:\n      callvalue\n      dup1\n      iszero\n      tag_42\n      jumpi\n      0x00\n      dup1\n      revert\n    tag_42:\n      pop\n      tag_43\n      tag_44\n      jump\t// in\n    tag_43:\n      mload(0x40)\n      tag_45\n      swap2\n      swap1\n      tag_31\n      jump\t// in\n    tag_45:\n      mload(0x40)\n      dup1\n      swap2\n      sub\n      swap1\n      return\n        /* \"contracts/crowdfunding.sol\":278:294  uint public goal */\n    tag_7:\n      callvalue\n      dup1\n      iszero\n      tag_46\n      jumpi\n      0x00\n      dup1\n      revert\n    tag_46:\n      pop\n      tag_47\n      tag_48\n      jump\t// in\n    tag_47:\n      mload(0x40)\n      tag_49\n      swap2\n      swap1\n      tag_31\n      jump\t// in\n    tag_49:\n      mload(0x40)\n      dup1\n      swap2\n      sub\n      swap1\n      return\n        /* \"contracts/crowdfunding.sol\":2713:3145  function addRequest(string memory _description, address payable _recipient,uint _value ) public adminOnly{\r... */\n    tag_8:\n      callvalue\n      dup1\n      iszero\n      tag_50\n      jumpi\n      0x00\n      dup1\n      revert\n    tag_50:\n      pop\n      tag_51\n      0x04\n      dup1\n      calldatasize\n      sub\n      dup2\n      add\n      swap1\n      tag_52\n      swap2\n      swap1\n      tag_53\n      jump\t// in\n    tag_52:\n      tag_54\n      jump\t// in\n    tag_51:\n      stop\n        /* \"contracts/crowdfunding.sol\":3153:3423  function voteRequest(uint _requestNumber) public onlyContributor {\r... */\n    tag_9:\n      callvalue\n      dup1\n      iszero\n      tag_55\n      jumpi\n      0x00\n      dup1\n      revert\n    tag_55:\n      pop\n      tag_56\n      0x04\n      dup1\n      calldatasize\n      sub\n      dup2\n      add\n      swap1\n      tag_57\n      swap2\n      swap1\n      tag_58\n      jump\t// in\n    tag_57:\n      tag_59\n      jump\t// in\n    tag_56:\n      stop\n        /* \"contracts/crowdfunding.sol\":3431:3837  function makePayment(uint _requestNumber) public adminOnly {\r... */\n    tag_10:\n      callvalue\n      dup1\n      iszero\n      tag_60\n      jumpi\n      0x00\n      dup1\n      revert\n    tag_60:\n      pop\n      tag_61\n      0x04\n      dup1\n      calldatasize\n      sub\n      dup2\n      add\n      swap1\n      tag_62\n      swap2\n      swap1\n      tag_58\n      jump\t// in\n    tag_62:\n      tag_63\n      jump\t// in\n    tag_61:\n      stop\n        /* \"contracts/crowdfunding.sol\":546:586  mapping(uint => Request) public requests */\n    tag_11:\n      callvalue\n      dup1\n      iszero\n      tag_64\n      jumpi\n      0x00\n      dup1\n      revert\n    tag_64:\n      pop\n      tag_65\n      0x04\n      dup1\n      calldatasize\n      sub\n      dup2\n      add\n      swap1\n      tag_66\n      swap2\n      swap1\n      tag_58\n      jump\t// in\n    tag_66:\n      tag_67\n      jump\t// in\n    tag_65:\n      mload(0x40)\n      tag_68\n      swap6\n      swap5\n      swap4\n      swap3\n      swap2\n      swap1\n      tag_69\n      jump\t// in\n    tag_68:\n      mload(0x40)\n      dup1\n      swap2\n      sub\n      swap1\n      return\n        /* \"contracts/crowdfunding.sol\":593:616  uint public numRequests */\n    tag_12:\n      callvalue\n      dup1\n      iszero\n      tag_70\n      jumpi\n      0x00\n      dup1\n      revert\n    tag_70:\n      pop\n      tag_71\n      tag_72\n      jump\t// in\n    tag_71:\n      mload(0x40)\n      tag_73\n      swap2\n      swap1\n      tag_31\n      jump\t// in\n    tag_73:\n      mload(0x40)\n      dup1\n      swap2\n      sub\n      swap1\n      return\n        /* \"contracts/crowdfunding.sol\":1817:1905  function startCampaign() public adminOnly{\r... */\n    tag_13:\n      callvalue\n      dup1\n      iszero\n      tag_74\n      jumpi\n      0x00\n      dup1\n      revert\n    tag_74:\n      pop\n      tag_75\n      tag_76\n      jump\t// in\n    tag_75:\n      stop\n        /* \"contracts/crowdfunding.sol\":217:244  uint public minContribution */\n    tag_14:\n      callvalue\n      dup1\n      iszero\n      tag_77\n      jumpi\n      0x00\n      dup1\n      revert\n    tag_77:\n      pop\n      tag_78\n      tag_79\n      jump\t// in\n    tag_78:\n      mload(0x40)\n      tag_80\n      swap2\n      swap1\n      tag_31\n      jump\t// in\n    tag_80:\n      mload(0x40)\n      dup1\n      swap2\n      sub\n      swap1\n      return\n        /* \"contracts/crowdfunding.sol\":685:710  State public fundingState */\n    tag_15:\n      callvalue\n      dup1\n      iszero\n      tag_81\n      jumpi\n      0x00\n      dup1\n      revert\n    tag_81:\n      pop\n      tag_82\n      tag_83\n      jump\t// in\n    tag_82:\n      mload(0x40)\n      tag_84\n      swap2\n      swap1\n      tag_85\n      jump\t// in\n    tag_84:\n      mload(0x40)\n      dup1\n      swap2\n      sub\n      swap1\n      return\n        /* \"contracts/crowdfunding.sol\":301:325  uint public raisedAmount */\n    tag_16:\n      callvalue\n      dup1\n      iszero\n      tag_86\n      jumpi\n      0x00\n      dup1\n      revert\n    tag_86:\n      pop\n      tag_87\n      tag_88\n      jump\t// in\n    tag_87:\n      mload(0x40)\n      tag_89\n      swap2\n      swap1\n      tag_31\n      jump\t// in\n    tag_89:\n      mload(0x40)\n      dup1\n      swap2\n      sub\n      swap1\n      return\n        /* \"contracts/crowdfunding.sol\":2396:2705  function requestRefund() public payable onlyContributor{\r... */\n    tag_17:\n      tag_90\n      tag_91\n      jump\t// in\n    tag_90:\n      stop\n        /* \"contracts/crowdfunding.sol\":1913:2282  function contribute() public payable campaignRunning{\r... */\n    tag_18:\n      tag_92\n      tag_26\n      jump\t// in\n    tag_92:\n      stop\n        /* \"contracts/crowdfunding.sol\":154:174  address public admin */\n    tag_19:\n      callvalue\n      dup1\n      iszero\n      tag_93\n      jumpi\n      0x00\n      dup1\n      revert\n    tag_93:\n      pop\n      tag_94\n      tag_95\n      jump\t// in\n    tag_94:\n      mload(0x40)\n      tag_96\n      swap2\n      swap1\n      tag_97\n      jump\t// in\n    tag_96:\n      mload(0x40)\n      dup1\n      swap2\n      sub\n      swap1\n      return\n        /* \"contracts/crowdfunding.sol\":1913:2282  function contribute() public payable campaignRunning{\r... */\n    tag_26:\n        /* \"contracts/crowdfunding.sol\":1367:1380  State.RUNNING */\n      0x02\n        /* \"contracts/crowdfunding.sol\":1351:1380  fundingState == State.RUNNING */\n      0x04\n      dup2\n      gt\n      iszero\n      tag_99\n      jumpi\n      tag_100\n      tag_101\n      jump\t// in\n    tag_100:\n    tag_99:\n        /* \"contracts/crowdfunding.sol\":1351:1363  fundingState */\n      0x09\n      0x00\n      swap1\n      sload\n      swap1\n      0x0100\n      exp\n      swap1\n      div\n      0xff\n      and\n        /* \"contracts/crowdfunding.sol\":1351:1380  fundingState == State.RUNNING */\n      0x04\n      dup2\n      gt\n      iszero\n      tag_102\n      jumpi\n      tag_103\n      tag_101\n      jump\t// in\n    tag_103:\n    tag_102:\n      eq\n        /* \"contracts/crowdfunding.sol\":1343:1412  require(fundingState == State.RUNNING, \"CrowdFunding is not running\") */\n      tag_104\n      jumpi\n      mload(0x40)\n      0x08c379a000000000000000000000000000000000000000000000000000000000\n      dup2\n      mstore\n      0x04\n      add\n      tag_105\n      swap1\n      tag_106\n      jump\t// in\n    tag_105:\n      mload(0x40)\n      dup1\n      swap2\n      sub\n      swap1\n      revert\n    tag_104:\n        /* \"contracts/crowdfunding.sol\":1450:1458  deadline */\n      sload(0x04)\n        /* \"contracts/crowdfunding.sol\":1431:1446  block.timestamp */\n      timestamp\n        /* \"contracts/crowdfunding.sol\":1431:1458  block.timestamp <= deadline */\n      gt\n      iszero\n        /* \"contracts/crowdfunding.sol\":1423:1478  require(block.timestamp <= deadline, \"deadline passed\") */\n      tag_107\n      jumpi\n      mload(0x40)\n      0x08c379a000000000000000000000000000000000000000000000000000000000\n      dup2\n      mstore\n      0x04\n      add\n      tag_108\n      swap1\n      tag_109\n      jump\t// in\n    tag_108:\n      mload(0x40)\n      dup1\n      swap2\n      sub\n      swap1\n      revert\n    tag_107:\n        /* \"contracts/crowdfunding.sol\":1997:2012  minContribution */\n      sload(0x03)\n        /* \"contracts/crowdfunding.sol\":1984:1993  msg.value */\n      callvalue\n        /* \"contracts/crowdfunding.sol\":1984:2012  msg.value >= minContribution */\n      lt\n      iszero\n        /* \"contracts/crowdfunding.sol\":1976:2045  require(msg.value >= minContribution, \"didnt reach min contribution\") */\n      tag_111\n      jumpi\n      mload(0x40)\n      0x08c379a000000000000000000000000000000000000000000000000000000000\n      dup2\n      mstore\n      0x04\n      add\n      tag_112\n      swap1\n      tag_113\n      jump\t// in\n    tag_112:\n      mload(0x40)\n      dup1\n      swap2\n      sub\n      swap1\n      revert\n    tag_111:\n        /* \"contracts/crowdfunding.sol\":2087:2088  0 */\n      0x00\n        /* \"contracts/crowdfunding.sol\":2059:2071  contributors */\n      dup1\n        /* \"contracts/crowdfunding.sol\":2059:2083  contributors[msg.sender] */\n      0x00\n        /* \"contracts/crowdfunding.sol\":2072:2082  msg.sender */\n      caller\n        /* \"contracts/crowdfunding.sol\":2059:2083  contributors[msg.sender] */\n      0xffffffffffffffffffffffffffffffffffffffff\n      and\n      0xffffffffffffffffffffffffffffffffffffffff\n      and\n      dup2\n      mstore\n      0x20\n      add\n      swap1\n      dup2\n      mstore\n      0x20\n      add\n      0x00\n      keccak256\n      sload\n        /* \"contracts/crowdfunding.sol\":2059:2088  contributors[msg.sender] == 0 */\n      eq\n        /* \"contracts/crowdfunding.sol\":2056:2135  if(contributors[msg.sender] == 0){\r... */\n      iszero\n      tag_114\n      jumpi\n        /* \"contracts/crowdfunding.sol\":2104:2121  numOfContributors */\n      0x02\n      0x00\n        /* \"contracts/crowdfunding.sol\":2104:2123  numOfContributors++ */\n      dup2\n      sload\n      dup1\n      swap3\n      swap2\n      swap1\n      tag_115\n      swap1\n      tag_116\n      jump\t// in\n    tag_115:\n      swap2\n      swap1\n      pop\n      sstore\n      pop\n        /* \"contracts/crowdfunding.sol\":2056:2135  if(contributors[msg.sender] == 0){\r... */\n    tag_114:\n        /* \"contracts/crowdfunding.sol\":2173:2182  msg.value */\n      callvalue\n        /* \"contracts/crowdfunding.sol\":2145:2157  contributors */\n      0x00\n        /* \"contracts/crowdfunding.sol\":2145:2169  contributors[msg.sender] */\n      dup1\n        /* \"contracts/crowdfunding.sol\":2158:2168  msg.sender */\n      caller\n        /* \"contracts/crowdfunding.sol\":2145:2169  contributors[msg.sender] */\n      0xffffffffffffffffffffffffffffffffffffffff\n      and\n      0xffffffffffffffffffffffffffffffffffffffff\n      and\n      dup2\n      mstore\n      0x20\n      add\n      swap1\n      dup2\n      mstore\n      0x20\n      add\n      0x00\n      keccak256\n      0x00\n        /* \"contracts/crowdfunding.sol\":2145:2182  contributors[msg.sender] += msg.value */\n      dup3\n      dup3\n      sload\n      tag_117\n      swap2\n      swap1\n      tag_118\n      jump\t// in\n    tag_117:\n      swap3\n      pop\n      pop\n      dup2\n      swap1\n      sstore\n      pop\n        /* \"contracts/crowdfunding.sol\":2209:2218  msg.value */\n      callvalue\n        /* \"contracts/crowdfunding.sol\":2193:2205  raisedAmount */\n      0x06\n      0x00\n        /* \"contracts/crowdfunding.sol\":2193:2218  raisedAmount += msg.value */\n      dup3\n      dup3\n      sload\n      tag_119\n      swap2\n      swap1\n      tag_118\n      jump\t// in\n    tag_119:\n      swap3\n      pop\n      pop\n      dup2\n      swap1\n      sstore\n      pop\n        /* \"contracts/crowdfunding.sol\":2236:2274  ContributeEvent(msg.sender, msg.value) */\n      0x2daf61dec57a2c194e9e87958b1a40a5c236b5e8c6041655d664ddbd16c29320\n        /* \"contracts/crowdfunding.sol\":2252:2262  msg.sender */\n      caller\n        /* \"contracts/crowdfunding.sol\":2264:2273  msg.value */\n      callvalue\n        /* \"contracts/crowdfunding.sol\":2236:2274  ContributeEvent(msg.sender, msg.value) */\n      mload(0x40)\n      tag_120\n      swap3\n      swap2\n      swap1\n      tag_121\n      jump\t// in\n    tag_120:\n      mload(0x40)\n      dup1\n      swap2\n      sub\n      swap1\n      log1\n        /* \"contracts/crowdfunding.sol\":1913:2282  function contribute() public payable campaignRunning{\r... */\n      jump\t// out\n        /* \"contracts/crowdfunding.sol\":2290:2384  function getBalance() public view returns(uint){\r... */\n    tag_29:\n        /* \"contracts/crowdfunding.sol\":2332:2336  uint */\n      0x00\n        /* \"contracts/crowdfunding.sol\":2355:2376  address(this).balance */\n      selfbalance\n        /* \"contracts/crowdfunding.sol\":2348:2376  return address(this).balance */\n      swap1\n      pop\n        /* \"contracts/crowdfunding.sol\":2290:2384  function getBalance() public view returns(uint){\r... */\n      swap1\n      jump\t// out\n        /* \"contracts/crowdfunding.sol\":181:210  uint public numOfContributors */\n    tag_34:\n      sload(0x02)\n      dup2\n      jump\t// out\n        /* \"contracts/crowdfunding.sol\":103:147  mapping(address => uint) public contributors */\n    tag_40:\n      mstore(0x20, 0x00)\n      dup1\n      0x00\n      mstore\n      keccak256(0x00, 0x40)\n      0x00\n      swap2\n      pop\n      swap1\n      pop\n      sload\n      dup2\n      jump\t// out\n        /* \"contracts/crowdfunding.sol\":251:271  uint public deadline */\n    tag_44:\n      sload(0x04)\n      dup2\n      jump\t// out\n        /* \"contracts/crowdfunding.sol\":278:294  uint public goal */\n    tag_48:\n      sload(0x05)\n      dup2\n      jump\t// out\n        /* \"contracts/crowdfunding.sol\":2713:3145  function addRequest(string memory _description, address payable _recipient,uint _value ) public adminOnly{\r... */\n    tag_54:\n        /* \"contracts/crowdfunding.sol\":1238:1243  admin */\n      0x01\n      0x00\n      swap1\n      sload\n      swap1\n      0x0100\n      exp\n      swap1\n      div\n      0xffffffffffffffffffffffffffffffffffffffff\n      and\n        /* \"contracts/crowdfunding.sol\":1224:1243  msg.sender == admin */\n      0xffffffffffffffffffffffffffffffffffffffff\n      and\n        /* \"contracts/crowdfunding.sol\":1224:1234  msg.sender */\n      caller\n        /* \"contracts/crowdfunding.sol\":1224:1243  msg.sender == admin */\n      0xffffffffffffffffffffffffffffffffffffffff\n      and\n      eq\n        /* \"contracts/crowdfunding.sol\":1216:1278  require(msg.sender == admin, \"message sender is not an admin\") */\n      tag_124\n      jumpi\n      mload(0x40)\n      0x08c379a000000000000000000000000000000000000000000000000000000000\n      dup2\n      mstore\n      0x04\n      add\n      tag_125\n      swap1\n      tag_126\n      jump\t// in\n    tag_125:\n      mload(0x40)\n      dup1\n      swap2\n      sub\n      swap1\n      revert\n    tag_124:\n        /* \"contracts/crowdfunding.sol\":2829:2848  Request storage req */\n      0x00\n        /* \"contracts/crowdfunding.sol\":2851:2859  requests */\n      0x07\n        /* \"contracts/crowdfunding.sol\":2851:2872  requests[numRequests] */\n      0x00\n        /* \"contracts/crowdfunding.sol\":2860:2871  numRequests */\n      sload(0x08)\n        /* \"contracts/crowdfunding.sol\":2851:2872  requests[numRequests] */\n      dup2\n      mstore\n      0x20\n      add\n      swap1\n      dup2\n      mstore\n      0x20\n      add\n      0x00\n      keccak256\n        /* \"contracts/crowdfunding.sol\":2829:2872  Request storage req = requests[numRequests] */\n      swap1\n      pop\n        /* \"contracts/crowdfunding.sol\":2883:2894  numRequests */\n      0x08\n      0x00\n        /* \"contracts/crowdfunding.sol\":2883:2896  numRequests++ */\n      dup2\n      sload\n      dup1\n      swap3\n      swap2\n      swap1\n      tag_128\n      swap1\n      tag_116\n      jump\t// in\n    tag_128:\n      swap2\n      swap1\n      pop\n      sstore\n      pop\n        /* \"contracts/crowdfunding.sol\":2927:2939  _description */\n      dup4\n        /* \"contracts/crowdfunding.sol\":2909:2912  req */\n      dup2\n        /* \"contracts/crowdfunding.sol\":2909:2924  req.description */\n      0x00\n      add\n        /* \"contracts/crowdfunding.sol\":2909:2939  req.description = _description */\n      swap1\n      dup1\n      mload\n      swap1\n      0x20\n      add\n      swap1\n      tag_129\n      swap3\n      swap2\n      swap1\n      tag_130\n      jump\t// in\n    tag_129:\n      pop\n        /* \"contracts/crowdfunding.sol\":2966:2976  _recipient */\n      dup3\n        /* \"contracts/crowdfunding.sol\":2950:2953  req */\n      dup2\n        /* \"contracts/crowdfunding.sol\":2950:2963  req.recipient */\n      0x01\n      add\n      0x00\n        /* \"contracts/crowdfunding.sol\":2950:2976  req.recipient = _recipient */\n      0x0100\n      exp\n      dup2\n      sload\n      dup2\n      0xffffffffffffffffffffffffffffffffffffffff\n      mul\n      not\n      and\n      swap1\n      dup4\n      0xffffffffffffffffffffffffffffffffffffffff\n      and\n      mul\n      or\n      swap1\n      sstore\n      pop\n        /* \"contracts/crowdfunding.sol\":2999:3005  _value */\n      dup2\n        /* \"contracts/crowdfunding.sol\":2987:2990  req */\n      dup2\n        /* \"contracts/crowdfunding.sol\":2987:2996  req.value */\n      0x02\n      add\n        /* \"contracts/crowdfunding.sol\":2987:3005  req.value = _value */\n      dup2\n      swap1\n      sstore\n      pop\n        /* \"contracts/crowdfunding.sol\":3032:3037  false */\n      0x00\n        /* \"contracts/crowdfunding.sol\":3016:3019  req */\n      dup2\n        /* \"contracts/crowdfunding.sol\":3016:3029  req.completed */\n      0x03\n      add\n      0x00\n        /* \"contracts/crowdfunding.sol\":3016:3037  req.completed = false */\n      0x0100\n      exp\n      dup2\n      sload\n      dup2\n      0xff\n      mul\n      not\n      and\n      swap1\n      dup4\n      iszero\n      iszero\n      mul\n      or\n      swap1\n      sstore\n      pop\n        /* \"contracts/crowdfunding.sol\":3066:3067  0 */\n      0x00\n        /* \"contracts/crowdfunding.sol\":3048:3051  req */\n      dup2\n        /* \"contracts/crowdfunding.sol\":3048:3063  req.numOfVoters */\n      0x04\n      add\n        /* \"contracts/crowdfunding.sol\":3048:3067  req.numOfVoters = 0 */\n      dup2\n      swap1\n      sstore\n      pop\n        /* \"contracts/crowdfunding.sol\":3085:3137  CreateRequestEvent(_description, _recipient, _value) */\n      0x5392bd80651676ccaaedec1afbe841d47e369223df0ba1586110b6426ee87a3a\n        /* \"contracts/crowdfunding.sol\":3104:3116  _description */\n      dup5\n        /* \"contracts/crowdfunding.sol\":3118:3128  _recipient */\n      dup5\n        /* \"contracts/crowdfunding.sol\":3130:3136  _value */\n      dup5\n        /* \"contracts/crowdfunding.sol\":3085:3137  CreateRequestEvent(_description, _recipient, _value) */\n      mload(0x40)\n      tag_131\n      swap4\n      swap3\n      swap2\n      swap1\n      tag_132\n      jump\t// in\n    tag_131:\n      mload(0x40)\n      dup1\n      swap2\n      sub\n      swap1\n      log1\n        /* \"contracts/crowdfunding.sol\":2818:3145  {\r... */\n      pop\n        /* \"contracts/crowdfunding.sol\":2713:3145  function addRequest(string memory _description, address payable _recipient,uint _value ) public adminOnly{\r... */\n      pop\n      pop\n      pop\n      jump\t// out\n        /* \"contracts/crowdfunding.sol\":3153:3423  function voteRequest(uint _requestNumber) public onlyContributor {\r... */\n    tag_59:\n        /* \"contracts/crowdfunding.sol\":1693:1694  0 */\n      0x00\n        /* \"contracts/crowdfunding.sol\":1666:1678  contributors */\n      dup1\n        /* \"contracts/crowdfunding.sol\":1666:1690  contributors[msg.sender] */\n      0x00\n        /* \"contracts/crowdfunding.sol\":1679:1689  msg.sender */\n      caller\n        /* \"contracts/crowdfunding.sol\":1666:1690  contributors[msg.sender] */\n      0xffffffffffffffffffffffffffffffffffffffff\n      and\n      0xffffffffffffffffffffffffffffffffffffffff\n      and\n      dup2\n      mstore\n      0x20\n      add\n      swap1\n      dup2\n      mstore\n      0x20\n      add\n      0x00\n      keccak256\n      sload\n        /* \"contracts/crowdfunding.sol\":1666:1694  contributors[msg.sender] > 0 */\n      gt\n        /* \"contracts/crowdfunding.sol\":1658:1724  require(contributors[msg.sender] > 0, \"you are not a contributor\") */\n      tag_134\n      jumpi\n      mload(0x40)\n      0x08c379a000000000000000000000000000000000000000000000000000000000\n      dup2\n      mstore\n      0x04\n      add\n      tag_135\n      swap1\n      tag_136\n      jump\t// in\n    tag_135:\n      mload(0x40)\n      dup1\n      swap2\n      sub\n      swap1\n      revert\n    tag_134:\n        /* \"contracts/crowdfunding.sol\":3229:3248  Request storage req */\n      0x00\n        /* \"contracts/crowdfunding.sol\":3251:3259  requests */\n      0x07\n        /* \"contracts/crowdfunding.sol\":3251:3275  requests[_requestNumber] */\n      0x00\n        /* \"contracts/crowdfunding.sol\":3260:3274  _requestNumber */\n      dup4\n        /* \"contracts/crowdfunding.sol\":3251:3275  requests[_requestNumber] */\n      dup2\n      mstore\n      0x20\n      add\n      swap1\n      dup2\n      mstore\n      0x20\n      add\n      0x00\n      keccak256\n        /* \"contracts/crowdfunding.sol\":3229:3275  Request storage req = requests[_requestNumber] */\n      swap1\n      pop\n        /* \"contracts/crowdfunding.sol\":3320:3325  false */\n      0x00\n        /* \"contracts/crowdfunding.sol\":3294:3325  req.voters[msg.sender] == false */\n      iszero\n      iszero\n        /* \"contracts/crowdfunding.sol\":3294:3297  req */\n      dup2\n        /* \"contracts/crowdfunding.sol\":3294:3304  req.voters */\n      0x05\n      add\n        /* \"contracts/crowdfunding.sol\":3294:3316  req.voters[msg.sender] */\n      0x00\n        /* \"contracts/crowdfunding.sol\":3305:3315  msg.sender */\n      caller\n        /* \"contracts/crowdfunding.sol\":3294:3316  req.voters[msg.sender] */\n      0xffffffffffffffffffffffffffffffffffffffff\n      and\n      0xffffffffffffffffffffffffffffffffffffffff\n      and\n      dup2\n      mstore\n      0x20\n      add\n      swap1\n      dup2\n      mstore\n      0x20\n      add\n      0x00\n      keccak256\n      0x00\n      swap1\n      sload\n      swap1\n      0x0100\n      exp\n      swap1\n      div\n      0xff\n      and\n        /* \"contracts/crowdfunding.sol\":3294:3325  req.voters[msg.sender] == false */\n      iszero\n      iszero\n      eq\n        /* \"contracts/crowdfunding.sol\":3286:3347  require(req.voters[msg.sender] == false, \"you already voted\") */\n      tag_138\n      jumpi\n      mload(0x40)\n      0x08c379a000000000000000000000000000000000000000000000000000000000\n      dup2\n      mstore\n      0x04\n      add\n      tag_139\n      swap1\n      tag_140\n      jump\t// in\n    tag_139:\n      mload(0x40)\n      dup1\n      swap2\n      sub\n      swap1\n      revert\n    tag_138:\n        /* \"contracts/crowdfunding.sol\":3383:3387  true */\n      0x01\n        /* \"contracts/crowdfunding.sol\":3358:3361  req */\n      dup2\n        /* \"contracts/crowdfunding.sol\":3358:3368  req.voters */\n      0x05\n      add\n        /* \"contracts/crowdfunding.sol\":3358:3380  req.voters[msg.sender] */\n      0x00\n        /* \"contracts/crowdfunding.sol\":3369:3379  msg.sender */\n      caller\n        /* \"contracts/crowdfunding.sol\":3358:3380  req.voters[msg.sender] */\n      0xffffffffffffffffffffffffffffffffffffffff\n      and\n      0xffffffffffffffffffffffffffffffffffffffff\n      and\n      dup2\n      mstore\n      0x20\n      add\n      swap1\n      dup2\n      mstore\n      0x20\n      add\n      0x00\n      keccak256\n      0x00\n        /* \"contracts/crowdfunding.sol\":3358:3387  req.voters[msg.sender] = true */\n      0x0100\n      exp\n      dup2\n      sload\n      dup2\n      0xff\n      mul\n      not\n      and\n      swap1\n      dup4\n      iszero\n      iszero\n      mul\n      or\n      swap1\n      sstore\n      pop\n        /* \"contracts/crowdfunding.sol\":3398:3401  req */\n      dup1\n        /* \"contracts/crowdfunding.sol\":3398:3413  req.numOfVoters */\n      0x04\n      add\n      0x00\n        /* \"contracts/crowdfunding.sol\":3398:3415  req.numOfVoters++ */\n      dup2\n      sload\n      dup1\n      swap3\n      swap2\n      swap1\n      tag_141\n      swap1\n      tag_116\n      jump\t// in\n    tag_141:\n      swap2\n      swap1\n      pop\n      sstore\n      pop\n        /* \"contracts/crowdfunding.sol\":3218:3423  {\r... */\n      pop\n        /* \"contracts/crowdfunding.sol\":3153:3423  function voteRequest(uint _requestNumber) public onlyContributor {\r... */\n      pop\n      jump\t// out\n        /* \"contracts/crowdfunding.sol\":3431:3837  function makePayment(uint _requestNumber) public adminOnly {\r... */\n    tag_63:\n        /* \"contracts/crowdfunding.sol\":1238:1243  admin */\n      0x01\n      0x00\n      swap1\n      sload\n      swap1\n      0x0100\n      exp\n      swap1\n      div\n      0xffffffffffffffffffffffffffffffffffffffff\n      and\n        /* \"contracts/crowdfunding.sol\":1224:1243  msg.sender == admin */\n      0xffffffffffffffffffffffffffffffffffffffff\n      and\n        /* \"contracts/crowdfunding.sol\":1224:1234  msg.sender */\n      caller\n        /* \"contracts/crowdfunding.sol\":1224:1243  msg.sender == admin */\n      0xffffffffffffffffffffffffffffffffffffffff\n      and\n      eq\n        /* \"contracts/crowdfunding.sol\":1216:1278  require(msg.sender == admin, \"message sender is not an admin\") */\n      tag_143\n      jumpi\n      mload(0x40)\n      0x08c379a000000000000000000000000000000000000000000000000000000000\n      dup2\n      mstore\n      0x04\n      add\n      tag_144\n      swap1\n      tag_126\n      jump\t// in\n    tag_144:\n      mload(0x40)\n      dup1\n      swap2\n      sub\n      swap1\n      revert\n    tag_143:\n        /* \"contracts/crowdfunding.sol\":3525:3529  goal */\n      sload(0x05)\n        /* \"contracts/crowdfunding.sol\":3509:3521  raisedAmount */\n      sload(0x06)\n        /* \"contracts/crowdfunding.sol\":3509:3529  raisedAmount >= goal */\n      lt\n      iszero\n        /* \"contracts/crowdfunding.sol\":3501:3530  require(raisedAmount >= goal) */\n      tag_146\n      jumpi\n      0x00\n      dup1\n      revert\n    tag_146:\n        /* \"contracts/crowdfunding.sol\":3543:3562  Request storage req */\n      0x00\n        /* \"contracts/crowdfunding.sol\":3565:3573  requests */\n      0x07\n        /* \"contracts/crowdfunding.sol\":3565:3589  requests[_requestNumber] */\n      0x00\n        /* \"contracts/crowdfunding.sol\":3574:3588  _requestNumber */\n      dup4\n        /* \"contracts/crowdfunding.sol\":3565:3589  requests[_requestNumber] */\n      dup2\n      mstore\n      0x20\n      add\n      swap1\n      dup2\n      mstore\n      0x20\n      add\n      0x00\n      keccak256\n        /* \"contracts/crowdfunding.sol\":3543:3589  Request storage req = requests[_requestNumber] */\n      swap1\n      pop\n        /* \"contracts/crowdfunding.sol\":3625:3630  false */\n      0x00\n        /* \"contracts/crowdfunding.sol\":3608:3630  req.completed == false */\n      iszero\n      iszero\n        /* \"contracts/crowdfunding.sol\":3608:3611  req */\n      dup2\n        /* \"contracts/crowdfunding.sol\":3608:3621  req.completed */\n      0x03\n      add\n      0x00\n      swap1\n      sload\n      swap1\n      0x0100\n      exp\n      swap1\n      div\n      0xff\n      and\n        /* \"contracts/crowdfunding.sol\":3608:3630  req.completed == false */\n      iszero\n      iszero\n      eq\n        /* \"contracts/crowdfunding.sol\":3600:3660  require(req.completed == false, \"request already completed\") */\n      tag_147\n      jumpi\n      mload(0x40)\n      0x08c379a000000000000000000000000000000000000000000000000000000000\n      dup2\n      mstore\n      0x04\n      add\n      tag_148\n      swap1\n      tag_149\n      jump\t// in\n    tag_148:\n      mload(0x40)\n      dup1\n      swap2\n      sub\n      swap1\n      revert\n    tag_147:\n        /* \"contracts/crowdfunding.sol\":3673:3684  uint voters */\n      0x00\n        /* \"contracts/crowdfunding.sol\":3687:3690  req */\n      dup2\n        /* \"contracts/crowdfunding.sol\":3687:3702  req.numOfVoters */\n      0x04\n      add\n      sload\n        /* \"contracts/crowdfunding.sol\":3673:3702  uint voters = req.numOfVoters */\n      swap1\n      pop\n        /* \"contracts/crowdfunding.sol\":3749:3750  2 */\n      0x02\n        /* \"contracts/crowdfunding.sol\":3731:3748  numOfContributors */\n      dup1\n      sload\n        /* \"contracts/crowdfunding.sol\":3731:3750  numOfContributors/2 */\n      tag_150\n      swap2\n      swap1\n      tag_151\n      jump\t// in\n    tag_150:\n        /* \"contracts/crowdfunding.sol\":3721:3727  voters */\n      dup2\n        /* \"contracts/crowdfunding.sol\":3721:3751  voters > (numOfContributors/2) */\n      gt\n        /* \"contracts/crowdfunding.sol\":3713:3752  require(voters > (numOfContributors/2)) */\n      tag_152\n      jumpi\n      0x00\n      dup1\n      revert\n    tag_152:\n        /* \"contracts/crowdfunding.sol\":3765:3768  req */\n      dup2\n        /* \"contracts/crowdfunding.sol\":3765:3778  req.recipient */\n      0x01\n      add\n      0x00\n      swap1\n      sload\n      swap1\n      0x0100\n      exp\n      swap1\n      div\n      0xffffffffffffffffffffffffffffffffffffffff\n      and\n        /* \"contracts/crowdfunding.sol\":3765:3787  req.recipient.transfer */\n      0xffffffffffffffffffffffffffffffffffffffff\n      and\n        /* \"contracts/crowdfunding.sol\":3765:3798  req.recipient.transfer(req.value) */\n      0x08fc\n        /* \"contracts/crowdfunding.sol\":3788:3791  req */\n      dup4\n        /* \"contracts/crowdfunding.sol\":3788:3797  req.value */\n      0x02\n      add\n      sload\n        /* \"contracts/crowdfunding.sol\":3765:3798  req.recipient.transfer(req.value) */\n      swap1\n      dup2\n      iszero\n      mul\n      swap1\n      mload(0x40)\n      0x00\n      mload(0x40)\n      dup1\n      dup4\n      sub\n      dup2\n      dup6\n      dup9\n      dup9\n      call\n      swap4\n      pop\n      pop\n      pop\n      pop\n      iszero\n      dup1\n      iszero\n      tag_154\n      jumpi\n      returndatasize\n      0x00\n      dup1\n      returndatacopy\n      revert(0x00, returndatasize)\n    tag_154:\n      pop\n        /* \"contracts/crowdfunding.sol\":3825:3829  true */\n      0x01\n        /* \"contracts/crowdfunding.sol\":3809:3812  req */\n      dup3\n        /* \"contracts/crowdfunding.sol\":3809:3822  req.completed */\n      0x03\n      add\n      0x00\n        /* \"contracts/crowdfunding.sol\":3809:3829  req.completed = true */\n      0x0100\n      exp\n      dup2\n      sload\n      dup2\n      0xff\n      mul\n      not\n      and\n      swap1\n      dup4\n      iszero\n      iszero\n      mul\n      or\n      swap1\n      sstore\n      pop\n        /* \"contracts/crowdfunding.sol\":3490:3837  {\r... */\n      pop\n      pop\n        /* \"contracts/crowdfunding.sol\":3431:3837  function makePayment(uint _requestNumber) public adminOnly {\r... */\n      pop\n      jump\t// out\n        /* \"contracts/crowdfunding.sol\":546:586  mapping(uint => Request) public requests */\n    tag_67:\n      mstore(0x20, 0x07)\n      dup1\n      0x00\n      mstore\n      keccak256(0x00, 0x40)\n      0x00\n      swap2\n      pop\n      swap1\n      pop\n      dup1\n      0x00\n      add\n      dup1\n      sload\n      tag_155\n      swap1\n      tag_156\n      jump\t// in\n    tag_155:\n      dup1\n      0x1f\n      add\n      0x20\n      dup1\n      swap2\n      div\n      mul\n      0x20\n      add\n      mload(0x40)\n      swap1\n      dup2\n      add\n      0x40\n      mstore\n      dup1\n      swap3\n      swap2\n      swap1\n      dup2\n      dup2\n      mstore\n      0x20\n      add\n      dup3\n      dup1\n      sload\n      tag_157\n      swap1\n      tag_156\n      jump\t// in\n    tag_157:\n      dup1\n      iszero\n      tag_158\n      jumpi\n      dup1\n      0x1f\n      lt\n      tag_159\n      jumpi\n      0x0100\n      dup1\n      dup4\n      sload\n      div\n      mul\n      dup4\n      mstore\n      swap2\n      0x20\n      add\n      swap2\n      jump(tag_158)\n    tag_159:\n      dup3\n      add\n      swap2\n      swap1\n      0x00\n      mstore\n      keccak256(0x00, 0x20)\n      swap1\n    tag_160:\n      dup2\n      sload\n      dup2\n      mstore\n      swap1\n      0x01\n      add\n      swap1\n      0x20\n      add\n      dup1\n      dup4\n      gt\n      tag_160\n      jumpi\n      dup3\n      swap1\n      sub\n      0x1f\n      and\n      dup3\n      add\n      swap2\n    tag_158:\n      pop\n      pop\n      pop\n      pop\n      pop\n      swap1\n      dup1\n      0x01\n      add\n      0x00\n      swap1\n      sload\n      swap1\n      0x0100\n      exp\n      swap1\n      div\n      0xffffffffffffffffffffffffffffffffffffffff\n      and\n      swap1\n      dup1\n      0x02\n      add\n      sload\n      swap1\n      dup1\n      0x03\n      add\n      0x00\n      swap1\n      sload\n      swap1\n      0x0100\n      exp\n      swap1\n      div\n      0xff\n      and\n      swap1\n      dup1\n      0x04\n      add\n      sload\n      swap1\n      pop\n      dup6\n      jump\t// out\n        /* \"contracts/crowdfunding.sol\":593:616  uint public numRequests */\n    tag_72:\n      sload(0x08)\n      dup2\n      jump\t// out\n        /* \"contracts/crowdfunding.sol\":1817:1905  function startCampaign() public adminOnly{\r... */\n    tag_76:\n        /* \"contracts/crowdfunding.sol\":1238:1243  admin */\n      0x01\n      0x00\n      swap1\n      sload\n      swap1\n      0x0100\n      exp\n      swap1\n      div\n      0xffffffffffffffffffffffffffffffffffffffff\n      and\n        /* \"contracts/crowdfunding.sol\":1224:1243  msg.sender == admin */\n      0xffffffffffffffffffffffffffffffffffffffff\n      and\n        /* \"contracts/crowdfunding.sol\":1224:1234  msg.sender */\n      caller\n        /* \"contracts/crowdfunding.sol\":1224:1243  msg.sender == admin */\n      0xffffffffffffffffffffffffffffffffffffffff\n      and\n      eq\n        /* \"contracts/crowdfunding.sol\":1216:1278  require(msg.sender == admin, \"message sender is not an admin\") */\n      tag_162\n      jumpi\n      mload(0x40)\n      0x08c379a000000000000000000000000000000000000000000000000000000000\n      dup2\n      mstore\n      0x04\n      add\n      tag_163\n      swap1\n      tag_126\n      jump\t// in\n    tag_163:\n      mload(0x40)\n      dup1\n      swap2\n      sub\n      swap1\n      revert\n    tag_162:\n        /* \"contracts/crowdfunding.sol\":1884:1897  State.RUNNING */\n      0x02\n        /* \"contracts/crowdfunding.sol\":1869:1881  fundingState */\n      0x09\n      0x00\n        /* \"contracts/crowdfunding.sol\":1869:1897  fundingState = State.RUNNING */\n      0x0100\n      exp\n      dup2\n      sload\n      dup2\n      0xff\n      mul\n      not\n      and\n      swap1\n      dup4\n      0x04\n      dup2\n      gt\n      iszero\n      tag_165\n      jumpi\n      tag_166\n      tag_101\n      jump\t// in\n    tag_166:\n    tag_165:\n      mul\n      or\n      swap1\n      sstore\n      pop\n        /* \"contracts/crowdfunding.sol\":1817:1905  function startCampaign() public adminOnly{\r... */\n      jump\t// out\n        /* \"contracts/crowdfunding.sol\":217:244  uint public minContribution */\n    tag_79:\n      sload(0x03)\n      dup2\n      jump\t// out\n        /* \"contracts/crowdfunding.sol\":685:710  State public fundingState */\n    tag_83:\n      0x09\n      0x00\n      swap1\n      sload\n      swap1\n      0x0100\n      exp\n      swap1\n      div\n      0xff\n      and\n      dup2\n      jump\t// out\n        /* \"contracts/crowdfunding.sol\":301:325  uint public raisedAmount */\n    tag_88:\n      sload(0x06)\n      dup2\n      jump\t// out\n        /* \"contracts/crowdfunding.sol\":2396:2705  function requestRefund() public payable onlyContributor{\r... */\n    tag_91:\n        /* \"contracts/crowdfunding.sol\":1693:1694  0 */\n      0x00\n        /* \"contracts/crowdfunding.sol\":1666:1678  contributors */\n      dup1\n        /* \"contracts/crowdfunding.sol\":1666:1690  contributors[msg.sender] */\n      0x00\n        /* \"contracts/crowdfunding.sol\":1679:1689  msg.sender */\n      caller\n        /* \"contracts/crowdfunding.sol\":1666:1690  contributors[msg.sender] */\n      0xffffffffffffffffffffffffffffffffffffffff\n      and\n      0xffffffffffffffffffffffffffffffffffffffff\n      and\n      dup2\n      mstore\n      0x20\n      add\n      swap1\n      dup2\n      mstore\n      0x20\n      add\n      0x00\n      keccak256\n      sload\n        /* \"contracts/crowdfunding.sol\":1666:1694  contributors[msg.sender] > 0 */\n      gt\n        /* \"contracts/crowdfunding.sol\":1658:1724  require(contributors[msg.sender] > 0, \"you are not a contributor\") */\n      tag_168\n      jumpi\n      mload(0x40)\n      0x08c379a000000000000000000000000000000000000000000000000000000000\n      dup2\n      mstore\n      0x04\n      add\n      tag_169\n      swap1\n      tag_136\n      jump\t// in\n    tag_169:\n      mload(0x40)\n      dup1\n      swap2\n      sub\n      swap1\n      revert\n    tag_168:\n        /* \"contracts/crowdfunding.sol\":2486:2500  State.CANCELED */\n      0x04\n        /* \"contracts/crowdfunding.sol\":2470:2500  fundingState == State.CANCELED */\n      dup1\n      dup2\n      gt\n      iszero\n      tag_171\n      jumpi\n      tag_172\n      tag_101\n      jump\t// in\n    tag_172:\n    tag_171:\n        /* \"contracts/crowdfunding.sol\":2470:2482  fundingState */\n      0x09\n      0x00\n      swap1\n      sload\n      swap1\n      0x0100\n      exp\n      swap1\n      div\n      0xff\n      and\n        /* \"contracts/crowdfunding.sol\":2470:2500  fundingState == State.CANCELED */\n      0x04\n      dup2\n      gt\n      iszero\n      tag_173\n      jumpi\n      tag_174\n      tag_101\n      jump\t// in\n    tag_174:\n    tag_173:\n      eq\n        /* \"contracts/crowdfunding.sol\":2470:2553  fundingState == State.CANCELED || block.timestamp > deadline && raisedAmount < goal */\n      dup1\n      tag_175\n      jumpi\n      pop\n        /* \"contracts/crowdfunding.sol\":2522:2530  deadline */\n      sload(0x04)\n        /* \"contracts/crowdfunding.sol\":2504:2519  block.timestamp */\n      timestamp\n        /* \"contracts/crowdfunding.sol\":2504:2530  block.timestamp > deadline */\n      gt\n        /* \"contracts/crowdfunding.sol\":2504:2553  block.timestamp > deadline && raisedAmount < goal */\n      dup1\n      iszero\n      tag_176\n      jumpi\n      pop\n        /* \"contracts/crowdfunding.sol\":2549:2553  goal */\n      sload(0x05)\n        /* \"contracts/crowdfunding.sol\":2534:2546  raisedAmount */\n      sload(0x06)\n        /* \"contracts/crowdfunding.sol\":2534:2553  raisedAmount < goal */\n      lt\n        /* \"contracts/crowdfunding.sol\":2504:2553  block.timestamp > deadline && raisedAmount < goal */\n    tag_176:\n        /* \"contracts/crowdfunding.sol\":2470:2553  fundingState == State.CANCELED || block.timestamp > deadline && raisedAmount < goal */\n    tag_175:\n        /* \"contracts/crowdfunding.sol\":2462:2554  require(fundingState == State.CANCELED || block.timestamp > deadline && raisedAmount < goal) */\n      tag_177\n      jumpi\n      0x00\n      dup1\n      revert\n    tag_177:\n        /* \"contracts/crowdfunding.sol\":2575:2585  uint value */\n      0x00\n        /* \"contracts/crowdfunding.sol\":2588:2600  contributors */\n      dup1\n        /* \"contracts/crowdfunding.sol\":2588:2612  contributors[msg.sender] */\n      0x00\n        /* \"contracts/crowdfunding.sol\":2601:2611  msg.sender */\n      caller\n        /* \"contracts/crowdfunding.sol\":2588:2612  contributors[msg.sender] */\n      0xffffffffffffffffffffffffffffffffffffffff\n      and\n      0xffffffffffffffffffffffffffffffffffffffff\n      and\n      dup2\n      mstore\n      0x20\n      add\n      swap1\n      dup2\n      mstore\n      0x20\n      add\n      0x00\n      keccak256\n      sload\n        /* \"contracts/crowdfunding.sol\":2575:2612  uint value = contributors[msg.sender] */\n      swap1\n      pop\n        /* \"contracts/crowdfunding.sol\":2650:2651  0 */\n      0x00\n        /* \"contracts/crowdfunding.sol\":2623:2635  contributors */\n      dup1\n        /* \"contracts/crowdfunding.sol\":2623:2647  contributors[msg.sender] */\n      0x00\n        /* \"contracts/crowdfunding.sol\":2636:2646  msg.sender */\n      caller\n        /* \"contracts/crowdfunding.sol\":2623:2647  contributors[msg.sender] */\n      0xffffffffffffffffffffffffffffffffffffffff\n      and\n      0xffffffffffffffffffffffffffffffffffffffff\n      and\n      dup2\n      mstore\n      0x20\n      add\n      swap1\n      dup2\n      mstore\n      0x20\n      add\n      0x00\n      keccak256\n        /* \"contracts/crowdfunding.sol\":2623:2651  contributors[msg.sender] = 0 */\n      dup2\n      swap1\n      sstore\n      pop\n        /* \"contracts/crowdfunding.sol\":2670:2680  msg.sender */\n      caller\n        /* \"contracts/crowdfunding.sol\":2662:2690  payable(msg.sender).transfer */\n      0xffffffffffffffffffffffffffffffffffffffff\n      and\n        /* \"contracts/crowdfunding.sol\":2662:2697  payable(msg.sender).transfer(value) */\n      0x08fc\n        /* \"contracts/crowdfunding.sol\":2691:2696  value */\n      dup3\n        /* \"contracts/crowdfunding.sol\":2662:2697  payable(msg.sender).transfer(value) */\n      swap1\n      dup2\n      iszero\n      mul\n      swap1\n      mload(0x40)\n      0x00\n      mload(0x40)\n      dup1\n      dup4\n      sub\n      dup2\n      dup6\n      dup9\n      dup9\n      call\n      swap4\n      pop\n      pop\n      pop\n      pop\n      iszero\n      dup1\n      iszero\n      tag_179\n      jumpi\n      returndatasize\n      0x00\n      dup1\n      returndatacopy\n      revert(0x00, returndatasize)\n    tag_179:\n      pop\n        /* \"contracts/crowdfunding.sol\":2451:2705  {\r... */\n      pop\n        /* \"contracts/crowdfunding.sol\":2396:2705  function requestRefund() public payable onlyContributor{\r... */\n      jump\t// out\n        /* \"contracts/crowdfunding.sol\":154:174  address public admin */\n    tag_95:\n      0x01\n      0x00\n      swap1\n      sload\n      swap1\n      0x0100\n      exp\n      swap1\n      div\n      0xffffffffffffffffffffffffffffffffffffffff\n      and\n      dup2\n      jump\t// out\n    tag_130:\n      dup3\n      dup1\n      sload\n      tag_180\n      swap1\n      tag_156\n      jump\t// in\n    tag_180:\n      swap1\n      0x00\n      mstore\n      keccak256(0x00, 0x20)\n      swap1\n      0x1f\n      add\n      0x20\n      swap1\n      div\n      dup2\n      add\n      swap3\n      dup3\n      tag_182\n      jumpi\n      0x00\n      dup6\n      sstore\n      jump(tag_181)\n    tag_182:\n      dup3\n      0x1f\n      lt\n      tag_183\n      jumpi\n      dup1\n      mload\n      not(0xff)\n      and\n      dup4\n      dup1\n      add\n      or\n      dup6\n      sstore\n      jump(tag_181)\n    tag_183:\n      dup3\n      dup1\n      add\n      0x01\n      add\n      dup6\n      sstore\n      dup3\n      iszero\n      tag_181\n      jumpi\n      swap2\n      dup3\n      add\n    tag_184:\n      dup3\n      dup2\n      gt\n      iszero\n      tag_185\n      jumpi\n      dup3\n      mload\n      dup3\n      sstore\n      swap2\n      0x20\n      add\n      swap2\n      swap1\n      0x01\n      add\n      swap1\n      jump(tag_184)\n    tag_185:\n    tag_181:\n      pop\n      swap1\n      pop\n      tag_186\n      swap2\n      swap1\n      tag_187\n      jump\t// in\n    tag_186:\n      pop\n      swap1\n      jump\t// out\n    tag_187:\n    tag_188:\n      dup1\n      dup3\n      gt\n      iszero\n      tag_189\n      jumpi\n      0x00\n      dup2\n      0x00\n      swap1\n      sstore\n      pop\n      0x01\n      add\n      jump(tag_188)\n    tag_189:\n      pop\n      swap1\n      jump\t// out\n        /* \"#utility.yul\":7:419   */\n    tag_191:\n        /* \"#utility.yul\":85:90   */\n      0x00\n        /* \"#utility.yul\":110:176   */\n      tag_193\n        /* \"#utility.yul\":126:175   */\n      tag_194\n        /* \"#utility.yul\":168:174   */\n      dup5\n        /* \"#utility.yul\":126:175   */\n      tag_195\n      jump\t// in\n    tag_194:\n        /* \"#utility.yul\":110:176   */\n      tag_196\n      jump\t// in\n    tag_193:\n        /* \"#utility.yul\":101:176   */\n      swap1\n      pop\n        /* \"#utility.yul\":199:205   */\n      dup3\n        /* \"#utility.yul\":192:197   */\n      dup2\n        /* \"#utility.yul\":185:206   */\n      mstore\n        /* \"#utility.yul\":237:241   */\n      0x20\n        /* \"#utility.yul\":230:235   */\n      dup2\n        /* \"#utility.yul\":226:242   */\n      add\n        /* \"#utility.yul\":275:278   */\n      dup5\n        /* \"#utility.yul\":266:272   */\n      dup5\n        /* \"#utility.yul\":261:264   */\n      dup5\n        /* \"#utility.yul\":257:273   */\n      add\n        /* \"#utility.yul\":254:279   */\n      gt\n        /* \"#utility.yul\":251:363   */\n      iszero\n      tag_197\n      jumpi\n        /* \"#utility.yul\":282:361   */\n      tag_198\n      tag_199\n      jump\t// in\n    tag_198:\n        /* \"#utility.yul\":251:363   */\n    tag_197:\n        /* \"#utility.yul\":372:413   */\n      tag_200\n        /* \"#utility.yul\":406:412   */\n      dup5\n        /* \"#utility.yul\":401:404   */\n      dup3\n        /* \"#utility.yul\":396:399   */\n      dup6\n        /* \"#utility.yul\":372:413   */\n      tag_201\n      jump\t// in\n    tag_200:\n        /* \"#utility.yul\":91:419   */\n      pop\n        /* \"#utility.yul\":7:419   */\n      swap4\n      swap3\n      pop\n      pop\n      pop\n      jump\t// out\n        /* \"#utility.yul\":425:564   */\n    tag_202:\n        /* \"#utility.yul\":471:476   */\n      0x00\n        /* \"#utility.yul\":509:515   */\n      dup2\n        /* \"#utility.yul\":496:516   */\n      calldataload\n        /* \"#utility.yul\":487:516   */\n      swap1\n      pop\n        /* \"#utility.yul\":525:558   */\n      tag_204\n        /* \"#utility.yul\":552:557   */\n      dup2\n        /* \"#utility.yul\":525:558   */\n      tag_205\n      jump\t// in\n    tag_204:\n        /* \"#utility.yul\":425:564   */\n      swap3\n      swap2\n      pop\n      pop\n      jump\t// out\n        /* \"#utility.yul\":570:725   */\n    tag_206:\n        /* \"#utility.yul\":624:629   */\n      0x00\n        /* \"#utility.yul\":662:668   */\n      dup2\n        /* \"#utility.yul\":649:669   */\n      calldataload\n        /* \"#utility.yul\":640:669   */\n      swap1\n      pop\n        /* \"#utility.yul\":678:719   */\n      tag_208\n        /* \"#utility.yul\":713:718   */\n      dup2\n        /* \"#utility.yul\":678:719   */\n      tag_209\n      jump\t// in\n    tag_208:\n        /* \"#utility.yul\":570:725   */\n      swap3\n      swap2\n      pop\n      pop\n      jump\t// out\n        /* \"#utility.yul\":745:1085   */\n    tag_210:\n        /* \"#utility.yul\":801:806   */\n      0x00\n        /* \"#utility.yul\":850:853   */\n      dup3\n        /* \"#utility.yul\":843:847   */\n      0x1f\n        /* \"#utility.yul\":835:841   */\n      dup4\n        /* \"#utility.yul\":831:848   */\n      add\n        /* \"#utility.yul\":827:854   */\n      slt\n        /* \"#utility.yul\":817:939   */\n      tag_212\n      jumpi\n        /* \"#utility.yul\":858:937   */\n      tag_213\n      tag_214\n      jump\t// in\n    tag_213:\n        /* \"#utility.yul\":817:939   */\n    tag_212:\n        /* \"#utility.yul\":975:981   */\n      dup2\n        /* \"#utility.yul\":962:982   */\n      calldataload\n        /* \"#utility.yul\":1000:1079   */\n      tag_215\n        /* \"#utility.yul\":1075:1078   */\n      dup5\n        /* \"#utility.yul\":1067:1073   */\n      dup3\n        /* \"#utility.yul\":1060:1064   */\n      0x20\n        /* \"#utility.yul\":1052:1058   */\n      dup7\n        /* \"#utility.yul\":1048:1065   */\n      add\n        /* \"#utility.yul\":1000:1079   */\n      tag_191\n      jump\t// in\n    tag_215:\n        /* \"#utility.yul\":991:1079   */\n      swap2\n      pop\n        /* \"#utility.yul\":807:1085   */\n      pop\n        /* \"#utility.yul\":745:1085   */\n      swap3\n      swap2\n      pop\n      pop\n      jump\t// out\n        /* \"#utility.yul\":1091:1230   */\n    tag_216:\n        /* \"#utility.yul\":1137:1142   */\n      0x00\n        /* \"#utility.yul\":1175:1181   */\n      dup2\n        /* \"#utility.yul\":1162:1182   */\n      calldataload\n        /* \"#utility.yul\":1153:1182   */\n      swap1\n      pop\n        /* \"#utility.yul\":1191:1224   */\n      tag_218\n        /* \"#utility.yul\":1218:1223   */\n      dup2\n        /* \"#utility.yul\":1191:1224   */\n      tag_219\n      jump\t// in\n    tag_218:\n        /* \"#utility.yul\":1091:1230   */\n      swap3\n      swap2\n      pop\n      pop\n      jump\t// out\n        /* \"#utility.yul\":1236:1565   */\n    tag_39:\n        /* \"#utility.yul\":1295:1301   */\n      0x00\n        /* \"#utility.yul\":1344:1346   */\n      0x20\n        /* \"#utility.yul\":1332:1341   */\n      dup3\n        /* \"#utility.yul\":1323:1330   */\n      dup5\n        /* \"#utility.yul\":1319:1342   */\n      sub\n        /* \"#utility.yul\":1315:1347   */\n      slt\n        /* \"#utility.yul\":1312:1431   */\n      iszero\n      tag_221\n      jumpi\n        /* \"#utility.yul\":1350:1429   */\n      tag_222\n      tag_223\n      jump\t// in\n    tag_222:\n        /* \"#utility.yul\":1312:1431   */\n    tag_221:\n        /* \"#utility.yul\":1470:1471   */\n      0x00\n        /* \"#utility.yul\":1495:1548   */\n      tag_224\n        /* \"#utility.yul\":1540:1547   */\n      dup5\n        /* \"#utility.yul\":1531:1537   */\n      dup3\n        /* \"#utility.yul\":1520:1529   */\n      dup6\n        /* \"#utility.yul\":1516:1538   */\n      add\n        /* \"#utility.yul\":1495:1548   */\n      tag_202\n      jump\t// in\n    tag_224:\n        /* \"#utility.yul\":1485:1548   */\n      swap2\n      pop\n        /* \"#utility.yul\":1441:1558   */\n      pop\n        /* \"#utility.yul\":1236:1565   */\n      swap3\n      swap2\n      pop\n      pop\n      jump\t// out\n        /* \"#utility.yul\":1571:2386   */\n    tag_53:\n        /* \"#utility.yul\":1666:1672   */\n      0x00\n        /* \"#utility.yul\":1674:1680   */\n      dup1\n        /* \"#utility.yul\":1682:1688   */\n      0x00\n        /* \"#utility.yul\":1731:1733   */\n      0x60\n        /* \"#utility.yul\":1719:1728   */\n      dup5\n        /* \"#utility.yul\":1710:1717   */\n      dup7\n        /* \"#utility.yul\":1706:1729   */\n      sub\n        /* \"#utility.yul\":1702:1734   */\n      slt\n        /* \"#utility.yul\":1699:1818   */\n      iszero\n      tag_226\n      jumpi\n        /* \"#utility.yul\":1737:1816   */\n      tag_227\n      tag_223\n      jump\t// in\n    tag_227:\n        /* \"#utility.yul\":1699:1818   */\n    tag_226:\n        /* \"#utility.yul\":1885:1886   */\n      0x00\n        /* \"#utility.yul\":1874:1883   */\n      dup5\n        /* \"#utility.yul\":1870:1887   */\n      add\n        /* \"#utility.yul\":1857:1888   */\n      calldataload\n        /* \"#utility.yul\":1915:1933   */\n      0xffffffffffffffff\n        /* \"#utility.yul\":1907:1913   */\n      dup2\n        /* \"#utility.yul\":1904:1934   */\n      gt\n        /* \"#utility.yul\":1901:2018   */\n      iszero\n      tag_228\n      jumpi\n        /* \"#utility.yul\":1937:2016   */\n      tag_229\n      tag_230\n      jump\t// in\n    tag_229:\n        /* \"#utility.yul\":1901:2018   */\n    tag_228:\n        /* \"#utility.yul\":2042:2105   */\n      tag_231\n        /* \"#utility.yul\":2097:2104   */\n      dup7\n        /* \"#utility.yul\":2088:2094   */\n      dup3\n        /* \"#utility.yul\":2077:2086   */\n      dup8\n        /* \"#utility.yul\":2073:2095   */\n      add\n        /* \"#utility.yul\":2042:2105   */\n      tag_210\n      jump\t// in\n    tag_231:\n        /* \"#utility.yul\":2032:2105   */\n      swap4\n      pop\n        /* \"#utility.yul\":1828:2115   */\n      pop\n        /* \"#utility.yul\":2154:2156   */\n      0x20\n        /* \"#utility.yul\":2180:2241   */\n      tag_232\n        /* \"#utility.yul\":2233:2240   */\n      dup7\n        /* \"#utility.yul\":2224:2230   */\n      dup3\n        /* \"#utility.yul\":2213:2222   */\n      dup8\n        /* \"#utility.yul\":2209:2231   */\n      add\n        /* \"#utility.yul\":2180:2241   */\n      tag_206\n      jump\t// in\n    tag_232:\n        /* \"#utility.yul\":2170:2241   */\n      swap3\n      pop\n        /* \"#utility.yul\":2125:2251   */\n      pop\n        /* \"#utility.yul\":2290:2292   */\n      0x40\n        /* \"#utility.yul\":2316:2369   */\n      tag_233\n        /* \"#utility.yul\":2361:2368   */\n      dup7\n        /* \"#utility.yul\":2352:2358   */\n      dup3\n        /* \"#utility.yul\":2341:2350   */\n      dup8\n        /* \"#utility.yul\":2337:2359   */\n      add\n        /* \"#utility.yul\":2316:2369   */\n      tag_216\n      jump\t// in\n    tag_233:\n        /* \"#utility.yul\":2306:2369   */\n      swap2\n      pop\n        /* \"#utility.yul\":2261:2379   */\n      pop\n        /* \"#utility.yul\":1571:2386   */\n      swap3\n      pop\n      swap3\n      pop\n      swap3\n      jump\t// out\n        /* \"#utility.yul\":2392:2721   */\n    tag_58:\n        /* \"#utility.yul\":2451:2457   */\n      0x00\n        /* \"#utility.yul\":2500:2502   */\n      0x20\n        /* \"#utility.yul\":2488:2497   */\n      dup3\n        /* \"#utility.yul\":2479:2486   */\n      dup5\n        /* \"#utility.yul\":2475:2498   */\n      sub\n        /* \"#utility.yul\":2471:2503   */\n      slt\n        /* \"#utility.yul\":2468:2587   */\n      iszero\n      tag_235\n      jumpi\n        /* \"#utility.yul\":2506:2585   */\n      tag_236\n      tag_223\n      jump\t// in\n    tag_236:\n        /* \"#utility.yul\":2468:2587   */\n    tag_235:\n        /* \"#utility.yul\":2626:2627   */\n      0x00\n        /* \"#utility.yul\":2651:2704   */\n      tag_237\n        /* \"#utility.yul\":2696:2703   */\n      dup5\n        /* \"#utility.yul\":2687:2693   */\n      dup3\n        /* \"#utility.yul\":2676:2685   */\n      dup6\n        /* \"#utility.yul\":2672:2694   */\n      add\n        /* \"#utility.yul\":2651:2704   */\n      tag_216\n      jump\t// in\n    tag_237:\n        /* \"#utility.yul\":2641:2704   */\n      swap2\n      pop\n        /* \"#utility.yul\":2597:2714   */\n      pop\n        /* \"#utility.yul\":2392:2721   */\n      swap3\n      swap2\n      pop\n      pop\n      jump\t// out\n        /* \"#utility.yul\":2727:2874   */\n    tag_238:\n        /* \"#utility.yul\":2822:2867   */\n      tag_240\n        /* \"#utility.yul\":2861:2866   */\n      dup2\n        /* \"#utility.yul\":2822:2867   */\n      tag_241\n      jump\t// in\n    tag_240:\n        /* \"#utility.yul\":2817:2820   */\n      dup3\n        /* \"#utility.yul\":2810:2868   */\n      mstore\n        /* \"#utility.yul\":2727:2874   */\n      pop\n      pop\n      jump\t// out\n        /* \"#utility.yul\":2880:3022   */\n    tag_242:\n        /* \"#utility.yul\":2983:3015   */\n      tag_244\n        /* \"#utility.yul\":3009:3014   */\n      dup2\n        /* \"#utility.yul\":2983:3015   */\n      tag_245\n      jump\t// in\n    tag_244:\n        /* \"#utility.yul\":2978:2981   */\n      dup3\n        /* \"#utility.yul\":2971:3016   */\n      mstore\n        /* \"#utility.yul\":2880:3022   */\n      pop\n      pop\n      jump\t// out\n        /* \"#utility.yul\":3028:3146   */\n    tag_246:\n        /* \"#utility.yul\":3115:3139   */\n      tag_248\n        /* \"#utility.yul\":3133:3138   */\n      dup2\n        /* \"#utility.yul\":3115:3139   */\n      tag_249\n      jump\t// in\n    tag_248:\n        /* \"#utility.yul\":3110:3113   */\n      dup3\n        /* \"#utility.yul\":3103:3140   */\n      mstore\n        /* \"#utility.yul\":3028:3146   */\n      pop\n      pop\n      jump\t// out\n        /* \"#utility.yul\":3152:3261   */\n    tag_250:\n        /* \"#utility.yul\":3233:3254   */\n      tag_252\n        /* \"#utility.yul\":3248:3253   */\n      dup2\n        /* \"#utility.yul\":3233:3254   */\n      tag_253\n      jump\t// in\n    tag_252:\n        /* \"#utility.yul\":3228:3231   */\n      dup3\n        /* \"#utility.yul\":3221:3255   */\n      mstore\n        /* \"#utility.yul\":3152:3261   */\n      pop\n      pop\n      jump\t// out\n        /* \"#utility.yul\":3267:3410   */\n    tag_254:\n        /* \"#utility.yul\":3360:3403   */\n      tag_256\n        /* \"#utility.yul\":3397:3402   */\n      dup2\n        /* \"#utility.yul\":3360:3403   */\n      tag_257\n      jump\t// in\n    tag_256:\n        /* \"#utility.yul\":3355:3358   */\n      dup3\n        /* \"#utility.yul\":3348:3404   */\n      mstore\n        /* \"#utility.yul\":3267:3410   */\n      pop\n      pop\n      jump\t// out\n        /* \"#utility.yul\":3416:3780   */\n    tag_258:\n        /* \"#utility.yul\":3504:3507   */\n      0x00\n        /* \"#utility.yul\":3532:3571   */\n      tag_260\n        /* \"#utility.yul\":3565:3570   */\n      dup3\n        /* \"#utility.yul\":3532:3571   */\n      tag_261\n      jump\t// in\n    tag_260:\n        /* \"#utility.yul\":3587:3658   */\n      tag_262\n        /* \"#utility.yul\":3651:3657   */\n      dup2\n        /* \"#utility.yul\":3646:3649   */\n      dup6\n        /* \"#utility.yul\":3587:3658   */\n      tag_263\n      jump\t// in\n    tag_262:\n        /* \"#utility.yul\":3580:3658   */\n      swap4\n      pop\n        /* \"#utility.yul\":3667:3719   */\n      tag_264\n        /* \"#utility.yul\":3712:3718   */\n      dup2\n        /* \"#utility.yul\":3707:3710   */\n      dup6\n        /* \"#utility.yul\":3700:3704   */\n      0x20\n        /* \"#utility.yul\":3693:3698   */\n      dup7\n        /* \"#utility.yul\":3689:3705   */\n      add\n        /* \"#utility.yul\":3667:3719   */\n      tag_265\n      jump\t// in\n    tag_264:\n        /* \"#utility.yul\":3744:3773   */\n      tag_266\n        /* \"#utility.yul\":3766:3772   */\n      dup2\n        /* \"#utility.yul\":3744:3773   */\n      tag_267\n      jump\t// in\n    tag_266:\n        /* \"#utility.yul\":3739:3742   */\n      dup5\n        /* \"#utility.yul\":3735:3774   */\n      add\n        /* \"#utility.yul\":3728:3774   */\n      swap2\n      pop\n        /* \"#utility.yul\":3508:3780   */\n      pop\n        /* \"#utility.yul\":3416:3780   */\n      swap3\n      swap2\n      pop\n      pop\n      jump\t// out\n        /* \"#utility.yul\":3786:4152   */\n    tag_268:\n        /* \"#utility.yul\":3928:3931   */\n      0x00\n        /* \"#utility.yul\":3949:4016   */\n      tag_270\n        /* \"#utility.yul\":4013:4015   */\n      0x19\n        /* \"#utility.yul\":4008:4011   */\n      dup4\n        /* \"#utility.yul\":3949:4016   */\n      tag_263\n      jump\t// in\n    tag_270:\n        /* \"#utility.yul\":3942:4016   */\n      swap2\n      pop\n        /* \"#utility.yul\":4025:4118   */\n      tag_271\n        /* \"#utility.yul\":4114:4117   */\n      dup3\n        /* \"#utility.yul\":4025:4118   */\n      tag_272\n      jump\t// in\n    tag_271:\n        /* \"#utility.yul\":4143:4145   */\n      0x20\n        /* \"#utility.yul\":4138:4141   */\n      dup3\n        /* \"#utility.yul\":4134:4146   */\n      add\n        /* \"#utility.yul\":4127:4146   */\n      swap1\n      pop\n        /* \"#utility.yul\":3786:4152   */\n      swap2\n      swap1\n      pop\n      jump\t// out\n        /* \"#utility.yul\":4158:4524   */\n    tag_273:\n        /* \"#utility.yul\":4300:4303   */\n      0x00\n        /* \"#utility.yul\":4321:4388   */\n      tag_275\n        /* \"#utility.yul\":4385:4387   */\n      0x1c\n        /* \"#utility.yul\":4380:4383   */\n      dup4\n        /* \"#utility.yul\":4321:4388   */\n      tag_263\n      jump\t// in\n    tag_275:\n        /* \"#utility.yul\":4314:4388   */\n      swap2\n      pop\n        /* \"#utility.yul\":4397:4490   */\n      tag_276\n        /* \"#utility.yul\":4486:4489   */\n      dup3\n        /* \"#utility.yul\":4397:4490   */\n      tag_277\n      jump\t// in\n    tag_276:\n        /* \"#utility.yul\":4515:4517   */\n      0x20\n        /* \"#utility.yul\":4510:4513   */\n      dup3\n        /* \"#utility.yul\":4506:4518   */\n      add\n        /* \"#utility.yul\":4499:4518   */\n      swap1\n      pop\n        /* \"#utility.yul\":4158:4524   */\n      swap2\n      swap1\n      pop\n      jump\t// out\n        /* \"#utility.yul\":4530:4896   */\n    tag_278:\n        /* \"#utility.yul\":4672:4675   */\n      0x00\n        /* \"#utility.yul\":4693:4760   */\n      tag_280\n        /* \"#utility.yul\":4757:4759   */\n      0x19\n        /* \"#utility.yul\":4752:4755   */\n      dup4\n        /* \"#utility.yul\":4693:4760   */\n      tag_263\n      jump\t// in\n    tag_280:\n        /* \"#utility.yul\":4686:4760   */\n      swap2\n      pop\n        /* \"#utility.yul\":4769:4862   */\n      tag_281\n        /* \"#utility.yul\":4858:4861   */\n      dup3\n        /* \"#utility.yul\":4769:4862   */\n      tag_282\n      jump\t// in\n    tag_281:\n        /* \"#utility.yul\":4887:4889   */\n      0x20\n        /* \"#utility.yul\":4882:4885   */\n      dup3\n        /* \"#utility.yul\":4878:4890   */\n      add\n        /* \"#utility.yul\":4871:4890   */\n      swap1\n      pop\n        /* \"#utility.yul\":4530:4896   */\n      swap2\n      swap1\n      pop\n      jump\t// out\n        /* \"#utility.yul\":4902:5268   */\n    tag_283:\n        /* \"#utility.yul\":5044:5047   */\n      0x00\n        /* \"#utility.yul\":5065:5132   */\n      tag_285\n        /* \"#utility.yul\":5129:5131   */\n      0x11\n        /* \"#utility.yul\":5124:5127   */\n      dup4\n        /* \"#utility.yul\":5065:5132   */\n      tag_263\n      jump\t// in\n    tag_285:\n        /* \"#utility.yul\":5058:5132   */\n      swap2\n      pop\n        /* \"#utility.yul\":5141:5234   */\n      tag_286\n        /* \"#utility.yul\":5230:5233   */\n      dup3\n        /* \"#utility.yul\":5141:5234   */\n      tag_287\n      jump\t// in\n    tag_286:\n        /* \"#utility.yul\":5259:5261   */\n      0x20\n        /* \"#utility.yul\":5254:5257   */\n      dup3\n        /* \"#utility.yul\":5250:5262   */\n      add\n        /* \"#utility.yul\":5243:5262   */\n      swap1\n      pop\n        /* \"#utility.yul\":4902:5268   */\n      swap2\n      swap1\n      pop\n      jump\t// out\n        /* \"#utility.yul\":5274:5640   */\n    tag_288:\n        /* \"#utility.yul\":5416:5419   */\n      0x00\n        /* \"#utility.yul\":5437:5504   */\n      tag_290\n        /* \"#utility.yul\":5501:5503   */\n      0x1e\n        /* \"#utility.yul\":5496:5499   */\n      dup4\n        /* \"#utility.yul\":5437:5504   */\n      tag_263\n      jump\t// in\n    tag_290:\n        /* \"#utility.yul\":5430:5504   */\n      swap2\n      pop\n        /* \"#utility.yul\":5513:5606   */\n      tag_291\n        /* \"#utility.yul\":5602:5605   */\n      dup3\n        /* \"#utility.yul\":5513:5606   */\n      tag_292\n      jump\t// in\n    tag_291:\n        /* \"#utility.yul\":5631:5633   */\n      0x20\n        /* \"#utility.yul\":5626:5629   */\n      dup3\n        /* \"#utility.yul\":5622:5634   */\n      add\n        /* \"#utility.yul\":5615:5634   */\n      swap1\n      pop\n        /* \"#utility.yul\":5274:5640   */\n      swap2\n      swap1\n      pop\n      jump\t// out\n        /* \"#utility.yul\":5646:6012   */\n    tag_293:\n        /* \"#utility.yul\":5788:5791   */\n      0x00\n        /* \"#utility.yul\":5809:5876   */\n      tag_295\n        /* \"#utility.yul\":5873:5875   */\n      0x0f\n        /* \"#utility.yul\":5868:5871   */\n      dup4\n        /* \"#utility.yul\":5809:5876   */\n      tag_263\n      jump\t// in\n    tag_295:\n        /* \"#utility.yul\":5802:5876   */\n      swap2\n      pop\n        /* \"#utility.yul\":5885:5978   */\n      tag_296\n        /* \"#utility.yul\":5974:5977   */\n      dup3\n        /* \"#utility.yul\":5885:5978   */\n      tag_297\n      jump\t// in\n    tag_296:\n        /* \"#utility.yul\":6003:6005   */\n      0x20\n        /* \"#utility.yul\":5998:6001   */\n      dup3\n        /* \"#utility.yul\":5994:6006   */\n      add\n        /* \"#utility.yul\":5987:6006   */\n      swap1\n      pop\n        /* \"#utility.yul\":5646:6012   */\n      swap2\n      swap1\n      pop\n      jump\t// out\n        /* \"#utility.yul\":6018:6384   */\n    tag_298:\n        /* \"#utility.yul\":6160:6163   */\n      0x00\n        /* \"#utility.yul\":6181:6248   */\n      tag_300\n        /* \"#utility.yul\":6245:6247   */\n      0x1b\n        /* \"#utility.yul\":6240:6243   */\n      dup4\n        /* \"#utility.yul\":6181:6248   */\n      tag_263\n      jump\t// in\n    tag_300:\n        /* \"#utility.yul\":6174:6248   */\n      swap2\n      pop\n        /* \"#utility.yul\":6257:6350   */\n      tag_301\n        /* \"#utility.yul\":6346:6349   */\n      dup3\n        /* \"#utility.yul\":6257:6350   */\n      tag_302\n      jump\t// in\n    tag_301:\n        /* \"#utility.yul\":6375:6377   */\n      0x20\n        /* \"#utility.yul\":6370:6373   */\n      dup3\n        /* \"#utility.yul\":6366:6378   */\n      add\n        /* \"#utility.yul\":6359:6378   */\n      swap1\n      pop\n        /* \"#utility.yul\":6018:6384   */\n      swap2\n      swap1\n      pop\n      jump\t// out\n        /* \"#utility.yul\":6390:6508   */\n    tag_303:\n        /* \"#utility.yul\":6477:6501   */\n      tag_305\n        /* \"#utility.yul\":6495:6500   */\n      dup2\n        /* \"#utility.yul\":6477:6501   */\n      tag_306\n      jump\t// in\n    tag_305:\n        /* \"#utility.yul\":6472:6475   */\n      dup3\n        /* \"#utility.yul\":6465:6502   */\n      mstore\n        /* \"#utility.yul\":6390:6508   */\n      pop\n      pop\n      jump\t// out\n        /* \"#utility.yul\":6514:6736   */\n    tag_97:\n        /* \"#utility.yul\":6607:6611   */\n      0x00\n        /* \"#utility.yul\":6645:6647   */\n      0x20\n        /* \"#utility.yul\":6634:6643   */\n      dup3\n        /* \"#utility.yul\":6630:6648   */\n      add\n        /* \"#utility.yul\":6622:6648   */\n      swap1\n      pop\n        /* \"#utility.yul\":6658:6729   */\n      tag_308\n        /* \"#utility.yul\":6726:6727   */\n      0x00\n        /* \"#utility.yul\":6715:6724   */\n      dup4\n        /* \"#utility.yul\":6711:6728   */\n      add\n        /* \"#utility.yul\":6702:6708   */\n      dup5\n        /* \"#utility.yul\":6658:6729   */\n      tag_246\n      jump\t// in\n    tag_308:\n        /* \"#utility.yul\":6514:6736   */\n      swap3\n      swap2\n      pop\n      pop\n      jump\t// out\n        /* \"#utility.yul\":6742:7074   */\n    tag_121:\n        /* \"#utility.yul\":6863:6867   */\n      0x00\n        /* \"#utility.yul\":6901:6903   */\n      0x40\n        /* \"#utility.yul\":6890:6899   */\n      dup3\n        /* \"#utility.yul\":6886:6904   */\n      add\n        /* \"#utility.yul\":6878:6904   */\n      swap1\n      pop\n        /* \"#utility.yul\":6914:6985   */\n      tag_310\n        /* \"#utility.yul\":6982:6983   */\n      0x00\n        /* \"#utility.yul\":6971:6980   */\n      dup4\n        /* \"#utility.yul\":6967:6984   */\n      add\n        /* \"#utility.yul\":6958:6964   */\n      dup6\n        /* \"#utility.yul\":6914:6985   */\n      tag_246\n      jump\t// in\n    tag_310:\n        /* \"#utility.yul\":6995:7067   */\n      tag_311\n        /* \"#utility.yul\":7063:7065   */\n      0x20\n        /* \"#utility.yul\":7052:7061   */\n      dup4\n        /* \"#utility.yul\":7048:7066   */\n      add\n        /* \"#utility.yul\":7039:7045   */\n      dup5\n        /* \"#utility.yul\":6995:7067   */\n      tag_303\n      jump\t// in\n    tag_311:\n        /* \"#utility.yul\":6742:7074   */\n      swap4\n      swap3\n      pop\n      pop\n      pop\n      jump\t// out\n        /* \"#utility.yul\":7080:7314   */\n    tag_85:\n        /* \"#utility.yul\":7179:7183   */\n      0x00\n        /* \"#utility.yul\":7217:7219   */\n      0x20\n        /* \"#utility.yul\":7206:7215   */\n      dup3\n        /* \"#utility.yul\":7202:7220   */\n      add\n        /* \"#utility.yul\":7194:7220   */\n      swap1\n      pop\n        /* \"#utility.yul\":7230:7307   */\n      tag_313\n        /* \"#utility.yul\":7304:7305   */\n      0x00\n        /* \"#utility.yul\":7293:7302   */\n      dup4\n        /* \"#utility.yul\":7289:7306   */\n      add\n        /* \"#utility.yul\":7280:7286   */\n      dup5\n        /* \"#utility.yul\":7230:7307   */\n      tag_254\n      jump\t// in\n    tag_313:\n        /* \"#utility.yul\":7080:7314   */\n      swap3\n      swap2\n      pop\n      pop\n      jump\t// out\n        /* \"#utility.yul\":7320:7869   */\n    tag_132:\n        /* \"#utility.yul\":7497:7501   */\n      0x00\n        /* \"#utility.yul\":7535:7537   */\n      0x60\n        /* \"#utility.yul\":7524:7533   */\n      dup3\n        /* \"#utility.yul\":7520:7538   */\n      add\n        /* \"#utility.yul\":7512:7538   */\n      swap1\n      pop\n        /* \"#utility.yul\":7584:7593   */\n      dup2\n        /* \"#utility.yul\":7578:7582   */\n      dup2\n        /* \"#utility.yul\":7574:7594   */\n      sub\n        /* \"#utility.yul\":7570:7571   */\n      0x00\n        /* \"#utility.yul\":7559:7568   */\n      dup4\n        /* \"#utility.yul\":7555:7572   */\n      add\n        /* \"#utility.yul\":7548:7595   */\n      mstore\n        /* \"#utility.yul\":7612:7690   */\n      tag_315\n        /* \"#utility.yul\":7685:7689   */\n      dup2\n        /* \"#utility.yul\":7676:7682   */\n      dup7\n        /* \"#utility.yul\":7612:7690   */\n      tag_258\n      jump\t// in\n    tag_315:\n        /* \"#utility.yul\":7604:7690   */\n      swap1\n      pop\n        /* \"#utility.yul\":7700:7780   */\n      tag_316\n        /* \"#utility.yul\":7776:7778   */\n      0x20\n        /* \"#utility.yul\":7765:7774   */\n      dup4\n        /* \"#utility.yul\":7761:7779   */\n      add\n        /* \"#utility.yul\":7752:7758   */\n      dup6\n        /* \"#utility.yul\":7700:7780   */\n      tag_238\n      jump\t// in\n    tag_316:\n        /* \"#utility.yul\":7790:7862   */\n      tag_317\n        /* \"#utility.yul\":7858:7860   */\n      0x40\n        /* \"#utility.yul\":7847:7856   */\n      dup4\n        /* \"#utility.yul\":7843:7861   */\n      add\n        /* \"#utility.yul\":7834:7840   */\n      dup5\n        /* \"#utility.yul\":7790:7862   */\n      tag_303\n      jump\t// in\n    tag_317:\n        /* \"#utility.yul\":7320:7869   */\n      swap5\n      swap4\n      pop\n      pop\n      pop\n      pop\n      jump\t// out\n        /* \"#utility.yul\":7875:8650   */\n    tag_69:\n        /* \"#utility.yul\":8110:8114   */\n      0x00\n        /* \"#utility.yul\":8148:8151   */\n      0xa0\n        /* \"#utility.yul\":8137:8146   */\n      dup3\n        /* \"#utility.yul\":8133:8152   */\n      add\n        /* \"#utility.yul\":8125:8152   */\n      swap1\n      pop\n        /* \"#utility.yul\":8198:8207   */\n      dup2\n        /* \"#utility.yul\":8192:8196   */\n      dup2\n        /* \"#utility.yul\":8188:8208   */\n      sub\n        /* \"#utility.yul\":8184:8185   */\n      0x00\n        /* \"#utility.yul\":8173:8182   */\n      dup4\n        /* \"#utility.yul\":8169:8186   */\n      add\n        /* \"#utility.yul\":8162:8209   */\n      mstore\n        /* \"#utility.yul\":8226:8304   */\n      tag_319\n        /* \"#utility.yul\":8299:8303   */\n      dup2\n        /* \"#utility.yul\":8290:8296   */\n      dup9\n        /* \"#utility.yul\":8226:8304   */\n      tag_258\n      jump\t// in\n    tag_319:\n        /* \"#utility.yul\":8218:8304   */\n      swap1\n      pop\n        /* \"#utility.yul\":8314:8402   */\n      tag_320\n        /* \"#utility.yul\":8398:8400   */\n      0x20\n        /* \"#utility.yul\":8387:8396   */\n      dup4\n        /* \"#utility.yul\":8383:8401   */\n      add\n        /* \"#utility.yul\":8374:8380   */\n      dup8\n        /* \"#utility.yul\":8314:8402   */\n      tag_242\n      jump\t// in\n    tag_320:\n        /* \"#utility.yul\":8412:8484   */\n      tag_321\n        /* \"#utility.yul\":8480:8482   */\n      0x40\n        /* \"#utility.yul\":8469:8478   */\n      dup4\n        /* \"#utility.yul\":8465:8483   */\n      add\n        /* \"#utility.yul\":8456:8462   */\n      dup7\n        /* \"#utility.yul\":8412:8484   */\n      tag_303\n      jump\t// in\n    tag_321:\n        /* \"#utility.yul\":8494:8560   */\n      tag_322\n        /* \"#utility.yul\":8556:8558   */\n      0x60\n        /* \"#utility.yul\":8545:8554   */\n      dup4\n        /* \"#utility.yul\":8541:8559   */\n      add\n        /* \"#utility.yul\":8532:8538   */\n      dup6\n        /* \"#utility.yul\":8494:8560   */\n      tag_250\n      jump\t// in\n    tag_322:\n        /* \"#utility.yul\":8570:8643   */\n      tag_323\n        /* \"#utility.yul\":8638:8641   */\n      0x80\n        /* \"#utility.yul\":8627:8636   */\n      dup4\n        /* \"#utility.yul\":8623:8642   */\n      add\n        /* \"#utility.yul\":8614:8620   */\n      dup5\n        /* \"#utility.yul\":8570:8643   */\n      tag_303\n      jump\t// in\n    tag_323:\n        /* \"#utility.yul\":7875:8650   */\n      swap7\n      swap6\n      pop\n      pop\n      pop\n      pop\n      pop\n      pop\n      jump\t// out\n        /* \"#utility.yul\":8656:9075   */\n    tag_149:\n        /* \"#utility.yul\":8822:8826   */\n      0x00\n        /* \"#utility.yul\":8860:8862   */\n      0x20\n        /* \"#utility.yul\":8849:8858   */\n      dup3\n        /* \"#utility.yul\":8845:8863   */\n      add\n        /* \"#utility.yul\":8837:8863   */\n      swap1\n      pop\n        /* \"#utility.yul\":8909:8918   */\n      dup2\n        /* \"#utility.yul\":8903:8907   */\n      dup2\n        /* \"#utility.yul\":8899:8919   */\n      sub\n        /* \"#utility.yul\":8895:8896   */\n      0x00\n        /* \"#utility.yul\":8884:8893   */\n      dup4\n        /* \"#utility.yul\":8880:8897   */\n      add\n        /* \"#utility.yul\":8873:8920   */\n      mstore\n        /* \"#utility.yul\":8937:9068   */\n      tag_325\n        /* \"#utility.yul\":9063:9067   */\n      dup2\n        /* \"#utility.yul\":8937:9068   */\n      tag_268\n      jump\t// in\n    tag_325:\n        /* \"#utility.yul\":8929:9068   */\n      swap1\n      pop\n        /* \"#utility.yul\":8656:9075   */\n      swap2\n      swap1\n      pop\n      jump\t// out\n        /* \"#utility.yul\":9081:9500   */\n    tag_113:\n        /* \"#utility.yul\":9247:9251   */\n      0x00\n        /* \"#utility.yul\":9285:9287   */\n      0x20\n        /* \"#utility.yul\":9274:9283   */\n      dup3\n        /* \"#utility.yul\":9270:9288   */\n      add\n        /* \"#utility.yul\":9262:9288   */\n      swap1\n      pop\n        /* \"#utility.yul\":9334:9343   */\n      dup2\n        /* \"#utility.yul\":9328:9332   */\n      dup2\n        /* \"#utility.yul\":9324:9344   */\n      sub\n        /* \"#utility.yul\":9320:9321   */\n      0x00\n        /* \"#utility.yul\":9309:9318   */\n      dup4\n        /* \"#utility.yul\":9305:9322   */\n      add\n        /* \"#utility.yul\":9298:9345   */\n      mstore\n        /* \"#utility.yul\":9362:9493   */\n      tag_327\n        /* \"#utility.yul\":9488:9492   */\n      dup2\n        /* \"#utility.yul\":9362:9493   */\n      tag_273\n      jump\t// in\n    tag_327:\n        /* \"#utility.yul\":9354:9493   */\n      swap1\n      pop\n        /* \"#utility.yul\":9081:9500   */\n      swap2\n      swap1\n      pop\n      jump\t// out\n        /* \"#utility.yul\":9506:9925   */\n    tag_136:\n        /* \"#utility.yul\":9672:9676   */\n      0x00\n        /* \"#utility.yul\":9710:9712   */\n      0x20\n        /* \"#utility.yul\":9699:9708   */\n      dup3\n        /* \"#utility.yul\":9695:9713   */\n      add\n        /* \"#utility.yul\":9687:9713   */\n      swap1\n      pop\n        /* \"#utility.yul\":9759:9768   */\n      dup2\n        /* \"#utility.yul\":9753:9757   */\n      dup2\n        /* \"#utility.yul\":9749:9769   */\n      sub\n        /* \"#utility.yul\":9745:9746   */\n      0x00\n        /* \"#utility.yul\":9734:9743   */\n      dup4\n        /* \"#utility.yul\":9730:9747   */\n      add\n        /* \"#utility.yul\":9723:9770   */\n      mstore\n        /* \"#utility.yul\":9787:9918   */\n      tag_329\n        /* \"#utility.yul\":9913:9917   */\n      dup2\n        /* \"#utility.yul\":9787:9918   */\n      tag_278\n      jump\t// in\n    tag_329:\n        /* \"#utility.yul\":9779:9918   */\n      swap1\n      pop\n        /* \"#utility.yul\":9506:9925   */\n      swap2\n      swap1\n      pop\n      jump\t// out\n        /* \"#utility.yul\":9931:10350   */\n    tag_140:\n        /* \"#utility.yul\":10097:10101   */\n      0x00\n        /* \"#utility.yul\":10135:10137   */\n      0x20\n        /* \"#utility.yul\":10124:10133   */\n      dup3\n        /* \"#utility.yul\":10120:10138   */\n      add\n        /* \"#utility.yul\":10112:10138   */\n      swap1\n      pop\n        /* \"#utility.yul\":10184:10193   */\n      dup2\n        /* \"#utility.yul\":10178:10182   */\n      dup2\n        /* \"#utility.yul\":10174:10194   */\n      sub\n        /* \"#utility.yul\":10170:10171   */\n      0x00\n        /* \"#utility.yul\":10159:10168   */\n      dup4\n        /* \"#utility.yul\":10155:10172   */\n      add\n        /* \"#utility.yul\":10148:10195   */\n      mstore\n        /* \"#utility.yul\":10212:10343   */\n      tag_331\n        /* \"#utility.yul\":10338:10342   */\n      dup2\n        /* \"#utility.yul\":10212:10343   */\n      tag_283\n      jump\t// in\n    tag_331:\n        /* \"#utility.yul\":10204:10343   */\n      swap1\n      pop\n        /* \"#utility.yul\":9931:10350   */\n      swap2\n      swap1\n      pop\n      jump\t// out\n        /* \"#utility.yul\":10356:10775   */\n    tag_126:\n        /* \"#utility.yul\":10522:10526   */\n      0x00\n        /* \"#utility.yul\":10560:10562   */\n      0x20\n        /* \"#utility.yul\":10549:10558   */\n      dup3\n        /* \"#utility.yul\":10545:10563   */\n      add\n        /* \"#utility.yul\":10537:10563   */\n      swap1\n      pop\n        /* \"#utility.yul\":10609:10618   */\n      dup2\n        /* \"#utility.yul\":10603:10607   */\n      dup2\n        /* \"#utility.yul\":10599:10619   */\n      sub\n        /* \"#utility.yul\":10595:10596   */\n      0x00\n        /* \"#utility.yul\":10584:10593   */\n      dup4\n        /* \"#utility.yul\":10580:10597   */\n      add\n        /* \"#utility.yul\":10573:10620   */\n      mstore\n        /* \"#utility.yul\":10637:10768   */\n      tag_333\n        /* \"#utility.yul\":10763:10767   */\n      dup2\n        /* \"#utility.yul\":10637:10768   */\n      tag_288\n      jump\t// in\n    tag_333:\n        /* \"#utility.yul\":10629:10768   */\n      swap1\n      pop\n        /* \"#utility.yul\":10356:10775   */\n      swap2\n      swap1\n      pop\n      jump\t// out\n        /* \"#utility.yul\":10781:11200   */\n    tag_109:\n        /* \"#utility.yul\":10947:10951   */\n      0x00\n        /* \"#utility.yul\":10985:10987   */\n      0x20\n        /* \"#utility.yul\":10974:10983   */\n      dup3\n        /* \"#utility.yul\":10970:10988   */\n      add\n        /* \"#utility.yul\":10962:10988   */\n      swap1\n      pop\n        /* \"#utility.yul\":11034:11043   */\n      dup2\n        /* \"#utility.yul\":11028:11032   */\n      dup2\n        /* \"#utility.yul\":11024:11044   */\n      sub\n        /* \"#utility.yul\":11020:11021   */\n      0x00\n        /* \"#utility.yul\":11009:11018   */\n      dup4\n        /* \"#utility.yul\":11005:11022   */\n      add\n        /* \"#utility.yul\":10998:11045   */\n      mstore\n        /* \"#utility.yul\":11062:11193   */\n      tag_335\n        /* \"#utility.yul\":11188:11192   */\n      dup2\n        /* \"#utility.yul\":11062:11193   */\n      tag_293\n      jump\t// in\n    tag_335:\n        /* \"#utility.yul\":11054:11193   */\n      swap1\n      pop\n        /* \"#utility.yul\":10781:11200   */\n      swap2\n      swap1\n      pop\n      jump\t// out\n        /* \"#utility.yul\":11206:11625   */\n    tag_106:\n        /* \"#utility.yul\":11372:11376   */\n      0x00\n        /* \"#utility.yul\":11410:11412   */\n      0x20\n        /* \"#utility.yul\":11399:11408   */\n      dup3\n        /* \"#utility.yul\":11395:11413   */\n      add\n        /* \"#utility.yul\":11387:11413   */\n      swap1\n      pop\n        /* \"#utility.yul\":11459:11468   */\n      dup2\n        /* \"#utility.yul\":11453:11457   */\n      dup2\n        /* \"#utility.yul\":11449:11469   */\n      sub\n        /* \"#utility.yul\":11445:11446   */\n      0x00\n        /* \"#utility.yul\":11434:11443   */\n      dup4\n        /* \"#utility.yul\":11430:11447   */\n      add\n        /* \"#utility.yul\":11423:11470   */\n      mstore\n        /* \"#utility.yul\":11487:11618   */\n      tag_337\n        /* \"#utility.yul\":11613:11617   */\n      dup2\n        /* \"#utility.yul\":11487:11618   */\n      tag_298\n      jump\t// in\n    tag_337:\n        /* \"#utility.yul\":11479:11618   */\n      swap1\n      pop\n        /* \"#utility.yul\":11206:11625   */\n      swap2\n      swap1\n      pop\n      jump\t// out\n        /* \"#utility.yul\":11631:11853   */\n    tag_31:\n        /* \"#utility.yul\":11724:11728   */\n      0x00\n        /* \"#utility.yul\":11762:11764   */\n      0x20\n        /* \"#utility.yul\":11751:11760   */\n      dup3\n        /* \"#utility.yul\":11747:11765   */\n      add\n        /* \"#utility.yul\":11739:11765   */\n      swap1\n      pop\n        /* \"#utility.yul\":11775:11846   */\n      tag_339\n        /* \"#utility.yul\":11843:11844   */\n      0x00\n        /* \"#utility.yul\":11832:11841   */\n      dup4\n        /* \"#utility.yul\":11828:11845   */\n      add\n        /* \"#utility.yul\":11819:11825   */\n      dup5\n        /* \"#utility.yul\":11775:11846   */\n      tag_303\n      jump\t// in\n    tag_339:\n        /* \"#utility.yul\":11631:11853   */\n      swap3\n      swap2\n      pop\n      pop\n      jump\t// out\n        /* \"#utility.yul\":11859:11988   */\n    tag_196:\n        /* \"#utility.yul\":11893:11899   */\n      0x00\n        /* \"#utility.yul\":11920:11940   */\n      tag_341\n      tag_342\n      jump\t// in\n    tag_341:\n        /* \"#utility.yul\":11910:11940   */\n      swap1\n      pop\n        /* \"#utility.yul\":11949:11982   */\n      tag_343\n        /* \"#utility.yul\":11977:11981   */\n      dup3\n        /* \"#utility.yul\":11969:11975   */\n      dup3\n        /* \"#utility.yul\":11949:11982   */\n      tag_344\n      jump\t// in\n    tag_343:\n        /* \"#utility.yul\":11859:11988   */\n      swap2\n      swap1\n      pop\n      jump\t// out\n        /* \"#utility.yul\":11994:12069   */\n    tag_342:\n        /* \"#utility.yul\":12027:12033   */\n      0x00\n        /* \"#utility.yul\":12060:12062   */\n      0x40\n        /* \"#utility.yul\":12054:12063   */\n      mload\n        /* \"#utility.yul\":12044:12063   */\n      swap1\n      pop\n        /* \"#utility.yul\":11994:12069   */\n      swap1\n      jump\t// out\n        /* \"#utility.yul\":12075:12383   */\n    tag_195:\n        /* \"#utility.yul\":12137:12141   */\n      0x00\n        /* \"#utility.yul\":12227:12245   */\n      0xffffffffffffffff\n        /* \"#utility.yul\":12219:12225   */\n      dup3\n        /* \"#utility.yul\":12216:12246   */\n      gt\n        /* \"#utility.yul\":12213:12269   */\n      iszero\n      tag_347\n      jumpi\n        /* \"#utility.yul\":12249:12267   */\n      tag_348\n      tag_349\n      jump\t// in\n    tag_348:\n        /* \"#utility.yul\":12213:12269   */\n    tag_347:\n        /* \"#utility.yul\":12287:12316   */\n      tag_350\n        /* \"#utility.yul\":12309:12315   */\n      dup3\n        /* \"#utility.yul\":12287:12316   */\n      tag_267\n      jump\t// in\n    tag_350:\n        /* \"#utility.yul\":12279:12316   */\n      swap1\n      pop\n        /* \"#utility.yul\":12371:12375   */\n      0x20\n        /* \"#utility.yul\":12365:12369   */\n      dup2\n        /* \"#utility.yul\":12361:12376   */\n      add\n        /* \"#utility.yul\":12353:12376   */\n      swap1\n      pop\n        /* \"#utility.yul\":12075:12383   */\n      swap2\n      swap1\n      pop\n      jump\t// out\n        /* \"#utility.yul\":12389:12488   */\n    tag_261:\n        /* \"#utility.yul\":12441:12447   */\n      0x00\n        /* \"#utility.yul\":12475:12480   */\n      dup2\n        /* \"#utility.yul\":12469:12481   */\n      mload\n        /* \"#utility.yul\":12459:12481   */\n      swap1\n      pop\n        /* \"#utility.yul\":12389:12488   */\n      swap2\n      swap1\n      pop\n      jump\t// out\n        /* \"#utility.yul\":12494:12663   */\n    tag_263:\n        /* \"#utility.yul\":12578:12589   */\n      0x00\n        /* \"#utility.yul\":12612:12618   */\n      dup3\n        /* \"#utility.yul\":12607:12610   */\n      dup3\n        /* \"#utility.yul\":12600:12619   */\n      mstore\n        /* \"#utility.yul\":12652:12656   */\n      0x20\n        /* \"#utility.yul\":12647:12650   */\n      dup3\n        /* \"#utility.yul\":12643:12657   */\n      add\n        /* \"#utility.yul\":12628:12657   */\n      swap1\n      pop\n        /* \"#utility.yul\":12494:12663   */\n      swap3\n      swap2\n      pop\n      pop\n      jump\t// out\n        /* \"#utility.yul\":12669:12974   */\n    tag_118:\n        /* \"#utility.yul\":12709:12712   */\n      0x00\n        /* \"#utility.yul\":12728:12748   */\n      tag_354\n        /* \"#utility.yul\":12746:12747   */\n      dup3\n        /* \"#utility.yul\":12728:12748   */\n      tag_306\n      jump\t// in\n    tag_354:\n        /* \"#utility.yul\":12723:12748   */\n      swap2\n      pop\n        /* \"#utility.yul\":12762:12782   */\n      tag_355\n        /* \"#utility.yul\":12780:12781   */\n      dup4\n        /* \"#utility.yul\":12762:12782   */\n      tag_306\n      jump\t// in\n    tag_355:\n        /* \"#utility.yul\":12757:12782   */\n      swap3\n      pop\n        /* \"#utility.yul\":12916:12917   */\n      dup3\n        /* \"#utility.yul\":12848:12914   */\n      0xffffffffffffffffffffffffffffffffffffffffffffffffffffffffffffffff\n        /* \"#utility.yul\":12844:12918   */\n      sub\n        /* \"#utility.yul\":12841:12842   */\n      dup3\n        /* \"#utility.yul\":12838:12919   */\n      gt\n        /* \"#utility.yul\":12835:12942   */\n      iszero\n      tag_356\n      jumpi\n        /* \"#utility.yul\":12922:12940   */\n      tag_357\n      tag_358\n      jump\t// in\n    tag_357:\n        /* \"#utility.yul\":12835:12942   */\n    tag_356:\n        /* \"#utility.yul\":12966:12967   */\n      dup3\n        /* \"#utility.yul\":12963:12964   */\n      dup3\n        /* \"#utility.yul\":12959:12968   */\n      add\n        /* \"#utility.yul\":12952:12968   */\n      swap1\n      pop\n        /* \"#utility.yul\":12669:12974   */\n      swap3\n      swap2\n      pop\n      pop\n      jump\t// out\n        /* \"#utility.yul\":12980:13165   */\n    tag_151:\n        /* \"#utility.yul\":13020:13021   */\n      0x00\n        /* \"#utility.yul\":13037:13057   */\n      tag_360\n        /* \"#utility.yul\":13055:13056   */\n      dup3\n        /* \"#utility.yul\":13037:13057   */\n      tag_306\n      jump\t// in\n    tag_360:\n        /* \"#utility.yul\":13032:13057   */\n      swap2\n      pop\n        /* \"#utility.yul\":13071:13091   */\n      tag_361\n        /* \"#utility.yul\":13089:13090   */\n      dup4\n        /* \"#utility.yul\":13071:13091   */\n      tag_306\n      jump\t// in\n    tag_361:\n        /* \"#utility.yul\":13066:13091   */\n      swap3\n      pop\n        /* \"#utility.yul\":13110:13111   */\n      dup3\n        /* \"#utility.yul\":13100:13135   */\n      tag_362\n      jumpi\n        /* \"#utility.yul\":13115:13133   */\n      tag_363\n      tag_364\n      jump\t// in\n    tag_363:\n        /* \"#utility.yul\":13100:13135   */\n    tag_362:\n        /* \"#utility.yul\":13157:13158   */\n      dup3\n        /* \"#utility.yul\":13154:13155   */\n      dup3\n        /* \"#utility.yul\":13150:13159   */\n      div\n        /* \"#utility.yul\":13145:13159   */\n      swap1\n      pop\n        /* \"#utility.yul\":12980:13165   */\n      swap3\n      swap2\n      pop\n      pop\n      jump\t// out\n        /* \"#utility.yul\":13171:13267   */\n    tag_249:\n        /* \"#utility.yul\":13208:13215   */\n      0x00\n        /* \"#utility.yul\":13237:13261   */\n      tag_366\n        /* \"#utility.yul\":13255:13260   */\n      dup3\n        /* \"#utility.yul\":13237:13261   */\n      tag_367\n      jump\t// in\n    tag_366:\n        /* \"#utility.yul\":13226:13261   */\n      swap1\n      pop\n        /* \"#utility.yul\":13171:13267   */\n      swap2\n      swap1\n      pop\n      jump\t// out\n        /* \"#utility.yul\":13273:13377   */\n    tag_245:\n        /* \"#utility.yul\":13318:13325   */\n      0x00\n        /* \"#utility.yul\":13347:13371   */\n      tag_369\n        /* \"#utility.yul\":13365:13370   */\n      dup3\n        /* \"#utility.yul\":13347:13371   */\n      tag_367\n      jump\t// in\n    tag_369:\n        /* \"#utility.yul\":13336:13371   */\n      swap1\n      pop\n        /* \"#utility.yul\":13273:13377   */\n      swap2\n      swap1\n      pop\n      jump\t// out\n        /* \"#utility.yul\":13383:13473   */\n    tag_253:\n        /* \"#utility.yul\":13417:13424   */\n      0x00\n        /* \"#utility.yul\":13460:13465   */\n      dup2\n        /* \"#utility.yul\":13453:13466   */\n      iszero\n        /* \"#utility.yul\":13446:13467   */\n      iszero\n        /* \"#utility.yul\":13435:13467   */\n      swap1\n      pop\n        /* \"#utility.yul\":13383:13473   */\n      swap2\n      swap1\n      pop\n      jump\t// out\n        /* \"#utility.yul\":13479:13606   */\n    tag_371:\n        /* \"#utility.yul\":13524:13531   */\n      0x00\n        /* \"#utility.yul\":13553:13558   */\n      dup2\n        /* \"#utility.yul\":13542:13558   */\n      swap1\n      pop\n        /* \"#utility.yul\":13559:13600   */\n      tag_373\n        /* \"#utility.yul\":13594:13599   */\n      dup3\n        /* \"#utility.yul\":13559:13600   */\n      tag_374\n      jump\t// in\n    tag_373:\n        /* \"#utility.yul\":13479:13606   */\n      swap2\n      swap1\n      pop\n      jump\t// out\n        /* \"#utility.yul\":13612:13738   */\n    tag_367:\n        /* \"#utility.yul\":13649:13656   */\n      0x00\n        /* \"#utility.yul\":13689:13731   */\n      0xffffffffffffffffffffffffffffffffffffffff\n        /* \"#utility.yul\":13682:13687   */\n      dup3\n        /* \"#utility.yul\":13678:13732   */\n      and\n        /* \"#utility.yul\":13667:13732   */\n      swap1\n      pop\n        /* \"#utility.yul\":13612:13738   */\n      swap2\n      swap1\n      pop\n      jump\t// out\n        /* \"#utility.yul\":13744:13821   */\n    tag_306:\n        /* \"#utility.yul\":13781:13788   */\n      0x00\n        /* \"#utility.yul\":13810:13815   */\n      dup2\n        /* \"#utility.yul\":13799:13815   */\n      swap1\n      pop\n        /* \"#utility.yul\":13744:13821   */\n      swap2\n      swap1\n      pop\n      jump\t// out\n        /* \"#utility.yul\":13827:13961   */\n    tag_241:\n        /* \"#utility.yul\":13885:13894   */\n      0x00\n        /* \"#utility.yul\":13918:13955   */\n      tag_378\n        /* \"#utility.yul\":13949:13954   */\n      dup3\n        /* \"#utility.yul\":13918:13955   */\n      tag_379\n      jump\t// in\n    tag_378:\n        /* \"#utility.yul\":13905:13955   */\n      swap1\n      pop\n        /* \"#utility.yul\":13827:13961   */\n      swap2\n      swap1\n      pop\n      jump\t// out\n        /* \"#utility.yul\":13967:14094   */\n    tag_257:\n        /* \"#utility.yul\":14023:14032   */\n      0x00\n        /* \"#utility.yul\":14056:14088   */\n      tag_381\n        /* \"#utility.yul\":14082:14087   */\n      dup3\n        /* \"#utility.yul\":14056:14088   */\n      tag_371\n      jump\t// in\n    tag_381:\n        /* \"#utility.yul\":14043:14088   */\n      swap1\n      pop\n        /* \"#utility.yul\":13967:14094   */\n      swap2\n      swap1\n      pop\n      jump\t// out\n        /* \"#utility.yul\":14100:14226   */\n    tag_379:\n        /* \"#utility.yul\":14150:14159   */\n      0x00\n        /* \"#utility.yul\":14183:14220   */\n      tag_383\n        /* \"#utility.yul\":14214:14219   */\n      dup3\n        /* \"#utility.yul\":14183:14220   */\n      tag_384\n      jump\t// in\n    tag_383:\n        /* \"#utility.yul\":14170:14220   */\n      swap1\n      pop\n        /* \"#utility.yul\":14100:14226   */\n      swap2\n      swap1\n      pop\n      jump\t// out\n        /* \"#utility.yul\":14232:14345   */\n    tag_384:\n        /* \"#utility.yul\":14282:14291   */\n      0x00\n        /* \"#utility.yul\":14315:14339   */\n      tag_386\n        /* \"#utility.yul\":14333:14338   */\n      dup3\n        /* \"#utility.yul\":14315:14339   */\n      tag_367\n      jump\t// in\n    tag_386:\n        /* \"#utility.yul\":14302:14339   */\n      swap1\n      pop\n        /* \"#utility.yul\":14232:14345   */\n      swap2\n      swap1\n      pop\n      jump\t// out\n        /* \"#utility.yul\":14351:14505   */\n    tag_201:\n        /* \"#utility.yul\":14435:14441   */\n      dup3\n        /* \"#utility.yul\":14430:14433   */\n      dup2\n        /* \"#utility.yul\":14425:14428   */\n      dup4\n        /* \"#utility.yul\":14412:14442   */\n      calldatacopy\n        /* \"#utility.yul\":14497:14498   */\n      0x00\n        /* \"#utility.yul\":14488:14494   */\n      dup4\n        /* \"#utility.yul\":14483:14486   */\n      dup4\n        /* \"#utility.yul\":14479:14495   */\n      add\n        /* \"#utility.yul\":14472:14499   */\n      mstore\n        /* \"#utility.yul\":14351:14505   */\n      pop\n      pop\n      pop\n      jump\t// out\n        /* \"#utility.yul\":14511:14818   */\n    tag_265:\n        /* \"#utility.yul\":14579:14580   */\n      0x00\n        /* \"#utility.yul\":14589:14702   */\n    tag_389:\n        /* \"#utility.yul\":14603:14609   */\n      dup4\n        /* \"#utility.yul\":14600:14601   */\n      dup2\n        /* \"#utility.yul\":14597:14610   */\n      lt\n        /* \"#utility.yul\":14589:14702   */\n      iszero\n      tag_391\n      jumpi\n        /* \"#utility.yul\":14688:14689   */\n      dup1\n        /* \"#utility.yul\":14683:14686   */\n      dup3\n        /* \"#utility.yul\":14679:14690   */\n      add\n        /* \"#utility.yul\":14673:14691   */\n      mload\n        /* \"#utility.yul\":14669:14670   */\n      dup2\n        /* \"#utility.yul\":14664:14667   */\n      dup5\n        /* \"#utility.yul\":14660:14671   */\n      add\n        /* \"#utility.yul\":14653:14692   */\n      mstore\n        /* \"#utility.yul\":14625:14627   */\n      0x20\n        /* \"#utility.yul\":14622:14623   */\n      dup2\n        /* \"#utility.yul\":14618:14628   */\n      add\n        /* \"#utility.yul\":14613:14628   */\n      swap1\n      pop\n        /* \"#utility.yul\":14589:14702   */\n      jump(tag_389)\n    tag_391:\n        /* \"#utility.yul\":14720:14726   */\n      dup4\n        /* \"#utility.yul\":14717:14718   */\n      dup2\n        /* \"#utility.yul\":14714:14727   */\n      gt\n        /* \"#utility.yul\":14711:14812   */\n      iszero\n      tag_392\n      jumpi\n        /* \"#utility.yul\":14800:14801   */\n      0x00\n        /* \"#utility.yul\":14791:14797   */\n      dup5\n        /* \"#utility.yul\":14786:14789   */\n      dup5\n        /* \"#utility.yul\":14782:14798   */\n      add\n        /* \"#utility.yul\":14775:14802   */\n      mstore\n        /* \"#utility.yul\":14711:14812   */\n    tag_392:\n        /* \"#utility.yul\":14560:14818   */\n      pop\n        /* \"#utility.yul\":14511:14818   */\n      pop\n      pop\n      pop\n      jump\t// out\n        /* \"#utility.yul\":14824:15144   */\n    tag_156:\n        /* \"#utility.yul\":14868:14874   */\n      0x00\n        /* \"#utility.yul\":14905:14906   */\n      0x02\n        /* \"#utility.yul\":14899:14903   */\n      dup3\n        /* \"#utility.yul\":14895:14907   */\n      div\n        /* \"#utility.yul\":14885:14907   */\n      swap1\n      pop\n        /* \"#utility.yul\":14952:14953   */\n      0x01\n        /* \"#utility.yul\":14946:14950   */\n      dup3\n        /* \"#utility.yul\":14942:14954   */\n      and\n        /* \"#utility.yul\":14973:14991   */\n      dup1\n        /* \"#utility.yul\":14963:15044   */\n      tag_394\n      jumpi\n        /* \"#utility.yul\":15029:15033   */\n      0x7f\n        /* \"#utility.yul\":15021:15027   */\n      dup3\n        /* \"#utility.yul\":15017:15034   */\n      and\n        /* \"#utility.yul\":15007:15034   */\n      swap2\n      pop\n        /* \"#utility.yul\":14963:15044   */\n    tag_394:\n        /* \"#utility.yul\":15091:15093   */\n      0x20\n        /* \"#utility.yul\":15083:15089   */\n      dup3\n        /* \"#utility.yul\":15080:15094   */\n      lt\n        /* \"#utility.yul\":15060:15078   */\n      dup2\n        /* \"#utility.yul\":15057:15095   */\n      eq\n        /* \"#utility.yul\":15054:15138   */\n      iszero\n      tag_395\n      jumpi\n        /* \"#utility.yul\":15110:15128   */\n      tag_396\n      tag_397\n      jump\t// in\n    tag_396:\n        /* \"#utility.yul\":15054:15138   */\n    tag_395:\n        /* \"#utility.yul\":14875:15144   */\n      pop\n        /* \"#utility.yul\":14824:15144   */\n      swap2\n      swap1\n      pop\n      jump\t// out\n        /* \"#utility.yul\":15150:15431   */\n    tag_344:\n        /* \"#utility.yul\":15233:15260   */\n      tag_399\n        /* \"#utility.yul\":15255:15259   */\n      dup3\n        /* \"#utility.yul\":15233:15260   */\n      tag_267\n      jump\t// in\n    tag_399:\n        /* \"#utility.yul\":15225:15231   */\n      dup2\n        /* \"#utility.yul\":15221:15261   */\n      add\n        /* \"#utility.yul\":15363:15369   */\n      dup2\n        /* \"#utility.yul\":15351:15361   */\n      dup2\n        /* \"#utility.yul\":15348:15370   */\n      lt\n        /* \"#utility.yul\":15327:15345   */\n      0xffffffffffffffff\n        /* \"#utility.yul\":15315:15325   */\n      dup3\n        /* \"#utility.yul\":15312:15346   */\n      gt\n        /* \"#utility.yul\":15309:15371   */\n      or\n        /* \"#utility.yul\":15306:15394   */\n      iszero\n      tag_400\n      jumpi\n        /* \"#utility.yul\":15374:15392   */\n      tag_401\n      tag_349\n      jump\t// in\n    tag_401:\n        /* \"#utility.yul\":15306:15394   */\n    tag_400:\n        /* \"#utility.yul\":15414:15424   */\n      dup1\n        /* \"#utility.yul\":15410:15412   */\n      0x40\n        /* \"#utility.yul\":15403:15425   */\n      mstore\n        /* \"#utility.yul\":15193:15431   */\n      pop\n        /* \"#utility.yul\":15150:15431   */\n      pop\n      pop\n      jump\t// out\n        /* \"#utility.yul\":15437:15670   */\n    tag_116:\n        /* \"#utility.yul\":15476:15479   */\n      0x00\n        /* \"#utility.yul\":15499:15523   */\n      tag_403\n        /* \"#utility.yul\":15517:15522   */\n      dup3\n        /* \"#utility.yul\":15499:15523   */\n      tag_306\n      jump\t// in\n    tag_403:\n        /* \"#utility.yul\":15490:15523   */\n      swap2\n      pop\n        /* \"#utility.yul\":15545:15611   */\n      0xffffffffffffffffffffffffffffffffffffffffffffffffffffffffffffffff\n        /* \"#utility.yul\":15538:15543   */\n      dup3\n        /* \"#utility.yul\":15535:15612   */\n      eq\n        /* \"#utility.yul\":15532:15635   */\n      iszero\n      tag_404\n      jumpi\n        /* \"#utility.yul\":15615:15633   */\n      tag_405\n      tag_358\n      jump\t// in\n    tag_405:\n        /* \"#utility.yul\":15532:15635   */\n    tag_404:\n        /* \"#utility.yul\":15662:15663   */\n      0x01\n        /* \"#utility.yul\":15655:15660   */\n      dup3\n        /* \"#utility.yul\":15651:15664   */\n      add\n        /* \"#utility.yul\":15644:15664   */\n      swap1\n      pop\n        /* \"#utility.yul\":15437:15670   */\n      swap2\n      swap1\n      pop\n      jump\t// out\n        /* \"#utility.yul\":15676:15856   */\n    tag_358:\n        /* \"#utility.yul\":15724:15801   */\n      0x4e487b7100000000000000000000000000000000000000000000000000000000\n        /* \"#utility.yul\":15721:15722   */\n      0x00\n        /* \"#utility.yul\":15714:15802   */\n      mstore\n        /* \"#utility.yul\":15821:15825   */\n      0x11\n        /* \"#utility.yul\":15818:15819   */\n      0x04\n        /* \"#utility.yul\":15811:15826   */\n      mstore\n        /* \"#utility.yul\":15845:15849   */\n      0x24\n        /* \"#utility.yul\":15842:15843   */\n      0x00\n        /* \"#utility.yul\":15835:15850   */\n      revert\n        /* \"#utility.yul\":15862:16042   */\n    tag_364:\n        /* \"#utility.yul\":15910:15987   */\n      0x4e487b7100000000000000000000000000000000000000000000000000000000\n        /* \"#utility.yul\":15907:15908   */\n      0x00\n        /* \"#utility.yul\":15900:15988   */\n      mstore\n        /* \"#utility.yul\":16007:16011   */\n      0x12\n        /* \"#utility.yul\":16004:16005   */\n      0x04\n        /* \"#utility.yul\":15997:16012   */\n      mstore\n        /* \"#utility.yul\":16031:16035   */\n      0x24\n        /* \"#utility.yul\":16028:16029   */\n      0x00\n        /* \"#utility.yul\":16021:16036   */\n      revert\n        /* \"#utility.yul\":16048:16228   */\n    tag_101:\n        /* \"#utility.yul\":16096:16173   */\n      0x4e487b7100000000000000000000000000000000000000000000000000000000\n        /* \"#utility.yul\":16093:16094   */\n      0x00\n        /* \"#utility.yul\":16086:16174   */\n      mstore\n        /* \"#utility.yul\":16193:16197   */\n      0x21\n        /* \"#utility.yul\":16190:16191   */\n      0x04\n        /* \"#utility.yul\":16183:16198   */\n      mstore\n        /* \"#utility.yul\":16217:16221   */\n      0x24\n        /* \"#utility.yul\":16214:16215   */\n      0x00\n        /* \"#utility.yul\":16207:16222   */\n      revert\n        /* \"#utility.yul\":16234:16414   */\n    tag_397:\n        /* \"#utility.yul\":16282:16359   */\n      0x4e487b7100000000000000000000000000000000000000000000000000000000\n        /* \"#utility.yul\":16279:16280   */\n      0x00\n        /* \"#utility.yul\":16272:16360   */\n      mstore\n        /* \"#utility.yul\":16379:16383   */\n      0x22\n        /* \"#utility.yul\":16376:16377   */\n      0x04\n        /* \"#utility.yul\":16369:16384   */\n      mstore\n        /* \"#utility.yul\":16403:16407   */\n      0x24\n        /* \"#utility.yul\":16400:16401   */\n      0x00\n        /* \"#utility.yul\":16393:16408   */\n      revert\n        /* \"#utility.yul\":16420:16600   */\n    tag_349:\n        /* \"#utility.yul\":16468:16545   */\n      0x4e487b7100000000000000000000000000000000000000000000000000000000\n        /* \"#utility.yul\":16465:16466   */\n      0x00\n        /* \"#utility.yul\":16458:16546   */\n      mstore\n        /* \"#utility.yul\":16565:16569   */\n      0x41\n        /* \"#utility.yul\":16562:16563   */\n      0x04\n        /* \"#utility.yul\":16555:16570   */\n      mstore\n        /* \"#utility.yul\":16589:16593   */\n      0x24\n        /* \"#utility.yul\":16586:16587   */\n      0x00\n        /* \"#utility.yul\":16579:16594   */\n      revert\n        /* \"#utility.yul\":16606:16723   */\n    tag_214:\n        /* \"#utility.yul\":16715:16716   */\n      0x00\n        /* \"#utility.yul\":16712:16713   */\n      dup1\n        /* \"#utility.yul\":16705:16717   */\n      revert\n        /* \"#utility.yul\":16729:16846   */\n    tag_199:\n        /* \"#utility.yul\":16838:16839   */\n      0x00\n        /* \"#utility.yul\":16835:16836   */\n      dup1\n        /* \"#utility.yul\":16828:16840   */\n      revert\n        /* \"#utility.yul\":16852:16969   */\n    tag_230:\n        /* \"#utility.yul\":16961:16962   */\n      0x00\n        /* \"#utility.yul\":16958:16959   */\n      dup1\n        /* \"#utility.yul\":16951:16963   */\n      revert\n        /* \"#utility.yul\":16975:17092   */\n    tag_223:\n        /* \"#utility.yul\":17084:17085   */\n      0x00\n        /* \"#utility.yul\":17081:17082   */\n      dup1\n        /* \"#utility.yul\":17074:17086   */\n      revert\n        /* \"#utility.yul\":17098:17200   */\n    tag_267:\n        /* \"#utility.yul\":17139:17145   */\n      0x00\n        /* \"#utility.yul\":17190:17192   */\n      0x1f\n        /* \"#utility.yul\":17186:17193   */\n      not\n        /* \"#utility.yul\":17181:17183   */\n      0x1f\n        /* \"#utility.yul\":17174:17179   */\n      dup4\n        /* \"#utility.yul\":17170:17184   */\n      add\n        /* \"#utility.yul\":17166:17194   */\n      and\n        /* \"#utility.yul\":17156:17194   */\n      swap1\n      pop\n        /* \"#utility.yul\":17098:17200   */\n      swap2\n      swap1\n      pop\n      jump\t// out\n        /* \"#utility.yul\":17206:17381   */\n    tag_272:\n        /* \"#utility.yul\":17346:17373   */\n      0x7265717565737420616c726561647920636f6d706c6574656400000000000000\n        /* \"#utility.yul\":17342:17343   */\n      0x00\n        /* \"#utility.yul\":17334:17340   */\n      dup3\n        /* \"#utility.yul\":17330:17344   */\n      add\n        /* \"#utility.yul\":17323:17374   */\n      mstore\n        /* \"#utility.yul\":17206:17381   */\n      pop\n      jump\t// out\n        /* \"#utility.yul\":17387:17565   */\n    tag_277:\n        /* \"#utility.yul\":17527:17557   */\n      0x6469646e74207265616368206d696e20636f6e747269627574696f6e00000000\n        /* \"#utility.yul\":17523:17524   */\n      0x00\n        /* \"#utility.yul\":17515:17521   */\n      dup3\n        /* \"#utility.yul\":17511:17525   */\n      add\n        /* \"#utility.yul\":17504:17558   */\n      mstore\n        /* \"#utility.yul\":17387:17565   */\n      pop\n      jump\t// out\n        /* \"#utility.yul\":17571:17746   */\n    tag_282:\n        /* \"#utility.yul\":17711:17738   */\n      0x796f7520617265206e6f74206120636f6e7472696275746f7200000000000000\n        /* \"#utility.yul\":17707:17708   */\n      0x00\n        /* \"#utility.yul\":17699:17705   */\n      dup3\n        /* \"#utility.yul\":17695:17709   */\n      add\n        /* \"#utility.yul\":17688:17739   */\n      mstore\n        /* \"#utility.yul\":17571:17746   */\n      pop\n      jump\t// out\n        /* \"#utility.yul\":17752:17919   */\n    tag_287:\n        /* \"#utility.yul\":17892:17911   */\n      0x796f7520616c726561647920766f746564000000000000000000000000000000\n        /* \"#utility.yul\":17888:17889   */\n      0x00\n        /* \"#utility.yul\":17880:17886   */\n      dup3\n        /* \"#utility.yul\":17876:17890   */\n      add\n        /* \"#utility.yul\":17869:17912   */\n      mstore\n        /* \"#utility.yul\":17752:17919   */\n      pop\n      jump\t// out\n        /* \"#utility.yul\":17925:18105   */\n    tag_292:\n        /* \"#utility.yul\":18065:18097   */\n      0x6d6573736167652073656e646572206973206e6f7420616e2061646d696e0000\n        /* \"#utility.yul\":18061:18062   */\n      0x00\n        /* \"#utility.yul\":18053:18059   */\n      dup3\n        /* \"#utility.yul\":18049:18063   */\n      add\n        /* \"#utility.yul\":18042:18098   */\n      mstore\n        /* \"#utility.yul\":17925:18105   */\n      pop\n      jump\t// out\n        /* \"#utility.yul\":18111:18276   */\n    tag_297:\n        /* \"#utility.yul\":18251:18268   */\n      0x646561646c696e65207061737365640000000000000000000000000000000000\n        /* \"#utility.yul\":18247:18248   */\n      0x00\n        /* \"#utility.yul\":18239:18245   */\n      dup3\n        /* \"#utility.yul\":18235:18249   */\n      add\n        /* \"#utility.yul\":18228:18269   */\n      mstore\n        /* \"#utility.yul\":18111:18276   */\n      pop\n      jump\t// out\n        /* \"#utility.yul\":18282:18459   */\n    tag_302:\n        /* \"#utility.yul\":18422:18451   */\n      0x43726f776446756e64696e67206973206e6f742072756e6e696e670000000000\n        /* \"#utility.yul\":18418:18419   */\n      0x00\n        /* \"#utility.yul\":18410:18416   */\n      dup3\n        /* \"#utility.yul\":18406:18420   */\n      add\n        /* \"#utility.yul\":18399:18452   */\n      mstore\n        /* \"#utility.yul\":18282:18459   */\n      pop\n      jump\t// out\n        /* \"#utility.yul\":18465:18578   */\n    tag_374:\n        /* \"#utility.yul\":18546:18547   */\n      0x05\n        /* \"#utility.yul\":18539:18544   */\n      dup2\n        /* \"#utility.yul\":18536:18548   */\n      lt\n        /* \"#utility.yul\":18526:18572   */\n      tag_424\n      jumpi\n        /* \"#utility.yul\":18552:18570   */\n      tag_425\n      tag_101\n      jump\t// in\n    tag_425:\n        /* \"#utility.yul\":18526:18572   */\n    tag_424:\n        /* \"#utility.yul\":18465:18578   */\n      pop\n      jump\t// out\n        /* \"#utility.yul\":18584:18706   */\n    tag_205:\n        /* \"#utility.yul\":18657:18681   */\n      tag_427\n        /* \"#utility.yul\":18675:18680   */\n      dup2\n        /* \"#utility.yul\":18657:18681   */\n      tag_249\n      jump\t// in\n    tag_427:\n        /* \"#utility.yul\":18650:18655   */\n      dup2\n        /* \"#utility.yul\":18647:18682   */\n      eq\n        /* \"#utility.yul\":18637:18700   */\n      tag_428\n      jumpi\n        /* \"#utility.yul\":18696:18697   */\n      0x00\n        /* \"#utility.yul\":18693:18694   */\n      dup1\n        /* \"#utility.yul\":18686:18698   */\n      revert\n        /* \"#utility.yul\":18637:18700   */\n    tag_428:\n        /* \"#utility.yul\":18584:18706   */\n      pop\n      jump\t// out\n        /* \"#utility.yul\":18712:18850   */\n    tag_209:\n        /* \"#utility.yul\":18793:18825   */\n      tag_430\n        /* \"#utility.yul\":18819:18824   */\n      dup2\n        /* \"#utility.yul\":18793:18825   */\n      tag_245\n      jump\t// in\n    tag_430:\n        /* \"#utility.yul\":18786:18791   */\n      dup2\n        /* \"#utility.yul\":18783:18826   */\n      eq\n        /* \"#utility.yul\":18773:18844   */\n      tag_431\n      jumpi\n        /* \"#utility.yul\":18840:18841   */\n      0x00\n        /* \"#utility.yul\":18837:18838   */\n      dup1\n        /* \"#utility.yul\":18830:18842   */\n      revert\n        /* \"#utility.yul\":18773:18844   */\n    tag_431:\n        /* \"#utility.yul\":18712:18850   */\n      pop\n      jump\t// out\n        /* \"#utility.yul\":18856:18978   */\n    tag_219:\n        /* \"#utility.yul\":18929:18953   */\n      tag_433\n        /* \"#utility.yul\":18947:18952   */\n      dup2\n        /* \"#utility.yul\":18929:18953   */\n      tag_306\n      jump\t// in\n    tag_433:\n        /* \"#utility.yul\":18922:18927   */\n      dup2\n        /* \"#utility.yul\":18919:18954   */\n      eq\n        /* \"#utility.yul\":18909:18972   */\n      tag_434\n      jumpi\n        /* \"#utility.yul\":18968:18969   */\n      0x00\n        /* \"#utility.yul\":18965:18966   */\n      dup1\n        /* \"#utility.yul\":18958:18970   */\n      revert\n        /* \"#utility.yul\":18909:18972   */\n    tag_434:\n        /* \"#utility.yul\":18856:18978   */\n      pop\n      jump\t// out\n\n    auxdata: 0xa2646970667358221220dee09d62cd906885113dde571d1dd67b952937eb80b50859d37983d660c4b8ee64736f6c63430008070033\n}\n",
				"bytecode": {
					"linkReferences": {},
					"object": "60806040523480156200001157600080fd5b5060405162001ba738038062001ba78339818101604052810190620000379190620000f0565b33600160006101000a81548173ffffffffffffffffffffffffffffffffffffffff021916908373ffffffffffffffffffffffffffffffffffffffff1602179055506000600960006101000a81548160ff02191690836004811115620000a157620000a0620001cd565b5b0217905550816005819055508042620000bb919062000137565b6004819055506064600381905550600060028190555050506200021b565b600081519050620000ea8162000201565b92915050565b600080604083850312156200010a5762000109620001fc565b5b60006200011a85828601620000d9565b92505060206200012d85828601620000d9565b9150509250929050565b6000620001448262000194565b9150620001518362000194565b9250827fffffffffffffffffffffffffffffffffffffffffffffffffffffffffffffffff038211156200018957620001886200019e565b5b828201905092915050565b6000819050919050565b7f4e487b7100000000000000000000000000000000000000000000000000000000600052601160045260246000fd5b7f4e487b7100000000000000000000000000000000000000000000000000000000600052602160045260246000fd5b600080fd5b6200020c8162000194565b81146200021857600080fd5b50565b61197c806200022b6000396000f3fe6080604052600436106101025760003560e01c806381d12c5811610095578063b25cdccf11610064578063b25cdccf14610328578063c59ee1dc14610353578063d5cef1331461037e578063d7bb99ba14610388578063f851a4401461039257610111565b806381d12c581461027a5780639fb42b1f146102bb578063a8b78ed0146102e6578063aaffadf3146102fd57610111565b806340193883116100d157806340193883146101d45780634b5e7d70146101ff5780634cb6f4a5146102285780635114cb521461025157610111565b806312065fe0146101165780631e206f15146101415780631f6d49421461016c57806329dcb0cf146101a957610111565b366101115761010f6103bd565b005b600080fd5b34801561012257600080fd5b5061012b6105c6565b6040516101389190611407565b60405180910390f35b34801561014d57600080fd5b506101566105ce565b6040516101639190611407565b60405180910390f35b34801561017857600080fd5b50610193600480360381019061018e9190610fdf565b6105d4565b6040516101a09190611407565b60405180910390f35b3480156101b557600080fd5b506101be6105ec565b6040516101cb9190611407565b60405180910390f35b3480156101e057600080fd5b506101e96105f2565b6040516101f69190611407565b60405180910390f35b34801561020b57600080fd5b506102266004803603810190610221919061100c565b6105f8565b005b34801561023457600080fd5b5061024f600480360381019061024a919061107b565b610786565b005b34801561025d57600080fd5b506102786004803603810190610273919061107b565b61092b565b005b34801561028657600080fd5b506102a1600480360381019061029c919061107b565b610aee565b6040516102b29594939291906112cd565b60405180910390f35b3480156102c757600080fd5b506102d0610bd9565b6040516102dd9190611407565b60405180910390f35b3480156102f257600080fd5b506102fb610bdf565b005b34801561030957600080fd5b50610312610c9c565b60405161031f9190611407565b60405180910390f35b34801561033457600080fd5b5061033d610ca2565b60405161034a9190611274565b60405180910390f35b34801561035f57600080fd5b50610368610cb5565b6040516103759190611407565b60405180910390f35b610386610cbb565b005b6103906103bd565b005b34801561039e57600080fd5b506103a7610e67565b6040516103b49190611230565b60405180910390f35b600260048111156103d1576103d061171c565b5b600960009054906101000a900460ff1660048111156103f3576103f261171c565b5b14610433576040517f08c379a000000000000000000000000000000000000000000000000000000000815260040161042a906113e7565b60405180910390fd5b600454421115610478576040517f08c379a000000000000000000000000000000000000000000000000000000000815260040161046f906113c7565b60405180910390fd5b6003543410156104bd576040517f08c379a00000000000000000000000000000000000000000000000000000000081526004016104b490611347565b60405180910390fd5b60008060003373ffffffffffffffffffffffffffffffffffffffff1673ffffffffffffffffffffffffffffffffffffffff16815260200190815260200160002054141561051d576002600081548092919061051790611675565b91905055505b346000803373ffffffffffffffffffffffffffffffffffffffff1673ffffffffffffffffffffffffffffffffffffffff168152602001908152602001600020600082825461056b9190611494565b9250508190555034600660008282546105849190611494565b925050819055507f2daf61dec57a2c194e9e87958b1a40a5c236b5e8c6041655d664ddbd16c2932033346040516105bc92919061124b565b60405180910390a1565b600047905090565b60025481565b60006020528060005260406000206000915090505481565b60045481565b60055481565b600160009054906101000a900473ffffffffffffffffffffffffffffffffffffffff1673ffffffffffffffffffffffffffffffffffffffff163373ffffffffffffffffffffffffffffffffffffffff1614610688576040517f08c379a000000000000000000000000000000000000000000000000000000000815260040161067f906113a7565b60405180910390fd5b60006007600060085481526020019081526020016000209050600860008154809291906106b490611675565b9190505550838160000190805190602001906106d1929190610e8d565b50828160010160006101000a81548173ffffffffffffffffffffffffffffffffffffffff021916908373ffffffffffffffffffffffffffffffffffffffff16021790555081816002018190555060008160030160006101000a81548160ff021916908315150217905550600081600401819055507f5392bd80651676ccaaedec1afbe841d47e369223df0ba1586110b6426ee87a3a8484846040516107789392919061128f565b60405180910390a150505050565b60008060003373ffffffffffffffffffffffffffffffffffffffff1673ffffffffffffffffffffffffffffffffffffffff1681526020019081526020016000205411610807576040517f08c379a00000000000000000000000000000000000000000000000000000000081526004016107fe90611367565b60405180910390fd5b6000600760008381526020019081526020016000209050600015158160050160003373ffffffffffffffffffffffffffffffffffffffff1673ffffffffffffffffffffffffffffffffffffffff16815260200190815260200160002060009054906101000a900460ff161515146108b3576040517f08c379a00000000000000000000000000000000000000000000000000000000081526004016108aa90611387565b60405180910390fd5b60018160050160003373ffffffffffffffffffffffffffffffffffffffff1673ffffffffffffffffffffffffffffffffffffffff16815260200190815260200160002060006101000a81548160ff02191690831515021790555080600401600081548092919061092290611675565b91905055505050565b600160009054906101000a900473ffffffffffffffffffffffffffffffffffffffff1673ffffffffffffffffffffffffffffffffffffffff163373ffffffffffffffffffffffffffffffffffffffff16146109bb576040517f08c379a00000000000000000000000000000000000000000000000000000000081526004016109b2906113a7565b60405180910390fd5b60055460065410156109cc57600080fd5b6000600760008381526020019081526020016000209050600015158160030160009054906101000a900460ff16151514610a3b576040517f08c379a0000000000000000000000000000000000000000000000000000000008152600401610a3290611327565b60405180910390fd5b60008160040154905060028054610a5291906114ea565b8111610a5d57600080fd5b8160010160009054906101000a900473ffffffffffffffffffffffffffffffffffffffff1673ffffffffffffffffffffffffffffffffffffffff166108fc83600201549081150290604051600060405180830381858888f19350505050158015610acb573d6000803e3d6000fd5b5060018260030160006101000a81548160ff021916908315150217905550505050565b6007602052806000526040600020600091509050806000018054610b1190611612565b80601f0160208091040260200160405190810160405280929190818152602001828054610b3d90611612565b8015610b8a5780601f10610b5f57610100808354040283529160200191610b8a565b820191906000526020600020905b815481529060010190602001808311610b6d57829003601f168201915b5050505050908060010160009054906101000a900473ffffffffffffffffffffffffffffffffffffffff16908060020154908060030160009054906101000a900460ff16908060040154905085565b60085481565b600160009054906101000a900473ffffffffffffffffffffffffffffffffffffffff1673ffffffffffffffffffffffffffffffffffffffff163373ffffffffffffffffffffffffffffffffffffffff1614610c6f576040517f08c379a0000000000000000000000000000000000000000000000000000000008152600401610c66906113a7565b60405180910390fd5b6002600960006101000a81548160ff02191690836004811115610c9557610c9461171c565b5b0217905550565b60035481565b600960009054906101000a900460ff1681565b60065481565b60008060003373ffffffffffffffffffffffffffffffffffffffff1673ffffffffffffffffffffffffffffffffffffffff1681526020019081526020016000205411610d3c576040517f08c379a0000000000000000000000000000000000000000000000000000000008152600401610d3390611367565b60405180910390fd5b600480811115610d4f57610d4e61171c565b5b600960009054906101000a900460ff166004811115610d7157610d7061171c565b5b1480610d8d575060045442118015610d8c5750600554600654105b5b610d9657600080fd5b60008060003373ffffffffffffffffffffffffffffffffffffffff1673ffffffffffffffffffffffffffffffffffffffff16815260200190815260200160002054905060008060003373ffffffffffffffffffffffffffffffffffffffff1673ffffffffffffffffffffffffffffffffffffffff168152602001908152602001600020819055503373ffffffffffffffffffffffffffffffffffffffff166108fc829081150290604051600060405180830381858888f19350505050158015610e63573d6000803e3d6000fd5b5050565b600160009054906101000a900473ffffffffffffffffffffffffffffffffffffffff1681565b828054610e9990611612565b90600052602060002090601f016020900481019282610ebb5760008555610f02565b82601f10610ed457805160ff1916838001178555610f02565b82800160010185558215610f02579182015b82811115610f01578251825591602001919060010190610ee6565b5b509050610f0f9190610f13565b5090565b5b80821115610f2c576000816000905550600101610f14565b5090565b6000610f43610f3e84611447565b611422565b905082815260208101848484011115610f5f57610f5e6117ae565b5b610f6a8482856115d0565b509392505050565b600081359050610f8181611901565b92915050565b600081359050610f9681611918565b92915050565b600082601f830112610fb157610fb06117a9565b5b8135610fc1848260208601610f30565b91505092915050565b600081359050610fd98161192f565b92915050565b600060208284031215610ff557610ff46117b8565b5b600061100384828501610f72565b91505092915050565b600080600060608486031215611025576110246117b8565b5b600084013567ffffffffffffffff811115611043576110426117b3565b5b61104f86828701610f9c565b935050602061106086828701610f87565b925050604061107186828701610fca565b9150509250925092565b600060208284031215611091576110906117b8565b5b600061109f84828501610fca565b91505092915050565b6110b181611588565b82525050565b6110c08161152d565b82525050565b6110cf8161151b565b82525050565b6110de8161153f565b82525050565b6110ed8161159a565b82525050565b60006110fe82611478565b6111088185611483565b93506111188185602086016115df565b611121816117bd565b840191505092915050565b6000611139601983611483565b9150611144826117ce565b602082019050919050565b600061115c601c83611483565b9150611167826117f7565b602082019050919050565b600061117f601983611483565b915061118a82611820565b602082019050919050565b60006111a2601183611483565b91506111ad82611849565b602082019050919050565b60006111c5601e83611483565b91506111d082611872565b602082019050919050565b60006111e8600f83611483565b91506111f38261189b565b602082019050919050565b600061120b601b83611483565b9150611216826118c4565b602082019050919050565b61122a8161157e565b82525050565b600060208201905061124560008301846110c6565b92915050565b600060408201905061126060008301856110c6565b61126d6020830184611221565b9392505050565b600060208201905061128960008301846110e4565b92915050565b600060608201905081810360008301526112a981866110f3565b90506112b860208301856110a8565b6112c56040830184611221565b949350505050565b600060a08201905081810360008301526112e781886110f3565b90506112f660208301876110b7565b6113036040830186611221565b61131060608301856110d5565b61131d6080830184611221565b9695505050505050565b600060208201905081810360008301526113408161112c565b9050919050565b600060208201905081810360008301526113608161114f565b9050919050565b6000602082019050818103600083015261138081611172565b9050919050565b600060208201905081810360008301526113a081611195565b9050919050565b600060208201905081810360008301526113c0816111b8565b9050919050565b600060208201905081810360008301526113e0816111db565b9050919050565b60006020820190508181036000830152611400816111fe565b9050919050565b600060208201905061141c6000830184611221565b92915050565b600061142c61143d565b90506114388282611644565b919050565b6000604051905090565b600067ffffffffffffffff8211156114625761146161177a565b5b61146b826117bd565b9050602081019050919050565b600081519050919050565b600082825260208201905092915050565b600061149f8261157e565b91506114aa8361157e565b9250827fffffffffffffffffffffffffffffffffffffffffffffffffffffffffffffffff038211156114df576114de6116be565b5b828201905092915050565b60006114f58261157e565b91506115008361157e565b9250826115105761150f6116ed565b5b828204905092915050565b60006115268261155e565b9050919050565b60006115388261155e565b9050919050565b60008115159050919050565b6000819050611559826118ed565b919050565b600073ffffffffffffffffffffffffffffffffffffffff82169050919050565b6000819050919050565b6000611593826115ac565b9050919050565b60006115a58261154b565b9050919050565b60006115b7826115be565b9050919050565b60006115c98261155e565b9050919050565b82818337600083830152505050565b60005b838110156115fd5780820151818401526020810190506115e2565b8381111561160c576000848401525b50505050565b6000600282049050600182168061162a57607f821691505b6020821081141561163e5761163d61174b565b5b50919050565b61164d826117bd565b810181811067ffffffffffffffff8211171561166c5761166b61177a565b5b80604052505050565b60006116808261157e565b91507fffffffffffffffffffffffffffffffffffffffffffffffffffffffffffffffff8214156116b3576116b26116be565b5b600182019050919050565b7f4e487b7100000000000000000000000000000000000000000000000000000000600052601160045260246000fd5b7f4e487b7100000000000000000000000000000000000000000000000000000000600052601260045260246000fd5b7f4e487b7100000000000000000000000000000000000000000000000000000000600052602160045260246000fd5b7f4e487b7100000000000000000000000000000000000000000000000000000000600052602260045260246000fd5b7f4e487b7100000000000000000000000000000000000000000000000000000000600052604160045260246000fd5b600080fd5b600080fd5b600080fd5b600080fd5b6000601f19601f8301169050919050565b7f7265717565737420616c726561647920636f6d706c6574656400000000000000600082015250565b7f6469646e74207265616368206d696e20636f6e747269627574696f6e00000000600082015250565b7f796f7520617265206e6f74206120636f6e7472696275746f7200000000000000600082015250565b7f796f7520616c726561647920766f746564000000000000000000000000000000600082015250565b7f6d6573736167652073656e646572206973206e6f7420616e2061646d696e0000600082015250565b7f646561646c696e65207061737365640000000000000000000000000000000000600082015250565b7f43726f776446756e64696e67206973206e6f742072756e6e696e670000000000600082015250565b600581106118fe576118fd61171c565b5b50565b61190a8161151b565b811461191557600080fd5b50565b6119218161152d565b811461192c57600080fd5b50565b6119388161157e565b811461194357600080fd5b5056fea2646970667358221220dee09d62cd906885113dde571d1dd67b952937eb80b50859d37983d660c4b8ee64736f6c63430008070033",
					"opcodes": "PUSH1 0x80 PUSH1 0x40 MSTORE CALLVALUE DUP1 ISZERO PUSH3 0x11 JUMPI PUSH1 0x0 DUP1 REVERT JUMPDEST POP PUSH1 0x40 MLOAD PUSH3 0x1BA7 CODESIZE SUB DUP1 PUSH3 0x1BA7 DUP4 CODECOPY DUP2 DUP2 ADD PUSH1 0x40 MSTORE DUP2 ADD SWAP1 PUSH3 0x37 SWAP2 SWAP1 PUSH3 0xF0 JUMP JUMPDEST CALLER PUSH1 0x1 PUSH1 0x0 PUSH2 0x100 EXP DUP2 SLOAD DUP2 PUSH20 0xFFFFFFFFFFFFFFFFFFFFFFFFFFFFFFFFFFFFFFFF MUL NOT AND SWAP1 DUP4 PUSH20 0xFFFFFFFFFFFFFFFFFFFFFFFFFFFFFFFFFFFFFFFF AND MUL OR SWAP1 SSTORE POP PUSH1 0x0 PUSH1 0x9 PUSH1 0x0 PUSH2 0x100 EXP DUP2 SLOAD DUP2 PUSH1 0xFF MUL NOT AND SWAP1 DUP4 PUSH1 0x4 DUP2 GT ISZERO PUSH3 0xA1 JUMPI PUSH3 0xA0 PUSH3 0x1CD JUMP JUMPDEST JUMPDEST MUL OR SWAP1 SSTORE POP DUP2 PUSH1 0x5 DUP2 SWAP1 SSTORE POP DUP1 TIMESTAMP PUSH3 0xBB SWAP2 SWAP1 PUSH3 0x137 JUMP JUMPDEST PUSH1 0x4 DUP2 SWAP1 SSTORE POP PUSH1 0x64 PUSH1 0x3 DUP2 SWAP1 SSTORE POP PUSH1 0x0 PUSH1 0x2 DUP2 SWAP1 SSTORE POP POP POP PUSH3 0x21B JUMP JUMPDEST PUSH1 0x0 DUP2 MLOAD SWAP1 POP PUSH3 0xEA DUP2 PUSH3 0x201 JUMP JUMPDEST SWAP3 SWAP2 POP POP JUMP JUMPDEST PUSH1 0x0 DUP1 PUSH1 0x40 DUP4 DUP6 SUB SLT ISZERO PUSH3 0x10A JUMPI PUSH3 0x109 PUSH3 0x1FC JUMP JUMPDEST JUMPDEST PUSH1 0x0 PUSH3 0x11A DUP6 DUP3 DUP7 ADD PUSH3 0xD9 JUMP JUMPDEST SWAP3 POP POP PUSH1 0x20 PUSH3 0x12D DUP6 DUP3 DUP7 ADD PUSH3 0xD9 JUMP JUMPDEST SWAP2 POP POP SWAP3 POP SWAP3 SWAP1 POP JUMP JUMPDEST PUSH1 0x0 PUSH3 0x144 DUP3 PUSH3 0x194 JUMP JUMPDEST SWAP2 POP PUSH3 0x151 DUP4 PUSH3 0x194 JUMP JUMPDEST SWAP3 POP DUP3 PUSH32 0xFFFFFFFFFFFFFFFFFFFFFFFFFFFFFFFFFFFFFFFFFFFFFFFFFFFFFFFFFFFFFFFF SUB DUP3 GT ISZERO PUSH3 0x189 JUMPI PUSH3 0x188 PUSH3 0x19E JUMP JUMPDEST JUMPDEST DUP3 DUP3 ADD SWAP1 POP SWAP3 SWAP2 POP POP JUMP JUMPDEST PUSH1 0x0 DUP2 SWAP1 POP SWAP2 SWAP1 POP JUMP JUMPDEST PUSH32 0x4E487B7100000000000000000000000000000000000000000000000000000000 PUSH1 0x0 MSTORE PUSH1 0x11 PUSH1 0x4 MSTORE PUSH1 0x24 PUSH1 0x0 REVERT JUMPDEST PUSH32 0x4E487B7100000000000000000000000000000000000000000000000000000000 PUSH1 0x0 MSTORE PUSH1 0x21 PUSH1 0x4 MSTORE PUSH1 0x24 PUSH1 0x0 REVERT JUMPDEST PUSH1 0x0 DUP1 REVERT JUMPDEST PUSH3 0x20C DUP2 PUSH3 0x194 JUMP JUMPDEST DUP2 EQ PUSH3 0x218 JUMPI PUSH1 0x0 DUP1 REVERT JUMPDEST POP JUMP JUMPDEST PUSH2 0x197C DUP1 PUSH3 0x22B PUSH1 0x0 CODECOPY PUSH1 0x0 RETURN INVALID PUSH1 0x80 PUSH1 0x40 MSTORE PUSH1 0x4 CALLDATASIZE LT PUSH2 0x102 JUMPI PUSH1 0x0 CALLDATALOAD PUSH1 0xE0 SHR DUP1 PUSH4 0x81D12C58 GT PUSH2 0x95 JUMPI DUP1 PUSH4 0xB25CDCCF GT PUSH2 0x64 JUMPI DUP1 PUSH4 0xB25CDCCF EQ PUSH2 0x328 JUMPI DUP1 PUSH4 0xC59EE1DC EQ PUSH2 0x353 JUMPI DUP1 PUSH4 0xD5CEF133 EQ PUSH2 0x37E JUMPI DUP1 PUSH4 0xD7BB99BA EQ PUSH2 0x388 JUMPI DUP1 PUSH4 0xF851A440 EQ PUSH2 0x392 JUMPI PUSH2 0x111 JUMP JUMPDEST DUP1 PUSH4 0x81D12C58 EQ PUSH2 0x27A JUMPI DUP1 PUSH4 0x9FB42B1F EQ PUSH2 0x2BB JUMPI DUP1 PUSH4 0xA8B78ED0 EQ PUSH2 0x2E6 JUMPI DUP1 PUSH4 0xAAFFADF3 EQ PUSH2 0x2FD JUMPI PUSH2 0x111 JUMP JUMPDEST DUP1 PUSH4 0x40193883 GT PUSH2 0xD1 JUMPI DUP1 PUSH4 0x40193883 EQ PUSH2 0x1D4 JUMPI DUP1 PUSH4 0x4B5E7D70 EQ PUSH2 0x1FF JUMPI DUP1 PUSH4 0x4CB6F4A5 EQ PUSH2 0x228 JUMPI DUP1 PUSH4 0x5114CB52 EQ PUSH2 0x251 JUMPI PUSH2 0x111 JUMP JUMPDEST DUP1 PUSH4 0x12065FE0 EQ PUSH2 0x116 JUMPI DUP1 PUSH4 0x1E206F15 EQ PUSH2 0x141 JUMPI DUP1 PUSH4 0x1F6D4942 EQ PUSH2 0x16C JUMPI DUP1 PUSH4 0x29DCB0CF EQ PUSH2 0x1A9 JUMPI PUSH2 0x111 JUMP JUMPDEST CALLDATASIZE PUSH2 0x111 JUMPI PUSH2 0x10F PUSH2 0x3BD JUMP JUMPDEST STOP JUMPDEST PUSH1 0x0 DUP1 REVERT JUMPDEST CALLVALUE DUP1 ISZERO PUSH2 0x122 JUMPI PUSH1 0x0 DUP1 REVERT JUMPDEST POP PUSH2 0x12B PUSH2 0x5C6 JUMP JUMPDEST PUSH1 0x40 MLOAD PUSH2 0x138 SWAP2 SWAP1 PUSH2 0x1407 JUMP JUMPDEST PUSH1 0x40 MLOAD DUP1 SWAP2 SUB SWAP1 RETURN JUMPDEST CALLVALUE DUP1 ISZERO PUSH2 0x14D JUMPI PUSH1 0x0 DUP1 REVERT JUMPDEST POP PUSH2 0x156 PUSH2 0x5CE JUMP JUMPDEST PUSH1 0x40 MLOAD PUSH2 0x163 SWAP2 SWAP1 PUSH2 0x1407 JUMP JUMPDEST PUSH1 0x40 MLOAD DUP1 SWAP2 SUB SWAP1 RETURN JUMPDEST CALLVALUE DUP1 ISZERO PUSH2 0x178 JUMPI PUSH1 0x0 DUP1 REVERT JUMPDEST POP PUSH2 0x193 PUSH1 0x4 DUP1 CALLDATASIZE SUB DUP2 ADD SWAP1 PUSH2 0x18E SWAP2 SWAP1 PUSH2 0xFDF JUMP JUMPDEST PUSH2 0x5D4 JUMP JUMPDEST PUSH1 0x40 MLOAD PUSH2 0x1A0 SWAP2 SWAP1 PUSH2 0x1407 JUMP JUMPDEST PUSH1 0x40 MLOAD DUP1 SWAP2 SUB SWAP1 RETURN JUMPDEST CALLVALUE DUP1 ISZERO PUSH2 0x1B5 JUMPI PUSH1 0x0 DUP1 REVERT JUMPDEST POP PUSH2 0x1BE PUSH2 0x5EC JUMP JUMPDEST PUSH1 0x40 MLOAD PUSH2 0x1CB SWAP2 SWAP1 PUSH2 0x1407 JUMP JUMPDEST PUSH1 0x40 MLOAD DUP1 SWAP2 SUB SWAP1 RETURN JUMPDEST CALLVALUE DUP1 ISZERO PUSH2 0x1E0 JUMPI PUSH1 0x0 DUP1 REVERT JUMPDEST POP PUSH2 0x1E9 PUSH2 0x5F2 JUMP JUMPDEST PUSH1 0x40 MLOAD PUSH2 0x1F6 SWAP2 SWAP1 PUSH2 0x1407 JUMP JUMPDEST PUSH1 0x40 MLOAD DUP1 SWAP2 SUB SWAP1 RETURN JUMPDEST CALLVALUE DUP1 ISZERO PUSH2 0x20B JUMPI PUSH1 0x0 DUP1 REVERT JUMPDEST POP PUSH2 0x226 PUSH1 0x4 DUP1 CALLDATASIZE SUB DUP2 ADD SWAP1 PUSH2 0x221 SWAP2 SWAP1 PUSH2 0x100C JUMP JUMPDEST PUSH2 0x5F8 JUMP JUMPDEST STOP JUMPDEST CALLVALUE DUP1 ISZERO PUSH2 0x234 JUMPI PUSH1 0x0 DUP1 REVERT JUMPDEST POP PUSH2 0x24F PUSH1 0x4 DUP1 CALLDATASIZE SUB DUP2 ADD SWAP1 PUSH2 0x24A SWAP2 SWAP1 PUSH2 0x107B JUMP JUMPDEST PUSH2 0x786 JUMP JUMPDEST STOP JUMPDEST CALLVALUE DUP1 ISZERO PUSH2 0x25D JUMPI PUSH1 0x0 DUP1 REVERT JUMPDEST POP PUSH2 0x278 PUSH1 0x4 DUP1 CALLDATASIZE SUB DUP2 ADD SWAP1 PUSH2 0x273 SWAP2 SWAP1 PUSH2 0x107B JUMP JUMPDEST PUSH2 0x92B JUMP JUMPDEST STOP JUMPDEST CALLVALUE DUP1 ISZERO PUSH2 0x286 JUMPI PUSH1 0x0 DUP1 REVERT JUMPDEST POP PUSH2 0x2A1 PUSH1 0x4 DUP1 CALLDATASIZE SUB DUP2 ADD SWAP1 PUSH2 0x29C SWAP2 SWAP1 PUSH2 0x107B JUMP JUMPDEST PUSH2 0xAEE JUMP JUMPDEST PUSH1 0x40 MLOAD PUSH2 0x2B2 SWAP6 SWAP5 SWAP4 SWAP3 SWAP2 SWAP1 PUSH2 0x12CD JUMP JUMPDEST PUSH1 0x40 MLOAD DUP1 SWAP2 SUB SWAP1 RETURN JUMPDEST CALLVALUE DUP1 ISZERO PUSH2 0x2C7 JUMPI PUSH1 0x0 DUP1 REVERT JUMPDEST POP PUSH2 0x2D0 PUSH2 0xBD9 JUMP JUMPDEST PUSH1 0x40 MLOAD PUSH2 0x2DD SWAP2 SWAP1 PUSH2 0x1407 JUMP JUMPDEST PUSH1 0x40 MLOAD DUP1 SWAP2 SUB SWAP1 RETURN JUMPDEST CALLVALUE DUP1 ISZERO PUSH2 0x2F2 JUMPI PUSH1 0x0 DUP1 REVERT JUMPDEST POP PUSH2 0x2FB PUSH2 0xBDF JUMP JUMPDEST STOP JUMPDEST CALLVALUE DUP1 ISZERO PUSH2 0x309 JUMPI PUSH1 0x0 DUP1 REVERT JUMPDEST POP PUSH2 0x312 PUSH2 0xC9C JUMP JUMPDEST PUSH1 0x40 MLOAD PUSH2 0x31F SWAP2 SWAP1 PUSH2 0x1407 JUMP JUMPDEST PUSH1 0x40 MLOAD DUP1 SWAP2 SUB SWAP1 RETURN JUMPDEST CALLVALUE DUP1 ISZERO PUSH2 0x334 JUMPI PUSH1 0x0 DUP1 REVERT JUMPDEST POP PUSH2 0x33D PUSH2 0xCA2 JUMP JUMPDEST PUSH1 0x40 MLOAD PUSH2 0x34A SWAP2 SWAP1 PUSH2 0x1274 JUMP JUMPDEST PUSH1 0x40 MLOAD DUP1 SWAP2 SUB SWAP1 RETURN JUMPDEST CALLVALUE DUP1 ISZERO PUSH2 0x35F JUMPI PUSH1 0x0 DUP1 REVERT JUMPDEST POP PUSH2 0x368 PUSH2 0xCB5 JUMP JUMPDEST PUSH1 0x40 MLOAD PUSH2 0x375 SWAP2 SWAP1 PUSH2 0x1407 JUMP JUMPDEST PUSH1 0x40 MLOAD DUP1 SWAP2 SUB SWAP1 RETURN JUMPDEST PUSH2 0x386 PUSH2 0xCBB JUMP JUMPDEST STOP JUMPDEST PUSH2 0x390 PUSH2 0x3BD JUMP JUMPDEST STOP JUMPDEST CALLVALUE DUP1 ISZERO PUSH2 0x39E JUMPI PUSH1 0x0 DUP1 REVERT JUMPDEST POP PUSH2 0x3A7 PUSH2 0xE67 JUMP JUMPDEST PUSH1 0x40 MLOAD PUSH2 0x3B4 SWAP2 SWAP1 PUSH2 0x1230 JUMP JUMPDEST PUSH1 0x40 MLOAD DUP1 SWAP2 SUB SWAP1 RETURN JUMPDEST PUSH1 0x2 PUSH1 0x4 DUP2 GT ISZERO PUSH2 0x3D1 JUMPI PUSH2 0x3D0 PUSH2 0x171C JUMP JUMPDEST JUMPDEST PUSH1 0x9 PUSH1 0x0 SWAP1 SLOAD SWAP1 PUSH2 0x100 EXP SWAP1 DIV PUSH1 0xFF AND PUSH1 0x4 DUP2 GT ISZERO PUSH2 0x3F3 JUMPI PUSH2 0x3F2 PUSH2 0x171C JUMP JUMPDEST JUMPDEST EQ PUSH2 0x433 JUMPI PUSH1 0x40 MLOAD PUSH32 0x8C379A000000000000000000000000000000000000000000000000000000000 DUP2 MSTORE PUSH1 0x4 ADD PUSH2 0x42A SWAP1 PUSH2 0x13E7 JUMP JUMPDEST PUSH1 0x40 MLOAD DUP1 SWAP2 SUB SWAP1 REVERT JUMPDEST PUSH1 0x4 SLOAD TIMESTAMP GT ISZERO PUSH2 0x478 JUMPI PUSH1 0x40 MLOAD PUSH32 0x8C379A000000000000000000000000000000000000000000000000000000000 DUP2 MSTORE PUSH1 0x4 ADD PUSH2 0x46F SWAP1 PUSH2 0x13C7 JUMP JUMPDEST PUSH1 0x40 MLOAD DUP1 SWAP2 SUB SWAP1 REVERT JUMPDEST PUSH1 0x3 SLOAD CALLVALUE LT ISZERO PUSH2 0x4BD JUMPI PUSH1 0x40 MLOAD PUSH32 0x8C379A000000000000000000000000000000000000000000000000000000000 DUP2 MSTORE PUSH1 0x4 ADD PUSH2 0x4B4 SWAP1 PUSH2 0x1347 JUMP JUMPDEST PUSH1 0x40 MLOAD DUP1 SWAP2 SUB SWAP1 REVERT JUMPDEST PUSH1 0x0 DUP1 PUSH1 0x0 CALLER PUSH20 0xFFFFFFFFFFFFFFFFFFFFFFFFFFFFFFFFFFFFFFFF AND PUSH20 0xFFFFFFFFFFFFFFFFFFFFFFFFFFFFFFFFFFFFFFFF AND DUP2 MSTORE PUSH1 0x20 ADD SWAP1 DUP2 MSTORE PUSH1 0x20 ADD PUSH1 0x0 KECCAK256 SLOAD EQ ISZERO PUSH2 0x51D JUMPI PUSH1 0x2 PUSH1 0x0 DUP2 SLOAD DUP1 SWAP3 SWAP2 SWAP1 PUSH2 0x517 SWAP1 PUSH2 0x1675 JUMP JUMPDEST SWAP2 SWAP1 POP SSTORE POP JUMPDEST CALLVALUE PUSH1 0x0 DUP1 CALLER PUSH20 0xFFFFFFFFFFFFFFFFFFFFFFFFFFFFFFFFFFFFFFFF AND PUSH20 0xFFFFFFFFFFFFFFFFFFFFFFFFFFFFFFFFFFFFFFFF AND DUP2 MSTORE PUSH1 0x20 ADD SWAP1 DUP2 MSTORE PUSH1 0x20 ADD PUSH1 0x0 KECCAK256 PUSH1 0x0 DUP3 DUP3 SLOAD PUSH2 0x56B SWAP2 SWAP1 PUSH2 0x1494 JUMP JUMPDEST SWAP3 POP POP DUP2 SWAP1 SSTORE POP CALLVALUE PUSH1 0x6 PUSH1 0x0 DUP3 DUP3 SLOAD PUSH2 0x584 SWAP2 SWAP1 PUSH2 0x1494 JUMP JUMPDEST SWAP3 POP POP DUP2 SWAP1 SSTORE POP PUSH32 0x2DAF61DEC57A2C194E9E87958B1A40A5C236B5E8C6041655D664DDBD16C29320 CALLER CALLVALUE PUSH1 0x40 MLOAD PUSH2 0x5BC SWAP3 SWAP2 SWAP1 PUSH2 0x124B JUMP JUMPDEST PUSH1 0x40 MLOAD DUP1 SWAP2 SUB SWAP1 LOG1 JUMP JUMPDEST PUSH1 0x0 SELFBALANCE SWAP1 POP SWAP1 JUMP JUMPDEST PUSH1 0x2 SLOAD DUP2 JUMP JUMPDEST PUSH1 0x0 PUSH1 0x20 MSTORE DUP1 PUSH1 0x0 MSTORE PUSH1 0x40 PUSH1 0x0 KECCAK256 PUSH1 0x0 SWAP2 POP SWAP1 POP SLOAD DUP2 JUMP JUMPDEST PUSH1 0x4 SLOAD DUP2 JUMP JUMPDEST PUSH1 0x5 SLOAD DUP2 JUMP JUMPDEST PUSH1 0x1 PUSH1 0x0 SWAP1 SLOAD SWAP1 PUSH2 0x100 EXP SWAP1 DIV PUSH20 0xFFFFFFFFFFFFFFFFFFFFFFFFFFFFFFFFFFFFFFFF AND PUSH20 0xFFFFFFFFFFFFFFFFFFFFFFFFFFFFFFFFFFFFFFFF AND CALLER PUSH20 0xFFFFFFFFFFFFFFFFFFFFFFFFFFFFFFFFFFFFFFFF AND EQ PUSH2 0x688 JUMPI PUSH1 0x40 MLOAD PUSH32 0x8C379A000000000000000000000000000000000000000000000000000000000 DUP2 MSTORE PUSH1 0x4 ADD PUSH2 0x67F SWAP1 PUSH2 0x13A7 JUMP JUMPDEST PUSH1 0x40 MLOAD DUP1 SWAP2 SUB SWAP1 REVERT JUMPDEST PUSH1 0x0 PUSH1 0x7 PUSH1 0x0 PUSH1 0x8 SLOAD DUP2 MSTORE PUSH1 0x20 ADD SWAP1 DUP2 MSTORE PUSH1 0x20 ADD PUSH1 0x0 KECCAK256 SWAP1 POP PUSH1 0x8 PUSH1 0x0 DUP2 SLOAD DUP1 SWAP3 SWAP2 SWAP1 PUSH2 0x6B4 SWAP1 PUSH2 0x1675 JUMP JUMPDEST SWAP2 SWAP1 POP SSTORE POP DUP4 DUP2 PUSH1 0x0 ADD SWAP1 DUP1 MLOAD SWAP1 PUSH1 0x20 ADD SWAP1 PUSH2 0x6D1 SWAP3 SWAP2 SWAP1 PUSH2 0xE8D JUMP JUMPDEST POP DUP3 DUP2 PUSH1 0x1 ADD PUSH1 0x0 PUSH2 0x100 EXP DUP2 SLOAD DUP2 PUSH20 0xFFFFFFFFFFFFFFFFFFFFFFFFFFFFFFFFFFFFFFFF MUL NOT AND SWAP1 DUP4 PUSH20 0xFFFFFFFFFFFFFFFFFFFFFFFFFFFFFFFFFFFFFFFF AND MUL OR SWAP1 SSTORE POP DUP2 DUP2 PUSH1 0x2 ADD DUP2 SWAP1 SSTORE POP PUSH1 0x0 DUP2 PUSH1 0x3 ADD PUSH1 0x0 PUSH2 0x100 EXP DUP2 SLOAD DUP2 PUSH1 0xFF MUL NOT AND SWAP1 DUP4 ISZERO ISZERO MUL OR SWAP1 SSTORE POP PUSH1 0x0 DUP2 PUSH1 0x4 ADD DUP2 SWAP1 SSTORE POP PUSH32 0x5392BD80651676CCAAEDEC1AFBE841D47E369223DF0BA1586110B6426EE87A3A DUP5 DUP5 DUP5 PUSH1 0x40 MLOAD PUSH2 0x778 SWAP4 SWAP3 SWAP2 SWAP1 PUSH2 0x128F JUMP JUMPDEST PUSH1 0x40 MLOAD DUP1 SWAP2 SUB SWAP1 LOG1 POP POP POP POP JUMP JUMPDEST PUSH1 0x0 DUP1 PUSH1 0x0 CALLER PUSH20 0xFFFFFFFFFFFFFFFFFFFFFFFFFFFFFFFFFFFFFFFF AND PUSH20 0xFFFFFFFFFFFFFFFFFFFFFFFFFFFFFFFFFFFFFFFF AND DUP2 MSTORE PUSH1 0x20 ADD SWAP1 DUP2 MSTORE PUSH1 0x20 ADD PUSH1 0x0 KECCAK256 SLOAD GT PUSH2 0x807 JUMPI PUSH1 0x40 MLOAD PUSH32 0x8C379A000000000000000000000000000000000000000000000000000000000 DUP2 MSTORE PUSH1 0x4 ADD PUSH2 0x7FE SWAP1 PUSH2 0x1367 JUMP JUMPDEST PUSH1 0x40 MLOAD DUP1 SWAP2 SUB SWAP1 REVERT JUMPDEST PUSH1 0x0 PUSH1 0x7 PUSH1 0x0 DUP4 DUP2 MSTORE PUSH1 0x20 ADD SWAP1 DUP2 MSTORE PUSH1 0x20 ADD PUSH1 0x0 KECCAK256 SWAP1 POP PUSH1 0x0 ISZERO ISZERO DUP2 PUSH1 0x5 ADD PUSH1 0x0 CALLER PUSH20 0xFFFFFFFFFFFFFFFFFFFFFFFFFFFFFFFFFFFFFFFF AND PUSH20 0xFFFFFFFFFFFFFFFFFFFFFFFFFFFFFFFFFFFFFFFF AND DUP2 MSTORE PUSH1 0x20 ADD SWAP1 DUP2 MSTORE PUSH1 0x20 ADD PUSH1 0x0 KECCAK256 PUSH1 0x0 SWAP1 SLOAD SWAP1 PUSH2 0x100 EXP SWAP1 DIV PUSH1 0xFF AND ISZERO ISZERO EQ PUSH2 0x8B3 JUMPI PUSH1 0x40 MLOAD PUSH32 0x8C379A000000000000000000000000000000000000000000000000000000000 DUP2 MSTORE PUSH1 0x4 ADD PUSH2 0x8AA SWAP1 PUSH2 0x1387 JUMP JUMPDEST PUSH1 0x40 MLOAD DUP1 SWAP2 SUB SWAP1 REVERT JUMPDEST PUSH1 0x1 DUP2 PUSH1 0x5 ADD PUSH1 0x0 CALLER PUSH20 0xFFFFFFFFFFFFFFFFFFFFFFFFFFFFFFFFFFFFFFFF AND PUSH20 0xFFFFFFFFFFFFFFFFFFFFFFFFFFFFFFFFFFFFFFFF AND DUP2 MSTORE PUSH1 0x20 ADD SWAP1 DUP2 MSTORE PUSH1 0x20 ADD PUSH1 0x0 KECCAK256 PUSH1 0x0 PUSH2 0x100 EXP DUP2 SLOAD DUP2 PUSH1 0xFF MUL NOT AND SWAP1 DUP4 ISZERO ISZERO MUL OR SWAP1 SSTORE POP DUP1 PUSH1 0x4 ADD PUSH1 0x0 DUP2 SLOAD DUP1 SWAP3 SWAP2 SWAP1 PUSH2 0x922 SWAP1 PUSH2 0x1675 JUMP JUMPDEST SWAP2 SWAP1 POP SSTORE POP POP POP JUMP JUMPDEST PUSH1 0x1 PUSH1 0x0 SWAP1 SLOAD SWAP1 PUSH2 0x100 EXP SWAP1 DIV PUSH20 0xFFFFFFFFFFFFFFFFFFFFFFFFFFFFFFFFFFFFFFFF AND PUSH20 0xFFFFFFFFFFFFFFFFFFFFFFFFFFFFFFFFFFFFFFFF AND CALLER PUSH20 0xFFFFFFFFFFFFFFFFFFFFFFFFFFFFFFFFFFFFFFFF AND EQ PUSH2 0x9BB JUMPI PUSH1 0x40 MLOAD PUSH32 0x8C379A000000000000000000000000000000000000000000000000000000000 DUP2 MSTORE PUSH1 0x4 ADD PUSH2 0x9B2 SWAP1 PUSH2 0x13A7 JUMP JUMPDEST PUSH1 0x40 MLOAD DUP1 SWAP2 SUB SWAP1 REVERT JUMPDEST PUSH1 0x5 SLOAD PUSH1 0x6 SLOAD LT ISZERO PUSH2 0x9CC JUMPI PUSH1 0x0 DUP1 REVERT JUMPDEST PUSH1 0x0 PUSH1 0x7 PUSH1 0x0 DUP4 DUP2 MSTORE PUSH1 0x20 ADD SWAP1 DUP2 MSTORE PUSH1 0x20 ADD PUSH1 0x0 KECCAK256 SWAP1 POP PUSH1 0x0 ISZERO ISZERO DUP2 PUSH1 0x3 ADD PUSH1 0x0 SWAP1 SLOAD SWAP1 PUSH2 0x100 EXP SWAP1 DIV PUSH1 0xFF AND ISZERO ISZERO EQ PUSH2 0xA3B JUMPI PUSH1 0x40 MLOAD PUSH32 0x8C379A000000000000000000000000000000000000000000000000000000000 DUP2 MSTORE PUSH1 0x4 ADD PUSH2 0xA32 SWAP1 PUSH2 0x1327 JUMP JUMPDEST PUSH1 0x40 MLOAD DUP1 SWAP2 SUB SWAP1 REVERT JUMPDEST PUSH1 0x0 DUP2 PUSH1 0x4 ADD SLOAD SWAP1 POP PUSH1 0x2 DUP1 SLOAD PUSH2 0xA52 SWAP2 SWAP1 PUSH2 0x14EA JUMP JUMPDEST DUP2 GT PUSH2 0xA5D JUMPI PUSH1 0x0 DUP1 REVERT JUMPDEST DUP2 PUSH1 0x1 ADD PUSH1 0x0 SWAP1 SLOAD SWAP1 PUSH2 0x100 EXP SWAP1 DIV PUSH20 0xFFFFFFFFFFFFFFFFFFFFFFFFFFFFFFFFFFFFFFFF AND PUSH20 0xFFFFFFFFFFFFFFFFFFFFFFFFFFFFFFFFFFFFFFFF AND PUSH2 0x8FC DUP4 PUSH1 0x2 ADD SLOAD SWAP1 DUP2 ISZERO MUL SWAP1 PUSH1 0x40 MLOAD PUSH1 0x0 PUSH1 0x40 MLOAD DUP1 DUP4 SUB DUP2 DUP6 DUP9 DUP9 CALL SWAP4 POP POP POP POP ISZERO DUP1 ISZERO PUSH2 0xACB JUMPI RETURNDATASIZE PUSH1 0x0 DUP1 RETURNDATACOPY RETURNDATASIZE PUSH1 0x0 REVERT JUMPDEST POP PUSH1 0x1 DUP3 PUSH1 0x3 ADD PUSH1 0x0 PUSH2 0x100 EXP DUP2 SLOAD DUP2 PUSH1 0xFF MUL NOT AND SWAP1 DUP4 ISZERO ISZERO MUL OR SWAP1 SSTORE POP POP POP POP JUMP JUMPDEST PUSH1 0x7 PUSH1 0x20 MSTORE DUP1 PUSH1 0x0 MSTORE PUSH1 0x40 PUSH1 0x0 KECCAK256 PUSH1 0x0 SWAP2 POP SWAP1 POP DUP1 PUSH1 0x0 ADD DUP1 SLOAD PUSH2 0xB11 SWAP1 PUSH2 0x1612 JUMP JUMPDEST DUP1 PUSH1 0x1F ADD PUSH1 0x20 DUP1 SWAP2 DIV MUL PUSH1 0x20 ADD PUSH1 0x40 MLOAD SWAP1 DUP2 ADD PUSH1 0x40 MSTORE DUP1 SWAP3 SWAP2 SWAP1 DUP2 DUP2 MSTORE PUSH1 0x20 ADD DUP3 DUP1 SLOAD PUSH2 0xB3D SWAP1 PUSH2 0x1612 JUMP JUMPDEST DUP1 ISZERO PUSH2 0xB8A JUMPI DUP1 PUSH1 0x1F LT PUSH2 0xB5F JUMPI PUSH2 0x100 DUP1 DUP4 SLOAD DIV MUL DUP4 MSTORE SWAP2 PUSH1 0x20 ADD SWAP2 PUSH2 0xB8A JUMP JUMPDEST DUP3 ADD SWAP2 SWAP1 PUSH1 0x0 MSTORE PUSH1 0x20 PUSH1 0x0 KECCAK256 SWAP1 JUMPDEST DUP2 SLOAD DUP2 MSTORE SWAP1 PUSH1 0x1 ADD SWAP1 PUSH1 0x20 ADD DUP1 DUP4 GT PUSH2 0xB6D JUMPI DUP3 SWAP1 SUB PUSH1 0x1F AND DUP3 ADD SWAP2 JUMPDEST POP POP POP POP POP SWAP1 DUP1 PUSH1 0x1 ADD PUSH1 0x0 SWAP1 SLOAD SWAP1 PUSH2 0x100 EXP SWAP1 DIV PUSH20 0xFFFFFFFFFFFFFFFFFFFFFFFFFFFFFFFFFFFFFFFF AND SWAP1 DUP1 PUSH1 0x2 ADD SLOAD SWAP1 DUP1 PUSH1 0x3 ADD PUSH1 0x0 SWAP1 SLOAD SWAP1 PUSH2 0x100 EXP SWAP1 DIV PUSH1 0xFF AND SWAP1 DUP1 PUSH1 0x4 ADD SLOAD SWAP1 POP DUP6 JUMP JUMPDEST PUSH1 0x8 SLOAD DUP2 JUMP JUMPDEST PUSH1 0x1 PUSH1 0x0 SWAP1 SLOAD SWAP1 PUSH2 0x100 EXP SWAP1 DIV PUSH20 0xFFFFFFFFFFFFFFFFFFFFFFFFFFFFFFFFFFFFFFFF AND PUSH20 0xFFFFFFFFFFFFFFFFFFFFFFFFFFFFFFFFFFFFFFFF AND CALLER PUSH20 0xFFFFFFFFFFFFFFFFFFFFFFFFFFFFFFFFFFFFFFFF AND EQ PUSH2 0xC6F JUMPI PUSH1 0x40 MLOAD PUSH32 0x8C379A000000000000000000000000000000000000000000000000000000000 DUP2 MSTORE PUSH1 0x4 ADD PUSH2 0xC66 SWAP1 PUSH2 0x13A7 JUMP JUMPDEST PUSH1 0x40 MLOAD DUP1 SWAP2 SUB SWAP1 REVERT JUMPDEST PUSH1 0x2 PUSH1 0x9 PUSH1 0x0 PUSH2 0x100 EXP DUP2 SLOAD DUP2 PUSH1 0xFF MUL NOT AND SWAP1 DUP4 PUSH1 0x4 DUP2 GT ISZERO PUSH2 0xC95 JUMPI PUSH2 0xC94 PUSH2 0x171C JUMP JUMPDEST JUMPDEST MUL OR SWAP1 SSTORE POP JUMP JUMPDEST PUSH1 0x3 SLOAD DUP2 JUMP JUMPDEST PUSH1 0x9 PUSH1 0x0 SWAP1 SLOAD SWAP1 PUSH2 0x100 EXP SWAP1 DIV PUSH1 0xFF AND DUP2 JUMP JUMPDEST PUSH1 0x6 SLOAD DUP2 JUMP JUMPDEST PUSH1 0x0 DUP1 PUSH1 0x0 CALLER PUSH20 0xFFFFFFFFFFFFFFFFFFFFFFFFFFFFFFFFFFFFFFFF AND PUSH20 0xFFFFFFFFFFFFFFFFFFFFFFFFFFFFFFFFFFFFFFFF AND DUP2 MSTORE PUSH1 0x20 ADD SWAP1 DUP2 MSTORE PUSH1 0x20 ADD PUSH1 0x0 KECCAK256 SLOAD GT PUSH2 0xD3C JUMPI PUSH1 0x40 MLOAD PUSH32 0x8C379A000000000000000000000000000000000000000000000000000000000 DUP2 MSTORE PUSH1 0x4 ADD PUSH2 0xD33 SWAP1 PUSH2 0x1367 JUMP JUMPDEST PUSH1 0x40 MLOAD DUP1 SWAP2 SUB SWAP1 REVERT JUMPDEST PUSH1 0x4 DUP1 DUP2 GT ISZERO PUSH2 0xD4F JUMPI PUSH2 0xD4E PUSH2 0x171C JUMP JUMPDEST JUMPDEST PUSH1 0x9 PUSH1 0x0 SWAP1 SLOAD SWAP1 PUSH2 0x100 EXP SWAP1 DIV PUSH1 0xFF AND PUSH1 0x4 DUP2 GT ISZERO PUSH2 0xD71 JUMPI PUSH2 0xD70 PUSH2 0x171C JUMP JUMPDEST JUMPDEST EQ DUP1 PUSH2 0xD8D JUMPI POP PUSH1 0x4 SLOAD TIMESTAMP GT DUP1 ISZERO PUSH2 0xD8C JUMPI POP PUSH1 0x5 SLOAD PUSH1 0x6 SLOAD LT JUMPDEST JUMPDEST PUSH2 0xD96 JUMPI PUSH1 0x0 DUP1 REVERT JUMPDEST PUSH1 0x0 DUP1 PUSH1 0x0 CALLER PUSH20 0xFFFFFFFFFFFFFFFFFFFFFFFFFFFFFFFFFFFFFFFF AND PUSH20 0xFFFFFFFFFFFFFFFFFFFFFFFFFFFFFFFFFFFFFFFF AND DUP2 MSTORE PUSH1 0x20 ADD SWAP1 DUP2 MSTORE PUSH1 0x20 ADD PUSH1 0x0 KECCAK256 SLOAD SWAP1 POP PUSH1 0x0 DUP1 PUSH1 0x0 CALLER PUSH20 0xFFFFFFFFFFFFFFFFFFFFFFFFFFFFFFFFFFFFFFFF AND PUSH20 0xFFFFFFFFFFFFFFFFFFFFFFFFFFFFFFFFFFFFFFFF AND DUP2 MSTORE PUSH1 0x20 ADD SWAP1 DUP2 MSTORE PUSH1 0x20 ADD PUSH1 0x0 KECCAK256 DUP2 SWAP1 SSTORE POP CALLER PUSH20 0xFFFFFFFFFFFFFFFFFFFFFFFFFFFFFFFFFFFFFFFF AND PUSH2 0x8FC DUP3 SWAP1 DUP2 ISZERO MUL SWAP1 PUSH1 0x40 MLOAD PUSH1 0x0 PUSH1 0x40 MLOAD DUP1 DUP4 SUB DUP2 DUP6 DUP9 DUP9 CALL SWAP4 POP POP POP POP ISZERO DUP1 ISZERO PUSH2 0xE63 JUMPI RETURNDATASIZE PUSH1 0x0 DUP1 RETURNDATACOPY RETURNDATASIZE PUSH1 0x0 REVERT JUMPDEST POP POP JUMP JUMPDEST PUSH1 0x1 PUSH1 0x0 SWAP1 SLOAD SWAP1 PUSH2 0x100 EXP SWAP1 DIV PUSH20 0xFFFFFFFFFFFFFFFFFFFFFFFFFFFFFFFFFFFFFFFF AND DUP2 JUMP JUMPDEST DUP3 DUP1 SLOAD PUSH2 0xE99 SWAP1 PUSH2 0x1612 JUMP JUMPDEST SWAP1 PUSH1 0x0 MSTORE PUSH1 0x20 PUSH1 0x0 KECCAK256 SWAP1 PUSH1 0x1F ADD PUSH1 0x20 SWAP1 DIV DUP2 ADD SWAP3 DUP3 PUSH2 0xEBB JUMPI PUSH1 0x0 DUP6 SSTORE PUSH2 0xF02 JUMP JUMPDEST DUP3 PUSH1 0x1F LT PUSH2 0xED4 JUMPI DUP1 MLOAD PUSH1 0xFF NOT AND DUP4 DUP1 ADD OR DUP6 SSTORE PUSH2 0xF02 JUMP JUMPDEST DUP3 DUP1 ADD PUSH1 0x1 ADD DUP6 SSTORE DUP3 ISZERO PUSH2 0xF02 JUMPI SWAP2 DUP3 ADD JUMPDEST DUP3 DUP2 GT ISZERO PUSH2 0xF01 JUMPI DUP3 MLOAD DUP3 SSTORE SWAP2 PUSH1 0x20 ADD SWAP2 SWAP1 PUSH1 0x1 ADD SWAP1 PUSH2 0xEE6 JUMP JUMPDEST JUMPDEST POP SWAP1 POP PUSH2 0xF0F SWAP2 SWAP1 PUSH2 0xF13 JUMP JUMPDEST POP SWAP1 JUMP JUMPDEST JUMPDEST DUP1 DUP3 GT ISZERO PUSH2 0xF2C JUMPI PUSH1 0x0 DUP2 PUSH1 0x0 SWAP1 SSTORE POP PUSH1 0x1 ADD PUSH2 0xF14 JUMP JUMPDEST POP SWAP1 JUMP JUMPDEST PUSH1 0x0 PUSH2 0xF43 PUSH2 0xF3E DUP5 PUSH2 0x1447 JUMP JUMPDEST PUSH2 0x1422 JUMP JUMPDEST SWAP1 POP DUP3 DUP2 MSTORE PUSH1 0x20 DUP2 ADD DUP5 DUP5 DUP5 ADD GT ISZERO PUSH2 0xF5F JUMPI PUSH2 0xF5E PUSH2 0x17AE JUMP JUMPDEST JUMPDEST PUSH2 0xF6A DUP5 DUP3 DUP6 PUSH2 0x15D0 JUMP JUMPDEST POP SWAP4 SWAP3 POP POP POP JUMP JUMPDEST PUSH1 0x0 DUP2 CALLDATALOAD SWAP1 POP PUSH2 0xF81 DUP2 PUSH2 0x1901 JUMP JUMPDEST SWAP3 SWAP2 POP POP JUMP JUMPDEST PUSH1 0x0 DUP2 CALLDATALOAD SWAP1 POP PUSH2 0xF96 DUP2 PUSH2 0x1918 JUMP JUMPDEST SWAP3 SWAP2 POP POP JUMP JUMPDEST PUSH1 0x0 DUP3 PUSH1 0x1F DUP4 ADD SLT PUSH2 0xFB1 JUMPI PUSH2 0xFB0 PUSH2 0x17A9 JUMP JUMPDEST JUMPDEST DUP2 CALLDATALOAD PUSH2 0xFC1 DUP5 DUP3 PUSH1 0x20 DUP7 ADD PUSH2 0xF30 JUMP JUMPDEST SWAP2 POP POP SWAP3 SWAP2 POP POP JUMP JUMPDEST PUSH1 0x0 DUP2 CALLDATALOAD SWAP1 POP PUSH2 0xFD9 DUP2 PUSH2 0x192F JUMP JUMPDEST SWAP3 SWAP2 POP POP JUMP JUMPDEST PUSH1 0x0 PUSH1 0x20 DUP3 DUP5 SUB SLT ISZERO PUSH2 0xFF5 JUMPI PUSH2 0xFF4 PUSH2 0x17B8 JUMP JUMPDEST JUMPDEST PUSH1 0x0 PUSH2 0x1003 DUP5 DUP3 DUP6 ADD PUSH2 0xF72 JUMP JUMPDEST SWAP2 POP POP SWAP3 SWAP2 POP POP JUMP JUMPDEST PUSH1 0x0 DUP1 PUSH1 0x0 PUSH1 0x60 DUP5 DUP7 SUB SLT ISZERO PUSH2 0x1025 JUMPI PUSH2 0x1024 PUSH2 0x17B8 JUMP JUMPDEST JUMPDEST PUSH1 0x0 DUP5 ADD CALLDATALOAD PUSH8 0xFFFFFFFFFFFFFFFF DUP2 GT ISZERO PUSH2 0x1043 JUMPI PUSH2 0x1042 PUSH2 0x17B3 JUMP JUMPDEST JUMPDEST PUSH2 0x104F DUP7 DUP3 DUP8 ADD PUSH2 0xF9C JUMP JUMPDEST SWAP4 POP POP PUSH1 0x20 PUSH2 0x1060 DUP7 DUP3 DUP8 ADD PUSH2 0xF87 JUMP JUMPDEST SWAP3 POP POP PUSH1 0x40 PUSH2 0x1071 DUP7 DUP3 DUP8 ADD PUSH2 0xFCA JUMP JUMPDEST SWAP2 POP POP SWAP3 POP SWAP3 POP SWAP3 JUMP JUMPDEST PUSH1 0x0 PUSH1 0x20 DUP3 DUP5 SUB SLT ISZERO PUSH2 0x1091 JUMPI PUSH2 0x1090 PUSH2 0x17B8 JUMP JUMPDEST JUMPDEST PUSH1 0x0 PUSH2 0x109F DUP5 DUP3 DUP6 ADD PUSH2 0xFCA JUMP JUMPDEST SWAP2 POP POP SWAP3 SWAP2 POP POP JUMP JUMPDEST PUSH2 0x10B1 DUP2 PUSH2 0x1588 JUMP JUMPDEST DUP3 MSTORE POP POP JUMP JUMPDEST PUSH2 0x10C0 DUP2 PUSH2 0x152D JUMP JUMPDEST DUP3 MSTORE POP POP JUMP JUMPDEST PUSH2 0x10CF DUP2 PUSH2 0x151B JUMP JUMPDEST DUP3 MSTORE POP POP JUMP JUMPDEST PUSH2 0x10DE DUP2 PUSH2 0x153F JUMP JUMPDEST DUP3 MSTORE POP POP JUMP JUMPDEST PUSH2 0x10ED DUP2 PUSH2 0x159A JUMP JUMPDEST DUP3 MSTORE POP POP JUMP JUMPDEST PUSH1 0x0 PUSH2 0x10FE DUP3 PUSH2 0x1478 JUMP JUMPDEST PUSH2 0x1108 DUP2 DUP6 PUSH2 0x1483 JUMP JUMPDEST SWAP4 POP PUSH2 0x1118 DUP2 DUP6 PUSH1 0x20 DUP7 ADD PUSH2 0x15DF JUMP JUMPDEST PUSH2 0x1121 DUP2 PUSH2 0x17BD JUMP JUMPDEST DUP5 ADD SWAP2 POP POP SWAP3 SWAP2 POP POP JUMP JUMPDEST PUSH1 0x0 PUSH2 0x1139 PUSH1 0x19 DUP4 PUSH2 0x1483 JUMP JUMPDEST SWAP2 POP PUSH2 0x1144 DUP3 PUSH2 0x17CE JUMP JUMPDEST PUSH1 0x20 DUP3 ADD SWAP1 POP SWAP2 SWAP1 POP JUMP JUMPDEST PUSH1 0x0 PUSH2 0x115C PUSH1 0x1C DUP4 PUSH2 0x1483 JUMP JUMPDEST SWAP2 POP PUSH2 0x1167 DUP3 PUSH2 0x17F7 JUMP JUMPDEST PUSH1 0x20 DUP3 ADD SWAP1 POP SWAP2 SWAP1 POP JUMP JUMPDEST PUSH1 0x0 PUSH2 0x117F PUSH1 0x19 DUP4 PUSH2 0x1483 JUMP JUMPDEST SWAP2 POP PUSH2 0x118A DUP3 PUSH2 0x1820 JUMP JUMPDEST PUSH1 0x20 DUP3 ADD SWAP1 POP SWAP2 SWAP1 POP JUMP JUMPDEST PUSH1 0x0 PUSH2 0x11A2 PUSH1 0x11 DUP4 PUSH2 0x1483 JUMP JUMPDEST SWAP2 POP PUSH2 0x11AD DUP3 PUSH2 0x1849 JUMP JUMPDEST PUSH1 0x20 DUP3 ADD SWAP1 POP SWAP2 SWAP1 POP JUMP JUMPDEST PUSH1 0x0 PUSH2 0x11C5 PUSH1 0x1E DUP4 PUSH2 0x1483 JUMP JUMPDEST SWAP2 POP PUSH2 0x11D0 DUP3 PUSH2 0x1872 JUMP JUMPDEST PUSH1 0x20 DUP3 ADD SWAP1 POP SWAP2 SWAP1 POP JUMP JUMPDEST PUSH1 0x0 PUSH2 0x11E8 PUSH1 0xF DUP4 PUSH2 0x1483 JUMP JUMPDEST SWAP2 POP PUSH2 0x11F3 DUP3 PUSH2 0x189B JUMP JUMPDEST PUSH1 0x20 DUP3 ADD SWAP1 POP SWAP2 SWAP1 POP JUMP JUMPDEST PUSH1 0x0 PUSH2 0x120B PUSH1 0x1B DUP4 PUSH2 0x1483 JUMP JUMPDEST SWAP2 POP PUSH2 0x1216 DUP3 PUSH2 0x18C4 JUMP JUMPDEST PUSH1 0x20 DUP3 ADD SWAP1 POP SWAP2 SWAP1 POP JUMP JUMPDEST PUSH2 0x122A DUP2 PUSH2 0x157E JUMP JUMPDEST DUP3 MSTORE POP POP JUMP JUMPDEST PUSH1 0x0 PUSH1 0x20 DUP3 ADD SWAP1 POP PUSH2 0x1245 PUSH1 0x0 DUP4 ADD DUP5 PUSH2 0x10C6 JUMP JUMPDEST SWAP3 SWAP2 POP POP JUMP JUMPDEST PUSH1 0x0 PUSH1 0x40 DUP3 ADD SWAP1 POP PUSH2 0x1260 PUSH1 0x0 DUP4 ADD DUP6 PUSH2 0x10C6 JUMP JUMPDEST PUSH2 0x126D PUSH1 0x20 DUP4 ADD DUP5 PUSH2 0x1221 JUMP JUMPDEST SWAP4 SWAP3 POP POP POP JUMP JUMPDEST PUSH1 0x0 PUSH1 0x20 DUP3 ADD SWAP1 POP PUSH2 0x1289 PUSH1 0x0 DUP4 ADD DUP5 PUSH2 0x10E4 JUMP JUMPDEST SWAP3 SWAP2 POP POP JUMP JUMPDEST PUSH1 0x0 PUSH1 0x60 DUP3 ADD SWAP1 POP DUP2 DUP2 SUB PUSH1 0x0 DUP4 ADD MSTORE PUSH2 0x12A9 DUP2 DUP7 PUSH2 0x10F3 JUMP JUMPDEST SWAP1 POP PUSH2 0x12B8 PUSH1 0x20 DUP4 ADD DUP6 PUSH2 0x10A8 JUMP JUMPDEST PUSH2 0x12C5 PUSH1 0x40 DUP4 ADD DUP5 PUSH2 0x1221 JUMP JUMPDEST SWAP5 SWAP4 POP POP POP POP JUMP JUMPDEST PUSH1 0x0 PUSH1 0xA0 DUP3 ADD SWAP1 POP DUP2 DUP2 SUB PUSH1 0x0 DUP4 ADD MSTORE PUSH2 0x12E7 DUP2 DUP9 PUSH2 0x10F3 JUMP JUMPDEST SWAP1 POP PUSH2 0x12F6 PUSH1 0x20 DUP4 ADD DUP8 PUSH2 0x10B7 JUMP JUMPDEST PUSH2 0x1303 PUSH1 0x40 DUP4 ADD DUP7 PUSH2 0x1221 JUMP JUMPDEST PUSH2 0x1310 PUSH1 0x60 DUP4 ADD DUP6 PUSH2 0x10D5 JUMP JUMPDEST PUSH2 0x131D PUSH1 0x80 DUP4 ADD DUP5 PUSH2 0x1221 JUMP JUMPDEST SWAP7 SWAP6 POP POP POP POP POP POP JUMP JUMPDEST PUSH1 0x0 PUSH1 0x20 DUP3 ADD SWAP1 POP DUP2 DUP2 SUB PUSH1 0x0 DUP4 ADD MSTORE PUSH2 0x1340 DUP2 PUSH2 0x112C JUMP JUMPDEST SWAP1 POP SWAP2 SWAP1 POP JUMP JUMPDEST PUSH1 0x0 PUSH1 0x20 DUP3 ADD SWAP1 POP DUP2 DUP2 SUB PUSH1 0x0 DUP4 ADD MSTORE PUSH2 0x1360 DUP2 PUSH2 0x114F JUMP JUMPDEST SWAP1 POP SWAP2 SWAP1 POP JUMP JUMPDEST PUSH1 0x0 PUSH1 0x20 DUP3 ADD SWAP1 POP DUP2 DUP2 SUB PUSH1 0x0 DUP4 ADD MSTORE PUSH2 0x1380 DUP2 PUSH2 0x1172 JUMP JUMPDEST SWAP1 POP SWAP2 SWAP1 POP JUMP JUMPDEST PUSH1 0x0 PUSH1 0x20 DUP3 ADD SWAP1 POP DUP2 DUP2 SUB PUSH1 0x0 DUP4 ADD MSTORE PUSH2 0x13A0 DUP2 PUSH2 0x1195 JUMP JUMPDEST SWAP1 POP SWAP2 SWAP1 POP JUMP JUMPDEST PUSH1 0x0 PUSH1 0x20 DUP3 ADD SWAP1 POP DUP2 DUP2 SUB PUSH1 0x0 DUP4 ADD MSTORE PUSH2 0x13C0 DUP2 PUSH2 0x11B8 JUMP JUMPDEST SWAP1 POP SWAP2 SWAP1 POP JUMP JUMPDEST PUSH1 0x0 PUSH1 0x20 DUP3 ADD SWAP1 POP DUP2 DUP2 SUB PUSH1 0x0 DUP4 ADD MSTORE PUSH2 0x13E0 DUP2 PUSH2 0x11DB JUMP JUMPDEST SWAP1 POP SWAP2 SWAP1 POP JUMP JUMPDEST PUSH1 0x0 PUSH1 0x20 DUP3 ADD SWAP1 POP DUP2 DUP2 SUB PUSH1 0x0 DUP4 ADD MSTORE PUSH2 0x1400 DUP2 PUSH2 0x11FE JUMP JUMPDEST SWAP1 POP SWAP2 SWAP1 POP JUMP JUMPDEST PUSH1 0x0 PUSH1 0x20 DUP3 ADD SWAP1 POP PUSH2 0x141C PUSH1 0x0 DUP4 ADD DUP5 PUSH2 0x1221 JUMP JUMPDEST SWAP3 SWAP2 POP POP JUMP JUMPDEST PUSH1 0x0 PUSH2 0x142C PUSH2 0x143D JUMP JUMPDEST SWAP1 POP PUSH2 0x1438 DUP3 DUP3 PUSH2 0x1644 JUMP JUMPDEST SWAP2 SWAP1 POP JUMP JUMPDEST PUSH1 0x0 PUSH1 0x40 MLOAD SWAP1 POP SWAP1 JUMP JUMPDEST PUSH1 0x0 PUSH8 0xFFFFFFFFFFFFFFFF DUP3 GT ISZERO PUSH2 0x1462 JUMPI PUSH2 0x1461 PUSH2 0x177A JUMP JUMPDEST JUMPDEST PUSH2 0x146B DUP3 PUSH2 0x17BD JUMP JUMPDEST SWAP1 POP PUSH1 0x20 DUP2 ADD SWAP1 POP SWAP2 SWAP1 POP JUMP JUMPDEST PUSH1 0x0 DUP2 MLOAD SWAP1 POP SWAP2 SWAP1 POP JUMP JUMPDEST PUSH1 0x0 DUP3 DUP3 MSTORE PUSH1 0x20 DUP3 ADD SWAP1 POP SWAP3 SWAP2 POP POP JUMP JUMPDEST PUSH1 0x0 PUSH2 0x149F DUP3 PUSH2 0x157E JUMP JUMPDEST SWAP2 POP PUSH2 0x14AA DUP4 PUSH2 0x157E JUMP JUMPDEST SWAP3 POP DUP3 PUSH32 0xFFFFFFFFFFFFFFFFFFFFFFFFFFFFFFFFFFFFFFFFFFFFFFFFFFFFFFFFFFFFFFFF SUB DUP3 GT ISZERO PUSH2 0x14DF JUMPI PUSH2 0x14DE PUSH2 0x16BE JUMP JUMPDEST JUMPDEST DUP3 DUP3 ADD SWAP1 POP SWAP3 SWAP2 POP POP JUMP JUMPDEST PUSH1 0x0 PUSH2 0x14F5 DUP3 PUSH2 0x157E JUMP JUMPDEST SWAP2 POP PUSH2 0x1500 DUP4 PUSH2 0x157E JUMP JUMPDEST SWAP3 POP DUP3 PUSH2 0x1510 JUMPI PUSH2 0x150F PUSH2 0x16ED JUMP JUMPDEST JUMPDEST DUP3 DUP3 DIV SWAP1 POP SWAP3 SWAP2 POP POP JUMP JUMPDEST PUSH1 0x0 PUSH2 0x1526 DUP3 PUSH2 0x155E JUMP JUMPDEST SWAP1 POP SWAP2 SWAP1 POP JUMP JUMPDEST PUSH1 0x0 PUSH2 0x1538 DUP3 PUSH2 0x155E JUMP JUMPDEST SWAP1 POP SWAP2 SWAP1 POP JUMP JUMPDEST PUSH1 0x0 DUP2 ISZERO ISZERO SWAP1 POP SWAP2 SWAP1 POP JUMP JUMPDEST PUSH1 0x0 DUP2 SWAP1 POP PUSH2 0x1559 DUP3 PUSH2 0x18ED JUMP JUMPDEST SWAP2 SWAP1 POP JUMP JUMPDEST PUSH1 0x0 PUSH20 0xFFFFFFFFFFFFFFFFFFFFFFFFFFFFFFFFFFFFFFFF DUP3 AND SWAP1 POP SWAP2 SWAP1 POP JUMP JUMPDEST PUSH1 0x0 DUP2 SWAP1 POP SWAP2 SWAP1 POP JUMP JUMPDEST PUSH1 0x0 PUSH2 0x1593 DUP3 PUSH2 0x15AC JUMP JUMPDEST SWAP1 POP SWAP2 SWAP1 POP JUMP JUMPDEST PUSH1 0x0 PUSH2 0x15A5 DUP3 PUSH2 0x154B JUMP JUMPDEST SWAP1 POP SWAP2 SWAP1 POP JUMP JUMPDEST PUSH1 0x0 PUSH2 0x15B7 DUP3 PUSH2 0x15BE JUMP JUMPDEST SWAP1 POP SWAP2 SWAP1 POP JUMP JUMPDEST PUSH1 0x0 PUSH2 0x15C9 DUP3 PUSH2 0x155E JUMP JUMPDEST SWAP1 POP SWAP2 SWAP1 POP JUMP JUMPDEST DUP3 DUP2 DUP4 CALLDATACOPY PUSH1 0x0 DUP4 DUP4 ADD MSTORE POP POP POP JUMP JUMPDEST PUSH1 0x0 JUMPDEST DUP4 DUP2 LT ISZERO PUSH2 0x15FD JUMPI DUP1 DUP3 ADD MLOAD DUP2 DUP5 ADD MSTORE PUSH1 0x20 DUP2 ADD SWAP1 POP PUSH2 0x15E2 JUMP JUMPDEST DUP4 DUP2 GT ISZERO PUSH2 0x160C JUMPI PUSH1 0x0 DUP5 DUP5 ADD MSTORE JUMPDEST POP POP POP POP JUMP JUMPDEST PUSH1 0x0 PUSH1 0x2 DUP3 DIV SWAP1 POP PUSH1 0x1 DUP3 AND DUP1 PUSH2 0x162A JUMPI PUSH1 0x7F DUP3 AND SWAP2 POP JUMPDEST PUSH1 0x20 DUP3 LT DUP2 EQ ISZERO PUSH2 0x163E JUMPI PUSH2 0x163D PUSH2 0x174B JUMP JUMPDEST JUMPDEST POP SWAP2 SWAP1 POP JUMP JUMPDEST PUSH2 0x164D DUP3 PUSH2 0x17BD JUMP JUMPDEST DUP2 ADD DUP2 DUP2 LT PUSH8 0xFFFFFFFFFFFFFFFF DUP3 GT OR ISZERO PUSH2 0x166C JUMPI PUSH2 0x166B PUSH2 0x177A JUMP JUMPDEST JUMPDEST DUP1 PUSH1 0x40 MSTORE POP POP POP JUMP JUMPDEST PUSH1 0x0 PUSH2 0x1680 DUP3 PUSH2 0x157E JUMP JUMPDEST SWAP2 POP PUSH32 0xFFFFFFFFFFFFFFFFFFFFFFFFFFFFFFFFFFFFFFFFFFFFFFFFFFFFFFFFFFFFFFFF DUP3 EQ ISZERO PUSH2 0x16B3 JUMPI PUSH2 0x16B2 PUSH2 0x16BE JUMP JUMPDEST JUMPDEST PUSH1 0x1 DUP3 ADD SWAP1 POP SWAP2 SWAP1 POP JUMP JUMPDEST PUSH32 0x4E487B7100000000000000000000000000000000000000000000000000000000 PUSH1 0x0 MSTORE PUSH1 0x11 PUSH1 0x4 MSTORE PUSH1 0x24 PUSH1 0x0 REVERT JUMPDEST PUSH32 0x4E487B7100000000000000000000000000000000000000000000000000000000 PUSH1 0x0 MSTORE PUSH1 0x12 PUSH1 0x4 MSTORE PUSH1 0x24 PUSH1 0x0 REVERT JUMPDEST PUSH32 0x4E487B7100000000000000000000000000000000000000000000000000000000 PUSH1 0x0 MSTORE PUSH1 0x21 PUSH1 0x4 MSTORE PUSH1 0x24 PUSH1 0x0 REVERT JUMPDEST PUSH32 0x4E487B7100000000000000000000000000000000000000000000000000000000 PUSH1 0x0 MSTORE PUSH1 0x22 PUSH1 0x4 MSTORE PUSH1 0x24 PUSH1 0x0 REVERT JUMPDEST PUSH32 0x4E487B7100000000000000000000000000000000000000000000000000000000 PUSH1 0x0 MSTORE PUSH1 0x41 PUSH1 0x4 MSTORE PUSH1 0x24 PUSH1 0x0 REVERT JUMPDEST PUSH1 0x0 DUP1 REVERT JUMPDEST PUSH1 0x0 DUP1 REVERT JUMPDEST PUSH1 0x0 DUP1 REVERT JUMPDEST PUSH1 0x0 DUP1 REVERT JUMPDEST PUSH1 0x0 PUSH1 0x1F NOT PUSH1 0x1F DUP4 ADD AND SWAP1 POP SWAP2 SWAP1 POP JUMP JUMPDEST PUSH32 0x7265717565737420616C726561647920636F6D706C6574656400000000000000 PUSH1 0x0 DUP3 ADD MSTORE POP JUMP JUMPDEST PUSH32 0x6469646E74207265616368206D696E20636F6E747269627574696F6E00000000 PUSH1 0x0 DUP3 ADD MSTORE POP JUMP JUMPDEST PUSH32 0x796F7520617265206E6F74206120636F6E7472696275746F7200000000000000 PUSH1 0x0 DUP3 ADD MSTORE POP JUMP JUMPDEST PUSH32 0x796F7520616C726561647920766F746564000000000000000000000000000000 PUSH1 0x0 DUP3 ADD MSTORE POP JUMP JUMPDEST PUSH32 0x6D6573736167652073656E646572206973206E6F7420616E2061646D696E0000 PUSH1 0x0 DUP3 ADD MSTORE POP JUMP JUMPDEST PUSH32 0x646561646C696E65207061737365640000000000000000000000000000000000 PUSH1 0x0 DUP3 ADD MSTORE POP JUMP JUMPDEST PUSH32 0x43726F776446756E64696E67206973206E6F742072756E6E696E670000000000 PUSH1 0x0 DUP3 ADD MSTORE POP JUMP JUMPDEST PUSH1 0x5 DUP2 LT PUSH2 0x18FE JUMPI PUSH2 0x18FD PUSH2 0x171C JUMP JUMPDEST JUMPDEST POP JUMP JUMPDEST PUSH2 0x190A DUP2 PUSH2 0x151B JUMP JUMPDEST DUP2 EQ PUSH2 0x1915 JUMPI PUSH1 0x0 DUP1 REVERT JUMPDEST POP JUMP JUMPDEST PUSH2 0x1921 DUP2 PUSH2 0x152D JUMP JUMPDEST DUP2 EQ PUSH2 0x192C JUMPI PUSH1 0x0 DUP1 REVERT JUMPDEST POP JUMP JUMPDEST PUSH2 0x1938 DUP2 PUSH2 0x157E JUMP JUMPDEST DUP2 EQ PUSH2 0x1943 JUMPI PUSH1 0x0 DUP1 REVERT JUMPDEST POP JUMP INVALID LOG2 PUSH5 0x6970667358 0x22 SLT KECCAK256 0xDE 0xE0 SWAP14 PUSH3 0xCD9068 DUP6 GT RETURNDATASIZE 0xDE JUMPI SAR SAR 0xD6 PUSH28 0x952937EB80B50859D37983D660C4B8EE64736F6C6343000807003300 "
				},
				"gasEstimates": {
					"creation": {
						"codeDepositCost": "1304800",
						"executionCost": "infinite",
						"totalCost": "infinite"
					},
					"external": {
						"addRequest(string,address,uint256)": "infinite",
						"admin()": "2624",
						"contribute()": "infinite",
						"contributors(address)": "2882",
						"deadline()": "2519",
						"fundingState()": "2582",
						"getBalance()": "363",
						"goal()": "2452",
						"makePayment(uint256)": "infinite",
						"minContribution()": "2518",
						"numOfContributors()": "2475",
						"numRequests()": "2474",
						"raisedAmount()": "2473",
						"requestRefund()": "infinite",
						"requests(uint256)": "infinite",
						"startCampaign()": "26668",
						"voteRequest(uint256)": "infinite"
					}
				},
				"methodIdentifiers": {
					"addRequest(string,address,uint256)": "4b5e7d70",
					"admin()": "f851a440",
					"contribute()": "d7bb99ba",
					"contributors(address)": "1f6d4942",
					"deadline()": "29dcb0cf",
					"fundingState()": "b25cdccf",
					"getBalance()": "12065fe0",
					"goal()": "40193883",
					"makePayment(uint256)": "5114cb52",
					"minContribution()": "aaffadf3",
					"numOfContributors()": "1e206f15",
					"numRequests()": "9fb42b1f",
					"raisedAmount()": "c59ee1dc",
					"requestRefund()": "d5cef133",
					"requests(uint256)": "81d12c58",
					"startCampaign()": "a8b78ed0",
					"voteRequest(uint256)": "4cb6f4a5"
				}
			},
			"storageLayout": {
				"storage": [
					{
						"astId": 5,
						"contract": "contracts/crowdfunding.sol:CrowdFunding",
						"label": "contributors",
						"offset": 0,
						"slot": "0",
						"type": "t_mapping(t_address,t_uint256)"
					},
					{
						"astId": 7,
						"contract": "contracts/crowdfunding.sol:CrowdFunding",
						"label": "admin",
						"offset": 0,
						"slot": "1",
						"type": "t_address"
					},
					{
						"astId": 9,
						"contract": "contracts/crowdfunding.sol:CrowdFunding",
						"label": "numOfContributors",
						"offset": 0,
						"slot": "2",
						"type": "t_uint256"
					},
					{
						"astId": 11,
						"contract": "contracts/crowdfunding.sol:CrowdFunding",
						"label": "minContribution",
						"offset": 0,
						"slot": "3",
						"type": "t_uint256"
					},
					{
						"astId": 13,
						"contract": "contracts/crowdfunding.sol:CrowdFunding",
						"label": "deadline",
						"offset": 0,
						"slot": "4",
						"type": "t_uint256"
					},
					{
						"astId": 15,
						"contract": "contracts/crowdfunding.sol:CrowdFunding",
						"label": "goal",
						"offset": 0,
						"slot": "5",
						"type": "t_uint256"
					},
					{
						"astId": 17,
						"contract": "contracts/crowdfunding.sol:CrowdFunding",
						"label": "raisedAmount",
						"offset": 0,
						"slot": "6",
						"type": "t_uint256"
					},
					{
						"astId": 37,
						"contract": "contracts/crowdfunding.sol:CrowdFunding",
						"label": "requests",
						"offset": 0,
						"slot": "7",
						"type": "t_mapping(t_uint256,t_struct(Request)32_storage)"
					},
					{
						"astId": 39,
						"contract": "contracts/crowdfunding.sol:CrowdFunding",
						"label": "numRequests",
						"offset": 0,
						"slot": "8",
						"type": "t_uint256"
					},
					{
						"astId": 48,
						"contract": "contracts/crowdfunding.sol:CrowdFunding",
						"label": "fundingState",
						"offset": 0,
						"slot": "9",
						"type": "t_enum(State)45"
					}
				],
				"types": {
					"t_address": {
						"encoding": "inplace",
						"label": "address",
						"numberOfBytes": "20"
					},
					"t_address_payable": {
						"encoding": "inplace",
						"label": "address payable",
						"numberOfBytes": "20"
					},
					"t_bool": {
						"encoding": "inplace",
						"label": "bool",
						"numberOfBytes": "1"
					},
					"t_enum(State)45": {
						"encoding": "inplace",
						"label": "enum CrowdFunding.State",
						"numberOfBytes": "1"
					},
					"t_mapping(t_address,t_bool)": {
						"encoding": "mapping",
						"key": "t_address",
						"label": "mapping(address => bool)",
						"numberOfBytes": "32",
						"value": "t_bool"
					},
					"t_mapping(t_address,t_uint256)": {
						"encoding": "mapping",
						"key": "t_address",
						"label": "mapping(address => uint256)",
						"numberOfBytes": "32",
						"value": "t_uint256"
					},
					"t_mapping(t_uint256,t_struct(Request)32_storage)": {
						"encoding": "mapping",
						"key": "t_uint256",
						"label": "mapping(uint256 => struct CrowdFunding.Request)",
						"numberOfBytes": "32",
						"value": "t_struct(Request)32_storage"
					},
					"t_string_storage": {
						"encoding": "bytes",
						"label": "string",
						"numberOfBytes": "32"
					},
					"t_struct(Request)32_storage": {
						"encoding": "inplace",
						"label": "struct CrowdFunding.Request",
						"members": [
							{
								"astId": 19,
								"contract": "contracts/crowdfunding.sol:CrowdFunding",
								"label": "description",
								"offset": 0,
								"slot": "0",
								"type": "t_string_storage"
							},
							{
								"astId": 21,
								"contract": "contracts/crowdfunding.sol:CrowdFunding",
								"label": "recipient",
								"offset": 0,
								"slot": "1",
								"type": "t_address_payable"
							},
							{
								"astId": 23,
								"contract": "contracts/crowdfunding.sol:CrowdFunding",
								"label": "value",
								"offset": 0,
								"slot": "2",
								"type": "t_uint256"
							},
							{
								"astId": 25,
								"contract": "contracts/crowdfunding.sol:CrowdFunding",
								"label": "completed",
								"offset": 0,
								"slot": "3",
								"type": "t_bool"
							},
							{
								"astId": 27,
								"contract": "contracts/crowdfunding.sol:CrowdFunding",
								"label": "numOfVoters",
								"offset": 0,
								"slot": "4",
								"type": "t_uint256"
							},
							{
								"astId": 31,
								"contract": "contracts/crowdfunding.sol:CrowdFunding",
								"label": "voters",
								"offset": 0,
								"slot": "5",
								"type": "t_mapping(t_address,t_bool)"
							}
						],
						"numberOfBytes": "192"
					},
					"t_uint256": {
						"encoding": "inplace",
						"label": "uint256",
						"numberOfBytes": "32"
					}
				}
			},
			"userdoc": {
				"kind": "user",
				"methods": {},
				"version": 1
			}
		}
	}
}