{
	"contracts/crowdfunding.sol": {
		"CrowdFunding": {
			"abi": [
				{
					"inputs": [],
					"stateMutability": "nonpayable",
					"type": "constructor"
				},
				{
					"inputs": [],
					"name": "admin",
					"outputs": [
						{
							"internalType": "address",
							"name": "",
							"type": "address"
						}
					],
					"stateMutability": "view",
					"type": "function"
				},
				{
					"inputs": [
						{
							"internalType": "address",
							"name": "",
							"type": "address"
						}
					],
					"name": "contributors",
					"outputs": [
						{
							"internalType": "uint256",
							"name": "",
							"type": "uint256"
						}
					],
					"stateMutability": "view",
					"type": "function"
				},
				{
					"inputs": [],
					"name": "fundingState",
					"outputs": [
						{
							"internalType": "enum CrowdFunding.State",
							"name": "",
							"type": "uint8"
						}
					],
					"stateMutability": "view",
					"type": "function"
				},
				{
					"inputs": [],
					"name": "startCampaign",
					"outputs": [],
					"stateMutability": "nonpayable",
					"type": "function"
				}
			],
			"devdoc": {
				"kind": "dev",
				"methods": {},
				"version": 1
			},
			"evm": {
				"assembly": "    /* \"contracts/crowdfunding.sol\":73:555  contract CrowdFunding{\r... */\n  mstore(0x40, 0x80)\n    /* \"contracts/crowdfunding.sol\":275:361  constructor(){\r... */\n  callvalue\n  dup1\n  iszero\n  tag_1\n  jumpi\n  0x00\n  dup1\n  revert\ntag_1:\n  pop\n    /* \"contracts/crowdfunding.sol\":307:317  msg.sender */\n  caller\n    /* \"contracts/crowdfunding.sol\":299:304  admin */\n  0x01\n  0x00\n    /* \"contracts/crowdfunding.sol\":299:317  admin = msg.sender */\n  0x0100\n  exp\n  dup2\n  sload\n  dup2\n  0xffffffffffffffffffffffffffffffffffffffff\n  mul\n  not\n  and\n  swap1\n  dup4\n  0xffffffffffffffffffffffffffffffffffffffff\n  and\n  mul\n  or\n  swap1\n  sstore\n  pop\n    /* \"contracts/crowdfunding.sol\":343:353  State.INIT */\n  0x00\n    /* \"contracts/crowdfunding.sol\":328:340  fundingState */\n  0x01\n  0x14\n    /* \"contracts/crowdfunding.sol\":328:353  fundingState = State.INIT */\n  0x0100\n  exp\n  dup2\n  sload\n  dup2\n  0xff\n  mul\n  not\n  and\n  swap1\n  dup4\n  0x04\n  dup2\n  gt\n  iszero\n  tag_4\n  jumpi\n  tag_5\n  tag_6\n  jump\t// in\ntag_5:\ntag_4:\n  mul\n  or\n  swap1\n  sstore\n  pop\n    /* \"contracts/crowdfunding.sol\":73:555  contract CrowdFunding{\r... */\n  jump(tag_7)\n    /* \"#utility.yul\":7:187   */\ntag_6:\n    /* \"#utility.yul\":55:132   */\n  0x4e487b7100000000000000000000000000000000000000000000000000000000\n    /* \"#utility.yul\":52:53   */\n  0x00\n    /* \"#utility.yul\":45:133   */\n  mstore\n    /* \"#utility.yul\":152:156   */\n  0x21\n    /* \"#utility.yul\":149:150   */\n  0x04\n    /* \"#utility.yul\":142:157   */\n  mstore\n    /* \"#utility.yul\":176:180   */\n  0x24\n    /* \"#utility.yul\":173:174   */\n  0x00\n    /* \"#utility.yul\":166:181   */\n  revert\n    /* \"contracts/crowdfunding.sol\":73:555  contract CrowdFunding{\r... */\ntag_7:\n  dataSize(sub_0)\n  dup1\n  dataOffset(sub_0)\n  0x00\n  codecopy\n  0x00\n  return\nstop\n\nsub_0: assembly {\n        /* \"contracts/crowdfunding.sol\":73:555  contract CrowdFunding{\r... */\n      mstore(0x40, 0x80)\n      callvalue\n      dup1\n      iszero\n      tag_1\n      jumpi\n      0x00\n      dup1\n      revert\n    tag_1:\n      pop\n      jumpi(tag_2, lt(calldatasize, 0x04))\n      shr(0xe0, calldataload(0x00))\n      dup1\n      0x1f6d4942\n      eq\n      tag_3\n      jumpi\n      dup1\n      0xa8b78ed0\n      eq\n      tag_4\n      jumpi\n      dup1\n      0xb25cdccf\n      eq\n      tag_5\n      jumpi\n      dup1\n      0xf851a440\n      eq\n      tag_6\n      jumpi\n    tag_2:\n      0x00\n      dup1\n      revert\n        /* \"contracts/crowdfunding.sol\":103:147  mapping(address => uint) public contributors */\n    tag_3:\n      tag_7\n      0x04\n      dup1\n      calldatasize\n      sub\n      dup2\n      add\n      swap1\n      tag_8\n      swap2\n      swap1\n      tag_9\n      jump\t// in\n    tag_8:\n      tag_10\n      jump\t// in\n    tag_7:\n      mload(0x40)\n      tag_11\n      swap2\n      swap1\n      tag_12\n      jump\t// in\n    tag_11:\n      mload(0x40)\n      dup1\n      swap2\n      sub\n      swap1\n      return\n        /* \"contracts/crowdfunding.sol\":456:544  function startCampaign() public adminOnly{\r... */\n    tag_4:\n      tag_13\n      tag_14\n      jump\t// in\n    tag_13:\n      stop\n        /* \"contracts/crowdfunding.sol\":241:266  State public fundingState */\n    tag_5:\n      tag_15\n      tag_16\n      jump\t// in\n    tag_15:\n      mload(0x40)\n      tag_17\n      swap2\n      swap1\n      tag_18\n      jump\t// in\n    tag_17:\n      mload(0x40)\n      dup1\n      swap2\n      sub\n      swap1\n      return\n        /* \"contracts/crowdfunding.sol\":154:174  address public admin */\n    tag_6:\n      tag_19\n      tag_20\n      jump\t// in\n    tag_19:\n      mload(0x40)\n      tag_21\n      swap2\n      swap1\n      tag_22\n      jump\t// in\n    tag_21:\n      mload(0x40)\n      dup1\n      swap2\n      sub\n      swap1\n      return\n        /* \"contracts/crowdfunding.sol\":103:147  mapping(address => uint) public contributors */\n    tag_10:\n      mstore(0x20, 0x00)\n      dup1\n      0x00\n      mstore\n      keccak256(0x00, 0x40)\n      0x00\n      swap2\n      pop\n      swap1\n      pop\n      sload\n      dup2\n      jump\t// out\n        /* \"contracts/crowdfunding.sol\":456:544  function startCampaign() public adminOnly{\r... */\n    tag_14:\n        /* \"contracts/crowdfunding.sol\":422:427  admin */\n      0x01\n      0x00\n      swap1\n      sload\n      swap1\n      0x0100\n      exp\n      swap1\n      div\n      0xffffffffffffffffffffffffffffffffffffffff\n      and\n        /* \"contracts/crowdfunding.sol\":408:427  msg.sender == admin */\n      0xffffffffffffffffffffffffffffffffffffffff\n      and\n        /* \"contracts/crowdfunding.sol\":408:418  msg.sender */\n      caller\n        /* \"contracts/crowdfunding.sol\":408:427  msg.sender == admin */\n      0xffffffffffffffffffffffffffffffffffffffff\n      and\n      eq\n        /* \"contracts/crowdfunding.sol\":400:428  require(msg.sender == admin) */\n      tag_24\n      jumpi\n      0x00\n      dup1\n      revert\n    tag_24:\n        /* \"contracts/crowdfunding.sol\":523:536  State.RUNNING */\n      0x02\n        /* \"contracts/crowdfunding.sol\":508:520  fundingState */\n      0x01\n      0x14\n        /* \"contracts/crowdfunding.sol\":508:536  fundingState = State.RUNNING */\n      0x0100\n      exp\n      dup2\n      sload\n      dup2\n      0xff\n      mul\n      not\n      and\n      swap1\n      dup4\n      0x04\n      dup2\n      gt\n      iszero\n      tag_26\n      jumpi\n      tag_27\n      tag_28\n      jump\t// in\n    tag_27:\n    tag_26:\n      mul\n      or\n      swap1\n      sstore\n      pop\n        /* \"contracts/crowdfunding.sol\":456:544  function startCampaign() public adminOnly{\r... */\n      jump\t// out\n        /* \"contracts/crowdfunding.sol\":241:266  State public fundingState */\n    tag_16:\n      0x01\n      0x14\n      swap1\n      sload\n      swap1\n      0x0100\n      exp\n      swap1\n      div\n      0xff\n      and\n      dup2\n      jump\t// out\n        /* \"contracts/crowdfunding.sol\":154:174  address public admin */\n    tag_20:\n      0x01\n      0x00\n      swap1\n      sload\n      swap1\n      0x0100\n      exp\n      swap1\n      div\n      0xffffffffffffffffffffffffffffffffffffffff\n      and\n      dup2\n      jump\t// out\n        /* \"#utility.yul\":7:146   */\n    tag_30:\n        /* \"#utility.yul\":53:58   */\n      0x00\n        /* \"#utility.yul\":91:97   */\n      dup2\n        /* \"#utility.yul\":78:98   */\n      calldataload\n        /* \"#utility.yul\":69:98   */\n      swap1\n      pop\n        /* \"#utility.yul\":107:140   */\n      tag_32\n        /* \"#utility.yul\":134:139   */\n      dup2\n        /* \"#utility.yul\":107:140   */\n      tag_33\n      jump\t// in\n    tag_32:\n        /* \"#utility.yul\":7:146   */\n      swap3\n      swap2\n      pop\n      pop\n      jump\t// out\n        /* \"#utility.yul\":152:481   */\n    tag_9:\n        /* \"#utility.yul\":211:217   */\n      0x00\n        /* \"#utility.yul\":260:262   */\n      0x20\n        /* \"#utility.yul\":248:257   */\n      dup3\n        /* \"#utility.yul\":239:246   */\n      dup5\n        /* \"#utility.yul\":235:258   */\n      sub\n        /* \"#utility.yul\":231:263   */\n      slt\n        /* \"#utility.yul\":228:347   */\n      iszero\n      tag_35\n      jumpi\n        /* \"#utility.yul\":266:345   */\n      tag_36\n      tag_37\n      jump\t// in\n    tag_36:\n        /* \"#utility.yul\":228:347   */\n    tag_35:\n        /* \"#utility.yul\":386:387   */\n      0x00\n        /* \"#utility.yul\":411:464   */\n      tag_38\n        /* \"#utility.yul\":456:463   */\n      dup5\n        /* \"#utility.yul\":447:453   */\n      dup3\n        /* \"#utility.yul\":436:445   */\n      dup6\n        /* \"#utility.yul\":432:454   */\n      add\n        /* \"#utility.yul\":411:464   */\n      tag_30\n      jump\t// in\n    tag_38:\n        /* \"#utility.yul\":401:464   */\n      swap2\n      pop\n        /* \"#utility.yul\":357:474   */\n      pop\n        /* \"#utility.yul\":152:481   */\n      swap3\n      swap2\n      pop\n      pop\n      jump\t// out\n        /* \"#utility.yul\":487:605   */\n    tag_39:\n        /* \"#utility.yul\":574:598   */\n      tag_41\n        /* \"#utility.yul\":592:597   */\n      dup2\n        /* \"#utility.yul\":574:598   */\n      tag_42\n      jump\t// in\n    tag_41:\n        /* \"#utility.yul\":569:572   */\n      dup3\n        /* \"#utility.yul\":562:599   */\n      mstore\n        /* \"#utility.yul\":487:605   */\n      pop\n      pop\n      jump\t// out\n        /* \"#utility.yul\":611:754   */\n    tag_43:\n        /* \"#utility.yul\":704:747   */\n      tag_45\n        /* \"#utility.yul\":741:746   */\n      dup2\n        /* \"#utility.yul\":704:747   */\n      tag_46\n      jump\t// in\n    tag_45:\n        /* \"#utility.yul\":699:702   */\n      dup3\n        /* \"#utility.yul\":692:748   */\n      mstore\n        /* \"#utility.yul\":611:754   */\n      pop\n      pop\n      jump\t// out\n        /* \"#utility.yul\":760:878   */\n    tag_47:\n        /* \"#utility.yul\":847:871   */\n      tag_49\n        /* \"#utility.yul\":865:870   */\n      dup2\n        /* \"#utility.yul\":847:871   */\n      tag_50\n      jump\t// in\n    tag_49:\n        /* \"#utility.yul\":842:845   */\n      dup3\n        /* \"#utility.yul\":835:872   */\n      mstore\n        /* \"#utility.yul\":760:878   */\n      pop\n      pop\n      jump\t// out\n        /* \"#utility.yul\":884:1106   */\n    tag_22:\n        /* \"#utility.yul\":977:981   */\n      0x00\n        /* \"#utility.yul\":1015:1017   */\n      0x20\n        /* \"#utility.yul\":1004:1013   */\n      dup3\n        /* \"#utility.yul\":1000:1018   */\n      add\n        /* \"#utility.yul\":992:1018   */\n      swap1\n      pop\n        /* \"#utility.yul\":1028:1099   */\n      tag_52\n        /* \"#utility.yul\":1096:1097   */\n      0x00\n        /* \"#utility.yul\":1085:1094   */\n      dup4\n        /* \"#utility.yul\":1081:1098   */\n      add\n        /* \"#utility.yul\":1072:1078   */\n      dup5\n        /* \"#utility.yul\":1028:1099   */\n      tag_39\n      jump\t// in\n    tag_52:\n        /* \"#utility.yul\":884:1106   */\n      swap3\n      swap2\n      pop\n      pop\n      jump\t// out\n        /* \"#utility.yul\":1112:1346   */\n    tag_18:\n        /* \"#utility.yul\":1211:1215   */\n      0x00\n        /* \"#utility.yul\":1249:1251   */\n      0x20\n        /* \"#utility.yul\":1238:1247   */\n      dup3\n        /* \"#utility.yul\":1234:1252   */\n      add\n        /* \"#utility.yul\":1226:1252   */\n      swap1\n      pop\n        /* \"#utility.yul\":1262:1339   */\n      tag_54\n        /* \"#utility.yul\":1336:1337   */\n      0x00\n        /* \"#utility.yul\":1325:1334   */\n      dup4\n        /* \"#utility.yul\":1321:1338   */\n      add\n        /* \"#utility.yul\":1312:1318   */\n      dup5\n        /* \"#utility.yul\":1262:1339   */\n      tag_43\n      jump\t// in\n    tag_54:\n        /* \"#utility.yul\":1112:1346   */\n      swap3\n      swap2\n      pop\n      pop\n      jump\t// out\n        /* \"#utility.yul\":1352:1574   */\n    tag_12:\n        /* \"#utility.yul\":1445:1449   */\n      0x00\n        /* \"#utility.yul\":1483:1485   */\n      0x20\n        /* \"#utility.yul\":1472:1481   */\n      dup3\n        /* \"#utility.yul\":1468:1486   */\n      add\n        /* \"#utility.yul\":1460:1486   */\n      swap1\n      pop\n        /* \"#utility.yul\":1496:1567   */\n      tag_56\n        /* \"#utility.yul\":1564:1565   */\n      0x00\n        /* \"#utility.yul\":1553:1562   */\n      dup4\n        /* \"#utility.yul\":1549:1566   */\n      add\n        /* \"#utility.yul\":1540:1546   */\n      dup5\n        /* \"#utility.yul\":1496:1567   */\n      tag_47\n      jump\t// in\n    tag_56:\n        /* \"#utility.yul\":1352:1574   */\n      swap3\n      swap2\n      pop\n      pop\n      jump\t// out\n        /* \"#utility.yul\":1661:1757   */\n    tag_42:\n        /* \"#utility.yul\":1698:1705   */\n      0x00\n        /* \"#utility.yul\":1727:1751   */\n      tag_60\n        /* \"#utility.yul\":1745:1750   */\n      dup3\n        /* \"#utility.yul\":1727:1751   */\n      tag_61\n      jump\t// in\n    tag_60:\n        /* \"#utility.yul\":1716:1751   */\n      swap1\n      pop\n        /* \"#utility.yul\":1661:1757   */\n      swap2\n      swap1\n      pop\n      jump\t// out\n        /* \"#utility.yul\":1763:1890   */\n    tag_62:\n        /* \"#utility.yul\":1808:1815   */\n      0x00\n        /* \"#utility.yul\":1837:1842   */\n      dup2\n        /* \"#utility.yul\":1826:1842   */\n      swap1\n      pop\n        /* \"#utility.yul\":1843:1884   */\n      tag_64\n        /* \"#utility.yul\":1878:1883   */\n      dup3\n        /* \"#utility.yul\":1843:1884   */\n      tag_65\n      jump\t// in\n    tag_64:\n        /* \"#utility.yul\":1763:1890   */\n      swap2\n      swap1\n      pop\n      jump\t// out\n        /* \"#utility.yul\":1896:2022   */\n    tag_61:\n        /* \"#utility.yul\":1933:1940   */\n      0x00\n        /* \"#utility.yul\":1973:2015   */\n      0xffffffffffffffffffffffffffffffffffffffff\n        /* \"#utility.yul\":1966:1971   */\n      dup3\n        /* \"#utility.yul\":1962:2016   */\n      and\n        /* \"#utility.yul\":1951:2016   */\n      swap1\n      pop\n        /* \"#utility.yul\":1896:2022   */\n      swap2\n      swap1\n      pop\n      jump\t// out\n        /* \"#utility.yul\":2028:2105   */\n    tag_50:\n        /* \"#utility.yul\":2065:2072   */\n      0x00\n        /* \"#utility.yul\":2094:2099   */\n      dup2\n        /* \"#utility.yul\":2083:2099   */\n      swap1\n      pop\n        /* \"#utility.yul\":2028:2105   */\n      swap2\n      swap1\n      pop\n      jump\t// out\n        /* \"#utility.yul\":2111:2238   */\n    tag_46:\n        /* \"#utility.yul\":2167:2176   */\n      0x00\n        /* \"#utility.yul\":2200:2232   */\n      tag_69\n        /* \"#utility.yul\":2226:2231   */\n      dup3\n        /* \"#utility.yul\":2200:2232   */\n      tag_62\n      jump\t// in\n    tag_69:\n        /* \"#utility.yul\":2187:2232   */\n      swap1\n      pop\n        /* \"#utility.yul\":2111:2238   */\n      swap2\n      swap1\n      pop\n      jump\t// out\n        /* \"#utility.yul\":2244:2424   */\n    tag_28:\n        /* \"#utility.yul\":2292:2369   */\n      0x4e487b7100000000000000000000000000000000000000000000000000000000\n        /* \"#utility.yul\":2289:2290   */\n      0x00\n        /* \"#utility.yul\":2282:2370   */\n      mstore\n        /* \"#utility.yul\":2389:2393   */\n      0x21\n        /* \"#utility.yul\":2386:2387   */\n      0x04\n        /* \"#utility.yul\":2379:2394   */\n      mstore\n        /* \"#utility.yul\":2413:2417   */\n      0x24\n        /* \"#utility.yul\":2410:2411   */\n      0x00\n        /* \"#utility.yul\":2403:2418   */\n      revert\n        /* \"#utility.yul\":2553:2670   */\n    tag_37:\n        /* \"#utility.yul\":2662:2663   */\n      0x00\n        /* \"#utility.yul\":2659:2660   */\n      dup1\n        /* \"#utility.yul\":2652:2664   */\n      revert\n        /* \"#utility.yul\":2676:2789   */\n    tag_65:\n        /* \"#utility.yul\":2757:2758   */\n      0x05\n        /* \"#utility.yul\":2750:2755   */\n      dup2\n        /* \"#utility.yul\":2747:2759   */\n      lt\n        /* \"#utility.yul\":2737:2783   */\n      tag_75\n      jumpi\n        /* \"#utility.yul\":2763:2781   */\n      tag_76\n      tag_28\n      jump\t// in\n    tag_76:\n        /* \"#utility.yul\":2737:2783   */\n    tag_75:\n        /* \"#utility.yul\":2676:2789   */\n      pop\n      jump\t// out\n        /* \"#utility.yul\":2795:2917   */\n    tag_33:\n        /* \"#utility.yul\":2868:2892   */\n      tag_78\n        /* \"#utility.yul\":2886:2891   */\n      dup2\n        /* \"#utility.yul\":2868:2892   */\n      tag_42\n      jump\t// in\n    tag_78:\n        /* \"#utility.yul\":2861:2866   */\n      dup2\n        /* \"#utility.yul\":2858:2893   */\n      eq\n        /* \"#utility.yul\":2848:2911   */\n      tag_79\n      jumpi\n        /* \"#utility.yul\":2907:2908   */\n      0x00\n        /* \"#utility.yul\":2904:2905   */\n      dup1\n        /* \"#utility.yul\":2897:2909   */\n      revert\n        /* \"#utility.yul\":2848:2911   */\n    tag_79:\n        /* \"#utility.yul\":2795:2917   */\n      pop\n      jump\t// out\n\n    auxdata: 0xa2646970667358221220438c5d13d2784f86d880309802d575f41caba61968aa07cf51a2dbe930f1d8e764736f6c63430008070033\n}\n",
				"bytecode": {
					"linkReferences": {},
					"object": "608060405234801561001057600080fd5b5033600160006101000a81548173ffffffffffffffffffffffffffffffffffffffff021916908373ffffffffffffffffffffffffffffffffffffffff1602179055506000600160146101000a81548160ff0219169083600481111561007857610077610082565b5b02179055506100b1565b7f4e487b7100000000000000000000000000000000000000000000000000000000600052602160045260246000fd5b610355806100c06000396000f3fe608060405234801561001057600080fd5b506004361061004c5760003560e01c80631f6d494214610051578063a8b78ed014610081578063b25cdccf1461008b578063f851a440146100a9575b600080fd5b61006b600480360381019061006691906101b4565b6100c7565b6040516100789190610244565b60405180910390f35b6100896100df565b005b610093610166565b6040516100a09190610229565b60405180910390f35b6100b1610179565b6040516100be919061020e565b60405180910390f35b60006020528060005260406000206000915090505481565b600160009054906101000a900473ffffffffffffffffffffffffffffffffffffffff1673ffffffffffffffffffffffffffffffffffffffff163373ffffffffffffffffffffffffffffffffffffffff161461013957600080fd5b6002600160146101000a81548160ff0219169083600481111561015f5761015e6102c0565b5b0217905550565b600160149054906101000a900460ff1681565b600160009054906101000a900473ffffffffffffffffffffffffffffffffffffffff1681565b6000813590506101ae81610308565b92915050565b6000602082840312156101ca576101c96102ef565b5b60006101d88482850161019f565b91505092915050565b6101ea8161025f565b82525050565b6101f9816102ae565b82525050565b610208816102a4565b82525050565b600060208201905061022360008301846101e1565b92915050565b600060208201905061023e60008301846101f0565b92915050565b600060208201905061025960008301846101ff565b92915050565b600061026a82610284565b9050919050565b600081905061027f826102f4565b919050565b600073ffffffffffffffffffffffffffffffffffffffff82169050919050565b6000819050919050565b60006102b982610271565b9050919050565b7f4e487b7100000000000000000000000000000000000000000000000000000000600052602160045260246000fd5b600080fd5b60058110610305576103046102c0565b5b50565b6103118161025f565b811461031c57600080fd5b5056fea2646970667358221220438c5d13d2784f86d880309802d575f41caba61968aa07cf51a2dbe930f1d8e764736f6c63430008070033",
					"opcodes": "PUSH1 0x80 PUSH1 0x40 MSTORE CALLVALUE DUP1 ISZERO PUSH2 0x10 JUMPI PUSH1 0x0 DUP1 REVERT JUMPDEST POP CALLER PUSH1 0x1 PUSH1 0x0 PUSH2 0x100 EXP DUP2 SLOAD DUP2 PUSH20 0xFFFFFFFFFFFFFFFFFFFFFFFFFFFFFFFFFFFFFFFF MUL NOT AND SWAP1 DUP4 PUSH20 0xFFFFFFFFFFFFFFFFFFFFFFFFFFFFFFFFFFFFFFFF AND MUL OR SWAP1 SSTORE POP PUSH1 0x0 PUSH1 0x1 PUSH1 0x14 PUSH2 0x100 EXP DUP2 SLOAD DUP2 PUSH1 0xFF MUL NOT AND SWAP1 DUP4 PUSH1 0x4 DUP2 GT ISZERO PUSH2 0x78 JUMPI PUSH2 0x77 PUSH2 0x82 JUMP JUMPDEST JUMPDEST MUL OR SWAP1 SSTORE POP PUSH2 0xB1 JUMP JUMPDEST PUSH32 0x4E487B7100000000000000000000000000000000000000000000000000000000 PUSH1 0x0 MSTORE PUSH1 0x21 PUSH1 0x4 MSTORE PUSH1 0x24 PUSH1 0x0 REVERT JUMPDEST PUSH2 0x355 DUP1 PUSH2 0xC0 PUSH1 0x0 CODECOPY PUSH1 0x0 RETURN INVALID PUSH1 0x80 PUSH1 0x40 MSTORE CALLVALUE DUP1 ISZERO PUSH2 0x10 JUMPI PUSH1 0x0 DUP1 REVERT JUMPDEST POP PUSH1 0x4 CALLDATASIZE LT PUSH2 0x4C JUMPI PUSH1 0x0 CALLDATALOAD PUSH1 0xE0 SHR DUP1 PUSH4 0x1F6D4942 EQ PUSH2 0x51 JUMPI DUP1 PUSH4 0xA8B78ED0 EQ PUSH2 0x81 JUMPI DUP1 PUSH4 0xB25CDCCF EQ PUSH2 0x8B JUMPI DUP1 PUSH4 0xF851A440 EQ PUSH2 0xA9 JUMPI JUMPDEST PUSH1 0x0 DUP1 REVERT JUMPDEST PUSH2 0x6B PUSH1 0x4 DUP1 CALLDATASIZE SUB DUP2 ADD SWAP1 PUSH2 0x66 SWAP2 SWAP1 PUSH2 0x1B4 JUMP JUMPDEST PUSH2 0xC7 JUMP JUMPDEST PUSH1 0x40 MLOAD PUSH2 0x78 SWAP2 SWAP1 PUSH2 0x244 JUMP JUMPDEST PUSH1 0x40 MLOAD DUP1 SWAP2 SUB SWAP1 RETURN JUMPDEST PUSH2 0x89 PUSH2 0xDF JUMP JUMPDEST STOP JUMPDEST PUSH2 0x93 PUSH2 0x166 JUMP JUMPDEST PUSH1 0x40 MLOAD PUSH2 0xA0 SWAP2 SWAP1 PUSH2 0x229 JUMP JUMPDEST PUSH1 0x40 MLOAD DUP1 SWAP2 SUB SWAP1 RETURN JUMPDEST PUSH2 0xB1 PUSH2 0x179 JUMP JUMPDEST PUSH1 0x40 MLOAD PUSH2 0xBE SWAP2 SWAP1 PUSH2 0x20E JUMP JUMPDEST PUSH1 0x40 MLOAD DUP1 SWAP2 SUB SWAP1 RETURN JUMPDEST PUSH1 0x0 PUSH1 0x20 MSTORE DUP1 PUSH1 0x0 MSTORE PUSH1 0x40 PUSH1 0x0 KECCAK256 PUSH1 0x0 SWAP2 POP SWAP1 POP SLOAD DUP2 JUMP JUMPDEST PUSH1 0x1 PUSH1 0x0 SWAP1 SLOAD SWAP1 PUSH2 0x100 EXP SWAP1 DIV PUSH20 0xFFFFFFFFFFFFFFFFFFFFFFFFFFFFFFFFFFFFFFFF AND PUSH20 0xFFFFFFFFFFFFFFFFFFFFFFFFFFFFFFFFFFFFFFFF AND CALLER PUSH20 0xFFFFFFFFFFFFFFFFFFFFFFFFFFFFFFFFFFFFFFFF AND EQ PUSH2 0x139 JUMPI PUSH1 0x0 DUP1 REVERT JUMPDEST PUSH1 0x2 PUSH1 0x1 PUSH1 0x14 PUSH2 0x100 EXP DUP2 SLOAD DUP2 PUSH1 0xFF MUL NOT AND SWAP1 DUP4 PUSH1 0x4 DUP2 GT ISZERO PUSH2 0x15F JUMPI PUSH2 0x15E PUSH2 0x2C0 JUMP JUMPDEST JUMPDEST MUL OR SWAP1 SSTORE POP JUMP JUMPDEST PUSH1 0x1 PUSH1 0x14 SWAP1 SLOAD SWAP1 PUSH2 0x100 EXP SWAP1 DIV PUSH1 0xFF AND DUP2 JUMP JUMPDEST PUSH1 0x1 PUSH1 0x0 SWAP1 SLOAD SWAP1 PUSH2 0x100 EXP SWAP1 DIV PUSH20 0xFFFFFFFFFFFFFFFFFFFFFFFFFFFFFFFFFFFFFFFF AND DUP2 JUMP JUMPDEST PUSH1 0x0 DUP2 CALLDATALOAD SWAP1 POP PUSH2 0x1AE DUP2 PUSH2 0x308 JUMP JUMPDEST SWAP3 SWAP2 POP POP JUMP JUMPDEST PUSH1 0x0 PUSH1 0x20 DUP3 DUP5 SUB SLT ISZERO PUSH2 0x1CA JUMPI PUSH2 0x1C9 PUSH2 0x2EF JUMP JUMPDEST JUMPDEST PUSH1 0x0 PUSH2 0x1D8 DUP5 DUP3 DUP6 ADD PUSH2 0x19F JUMP JUMPDEST SWAP2 POP POP SWAP3 SWAP2 POP POP JUMP JUMPDEST PUSH2 0x1EA DUP2 PUSH2 0x25F JUMP JUMPDEST DUP3 MSTORE POP POP JUMP JUMPDEST PUSH2 0x1F9 DUP2 PUSH2 0x2AE JUMP JUMPDEST DUP3 MSTORE POP POP JUMP JUMPDEST PUSH2 0x208 DUP2 PUSH2 0x2A4 JUMP JUMPDEST DUP3 MSTORE POP POP JUMP JUMPDEST PUSH1 0x0 PUSH1 0x20 DUP3 ADD SWAP1 POP PUSH2 0x223 PUSH1 0x0 DUP4 ADD DUP5 PUSH2 0x1E1 JUMP JUMPDEST SWAP3 SWAP2 POP POP JUMP JUMPDEST PUSH1 0x0 PUSH1 0x20 DUP3 ADD SWAP1 POP PUSH2 0x23E PUSH1 0x0 DUP4 ADD DUP5 PUSH2 0x1F0 JUMP JUMPDEST SWAP3 SWAP2 POP POP JUMP JUMPDEST PUSH1 0x0 PUSH1 0x20 DUP3 ADD SWAP1 POP PUSH2 0x259 PUSH1 0x0 DUP4 ADD DUP5 PUSH2 0x1FF JUMP JUMPDEST SWAP3 SWAP2 POP POP JUMP JUMPDEST PUSH1 0x0 PUSH2 0x26A DUP3 PUSH2 0x284 JUMP JUMPDEST SWAP1 POP SWAP2 SWAP1 POP JUMP JUMPDEST PUSH1 0x0 DUP2 SWAP1 POP PUSH2 0x27F DUP3 PUSH2 0x2F4 JUMP JUMPDEST SWAP2 SWAP1 POP JUMP JUMPDEST PUSH1 0x0 PUSH20 0xFFFFFFFFFFFFFFFFFFFFFFFFFFFFFFFFFFFFFFFF DUP3 AND SWAP1 POP SWAP2 SWAP1 POP JUMP JUMPDEST PUSH1 0x0 DUP2 SWAP1 POP SWAP2 SWAP1 POP JUMP JUMPDEST PUSH1 0x0 PUSH2 0x2B9 DUP3 PUSH2 0x271 JUMP JUMPDEST SWAP1 POP SWAP2 SWAP1 POP JUMP JUMPDEST PUSH32 0x4E487B7100000000000000000000000000000000000000000000000000000000 PUSH1 0x0 MSTORE PUSH1 0x21 PUSH1 0x4 MSTORE PUSH1 0x24 PUSH1 0x0 REVERT JUMPDEST PUSH1 0x0 DUP1 REVERT JUMPDEST PUSH1 0x5 DUP2 LT PUSH2 0x305 JUMPI PUSH2 0x304 PUSH2 0x2C0 JUMP JUMPDEST JUMPDEST POP JUMP JUMPDEST PUSH2 0x311 DUP2 PUSH2 0x25F JUMP JUMPDEST DUP2 EQ PUSH2 0x31C JUMPI PUSH1 0x0 DUP1 REVERT JUMPDEST POP JUMP INVALID LOG2 PUSH5 0x6970667358 0x22 SLT KECCAK256 NUMBER DUP13 0x5D SGT 0xD2 PUSH25 0x4F86D880309802D575F41CABA61968AA07CF51A2DBE930F1D8 0xE7 PUSH5 0x736F6C6343 STOP ADDMOD SMOD STOP CALLER "
				},
				"gasEstimates": {
					"creation": {
						"codeDepositCost": "170600",
						"executionCost": "48829",
						"totalCost": "219429"
					},
					"external": {
						"admin()": "2558",
						"contributors(address)": "2792",
						"fundingState()": "2632",
						"startCampaign()": "26651"
					}
				},
				"methodIdentifiers": {
					"admin()": "f851a440",
					"contributors(address)": "1f6d4942",
					"fundingState()": "b25cdccf",
					"startCampaign()": "a8b78ed0"
				}
			},
			"storageLayout": {
				"storage": [
					{
						"astId": 5,
						"contract": "contracts/crowdfunding.sol:CrowdFunding",
						"label": "contributors",
						"offset": 0,
						"slot": "0",
						"type": "t_mapping(t_address,t_uint256)"
					},
					{
						"astId": 7,
						"contract": "contracts/crowdfunding.sol:CrowdFunding",
						"label": "admin",
						"offset": 0,
						"slot": "1",
						"type": "t_address"
					},
					{
						"astId": 16,
						"contract": "contracts/crowdfunding.sol:CrowdFunding",
						"label": "fundingState",
						"offset": 20,
						"slot": "1",
						"type": "t_enum(State)13"
					}
				],
				"types": {
					"t_address": {
						"encoding": "inplace",
						"label": "address",
						"numberOfBytes": "20"
					},
					"t_enum(State)13": {
						"encoding": "inplace",
						"label": "enum CrowdFunding.State",
						"numberOfBytes": "1"
					},
					"t_mapping(t_address,t_uint256)": {
						"encoding": "mapping",
						"key": "t_address",
						"label": "mapping(address => uint256)",
						"numberOfBytes": "32",
						"value": "t_uint256"
					},
					"t_uint256": {
						"encoding": "inplace",
						"label": "uint256",
						"numberOfBytes": "32"
					}
				}
			},
			"userdoc": {
				"kind": "user",
				"methods": {},
				"version": 1
			}
		}
	}
}